{"abi":[{"type":"function","name":"amountOuts","inputs":[{"name":"","type":"address","internalType":"address"},{"name":"","type":"address","internalType":"address"},{"name":"","type":"uint256","internalType":"uint256"}],"outputs":[{"name":"","type":"uint256","internalType":"uint256"}],"stateMutability":"view"},{"type":"function","name":"getRouter","inputs":[],"outputs":[{"name":"","type":"address","internalType":"address"}],"stateMutability":"view"},{"type":"function","name":"quote","inputs":[{"name":"tokenIn","type":"address","internalType":"address"},{"name":"tokenOut","type":"address","internalType":"address"},{"name":"amountIn","type":"uint256","internalType":"uint256"}],"outputs":[{"name":"","type":"uint256","internalType":"uint256"}],"stateMutability":"view"},{"type":"function","name":"setAmountOut","inputs":[{"name":"tokenIn","type":"address","internalType":"address"},{"name":"tokenOut","type":"address","internalType":"address"},{"name":"amountIn","type":"uint256","internalType":"uint256"},{"name":"_amountOut","type":"uint256","internalType":"uint256"}],"outputs":[],"stateMutability":"nonpayable"},{"type":"function","name":"swap","inputs":[{"name":"tokenIn","type":"address","internalType":"address"},{"name":"tokenOut","type":"address","internalType":"address"},{"name":"amountIn","type":"uint256","internalType":"uint256"},{"name":"data","type":"bytes","internalType":"bytes"}],"outputs":[{"name":"amountOut","type":"uint256","internalType":"uint256"}],"stateMutability":"nonpayable"},{"type":"error","name":"SafeERC20FailedOperation","inputs":[{"name":"token","type":"address","internalType":"address"}]}],"bytecode":{"object":"0x608060405234601c57600e6020565b6107c861002b82396107c890f35b6026565b60405190565b5f80fdfe60806040526004361015610013575b610464565b61001d5f3561006c565b80633fcb3ada1461006757806343a0a7f2146100625780637a26dda91461005d578063b0f479a1146100585763b64663840361000e5761042e565b6103f9565b610392565b610233565b61012f565b60e01c90565b60405190565b5f80fd5b5f80fd5b5f80fd5b60018060a01b031690565b61009890610084565b90565b6100a48161008f565b036100ab57565b5f80fd5b905035906100bc8261009b565b565b90565b6100ca816100be565b036100d157565b5f80fd5b905035906100e2826100c1565b565b608081830312610125576100fa825f83016100af565b9261012261010b84602085016100af565b9361011981604086016100d5565b936060016100d5565b90565b61007c565b5f0190565b346101615761014b6101423660046100e4565b929190916104a6565b610153610072565b8061015d8161012a565b0390f35b610078565b5f80fd5b5f80fd5b5f80fd5b909182601f830112156101ac5781359167ffffffffffffffff83116101a75760200192600183028401116101a257565b61016e565b61016a565b610166565b9060808282031261020c576101c8815f84016100af565b926101d682602085016100af565b926101e483604083016100d5565b92606082013567ffffffffffffffff8111610207576102039201610172565b9091565b610080565b61007c565b61021a906100be565b9052565b9190610231905f60208501940190610211565b565b34610267576102636102526102493660046101b1565b93929092610612565b61025a610072565b9182918261021e565b0390f35b610078565b90916060828403126102a15761029e610287845f85016100af565b9361029581602086016100af565b936040016100d5565b90565b61007c565b90565b6102bd6102b86102c292610084565b6102a6565b610084565b90565b6102ce906102a9565b90565b6102da906102c5565b90565b906102e7906102d1565b5f5260205260405f2090565b906102fd906102d1565b5f5260205260405f2090565b61031d610318610322926100be565b6102a6565b6100be565b90565b9061032f90610309565b5f5260205260405f2090565b1c90565b90565b610352906008610357930261033b565b61033f565b90565b906103659154610342565b90565b9061038f9261038561038a926103805f955f966102dd565b6102f3565b610325565b61035a565b90565b346103c3576103bf6103ae6103a836600461026c565b91610368565b6103b6610072565b9182918261021e565b0390f35b610078565b5f9103126103d257565b61007c565b6103e09061008f565b9052565b91906103f7905f602085019401906103d7565b565b34610429576104093660046103c8565b61042561041461068f565b61041c610072565b918291826103e4565b0390f35b610078565b3461045f5761045b61044a61044436600461026c565b9161069c565b610452610072565b9182918261021e565b0390f35b610078565b5f80fd5b5f1b90565b906104795f1991610468565b9181191691161790565b90565b9061049b6104966104a292610309565b610483565b825461046d565b9055565b916104c16104c6926104bc6104cb96955f6102dd565b6102f3565b610325565b610486565b565b5f90565b5f1c90565b6104e26104e7916104d1565b61033f565b90565b6104f490546104d6565b90565b90565b61050e610509610513926104f7565b6102a6565b6100be565b90565b60209181520190565b5f7f4d6f636b416461707465723a20616d6f756e744f7574206e6f74207365740000910152565b610553601e602092610516565b61055c8161051f565b0190565b6105759060208101905f818303910152610546565b90565b1561057f57565b610587610072565b62461bcd60e51b81528061059d60048201610560565b0390fd5b6105aa90610084565b90565b6105b6816105a1565b036105bd57565b5f80fd5b905035906105ce826105ad565b565b906020828203126105e9576105e6915f016105c1565b90565b61007c565b6105f7906102c5565b90565b610603906102a9565b90565b61060f906105fa565b90565b610675610688949561064f61064a610680959661064561063e61067a976106376104cd565b505f6102dd565b89906102f3565b610325565b6104ea565b9661066c886106666106605f6104fa565b916100be565b11610578565b908101906105d0565b6105ee565b91610606565b9083916106dd565b90565b5f90565b61069761068b565b503390565b916106bf6106c4926106ba6106c9956106b36104cd565b505f6102dd565b6102f3565b610325565b6104ea565b90565b151590565b6106da906102c5565b90565b916106f6916106f0918491600192610728565b156106cc565b6106fd5750565b610709610720916106d1565b5f918291635274afe760e01b8352600483016103e4565b0390fd5b5f90565b9091939293610735610724565b5063a9059cbb60e01b92604051935f525f1960601c1660045260245260205f60448180855af19360015f5114851615610770575b5050604052565b8492941516610789575f903b113d151616915f80610769565b833d5f823e3d90fdfea264697066735822122090f5e076368ba465cd969c86d152f797bae667a06a60f357e376163572548d5764736f6c63430008210033","linkReferences":{}},"methodIdentifiers":{"amountOuts(address,address,uint256)":"7a26dda9","getRouter()":"b0f479a1","quote(address,address,uint256)":"b6466384","setAmountOut(address,address,uint256,uint256)":"3fcb3ada","swap(address,address,uint256,bytes)":"43a0a7f2"},"id":77}