{"abi":[{"type":"function","name":"quote","inputs":[{"name":"tokenIn","type":"address","internalType":"address"},{"name":"tokenOut","type":"address","internalType":"address"},{"name":"amountIn","type":"uint256","internalType":"uint256"}],"outputs":[{"name":"amountOut","type":"uint256","internalType":"uint256"}],"stateMutability":"view"},{"type":"function","name":"swap","inputs":[{"name":"tokenIn","type":"address","internalType":"address"},{"name":"tokenOut","type":"address","internalType":"address"},{"name":"amountIn","type":"uint256","internalType":"uint256"},{"name":"minAmountOut","type":"uint256","internalType":"uint256"},{"name":"","type":"bytes","internalType":"bytes"}],"outputs":[{"name":"amountOut","type":"uint256","internalType":"uint256"}],"stateMutability":"nonpayable"}],"bytecode":{"object":"0x6080604052348015600e575f5ffd5b50610cea8061001c5f395ff3fe608060405234801561000f575f5ffd5b5060043610610034575f3560e01c80632506c01814610038578063b646638414610068575b5f5ffd5b610052600480360381019061004d919061069b565b610098565b60405161005f9190610740565b60405180910390f35b610082600480360381019061007d9190610759565b6103dd565b60405161008f9190610740565b60405180910390f35b5f8673ffffffffffffffffffffffffffffffffffffffff166323b872dd3330886040518463ffffffff1660e01b81526004016100d6939291906107b8565b6020604051808303815f875af11580156100f2573d5f5f3e3d5ffd5b505050506040513d601f19601f820116820180604052508101906101169190610822565b505f8773ffffffffffffffffffffffffffffffffffffffff1663dd62ed3e30734752ba5dbc23f44d87826276bf6fd6b1c372ad246040518363ffffffff1660e01b815260040161016792919061084d565b602060405180830381865afa158015610182573d5f5f3e3d5ffd5b505050506040513d601f19601f820116820180604052508101906101a69190610888565b111561023d578673ffffffffffffffffffffffffffffffffffffffff1663095ea7b3734752ba5dbc23f44d87826276bf6fd6b1c372ad245f6040518363ffffffff1660e01b81526004016101fb9291906108f5565b6020604051808303815f875af1158015610217573d5f5f3e3d5ffd5b505050506040513d601f19601f8201168201806040525081019061023b9190610822565b505b8673ffffffffffffffffffffffffffffffffffffffff1663095ea7b3734752ba5dbc23f44d87826276bf6fd6b1c372ad24876040518363ffffffff1660e01b815260040161028c92919061091c565b6020604051808303815f875af11580156102a8573d5f5f3e3d5ffd5b505050506040513d601f19601f820116820180604052508101906102cc9190610822565b505f734752ba5dbc23f44d87826276bf6fd6b1c372ad2473ffffffffffffffffffffffffffffffffffffffff166338ed1739878761030a8c8c6104a6565b33426040518663ffffffff1660e01b815260040161032c9594939291906109fa565b5f604051808303815f875af1158015610347573d5f5f3e3d5ffd5b505050506040513d5f823e3d601f19601f8201168201806040525081019061036f9190610b9a565b90508060018151811061038557610384610be1565b5b60200260200101519150848210156103d2576040517f08c379a00000000000000000000000000000000000000000000000000000000081526004016103c990610c68565b60405180910390fd5b509695505050505050565b5f734752ba5dbc23f44d87826276bf6fd6b1c372ad2473ffffffffffffffffffffffffffffffffffffffff1663d06ca61f8361041987876104a6565b6040518363ffffffff1660e01b8152600401610436929190610c86565b5f60405180830381865afa92505050801561047357506040513d5f823e3d601f19601f820116820180604052508101906104709190610b9a565b60015b61047f575f905061049f565b8060018151811061049357610492610be1565b5b60200260200101519150505b9392505050565b60605f600267ffffffffffffffff8111156104c4576104c3610a62565b5b6040519080825280602002602001820160405280156104f25781602001602082028036833780820191505090505b50905083815f8151811061050957610508610be1565b5b602002602001019073ffffffffffffffffffffffffffffffffffffffff16908173ffffffffffffffffffffffffffffffffffffffff1681525050828160018151811061055857610557610be1565b5b602002602001019073ffffffffffffffffffffffffffffffffffffffff16908173ffffffffffffffffffffffffffffffffffffffff16815250508091505092915050565b5f604051905090565b5f5ffd5b5f5ffd5b5f73ffffffffffffffffffffffffffffffffffffffff82169050919050565b5f6105d6826105ad565b9050919050565b6105e6816105cc565b81146105f0575f5ffd5b50565b5f81359050610601816105dd565b92915050565b5f819050919050565b61061981610607565b8114610623575f5ffd5b50565b5f8135905061063481610610565b92915050565b5f5ffd5b5f5ffd5b5f5ffd5b5f5f83601f84011261065b5761065a61063a565b5b8235905067ffffffffffffffff8111156106785761067761063e565b5b60208301915083600182028301111561069457610693610642565b5b9250929050565b5f5f5f5f5f5f60a087890312156106b5576106b46105a5565b5b5f6106c289828a016105f3565b96505060206106d389828a016105f3565b95505060406106e489828a01610626565b94505060606106f589828a01610626565b935050608087013567ffffffffffffffff811115610716576107156105a9565b5b61072289828a01610646565b92509250509295509295509295565b61073a81610607565b82525050565b5f6020820190506107535f830184610731565b92915050565b5f5f5f606084860312156107705761076f6105a5565b5b5f61077d868287016105f3565b935050602061078e868287016105f3565b925050604061079f86828701610626565b9150509250925092565b6107b2816105cc565b82525050565b5f6060820190506107cb5f8301866107a9565b6107d860208301856107a9565b6107e56040830184610731565b949350505050565b5f8115159050919050565b610801816107ed565b811461080b575f5ffd5b50565b5f8151905061081c816107f8565b92915050565b5f60208284031215610837576108366105a5565b5b5f6108448482850161080e565b91505092915050565b5f6040820190506108605f8301856107a9565b61086d60208301846107a9565b9392505050565b5f8151905061088281610610565b92915050565b5f6020828403121561089d5761089c6105a5565b5b5f6108aa84828501610874565b91505092915050565b5f819050919050565b5f819050919050565b5f6108df6108da6108d5846108b3565b6108bc565b610607565b9050919050565b6108ef816108c5565b82525050565b5f6040820190506109085f8301856107a9565b61091560208301846108e6565b9392505050565b5f60408201905061092f5f8301856107a9565b61093c6020830184610731565b9392505050565b5f81519050919050565b5f82825260208201905092915050565b5f819050602082019050919050565b610975816105cc565b82525050565b5f610986838361096c565b60208301905092915050565b5f602082019050919050565b5f6109a882610943565b6109b2818561094d565b93506109bd8361095d565b805f5b838110156109ed5781516109d4888261097b565b97506109df83610992565b9250506001810190506109c0565b5085935050505092915050565b5f60a082019050610a0d5f830188610731565b610a1a6020830187610731565b8181036040830152610a2c818661099e565b9050610a3b60608301856107a9565b610a486080830184610731565b9695505050505050565b5f601f19601f8301169050919050565b7f4e487b71000000000000000000000000000000000000000000000000000000005f52604160045260245ffd5b610a9882610a52565b810181811067ffffffffffffffff82111715610ab757610ab6610a62565b5b80604052505050565b5f610ac961059c565b9050610ad58282610a8f565b919050565b5f67ffffffffffffffff821115610af457610af3610a62565b5b602082029050602081019050919050565b5f610b17610b1284610ada565b610ac0565b90508083825260208201905060208402830185811115610b3a57610b39610642565b5b835b81811015610b635780610b4f8882610874565b845260208401935050602081019050610b3c565b5050509392505050565b5f82601f830112610b8157610b8061063a565b5b8151610b91848260208601610b05565b91505092915050565b5f60208284031215610baf57610bae6105a5565b5b5f82015167ffffffffffffffff811115610bcc57610bcb6105a9565b5b610bd884828501610b6d565b91505092915050565b7f4e487b71000000000000000000000000000000000000000000000000000000005f52603260045260245ffd5b5f82825260208201905092915050565b7f416d6f756e74206f757420746f6f206c6f7700000000000000000000000000005f82015250565b5f610c52601283610c0e565b9150610c5d82610c1e565b602082019050919050565b5f6020820190508181035f830152610c7f81610c46565b9050919050565b5f604082019050610c995f830185610731565b8181036020830152610cab818461099e565b9050939250505056fea264697066735822122013051f47692548b51e043445fbf9efbdc1bb6045816ce0483a09088550e9376864736f6c634300081e0033","linkReferences":{}},"methodIdentifiers":{"quote(address,address,uint256)":"b6466384","swap(address,address,uint256,uint256,bytes)":"2506c018"},"id":5}