{"abi":[{"type":"function","name":"getRouter","inputs":[],"outputs":[{"name":"","type":"address","internalType":"address"}],"stateMutability":"pure"},{"type":"function","name":"quote","inputs":[{"name":"tokenIn","type":"address","internalType":"address"},{"name":"tokenOut","type":"address","internalType":"address"},{"name":"amountIn","type":"uint256","internalType":"uint256"}],"outputs":[{"name":"amountOut","type":"uint256","internalType":"uint256"}],"stateMutability":"view"},{"type":"function","name":"swap","inputs":[{"name":"tokenIn","type":"address","internalType":"address"},{"name":"tokenOut","type":"address","internalType":"address"},{"name":"amountIn","type":"uint256","internalType":"uint256"},{"name":"minAmountOut","type":"uint256","internalType":"uint256"},{"name":"","type":"bytes","internalType":"bytes"}],"outputs":[{"name":"amountOut","type":"uint256","internalType":"uint256"}],"stateMutability":"nonpayable"}],"bytecode":{"object":"0x6080604052348015600e575f5ffd5b50610a088061001c5f395ff3fe608060405234801561000f575f5ffd5b506004361061003f575f3560e01c80632506c01814610043578063b0f479a114610073578063b646638414610091575b5f5ffd5b61005d600480360381019061005891906104b7565b6100c1565b60405161006a919061055c565b60405180910390f35b61007b6101de565b6040516100889190610584565b60405180910390f35b6100ab60048036038101906100a6919061059d565b6101f9565b6040516100b8919061055c565b60405180910390f35b5f5f734752ba5dbc23f44d87826276bf6fd6b1c372ad2473ffffffffffffffffffffffffffffffffffffffff166338ed173987876100ff8c8c6102c2565b33426040518663ffffffff1660e01b81526004016101219594939291906106a4565b5f604051808303815f875af115801561013c573d5f5f3e3d5ffd5b505050506040513d5f823e3d601f19601f820116820180604052508101906101649190610858565b9050806001825161017591906108cc565b81518110610186576101856108ff565b5b60200260200101519150848210156101d3576040517f08c379a00000000000000000000000000000000000000000000000000000000081526004016101ca90610986565b60405180910390fd5b509695505050505050565b5f734752ba5dbc23f44d87826276bf6fd6b1c372ad24905090565b5f734752ba5dbc23f44d87826276bf6fd6b1c372ad2473ffffffffffffffffffffffffffffffffffffffff1663d06ca61f8361023587876102c2565b6040518363ffffffff1660e01b81526004016102529291906109a4565b5f60405180830381865afa92505050801561028f57506040513d5f823e3d601f19601f8201168201806040525081019061028c9190610858565b60015b61029b575f90506102bb565b806001815181106102af576102ae6108ff565b5b60200260200101519150505b9392505050565b60605f600267ffffffffffffffff8111156102e0576102df61070c565b5b60405190808252806020026020018201604052801561030e5781602001602082028036833780820191505090505b50905083815f81518110610325576103246108ff565b5b602002602001019073ffffffffffffffffffffffffffffffffffffffff16908173ffffffffffffffffffffffffffffffffffffffff16815250508281600181518110610374576103736108ff565b5b602002602001019073ffffffffffffffffffffffffffffffffffffffff16908173ffffffffffffffffffffffffffffffffffffffff16815250508091505092915050565b5f604051905090565b5f5ffd5b5f5ffd5b5f73ffffffffffffffffffffffffffffffffffffffff82169050919050565b5f6103f2826103c9565b9050919050565b610402816103e8565b811461040c575f5ffd5b50565b5f8135905061041d816103f9565b92915050565b5f819050919050565b61043581610423565b811461043f575f5ffd5b50565b5f813590506104508161042c565b92915050565b5f5ffd5b5f5ffd5b5f5ffd5b5f5f83601f84011261047757610476610456565b5b8235905067ffffffffffffffff8111156104945761049361045a565b5b6020830191508360018202830111156104b0576104af61045e565b5b9250929050565b5f5f5f5f5f5f60a087890312156104d1576104d06103c1565b5b5f6104de89828a0161040f565b96505060206104ef89828a0161040f565b955050604061050089828a01610442565b945050606061051189828a01610442565b935050608087013567ffffffffffffffff811115610532576105316103c5565b5b61053e89828a01610462565b92509250509295509295509295565b61055681610423565b82525050565b5f60208201905061056f5f83018461054d565b92915050565b61057e816103e8565b82525050565b5f6020820190506105975f830184610575565b92915050565b5f5f5f606084860312156105b4576105b36103c1565b5b5f6105c18682870161040f565b93505060206105d28682870161040f565b92505060406105e386828701610442565b9150509250925092565b5f81519050919050565b5f82825260208201905092915050565b5f819050602082019050919050565b61061f816103e8565b82525050565b5f6106308383610616565b60208301905092915050565b5f602082019050919050565b5f610652826105ed565b61065c81856105f7565b935061066783610607565b805f5b8381101561069757815161067e8882610625565b97506106898361063c565b92505060018101905061066a565b5085935050505092915050565b5f60a0820190506106b75f83018861054d565b6106c4602083018761054d565b81810360408301526106d68186610648565b90506106e56060830185610575565b6106f2608083018461054d565b9695505050505050565b5f601f19601f8301169050919050565b7f4e487b71000000000000000000000000000000000000000000000000000000005f52604160045260245ffd5b610742826106fc565b810181811067ffffffffffffffff821117156107615761076061070c565b5b80604052505050565b5f6107736103b8565b905061077f8282610739565b919050565b5f67ffffffffffffffff82111561079e5761079d61070c565b5b602082029050602081019050919050565b5f815190506107bd8161042c565b92915050565b5f6107d56107d084610784565b61076a565b905080838252602082019050602084028301858111156107f8576107f761045e565b5b835b81811015610821578061080d88826107af565b8452602084019350506020810190506107fa565b5050509392505050565b5f82601f83011261083f5761083e610456565b5b815161084f8482602086016107c3565b91505092915050565b5f6020828403121561086d5761086c6103c1565b5b5f82015167ffffffffffffffff81111561088a576108896103c5565b5b6108968482850161082b565b91505092915050565b7f4e487b71000000000000000000000000000000000000000000000000000000005f52601160045260245ffd5b5f6108d682610423565b91506108e183610423565b92508282039050818111156108f9576108f861089f565b5b92915050565b7f4e487b71000000000000000000000000000000000000000000000000000000005f52603260045260245ffd5b5f82825260208201905092915050565b7f416d6f756e74206f757420746f6f206c6f7700000000000000000000000000005f82015250565b5f61097060128361092c565b915061097b8261093c565b602082019050919050565b5f6020820190508181035f83015261099d81610964565b9050919050565b5f6040820190506109b75f83018561054d565b81810360208301526109c98184610648565b9050939250505056fea26469706673582212208fb28b024e92d95332bddd3028e3b1b8136bf2f6eb5589b1a4db69ec4ab36f5e64736f6c634300081e0033","linkReferences":{}},"methodIdentifiers":{"getRouter()":"b0f479a1","quote(address,address,uint256)":"b6466384","swap(address,address,uint256,uint256,bytes)":"2506c018"},"id":5}