{"abi":[{"type":"constructor","inputs":[{"name":"_quoter","type":"address","internalType":"address"},{"name":"_router","type":"address","internalType":"address"}],"stateMutability":"nonpayable"},{"type":"function","name":"quote","inputs":[{"name":"tokenIn","type":"address","internalType":"address"},{"name":"tokenOut","type":"address","internalType":"address"},{"name":"amountIn","type":"uint256","internalType":"uint256"}],"outputs":[{"name":"amountOut","type":"uint256","internalType":"uint256"}],"stateMutability":"nonpayable"},{"type":"function","name":"quoter","inputs":[],"outputs":[{"name":"","type":"address","internalType":"contract IQuoterV2"}],"stateMutability":"view"},{"type":"function","name":"router","inputs":[],"outputs":[{"name":"","type":"address","internalType":"contract ISwapRouter"}],"stateMutability":"view"},{"type":"function","name":"swap","inputs":[{"name":"tokenIn","type":"address","internalType":"address"},{"name":"tokenOut","type":"address","internalType":"address"},{"name":"amountIn","type":"uint256","internalType":"uint256"},{"name":"minAmountOut","type":"uint256","internalType":"uint256"},{"name":"data","type":"bytes","internalType":"bytes"}],"outputs":[{"name":"amountOut","type":"uint256","internalType":"uint256"}],"stateMutability":"nonpayable"}],"bytecode":{"object":"0x60c060405260405180608001604052806101f461ffff168152602001610bb861ffff16815260200161271061ffff168152602001606461ffff168152505f90600461004b9291906100e8565b50348015610057575f5ffd5b50604051611103380380611103833981810160405281019061007991906101ff565b8173ffffffffffffffffffffffffffffffffffffffff1660808173ffffffffffffffffffffffffffffffffffffffff16815250508073ffffffffffffffffffffffffffffffffffffffff1660a08173ffffffffffffffffffffffffffffffffffffffff1681525050505061023d565b826004600901600a90048101928215610175579160200282015f5b8382111561014457835183826101000a81548162ffffff021916908361ffff1602179055509260200192600301602081600201049283019260010302610103565b80156101735782816101000a81549062ffffff0219169055600301602081600201049283019260010302610144565b505b5090506101829190610186565b5090565b5b8082111561019d575f815f905550600101610187565b5090565b5f5ffd5b5f73ffffffffffffffffffffffffffffffffffffffff82169050919050565b5f6101ce826101a5565b9050919050565b6101de816101c4565b81146101e8575f5ffd5b50565b5f815190506101f9816101d5565b92915050565b5f5f60408385031215610215576102146101a1565b5b5f610222858286016101eb565b9250506020610233858286016101eb565b9150509250929050565b60805160a051610e8961027a5f395f8181610115015281816101b1015281816102dd015261051801525f818161039701526104f40152610e895ff3fe608060405234801561000f575f5ffd5b506004361061004a575f3560e01c80632506c0181461004e578063b64663841461007e578063c6bbd5a7146100ae578063f887ea40146100cc575b5f5ffd5b61006860048036038101906100639190610782565b6100ea565b6040516100759190610827565b60405180910390f35b61009860048036038101906100939190610840565b610382565b6040516100a59190610827565b60405180910390f35b6100b66104f2565b6040516100c391906108eb565b60405180910390f35b6100d4610516565b6040516100e19190610924565b60405180910390f35b5f6100f78733308861053a565b8673ffffffffffffffffffffffffffffffffffffffff1663095ea7b37f00000000000000000000000000000000000000000000000000000000000000005f6040518363ffffffff1660e01b8152600401610152929190610985565b6020604051808303815f875af115801561016e573d5f5f3e3d5ffd5b505050506040513d601f19601f8201168201806040525081019061019291906109e1565b508673ffffffffffffffffffffffffffffffffffffffff1663095ea7b37f0000000000000000000000000000000000000000000000000000000000000000876040518363ffffffff1660e01b81526004016101ee929190610a0c565b6020604051808303815f875af115801561020a573d5f5f3e3d5ffd5b505050506040513d601f19601f8201168201806040525081019061022e91906109e1565b505f838381019061023f9190610a6b565b90505f6040518061010001604052808a73ffffffffffffffffffffffffffffffffffffffff1681526020018973ffffffffffffffffffffffffffffffffffffffff1681526020018362ffffff1681526020013373ffffffffffffffffffffffffffffffffffffffff1681526020014281526020018881526020018781526020015f73ffffffffffffffffffffffffffffffffffffffff1681525090507f000000000000000000000000000000000000000000000000000000000000000073ffffffffffffffffffffffffffffffffffffffff1663414bf389826040518263ffffffff1660e01b81526004016103349190610b72565b6020604051808303815f875af1158015610350573d5f5f3e3d5ffd5b505050506040513d601f19601f820116820180604052508101906103749190610ba0565b925050509695505050505050565b5f5f5f90505f5f90505b60048110156104e6577f000000000000000000000000000000000000000000000000000000000000000073ffffffffffffffffffffffffffffffffffffffff1663c6a5026a6040518060a001604052808973ffffffffffffffffffffffffffffffffffffffff1681526020018873ffffffffffffffffffffffffffffffffffffffff1681526020018781526020015f856004811061042d5761042c610bcb565b5b600a91828204019190066003029054906101000a900462ffffff1662ffffff1681526020015f73ffffffffffffffffffffffffffffffffffffffff168152506040518263ffffffff1660e01b81526004016104889190610c5e565b6080604051808303815f875af19250505080156104c357506040513d601f19601f820116820180604052508101906104c09190610cda565b60015b156104d957858411156104d4578395505b505050505b808060010191505061038c565b50809150509392505050565b7f000000000000000000000000000000000000000000000000000000000000000081565b7f000000000000000000000000000000000000000000000000000000000000000081565b5f5f8573ffffffffffffffffffffffffffffffffffffffff166323b872dd60e01b86868660405160240161057093929190610d3e565b604051602081830303815290604052907bffffffffffffffffffffffffffffffffffffffffffffffffffffffff19166020820180517bffffffffffffffffffffffffffffffffffffffffffffffffffffffff83818316178352505050506040516105da9190610dc5565b5f604051808303815f865af19150503d805f8114610613576040519150601f19603f3d011682016040523d82523d5f602084013e610618565b606091505b509150915081801561064557505f8151148061064457508080602001905181019061064391906109e1565b5b5b610684576040517f08c379a000000000000000000000000000000000000000000000000000000000815260040161067b90610e35565b60405180910390fd5b505050505050565b5f5ffd5b5f5ffd5b5f73ffffffffffffffffffffffffffffffffffffffff82169050919050565b5f6106bd82610694565b9050919050565b6106cd816106b3565b81146106d7575f5ffd5b50565b5f813590506106e8816106c4565b92915050565b5f819050919050565b610700816106ee565b811461070a575f5ffd5b50565b5f8135905061071b816106f7565b92915050565b5f5ffd5b5f5ffd5b5f5ffd5b5f5f83601f84011261074257610741610721565b5b8235905067ffffffffffffffff81111561075f5761075e610725565b5b60208301915083600182028301111561077b5761077a610729565b5b9250929050565b5f5f5f5f5f5f60a0878903121561079c5761079b61068c565b5b5f6107a989828a016106da565b96505060206107ba89828a016106da565b95505060406107cb89828a0161070d565b94505060606107dc89828a0161070d565b935050608087013567ffffffffffffffff8111156107fd576107fc610690565b5b61080989828a0161072d565b92509250509295509295509295565b610821816106ee565b82525050565b5f60208201905061083a5f830184610818565b92915050565b5f5f5f606084860312156108575761085661068c565b5b5f610864868287016106da565b9350506020610875868287016106da565b92505060406108868682870161070d565b9150509250925092565b5f819050919050565b5f6108b36108ae6108a984610694565b610890565b610694565b9050919050565b5f6108c482610899565b9050919050565b5f6108d5826108ba565b9050919050565b6108e5816108cb565b82525050565b5f6020820190506108fe5f8301846108dc565b92915050565b5f61090e826108ba565b9050919050565b61091e81610904565b82525050565b5f6020820190506109375f830184610915565b92915050565b610946816106b3565b82525050565b5f819050919050565b5f61096f61096a6109658461094c565b610890565b6106ee565b9050919050565b61097f81610955565b82525050565b5f6040820190506109985f83018561093d565b6109a56020830184610976565b9392505050565b5f8115159050919050565b6109c0816109ac565b81146109ca575f5ffd5b50565b5f815190506109db816109b7565b92915050565b5f602082840312156109f6576109f561068c565b5b5f610a03848285016109cd565b91505092915050565b5f604082019050610a1f5f83018561093d565b610a2c6020830184610818565b9392505050565b5f62ffffff82169050919050565b610a4a81610a33565b8114610a54575f5ffd5b50565b5f81359050610a6581610a41565b92915050565b5f60208284031215610a8057610a7f61068c565b5b5f610a8d84828501610a57565b91505092915050565b610a9f816106b3565b82525050565b610aae81610a33565b82525050565b610abd816106ee565b82525050565b610acc81610694565b82525050565b61010082015f820151610ae75f850182610a96565b506020820151610afa6020850182610a96565b506040820151610b0d6040850182610aa5565b506060820151610b206060850182610a96565b506080820151610b336080850182610ab4565b5060a0820151610b4660a0850182610ab4565b5060c0820151610b5960c0850182610ab4565b5060e0820151610b6c60e0850182610ac3565b50505050565b5f61010082019050610b865f830184610ad2565b92915050565b5f81519050610b9a816106f7565b92915050565b5f60208284031215610bb557610bb461068c565b5b5f610bc284828501610b8c565b91505092915050565b7f4e487b71000000000000000000000000000000000000000000000000000000005f52603260045260245ffd5b60a082015f820151610c0c5f850182610a96565b506020820151610c1f6020850182610a96565b506040820151610c326040850182610ab4565b506060820151610c456060850182610aa5565b506080820151610c586080850182610ac3565b50505050565b5f60a082019050610c715f830184610bf8565b92915050565b610c8081610694565b8114610c8a575f5ffd5b50565b5f81519050610c9b81610c77565b92915050565b5f63ffffffff82169050919050565b610cb981610ca1565b8114610cc3575f5ffd5b50565b5f81519050610cd481610cb0565b92915050565b5f5f5f5f60808587031215610cf257610cf161068c565b5b5f610cff87828801610b8c565b9450506020610d1087828801610c8d565b9350506040610d2187828801610cc6565b9250506060610d3287828801610b8c565b91505092959194509250565b5f606082019050610d515f83018661093d565b610d5e602083018561093d565b610d6b6040830184610818565b949350505050565b5f81519050919050565b5f81905092915050565b8281835e5f83830152505050565b5f610d9f82610d73565b610da98185610d7d565b9350610db9818560208601610d87565b80840191505092915050565b5f610dd08284610d95565b915081905092915050565b5f82825260208201905092915050565b7f53544600000000000000000000000000000000000000000000000000000000005f82015250565b5f610e1f600383610ddb565b9150610e2a82610deb565b602082019050919050565b5f6020820190508181035f830152610e4c81610e13565b905091905056fea2646970667358221220acbe83fac89a25ffd387bd58dfed7f4475ef9965c82445ff11defea02240a16964736f6c634300081e0033","linkReferences":{}},"methodIdentifiers":{"quote(address,address,uint256)":"b6466384","quoter()":"c6bbd5a7","router()":"f887ea40","swap(address,address,uint256,uint256,bytes)":"2506c018"},"id":0}