{"abi":[{"type":"constructor","inputs":[],"stateMutability":"nonpayable"},{"type":"function","name":"getRouter","inputs":[],"outputs":[{"name":"","type":"address","internalType":"address"}],"stateMutability":"pure"},{"type":"function","name":"quote","inputs":[{"name":"tokenIn","type":"address","internalType":"address"},{"name":"tokenOut","type":"address","internalType":"address"},{"name":"amountIn","type":"uint256","internalType":"uint256"}],"outputs":[{"name":"bestAmountOut","type":"uint256","internalType":"uint256"}],"stateMutability":"nonpayable"},{"type":"function","name":"swap","inputs":[{"name":"tokenIn","type":"address","internalType":"address"},{"name":"tokenOut","type":"address","internalType":"address"},{"name":"amountIn","type":"uint256","internalType":"uint256"},{"name":"minAmountOut","type":"uint256","internalType":"uint256"},{"name":"data","type":"bytes","internalType":"bytes"}],"outputs":[{"name":"amountOut","type":"uint256","internalType":"uint256"}],"stateMutability":"nonpayable"}],"bytecode":{"object":"0x608060405234801561000f575f5ffd5b506040518060800160405280606461ffff1681526020016101f461ffff168152602001610bb861ffff16815260200161271061ffff168152505f90600461005792919061005d565b50610121565b828054828255905f5260205f2090600901600a900481019282156100f5579160200282015f5b838211156100c457835183826101000a81548162ffffff021916908361ffff1602179055509260200192600301602081600201049283019260010302610083565b80156100f35782816101000a81549062ffffff02191690556003016020816002010492830192600103026100c4565b505b5090506101029190610106565b5090565b5b8082111561011d575f815f905550600101610107565b5090565b6108f38061012e5f395ff3fe608060405234801561000f575f5ffd5b506004361061003f575f3560e01c80632506c01814610043578063b0f479a114610073578063b646638414610091575b5f5ffd5b61005d6004803603810190610058919061047c565b6100c1565b60405161006a9190610521565b60405180910390f35b61007b610204565b6040516100889190610549565b60405180910390f35b6100ab60048036038101906100a69190610562565b61021f565b6040516100b89190610521565b60405180910390f35b5f5f83838101906100d291906105ea565b9050731b81d678ffb9c0263b24a97847620c99d213eb1473ffffffffffffffffffffffffffffffffffffffff1663414bf3896040518061010001604052808b73ffffffffffffffffffffffffffffffffffffffff1681526020018a73ffffffffffffffffffffffffffffffffffffffff1681526020018462ffffff1681526020013373ffffffffffffffffffffffffffffffffffffffff1681526020014281526020018981526020018881526020015f73ffffffffffffffffffffffffffffffffffffffff168152506040518263ffffffff1660e01b81526004016101b791906106f1565b6020604051808303815f875af11580156101d3573d5f5f3e3d5ffd5b505050506040513d601f19601f820116820180604052508101906101f7919061071f565b9150509695505050505050565b5f731b81d678ffb9c0263b24a97847620c99d213eb14905090565b5f5f5f90505b5f8054905081101561037e57730d5e0f971ed27fbff6c2837bf31316121532048d73ffffffffffffffffffffffffffffffffffffffff1663c6a5026a6040518060a001604052808873ffffffffffffffffffffffffffffffffffffffff1681526020018773ffffffffffffffffffffffffffffffffffffffff1681526020018681526020015f85815481106102bd576102bc61074a565b5b905f5260205f2090600a91828204019190066003029054906101000a900462ffffff1662ffffff1681526020015f73ffffffffffffffffffffffffffffffffffffffff168152506040518263ffffffff1660e01b815260040161032091906107dd565b6080604051808303815f875af192505050801561035b57506040513d601f19601f820116820180604052508101906103589190610859565b60015b15610371578584111561036c578395505b505050505b8080600101915050610225565b509392505050565b5f5ffd5b5f5ffd5b5f73ffffffffffffffffffffffffffffffffffffffff82169050919050565b5f6103b78261038e565b9050919050565b6103c7816103ad565b81146103d1575f5ffd5b50565b5f813590506103e2816103be565b92915050565b5f819050919050565b6103fa816103e8565b8114610404575f5ffd5b50565b5f81359050610415816103f1565b92915050565b5f5ffd5b5f5ffd5b5f5ffd5b5f5f83601f84011261043c5761043b61041b565b5b8235905067ffffffffffffffff8111156104595761045861041f565b5b60208301915083600182028301111561047557610474610423565b5b9250929050565b5f5f5f5f5f5f60a0878903121561049657610495610386565b5b5f6104a389828a016103d4565b96505060206104b489828a016103d4565b95505060406104c589828a01610407565b94505060606104d689828a01610407565b935050608087013567ffffffffffffffff8111156104f7576104f661038a565b5b61050389828a01610427565b92509250509295509295509295565b61051b816103e8565b82525050565b5f6020820190506105345f830184610512565b92915050565b610543816103ad565b82525050565b5f60208201905061055c5f83018461053a565b92915050565b5f5f5f6060848603121561057957610578610386565b5b5f610586868287016103d4565b9350506020610597868287016103d4565b92505060406105a886828701610407565b9150509250925092565b5f62ffffff82169050919050565b6105c9816105b2565b81146105d3575f5ffd5b50565b5f813590506105e4816105c0565b92915050565b5f602082840312156105ff576105fe610386565b5b5f61060c848285016105d6565b91505092915050565b61061e816103ad565b82525050565b61062d816105b2565b82525050565b61063c816103e8565b82525050565b61064b8161038e565b82525050565b61010082015f8201516106665f850182610615565b5060208201516106796020850182610615565b50604082015161068c6040850182610624565b50606082015161069f6060850182610615565b5060808201516106b26080850182610633565b5060a08201516106c560a0850182610633565b5060c08201516106d860c0850182610633565b5060e08201516106eb60e0850182610642565b50505050565b5f610100820190506107055f830184610651565b92915050565b5f81519050610719816103f1565b92915050565b5f6020828403121561073457610733610386565b5b5f6107418482850161070b565b91505092915050565b7f4e487b71000000000000000000000000000000000000000000000000000000005f52603260045260245ffd5b60a082015f82015161078b5f850182610615565b50602082015161079e6020850182610615565b5060408201516107b16040850182610633565b5060608201516107c46060850182610624565b5060808201516107d76080850182610642565b50505050565b5f60a0820190506107f05f830184610777565b92915050565b6107ff8161038e565b8114610809575f5ffd5b50565b5f8151905061081a816107f6565b92915050565b5f63ffffffff82169050919050565b61083881610820565b8114610842575f5ffd5b50565b5f815190506108538161082f565b92915050565b5f5f5f5f6080858703121561087157610870610386565b5b5f61087e8782880161070b565b945050602061088f8782880161080c565b93505060406108a087828801610845565b92505060606108b18782880161070b565b9150509295919450925056fea2646970667358221220ecf7133ed7d8dbe1ccb33a1c67b80f6af82e990a50e7a04c09571172676b038364736f6c634300081e0033","linkReferences":{}},"methodIdentifiers":{"getRouter()":"b0f479a1","quote(address,address,uint256)":"b6466384","swap(address,address,uint256,uint256,bytes)":"2506c018"},"id":6}