{"abi":[{"type":"function","name":"QUOTER","inputs":[],"outputs":[{"name":"","type":"address","internalType":"contract IQuoterV2"}],"stateMutability":"view"},{"type":"function","name":"ROUTER","inputs":[],"outputs":[{"name":"","type":"address","internalType":"contract ISwapRouter"}],"stateMutability":"view"},{"type":"function","name":"executeSwap","inputs":[],"outputs":[{"name":"","type":"uint256","internalType":"uint256"}],"stateMutability":"pure"},{"type":"function","name":"feeTiers","inputs":[{"name":"","type":"uint256","internalType":"uint256"}],"outputs":[{"name":"","type":"uint24","internalType":"uint24"}],"stateMutability":"view"},{"type":"function","name":"getFeeTiers","inputs":[],"outputs":[{"name":"","type":"uint24[]","internalType":"uint24[]"}],"stateMutability":"view"},{"type":"function","name":"getRouter","inputs":[],"outputs":[{"name":"","type":"address","internalType":"address"}],"stateMutability":"pure"},{"type":"function","name":"quote","inputs":[{"name":"tokenIn","type":"address","internalType":"address"},{"name":"tokenOut","type":"address","internalType":"address"},{"name":"amountIn","type":"uint256","internalType":"uint256"}],"outputs":[{"name":"maxAmountOut","type":"uint256","internalType":"uint256"}],"stateMutability":"nonpayable"},{"type":"function","name":"swap","inputs":[{"name":"tokenIn","type":"address","internalType":"address"},{"name":"tokenOut","type":"address","internalType":"address"},{"name":"amountIn","type":"uint256","internalType":"uint256"},{"name":"data","type":"bytes","internalType":"bytes"}],"outputs":[{"name":"amountOut","type":"uint256","internalType":"uint256"}],"stateMutability":"nonpayable"},{"type":"error","name":"SafeERC20FailedOperation","inputs":[{"name":"token","type":"address","internalType":"address"}]}],"bytecode":{"object":"0x608060405234610027576100116103ff565b61001961002c565b6113e461046f82396113e490f35b610032565b60405190565b5f80fd5b601f801991011690565b634e487b7160e01b5f52604160045260245ffd5b9061005e90610036565b810190811060018060401b0382111761007657604052565b610040565b9061008e61008761002c565b9283610054565b565b60018060401b0381116100a35760200290565b610040565b6100b46100b991610090565b61007b565b90565b90565b61ffff1690565b90565b6100dd6100d86100e2926100bc565b6100c6565b6100bf565b90565b906100ef906100bf565b9052565b90565b61010a61010561010f926100f3565b6100c6565b6100bf565b90565b90565b61012961012461012e92610112565b6100c6565b6100bf565b90565b90565b61014861014361014d92610131565b6100c6565b6100bf565b90565b5490565b90565b600a9060018203010490565b5f5260205f2090565b1b90565b9190600861018b9102916101855f198461016c565b9261016c565b9181191691161790565b6101a96101a46101ae92610154565b6100c6565b610154565b90565b90565b91906101ca6101c56101d293610195565b6101b1565b908354610170565b9055565b5f90565b6101ec916101e66101d6565b916101b4565b565b5f5b8281106101fc57505050565b8061020b5f60019385016101da565b016101f0565b1c90565b90610228905f1990602003600802610211565b8154169055565b919080821061023e575b505050565b610278926003600a61025261026494610157565b9261025c86610157565b948591610163565b019406025f8111610280575b5003906101ee565b5f8080610239565b61028d9060018503610215565b5f610270565b906801000000000000000081116102bc57816102b16102ba93610150565b9082815561022f565b565b610040565b50600490565b6102d190516100bf565b90565b90565b919060086102f49102916102ee62ffffff8461016c565b9261016c565b9181191691161790565b90565b9061030b816102c1565b9060018060401b0382116103ee5761032f6103359161032a8486610293565b6102d4565b92610163565b600a8204915f5b8381106103a55750600a830290035f8111610358575b50505050565b925f935f5b8181106103725750505001555f808080610352565b909194602061039960019261038e6103898a6102c7565b6102fe565b9085600302906102d7565b9601910191909161035d565b5f5f5b600a81106103bf575090600191818501550161033c565b959060206103e56001926103da6103d5866102c7565b6102fe565b908a600302906102d7565b920196016103a8565b610040565b906103fd91610301565b565b61046c61040c60046100a8565b61042161041960646100c9565b5f83016100e5565b61043861042f6101f46100f6565b602083016100e5565b61044f610446610bb8610115565b604083016100e5565b61046661045d612710610134565b606083016100e5565b5f6103f3565b56fe60806040526004361015610013575b61067f565b61001d5f3561009c565b8063230ed44a1461009757806332fe7b261461009257806343a0a7f21461008d578063599f5810146100885780638dae88c214610083578063b0f479a11461007e578063b6466384146100795763e9a4d24f0361000e5761064a565b610575565b610506565b6104af565b610424565b6103eb565b6102ba565b6101cf565b60e01c90565b60405190565b5f80fd5b5f80fd5b5f80fd5b90565b6100c0816100b4565b036100c757565b5f80fd5b905035906100d8826100b7565b565b906020828203126100f3576100f0915f016100cb565b90565b6100ac565b634e487b7160e01b5f52603260045260245ffd5b5490565b5f5260205f2090565b9190916101258161010c565b83101561014357600a610139600392610110565b8185040193060290565b6100f8565b1c90565b62ffffff1690565b6101649060086101699302610148565b61014c565b90565b906101779154610154565b90565b5f6101848161010c565b8210156101a15761019e9161019891610119565b9061016c565b90565b5f80fd5b62ffffff1690565b6101b6906101a5565b9052565b91906101cd905f602085019401906101ad565b565b346101ff576101fb6101ea6101e53660046100da565b61017a565b6101f26100a2565b918291826101ba565b0390f35b6100a8565b5f91031261020e57565b6100ac565b60018060a01b031690565b90565b61023561023061023a92610213565b61021e565b610213565b90565b61024690610221565b90565b6102529061023d565b90565b61027273492e6456d9528771018deb9e87ef7750ef184104610249565b90565b61027d610255565b90565b61028990610221565b90565b61029590610280565b90565b6102a19061028c565b9052565b91906102b8905f60208501940190610298565b565b346102ea576102ca366004610204565b6102e66102d5610275565b6102dd6100a2565b918291826102a5565b0390f35b6100a8565b6102f890610213565b90565b610304816102ef565b0361030b57565b5f80fd5b9050359061031c826102fb565b565b5f80fd5b5f80fd5b5f80fd5b909182601f830112156103645781359167ffffffffffffffff831161035f57602001926001830284011161035a57565b610326565b610322565b61031e565b906080828203126103c457610380815f840161030f565b9261038e826020850161030f565b9261039c83604083016100cb565b92606082013567ffffffffffffffff81116103bf576103bb920161032a565b9091565b6100b0565b6100ac565b6103d2906100b4565b9052565b91906103e9905f602085019401906103c9565b565b3461041f5761041b61040a610401366004610369565b9392909261094e565b6104126100a2565b918291826103d6565b0390f35b6100a8565b3461043957610434366004610204565b610bbf565b6100a8565b61044790610221565b90565b6104539061043e565b90565b61047373c5290058841028f1614f3a6f0f5816cad0df5e2761044a565b90565b61047e610456565b90565b61048a90610280565b90565b61049690610481565b9052565b91906104ad905f6020850194019061048d565b565b346104df576104bf366004610204565b6104db6104ca610476565b6104d26100a2565b9182918261049a565b0390f35b6100a8565b6104ed906102ef565b9052565b9190610504905f602085019401906104e4565b565b3461053657610516366004610204565b610532610521610bee565b6105296100a2565b918291826104f1565b0390f35b6100a8565b90916060828403126105705761056d610556845f850161030f565b93610564816020860161030f565b936040016100cb565b90565b6100ac565b346105a6576105a261059161058b36600461053b565b91610d2a565b6105996100a2565b918291826103d6565b0390f35b6100a8565b5190565b60209181520190565b60200190565b6105c7906101a5565b9052565b906105d8816020936105be565b0190565b60200190565b906105ff6105f96105f2846105ab565b80936105af565b926105b8565b905f5b81811061060f5750505090565b90919261062861062260019286516105cb565b946105dc565b9101919091610602565b6106479160208201915f8184039101526105e2565b90565b3461067a5761065a366004610204565b6106766106656112d1565b61066d6100a2565b91829182610632565b0390f35b6100a8565b5f80fd5b5f90565b610690816101a5565b0361069757565b5f80fd5b905035906106a882610687565b565b906020828203126106c3576106c0915f0161069b565b90565b6100ac565b6106d190610221565b90565b6106dd906106c8565b90565b6106e990610280565b90565b6106f590610280565b90565b601f801991011690565b634e487b7160e01b5f52604160045260245ffd5b90610720906106f8565b810190811067ffffffffffffffff82111761073a57604052565b610702565b60e01b90565b151590565b61075381610745565b0361075a57565b5f80fd5b9050519061076b8261074a565b565b9060208282031261078657610783915f0161075e565b90565b6100ac565b9160206107ac9294936107a560408201965f8301906104e4565b01906103c9565b565b6107b66100a2565b3d5f823e3d90fd5b906107d16107ca6100a2565b9283610716565b565b6107de6101006107be565b90565b906107eb906102ef565b9052565b906107f9906101a5565b9052565b90610807906100b4565b9052565b90565b61082261081d6108279261080b565b61021e565b6100b4565b90565b61083e6108396108439261080b565b61021e565b610213565b90565b9061085090610213565b9052565b90505190610861826100b7565b565b9060208282031261087c57610879915f01610854565b90565b6100ac565b61088a906102ef565b9052565b610897906100b4565b9052565b6108a490610213565b9052565b9060e080610936936108c05f8201515f860190610881565b6108d260208201516020860190610881565b6108e4604082015160408601906105be565b6108f660608201516060860190610881565b6109086080820151608086019061088e565b61091a60a082015160a086019061088e565b61092c60c082015160c086019061088e565b015191019061089b565b565b919061094c905f61010085019401906108a8565b565b9293610967919461095d610683565b50908101906106aa565b91610986610974826106d4565b3361097e306106e0565b9085926112e6565b610997610992826106d4565b6106ec565b602063095ea7b3916109af6109aa610255565b61028c565b906109cd5f87956109d86109c16100a2565b9788968795869461073f565b84526004840161078b565b03925af18015610b3257610b06575b5092919033904290915f935f956109fc6107d3565b975f890190610a0a916107e1565b6020880190610a18916107e1565b6040870190610a26916107ef565b6060860190610a34916107e1565b6080850190610a42916107fd565b60a0840190610a50916107fd565b610a599061080e565b60c0830190610a67916107fd565b610a709061082a565b60e0820190610a7e91610846565b610a86610255565b610a8f9061028c565b63414bf389610a9c6100a2565b8093610aa8829361073f565b82526004820190610ab891610938565b03815a6020945f91f1908115610b01575f91610ad3575b5090565b610af4915060203d8111610afa575b610aec8183610716565b810190610863565b5f610acf565b503d610ae2565b6107ae565b610b269060203d8111610b2b575b610b1e8183610716565b81019061076d565b6109e7565b503d610b14565b6107ae565b60209181520190565b60207f682064796e616d69632066656573000000000000000000000000000000000000917f65786563757465537761703a204e6f7420696d706c656d656e746564207769745f8201520152565b610b9a602e604092610b37565b610ba381610b40565b0190565b610bbc9060208101905f818303910152610b8d565b90565b610bc7610683565b50610bd06100a2565b62461bcd60e51b815280610be660048201610ba7565b0390fd5b5f90565b610bf6610bea565b50610c07610c02610255565b61028c565b90565b6001610c1691016100b4565b90565b610c2360a06107be565b90565b610c2f81610213565b03610c3657565b5f80fd5b90505190610c4782610c26565b565b63ffffffff1690565b610c5b81610c49565b03610c6257565b5f80fd5b90505190610c7382610c52565b565b608081830312610cb657610c8b825f8301610854565b92610cb3610c9c8460208501610c3a565b93610caa8160408601610c66565b93606001610854565b90565b6100ac565b90608080610d1393610cd35f8201515f860190610881565b610ce560208201516020860190610881565b610cf76040820151604086019061088e565b610d09606082015160608601906105be565b015191019061089b565b565b9190610d28905f60a08501940190610cbb565b565b909291610d35610683565b50610d3f5f61080e565b91610d495f61080e565b5b80610d65610d5f610d5a5f61010c565b6100b4565b916100b4565b1015610eb157610d73610456565b610d7c90610481565b63c6a5026a90839188865f86610d9191610119565b610d9a9161016c565b905f92610da5610c19565b965f880190610db3916107e1565b6020870190610dc1916107e1565b6040860190610dcf916107fd565b6060850190610ddd916107ef565b610de69061082a565b6080840190610df491610846565b610dfc6100a2565b8093610e08829361073f565b82526004820190610e1891610d15565b03815a6080945f91f180915f92610e7e575b50155f14610e4e5750610e44906001610e49575b5b610c0a565b610d4a565b610e3e565b80610e61610e5b876100b4565b916100b4565b11610e71575b50610e4490610e3f565b610e449194509390610e67565b610ea091925060803d8111610eaa575b610e988183610716565b810190610c75565b5050919091610e2a565b503d610e8e565b50505090915090565b606090565b60209181520190565b5f1c90565b610ed9610ede91610ec8565b61014c565b90565b60181c90565b610ef3610ef891610ee1565b61014c565b90565b60301c90565b610f0d610f1291610efb565b61014c565b90565b60481c90565b610f27610f2c91610f15565b61014c565b90565b60601c90565b610f41610f4691610f2f565b61014c565b90565b60781c90565b610f5b610f6091610f49565b61014c565b90565b60901c90565b610f75610f7a91610f63565b61014c565b90565b60a81c90565b610f8f610f9491610f7d565b61014c565b90565b60c01c90565b610fa9610fae91610f97565b61014c565b90565b60d81c90565b610fc3610fc891610fb1565b61014c565b90565b90600190610feb610fe5610fde8561010c565b8093610ebf565b93610110565b5f926111a9575b6001610fff575b50505090565b5490808310611187575b808310611165575b808310611143575b808310611121575b8083106110ff575b8083106110dd575b8083106110bb575b808310611099575b808310611077575b8210611056575b80610ff9565b8261106e60019394611069602094610fb7565b6105be565b0191015f611050565b919260208161109060019361108b86610f9d565b6105be565b01930191611049565b91926020816110b26001936110ad86610f83565b6105be565b01930191611041565b91926020816110d46001936110cf86610f69565b6105be565b01930191611039565b91926020816110f66001936110f186610f4f565b6105be565b01930191611031565b919260208161111860019361111386610f35565b6105be565b01930191611029565b919260208161113a60019361113586610f1b565b6105be565b01930191611021565b919260208161115c60019361115786610f01565b6105be565b01930191611019565b919260208161117e60019361117986610ee7565b6105be565b01930191611011565b91926020816111a060019361119b86610ecd565b6105be565b01930191611009565b5b816001600a0384011015610ff257926001602061128661128b600a94838080808080808f81809154996111e5816111e08d610ecd565b6105be565b016111f8816111f38c610ee7565b6105be565b0161120b816112068b610f01565b6105be565b0161121e816112198a610f1b565b6105be565b016112318161122c89610f35565b6105be565b016112448161123f88610f4f565b6105be565b016112578161125287610f69565b6105be565b0161126a8161126586610f83565b6105be565b0161127d8161127885610f9d565b6105be565b01928391610fb7565b6105be565b0194019201916111aa565b906112a091610fcb565b90565b906112c36112bc926112b36100a2565b93848092611296565b0383610716565b565b6112ce906112a3565b90565b6112d9610eba565b506112e35f6112c5565b90565b9290611303926112fd928592919091600193611335565b15610745565b61130a5750565b61131661132d916106ec565b5f918291635274afe760e01b8352600483016104f1565b0390fd5b5f90565b91949394929092611344611331565b506323b872dd60e01b93604051945f525f1960601c166004525f1960601c1660245260445260205f60648180855af19360015f511485161561138c575b50506040525f606052565b84929415166113a5575f903b113d151616915f80611381565b833d5f823e3d90fdfea2646970667358221220d11ac325faa6898960a25d3104ed52b833a5000f0990caf09c8995f371f71f2164736f6c63430008210033","linkReferences":{}},"methodIdentifiers":{"QUOTER()":"8dae88c2","ROUTER()":"32fe7b26","executeSwap()":"599f5810","feeTiers(uint256)":"230ed44a","getFeeTiers()":"e9a4d24f","getRouter()":"b0f479a1","quote(address,address,uint256)":"b6466384","swap(address,address,uint256,bytes)":"43a0a7f2"},"id":0}