{"abi":[{"type":"constructor","inputs":[{"name":"_quoter","type":"address","internalType":"address"},{"name":"_router","type":"address","internalType":"address"}],"stateMutability":"nonpayable"},{"type":"function","name":"quote","inputs":[{"name":"tokenIn","type":"address","internalType":"address"},{"name":"tokenOut","type":"address","internalType":"address"},{"name":"amountIn","type":"uint256","internalType":"uint256"}],"outputs":[{"name":"amountOut","type":"uint256","internalType":"uint256"}],"stateMutability":"nonpayable"},{"type":"function","name":"quoter","inputs":[],"outputs":[{"name":"","type":"address","internalType":"contract IQuoterV2"}],"stateMutability":"view"},{"type":"function","name":"router","inputs":[],"outputs":[{"name":"","type":"address","internalType":"contract ISwapRouter"}],"stateMutability":"view"},{"type":"function","name":"swap","inputs":[{"name":"tokenIn","type":"address","internalType":"address"},{"name":"tokenOut","type":"address","internalType":"address"},{"name":"amountIn","type":"uint256","internalType":"uint256"},{"name":"minAmountOut","type":"uint256","internalType":"uint256"},{"name":"","type":"bytes","internalType":"bytes"}],"outputs":[{"name":"amountOut","type":"uint256","internalType":"uint256"}],"stateMutability":"nonpayable"},{"type":"function","name":"uniswapV3SwapCallback","inputs":[{"name":"amount0Delta","type":"int256","internalType":"int256"},{"name":"amount1Delta","type":"int256","internalType":"int256"},{"name":"","type":"bytes","internalType":"bytes"}],"outputs":[],"stateMutability":"pure"},{"type":"error","name":"SafeERC20FailedDecreaseAllowance","inputs":[{"name":"spender","type":"address","internalType":"address"},{"name":"currentAllowance","type":"uint256","internalType":"uint256"},{"name":"requestedDecrease","type":"uint256","internalType":"uint256"}]},{"type":"error","name":"SafeERC20FailedOperation","inputs":[{"name":"token","type":"address","internalType":"address"}]}],"bytecode":{"object":"0x60c060405234801561000f575f5ffd5b5060405161132f38038061132f8339818101604052810190610031919061020a565b8173ffffffffffffffffffffffffffffffffffffffff1660808173ffffffffffffffffffffffffffffffffffffffff16815250508073ffffffffffffffffffffffffffffffffffffffff1660a08173ffffffffffffffffffffffffffffffffffffffff16815250506040518060800160405280606461ffff1681526020016101f461ffff1681526020016109c461ffff16815260200161271061ffff168152505f9060046100e09291906100e8565b505050610248565b828054828255905f5260205f2090600901600a90048101928215610180579160200282015f5b8382111561014f57835183826101000a81548162ffffff021916908361ffff160217905550926020019260030160208160020104928301926001030261010e565b801561017e5782816101000a81549062ffffff021916905560030160208160020104928301926001030261014f565b505b50905061018d9190610191565b5090565b5b808211156101a8575f815f905550600101610192565b5090565b5f5ffd5b5f73ffffffffffffffffffffffffffffffffffffffff82169050919050565b5f6101d9826101b0565b9050919050565b6101e9816101cf565b81146101f3575f5ffd5b50565b5f81519050610204816101e0565b92915050565b5f5f604083850312156102205761021f6101ac565b5b5f61022d858286016101f6565b925050602061023e858286016101f6565b9150509250929050565b60805160a0516110aa6102855f395f818161019a0152818161027c0152818161031a01526103c701525f81816103a3015261047601526110aa5ff3fe608060405234801561000f575f5ffd5b5060043610610055575f3560e01c80632506c01814610059578063b646638414610089578063c6bbd5a7146100b9578063f887ea40146100d7578063fa461e33146100f5575b5f5ffd5b610073600480360381019061006e9190610a03565b610111565b6040516100809190610aa8565b60405180910390f35b6100a3600480360381019061009e9190610ac1565b61036c565b6040516100b09190610aa8565b60405180910390f35b6100c16103a1565b6040516100ce9190610b6c565b60405180910390f35b6100df6103c5565b6040516100ec9190610ba5565b60405180910390f35b61010f600480360381019061010a9190610bf1565b6103e9565b005b5f61013f3330878a73ffffffffffffffffffffffffffffffffffffffff16610404909392919063ffffffff16565b5f61014b888888610459565b5090505f8162ffffff1603610195576040517f08c379a000000000000000000000000000000000000000000000000000000000815260040161018c90610cbc565b60405180910390fd5b6101e07f0000000000000000000000000000000000000000000000000000000000000000878a73ffffffffffffffffffffffffffffffffffffffff166106169092919063ffffffff16565b5f6040518061010001604052808a73ffffffffffffffffffffffffffffffffffffffff1681526020018973ffffffffffffffffffffffffffffffffffffffff1681526020018362ffffff1681526020013373ffffffffffffffffffffffffffffffffffffffff1681526020014281526020018881526020018781526020015f73ffffffffffffffffffffffffffffffffffffffff1681525090507f000000000000000000000000000000000000000000000000000000000000000073ffffffffffffffffffffffffffffffffffffffff1663414bf389826040518263ffffffff1660e01b81526004016102d39190610dc4565b6020604051808303815f875af11580156102ef573d5f5f3e3d5ffd5b505050506040513d601f19601f820116820180604052508101906103139190610df2565b92506103607f0000000000000000000000000000000000000000000000000000000000000000888b73ffffffffffffffffffffffffffffffffffffffff166106af9092919063ffffffff16565b50509695505050505050565b5f5f5f61037a868686610459565b915091505f8262ffffff1603610394575f9250505061039a565b80925050505b9392505050565b7f000000000000000000000000000000000000000000000000000000000000000081565b7f000000000000000000000000000000000000000000000000000000000000000081565b5f8413806103f657505f83135b6103fe575f5ffd5b50505050565b610412848484846001610788565b61045357836040517f5274afe700000000000000000000000000000000000000000000000000000000815260040161044a9190610e2c565b60405180910390fd5b50505050565b5f5f5f5f90505f5f90505f5f90505b5f80549050811015610605577f000000000000000000000000000000000000000000000000000000000000000073ffffffffffffffffffffffffffffffffffffffff1663c6a5026a6040518060a001604052808b73ffffffffffffffffffffffffffffffffffffffff1681526020018a73ffffffffffffffffffffffffffffffffffffffff1681526020018981526020015f858154811061050c5761050b610e45565b5b905f5260205f2090600a91828204019190066003029054906101000a900462ffffff1662ffffff1681526020015f73ffffffffffffffffffffffffffffffffffffffff168152506040518263ffffffff1660e01b815260040161056f9190610ed8565b6080604051808303815f875af19250505080156105aa57506040513d601f19601f820116820180604052508101906105a79190610f54565b60015b156105f857868411156105f3578396505f85815481106105cd576105cc610e45565b5b905f5260205f2090600a91828204019190066003029054906101000a900462ffffff1695505b505050505b8080600101915050610468565b508082935093505050935093915050565b5f8373ffffffffffffffffffffffffffffffffffffffff1663dd62ed3e30856040518363ffffffff1660e01b8152600401610652929190610fb8565b602060405180830381865afa15801561066d573d5f5f3e3d5ffd5b505050506040513d601f19601f820116820180604052508101906106919190610df2565b90506106a9848484846106a4919061100c565b6107f9565b50505050565b5f8373ffffffffffffffffffffffffffffffffffffffff1663dd62ed3e30856040518363ffffffff1660e01b81526004016106eb929190610fb8565b602060405180830381865afa158015610706573d5f5f3e3d5ffd5b505050506040513d601f19601f8201168201806040525081019061072a9190610df2565b905081811015610775578281836040517fe570110f00000000000000000000000000000000000000000000000000000000815260040161076c9392919061103f565b60405180910390fd5b61078284848484036107f9565b50505050565b5f5f6323b872dd60e01b9050604051815f525f1960601c87166004525f1960601c86166024528460445260205f60645f5f8c5af1925060015f511483166107e65783831516156107da573d5f823e3d81fd5b5f883b113d1516831692505b806040525f606052505095945050505050565b6108058383835f6108ab565b6108a65761081683835f60016108ab565b61085757826040517f5274afe700000000000000000000000000000000000000000000000000000000815260040161084e9190610e2c565b60405180910390fd5b61086483838360016108ab565b6108a557826040517f5274afe700000000000000000000000000000000000000000000000000000000815260040161089c9190610e2c565b60405180910390fd5b5b505050565b5f5f63095ea7b360e01b9050604051815f525f1960601c86166004528460245260205f60445f5f8b5af1925060015f511483166108ff5783831516156108f3573d5f823e3d81fd5b5f873b113d1516831692505b806040525050949350505050565b5f5ffd5b5f5ffd5b5f73ffffffffffffffffffffffffffffffffffffffff82169050919050565b5f61093e82610915565b9050919050565b61094e81610934565b8114610958575f5ffd5b50565b5f8135905061096981610945565b92915050565b5f819050919050565b6109818161096f565b811461098b575f5ffd5b50565b5f8135905061099c81610978565b92915050565b5f5ffd5b5f5ffd5b5f5ffd5b5f5f83601f8401126109c3576109c26109a2565b5b8235905067ffffffffffffffff8111156109e0576109df6109a6565b5b6020830191508360018202830111156109fc576109fb6109aa565b5b9250929050565b5f5f5f5f5f5f60a08789031215610a1d57610a1c61090d565b5b5f610a2a89828a0161095b565b9650506020610a3b89828a0161095b565b9550506040610a4c89828a0161098e565b9450506060610a5d89828a0161098e565b935050608087013567ffffffffffffffff811115610a7e57610a7d610911565b5b610a8a89828a016109ae565b92509250509295509295509295565b610aa28161096f565b82525050565b5f602082019050610abb5f830184610a99565b92915050565b5f5f5f60608486031215610ad857610ad761090d565b5b5f610ae58682870161095b565b9350506020610af68682870161095b565b9250506040610b078682870161098e565b9150509250925092565b5f819050919050565b5f610b34610b2f610b2a84610915565b610b11565b610915565b9050919050565b5f610b4582610b1a565b9050919050565b5f610b5682610b3b565b9050919050565b610b6681610b4c565b82525050565b5f602082019050610b7f5f830184610b5d565b92915050565b5f610b8f82610b3b565b9050919050565b610b9f81610b85565b82525050565b5f602082019050610bb85f830184610b96565b92915050565b5f819050919050565b610bd081610bbe565b8114610bda575f5ffd5b50565b5f81359050610beb81610bc7565b92915050565b5f5f5f5f60608587031215610c0957610c0861090d565b5b5f610c1687828801610bdd565b9450506020610c2787828801610bdd565b935050604085013567ffffffffffffffff811115610c4857610c47610911565b5b610c54878288016109ae565b925092505092959194509250565b5f82825260208201905092915050565b7f5633416461707465723a204e6f20706f6f6c20666f756e6400000000000000005f82015250565b5f610ca6601883610c62565b9150610cb182610c72565b602082019050919050565b5f6020820190508181035f830152610cd381610c9a565b9050919050565b610ce381610934565b82525050565b5f62ffffff82169050919050565b610d0081610ce9565b82525050565b610d0f8161096f565b82525050565b610d1e81610915565b82525050565b61010082015f820151610d395f850182610cda565b506020820151610d4c6020850182610cda565b506040820151610d5f6040850182610cf7565b506060820151610d726060850182610cda565b506080820151610d856080850182610d06565b5060a0820151610d9860a0850182610d06565b5060c0820151610dab60c0850182610d06565b5060e0820151610dbe60e0850182610d15565b50505050565b5f61010082019050610dd85f830184610d24565b92915050565b5f81519050610dec81610978565b92915050565b5f60208284031215610e0757610e0661090d565b5b5f610e1484828501610dde565b91505092915050565b610e2681610934565b82525050565b5f602082019050610e3f5f830184610e1d565b92915050565b7f4e487b71000000000000000000000000000000000000000000000000000000005f52603260045260245ffd5b60a082015f820151610e865f850182610cda565b506020820151610e996020850182610cda565b506040820151610eac6040850182610d06565b506060820151610ebf6060850182610cf7565b506080820151610ed26080850182610d15565b50505050565b5f60a082019050610eeb5f830184610e72565b92915050565b610efa81610915565b8114610f04575f5ffd5b50565b5f81519050610f1581610ef1565b92915050565b5f63ffffffff82169050919050565b610f3381610f1b565b8114610f3d575f5ffd5b50565b5f81519050610f4e81610f2a565b92915050565b5f5f5f5f60808587031215610f6c57610f6b61090d565b5b5f610f7987828801610dde565b9450506020610f8a87828801610f07565b9350506040610f9b87828801610f40565b9250506060610fac87828801610dde565b91505092959194509250565b5f604082019050610fcb5f830185610e1d565b610fd86020830184610e1d565b9392505050565b7f4e487b71000000000000000000000000000000000000000000000000000000005f52601160045260245ffd5b5f6110168261096f565b91506110218361096f565b925082820190508082111561103957611038610fdf565b5b92915050565b5f6060820190506110525f830186610e1d565b61105f6020830185610a99565b61106c6040830184610a99565b94935050505056fea2646970667358221220c008e08322418ca16f9d38a7bd543dc1b4b1611ec3d67d12ae9fc97d9406593864736f6c634300081e0033","linkReferences":{}},"methodIdentifiers":{"quote(address,address,uint256)":"b6466384","quoter()":"c6bbd5a7","router()":"f887ea40","swap(address,address,uint256,uint256,bytes)":"2506c018","uniswapV3SwapCallback(int256,int256,bytes)":"fa461e33"},"id":6}