{"abi":[{"type":"function","name":"FACTORY","inputs":[],"outputs":[{"name":"","type":"address","internalType":"contract IPancakeV3Factory"}],"stateMutability":"view"},{"type":"function","name":"QUOTER","inputs":[],"outputs":[{"name":"","type":"address","internalType":"contract IQuoterV2"}],"stateMutability":"view"},{"type":"function","name":"ROUTER","inputs":[],"outputs":[{"name":"","type":"address","internalType":"contract ISwapRouter"}],"stateMutability":"view"},{"type":"function","name":"feeTiers","inputs":[{"name":"","type":"uint256","internalType":"uint256"}],"outputs":[{"name":"","type":"uint24","internalType":"uint24"}],"stateMutability":"view"},{"type":"function","name":"getRouter","inputs":[],"outputs":[{"name":"","type":"address","internalType":"address"}],"stateMutability":"pure"},{"type":"function","name":"pancakeV3SwapCallback","inputs":[{"name":"amount0Delta","type":"int256","internalType":"int256"},{"name":"amount1Delta","type":"int256","internalType":"int256"},{"name":"data","type":"bytes","internalType":"bytes"}],"outputs":[],"stateMutability":"nonpayable"},{"type":"function","name":"quote","inputs":[{"name":"tokenIn","type":"address","internalType":"address"},{"name":"tokenOut","type":"address","internalType":"address"},{"name":"amountIn","type":"uint256","internalType":"uint256"}],"outputs":[{"name":"amountOut","type":"uint256","internalType":"uint256"}],"stateMutability":"nonpayable"},{"type":"function","name":"swap","inputs":[{"name":"tokenIn","type":"address","internalType":"address"},{"name":"tokenOut","type":"address","internalType":"address"},{"name":"amountIn","type":"uint256","internalType":"uint256"},{"name":"","type":"bytes","internalType":"bytes"}],"outputs":[{"name":"amountOut","type":"uint256","internalType":"uint256"}],"stateMutability":"nonpayable"},{"type":"error","name":"SafeERC20FailedOperation","inputs":[{"name":"token","type":"address","internalType":"address"}]}],"bytecode":{"object":"0x60806040526040518060800160405280606461ffff1681526020016101f461ffff1681526020016109c461ffff16815260200161271061ffff168152505f9060046200004d92919062000061565b503480156200005a575f80fd5b5062000123565b826004600901600a90048101928215620000f3579160200282015f5b83821115620000c057835183826101000a81548162ffffff021916908361ffff16021790555092602001926003016020816002010492830192600103026200007d565b8015620000f15782816101000a81549062ffffff0219169055600301602081600201049283019260010302620000c0565b505b50905062000102919062000106565b5090565b5b808211156200011f575f815f90555060010162000107565b5090565b61160480620001315f395ff3fe608060405234801561000f575f80fd5b5060043610610086575f3560e01c806343a0a7f21161005957806343a0a7f2146101125780638dae88c214610142578063b0f479a114610160578063b64663841461017e57610086565b8063230ed44a1461008a57806323a69e75146100ba5780632dd31000146100d657806332fe7b26146100f4575b5f80fd5b6100a4600480360381019061009f91906109c4565b6101ae565b6040516100b19190610a0c565b60405180910390f35b6100d460048036038101906100cf9190610ab9565b6101db565b005b6100de610274565b6040516100eb9190610ba4565b60405180910390f35b6100fc61028c565b6040516101099190610bdd565b60405180910390f35b61012c60048036038101906101279190610c31565b6102a4565b6040516101399190610cc4565b60405180910390f35b61014a610693565b6040516101579190610cfd565b60405180910390f35b6101686106ab565b6040516101759190610d25565b60405180910390f35b61019860048036038101906101939190610d3e565b6106c6565b6040516101a59190610cc4565b60405180910390f35b5f81600481106101bc575f80fd5b600a9182820401919006600302915054906101000a900462ffffff1681565b5f82828101906101eb9190610e7b565b90505f85131561022e5761022981604001513387845f015173ffffffffffffffffffffffffffffffffffffffff166108ba909392919063ffffffff16565b61026d565b5f84131561026c5761026b81604001513386846020015173ffffffffffffffffffffffffffffffffffffffff166108ba909392919063ffffffff16565b5b5b5050505050565b730bfbcf9fa4f9c56b0f40a671ad40e0805a09186581565b731b81d678ffb9c0263b24a97847620c99d213eb1481565b5f805f90505f805b6004811015610490575f8082600481106102c9576102c8610ea6565b5b600a91828204019190066003029054906101000a900462ffffff1690505f730bfbcf9fa4f9c56b0f40a671ad40e0805a09186573ffffffffffffffffffffffffffffffffffffffff16631698ee828c8c856040518463ffffffff1660e01b815260040161033893929190610ed3565b602060405180830381865afa158015610353573d5f803e3d5ffd5b505050506040513d601f19601f820116820180604052508101906103779190610f1c565b90505f73ffffffffffffffffffffffffffffffffffffffff168173ffffffffffffffffffffffffffffffffffffffff161461047b575f8b838c6040516020016103c293929190610fc0565b604051602081830303815290604052905073b048bbc1ee6b733fffcfb9e9cef7375518e2599773ffffffffffffffffffffffffffffffffffffffff1663cdca1753828c6040518363ffffffff1660e01b8152600401610422929190611076565b5f604051808303815f875af192505050801561046057506040513d5f823e3d601f19601f8201168201806040525081019061045d919061129b565b60015b156104795789841115610474578399508698505b505050505b505b5050808061048890611364565b9150506102ac565b505f8162ffffff16036104d8576040517f08c379a00000000000000000000000000000000000000000000000000000000081526004016104cf90611405565b60405180910390fd5b5f8882896040516020016104ee93929190610fc0565b604051602081830303815290604052905061052c3330898c73ffffffffffffffffffffffffffffffffffffffff166108ba909392919063ffffffff16565b8873ffffffffffffffffffffffffffffffffffffffff1663095ea7b3731b81d678ffb9c0263b24a97847620c99d213eb14896040518363ffffffff1660e01b815260040161057b929190611423565b6020604051808303815f875af1158015610597573d5f803e3d5ffd5b505050506040513d601f19601f820116820180604052508101906105bb919061147f565b50731b81d678ffb9c0263b24a97847620c99d213eb1473ffffffffffffffffffffffffffffffffffffffff1663c04b8d596040518060a001604052808481526020013373ffffffffffffffffffffffffffffffffffffffff1681526020014281526020018a81526020015f8152506040518263ffffffff1660e01b81526004016106459190611583565b6020604051808303815f875af1158015610661573d5f803e3d5ffd5b505050506040513d601f19601f8201168201806040525081019061068591906115a3565b935050505095945050505050565b73b048bbc1ee6b733fffcfb9e9cef7375518e2599781565b5f731b81d678ffb9c0263b24a97847620c99d213eb14905090565b5f805f90505f5b60048110156108ae575f8082600481106106ea576106e9610ea6565b5b600a91828204019190066003029054906101000a900462ffffff1690505f730bfbcf9fa4f9c56b0f40a671ad40e0805a09186573ffffffffffffffffffffffffffffffffffffffff16631698ee828989856040518463ffffffff1660e01b815260040161075993929190610ed3565b602060405180830381865afa158015610774573d5f803e3d5ffd5b505050506040513d601f19601f820116820180604052508101906107989190610f1c565b90505f73ffffffffffffffffffffffffffffffffffffffff168173ffffffffffffffffffffffffffffffffffffffff1614610899575f8883896040516020016107e393929190610fc0565b604051602081830303815290604052905073b048bbc1ee6b733fffcfb9e9cef7375518e2599773ffffffffffffffffffffffffffffffffffffffff1663cdca175382896040518363ffffffff1660e01b8152600401610843929190611076565b5f604051808303815f875af192505050801561088157506040513d5f823e3d601f19601f8201168201806040525081019061087e919061129b565b60015b156108975788841115610892578398505b505050505b505b505080806108a690611364565b9150506106cd565b50809150509392505050565b6108c884848484600161090f565b61090957836040517f5274afe70000000000000000000000000000000000000000000000000000000081526004016109009190610d25565b60405180910390fd5b50505050565b5f806323b872dd60e01b9050604051815f525f1960601c87166004525f1960601c86166024528460445260205f60645f808c5af1925060015f5114831661096d578383151615610961573d5f823e3d81fd5b5f883b113d1516831692505b806040525f606052505095945050505050565b5f604051905090565b5f80fd5b5f80fd5b5f819050919050565b6109a381610991565b81146109ad575f80fd5b50565b5f813590506109be8161099a565b92915050565b5f602082840312156109d9576109d8610989565b5b5f6109e6848285016109b0565b91505092915050565b5f62ffffff82169050919050565b610a06816109ef565b82525050565b5f602082019050610a1f5f8301846109fd565b92915050565b5f819050919050565b610a3781610a25565b8114610a41575f80fd5b50565b5f81359050610a5281610a2e565b92915050565b5f80fd5b5f80fd5b5f80fd5b5f8083601f840112610a7957610a78610a58565b5b8235905067ffffffffffffffff811115610a9657610a95610a5c565b5b602083019150836001820283011115610ab257610ab1610a60565b5b9250929050565b5f805f8060608587031215610ad157610ad0610989565b5b5f610ade87828801610a44565b9450506020610aef87828801610a44565b935050604085013567ffffffffffffffff811115610b1057610b0f61098d565b5b610b1c87828801610a64565b925092505092959194509250565b5f73ffffffffffffffffffffffffffffffffffffffff82169050919050565b5f819050919050565b5f610b6c610b67610b6284610b2a565b610b49565b610b2a565b9050919050565b5f610b7d82610b52565b9050919050565b5f610b8e82610b73565b9050919050565b610b9e81610b84565b82525050565b5f602082019050610bb75f830184610b95565b92915050565b5f610bc782610b73565b9050919050565b610bd781610bbd565b82525050565b5f602082019050610bf05f830184610bce565b92915050565b5f610c0082610b2a565b9050919050565b610c1081610bf6565b8114610c1a575f80fd5b50565b5f81359050610c2b81610c07565b92915050565b5f805f805f60808688031215610c4a57610c49610989565b5b5f610c5788828901610c1d565b9550506020610c6888828901610c1d565b9450506040610c79888289016109b0565b935050606086013567ffffffffffffffff811115610c9a57610c9961098d565b5b610ca688828901610a64565b92509250509295509295909350565b610cbe81610991565b82525050565b5f602082019050610cd75f830184610cb5565b92915050565b5f610ce782610b73565b9050919050565b610cf781610cdd565b82525050565b5f602082019050610d105f830184610cee565b92915050565b610d1f81610bf6565b82525050565b5f602082019050610d385f830184610d16565b92915050565b5f805f60608486031215610d5557610d54610989565b5b5f610d6286828701610c1d565b9350506020610d7386828701610c1d565b9250506040610d84868287016109b0565b9150509250925092565b5f80fd5b5f601f19601f8301169050919050565b7f4e487b71000000000000000000000000000000000000000000000000000000005f52604160045260245ffd5b610dd882610d92565b810181811067ffffffffffffffff82111715610df757610df6610da2565b5b80604052505050565b5f610e09610980565b9050610e158282610dcf565b919050565b5f60608284031215610e2f57610e2e610d8e565b5b610e396060610e00565b90505f610e4884828501610c1d565b5f830152506020610e5b84828501610c1d565b6020830152506040610e6f84828501610c1d565b60408301525092915050565b5f60608284031215610e9057610e8f610989565b5b5f610e9d84828501610e1a565b91505092915050565b7f4e487b71000000000000000000000000000000000000000000000000000000005f52603260045260245ffd5b5f606082019050610ee65f830186610d16565b610ef36020830185610d16565b610f0060408301846109fd565b949350505050565b5f81519050610f1681610c07565b92915050565b5f60208284031215610f3157610f30610989565b5b5f610f3e84828501610f08565b91505092915050565b5f8160601b9050919050565b5f610f5d82610f47565b9050919050565b5f610f6e82610f53565b9050919050565b610f86610f8182610bf6565b610f64565b82525050565b5f8160e81b9050919050565b5f610fa282610f8c565b9050919050565b610fba610fb5826109ef565b610f98565b82525050565b5f610fcb8286610f75565b601482019150610fdb8285610fa9565b600382019150610feb8284610f75565b601482019150819050949350505050565b5f81519050919050565b5f82825260208201905092915050565b5f5b83811015611033578082015181840152602081019050611018565b5f8484015250505050565b5f61104882610ffc565b6110528185611006565b9350611062818560208601611016565b61106b81610d92565b840191505092915050565b5f6040820190508181035f83015261108e818561103e565b905061109d6020830184610cb5565b9392505050565b5f815190506110b28161099a565b92915050565b5f67ffffffffffffffff8211156110d2576110d1610da2565b5b602082029050602081019050919050565b6110ec81610b2a565b81146110f6575f80fd5b50565b5f81519050611107816110e3565b92915050565b5f61111f61111a846110b8565b610e00565b9050808382526020820190506020840283018581111561114257611141610a60565b5b835b8181101561116b578061115788826110f9565b845260208401935050602081019050611144565b5050509392505050565b5f82601f83011261118957611188610a58565b5b815161119984826020860161110d565b91505092915050565b5f67ffffffffffffffff8211156111bc576111bb610da2565b5b602082029050602081019050919050565b5f63ffffffff82169050919050565b6111e5816111cd565b81146111ef575f80fd5b50565b5f81519050611200816111dc565b92915050565b5f611218611213846111a2565b610e00565b9050808382526020820190506020840283018581111561123b5761123a610a60565b5b835b81811015611264578061125088826111f2565b84526020840193505060208101905061123d565b5050509392505050565b5f82601f83011261128257611281610a58565b5b8151611292848260208601611206565b91505092915050565b5f805f80608085870312156112b3576112b2610989565b5b5f6112c0878288016110a4565b945050602085015167ffffffffffffffff8111156112e1576112e061098d565b5b6112ed87828801611175565b935050604085015167ffffffffffffffff81111561130e5761130d61098d565b5b61131a8782880161126e565b925050606061132b878288016110a4565b91505092959194509250565b7f4e487b71000000000000000000000000000000000000000000000000000000005f52601160045260245ffd5b5f61136e82610991565b91507fffffffffffffffffffffffffffffffffffffffffffffffffffffffffffffffff82036113a05761139f611337565b5b600182019050919050565b5f82825260208201905092915050565b7f4e6f20706f6f6c20666f756e64000000000000000000000000000000000000005f82015250565b5f6113ef600d836113ab565b91506113fa826113bb565b602082019050919050565b5f6020820190508181035f83015261141c816113e3565b9050919050565b5f6040820190506114365f830185610d16565b6114436020830184610cb5565b9392505050565b5f8115159050919050565b61145e8161144a565b8114611468575f80fd5b50565b5f8151905061147981611455565b92915050565b5f6020828403121561149457611493610989565b5b5f6114a18482850161146b565b91505092915050565b5f82825260208201905092915050565b5f6114c482610ffc565b6114ce81856114aa565b93506114de818560208601611016565b6114e781610d92565b840191505092915050565b6114fb81610bf6565b82525050565b61150a81610991565b82525050565b5f60a083015f8301518482035f86015261152a82826114ba565b915050602083015161153f60208601826114f2565b5060408301516115526040860182611501565b5060608301516115656060860182611501565b5060808301516115786080860182611501565b508091505092915050565b5f6020820190508181035f83015261159b8184611510565b905092915050565b5f602082840312156115b8576115b7610989565b5b5f6115c5848285016110a4565b9150509291505056fea2646970667358221220cb0d6a69c956cd3ec1b07edb60d41d34f0c696b7b1c6dc4c34e68a3593c51c1364736f6c63430008140033","linkReferences":{}},"methodIdentifiers":{"FACTORY()":"2dd31000","QUOTER()":"8dae88c2","ROUTER()":"32fe7b26","feeTiers(uint256)":"230ed44a","getRouter()":"b0f479a1","pancakeV3SwapCallback(int256,int256,bytes)":"23a69e75","quote(address,address,uint256)":"b6466384","swap(address,address,uint256,bytes)":"43a0a7f2"},"id":4}