{"abi":[{"type":"function","name":"FACTORY","inputs":[],"outputs":[{"name":"","type":"address","internalType":"contract IPancakeV3Factory"}],"stateMutability":"view"},{"type":"function","name":"QUOTER","inputs":[],"outputs":[{"name":"","type":"address","internalType":"contract IQuoterV2"}],"stateMutability":"view"},{"type":"function","name":"ROUTER","inputs":[],"outputs":[{"name":"","type":"address","internalType":"contract ISwapRouter"}],"stateMutability":"view"},{"type":"function","name":"feeTiers","inputs":[{"name":"","type":"uint256","internalType":"uint256"}],"outputs":[{"name":"","type":"uint24","internalType":"uint24"}],"stateMutability":"view"},{"type":"function","name":"getRouter","inputs":[],"outputs":[{"name":"","type":"address","internalType":"address"}],"stateMutability":"pure"},{"type":"function","name":"pancakeV3SwapCallback","inputs":[{"name":"amount0Delta","type":"int256","internalType":"int256"},{"name":"amount1Delta","type":"int256","internalType":"int256"},{"name":"data","type":"bytes","internalType":"bytes"}],"outputs":[],"stateMutability":"nonpayable"},{"type":"function","name":"quote","inputs":[{"name":"tokenIn","type":"address","internalType":"address"},{"name":"tokenOut","type":"address","internalType":"address"},{"name":"amountIn","type":"uint256","internalType":"uint256"}],"outputs":[{"name":"amountOut","type":"uint256","internalType":"uint256"}],"stateMutability":"nonpayable"},{"type":"function","name":"swap","inputs":[{"name":"tokenIn","type":"address","internalType":"address"},{"name":"","type":"address","internalType":"address"},{"name":"amountIn","type":"uint256","internalType":"uint256"},{"name":"data","type":"bytes","internalType":"bytes"}],"outputs":[{"name":"amountOut","type":"uint256","internalType":"uint256"}],"stateMutability":"nonpayable"},{"type":"error","name":"SafeERC20FailedOperation","inputs":[{"name":"token","type":"address","internalType":"address"}]}],"bytecode":{"object":"0x60806040526040518060800160405280606461ffff1681526020016101f461ffff1681526020016109c461ffff16815260200161271061ffff168152505f9060046200004d92919062000061565b503480156200005a575f80fd5b5062000123565b826004600901600a90048101928215620000f3579160200282015f5b83821115620000c057835183826101000a81548162ffffff021916908361ffff16021790555092602001926003016020816002010492830192600103026200007d565b8015620000f15782816101000a81549062ffffff0219169055600301602081600201049283019260010302620000c0565b505b50905062000102919062000106565b5090565b5b808211156200011f575f815f90555060010162000107565b5090565b61142580620001315f395ff3fe608060405234801561000f575f80fd5b5060043610610086575f3560e01c806343a0a7f21161005957806343a0a7f2146101125780638dae88c214610142578063b0f479a114610160578063b64663841461017e57610086565b8063230ed44a1461008a57806323a69e75146100ba5780632dd31000146100d657806332fe7b26146100f4575b5f80fd5b6100a4600480360381019061009f91906107e5565b6101ae565b6040516100b1919061082d565b60405180910390f35b6100d460048036038101906100cf91906108da565b6101db565b005b6100de610274565b6040516100eb91906109c5565b60405180910390f35b6100fc61028c565b60405161010991906109fe565b60405180910390f35b61012c60048036038101906101279190610a52565b6102a4565b6040516101399190610ae5565b60405180910390f35b61014a610479565b6040516101579190610b1e565b60405180910390f35b610168610491565b6040516101759190610b46565b60405180910390f35b61019860048036038101906101939190610b5f565b6104ac565b6040516101a59190610ae5565b60405180910390f35b5f81600481106101bc575f80fd5b600a9182820401919006600302915054906101000a900462ffffff1681565b5f82828101906101eb9190610c9c565b90505f85131561022e5761022981604001513387845f015173ffffffffffffffffffffffffffffffffffffffff166106db909392919063ffffffff16565b61026d565b5f84131561026c5761026b81604001513386846020015173ffffffffffffffffffffffffffffffffffffffff166106db909392919063ffffffff16565b5b5b5050505050565b730bfbcf9fa4f9c56b0f40a671ad40e0805a09186581565b731b81d678ffb9c0263b24a97847620c99d213eb1481565b5f6102d23330868973ffffffffffffffffffffffffffffffffffffffff166106db909392919063ffffffff16565b8573ffffffffffffffffffffffffffffffffffffffff1663095ea7b3731b81d678ffb9c0263b24a97847620c99d213eb14866040518363ffffffff1660e01b8152600401610321929190610cc7565b6020604051808303815f875af115801561033d573d5f803e3d5ffd5b505050506040513d601f19601f820116820180604052508101906103619190610d23565b50731b81d678ffb9c0263b24a97847620c99d213eb1473ffffffffffffffffffffffffffffffffffffffff1663c04b8d596040518060a0016040528086868080601f0160208091040260200160405190810160405280939291908181526020018383808284375f81840152601f19601f8201169050808301925050505050505081526020013373ffffffffffffffffffffffffffffffffffffffff1681526020014281526020018781526020015f8152506040518263ffffffff1660e01b815260040161042e9190610e59565b6020604051808303815f875af115801561044a573d5f803e3d5ffd5b505050506040513d601f19601f8201168201806040525081019061046e9190610e8d565b905095945050505050565b73b048bbc1ee6b733fffcfb9e9cef7375518e2599781565b5f731b81d678ffb9c0263b24a97847620c99d213eb14905090565b5f60605f5b60048110156105f3575f8082600481106104ce576104cd610eb8565b5b600a91828204019190066003029054906101000a900462ffffff1690505f730bfbcf9fa4f9c56b0f40a671ad40e0805a09186573ffffffffffffffffffffffffffffffffffffffff16631698ee828989856040518463ffffffff1660e01b815260040161053d93929190610ee5565b602060405180830381865afa158015610558573d5f803e3d5ffd5b505050506040513d601f19601f8201168201806040525081019061057c9190610f2e565b90505f73ffffffffffffffffffffffffffffffffffffffff168173ffffffffffffffffffffffffffffffffffffffff16146105de578782886040516020016105c693929190610fd2565b604051602081830303815290604052935050506105f3565b505080806105eb9061103b565b9150506104b1565b505f815111610637576040517f08c379a000000000000000000000000000000000000000000000000000000000815260040161062e906110dc565b60405180910390fd5b5f73b048bbc1ee6b733fffcfb9e9cef7375518e2599773ffffffffffffffffffffffffffffffffffffffff1663cdca175383866040518363ffffffff1660e01b8152600401610687929190611142565b5f604051808303815f875af11580156106a2573d5f803e3d5ffd5b505050506040513d5f823e3d601f19601f820116820180604052508101906106ca9190611353565b505050905080925050509392505050565b6106e9848484846001610730565b61072a57836040517f5274afe70000000000000000000000000000000000000000000000000000000081526004016107219190610b46565b60405180910390fd5b50505050565b5f806323b872dd60e01b9050604051815f525f1960601c87166004525f1960601c86166024528460445260205f60645f808c5af1925060015f5114831661078e578383151615610782573d5f823e3d81fd5b5f883b113d1516831692505b806040525f606052505095945050505050565b5f604051905090565b5f80fd5b5f80fd5b5f819050919050565b6107c4816107b2565b81146107ce575f80fd5b50565b5f813590506107df816107bb565b92915050565b5f602082840312156107fa576107f96107aa565b5b5f610807848285016107d1565b91505092915050565b5f62ffffff82169050919050565b61082781610810565b82525050565b5f6020820190506108405f83018461081e565b92915050565b5f819050919050565b61085881610846565b8114610862575f80fd5b50565b5f813590506108738161084f565b92915050565b5f80fd5b5f80fd5b5f80fd5b5f8083601f84011261089a57610899610879565b5b8235905067ffffffffffffffff8111156108b7576108b661087d565b5b6020830191508360018202830111156108d3576108d2610881565b5b9250929050565b5f805f80606085870312156108f2576108f16107aa565b5b5f6108ff87828801610865565b945050602061091087828801610865565b935050604085013567ffffffffffffffff811115610931576109306107ae565b5b61093d87828801610885565b925092505092959194509250565b5f73ffffffffffffffffffffffffffffffffffffffff82169050919050565b5f819050919050565b5f61098d6109886109838461094b565b61096a565b61094b565b9050919050565b5f61099e82610973565b9050919050565b5f6109af82610994565b9050919050565b6109bf816109a5565b82525050565b5f6020820190506109d85f8301846109b6565b92915050565b5f6109e882610994565b9050919050565b6109f8816109de565b82525050565b5f602082019050610a115f8301846109ef565b92915050565b5f610a218261094b565b9050919050565b610a3181610a17565b8114610a3b575f80fd5b50565b5f81359050610a4c81610a28565b92915050565b5f805f805f60808688031215610a6b57610a6a6107aa565b5b5f610a7888828901610a3e565b9550506020610a8988828901610a3e565b9450506040610a9a888289016107d1565b935050606086013567ffffffffffffffff811115610abb57610aba6107ae565b5b610ac788828901610885565b92509250509295509295909350565b610adf816107b2565b82525050565b5f602082019050610af85f830184610ad6565b92915050565b5f610b0882610994565b9050919050565b610b1881610afe565b82525050565b5f602082019050610b315f830184610b0f565b92915050565b610b4081610a17565b82525050565b5f602082019050610b595f830184610b37565b92915050565b5f805f60608486031215610b7657610b756107aa565b5b5f610b8386828701610a3e565b9350506020610b9486828701610a3e565b9250506040610ba5868287016107d1565b9150509250925092565b5f80fd5b5f601f19601f8301169050919050565b7f4e487b71000000000000000000000000000000000000000000000000000000005f52604160045260245ffd5b610bf982610bb3565b810181811067ffffffffffffffff82111715610c1857610c17610bc3565b5b80604052505050565b5f610c2a6107a1565b9050610c368282610bf0565b919050565b5f60608284031215610c5057610c4f610baf565b5b610c5a6060610c21565b90505f610c6984828501610a3e565b5f830152506020610c7c84828501610a3e565b6020830152506040610c9084828501610a3e565b60408301525092915050565b5f60608284031215610cb157610cb06107aa565b5b5f610cbe84828501610c3b565b91505092915050565b5f604082019050610cda5f830185610b37565b610ce76020830184610ad6565b9392505050565b5f8115159050919050565b610d0281610cee565b8114610d0c575f80fd5b50565b5f81519050610d1d81610cf9565b92915050565b5f60208284031215610d3857610d376107aa565b5b5f610d4584828501610d0f565b91505092915050565b5f81519050919050565b5f82825260208201905092915050565b5f5b83811015610d85578082015181840152602081019050610d6a565b5f8484015250505050565b5f610d9a82610d4e565b610da48185610d58565b9350610db4818560208601610d68565b610dbd81610bb3565b840191505092915050565b610dd181610a17565b82525050565b610de0816107b2565b82525050565b5f60a083015f8301518482035f860152610e008282610d90565b9150506020830151610e156020860182610dc8565b506040830151610e286040860182610dd7565b506060830151610e3b6060860182610dd7565b506080830151610e4e6080860182610dd7565b508091505092915050565b5f6020820190508181035f830152610e718184610de6565b905092915050565b5f81519050610e87816107bb565b92915050565b5f60208284031215610ea257610ea16107aa565b5b5f610eaf84828501610e79565b91505092915050565b7f4e487b71000000000000000000000000000000000000000000000000000000005f52603260045260245ffd5b5f606082019050610ef85f830186610b37565b610f056020830185610b37565b610f12604083018461081e565b949350505050565b5f81519050610f2881610a28565b92915050565b5f60208284031215610f4357610f426107aa565b5b5f610f5084828501610f1a565b91505092915050565b5f8160601b9050919050565b5f610f6f82610f59565b9050919050565b5f610f8082610f65565b9050919050565b610f98610f9382610a17565b610f76565b82525050565b5f8160e81b9050919050565b5f610fb482610f9e565b9050919050565b610fcc610fc782610810565b610faa565b82525050565b5f610fdd8286610f87565b601482019150610fed8285610fbb565b600382019150610ffd8284610f87565b601482019150819050949350505050565b7f4e487b71000000000000000000000000000000000000000000000000000000005f52601160045260245ffd5b5f611045826107b2565b91507fffffffffffffffffffffffffffffffffffffffffffffffffffffffffffffffff82036110775761107661100e565b5b600182019050919050565b5f82825260208201905092915050565b7f4e6f20706f6f6c20666f756e64000000000000000000000000000000000000005f82015250565b5f6110c6600d83611082565b91506110d182611092565b602082019050919050565b5f6020820190508181035f8301526110f3816110ba565b9050919050565b5f82825260208201905092915050565b5f61111482610d4e565b61111e81856110fa565b935061112e818560208601610d68565b61113781610bb3565b840191505092915050565b5f6040820190508181035f83015261115a818561110a565b90506111696020830184610ad6565b9392505050565b5f67ffffffffffffffff82111561118a57611189610bc3565b5b602082029050602081019050919050565b6111a48161094b565b81146111ae575f80fd5b50565b5f815190506111bf8161119b565b92915050565b5f6111d76111d284611170565b610c21565b905080838252602082019050602084028301858111156111fa576111f9610881565b5b835b81811015611223578061120f88826111b1565b8452602084019350506020810190506111fc565b5050509392505050565b5f82601f83011261124157611240610879565b5b81516112518482602086016111c5565b91505092915050565b5f67ffffffffffffffff82111561127457611273610bc3565b5b602082029050602081019050919050565b5f63ffffffff82169050919050565b61129d81611285565b81146112a7575f80fd5b50565b5f815190506112b881611294565b92915050565b5f6112d06112cb8461125a565b610c21565b905080838252602082019050602084028301858111156112f3576112f2610881565b5b835b8181101561131c578061130888826112aa565b8452602084019350506020810190506112f5565b5050509392505050565b5f82601f83011261133a57611339610879565b5b815161134a8482602086016112be565b91505092915050565b5f805f806080858703121561136b5761136a6107aa565b5b5f61137887828801610e79565b945050602085015167ffffffffffffffff811115611399576113986107ae565b5b6113a58782880161122d565b935050604085015167ffffffffffffffff8111156113c6576113c56107ae565b5b6113d287828801611326565b92505060606113e387828801610e79565b9150509295919450925056fea2646970667358221220d1dc9082e7be24fc07547a63add7f7594cf7a782a2cca487d6851ac6bca8cfeb64736f6c63430008140033","linkReferences":{}},"methodIdentifiers":{"FACTORY()":"2dd31000","QUOTER()":"8dae88c2","ROUTER()":"32fe7b26","feeTiers(uint256)":"230ed44a","getRouter()":"b0f479a1","pancakeV3SwapCallback(int256,int256,bytes)":"23a69e75","quote(address,address,uint256)":"b6466384","swap(address,address,uint256,bytes)":"43a0a7f2"},"id":5}