{"abi":[{"type":"constructor","inputs":[{"name":"_router","type":"address","internalType":"address"},{"name":"_quoter","type":"address","internalType":"address"}],"stateMutability":"nonpayable"},{"type":"function","name":"quote","inputs":[{"name":"tokenIn","type":"address","internalType":"address"},{"name":"tokenOut","type":"address","internalType":"address"},{"name":"amountIn","type":"uint256","internalType":"uint256"}],"outputs":[{"name":"amountOut","type":"uint256","internalType":"uint256"}],"stateMutability":"nonpayable"},{"type":"function","name":"quoter","inputs":[],"outputs":[{"name":"","type":"address","internalType":"contract IQuoterV2"}],"stateMutability":"view"},{"type":"function","name":"router","inputs":[],"outputs":[{"name":"","type":"address","internalType":"contract ISwapRouter"}],"stateMutability":"view"},{"type":"function","name":"swap","inputs":[{"name":"tokenIn","type":"address","internalType":"address"},{"name":"tokenOut","type":"address","internalType":"address"},{"name":"amountIn","type":"uint256","internalType":"uint256"},{"name":"minAmountOut","type":"uint256","internalType":"uint256"},{"name":"","type":"bytes","internalType":"bytes"}],"outputs":[{"name":"amountOut","type":"uint256","internalType":"uint256"}],"stateMutability":"nonpayable"},{"type":"error","name":"SafeERC20FailedDecreaseAllowance","inputs":[{"name":"spender","type":"address","internalType":"address"},{"name":"currentAllowance","type":"uint256","internalType":"uint256"},{"name":"requestedDecrease","type":"uint256","internalType":"uint256"}]},{"type":"error","name":"SafeERC20FailedOperation","inputs":[{"name":"token","type":"address","internalType":"address"}]}],"bytecode":{"object":"0x60c060405234801561000f575f5ffd5b506040516112313803806112318339818101604052810190610031919061020e565b80828173ffffffffffffffffffffffffffffffffffffffff1660808173ffffffffffffffffffffffffffffffffffffffff16815250508073ffffffffffffffffffffffffffffffffffffffff1660a08173ffffffffffffffffffffffffffffffffffffffff168152505050506040518060800160405280606461ffff1681526020016101f461ffff1681526020016109c461ffff16815260200161271061ffff168152505f9060046100e49291906100ec565b50505061024c565b828054828255905f5260205f2090600901600a90048101928215610184579160200282015f5b8382111561015357835183826101000a81548162ffffff021916908361ffff1602179055509260200192600301602081600201049283019260010302610112565b80156101825782816101000a81549062ffffff0219169055600301602081600201049283019260010302610153565b505b5090506101919190610195565b5090565b5b808211156101ac575f815f905550600101610196565b5090565b5f5ffd5b5f73ffffffffffffffffffffffffffffffffffffffff82169050919050565b5f6101dd826101b4565b9050919050565b6101ed816101d3565b81146101f7575f5ffd5b50565b5f81519050610208816101e4565b92915050565b5f5f60408385031215610224576102236101b0565b5b5f610231858286016101fa565b9250506020610242858286016101fa565b9150509250929050565b60805160a051610fa86102895f395f818161017301528181610255015281816102f3015261038401525f818161036001526104180152610fa85ff3fe608060405234801561000f575f5ffd5b506004361061004a575f3560e01c80632506c0181461004e578063b64663841461007e578063c6bbd5a7146100ae578063f887ea40146100cc575b5f5ffd5b610068600480360381019061006391906109a5565b6100ea565b6040516100759190610a4a565b60405180910390f35b61009860048036038101906100939190610a63565b610345565b6040516100a59190610a4a565b60405180910390f35b6100b661035e565b6040516100c39190610b0e565b60405180910390f35b6100d4610382565b6040516100e19190610b47565b60405180910390f35b5f6101183330878a73ffffffffffffffffffffffffffffffffffffffff166103a6909392919063ffffffff16565b5f6101248888886103fb565b5090505f8162ffffff160361016e576040517f08c379a000000000000000000000000000000000000000000000000000000000815260040161016590610bba565b60405180910390fd5b6101b97f0000000000000000000000000000000000000000000000000000000000000000878a73ffffffffffffffffffffffffffffffffffffffff166105b89092919063ffffffff16565b5f6040518061010001604052808a73ffffffffffffffffffffffffffffffffffffffff1681526020018973ffffffffffffffffffffffffffffffffffffffff1681526020018362ffffff1681526020013373ffffffffffffffffffffffffffffffffffffffff1681526020014281526020018881526020018781526020015f73ffffffffffffffffffffffffffffffffffffffff1681525090507f000000000000000000000000000000000000000000000000000000000000000073ffffffffffffffffffffffffffffffffffffffff1663414bf389826040518263ffffffff1660e01b81526004016102ac9190610cc2565b6020604051808303815f875af11580156102c8573d5f5f3e3d5ffd5b505050506040513d601f19601f820116820180604052508101906102ec9190610cf0565b92506103397f0000000000000000000000000000000000000000000000000000000000000000888b73ffffffffffffffffffffffffffffffffffffffff166106519092919063ffffffff16565b50509695505050505050565b5f6103518484846103fb565b9050809150509392505050565b7f000000000000000000000000000000000000000000000000000000000000000081565b7f000000000000000000000000000000000000000000000000000000000000000081565b6103b484848484600161072a565b6103f557836040517f5274afe70000000000000000000000000000000000000000000000000000000081526004016103ec9190610d2a565b60405180910390fd5b50505050565b5f5f5f5f90505f5f90505f5f90505b5f805490508110156105a7577f000000000000000000000000000000000000000000000000000000000000000073ffffffffffffffffffffffffffffffffffffffff1663c6a5026a6040518060a001604052808b73ffffffffffffffffffffffffffffffffffffffff1681526020018a73ffffffffffffffffffffffffffffffffffffffff1681526020018981526020015f85815481106104ae576104ad610d43565b5b905f5260205f2090600a91828204019190066003029054906101000a900462ffffff1662ffffff1681526020015f73ffffffffffffffffffffffffffffffffffffffff168152506040518263ffffffff1660e01b81526004016105119190610dd6565b6080604051808303815f875af192505050801561054c57506040513d601f19601f820116820180604052508101906105499190610e52565b60015b1561059a5786841115610595578396505f858154811061056f5761056e610d43565b5b905f5260205f2090600a91828204019190066003029054906101000a900462ffffff1695505b505050505b808060010191505061040a565b508082935093505050935093915050565b5f8373ffffffffffffffffffffffffffffffffffffffff1663dd62ed3e30856040518363ffffffff1660e01b81526004016105f4929190610eb6565b602060405180830381865afa15801561060f573d5f5f3e3d5ffd5b505050506040513d601f19601f820116820180604052508101906106339190610cf0565b905061064b848484846106469190610f0a565b61079b565b50505050565b5f8373ffffffffffffffffffffffffffffffffffffffff1663dd62ed3e30856040518363ffffffff1660e01b815260040161068d929190610eb6565b602060405180830381865afa1580156106a8573d5f5f3e3d5ffd5b505050506040513d601f19601f820116820180604052508101906106cc9190610cf0565b905081811015610717578281836040517fe570110f00000000000000000000000000000000000000000000000000000000815260040161070e93929190610f3d565b60405180910390fd5b610724848484840361079b565b50505050565b5f5f6323b872dd60e01b9050604051815f525f1960601c87166004525f1960601c86166024528460445260205f60645f5f8c5af1925060015f5114831661078857838315161561077c573d5f823e3d81fd5b5f883b113d1516831692505b806040525f606052505095945050505050565b6107a78383835f61084d565b610848576107b883835f600161084d565b6107f957826040517f5274afe70000000000000000000000000000000000000000000000000000000081526004016107f09190610d2a565b60405180910390fd5b610806838383600161084d565b61084757826040517f5274afe700000000000000000000000000000000000000000000000000000000815260040161083e9190610d2a565b60405180910390fd5b5b505050565b5f5f63095ea7b360e01b9050604051815f525f1960601c86166004528460245260205f60445f5f8b5af1925060015f511483166108a1578383151615610895573d5f823e3d81fd5b5f873b113d1516831692505b806040525050949350505050565b5f5ffd5b5f5ffd5b5f73ffffffffffffffffffffffffffffffffffffffff82169050919050565b5f6108e0826108b7565b9050919050565b6108f0816108d6565b81146108fa575f5ffd5b50565b5f8135905061090b816108e7565b92915050565b5f819050919050565b61092381610911565b811461092d575f5ffd5b50565b5f8135905061093e8161091a565b92915050565b5f5ffd5b5f5ffd5b5f5ffd5b5f5f83601f84011261096557610964610944565b5b8235905067ffffffffffffffff81111561098257610981610948565b5b60208301915083600182028301111561099e5761099d61094c565b5b9250929050565b5f5f5f5f5f5f60a087890312156109bf576109be6108af565b5b5f6109cc89828a016108fd565b96505060206109dd89828a016108fd565b95505060406109ee89828a01610930565b94505060606109ff89828a01610930565b935050608087013567ffffffffffffffff811115610a2057610a1f6108b3565b5b610a2c89828a01610950565b92509250509295509295509295565b610a4481610911565b82525050565b5f602082019050610a5d5f830184610a3b565b92915050565b5f5f5f60608486031215610a7a57610a796108af565b5b5f610a87868287016108fd565b9350506020610a98868287016108fd565b9250506040610aa986828701610930565b9150509250925092565b5f819050919050565b5f610ad6610ad1610acc846108b7565b610ab3565b6108b7565b9050919050565b5f610ae782610abc565b9050919050565b5f610af882610add565b9050919050565b610b0881610aee565b82525050565b5f602082019050610b215f830184610aff565b92915050565b5f610b3182610add565b9050919050565b610b4181610b27565b82525050565b5f602082019050610b5a5f830184610b38565b92915050565b5f82825260208201905092915050565b7f5633416461707465723a204e6f20706f6f6c20666f756e6400000000000000005f82015250565b5f610ba4601883610b60565b9150610baf82610b70565b602082019050919050565b5f6020820190508181035f830152610bd181610b98565b9050919050565b610be1816108d6565b82525050565b5f62ffffff82169050919050565b610bfe81610be7565b82525050565b610c0d81610911565b82525050565b610c1c816108b7565b82525050565b61010082015f820151610c375f850182610bd8565b506020820151610c4a6020850182610bd8565b506040820151610c5d6040850182610bf5565b506060820151610c706060850182610bd8565b506080820151610c836080850182610c04565b5060a0820151610c9660a0850182610c04565b5060c0820151610ca960c0850182610c04565b5060e0820151610cbc60e0850182610c13565b50505050565b5f61010082019050610cd65f830184610c22565b92915050565b5f81519050610cea8161091a565b92915050565b5f60208284031215610d0557610d046108af565b5b5f610d1284828501610cdc565b91505092915050565b610d24816108d6565b82525050565b5f602082019050610d3d5f830184610d1b565b92915050565b7f4e487b71000000000000000000000000000000000000000000000000000000005f52603260045260245ffd5b60a082015f820151610d845f850182610bd8565b506020820151610d976020850182610bd8565b506040820151610daa6040850182610c04565b506060820151610dbd6060850182610bf5565b506080820151610dd06080850182610c13565b50505050565b5f60a082019050610de95f830184610d70565b92915050565b610df8816108b7565b8114610e02575f5ffd5b50565b5f81519050610e1381610def565b92915050565b5f63ffffffff82169050919050565b610e3181610e19565b8114610e3b575f5ffd5b50565b5f81519050610e4c81610e28565b92915050565b5f5f5f5f60808587031215610e6a57610e696108af565b5b5f610e7787828801610cdc565b9450506020610e8887828801610e05565b9350506040610e9987828801610e3e565b9250506060610eaa87828801610cdc565b91505092959194509250565b5f604082019050610ec95f830185610d1b565b610ed66020830184610d1b565b9392505050565b7f4e487b71000000000000000000000000000000000000000000000000000000005f52601160045260245ffd5b5f610f1482610911565b9150610f1f83610911565b9250828201905080821115610f3757610f36610edd565b5b92915050565b5f606082019050610f505f830186610d1b565b610f5d6020830185610a3b565b610f6a6040830184610a3b565b94935050505056fea2646970667358221220e3300abf7724fa0757351b8eab58bf89aabcc94a7490e3f76ca35540e9f7cbf564736f6c634300081e0033","linkReferences":{}},"methodIdentifiers":{"quote(address,address,uint256)":"b6466384","quoter()":"c6bbd5a7","router()":"f887ea40","swap(address,address,uint256,uint256,bytes)":"2506c018"},"id":4}