{"abi":[{"type":"constructor","inputs":[],"stateMutability":"nonpayable"},{"type":"function","name":"quote","inputs":[{"name":"tokenIn","type":"address","internalType":"address"},{"name":"tokenOut","type":"address","internalType":"address"},{"name":"amountIn","type":"uint256","internalType":"uint256"}],"outputs":[{"name":"bestAmountOut","type":"uint256","internalType":"uint256"}],"stateMutability":"nonpayable"},{"type":"function","name":"swap","inputs":[{"name":"tokenIn","type":"address","internalType":"address"},{"name":"tokenOut","type":"address","internalType":"address"},{"name":"amountIn","type":"uint256","internalType":"uint256"},{"name":"minAmountOut","type":"uint256","internalType":"uint256"},{"name":"","type":"bytes","internalType":"bytes"}],"outputs":[{"name":"amountOut","type":"uint256","internalType":"uint256"}],"stateMutability":"nonpayable"}],"bytecode":{"object":"0x608060405234801561000f575f5ffd5b506040518060800160405280606461ffff1681526020016101f461ffff1681526020016109c461ffff16815260200161271061ffff168152505f90600461005792919061005d565b50610121565b828054828255905f5260205f2090600901600a900481019282156100f5579160200282015f5b838211156100c457835183826101000a81548162ffffff021916908361ffff1602179055509260200192600301602081600201049283019260010302610083565b80156100f35782816101000a81549062ffffff02191690556003016020816002010492830192600103026100c4565b505b5090506101029190610106565b5090565b5b8082111561011d575f815f905550600101610107565b5090565b610e1a8061012e5f395ff3fe608060405234801561000f575f5ffd5b5060043610610034575f3560e01c80632506c01814610038578063b646638414610068575b5f5ffd5b610052600480360381019061004d919061084d565b610098565b60405161005f91906108f2565b60405180910390f35b610082600480360381019061007d919061090b565b61044f565b60405161008f91906108f2565b60405180910390f35b5f8673ffffffffffffffffffffffffffffffffffffffff166323b872dd3330886040518463ffffffff1660e01b81526004016100d69392919061096a565b6020604051808303815f875af11580156100f2573d5f5f3e3d5ffd5b505050506040513d601f19601f8201168201806040525081019061011691906109d4565b505f8773ffffffffffffffffffffffffffffffffffffffff1663dd62ed3e30731b81d678ffb9c0263b24a97847620c99d213eb146040518363ffffffff1660e01b81526004016101679291906109ff565b602060405180830381865afa158015610182573d5f5f3e3d5ffd5b505050506040513d601f19601f820116820180604052508101906101a69190610a3a565b111561023d578673ffffffffffffffffffffffffffffffffffffffff1663095ea7b3731b81d678ffb9c0263b24a97847620c99d213eb145f6040518363ffffffff1660e01b81526004016101fb929190610aa7565b6020604051808303815f875af1158015610217573d5f5f3e3d5ffd5b505050506040513d601f19601f8201168201806040525081019061023b91906109d4565b505b8673ffffffffffffffffffffffffffffffffffffffff1663095ea7b3731b81d678ffb9c0263b24a97847620c99d213eb14876040518363ffffffff1660e01b815260040161028c929190610ace565b6020604051808303815f875af11580156102a8573d5f5f3e3d5ffd5b505050506040513d601f19601f820116820180604052508101906102cc91906109d4565b505f6102d98888886105b6565b509050731b81d678ffb9c0263b24a97847620c99d213eb1473ffffffffffffffffffffffffffffffffffffffff1663414bf3896040518061010001604052808b73ffffffffffffffffffffffffffffffffffffffff1681526020018a73ffffffffffffffffffffffffffffffffffffffff1681526020018462ffffff1681526020013373ffffffffffffffffffffffffffffffffffffffff1681526020014281526020018981526020018881526020015f73ffffffffffffffffffffffffffffffffffffffff168152506040518263ffffffff1660e01b81526004016103bf9190610bdf565b6020604051808303815f875af11580156103db573d5f5f3e3d5ffd5b505050506040513d601f19601f820116820180604052508101906103ff9190610a3a565b915084821015610444576040517f08c379a000000000000000000000000000000000000000000000000000000000815260040161043b90610c53565b60405180910390fd5b509695505050505050565b5f5f5f90505b5f805490508110156105ae5773b048bbc1ee6b733fffcfb9e9cef7375518e2599773ffffffffffffffffffffffffffffffffffffffff1663c6a5026a6040518060a001604052808873ffffffffffffffffffffffffffffffffffffffff1681526020018773ffffffffffffffffffffffffffffffffffffffff1681526020018681526020015f85815481106104ed576104ec610c71565b5b905f5260205f2090600a91828204019190066003029054906101000a900462ffffff1662ffffff1681526020015f73ffffffffffffffffffffffffffffffffffffffff168152506040518263ffffffff1660e01b81526004016105509190610d04565b6080604051808303815f875af192505050801561058b57506040513d601f19601f820116820180604052508101906105889190610d80565b60015b156105a1578584111561059c578395505b505050505b8080600101915050610455565b509392505050565b5f5f5f5f90505b5f8054905081101561074e5773b048bbc1ee6b733fffcfb9e9cef7375518e2599773ffffffffffffffffffffffffffffffffffffffff1663c6a5026a6040518060a001604052808973ffffffffffffffffffffffffffffffffffffffff1681526020018873ffffffffffffffffffffffffffffffffffffffff1681526020018781526020015f858154811061065557610654610c71565b5b905f5260205f2090600a91828204019190066003029054906101000a900462ffffff1662ffffff1681526020015f73ffffffffffffffffffffffffffffffffffffffff168152506040518263ffffffff1660e01b81526004016106b89190610d04565b6080604051808303815f875af19250505080156106f357506040513d601f19601f820116820180604052508101906106f09190610d80565b60015b15610741578584111561073c578395505f858154811061071657610715610c71565b5b905f5260205f2090600a91828204019190066003029054906101000a900462ffffff1696505b505050505b80806001019150506105bd565b50935093915050565b5f5ffd5b5f5ffd5b5f73ffffffffffffffffffffffffffffffffffffffff82169050919050565b5f6107888261075f565b9050919050565b6107988161077e565b81146107a2575f5ffd5b50565b5f813590506107b38161078f565b92915050565b5f819050919050565b6107cb816107b9565b81146107d5575f5ffd5b50565b5f813590506107e6816107c2565b92915050565b5f5ffd5b5f5ffd5b5f5ffd5b5f5f83601f84011261080d5761080c6107ec565b5b8235905067ffffffffffffffff81111561082a576108296107f0565b5b602083019150836001820283011115610846576108456107f4565b5b9250929050565b5f5f5f5f5f5f60a0878903121561086757610866610757565b5b5f61087489828a016107a5565b965050602061088589828a016107a5565b955050604061089689828a016107d8565b94505060606108a789828a016107d8565b935050608087013567ffffffffffffffff8111156108c8576108c761075b565b5b6108d489828a016107f8565b92509250509295509295509295565b6108ec816107b9565b82525050565b5f6020820190506109055f8301846108e3565b92915050565b5f5f5f6060848603121561092257610921610757565b5b5f61092f868287016107a5565b9350506020610940868287016107a5565b9250506040610951868287016107d8565b9150509250925092565b6109648161077e565b82525050565b5f60608201905061097d5f83018661095b565b61098a602083018561095b565b61099760408301846108e3565b949350505050565b5f8115159050919050565b6109b38161099f565b81146109bd575f5ffd5b50565b5f815190506109ce816109aa565b92915050565b5f602082840312156109e9576109e8610757565b5b5f6109f6848285016109c0565b91505092915050565b5f604082019050610a125f83018561095b565b610a1f602083018461095b565b9392505050565b5f81519050610a34816107c2565b92915050565b5f60208284031215610a4f57610a4e610757565b5b5f610a5c84828501610a26565b91505092915050565b5f819050919050565b5f819050919050565b5f610a91610a8c610a8784610a65565b610a6e565b6107b9565b9050919050565b610aa181610a77565b82525050565b5f604082019050610aba5f83018561095b565b610ac76020830184610a98565b9392505050565b5f604082019050610ae15f83018561095b565b610aee60208301846108e3565b9392505050565b610afe8161077e565b82525050565b5f62ffffff82169050919050565b610b1b81610b04565b82525050565b610b2a816107b9565b82525050565b610b398161075f565b82525050565b61010082015f820151610b545f850182610af5565b506020820151610b676020850182610af5565b506040820151610b7a6040850182610b12565b506060820151610b8d6060850182610af5565b506080820151610ba06080850182610b21565b5060a0820151610bb360a0850182610b21565b5060c0820151610bc660c0850182610b21565b5060e0820151610bd960e0850182610b30565b50505050565b5f61010082019050610bf35f830184610b3f565b92915050565b5f82825260208201905092915050565b7f416d6f756e74206f757420746f6f206c6f7700000000000000000000000000005f82015250565b5f610c3d601283610bf9565b9150610c4882610c09565b602082019050919050565b5f6020820190508181035f830152610c6a81610c31565b9050919050565b7f4e487b71000000000000000000000000000000000000000000000000000000005f52603260045260245ffd5b60a082015f820151610cb25f850182610af5565b506020820151610cc56020850182610af5565b506040820151610cd86040850182610b21565b506060820151610ceb6060850182610b12565b506080820151610cfe6080850182610b30565b50505050565b5f60a082019050610d175f830184610c9e565b92915050565b610d268161075f565b8114610d30575f5ffd5b50565b5f81519050610d4181610d1d565b92915050565b5f63ffffffff82169050919050565b610d5f81610d47565b8114610d69575f5ffd5b50565b5f81519050610d7a81610d56565b92915050565b5f5f5f5f60808587031215610d9857610d97610757565b5b5f610da587828801610a26565b9450506020610db687828801610d33565b9350506040610dc787828801610d6c565b9250506060610dd887828801610a26565b9150509295919450925056fea2646970667358221220d9db92f38bc333925b77d8d212f32fa9eae4135a6d3f969ee3f8235eca9c2a6c64736f6c634300081e0033","linkReferences":{}},"methodIdentifiers":{"quote(address,address,uint256)":"b6466384","swap(address,address,uint256,uint256,bytes)":"2506c018"},"id":4}