{"abi":[{"type":"function","name":"getRouter","inputs":[],"outputs":[{"name":"","type":"address","internalType":"address"}],"stateMutability":"view"},{"type":"function","name":"quote","inputs":[{"name":"tokenIn","type":"address","internalType":"address"},{"name":"tokenOut","type":"address","internalType":"address"},{"name":"amountIn","type":"uint256","internalType":"uint256"}],"outputs":[{"name":"amountOut","type":"uint256","internalType":"uint256"}],"stateMutability":"view"},{"type":"function","name":"swap","inputs":[{"name":"tokenIn","type":"address","internalType":"address"},{"name":"tokenOut","type":"address","internalType":"address"},{"name":"amountIn","type":"uint256","internalType":"uint256"},{"name":"data","type":"bytes","internalType":"bytes"}],"outputs":[{"name":"amountOut","type":"uint256","internalType":"uint256"}],"stateMutability":"nonpayable"},{"type":"error","name":"SafeERC20FailedOperation","inputs":[{"name":"token","type":"address","internalType":"address"}]}],"bytecode":{"object":"0x608060405234801561000f575f80fd5b50610d9f8061001d5f395ff3fe608060405234801561000f575f80fd5b506004361061003f575f3560e01c806343a0a7f214610043578063b0f479a114610073578063b646638414610091575b5f80fd5b61005d60048036038101906100589190610835565b6100c1565b60405161006a91906108c4565b60405180910390f35b61007b610355565b60405161008891906108ec565b60405180910390f35b6100ab60048036038101906100a69190610905565b610370565b6040516100b891906108c4565b60405180910390f35b5f80828060200190518101906100d7919061098a565b90506101063330868973ffffffffffffffffffffffffffffffffffffffff1661052d909392919063ffffffff16565b8573ffffffffffffffffffffffffffffffffffffffff1663095ea7b373cf77a3ba9a5ca399b7c97c74d54e5b1beb874e43866040518363ffffffff1660e01b81526004016101559291906109b5565b6020604051808303815f875af1158015610171573d5f803e3d5ffd5b505050506040513d601f19601f82011682018060405250810190610195919061098a565b505f600167ffffffffffffffff8111156101b2576101b1610711565b5b6040519080825280602002602001820160405280156101eb57816020015b6101d86105f3565b8152602001906001900390816101d05790505b50905060405180608001604052808873ffffffffffffffffffffffffffffffffffffffff1681526020018773ffffffffffffffffffffffffffffffffffffffff168152602001831515815260200173420dd381b31aef6683db6b902084cb0ffece40da73ffffffffffffffffffffffffffffffffffffffff16815250815f8151811061027a576102796109dc565b5b60200260200101819052505f73cf77a3ba9a5ca399b7c97c74d54e5b1beb874e4373ffffffffffffffffffffffffffffffffffffffff1663cac88ea9875f8533426040518663ffffffff1660e01b81526004016102db959493929190610b64565b5f604051808303815f875af11580156102f6573d5f803e3d5ffd5b505050506040513d5f823e3d601f19601f8201168201806040525081019061031e9190610c94565b9050806001825161032f9190610d08565b815181106103405761033f6109dc565b5b60200260200101519350505050949350505050565b5f73cf77a3ba9a5ca399b7c97c74d54e5b1beb874e43905090565b5f80600167ffffffffffffffff81111561038d5761038c610711565b5b6040519080825280602002602001820160405280156103c657816020015b6103b36105f3565b8152602001906001900390816103ab5790505b50905060405180608001604052808673ffffffffffffffffffffffffffffffffffffffff1681526020018573ffffffffffffffffffffffffffffffffffffffff1681526020015f1515815260200173420dd381b31aef6683db6b902084cb0ffece40da73ffffffffffffffffffffffffffffffffffffffff16815250815f81518110610455576104546109dc565b5b602002602001018190525073cf77a3ba9a5ca399b7c97c74d54e5b1beb874e4373ffffffffffffffffffffffffffffffffffffffff16635509a1ac84836040518363ffffffff1660e01b81526004016104af929190610d3b565b5f60405180830381865afa9250505080156104ec57506040513d5f823e3d601f19601f820116820180604052508101906104e99190610c94565b60015b6104f9575f915050610526565b80600182516105089190610d08565b81518110610519576105186109dc565b5b6020026020010151925050505b9392505050565b61053b848484846001610582565b61057c57836040517f5274afe700000000000000000000000000000000000000000000000000000000815260040161057391906108ec565b60405180910390fd5b50505050565b5f806323b872dd60e01b9050604051815f525f1960601c87166004525f1960601c86166024528460445260205f60645f808c5af1925060015f511483166105e05783831516156105d4573d5f823e3d81fd5b5f883b113d1516831692505b806040525f606052505095945050505050565b60405180608001604052805f73ffffffffffffffffffffffffffffffffffffffff1681526020015f73ffffffffffffffffffffffffffffffffffffffff1681526020015f151581526020015f73ffffffffffffffffffffffffffffffffffffffff1681525090565b5f604051905090565b5f80fd5b5f80fd5b5f73ffffffffffffffffffffffffffffffffffffffff82169050919050565b5f6106958261066c565b9050919050565b6106a58161068b565b81146106af575f80fd5b50565b5f813590506106c08161069c565b92915050565b5f819050919050565b6106d8816106c6565b81146106e2575f80fd5b50565b5f813590506106f3816106cf565b92915050565b5f80fd5b5f80fd5b5f601f19601f8301169050919050565b7f4e487b71000000000000000000000000000000000000000000000000000000005f52604160045260245ffd5b61074782610701565b810181811067ffffffffffffffff8211171561076657610765610711565b5b80604052505050565b5f61077861065b565b9050610784828261073e565b919050565b5f67ffffffffffffffff8211156107a3576107a2610711565b5b6107ac82610701565b9050602081019050919050565b828183375f83830152505050565b5f6107d96107d484610789565b61076f565b9050828152602081018484840111156107f5576107f46106fd565b5b6108008482856107b9565b509392505050565b5f82601f83011261081c5761081b6106f9565b5b813561082c8482602086016107c7565b91505092915050565b5f805f806080858703121561084d5761084c610664565b5b5f61085a878288016106b2565b945050602061086b878288016106b2565b935050604061087c878288016106e5565b925050606085013567ffffffffffffffff81111561089d5761089c610668565b5b6108a987828801610808565b91505092959194509250565b6108be816106c6565b82525050565b5f6020820190506108d75f8301846108b5565b92915050565b6108e68161068b565b82525050565b5f6020820190506108ff5f8301846108dd565b92915050565b5f805f6060848603121561091c5761091b610664565b5b5f610929868287016106b2565b935050602061093a868287016106b2565b925050604061094b868287016106e5565b9150509250925092565b5f8115159050919050565b61096981610955565b8114610973575f80fd5b50565b5f8151905061098481610960565b92915050565b5f6020828403121561099f5761099e610664565b5b5f6109ac84828501610976565b91505092915050565b5f6040820190506109c85f8301856108dd565b6109d560208301846108b5565b9392505050565b7f4e487b71000000000000000000000000000000000000000000000000000000005f52603260045260245ffd5b5f819050919050565b5f819050919050565b5f610a35610a30610a2b84610a09565b610a12565b6106c6565b9050919050565b610a4581610a1b565b82525050565b5f81519050919050565b5f82825260208201905092915050565b5f819050602082019050919050565b610a7d8161068b565b82525050565b610a8c81610955565b82525050565b608082015f820151610aa65f850182610a74565b506020820151610ab96020850182610a74565b506040820151610acc6040850182610a83565b506060820151610adf6060850182610a74565b50505050565b5f610af08383610a92565b60808301905092915050565b5f602082019050919050565b5f610b1282610a4b565b610b1c8185610a55565b9350610b2783610a65565b805f5b83811015610b57578151610b3e8882610ae5565b9750610b4983610afc565b925050600181019050610b2a565b5085935050505092915050565b5f60a082019050610b775f8301886108b5565b610b846020830187610a3c565b8181036040830152610b968186610b08565b9050610ba560608301856108dd565b610bb260808301846108b5565b9695505050505050565b5f67ffffffffffffffff821115610bd657610bd5610711565b5b602082029050602081019050919050565b5f80fd5b5f81519050610bf9816106cf565b92915050565b5f610c11610c0c84610bbc565b61076f565b90508083825260208201905060208402830185811115610c3457610c33610be7565b5b835b81811015610c5d5780610c498882610beb565b845260208401935050602081019050610c36565b5050509392505050565b5f82601f830112610c7b57610c7a6106f9565b5b8151610c8b848260208601610bff565b91505092915050565b5f60208284031215610ca957610ca8610664565b5b5f82015167ffffffffffffffff811115610cc657610cc5610668565b5b610cd284828501610c67565b91505092915050565b7f4e487b71000000000000000000000000000000000000000000000000000000005f52601160045260245ffd5b5f610d12826106c6565b9150610d1d836106c6565b9250828203905081811115610d3557610d34610cdb565b5b92915050565b5f604082019050610d4e5f8301856108b5565b8181036020830152610d608184610b08565b9050939250505056fea2646970667358221220f451b1cad2cf193b9a2930199ce6144ae7629b2f430340e0fa6a281a26ce43f764736f6c63430008140033","linkReferences":{}},"methodIdentifiers":{"getRouter()":"b0f479a1","quote(address,address,uint256)":"b6466384","swap(address,address,uint256,bytes)":"43a0a7f2"},"id":64}