{"abi":[{"type":"function","name":"getRouter","inputs":[],"outputs":[{"name":"","type":"address","internalType":"address"}],"stateMutability":"view"},{"type":"function","name":"quote","inputs":[{"name":"tokenIn","type":"address","internalType":"address"},{"name":"tokenOut","type":"address","internalType":"address"},{"name":"amountIn","type":"uint256","internalType":"uint256"}],"outputs":[{"name":"amountOut","type":"uint256","internalType":"uint256"}],"stateMutability":"view"},{"type":"function","name":"swap","inputs":[{"name":"tokenIn","type":"address","internalType":"address"},{"name":"tokenOut","type":"address","internalType":"address"},{"name":"amountIn","type":"uint256","internalType":"uint256"},{"name":"data","type":"bytes","internalType":"bytes"}],"outputs":[{"name":"amountOut","type":"uint256","internalType":"uint256"}],"stateMutability":"nonpayable"},{"type":"error","name":"SafeERC20FailedOperation","inputs":[{"name":"token","type":"address","internalType":"address"}]}],"bytecode":{"object":"0x608060405234601c57600e6020565b610d5961002b8239610d5990f35b6026565b60405190565b5f80fdfe60806040526004361015610013575b61033f565b61001d5f3561004c565b806343a0a7f214610047578063b0f479a1146100425763b64663840361000e57610309565b61029a565b610230565b60e01c90565b60405190565b5f80fd5b5f80fd5b5f80fd5b60018060a01b031690565b61007890610064565b90565b6100848161006f565b0361008b57565b5f80fd5b9050359061009c8261007b565b565b90565b6100aa8161009e565b036100b157565b5f80fd5b905035906100c2826100a1565b565b5f80fd5b5f80fd5b601f801991011690565b634e487b7160e01b5f52604160045260245ffd5b906100f4906100cc565b810190811067ffffffffffffffff82111761010e57604052565b6100d6565b9061012661011f610052565b92836100ea565b565b67ffffffffffffffff8111610146576101426020916100cc565b0190565b6100d6565b90825f939282370152565b9092919261016b61016682610128565b610113565b93818552602085019082840111610187576101859261014b565b565b6100c8565b9080601f830112156101aa578160206101a793359101610156565b90565b6100c4565b90608082820312610209576101c6815f840161008f565b926101d4826020850161008f565b926101e283604083016100b5565b92606082013567ffffffffffffffff811161020457610201920161018c565b90565b610060565b61005c565b6102179061009e565b9052565b919061022e905f6020850194019061020e565b565b346102645761026061024f6102463660046101af565b929190916108a7565b610257610052565b9182918261021b565b0390f35b610058565b5f91031261027357565b61005c565b6102819061006f565b9052565b9190610298905f60208501940190610278565b565b346102ca576102aa366004610269565b6102c66102b5610abd565b6102bd610052565b91829182610285565b0390f35b610058565b9091606082840312610304576103016102ea845f850161008f565b936102f8816020860161008f565b936040016100b5565b90565b61005c565b3461033a5761033661032561031f3660046102cf565b91610aff565b61032d610052565b9182918261021b565b0390f35b610058565b5f80fd5b5f90565b151590565b61035581610347565b0361035c57565b5f80fd5b9050519061036d8261034c565b565b9060208282031261038857610385915f01610360565b90565b61005c565b5190565b90565b6103a86103a36103ad92610064565b610391565b610064565b90565b6103b990610394565b90565b6103c5906103b0565b90565b6103d190610394565b90565b6103dd906103c8565b90565b6103e9906103c8565b90565b6103f590610394565b90565b610401906103ec565b90565b61042173cf77a3ba9a5ca399b7c97c74d54e5b1beb874e436103f8565b90565b61042d906103c8565b90565b60e01b90565b91602061045792949361045060408201965f830190610278565b019061020e565b565b610461610052565b3d5f823e3d90fd5b90565b61048061047b61048592610469565b610391565b61009e565b90565b67ffffffffffffffff81116104a05760208091020190565b6100d6565b906104b76104b283610488565b610113565b918252565b6104c66080610113565b90565b5f90565b5f90565b6104d96104bc565b906020808080856104e86104c9565b8152016104f36104c9565b8152016104fe6104cd565b8152016105096104c9565b81525050565b6105176104d1565b90565b5f5b82811061052857505050565b60209061053361050f565b818401520161051c565b9061056261054a836104a5565b926020806105588693610488565b920191039061051a565b565b61056d90610394565b90565b61057990610564565b90565b61059973420dd381b31aef6683db6b902084cb0ffece40da610570565b90565b6105a5906103c8565b90565b6105b26080610113565b90565b906105bf9061006f565b9052565b906105cd90610347565b9052565b634e487b7160e01b5f52603260045260245ffd5b5190565b906105f3826105e5565b811015610604576020809102010190565b6105d1565b90565b61062061061b61062592610609565b610391565b61009e565b90565b67ffffffffffffffff81116106405760208091020190565b6100d6565b5f80fd5b90505190610656826100a1565b565b9092919261066d61066882610628565b610113565b93818552602080860192028301928184116106aa57915b8383106106915750505050565b6020809161069f8486610649565b815201920191610684565b610645565b9080601f830112156106cd578160206106ca93519101610658565b90565b6100c4565b90602082820312610702575f82015167ffffffffffffffff81116106fd576106fa92016106af565b90565b610060565b61005c565b6107109061060c565b9052565b60209181520190565b60200190565b61072c9061006f565b9052565b61073990610347565b9052565b90606080610783936107555f8201515f860190610723565b61076760208201516020860190610723565b61077960408201516040860190610730565b0151910190610723565b565b906107928160809361073d565b0190565b60200190565b906107b96107b36107ac846105e5565b8093610714565b9261071d565b905f5b8181106107c95750505090565b9091926107e26107dc6001928651610785565b94610796565b91019190916107bc565b906108296108349161083b9698979561081c60809661081260a08801945f89019061020e565b6020870190610707565b848203604086015261079c565b966060830190610278565b019061020e565b565b5190565b634e487b7160e01b5f52601160045260245ffd5b61086461086a9193929361009e565b9261009e565b820391821161087557565b610841565b906108848261083d565b811015610895576020809102010190565b6105d1565b6108a4905161009e565b90565b926108ce909291926108b7610343565b5060206108c38261038d565b81830101910161036f565b916108ed6108db856103bc565b336108e5306103d4565b908592610c5b565b6108fe6108f9856103bc565b6103e0565b90602063095ea7b392610917610912610404565b610424565b906109355f8796610940610929610052565b98899687958694610430565b845260048401610436565b03925af18015610ab4575f946109da936109b592610a88575b506109ac61096f61096a600161046c565b61053d565b9793916109a361098561098061057c565b61059c565b9361099a6109916105a8565b978b89016105b5565b602087016105b5565b604085016105c3565b606083016105b5565b6109d4859185906109ce6109c88361060c565b856105e9565b5261060c565b906105e9565b51506109ec6109e7610404565b610424565b610a118363cac88ea9610a1c8297334291610a05610052565b9a8b998a988997610430565b8752600487016107ec565b03925af1908115610a8357610a5e91610a59915f91610a61575b50610a53610a438261083d565b610a4d600161046c565b90610855565b9061087a565b61089a565b90565b610a7d91503d805f833e610a7581836100ea565b8101906106d2565b5f610a36565b610459565b610aa89060203d8111610aad575b610aa081836100ea565b81019061036f565b610959565b503d610a96565b610459565b5f90565b610ac5610ab9565b50610ad6610ad1610404565b610424565b90565b91610afc92610aef60408201935f83019061020e565b602081840391015261079c565b90565b5f9093929193610b94610b10610343565b95610b6f610b26610b21600161046c565b61053d565b9391610b6686610b5d610b3f610b3a61057c565b61059c565b93610b54610b4b6105a8565b978b89016105b5565b602087016105b5565b604085016105c3565b606083016105b5565b610b8e83918590610b88610b828361060c565b856105e9565b5261060c565b906105e9565b5150610ba6610ba1610404565b610424565b610bc8635509a1ac949294610bd3610bbc610052565b96879586948594610430565b845260048401610ad9565b03915afa80915f92610c37575b50155f14610c0057506001610bf2575b565b9050610bfd5f61060c565b90565b610c31919250610c2c90610c26610c168261083d565b610c20600161046c565b90610855565b9061087a565b61089a565b90610bf0565b610c549192503d805f833e610c4c81836100ea565b8101906106d2565b905f610be0565b9290610c7892610c72928592919091600193610caa565b15610347565b610c7f5750565b610c8b610ca2916103e0565b5f918291635274afe760e01b835260048301610285565b0390fd5b5f90565b91949394929092610cb9610ca6565b506323b872dd60e01b93604051945f525f1960601c166004525f1960601c1660245260445260205f60648180855af19360015f5114851615610d01575b50506040525f606052565b8492941516610d1a575f903b113d151616915f80610cf6565b833d5f823e3d90fdfea26469706673582212203dee2134db76d0a5dac03b501d4f66662530b1f7bf9ac746a321b80ccd0f81e764736f6c634300081e0033","linkReferences":{}},"methodIdentifiers":{"getRouter()":"b0f479a1","quote(address,address,uint256)":"b6466384","swap(address,address,uint256,bytes)":"43a0a7f2"},"id":85}