{"abi":[{"type":"constructor","inputs":[{"name":"_router","type":"address","internalType":"address"}],"stateMutability":"nonpayable"},{"type":"function","name":"quote","inputs":[{"name":"tokenIn","type":"address","internalType":"address"},{"name":"tokenOut","type":"address","internalType":"address"},{"name":"amountIn","type":"uint256","internalType":"uint256"}],"outputs":[{"name":"amountOut","type":"uint256","internalType":"uint256"}],"stateMutability":"view"},{"type":"function","name":"router","inputs":[],"outputs":[{"name":"","type":"address","internalType":"contract IUniswapV2Router02"}],"stateMutability":"view"},{"type":"function","name":"swap","inputs":[{"name":"tokenIn","type":"address","internalType":"address"},{"name":"tokenOut","type":"address","internalType":"address"},{"name":"amountIn","type":"uint256","internalType":"uint256"},{"name":"minAmountOut","type":"uint256","internalType":"uint256"},{"name":"","type":"bytes","internalType":"bytes"}],"outputs":[{"name":"amountOut","type":"uint256","internalType":"uint256"}],"stateMutability":"nonpayable"},{"type":"error","name":"SafeERC20FailedDecreaseAllowance","inputs":[{"name":"spender","type":"address","internalType":"address"},{"name":"currentAllowance","type":"uint256","internalType":"uint256"},{"name":"requestedDecrease","type":"uint256","internalType":"uint256"}]},{"type":"error","name":"SafeERC20FailedOperation","inputs":[{"name":"token","type":"address","internalType":"address"}]}],"bytecode":{"object":"0x60a060405234801561000f575f5ffd5b50604051611173380380611173833981810160405281019061003191906100c9565b8073ffffffffffffffffffffffffffffffffffffffff1660808173ffffffffffffffffffffffffffffffffffffffff1681525050506100f4565b5f5ffd5b5f73ffffffffffffffffffffffffffffffffffffffff82169050919050565b5f6100988261006f565b9050919050565b6100a88161008e565b81146100b2575f5ffd5b50565b5f815190506100c38161009f565b92915050565b5f602082840312156100de576100dd61006b565b5b5f6100eb848285016100b5565b91505092915050565b60805161104c6101275f395f818160f40152818161028a01528181610333015281816104ff01526105d8015261104c5ff3fe608060405234801561000f575f5ffd5b506004361061003f575f3560e01c80632506c01814610043578063b646638414610073578063f887ea40146100a3575b5f5ffd5b61005d60048036038101906100589190610a45565b6100c1565b60405161006a9190610aea565b60405180910390f35b61008d60048036038101906100889190610b03565b6103af565b60405161009a9190610aea565b60405180910390f35b6100ab6105d6565b6040516100b89190610bae565b60405180910390f35b5f6100ef3330878a73ffffffffffffffffffffffffffffffffffffffff166105fa909392919063ffffffff16565b61013a7f0000000000000000000000000000000000000000000000000000000000000000868973ffffffffffffffffffffffffffffffffffffffff1661064f9092919063ffffffff16565b5f600367ffffffffffffffff81111561015657610155610bc7565b5b6040519080825280602002602001820160405280156101845781602001602082028036833780820191505090505b50905087815f8151811061019b5761019a610bf4565b5b602002602001019073ffffffffffffffffffffffffffffffffffffffff16908173ffffffffffffffffffffffffffffffffffffffff168152505073d988097fb8612cc35eec14542143924fb94d7c4d816001815181106101fe576101fd610bf4565b5b602002602001019073ffffffffffffffffffffffffffffffffffffffff16908173ffffffffffffffffffffffffffffffffffffffff1681525050868160028151811061024d5761024c610bf4565b5b602002602001019073ffffffffffffffffffffffffffffffffffffffff16908173ffffffffffffffffffffffffffffffffffffffff16815250505f7f000000000000000000000000000000000000000000000000000000000000000073ffffffffffffffffffffffffffffffffffffffff166338ed173988888533426040518663ffffffff1660e01b81526004016102e9959493929190610ce7565b5f604051808303815f875af1158015610304573d5f5f3e3d5ffd5b505050506040513d5f823e3d601f19601f8201168201806040525081019061032c9190610e6e565b90506103797f0000000000000000000000000000000000000000000000000000000000000000888b73ffffffffffffffffffffffffffffffffffffffff166106e89092919063ffffffff16565b80600182516103889190610ee2565b8151811061039957610398610bf4565b5b6020026020010151925050509695505050505050565b5f5f600367ffffffffffffffff8111156103cc576103cb610bc7565b5b6040519080825280602002602001820160405280156103fa5781602001602082028036833780820191505090505b50905084815f8151811061041157610410610bf4565b5b602002602001019073ffffffffffffffffffffffffffffffffffffffff16908173ffffffffffffffffffffffffffffffffffffffff168152505073d988097fb8612cc35eec14542143924fb94d7c4d8160018151811061047457610473610bf4565b5b602002602001019073ffffffffffffffffffffffffffffffffffffffff16908173ffffffffffffffffffffffffffffffffffffffff168152505083816002815181106104c3576104c2610bf4565b5b602002602001019073ffffffffffffffffffffffffffffffffffffffff16908173ffffffffffffffffffffffffffffffffffffffff16815250507f000000000000000000000000000000000000000000000000000000000000000073ffffffffffffffffffffffffffffffffffffffff1663d06ca61f84836040518363ffffffff1660e01b8152600401610558929190610f15565b5f60405180830381865afa92505050801561059557506040513d5f823e3d601f19601f820116820180604052508101906105929190610e6e565b60015b6105a2575f9150506105cf565b80600182516105b19190610ee2565b815181106105c2576105c1610bf4565b5b6020026020010151925050505b9392505050565b7f000000000000000000000000000000000000000000000000000000000000000081565b6106088484848460016107c1565b61064957836040517f5274afe70000000000000000000000000000000000000000000000000000000081526004016106409190610f43565b60405180910390fd5b50505050565b5f8373ffffffffffffffffffffffffffffffffffffffff1663dd62ed3e30856040518363ffffffff1660e01b815260040161068b929190610f5c565b602060405180830381865afa1580156106a6573d5f5f3e3d5ffd5b505050506040513d601f19601f820116820180604052508101906106ca9190610f83565b90506106e2848484846106dd9190610fae565b610832565b50505050565b5f8373ffffffffffffffffffffffffffffffffffffffff1663dd62ed3e30856040518363ffffffff1660e01b8152600401610724929190610f5c565b602060405180830381865afa15801561073f573d5f5f3e3d5ffd5b505050506040513d601f19601f820116820180604052508101906107639190610f83565b9050818110156107ae578281836040517fe570110f0000000000000000000000000000000000000000000000000000000081526004016107a593929190610fe1565b60405180910390fd5b6107bb8484848403610832565b50505050565b5f5f6323b872dd60e01b9050604051815f525f1960601c87166004525f1960601c86166024528460445260205f60645f5f8c5af1925060015f5114831661081f578383151615610813573d5f823e3d81fd5b5f883b113d1516831692505b806040525f606052505095945050505050565b61083e8383835f6108e4565b6108df5761084f83835f60016108e4565b61089057826040517f5274afe70000000000000000000000000000000000000000000000000000000081526004016108879190610f43565b60405180910390fd5b61089d83838360016108e4565b6108de57826040517f5274afe70000000000000000000000000000000000000000000000000000000081526004016108d59190610f43565b60405180910390fd5b5b505050565b5f5f63095ea7b360e01b9050604051815f525f1960601c86166004528460245260205f60445f5f8b5af1925060015f5114831661093857838315161561092c573d5f823e3d81fd5b5f873b113d1516831692505b806040525050949350505050565b5f604051905090565b5f5ffd5b5f5ffd5b5f73ffffffffffffffffffffffffffffffffffffffff82169050919050565b5f61098082610957565b9050919050565b61099081610976565b811461099a575f5ffd5b50565b5f813590506109ab81610987565b92915050565b5f819050919050565b6109c3816109b1565b81146109cd575f5ffd5b50565b5f813590506109de816109ba565b92915050565b5f5ffd5b5f5ffd5b5f5ffd5b5f5f83601f840112610a0557610a046109e4565b5b8235905067ffffffffffffffff811115610a2257610a216109e8565b5b602083019150836001820283011115610a3e57610a3d6109ec565b5b9250929050565b5f5f5f5f5f5f60a08789031215610a5f57610a5e61094f565b5b5f610a6c89828a0161099d565b9650506020610a7d89828a0161099d565b9550506040610a8e89828a016109d0565b9450506060610a9f89828a016109d0565b935050608087013567ffffffffffffffff811115610ac057610abf610953565b5b610acc89828a016109f0565b92509250509295509295509295565b610ae4816109b1565b82525050565b5f602082019050610afd5f830184610adb565b92915050565b5f5f5f60608486031215610b1a57610b1961094f565b5b5f610b278682870161099d565b9350506020610b388682870161099d565b9250506040610b49868287016109d0565b9150509250925092565b5f819050919050565b5f610b76610b71610b6c84610957565b610b53565b610957565b9050919050565b5f610b8782610b5c565b9050919050565b5f610b9882610b7d565b9050919050565b610ba881610b8e565b82525050565b5f602082019050610bc15f830184610b9f565b92915050565b7f4e487b71000000000000000000000000000000000000000000000000000000005f52604160045260245ffd5b7f4e487b71000000000000000000000000000000000000000000000000000000005f52603260045260245ffd5b5f81519050919050565b5f82825260208201905092915050565b5f819050602082019050919050565b610c5381610976565b82525050565b5f610c648383610c4a565b60208301905092915050565b5f602082019050919050565b5f610c8682610c21565b610c908185610c2b565b9350610c9b83610c3b565b805f5b83811015610ccb578151610cb28882610c59565b9750610cbd83610c70565b925050600181019050610c9e565b5085935050505092915050565b610ce181610976565b82525050565b5f60a082019050610cfa5f830188610adb565b610d076020830187610adb565b8181036040830152610d198186610c7c565b9050610d286060830185610cd8565b610d356080830184610adb565b9695505050505050565b5f601f19601f8301169050919050565b610d5882610d3f565b810181811067ffffffffffffffff82111715610d7757610d76610bc7565b5b80604052505050565b5f610d89610946565b9050610d958282610d4f565b919050565b5f67ffffffffffffffff821115610db457610db3610bc7565b5b602082029050602081019050919050565b5f81519050610dd3816109ba565b92915050565b5f610deb610de684610d9a565b610d80565b90508083825260208201905060208402830185811115610e0e57610e0d6109ec565b5b835b81811015610e375780610e238882610dc5565b845260208401935050602081019050610e10565b5050509392505050565b5f82601f830112610e5557610e546109e4565b5b8151610e65848260208601610dd9565b91505092915050565b5f60208284031215610e8357610e8261094f565b5b5f82015167ffffffffffffffff811115610ea057610e9f610953565b5b610eac84828501610e41565b91505092915050565b7f4e487b71000000000000000000000000000000000000000000000000000000005f52601160045260245ffd5b5f610eec826109b1565b9150610ef7836109b1565b9250828203905081811115610f0f57610f0e610eb5565b5b92915050565b5f604082019050610f285f830185610adb565b8181036020830152610f3a8184610c7c565b90509392505050565b5f602082019050610f565f830184610cd8565b92915050565b5f604082019050610f6f5f830185610cd8565b610f7c6020830184610cd8565b9392505050565b5f60208284031215610f9857610f9761094f565b5b5f610fa584828501610dc5565b91505092915050565b5f610fb8826109b1565b9150610fc3836109b1565b9250828201905080821115610fdb57610fda610eb5565b5b92915050565b5f606082019050610ff45f830186610cd8565b6110016020830185610adb565b61100e6040830184610adb565b94935050505056fea26469706673582212202cfb5f931dfef11cd1c5283225623314ed92c76c9c9a4c714db040ffe815cb7364736f6c634300081e0033","linkReferences":{}},"methodIdentifiers":{"quote(address,address,uint256)":"b6466384","router()":"f887ea40","swap(address,address,uint256,uint256,bytes)":"2506c018"},"id":6}