{"abi":[{"type":"function","name":"FACTORY","inputs":[],"outputs":[{"name":"","type":"address","internalType":"contract IPoolFactory"}],"stateMutability":"view"},{"type":"function","name":"ROUTER","inputs":[],"outputs":[{"name":"","type":"address","internalType":"contract IRouter"}],"stateMutability":"view"},{"type":"function","name":"getRouter","inputs":[],"outputs":[{"name":"","type":"address","internalType":"address"}],"stateMutability":"pure"},{"type":"function","name":"quote","inputs":[{"name":"tokenIn","type":"address","internalType":"address"},{"name":"tokenOut","type":"address","internalType":"address"},{"name":"amountIn","type":"uint256","internalType":"uint256"}],"outputs":[{"name":"amountOut","type":"uint256","internalType":"uint256"}],"stateMutability":"view"},{"type":"function","name":"swap","inputs":[{"name":"tokenIn","type":"address","internalType":"address"},{"name":"tokenOut","type":"address","internalType":"address"},{"name":"amountIn","type":"uint256","internalType":"uint256"},{"name":"data","type":"bytes","internalType":"bytes"}],"outputs":[{"name":"amountOut","type":"uint256","internalType":"uint256"}],"stateMutability":"nonpayable"},{"type":"error","name":"SafeERC20FailedOperation","inputs":[{"name":"token","type":"address","internalType":"address"}]}],"bytecode":{"object":"0x608060405234801561000f575f80fd5b50610f998061001d5f395ff3fe608060405234801561000f575f80fd5b5060043610610055575f3560e01c80632dd310001461005957806332fe7b261461007757806343a0a7f214610095578063b0f479a1146100c5578063b6466384146100e3575b5f80fd5b610061610113565b60405161006e919061083f565b60405180910390f35b61007f61012b565b60405161008c9190610878565b60405180910390f35b6100af60048036038101906100aa9190610971565b610143565b6040516100bc9190610a04565b60405180910390f35b6100cd6103d3565b6040516100da9190610a2c565b60405180910390f35b6100fd60048036038101906100f89190610a45565b6103ee565b60405161010a9190610a04565b60405180910390f35b73420dd381b31aef6683db6b902084cb0ffece40da81565b73cf77a3ba9a5ca399b7c97c74d54e5b1beb874e4381565b5f8083838101906101549190610aca565b90506101833330878a73ffffffffffffffffffffffffffffffffffffffff16610697909392919063ffffffff16565b8673ffffffffffffffffffffffffffffffffffffffff1663095ea7b373cf77a3ba9a5ca399b7c97c74d54e5b1beb874e43876040518363ffffffff1660e01b81526004016101d2929190610af5565b6020604051808303815f875af11580156101ee573d5f803e3d5ffd5b505050506040513d601f19601f820116820180604052508101906102129190610b30565b505f600167ffffffffffffffff81111561022f5761022e610b5b565b5b60405190808252806020026020018201604052801561026857816020015b61025561075d565b81526020019060019003908161024d5790505b50905060405180608001604052808973ffffffffffffffffffffffffffffffffffffffff1681526020018873ffffffffffffffffffffffffffffffffffffffff168152602001831515815260200173420dd381b31aef6683db6b902084cb0ffece40da73ffffffffffffffffffffffffffffffffffffffff16815250815f815181106102f7576102f6610b88565b5b60200260200101819052505f73cf77a3ba9a5ca399b7c97c74d54e5b1beb874e4373ffffffffffffffffffffffffffffffffffffffff1663cac88ea9885f8533426040518663ffffffff1660e01b8152600401610358959493929190610d07565b5f604051808303815f875af1158015610373573d5f803e3d5ffd5b505050506040513d5f823e3d601f19601f8201168201806040525081019061039b9190610e8e565b905080600182516103ac9190610f02565b815181106103bd576103bc610b88565b5b6020026020010151935050505095945050505050565b5f73cf77a3ba9a5ca399b7c97c74d54e5b1beb874e43905090565b5f80600167ffffffffffffffff81111561040b5761040a610b5b565b5b60405190808252806020026020018201604052801561044457816020015b61043161075d565b8152602001906001900390816104295790505b50905060405180608001604052808673ffffffffffffffffffffffffffffffffffffffff1681526020018573ffffffffffffffffffffffffffffffffffffffff1681526020015f1515815260200173420dd381b31aef6683db6b902084cb0ffece40da73ffffffffffffffffffffffffffffffffffffffff16815250815f815181106104d3576104d2610b88565b5b602002602001018190525073cf77a3ba9a5ca399b7c97c74d54e5b1beb874e4373ffffffffffffffffffffffffffffffffffffffff16635509a1ac84836040518363ffffffff1660e01b815260040161052d929190610f35565b5f60405180830381865afa92505050801561056a57506040513d5f823e3d601f19601f820116820180604052508101906105679190610e8e565b60015b610663576001815f8151811061058357610582610b88565b5b6020026020010151604001901515908115158152505073cf77a3ba9a5ca399b7c97c74d54e5b1beb874e4373ffffffffffffffffffffffffffffffffffffffff16635509a1ac84836040518363ffffffff1660e01b81526004016105e8929190610f35565b5f60405180830381865afa92505050801561062557506040513d5f823e3d601f19601f820116820180604052508101906106229190610e8e565b60015b610632575f915050610690565b80600182516106419190610f02565b8151811061065257610651610b88565b5b602002602001015192505050610690565b80600182516106729190610f02565b8151811061068357610682610b88565b5b6020026020010151925050505b9392505050565b6106a58484848460016106ec565b6106e657836040517f5274afe70000000000000000000000000000000000000000000000000000000081526004016106dd9190610a2c565b60405180910390fd5b50505050565b5f806323b872dd60e01b9050604051815f525f1960601c87166004525f1960601c86166024528460445260205f60645f808c5af1925060015f5114831661074a57838315161561073e573d5f823e3d81fd5b5f883b113d1516831692505b806040525f606052505095945050505050565b60405180608001604052805f73ffffffffffffffffffffffffffffffffffffffff1681526020015f73ffffffffffffffffffffffffffffffffffffffff1681526020015f151581526020015f73ffffffffffffffffffffffffffffffffffffffff1681525090565b5f73ffffffffffffffffffffffffffffffffffffffff82169050919050565b5f819050919050565b5f6108076108026107fd846107c5565b6107e4565b6107c5565b9050919050565b5f610818826107ed565b9050919050565b5f6108298261080e565b9050919050565b6108398161081f565b82525050565b5f6020820190506108525f830184610830565b92915050565b5f6108628261080e565b9050919050565b61087281610858565b82525050565b5f60208201905061088b5f830184610869565b92915050565b5f604051905090565b5f80fd5b5f80fd5b5f6108ac826107c5565b9050919050565b6108bc816108a2565b81146108c6575f80fd5b50565b5f813590506108d7816108b3565b92915050565b5f819050919050565b6108ef816108dd565b81146108f9575f80fd5b50565b5f8135905061090a816108e6565b92915050565b5f80fd5b5f80fd5b5f80fd5b5f8083601f84011261093157610930610910565b5b8235905067ffffffffffffffff81111561094e5761094d610914565b5b60208301915083600182028301111561096a57610969610918565b5b9250929050565b5f805f805f6080868803121561098a5761098961089a565b5b5f610997888289016108c9565b95505060206109a8888289016108c9565b94505060406109b9888289016108fc565b935050606086013567ffffffffffffffff8111156109da576109d961089e565b5b6109e68882890161091c565b92509250509295509295909350565b6109fe816108dd565b82525050565b5f602082019050610a175f8301846109f5565b92915050565b610a26816108a2565b82525050565b5f602082019050610a3f5f830184610a1d565b92915050565b5f805f60608486031215610a5c57610a5b61089a565b5b5f610a69868287016108c9565b9350506020610a7a868287016108c9565b9250506040610a8b868287016108fc565b9150509250925092565b5f8115159050919050565b610aa981610a95565b8114610ab3575f80fd5b50565b5f81359050610ac481610aa0565b92915050565b5f60208284031215610adf57610ade61089a565b5b5f610aec84828501610ab6565b91505092915050565b5f604082019050610b085f830185610a1d565b610b1560208301846109f5565b9392505050565b5f81519050610b2a81610aa0565b92915050565b5f60208284031215610b4557610b4461089a565b5b5f610b5284828501610b1c565b91505092915050565b7f4e487b71000000000000000000000000000000000000000000000000000000005f52604160045260245ffd5b7f4e487b71000000000000000000000000000000000000000000000000000000005f52603260045260245ffd5b5f819050919050565b5f610bd8610bd3610bce84610bb5565b6107e4565b6108dd565b9050919050565b610be881610bbe565b82525050565b5f81519050919050565b5f82825260208201905092915050565b5f819050602082019050919050565b610c20816108a2565b82525050565b610c2f81610a95565b82525050565b608082015f820151610c495f850182610c17565b506020820151610c5c6020850182610c17565b506040820151610c6f6040850182610c26565b506060820151610c826060850182610c17565b50505050565b5f610c938383610c35565b60808301905092915050565b5f602082019050919050565b5f610cb582610bee565b610cbf8185610bf8565b9350610cca83610c08565b805f5b83811015610cfa578151610ce18882610c88565b9750610cec83610c9f565b925050600181019050610ccd565b5085935050505092915050565b5f60a082019050610d1a5f8301886109f5565b610d276020830187610bdf565b8181036040830152610d398186610cab565b9050610d486060830185610a1d565b610d5560808301846109f5565b9695505050505050565b5f601f19601f8301169050919050565b610d7882610d5f565b810181811067ffffffffffffffff82111715610d9757610d96610b5b565b5b80604052505050565b5f610da9610891565b9050610db58282610d6f565b919050565b5f67ffffffffffffffff821115610dd457610dd3610b5b565b5b602082029050602081019050919050565b5f81519050610df3816108e6565b92915050565b5f610e0b610e0684610dba565b610da0565b90508083825260208201905060208402830185811115610e2e57610e2d610918565b5b835b81811015610e575780610e438882610de5565b845260208401935050602081019050610e30565b5050509392505050565b5f82601f830112610e7557610e74610910565b5b8151610e85848260208601610df9565b91505092915050565b5f60208284031215610ea357610ea261089a565b5b5f82015167ffffffffffffffff811115610ec057610ebf61089e565b5b610ecc84828501610e61565b91505092915050565b7f4e487b71000000000000000000000000000000000000000000000000000000005f52601160045260245ffd5b5f610f0c826108dd565b9150610f17836108dd565b9250828203905081811115610f2f57610f2e610ed5565b5b92915050565b5f604082019050610f485f8301856109f5565b8181036020830152610f5a8184610cab565b9050939250505056fea2646970667358221220254f3d50e4a05053aa92247ca055bb12318f6f99a69240ec9233935b25ebf7cc64736f6c63430008140033","linkReferences":{}},"methodIdentifiers":{"FACTORY()":"2dd31000","ROUTER()":"32fe7b26","getRouter()":"b0f479a1","quote(address,address,uint256)":"b6466384","swap(address,address,uint256,bytes)":"43a0a7f2"},"id":3}