{"abi":[{"type":"function","name":"FACTORY","inputs":[],"outputs":[{"name":"","type":"address","internalType":"contract IPoolFactory"}],"stateMutability":"view"},{"type":"function","name":"ROUTER","inputs":[],"outputs":[{"name":"","type":"address","internalType":"contract IRouter"}],"stateMutability":"view"},{"type":"function","name":"getRouter","inputs":[],"outputs":[{"name":"","type":"address","internalType":"address"}],"stateMutability":"pure"},{"type":"function","name":"quote","inputs":[{"name":"tokenIn","type":"address","internalType":"address"},{"name":"tokenOut","type":"address","internalType":"address"},{"name":"amountIn","type":"uint256","internalType":"uint256"}],"outputs":[{"name":"amountOut","type":"uint256","internalType":"uint256"}],"stateMutability":"view"},{"type":"function","name":"swap","inputs":[{"name":"tokenIn","type":"address","internalType":"address"},{"name":"tokenOut","type":"address","internalType":"address"},{"name":"amountIn","type":"uint256","internalType":"uint256"},{"name":"data","type":"bytes","internalType":"bytes"}],"outputs":[{"name":"amountOut","type":"uint256","internalType":"uint256"}],"stateMutability":"nonpayable"},{"type":"error","name":"SafeERC20FailedOperation","inputs":[{"name":"token","type":"address","internalType":"address"}]}],"bytecode":{"object":"0x608060405234601c57600e6020565b610f5c61002b8239610f5c90f35b6026565b60405190565b5f80fdfe60806040526004361015610013575b610437565b61001d5f3561006c565b80632dd310001461006757806332fe7b261461006257806343a0a7f21461005d578063b0f479a1146100585763b64663840361000e57610401565b610392565b610337565b6101dc565b610136565b60e01c90565b60405190565b5f80fd5b5f80fd5b5f91031261008a57565b61007c565b60018060a01b031690565b90565b6100b16100ac6100b69261008f565b61009a565b61008f565b90565b6100c29061009d565b90565b6100ce906100b9565b90565b6100ee73420dd381b31aef6683db6b902084cb0ffece40da6100c5565b90565b6100f96100d1565b90565b6101059061009d565b90565b610111906100fc565b90565b61011d90610108565b9052565b9190610134905f60208501940190610114565b565b3461016657610146366004610080565b6101626101516100f1565b610159610072565b91829182610121565b0390f35b610078565b6101749061009d565b90565b6101809061016b565b90565b6101a073cf77a3ba9a5ca399b7c97c74d54e5b1beb874e43610177565b90565b6101ab610183565b90565b6101b7906100fc565b90565b6101c3906101ae565b9052565b91906101da905f602085019401906101ba565b565b3461020c576101ec366004610080565b6102086101f76101a3565b6101ff610072565b918291826101c7565b0390f35b610078565b5f80fd5b61021e9061008f565b90565b61022a81610215565b0361023157565b5f80fd5b9050359061024282610221565b565b90565b61025081610244565b0361025757565b5f80fd5b9050359061026882610247565b565b5f80fd5b5f80fd5b5f80fd5b909182601f830112156102b05781359167ffffffffffffffff83116102ab5760200192600183028401116102a657565b610272565b61026e565b61026a565b90608082820312610310576102cc815f8401610235565b926102da8260208501610235565b926102e8836040830161025b565b92606082013567ffffffffffffffff811161030b576103079201610276565b9091565b610211565b61007c565b61031e90610244565b9052565b9190610335905f60208501940190610315565b565b3461036b5761036761035661034d3660046102b5565b93929092610966565b61035e610072565b91829182610322565b0390f35b610078565b61037990610215565b9052565b9190610390905f60208501940190610370565b565b346103c2576103a2366004610080565b6103be6103ad610c08565b6103b5610072565b9182918261037d565b0390f35b610078565b90916060828403126103fc576103f96103e2845f8501610235565b936103f08160208601610235565b9360400161025b565b90565b61007c565b346104325761042e61041d6104173660046103c7565b91610c24565b610425610072565b91829182610322565b0390f35b610078565b5f80fd5b5f90565b90565b61045661045161045b9261043f565b61009a565b610244565b90565b601f801991011690565b634e487b7160e01b5f52604160045260245ffd5b906104869061045e565b810190811067ffffffffffffffff8211176104a057604052565b610468565b906104b86104b1610072565b928361047c565b565b67ffffffffffffffff81116104d25760208091020190565b610468565b906104e96104e4836104ba565b6104a5565b918252565b6104f860806104a5565b90565b5f90565b5f90565b61050b6104ee565b9060208080808561051a6104fb565b8152016105256104fb565b8152016105306104ff565b81520161053b6104fb565b81525050565b610549610503565b90565b5f5b82811061055a57505050565b602090610565610541565b818401520161054e565b9061059461057c836104d7565b9260208061058a86936104ba565b920191039061054c565b565b6105a060806104a5565b90565b906105ad90610215565b9052565b151590565b906105c0906105b1565b9052565b634e487b7160e01b5f52603260045260245ffd5b5190565b906105e6826105d8565b8110156105f7576020809102010190565b6105c4565b90565b61061361060e610618926105fc565b61009a565b610244565b90565b60e01b90565b67ffffffffffffffff81116106395760208091020190565b610468565b9050519061064b82610247565b565b9092919261066261065d82610621565b6104a5565b938185526020808601920283019281841161069f57915b8383106106865750505050565b60208091610694848661063e565b815201920191610679565b610272565b9080601f830112156106c2578160206106bf9351910161064d565b90565b61026a565b906020828203126106f7575f82015167ffffffffffffffff81116106f2576106ef92016106a4565b90565b610211565b61007c565b60209181520190565b60200190565b61071490610215565b9052565b610721906105b1565b9052565b9060608061076b9361073d5f8201515f86019061070b565b61074f6020820151602086019061070b565b61076160408201516040860190610718565b015191019061070b565b565b9061077a81608093610725565b0190565b60200190565b906107a161079b610794846105d8565b80936106fc565b92610705565b905f5b8181106107b15750505090565b9091926107ca6107c4600192865161076d565b9461077e565b91019190916107a4565b916107f7926107ea60408201935f830190610315565b6020818403910152610784565b90565b610802610072565b3d5f823e3d90fd5b6108139061009d565b90565b61081f9061080a565b90565b61082b906100fc565b90565b610837906100fc565b90565b610843816105b1565b0361084a57565b5f80fd5b9050519061085b8261083a565b565b9060208282031261087657610873915f0161084e565b90565b61007c565b91602061089c92949361089560408201965f830190610370565b0190610315565b565b6108a7906105ff565b9052565b906108e86108f3916108fa969897956108db6080966108d160a08801945f890190610315565b602087019061089e565b8482036040860152610784565b966060830190610370565b0190610315565b565b5190565b634e487b7160e01b5f52601160045260245ffd5b61092361092991939293610244565b92610244565b820391821161093457565b610900565b90610943826108fc565b811015610954576020809102010190565b6105c4565b6109639051610244565b90565b610a82919450610a8792935061097a61043b565b50610a0261099061098b6001610442565b61056f565b956109dd83916109d45f6109cb6109ad6109a86100d1565b610108565b936109c26109b9610596565b975f89016105a3565b602087016105a3565b604085016105b6565b606083016105a3565b6109fc87915f906109f66109f0836105ff565b856105dc565b526105ff565b906105dc565b5150610a14610a0f610183565b6101ae565b5f635509a1ac918690610a398994610a44610a2d610072565b9687958694859461061b565b8452600484016107d4565b03915afa9081610be4575b50155f14610bdf576001610bb9575b5b610a7d610a6b82610816565b33610a7530610822565b908792610e5e565b610816565b61082e565b90602063095ea7b392610aa0610a9b610183565b6101ae565b90610abe5f8596610ac9610ab2610072565b9889968795869461061b565b84526004840161087b565b03925af1918215610bb4575f92610b88575b50610aec610ae7610183565b6101ae565b610b118363cac88ea9610b1c8297334291610b05610072565b9a8b998a98899761061b565b8752600487016108ab565b03925af1908115610b8357610b5e91610b59915f91610b61575b50610b53610b43826108fc565b610b4d6001610442565b90610914565b90610939565b610959565b90565b610b7d91503d805f833e610b75818361047c565b8101906106c7565b5f610b36565b6107fa565b610ba89060203d8111610bad575b610ba0818361047c565b81019061085d565b610adb565b503d610b96565b6107fa565b610bda60016040610bd388610bcd5f6105ff565b906105dc565b51016105b6565b610a5e565b610a5f565b610bff903d805f833e610bf7818361047c565b8101906106c7565b610a4f565b5f90565b610c10610c04565b50610c21610c1c610183565b6101ae565b90565b92919092610cb7610c3361043b565b94610c92610c49610c446001610442565b61056f565b9391610c895f610c80610c62610c5d6100d1565b610108565b93610c77610c6e610596565b975f89016105a3565b602087016105a3565b604085016105b6565b606083016105a3565b610cb183915f90610cab610ca5836105ff565b856105dc565b526105ff565b906105dc565b5150610cc9610cc4610183565b6101ae565b5f635509a1ac918490610cee8594610cf9610ce2610072565b9687958694859461061b565b8452600484016107d4565b03915afa80915f92610e3a575b50155f14610e0357506001610d1a575b5050565b5f90610d3d60016040610d3684610d30876105ff565b906105dc565b51016105b6565b610d4d610d48610183565b6101ae565b610d6f635509a1ac949294610d7a610d63610072565b9687958694859461061b565b8452600484016107d4565b03915afa80915f92610ddf575b50155f14610dab57506001610d9d575f80610d16565b9050610da85f6105ff565b90565b610ddc919250610dd790610dd1610dc1826108fc565b610dcb6001610442565b90610914565b90610939565b610959565b90565b610dfc9192503d805f833e610df4818361047c565b8101906106c7565b905f610d87565b9050610e37929350610e329150610e2c610e1c826108fc565b610e266001610442565b90610914565b90610939565b610959565b90565b610e579192503d805f833e610e4f818361047c565b8101906106c7565b905f610d06565b9290610e7b92610e75928592919091600193610ead565b156105b1565b610e825750565b610e8e610ea59161082e565b5f918291635274afe760e01b83526004830161037d565b0390fd5b5f90565b91949394929092610ebc610ea9565b506323b872dd60e01b93604051945f525f1960601c166004525f1960601c1660245260445260205f60648180855af19360015f5114851615610f04575b50506040525f606052565b8492941516610f1d575f903b113d151616915f80610ef9565b833d5f823e3d90fdfea2646970667358221220950657913139562ba6eebc52344dc6802eb75f835724a3f19c4646967763e65e64736f6c634300081e0033","linkReferences":{}},"methodIdentifiers":{"FACTORY()":"2dd31000","ROUTER()":"32fe7b26","getRouter()":"b0f479a1","quote(address,address,uint256)":"b6466384","swap(address,address,uint256,bytes)":"43a0a7f2"},"id":5}