{"abi":[{"type":"constructor","inputs":[{"name":"initialOwner","type":"address","internalType":"address"},{"name":"_swapFeeBps","type":"uint24","internalType":"uint24"},{"name":"_protocolShareBps","type":"uint24","internalType":"uint24"},{"name":"_relayerShareBps","type":"uint24","internalType":"uint24"}],"stateMutability":"nonpayable"},{"type":"function","name":"calculateFees","inputs":[{"name":"tokenA","type":"address","internalType":"address"},{"name":"tokenB","type":"address","internalType":"address"},{"name":"amountIn","type":"uint256","internalType":"uint256"}],"outputs":[{"name":"amountAfterFee","type":"uint256","internalType":"uint256"},{"name":"protocolAmount","type":"uint256","internalType":"uint256"},{"name":"relayerAmount","type":"uint256","internalType":"uint256"}],"stateMutability":"view"},{"type":"function","name":"defaultFee","inputs":[],"outputs":[{"name":"swapFeeBps","type":"uint24","internalType":"uint24"},{"name":"protocolShareBps","type":"uint24","internalType":"uint24"},{"name":"relayerShareBps","type":"uint24","internalType":"uint24"}],"stateMutability":"view"},{"type":"function","name":"getFeeConfig","inputs":[{"name":"tokenA","type":"address","internalType":"address"},{"name":"tokenB","type":"address","internalType":"address"}],"outputs":[{"name":"","type":"tuple","internalType":"struct FeeController.FeeConfig","components":[{"name":"swapFeeBps","type":"uint24","internalType":"uint24"},{"name":"protocolShareBps","type":"uint24","internalType":"uint24"},{"name":"relayerShareBps","type":"uint24","internalType":"uint24"}]}],"stateMutability":"view"},{"type":"function","name":"owner","inputs":[],"outputs":[{"name":"","type":"address","internalType":"address"}],"stateMutability":"view"},{"type":"function","name":"pairFees","inputs":[{"name":"","type":"bytes32","internalType":"bytes32"}],"outputs":[{"name":"swapFeeBps","type":"uint24","internalType":"uint24"},{"name":"protocolShareBps","type":"uint24","internalType":"uint24"},{"name":"relayerShareBps","type":"uint24","internalType":"uint24"}],"stateMutability":"view"},{"type":"function","name":"renounceOwnership","inputs":[],"outputs":[],"stateMutability":"nonpayable"},{"type":"function","name":"setDefaultFee","inputs":[{"name":"swapFeeBps","type":"uint24","internalType":"uint24"},{"name":"protocolShareBps","type":"uint24","internalType":"uint24"},{"name":"relayerShareBps","type":"uint24","internalType":"uint24"}],"outputs":[],"stateMutability":"nonpayable"},{"type":"function","name":"setPairFee","inputs":[{"name":"tokenA","type":"address","internalType":"address"},{"name":"tokenB","type":"address","internalType":"address"},{"name":"swapFeeBps","type":"uint24","internalType":"uint24"},{"name":"protocolShareBps","type":"uint24","internalType":"uint24"},{"name":"relayerShareBps","type":"uint24","internalType":"uint24"}],"outputs":[],"stateMutability":"nonpayable"},{"type":"function","name":"transferOwnership","inputs":[{"name":"newOwner","type":"address","internalType":"address"}],"outputs":[],"stateMutability":"nonpayable"},{"type":"event","name":"DefaultFeeSet","inputs":[{"name":"swapFeeBps","type":"uint24","indexed":false,"internalType":"uint24"},{"name":"protocolShareBps","type":"uint24","indexed":false,"internalType":"uint24"},{"name":"relayerShareBps","type":"uint24","indexed":false,"internalType":"uint24"}],"anonymous":false},{"type":"event","name":"OwnershipTransferred","inputs":[{"name":"previousOwner","type":"address","indexed":true,"internalType":"address"},{"name":"newOwner","type":"address","indexed":true,"internalType":"address"}],"anonymous":false},{"type":"event","name":"PairFeeSet","inputs":[{"name":"pairHash","type":"bytes32","indexed":true,"internalType":"bytes32"},{"name":"swapFeeBps","type":"uint24","indexed":false,"internalType":"uint24"},{"name":"protocolShareBps","type":"uint24","indexed":false,"internalType":"uint24"},{"name":"relayerShareBps","type":"uint24","indexed":false,"internalType":"uint24"}],"anonymous":false},{"type":"error","name":"OwnableInvalidOwner","inputs":[{"name":"owner","type":"address","internalType":"address"}]},{"type":"error","name":"OwnableUnauthorizedAccount","inputs":[{"name":"account","type":"address","internalType":"address"}]}],"bytecode":{"object":"0x608060405234801561000f575f5ffd5b50604051611322380380611322833981810160405281019061003191906102f5565b835f73ffffffffffffffffffffffffffffffffffffffff168173ffffffffffffffffffffffffffffffffffffffff16036100a2575f6040517f1e4fbdf70000000000000000000000000000000000000000000000000000000081526004016100999190610368565b60405180910390fd5b6100b18161019e60201b60201c565b506103e88362ffffff1611156100fc576040517f08c379a00000000000000000000000000000000000000000000000000000000081526004016100f3906103db565b60405180910390fd5b60405180606001604052808462ffffff1681526020018362ffffff1681526020018262ffffff1681525060025f820151815f015f6101000a81548162ffffff021916908362ffffff1602179055506020820151815f0160036101000a81548162ffffff021916908362ffffff1602179055506040820151815f0160066101000a81548162ffffff021916908362ffffff160217905550905050505050506103f9565b5f5f5f9054906101000a900473ffffffffffffffffffffffffffffffffffffffff169050815f5f6101000a81548173ffffffffffffffffffffffffffffffffffffffff021916908373ffffffffffffffffffffffffffffffffffffffff1602179055508173ffffffffffffffffffffffffffffffffffffffff168173ffffffffffffffffffffffffffffffffffffffff167f8be0079c531659141344cd1fd0a4f28419497f9722a3daafe3b4186f6b6457e060405160405180910390a35050565b5f5ffd5b5f73ffffffffffffffffffffffffffffffffffffffff82169050919050565b5f61028c82610263565b9050919050565b61029c81610282565b81146102a6575f5ffd5b50565b5f815190506102b781610293565b92915050565b5f62ffffff82169050919050565b6102d4816102bd565b81146102de575f5ffd5b50565b5f815190506102ef816102cb565b92915050565b5f5f5f5f6080858703121561030d5761030c61025f565b5b5f61031a878288016102a9565b945050602061032b878288016102e1565b935050604061033c878288016102e1565b925050606061034d878288016102e1565b91505092959194509250565b61036281610282565b82525050565b5f60208201905061037b5f830184610359565b92915050565b5f82825260208201905092915050565b7f4665653a20746f6f206c617267650000000000000000000000000000000000005f82015250565b5f6103c5600e83610381565b91506103d082610391565b602082019050919050565b5f6020820190508181035f8301526103f2816103b9565b9050919050565b610f1c806104065f395ff3fe608060405234801561000f575f5ffd5b5060043610610091575f3560e01c806373352ad31161006457806373352ad31461010d57806389c51db31461013f5780638da5cb5b1461015b578063b6b622bf14610179578063f2fde38b146101a957610091565b8063258c59e1146100955780632d8d5e94146100c75780635a6c72d0146100e3578063715018a614610103575b5f5ffd5b6100af60048036038101906100aa9190610978565b6101c5565b6040516100be939291906109c0565b60405180910390f35b6100e160048036038101906100dc9190610a79565b610215565b005b6100eb610360565b6040516100fa939291906109c0565b60405180910390f35b61010b6103a1565b005b61012760048036038101906101229190610b23565b6103b4565b60405161013693929190610b82565b60405180910390f35b61015960048036038101906101549190610bb7565b610449565b005b610163610574565b6040516101709190610c16565b60405180910390f35b610193600480360381019061018e9190610c2f565b61059b565b6040516101a09190610cbc565b60405180910390f35b6101c360048036038101906101be9190610cd5565b6106ca565b005b6001602052805f5260405f205f91509050805f015f9054906101000a900462ffffff1690805f0160039054906101000a900462ffffff1690805f0160069054906101000a900462ffffff16905083565b61021d61074e565b6103e88362ffffff161115610267576040517f08c379a000000000000000000000000000000000000000000000000000000000815260040161025e90610d5a565b60405180910390fd5b5f61027286866107d5565b905060405180606001604052808562ffffff1681526020018462ffffff1681526020018362ffffff1681525060015f8381526020019081526020015f205f820151815f015f6101000a81548162ffffff021916908362ffffff1602179055506020820151815f0160036101000a81548162ffffff021916908362ffffff1602179055506040820151815f0160066101000a81548162ffffff021916908362ffffff160217905550905050807f4701059381c8d21f906989b07e7c9a1cb28f8af27d2eaee161bcc50a59cc5190858585604051610350939291906109c0565b60405180910390a2505050505050565b6002805f015f9054906101000a900462ffffff1690805f0160039054906101000a900462ffffff1690805f0160069054906101000a900462ffffff16905083565b6103a961074e565b6103b25f61084c565b565b5f5f5f5f6103c2878761059b565b90505f612710825f015162ffffff16876103dc9190610da5565b6103e69190610e13565b9050612710826020015162ffffff16826104009190610da5565b61040a9190610e13565b9350612710826040015162ffffff16826104249190610da5565b61042e9190610e13565b9250808661043c9190610e43565b9450505093509350939050565b61045161074e565b6103e88362ffffff16111561049b576040517f08c379a000000000000000000000000000000000000000000000000000000000815260040161049290610d5a565b60405180910390fd5b60405180606001604052808462ffffff1681526020018362ffffff1681526020018262ffffff1681525060025f820151815f015f6101000a81548162ffffff021916908362ffffff1602179055506020820151815f0160036101000a81548162ffffff021916908362ffffff1602179055506040820151815f0160066101000a81548162ffffff021916908362ffffff1602179055509050507f4036fc685705c1752004a59ca675ef81212ad555ff2c21ed379d808263856ecf838383604051610567939291906109c0565b60405180910390a1505050565b5f5f5f9054906101000a900473ffffffffffffffffffffffffffffffffffffffff16905090565b6105a3610914565b5f6105ae84846107d5565b90505f60015f8381526020019081526020015f206040518060600160405290815f82015f9054906101000a900462ffffff1662ffffff1662ffffff1681526020015f820160039054906101000a900462ffffff1662ffffff1662ffffff1681526020015f820160069054906101000a900462ffffff1662ffffff1662ffffff168152505090505f815f015162ffffff16036106be5760026040518060600160405290815f82015f9054906101000a900462ffffff1662ffffff1662ffffff1681526020015f820160039054906101000a900462ffffff1662ffffff1662ffffff1681526020015f820160069054906101000a900462ffffff1662ffffff1662ffffff1681525050925050506106c4565b80925050505b92915050565b6106d261074e565b5f73ffffffffffffffffffffffffffffffffffffffff168173ffffffffffffffffffffffffffffffffffffffff1603610742575f6040517f1e4fbdf70000000000000000000000000000000000000000000000000000000081526004016107399190610c16565b60405180910390fd5b61074b8161084c565b50565b61075661090d565b73ffffffffffffffffffffffffffffffffffffffff16610774610574565b73ffffffffffffffffffffffffffffffffffffffff16146107d35761079761090d565b6040517f118cdaa70000000000000000000000000000000000000000000000000000000081526004016107ca9190610c16565b60405180910390fd5b565b5f5f5f8373ffffffffffffffffffffffffffffffffffffffff168573ffffffffffffffffffffffffffffffffffffffff1610610812578385610815565b84845b91509150818160405160200161082c929190610ebb565b604051602081830303815290604052805190602001209250505092915050565b5f5f5f9054906101000a900473ffffffffffffffffffffffffffffffffffffffff169050815f5f6101000a81548173ffffffffffffffffffffffffffffffffffffffff021916908373ffffffffffffffffffffffffffffffffffffffff1602179055508173ffffffffffffffffffffffffffffffffffffffff168173ffffffffffffffffffffffffffffffffffffffff167f8be0079c531659141344cd1fd0a4f28419497f9722a3daafe3b4186f6b6457e060405160405180910390a35050565b5f33905090565b60405180606001604052805f62ffffff1681526020015f62ffffff1681526020015f62ffffff1681525090565b5f5ffd5b5f819050919050565b61095781610945565b8114610961575f5ffd5b50565b5f813590506109728161094e565b92915050565b5f6020828403121561098d5761098c610941565b5b5f61099a84828501610964565b91505092915050565b5f62ffffff82169050919050565b6109ba816109a3565b82525050565b5f6060820190506109d35f8301866109b1565b6109e060208301856109b1565b6109ed60408301846109b1565b949350505050565b5f73ffffffffffffffffffffffffffffffffffffffff82169050919050565b5f610a1e826109f5565b9050919050565b610a2e81610a14565b8114610a38575f5ffd5b50565b5f81359050610a4981610a25565b92915050565b610a58816109a3565b8114610a62575f5ffd5b50565b5f81359050610a7381610a4f565b92915050565b5f5f5f5f5f60a08688031215610a9257610a91610941565b5b5f610a9f88828901610a3b565b9550506020610ab088828901610a3b565b9450506040610ac188828901610a65565b9350506060610ad288828901610a65565b9250506080610ae388828901610a65565b9150509295509295909350565b5f819050919050565b610b0281610af0565b8114610b0c575f5ffd5b50565b5f81359050610b1d81610af9565b92915050565b5f5f5f60608486031215610b3a57610b39610941565b5b5f610b4786828701610a3b565b9350506020610b5886828701610a3b565b9250506040610b6986828701610b0f565b9150509250925092565b610b7c81610af0565b82525050565b5f606082019050610b955f830186610b73565b610ba26020830185610b73565b610baf6040830184610b73565b949350505050565b5f5f5f60608486031215610bce57610bcd610941565b5b5f610bdb86828701610a65565b9350506020610bec86828701610a65565b9250506040610bfd86828701610a65565b9150509250925092565b610c1081610a14565b82525050565b5f602082019050610c295f830184610c07565b92915050565b5f5f60408385031215610c4557610c44610941565b5b5f610c5285828601610a3b565b9250506020610c6385828601610a3b565b9150509250929050565b610c76816109a3565b82525050565b606082015f820151610c905f850182610c6d565b506020820151610ca36020850182610c6d565b506040820151610cb66040850182610c6d565b50505050565b5f606082019050610ccf5f830184610c7c565b92915050565b5f60208284031215610cea57610ce9610941565b5b5f610cf784828501610a3b565b91505092915050565b5f82825260208201905092915050565b7f4665653a20746f6f206c617267650000000000000000000000000000000000005f82015250565b5f610d44600e83610d00565b9150610d4f82610d10565b602082019050919050565b5f6020820190508181035f830152610d7181610d38565b9050919050565b7f4e487b71000000000000000000000000000000000000000000000000000000005f52601160045260245ffd5b5f610daf82610af0565b9150610dba83610af0565b9250828202610dc881610af0565b91508282048414831517610ddf57610dde610d78565b5b5092915050565b7f4e487b71000000000000000000000000000000000000000000000000000000005f52601260045260245ffd5b5f610e1d82610af0565b9150610e2883610af0565b925082610e3857610e37610de6565b5b828204905092915050565b5f610e4d82610af0565b9150610e5883610af0565b9250828203905081811115610e7057610e6f610d78565b5b92915050565b5f8160601b9050919050565b5f610e8c82610e76565b9050919050565b5f610e9d82610e82565b9050919050565b610eb5610eb082610a14565b610e93565b82525050565b5f610ec68285610ea4565b601482019150610ed68284610ea4565b601482019150819050939250505056fea2646970667358221220ef536f30a3287632f6c8d9d001259b9fcb1460228cb3f059766e530cc45a903164736f6c634300081e0033","linkReferences":{}},"methodIdentifiers":{"calculateFees(address,address,uint256)":"73352ad3","defaultFee()":"5a6c72d0","getFeeConfig(address,address)":"b6b622bf","owner()":"8da5cb5b","pairFees(bytes32)":"258c59e1","renounceOwnership()":"715018a6","setDefaultFee(uint24,uint24,uint24)":"89c51db3","setPairFee(address,address,uint24,uint24,uint24)":"2d8d5e94","transferOwnership(address)":"f2fde38b"},"id":1}