{"abi":[{"type":"function","name":"getRouter","inputs":[],"outputs":[{"name":"","type":"address","internalType":"address"}],"stateMutability":"view"},{"type":"function","name":"pancakeV3PoolSwapCallback","inputs":[{"name":"amount0Delta","type":"int256","internalType":"int256"},{"name":"amount1Delta","type":"int256","internalType":"int256"},{"name":"","type":"bytes","internalType":"bytes"}],"outputs":[],"stateMutability":"nonpayable"},{"type":"function","name":"quote","inputs":[{"name":"","type":"address","internalType":"address"},{"name":"","type":"address","internalType":"address"},{"name":"","type":"uint256","internalType":"uint256"}],"outputs":[{"name":"","type":"uint256","internalType":"uint256"}],"stateMutability":"pure"},{"type":"function","name":"swap","inputs":[{"name":"tokenIn","type":"address","internalType":"address"},{"name":"tokenOut","type":"address","internalType":"address"},{"name":"amountIn","type":"uint256","internalType":"uint256"},{"name":"data","type":"bytes","internalType":"bytes"}],"outputs":[{"name":"amountOut","type":"uint256","internalType":"uint256"}],"stateMutability":"nonpayable"},{"type":"error","name":"SafeERC20FailedOperation","inputs":[{"name":"token","type":"address","internalType":"address"}]}],"bytecode":{"object":"0x608060405234801561000f575f80fd5b506110958061001d5f395ff3fe608060405234801561000f575f80fd5b506004361061004a575f3560e01c806343a0a7f21461004e5780634f2984641461007e578063b0f479a11461009a578063b6466384146100b8575b5f80fd5b610068600480360381019061006391906108f0565b6100e8565b604051610075919061097f565b60405180910390f35b61009860048036038101906100939190610a28565b610389565b005b6100a26104cf565b6040516100af9190610aa8565b60405180910390f35b6100d260048036038101906100cd9190610ac1565b6104d6565b6040516100df919061097f565b60405180910390f35b5f80828060200190518101906100fe9190610b49565b905061012d3330868973ffffffffffffffffffffffffffffffffffffffff166104de909392919063ffffffff16565b5f610139878784610533565b90505f73ffffffffffffffffffffffffffffffffffffffff168173ffffffffffffffffffffffffffffffffffffffff16036101a9576040517f08c379a00000000000000000000000000000000000000000000000000000000081526004016101a090610bce565b60405180910390fd5b8673ffffffffffffffffffffffffffffffffffffffff1663095ea7b382876040518363ffffffff1660e01b81526004016101e4929190610bec565b6020604051808303815f875af1158015610200573d5f803e3d5ffd5b505050506040513d601f19601f820116820180604052508101906102249190610c48565b505f8673ffffffffffffffffffffffffffffffffffffffff168873ffffffffffffffffffffffffffffffffffffffff161090505f808373ffffffffffffffffffffffffffffffffffffffff1663128acb0833858b876102975773fffd8963efd1fc6a506488495d7b0dd57075f0006102a5565b6b83126e978d4fdf3b645a1c845b60405180602001604052805f8152506040518663ffffffff1660e01b81526004016102d4959493929190610d1a565b60408051808303815f875af11580156102ef573d5f803e3d5ffd5b505050506040513d601f19601f820116820180604052508101906103139190610d86565b915091508261034d577fffffffffffffffffffffffffffffffffffffffffffffffffffffffffffffffff826103489190610df1565b61037a565b7fffffffffffffffffffffffffffffffffffffffffffffffffffffffffffffffff816103799190610df1565b5b95505050505050949350505050565b5f8413156104295761042833853373ffffffffffffffffffffffffffffffffffffffff16630dfe16816040518163ffffffff1660e01b8152600401602060405180830381865afa1580156103df573d5f803e3d5ffd5b505050506040513d601f19601f820116820180604052508101906104039190610e7b565b73ffffffffffffffffffffffffffffffffffffffff166105f09092919063ffffffff16565b5b5f8313156104c9576104c833843373ffffffffffffffffffffffffffffffffffffffff1663d21220a76040518163ffffffff1660e01b8152600401602060405180830381865afa15801561047f573d5f803e3d5ffd5b505050506040513d601f19601f820116820180604052508101906104a39190610e7b565b73ffffffffffffffffffffffffffffffffffffffff166105f09092919063ffffffff16565b5b50505050565b5f33905090565b5f9392505050565b6104ec848484846001610643565b61052d57836040517f5274afe70000000000000000000000000000000000000000000000000000000081526004016105249190610aa8565b60405180910390fd5b50505050565b5f805f8473ffffffffffffffffffffffffffffffffffffffff168673ffffffffffffffffffffffffffffffffffffffff1610610570578486610573565b85855b915091505f731b81d678ffb9c0263b24a97847620c99d213eb1483836040516020016105a0929190610ea6565b60405160208183030381529060405280519060200120866040516020016105c99392919061100d565b604051602081830303815290604052805190602001205f1c90508093505050509392505050565b6105fd83838360016106b4565b61063e57826040517f5274afe70000000000000000000000000000000000000000000000000000000081526004016106359190610aa8565b60405180910390fd5b505050565b5f806323b872dd60e01b9050604051815f525f1960601c87166004525f1960601c86166024528460445260205f60645f808c5af1925060015f511483166106a1578383151615610695573d5f823e3d81fd5b5f883b113d1516831692505b806040525f606052505095945050505050565b5f8063a9059cbb60e01b9050604051815f525f1960601c86166004528460245260205f60445f808b5af1925060015f511483166107085783831516156106fc573d5f823e3d81fd5b5f873b113d1516831692505b806040525050949350505050565b5f604051905090565b5f80fd5b5f80fd5b5f73ffffffffffffffffffffffffffffffffffffffff82169050919050565b5f61075082610727565b9050919050565b61076081610746565b811461076a575f80fd5b50565b5f8135905061077b81610757565b92915050565b5f819050919050565b61079381610781565b811461079d575f80fd5b50565b5f813590506107ae8161078a565b92915050565b5f80fd5b5f80fd5b5f601f19601f8301169050919050565b7f4e487b71000000000000000000000000000000000000000000000000000000005f52604160045260245ffd5b610802826107bc565b810181811067ffffffffffffffff82111715610821576108206107cc565b5b80604052505050565b5f610833610716565b905061083f82826107f9565b919050565b5f67ffffffffffffffff82111561085e5761085d6107cc565b5b610867826107bc565b9050602081019050919050565b828183375f83830152505050565b5f61089461088f84610844565b61082a565b9050828152602081018484840111156108b0576108af6107b8565b5b6108bb848285610874565b509392505050565b5f82601f8301126108d7576108d66107b4565b5b81356108e7848260208601610882565b91505092915050565b5f805f80608085870312156109085761090761071f565b5b5f6109158782880161076d565b94505060206109268782880161076d565b9350506040610937878288016107a0565b925050606085013567ffffffffffffffff81111561095857610957610723565b5b610964878288016108c3565b91505092959194509250565b61097981610781565b82525050565b5f6020820190506109925f830184610970565b92915050565b5f819050919050565b6109aa81610998565b81146109b4575f80fd5b50565b5f813590506109c5816109a1565b92915050565b5f80fd5b5f80fd5b5f8083601f8401126109e8576109e76107b4565b5b8235905067ffffffffffffffff811115610a0557610a046109cb565b5b602083019150836001820283011115610a2157610a206109cf565b5b9250929050565b5f805f8060608587031215610a4057610a3f61071f565b5b5f610a4d878288016109b7565b9450506020610a5e878288016109b7565b935050604085013567ffffffffffffffff811115610a7f57610a7e610723565b5b610a8b878288016109d3565b925092505092959194509250565b610aa281610746565b82525050565b5f602082019050610abb5f830184610a99565b92915050565b5f805f60608486031215610ad857610ad761071f565b5b5f610ae58682870161076d565b9350506020610af68682870161076d565b9250506040610b07868287016107a0565b9150509250925092565b5f62ffffff82169050919050565b610b2881610b11565b8114610b32575f80fd5b50565b5f81519050610b4381610b1f565b92915050565b5f60208284031215610b5e57610b5d61071f565b5b5f610b6b84828501610b35565b91505092915050565b5f82825260208201905092915050565b7f506f6f6c206e6f7420666f756e640000000000000000000000000000000000005f82015250565b5f610bb8600e83610b74565b9150610bc382610b84565b602082019050919050565b5f6020820190508181035f830152610be581610bac565b9050919050565b5f604082019050610bff5f830185610a99565b610c0c6020830184610970565b9392505050565b5f8115159050919050565b610c2781610c13565b8114610c31575f80fd5b50565b5f81519050610c4281610c1e565b92915050565b5f60208284031215610c5d57610c5c61071f565b5b5f610c6a84828501610c34565b91505092915050565b610c7c81610c13565b82525050565b610c8b81610998565b82525050565b610c9a81610727565b82525050565b5f81519050919050565b5f82825260208201905092915050565b5f5b83811015610cd7578082015181840152602081019050610cbc565b5f8484015250505050565b5f610cec82610ca0565b610cf68185610caa565b9350610d06818560208601610cba565b610d0f816107bc565b840191505092915050565b5f60a082019050610d2d5f830188610a99565b610d3a6020830187610c73565b610d476040830186610c82565b610d546060830185610c91565b8181036080830152610d668184610ce2565b90509695505050505050565b5f81519050610d80816109a1565b92915050565b5f8060408385031215610d9c57610d9b61071f565b5b5f610da985828601610d72565b9250506020610dba85828601610d72565b9150509250929050565b7f4e487b71000000000000000000000000000000000000000000000000000000005f52601160045260245ffd5b5f610dfb82610998565b9150610e0683610998565b9250828202610e1481610998565b91507f800000000000000000000000000000000000000000000000000000000000000084145f84121615610e4b57610e4a610dc4565b5b8282058414831517610e6057610e5f610dc4565b5b5092915050565b5f81519050610e7581610757565b92915050565b5f60208284031215610e9057610e8f61071f565b5b5f610e9d84828501610e67565b91505092915050565b5f604082019050610eb95f830185610a99565b610ec66020830184610a99565b9392505050565b5f81905092915050565b7fff000000000000000000000000000000000000000000000000000000000000005f82015250565b5f610f0b600183610ecd565b9150610f1682610ed7565b600182019050919050565b5f8160601b9050919050565b5f610f3782610f21565b9050919050565b5f610f4882610f2d565b9050919050565b610f60610f5b82610746565b610f3e565b82525050565b5f819050919050565b5f819050919050565b610f89610f8482610f66565b610f6f565b82525050565b5f8160e81b9050919050565b5f610fa582610f8f565b9050919050565b610fbd610fb882610b11565b610f9b565b82525050565b7fd67953100205869c9913a8f015822e1577c38575039e14a277028551f34149955f82015250565b5f610ff7602083610ecd565b915061100282610fc3565b602082019050919050565b5f61101782610eff565b91506110238286610f4f565b6014820191506110338285610f78565b6020820191506110438284610fac565b60038201915061105282610feb565b915081905094935050505056fea26469706673582212209869db3974f18b61c6cd3c81bdf0540faeb9bccda8fab153e65ccf76de3ad0aa64736f6c63430008140033","linkReferences":{}},"methodIdentifiers":{"getRouter()":"b0f479a1","pancakeV3PoolSwapCallback(int256,int256,bytes)":"4f298464","quote(address,address,uint256)":"b6466384","swap(address,address,uint256,bytes)":"43a0a7f2"},"id":65}