{"abi":[{"type":"function","name":"getRouter","inputs":[],"outputs":[{"name":"","type":"address","internalType":"address"}],"stateMutability":"view"},{"type":"function","name":"pancakeV3PoolSwapCallback","inputs":[{"name":"amount0Delta","type":"int256","internalType":"int256"},{"name":"amount1Delta","type":"int256","internalType":"int256"},{"name":"","type":"bytes","internalType":"bytes"}],"outputs":[],"stateMutability":"nonpayable"},{"type":"function","name":"quote","inputs":[{"name":"","type":"address","internalType":"address"},{"name":"","type":"address","internalType":"address"},{"name":"","type":"uint256","internalType":"uint256"}],"outputs":[{"name":"","type":"uint256","internalType":"uint256"}],"stateMutability":"pure"},{"type":"function","name":"swap","inputs":[{"name":"tokenIn","type":"address","internalType":"address"},{"name":"tokenOut","type":"address","internalType":"address"},{"name":"amountIn","type":"uint256","internalType":"uint256"},{"name":"data","type":"bytes","internalType":"bytes"}],"outputs":[{"name":"amountOut","type":"uint256","internalType":"uint256"}],"stateMutability":"nonpayable"},{"type":"error","name":"SafeERC20FailedOperation","inputs":[{"name":"token","type":"address","internalType":"address"}]}],"bytecode":{"object":"0x608060405234601c57600e6020565b61111061002b823961111090f35b6026565b60405190565b5f80fdfe60806040526004361015610013575b61044a565b61001d5f3561005c565b806343a0a7f2146100575780634f29846414610052578063b0f479a11461004d5763b64663840361000e57610414565b6103a5565b61033d565b610240565b60e01c90565b60405190565b5f80fd5b5f80fd5b5f80fd5b60018060a01b031690565b61008890610074565b90565b6100948161007f565b0361009b57565b5f80fd5b905035906100ac8261008b565b565b90565b6100ba816100ae565b036100c157565b5f80fd5b905035906100d2826100b1565b565b5f80fd5b5f80fd5b601f801991011690565b634e487b7160e01b5f52604160045260245ffd5b90610104906100dc565b810190811067ffffffffffffffff82111761011e57604052565b6100e6565b9061013661012f610062565b92836100fa565b565b67ffffffffffffffff8111610156576101526020916100dc565b0190565b6100e6565b90825f939282370152565b9092919261017b61017682610138565b610123565b93818552602085019082840111610197576101959261015b565b565b6100d8565b9080601f830112156101ba578160206101b793359101610166565b90565b6100d4565b90608082820312610219576101d6815f840161009f565b926101e4826020850161009f565b926101f283604083016100c5565b92606082013567ffffffffffffffff811161021457610211920161019c565b90565b610070565b61006c565b610227906100ae565b9052565b919061023e905f6020850194019061021e565b565b346102745761027061025f6102563660046101bf565b92919091610877565b610267610062565b9182918261022b565b0390f35b610068565b90565b61028581610279565b0361028c57565b5f80fd5b9050359061029d8261027c565b565b5f80fd5b5f80fd5b909182601f830112156102e15781359167ffffffffffffffff83116102dc5760200192600183028401116102d757565b6102a3565b61029f565b6100d4565b91606083830312610333576102fd825f8501610290565b9261030b8360208301610290565b92604082013567ffffffffffffffff811161032e5761032a92016102a7565b9091565b610070565b61006c565b5f0190565b3461036f576103596103503660046102e6565b92919091610b15565b610361610062565b8061036b81610338565b0390f35b610068565b5f91031261037e57565b61006c565b61038c9061007f565b9052565b91906103a3905f60208501940190610383565b565b346103d5576103b5366004610374565b6103d16103c0610ca1565b6103c8610062565b91829182610390565b0390f35b610068565b909160608284031261040f5761040c6103f5845f850161009f565b93610403816020860161009f565b936040016100c5565b90565b61006c565b346104455761044161043061042a3660046103da565b91610cca565b610438610062565b9182918261022b565b0390f35b610068565b5f80fd5b5f90565b62ffffff1690565b61046381610452565b0361046a57565b5f80fd5b9050519061047b8261045a565b565b9060208282031261049657610493915f0161046e565b90565b61006c565b5190565b90565b6104b66104b16104bb92610074565b61049f565b610074565b90565b6104c7906104a2565b90565b6104d3906104be565b90565b6104df906104a2565b90565b6104eb906104d6565b90565b6104f7906104d6565b90565b90565b61051161050c610516926104fa565b61049f565b610074565b90565b610522906104fd565b90565b60209181520190565b5f7f506f6f6c206e6f7420666f756e64000000000000000000000000000000000000910152565b610562600e602092610525565b61056b8161052e565b0190565b6105849060208101905f818303910152610555565b90565b1561058e57565b610596610062565b62461bcd60e51b8152806105ac6004820161056f565b0390fd5b6105b9906104d6565b90565b60e01b90565b151590565b6105d0816105c2565b036105d757565b5f80fd5b905051906105e8826105c7565b565b9060208282031261060357610600915f016105db565b90565b61006c565b91602061062992949361062260408201965f830190610383565b019061021e565b565b610633610062565b3d5f823e3d90fd5b61064f61064a610654926100ae565b61049f565b610279565b90565b90565b61066e61066961067392610657565b61049f565b610074565b90565b90565b61068d61068861069292610676565b61049f565b610074565b90565b67ffffffffffffffff81116106b3576106af6020916100dc565b0190565b6100e6565b906106ca6106c583610695565b610123565b918252565b6106d85f6106b8565b90565b6106e36106cf565b90565b905051906106f38261027c565b565b919060408382031261071d578061071161071a925f86016106e6565b936020016106e6565b90565b61006c565b61072b906105c2565b9052565b61073890610279565b9052565b61074590610074565b9052565b60209181520190565b90825f9392825e0152565b61077c61078560209361078a936107738161049b565b93848093610749565b95869101610752565b6100dc565b0190565b91936107c56107dc96946107bb6107cf94976107b160a08801995f890190610383565b6020870190610722565b604085019061072f565b606083019061073c565b608081840391015261075d565b90565b90565b6107f66107f16107fb926107df565b61049f565b610279565b90565b634e487b7160e01b5f52601160045260245ffd5b61082161082791939293610279565b92610279565b91610833838202610279565b92600160ff1b81145f83121661085657818405149015171561085157565b6107fe565b6107fe565b61086f61086a61087492610279565b61049f565b6100ae565b90565b919261089f6108c79161088861044e565b5060206108948261049b565b81830101910161047d565b6108bd6108ab856104ca565b336108b5306104e2565b908892610ce2565b8390839091610ec7565b916108f56108d4846104ee565b6108ee6108e86108e35f610519565b61007f565b9161007f565b1415610587565b610906610901826104ca565b6105b0565b91602063095ea7b393610918866104ee565b906109365f899761094161092a610062565b998a96879586946105bc565b845260048401610608565b03925af1928315610aaf576109666109739361096c92604096610a83575b509261007f565b9161007f565b10926104ee565b63128acb08906109c65f33936109d161098c889961063b565b888414610a61576109a86b83126e978d4fdf3b645a1c84610679565b5b6109b16106db565b916109ba610062565b9b8c998a9889976105bc565b87526004870161078e565b03925af1918215610a5c57610a0e925f80929091610a2b575b5090915f14610a115750610a0890610a025f196107e2565b90610812565b5b61085b565b90565b610a269150610a205f196107e2565b90610812565b610a09565b9050610a4e915060403d8111610a55575b610a4681836100fa565b8101906106f5565b905f6109ea565b503d610a3c565b61062b565b610a7e73fffd8963efd1fc6a506488495d7b0dd57075f00061065a565b6109a9565b610aa39060203d8111610aa8575b610a9b81836100fa565b8101906105ea565b61095f565b503d610a91565b61062b565b610ac8610ac3610acd926104fa565b61049f565b610279565b90565b610ad9906104a2565b90565b610ae590610ad0565b90565b90505190610af58261008b565b565b90602082820312610b1057610b0d915f01610ae8565b90565b61006c565b9150915080610b2c610b265f610ab4565b91610279565b13610bf6575b5080610b46610b405f610ab4565b91610279565b13610b4f575b50565b610b7c906020610b66610b6133610adc565b6104ee565b63d21220a790610b74610062565b9485926105bc565b82528180610b8c60048201610338565b03915afa918215610bf157610bbd92610bac915f91610bc3575b506104ca565b90610bb7339161085b565b91610fac565b5f610b4c565b610be4915060203d8111610bea575b610bdc81836100fa565b810190610af7565b5f610ba6565b503d610bd2565b61062b565b610c23906020610c0d610c0833610adc565b6104ee565b630dfe168190610c1b610062565b9485926105bc565b82528180610c3360048201610338565b03915afa918215610c9857610c6492610c53915f91610c6a575b506104ca565b90610c5e339161085b565b91610fac565b5f610b32565b610c8b915060203d8111610c91575b610c8381836100fa565b810190610af7565b5f610c4d565b503d610c79565b61062b565b5f90565b610ca9610c9d565b503390565b610cc2610cbd610cc7926104fa565b61049f565b6100ae565b90565b505050610cd561044e565b50610cdf5f610cae565b90565b9290610cff92610cf9928592919091600193610ff7565b156105c2565b610d065750565b610d12610d29916105b0565b5f918291635274afe760e01b835260048301610390565b0390fd5b5f90565b916020610d52929493610d4b60408201965f830190610383565b0190610383565b565b60200190565b905090565b5f60ff60f81b910152565b610d7660018092610d5a565b610d7f81610d5f565b0190565b60601b90565b610d9290610d83565b90565b610d9e90610d89565b90565b610dad610db29161007f565b610d95565b9052565b90565b90565b610dc8610dcd91610db6565b610db9565b9052565b60e81b90565b610de090610dd1565b90565b610def610df491610452565b610dd7565b9052565b5f7fd67953100205869c9913a8f015822e1577c38575039e14a277028551f3414995910152565b610e2b60208092610d5a565b610e3481610df8565b0190565b6020600393610e656014610e739795610e5d610e56610e6d97610d6a565b8092610da1565b018092610dbc565b018092610de3565b01610e1f565b90565b5f1c90565b610e8f610e8a610e94926100ae565b61049f565b6100ae565b90565b610ea3610ea891610e76565b610e7b565b90565b610ebf610eba610ec4926100ae565b61049f565b610074565b90565b610f90610f9f93610f78610f9a94610f9594610ee1610d2d565b5080610ef5610eef8461007f565b9161007f565b105f14610fa257610f69905b91610f41731b81d678ffb9c0263b24a97847620c99d213eb1493610f32610f26610062565b93849260208401610d31565b602082018103825203826100fa565b610f53610f4d8261049b565b91610d54565b2093610f5d610062565b94859360208501610e38565b602082018103825203826100fa565b610f8a610f848261049b565b91610d54565b20610e97565b610eab565b6104d6565b610adc565b90565b90610f6990610f01565b91610fc591610fbf918491600192611070565b156105c2565b610fcc5750565b610fd8610fef916105b0565b5f918291635274afe760e01b835260048301610390565b0390fd5b5f90565b91949394929092611006610ff3565b506323b872dd60e01b93604051945f525f1960601c166004525f1960601c1660245260445260205f60648180855af19360015f511485161561104e575b50506040525f606052565b8492941516611067575f903b113d151616915f80611043565b833d5f823e3d90fd5b909193929361107d610ff3565b5063a9059cbb60e01b92604051935f525f1960601c1660045260245260205f60448180855af19360015f51148516156110b8575b5050604052565b84929415166110d1575f903b113d151616915f806110b1565b833d5f823e3d90fdfea26469706673582212204f0c6f08e925de4e32902f1127205fd9a13965e69badae34e5b2e73a0da8e84064736f6c634300081e0033","linkReferences":{}},"methodIdentifiers":{"getRouter()":"b0f479a1","pancakeV3PoolSwapCallback(int256,int256,bytes)":"4f298464","quote(address,address,uint256)":"b6466384","swap(address,address,uint256,bytes)":"43a0a7f2"},"id":86}