{"abi":[{"type":"constructor","inputs":[{"name":"_vault","type":"address","internalType":"address payable"},{"name":"_feeController","type":"address","internalType":"address"},{"name":"_name","type":"string","internalType":"string"},{"name":"_version","type":"string","internalType":"string"}],"stateMutability":"nonpayable"},{"type":"function","name":"CANCEL_TYPEHASH","inputs":[],"outputs":[{"name":"","type":"bytes32","internalType":"bytes32"}],"stateMutability":"view"},{"type":"function","name":"MATCHED_TRADE_TYPEHASH","inputs":[],"outputs":[{"name":"","type":"bytes32","internalType":"bytes32"}],"stateMutability":"view"},{"type":"function","name":"SWAP_INTENT_TYPEHASH","inputs":[],"outputs":[{"name":"","type":"bytes32","internalType":"bytes32"}],"stateMutability":"view"},{"type":"function","name":"adapterAddressToId","inputs":[{"name":"","type":"address","internalType":"address"}],"outputs":[{"name":"","type":"bytes32","internalType":"bytes32"}],"stateMutability":"view"},{"type":"function","name":"adapterIdToIndex","inputs":[{"name":"","type":"bytes32","internalType":"bytes32"}],"outputs":[{"name":"","type":"uint256","internalType":"uint256"}],"stateMutability":"view"},{"type":"function","name":"adapters","inputs":[{"name":"","type":"bytes32","internalType":"bytes32"}],"outputs":[{"name":"","type":"address","internalType":"contract IAdapter"}],"stateMutability":"view"},{"type":"function","name":"addAdapter","inputs":[{"name":"id","type":"bytes32","internalType":"bytes32"},{"name":"adapter","type":"address","internalType":"address"}],"outputs":[],"stateMutability":"nonpayable"},{"type":"function","name":"allAdapters","inputs":[{"name":"","type":"uint256","internalType":"uint256"}],"outputs":[{"name":"","type":"bytes32","internalType":"bytes32"}],"stateMutability":"view"},{"type":"function","name":"eip712Domain","inputs":[],"outputs":[{"name":"fields","type":"bytes1","internalType":"bytes1"},{"name":"name","type":"string","internalType":"string"},{"name":"version","type":"string","internalType":"string"},{"name":"chainId","type":"uint256","internalType":"uint256"},{"name":"verifyingContract","type":"address","internalType":"address"},{"name":"salt","type":"bytes32","internalType":"bytes32"},{"name":"extensions","type":"uint256[]","internalType":"uint256[]"}],"stateMutability":"view"},{"type":"function","name":"executeSwap","inputs":[{"name":"intent","type":"tuple","internalType":"struct ISpotRouter.SwapIntent","components":[{"name":"user","type":"address","internalType":"address"},{"name":"tokenIn","type":"address","internalType":"address"},{"name":"tokenOut","type":"address","internalType":"address"},{"name":"amountIn","type":"uint256","internalType":"uint256"},{"name":"minAmountOut","type":"uint256","internalType":"uint256"},{"name":"deadline","type":"uint256","internalType":"uint256"},{"name":"nonce","type":"uint256","internalType":"uint256"},{"name":"adapter","type":"address","internalType":"address"},{"name":"relayerFee","type":"uint256","internalType":"uint256"}]},{"name":"signature","type":"bytes","internalType":"bytes"}],"outputs":[{"name":"amountOut","type":"uint256","internalType":"uint256"}],"stateMutability":"nonpayable"},{"type":"function","name":"feeController","inputs":[],"outputs":[{"name":"","type":"address","internalType":"contract IFeeController"}],"stateMutability":"view"},{"type":"function","name":"nonces","inputs":[{"name":"","type":"address","internalType":"address"}],"outputs":[{"name":"","type":"uint256","internalType":"uint256"}],"stateMutability":"view"},{"type":"function","name":"owner","inputs":[],"outputs":[{"name":"","type":"address","internalType":"address"}],"stateMutability":"view"},{"type":"function","name":"removeAdapter","inputs":[{"name":"id","type":"bytes32","internalType":"bytes32"}],"outputs":[],"stateMutability":"nonpayable"},{"type":"function","name":"renounceOwnership","inputs":[],"outputs":[],"stateMutability":"nonpayable"},{"type":"function","name":"settleTrade","inputs":[{"name":"trade","type":"tuple","internalType":"struct IntentSpotRouter.MatchedTrade","components":[{"name":"user","type":"address","internalType":"address"},{"name":"counterparty","type":"address","internalType":"address"},{"name":"tokenIn","type":"address","internalType":"address"},{"name":"tokenOut","type":"address","internalType":"address"},{"name":"amountIn","type":"uint256","internalType":"uint256"},{"name":"amountOut","type":"uint256","internalType":"uint256"},{"name":"nonce","type":"uint256","internalType":"uint256"},{"name":"deadline","type":"uint256","internalType":"uint256"},{"name":"relayerFee","type":"uint256","internalType":"uint256"}]},{"name":"signature","type":"bytes","internalType":"bytes"}],"outputs":[],"stateMutability":"nonpayable"},{"type":"function","name":"swap","inputs":[{"name":"tokenIn","type":"address","internalType":"address"},{"name":"tokenOut","type":"address","internalType":"address"},{"name":"amountIn","type":"uint256","internalType":"uint256"},{"name":"adapterIds","type":"bytes32[]","internalType":"bytes32[]"},{"name":"data","type":"bytes","internalType":"bytes"}],"outputs":[{"name":"amountOut","type":"uint256","internalType":"uint256"}],"stateMutability":"nonpayable"},{"type":"function","name":"transferOwnership","inputs":[{"name":"newOwner","type":"address","internalType":"address"}],"outputs":[],"stateMutability":"nonpayable"},{"type":"function","name":"vault","inputs":[],"outputs":[{"name":"","type":"address","internalType":"contract VaultSpot"}],"stateMutability":"view"},{"type":"function","name":"whitelistedAdapters","inputs":[{"name":"","type":"bytes32","internalType":"bytes32"}],"outputs":[{"name":"","type":"bool","internalType":"bool"}],"stateMutability":"view"},{"type":"event","name":"AdapterAdded","inputs":[{"name":"id","type":"bytes32","indexed":true,"internalType":"bytes32"},{"name":"adapter","type":"address","indexed":true,"internalType":"address"}],"anonymous":false},{"type":"event","name":"AdapterRemoved","inputs":[{"name":"id","type":"bytes32","indexed":true,"internalType":"bytes32"}],"anonymous":false},{"type":"event","name":"EIP712DomainChanged","inputs":[],"anonymous":false},{"type":"event","name":"IntentFailed","inputs":[{"name":"intentHash","type":"bytes32","indexed":true,"internalType":"bytes32"},{"name":"user","type":"address","indexed":true,"internalType":"address"},{"name":"reason","type":"string","indexed":false,"internalType":"string"}],"anonymous":false},{"type":"event","name":"IntentFilled","inputs":[{"name":"intentHash","type":"bytes32","indexed":true,"internalType":"bytes32"},{"name":"user","type":"address","indexed":true,"internalType":"address"},{"name":"nonce","type":"uint256","indexed":false,"internalType":"uint256"}],"anonymous":false},{"type":"event","name":"OwnershipTransferred","inputs":[{"name":"previousOwner","type":"address","indexed":true,"internalType":"address"},{"name":"newOwner","type":"address","indexed":true,"internalType":"address"}],"anonymous":false},{"type":"event","name":"Swap","inputs":[{"name":"user","type":"address","indexed":true,"internalType":"address"},{"name":"tokenIn","type":"address","indexed":true,"internalType":"address"},{"name":"tokenOut","type":"address","indexed":true,"internalType":"address"},{"name":"amountIn","type":"uint256","indexed":false,"internalType":"uint256"},{"name":"amountOut","type":"uint256","indexed":false,"internalType":"uint256"},{"name":"protocolFee","type":"uint256","indexed":false,"internalType":"uint256"},{"name":"relayerFee","type":"uint256","indexed":false,"internalType":"uint256"}],"anonymous":false},{"type":"event","name":"SwapFailed","inputs":[{"name":"tokenIn","type":"address","indexed":false,"internalType":"address"},{"name":"tokenOut","type":"address","indexed":false,"internalType":"address"},{"name":"amountIn","type":"uint256","indexed":false,"internalType":"uint256"},{"name":"adapterIds","type":"bytes32[]","indexed":false,"internalType":"bytes32[]"},{"name":"reason","type":"string","indexed":false,"internalType":"string"}],"anonymous":false},{"type":"error","name":"ECDSAInvalidSignature","inputs":[]},{"type":"error","name":"ECDSAInvalidSignatureLength","inputs":[{"name":"length","type":"uint256","internalType":"uint256"}]},{"type":"error","name":"ECDSAInvalidSignatureS","inputs":[{"name":"s","type":"bytes32","internalType":"bytes32"}]},{"type":"error","name":"InvalidShortString","inputs":[]},{"type":"error","name":"OwnableInvalidOwner","inputs":[{"name":"owner","type":"address","internalType":"address"}]},{"type":"error","name":"OwnableUnauthorizedAccount","inputs":[{"name":"account","type":"address","internalType":"address"}]},{"type":"error","name":"ReentrancyGuardReentrantCall","inputs":[]},{"type":"error","name":"SafeERC20FailedOperation","inputs":[{"name":"token","type":"address","internalType":"address"}]},{"type":"error","name":"StringTooLong","inputs":[{"name":"str","type":"string","internalType":"string"}]}],"bytecode":{"object":"0x6101a0604052346101085761001e6100156102e2565b92919091610355565b61002661010d565b61531c610c74823960805181614b0c015260a05181614b43015260c05181614ad3015260e05181614fe10152610100518161500601526101205181613e6301526101405181613ea3015261016051818181610d4d015281816124c40152818161270301528181612d2201528181612dee01528181612e1e0152818161347f01528181613757015281816137ea0152818161387e0152818161390801528181613ac701528181613b8001528181614146015281816141d1015261420a0152610180518181816103c9015281816123f301528181612c910152613660015261531c90f35b610113565b60405190565b5f80fd5b601f801991011690565b634e487b7160e01b5f52604160045260245ffd5b9061013f90610117565b810190811060018060401b0382111761015757604052565b610121565b9061016f61016861010d565b9283610135565b565b5f80fd5b5f80fd5b60018060a01b031690565b61018d90610179565b90565b61019981610184565b036101a057565b5f80fd5b905051906101b182610190565b565b6101bc90610179565b90565b6101c8816101b3565b036101cf57565b5f80fd5b905051906101e0826101bf565b565b5f80fd5b5f80fd5b60018060401b03811161020657610202602091610117565b0190565b610121565b90825f9392825e0152565b9092919261022b610226826101ea565b61015c565b93818552602085019082840111610247576102459261020b565b565b6101e6565b9080601f8301121561026a5781602061026793519101610216565b90565b6101e2565b906080828203126102dd57610286815f84016101a4565b9261029482602085016101d3565b92604081015160018060401b0381116102d857836102b391830161024c565b92606082015160018060401b0381116102d3576102d0920161024c565b90565b610175565b610175565b610171565b610300615f90803803806102f58161015c565b92833981019061026f565b90919293565b90565b61031d61031861032292610179565b610306565b610179565b90565b61032e90610309565b90565b61033a90610325565b90565b61034690610309565b90565b6103529061033d565b90565b6103696103779461036e939490339161037d565b610331565b61016052610349565b61018052565b9061038892916103b2565b565b90565b90565b60200190565b5190565b6103a390610309565b90565b6103af9061039a565b90565b6103f7906103c261041294610446565b6103d6816103d0600161038a565b9061084d565b610120526103ee836103e8600261038a565b9061084d565b6101405261038d565b61040961040382610396565b91610390565b2060e05261038d565b61042461041e82610396565b91610390565b20610100524660a052610435610952565b608052610441306103a6565b60c052565b61044f90610451565b565b61045a906104e5565b565b90565b90565b61047661047161047b9261045c565b610306565b61045f565b90565b6104886001610462565b90565b5f1b90565b9061049c5f199161048b565b9181191691161790565b6104ba6104b56104bf9261045f565b610306565b61045f565b90565b90565b906104da6104d56104e1926104a6565b6104c2565b8254610490565b9055565b6104ee9061055f565b6105106104f961047e565b5f61050a610505610a0e565b610a22565b016104c5565b565b90565b61052961052461052e92610512565b610306565b610179565b90565b61053a90610515565b90565b610546906101b3565b9052565b919061055d905f6020850194019061053d565b565b8061057a61057461056f5f610531565b6101b3565b916101b3565b1461058a5761058890610aa5565b565b6105ad6105965f610531565b5f918291631e4fbdf760e01b83526004830161054a565b0390fd5b5f90565b90565b6105cc6105c76105d1926105b5565b610306565b61045f565b90565b5190565b634e487b7160e01b5f52602260045260245ffd5b906001600283049216801561060c575b602083101461060757565b6105d8565b91607f16916105fc565b5f5260205f2090565b601f602091010490565b1b90565b919060086106489102916106425f1984610629565b92610629565b9181191691161790565b9190610668610663610670936104a6565b6104c2565b90835461062d565b9055565b5f90565b61068a91610684610674565b91610652565b565b5f5b82811061069a57505050565b806106a95f6001938501610678565b0161068e565b9190601f81116106bf575b505050565b8181116106cc575b6106ba565b6106e16106db6106ff94610616565b9161061f565b9160206106ed8261061f565b9110610707575b80910191039061068c565b5f80806106c7565b505f6106f4565b1c90565b90610722905f199060080261070e565b191690565b8161073191610712565b906002021790565b90610743816105d4565b9060018060401b038211610801576107658261075f85546105ec565b856106af565b602090601f831160011461079957918091610788935f9261078d575b5050610727565b90555b565b90915001515f80610781565b601f198316916107a885610616565b925f5b8181106107e9575091600293918560019694106107cf575b5050500201905561078b565b6107df910151601f841690610712565b90555f80806107c3565b919360206001819287870151815501950192016107ab565b610121565b9061081091610739565b565b90565b90565b61082c61082761083192610812565b61048b565b610815565b90565b61083e60ff610818565b90565b61084a90610815565b90565b906108566105b1565b506108686108638361038d565b610396565b61087b61087560206105b8565b9161045f565b105f1461088f575061088c90610be9565b90565b5f61089d6108a39392610b04565b01610806565b6108b36108ae610834565b610841565b90565b5f90565b7f8b73c3c69bb8fe3d512ecc4cf759cc79239f7b179b0ffacaa9a75d522b39400f90565b6108e89051610815565b90565b6108f490610815565b9052565b6109019061045f565b9052565b909594926109509461093f6109499261093560809661092b60a088019c5f8901906108eb565b60208701906108eb565b60408501906108eb565b60608301906108f8565b019061053d565b565b61095a6108b6565b506109636108ba565b6109ad61097060e06108de565b9161099e61097f6101006108de565b46610989306103a6565b9161099261010d565b96879560208701610905565b60208201810382520382610135565b6109bf6109b982610396565b91610390565b2090565b90565b6109da6109d56109df926109c3565b61048b565b610815565b90565b610a0b7f9b779b17422d0df92223018b32b4d1fa46e071723d6817e2486d003becc55f006109c6565b90565b610a166108b6565b50610a1f6109e2565b90565b90565b5f1c90565b60018060a01b031690565b610a41610a4691610a25565b610a2a565b90565b610a539054610a35565b90565b90610a6760018060a01b039161048b565b9181191691161790565b610a7a9061039a565b90565b90565b90610a95610a90610a9c92610a71565b610a7d565b8254610a56565b9055565b5f0190565b610aae5f610a49565b610ab8825f610a80565b90610aec610ae67f8be0079c531659141344cd1fd0a4f28419497f9722a3daafe3b4186f6b6457e093610a71565b91610a71565b91610af561010d565b80610aff81610aa0565b0390a3565b90565b90565b610b1e610b19610b2392610b07565b610306565b61045f565b90565b60209181520190565b610b4e610b57602093610b5c93610b45816105d4565b93848093610b26565b9586910161020b565b610117565b0190565b610b759160208201915f818403910152610b2f565b90565b610b92610b8d610b8783610396565b92610390565b6108de565b9060208110610ba0575b5090565b610bb2905f1990602003600802610629565b165f610b9c565b610bc5610bca91610a25565b6104a6565b90565b610be1610bdc610be69261045f565b61048b565b610815565b90565b610bf16105b1565b50610bfb8161038d565b90610c0582610396565b610c18610c12601f610b0a565b9161045f565b11610c4d5750610c4581610c3f610c39610c34610c4a95610b78565b610bb9565b91610396565b17610bcd565b610841565b90565b610c6f90610c5961010d565b91829163305a27a960e01b835260048301610b60565b0390fdfe60806040526004361015610013575b610e6e565b61001d5f3561015c565b806311962e85146101575780632c4e9939146101525780636999b3771461014d578063715018a61461014857806372c6838f1461014357806373fca6ea1461013e5780637ecebe001461013957806384b0196e146101345780638da5cb5b1461012f578063a9212b5b1461012a578063b082557814610125578063b59b117614610120578063baf8bc241461011b578063d8809bba14610116578063d9097dd214610111578063dd5dc8421461010c578063e8331ecb14610107578063f2fde38b14610102578063fbfa77cf146100fd5763fdc5a4990361000e57610e3a565b610da9565b610d18565b610ce3565b610c7f565b610c14565b610b17565b610ab2565b6109d4565b61099f565b61093c565b6108da565b610889565b6106e2565b6105da565b61054a565b610489565b61044f565b610383565b61027f565b60e01c90565b60405190565b5f80fd5b5f80fd5b5f80fd5b90565b61018081610174565b0361018757565b5f80fd5b9050359061019882610177565b565b906020828203126101b3576101b0915f0161018b565b90565b61016c565b634e487b7160e01b5f52603260045260245ffd5b5490565b5f5260205f2090565b6101e2816101cc565b8210156101fc576101f46001916101d0565b910201905f90565b6101b8565b1c90565b90565b61021890600861021d9302610201565b610205565b90565b9061022b9154610208565b90565b6007610239816101cc565b821015610256576102539161024d916101d9565b90610220565b90565b5f80fd5b90565b6102669061025a565b9052565b919061027d905f6020850194019061025d565b565b346102af576102ab61029a61029536600461019a565b61022e565b6102a2610162565b9182918261026a565b0390f35b610168565b6102bd8161025a565b036102c457565b5f80fd5b905035906102d5826102b4565b565b906020828203126102f0576102ed915f016102c8565b90565b61016c565b6102fe9061025a565b90565b9061030b906102f5565b5f5260205260405f2090565b60ff1690565b61032d9060086103329302610201565b610317565b90565b90610340915461031d565b90565b610359906103546005915f92610301565b610335565b90565b151590565b61036a9061035c565b9052565b9190610381905f60208501940190610361565b565b346103b3576103af61039e6103993660046102d7565b610343565b6103a6610162565b9182918261036e565b0390f35b610168565b5f9103126103c257565b61016c565b7f000000000000000000000000000000000000000000000000000000000000000090565b60018060a01b031690565b90565b61040d610408610412926103eb565b6103f6565b6103eb565b90565b61041e906103f9565b90565b61042a90610415565b90565b61043690610421565b9052565b919061044d905f6020850194019061042d565b565b3461047f5761045f3660046103b8565b61047b61046a6103c7565b610472610162565b9182918261043a565b0390f35b610168565b5f0190565b346104b7576104993660046103b8565b6104a1610ec2565b6104a9610162565b806104b381610484565b0390f35b610168565b906104c6906102f5565b5f5260205260405f2090565b60018060a01b031690565b6104ed9060086104f29302610201565b6104d2565b90565b9061050091546104dd565b90565b610519906105146004915f926104bc565b6104f5565b90565b61052590610415565b90565b6105319061051c565b9052565b9190610548905f60208501940190610528565b565b3461057a576105766105656105603660046102d7565b610503565b61056d610162565b91829182610535565b0390f35b610168565b90565b5f1b90565b61059b6105966105a09261057f565b610582565b61025a565b90565b6105cc7f546c14101d23693e4f35838d1729863830a3ec576353388a755b40d43dfa2842610587565b90565b6105d76105a3565b90565b3461060a576105ea3660046103b8565b6106066105f56105cf565b6105fd610162565b9182918261026a565b0390f35b610168565b610618906103eb565b90565b6106248161060f565b0361062b57565b5f80fd5b9050359061063c8261061b565b565b9060208282031261065757610654915f0161062f565b90565b61016c565b61066590610415565b90565b906106729061065c565b5f5260205260405f2090565b90565b6106919060086106969302610201565b61067e565b90565b906106a49154610681565b90565b6106bd906106b86003915f92610668565b610699565b90565b6106c990610174565b9052565b91906106e0905f602085019401906106c0565b565b346107125761070e6106fd6106f836600461063e565b6106a7565b610705610162565b918291826106cd565b0390f35b610168565b60ff60f81b1690565b61072990610717565b9052565b5190565b60209181520190565b90825f9392825e0152565b601f801991011690565b61076e61077760209361077c936107658161072d565b93848093610731565b9586910161073a565b610745565b0190565b6107899061060f565b9052565b5190565b60209181520190565b60200190565b6107a990610174565b9052565b906107ba816020936107a0565b0190565b60200190565b906107e16107db6107d48461078d565b8093610791565b9261079a565b905f5b8181106107f15750505090565b90919261080a61080460019286516107ad565b946107be565b91019190916107e4565b9395919461086561085a6108799561084c61086f956108869c9a61083f60e08c01925f8d0190610720565b8a820360208c015261074f565b9088820360408a015261074f565b9760608701906106c0565b6080850190610780565b60a083019061025d565b60c08184039101526107c4565b90565b346108c0576108993660046103b8565b6108bc6108a4610fe4565b936108b3979597939193610162565b97889788610814565b0390f35b610168565b91906108d8905f60208501940190610780565b565b3461090a576108ea3660046103b8565b6109066108f561109f565b6108fd610162565b918291826108c5565b0390f35b610168565b9190604083820312610937578061092b610934925f86016102c8565b9360200161062f565b90565b61016c565b3461096b5761095561094f36600461090f565b90611550565b61095d610162565b8061096781610484565b0390f35b610168565b7fe598a4ac7dee0fa05d1947b6131b11a79681e19f385eb08037a4859d57b01a9f90565b61099c610970565b90565b346109cf576109af3660046103b8565b6109cb6109ba610994565b6109c2610162565b9182918261026a565b0390f35b610168565b34610a02576109ec6109e73660046102d7565b61192b565b6109f4610162565b806109fe81610484565b0390f35b610168565b5f80fd5b9081610120910312610a1a5790565b610a07565b5f80fd5b5f80fd5b5f80fd5b909182601f83011215610a655781359167ffffffffffffffff8311610a60576020019260018302840111610a5b57565b610a27565b610a23565b610a1f565b91909161014081840312610aad57610a84835f8301610a0b565b9261012082013567ffffffffffffffff8111610aa857610aa49201610a2b565b9091565b610170565b61016c565b34610ae357610adf610ace610ac8366004610a6a565b91612aaa565b610ad6610162565b918291826106cd565b0390f35b610168565b90610af2906102f5565b5f5260205260405f2090565b610b1490610b0f6008915f92610ae8565b610699565b90565b34610b4757610b43610b32610b2d3660046102d7565b610afe565b610b3a610162565b918291826106cd565b0390f35b610168565b909182601f83011215610b865781359167ffffffffffffffff8311610b81576020019260208302840111610b7c57565b610a27565b610a23565b610a1f565b909160a082840312610c0f57610ba3835f840161062f565b92610bb1816020850161062f565b92610bbf826040830161018b565b92606082013567ffffffffffffffff8111610c0a5783610be0918401610b4c565b929093608082013567ffffffffffffffff8111610c0557610c019201610a2b565b9091565b610170565b610170565b61016c565b34610c4b57610c47610c36610c2a366004610b8b565b95949094939193612faa565b610c3e610162565b918291826106cd565b0390f35b610168565b90610c5a9061065c565b5f5260205260405f2090565b610c7c90610c776006915f92610c50565b610220565b90565b34610caf57610cab610c9a610c9536600461063e565b610c66565b610ca2610162565b9182918261026a565b0390f35b610168565b7f0ca92c9795270745ee16743dfa5dd7a8751a60157ac21e1e57f27677c36261fc90565b610ce0610cb4565b90565b34610d1357610cf33660046103b8565b610d0f610cfe610cd8565b610d06610162565b9182918261026a565b0390f35b610168565b34610d4657610d30610d2b36600461063e565b613029565b610d38610162565b80610d4281610484565b0390f35b610168565b7f000000000000000000000000000000000000000000000000000000000000000090565b610d78906103f9565b90565b610d8490610d6f565b90565b610d9090610d7b565b9052565b9190610da7905f60208501940190610d87565b565b34610dd957610db93660046103b8565b610dd5610dc4610d4b565b610dcc610162565b91829182610d94565b0390f35b610168565b9081610120910312610ded5790565b610a07565b91909161014081840312610e3557610e0c835f8301610dde565b9261012082013567ffffffffffffffff8111610e3057610e2c9201610a2b565b9091565b610170565b61016c565b34610e6957610e53610e4d366004610df2565b91613d75565b610e5b610162565b80610e6581610484565b0390f35b610168565b5f80fd5b610e7a613d82565b610e82610eaf565b565b90565b610e9b610e96610ea092610e84565b6103f6565b6103eb565b90565b610eac90610e87565b90565b610ec0610ebb5f610ea3565b613df3565b565b610eca610e72565b565b5f90565b606090565b5f90565b5f90565b5f90565b606090565b610eef90610415565b90565b610f06610f01610f0b92610e84565b610582565b61025a565b90565b610f22610f1d610f2792610e84565b6103f6565b610174565b90565b634e487b7160e01b5f52604160045260245ffd5b90610f4890610745565b810190811067ffffffffffffffff821117610f6257604052565b610f2a565b90610f7a610f73610162565b9283610f3e565b565b67ffffffffffffffff8111610f945760208091020190565b610f2a565b90610fab610fa683610f7c565b610f67565b918252565b369037565b90610fda610fc283610f99565b92602080610fd08693610f7c565b9201910390610fb0565b565b600f60f81b90565b610fec610ecc565b50610ff5610ed0565b50610ffe610ed0565b50611007610ed5565b50611010610ed9565b50611019610edd565b50611022610ee1565b5061102b613e55565b90611034613e95565b90469061104030610ee6565b9061104a5f610ef2565b9061105c6110575f610f0e565b610fb5565b90611065610fdc565b96959493929190565b5f1c90565b60018060a01b031690565b61108a61108f9161106e565b611073565b90565b61109c905461107e565b90565b6110a7610ed9565b506110b15f611092565b90565b906110c6916110c1613d82565b611414565b565b6110d46110d99161106e565b6104d2565b90565b6110e690546110c8565b90565b5f7f4164617074657220616c72656164792065786973747300000000000000000000910152565b61111d6016602092610731565b611126816110e9565b0190565b61113f9060208101905f818303910152611110565b90565b1561114957565b611151610162565b62461bcd60e51b8152806111676004820161112a565b0390fd5b61117761117c9161106e565b610205565b90565b611189905461116b565b90565b60207f6564000000000000000000000000000000000000000000000000000000000000917f41646170746572206164647265737320616c72656164792072656769737465725f8201520152565b6111e66022604092610731565b6111ef8161118c565b0190565b6112089060208101905f8183039101526111d9565b90565b1561121257565b61121a610162565b62461bcd60e51b815280611230600482016111f3565b0390fd5b61123d906103f9565b90565b61124990611234565b90565b9061125d60018060a01b0391610582565b9181191691161790565b61127090611234565b90565b90565b9061128b61128661129292611267565b611273565b825461124c565b9055565b906112a25f1991610582565b9181191691161790565b6112b59061106e565b90565b906112cd6112c86112d4926102f5565b6112ac565b8254611296565b9055565b906112e460ff91610582565b9181191691161790565b6112f79061035c565b90565b90565b9061131261130d611319926112ee565b6112fa565b82546112d8565b9055565b61133161132c61133692610174565b6103f6565b610174565b90565b90565b9061135161134c6113589261131d565b611339565b8254611296565b9055565b90565b5f5260205f2090565b5490565b61137581611368565b82101561138f5761138760019161135f565b910201905f90565b6101b8565b1b90565b919060086113b39102916113ad5f1984611394565b92611394565b9181191691161790565b91906113d36113ce6113db936102f5565b6112ac565b908354611398565b9055565b908154916801000000000000000083101561140f578261140791600161140d9501815561136c565b906113bd565b565b610f2a565b61145361143361142e611429600485906104bc565b6110dc565b61051c565b61144d6114476114425f610ea3565b61060f565b9161060f565b14611142565b61148a61146a61146560068590610c50565b61117f565b61148461147e6114795f610ef2565b61025a565b9161025a565b1461120b565b6114a761149683611240565b6114a2600484906104bc565b611276565b6114bc816114b760068590610c50565b6112b8565b6114d260016114cd60058490610301565b6112fd565b6114f06114df60076101cc565b6114eb60088490610ae8565b61133c565b6115046114fd600761135c565b82906113df565b906115386115327fffb25df5d2d30d127965307d95064a9c230c5bb55a674df324bf55bf2aa7ef8d936102f5565b9161065c565b91611541610162565b8061154b81610484565b0390a3565b9061155a916110b4565b565b61156d90611568613d82565b6117ba565b565b5f7f4164617074657220646f6573206e6f7420657869737400000000000000000000910152565b6115a36016602092610731565b6115ac8161156f565b0190565b6115c59060208101905f818303910152611596565b90565b156115cf57565b6115d7610162565b62461bcd60e51b8152806115ed600482016115b0565b0390fd5b6115fd6116029161106e565b61067e565b90565b61160f90546115f1565b90565b90565b61162961162461162e92611612565b6103f6565b610174565b90565b634e487b7160e01b5f52601160045260245ffd5b61165461165a91939293610174565b92610174565b820391821161166557565b611631565b634e487b7160e01b5f52603160045260245ffd5b6116909161168a610edd565b916113bd565b565b61169b81611368565b80156116bc5760019003906116b96116b3838361136c565b9061167e565b55565b61166a565b91906116d76116d26116df9361131d565b611339565b908354611398565b9055565b6116f5916116ef610ed5565b916116c1565b565b9190600861171791029161171160018060a01b0384611394565b92611394565b9181191691161790565b919061173761173261173f93611267565b611273565b9083546116f7565b9055565b5f90565b61175991611753611743565b91611721565b565b9190600861177691029161177060ff84611394565b92611394565b9181191691161790565b919061179661179161179e936112ee565b6112fa565b90835461175b565b9055565b5f90565b6117b8916117b26117a2565b91611780565b565b6117fa6117d96117d46117cf600485906104bc565b6110dc565b61051c565b6117f36117ed6117e85f610ea3565b61060f565b9161060f565b14156115c8565b6118bf5f6118ba61181d611818611813600487906104bc565b6110dc565b61051c565b61188c61183461182f60088890610ae8565b611605565b611887611868611862600761185c61184c60076101cc565b6118566001611615565b90611645565b906101d9565b90610220565b9161187f83611879600784906101d9565b906113bd565b916008610ae8565b61133c565b61189e611899600761135c565b611692565b6118b3836118ae60088890610ae8565b6116e3565b6006610c50565b61167e565b6118d45f6118cf600484906104bc565b611747565b6118e95f6118e460058490610301565b6117a6565b6119137f93ecc5e9aa51bb2adb2cf429a5108116cf98c4f717f0912d1be98e137ba6ef60916102f5565b9061191c610162565b8061192681610484565b0390a2565b6119349061155c565b565b9061194a939291611945613f01565b612269565b90611953613f3a565b565b5061196490602081019061062f565b90565b6119709061060f565b9052565b5061198390602081019061018b565b90565b90610100611a68611a70936119a96119a05f830183611955565b5f860190611967565b6119c36119b96020830183611955565b6020860190611967565b6119dd6119d36040830183611955565b6040860190611967565b6119f76119ed6060830183611974565b60608601906107a0565b611a11611a076080830183611974565b60808601906107a0565b611a2b611a2160a0830183611974565b60a08601906107a0565b611a45611a3b60c0830183611974565b60c08601906107a0565b611a5f611a5560e0830183611955565b60e0860190611967565b82810190611974565b9101906107a0565b565b9190611a86905f6101208501940190611986565b565b60200190565b5190565b35611a9c81610177565b90565b35611aa98161061b565b90565b5f7f496e70757420616d6f756e742063616e6e6f74206265207a65726f0000000000910152565b611ae0601b602092610731565b611ae981611aac565b0190565b611b029060208101905f818303910152611ad3565b90565b979593919a9998969492909a61014089019b5f8a01611b239161025d565b60208901611b3091610780565b60408801611b3d91610780565b60608701611b4a91610780565b60808601611b57916106c0565b60a08501611b64916106c0565b60c08401611b71916106c0565b60e08301611b7e916106c0565b6101008201611b8c91610780565b61012001611b99916106c0565b565b5f80fd5b67ffffffffffffffff8111611bbd57611bb9602091610745565b0190565b610f2a565b90825f939282370152565b90929192611be2611bdd82611b9f565b610f67565b93818552602085019082840111611bfe57611bfc92611bc2565b565b611b9b565b611c0e913691611bcd565b90565b5f7f53706f74526f757465723a20496e76616c6964207369676e6174757265000000910152565b611c45601d602092610731565b611c4e81611c11565b0190565b611c679060208101905f818303910152611c38565b90565b15611c7157565b611c79610162565b62461bcd60e51b815280611c8f60048201611c52565b0390fd5b5f80fd5b60e01b90565b90505190611caa82610177565b565b90505190611cb98261061b565b565b9190604083820312611ce35780611cd7611ce0925f8601611c9d565b93602001611cac565b90565b61016c565b90959492611d3394611d22611d2c92611d18608096611d0e60a088019c5f890190610780565b6020870190610780565b6040850190610780565b60608301906106c0565b0190610780565b565b611d3d610162565b3d5f823e3d90fd5b611d54611d5a91939293610174565b92610174565b8201809211611d6557565b611631565b5f7f416d6f756e7420696e206973206c657373207468616e20746f74616c20666565910152565b611d9d60208092610731565b611da681611d6a565b0190565b611dbf9060208101905f818303910152611d91565b90565b15611dc957565b611dd1610162565b62461bcd60e51b815280611de760048201611daa565b0390fd5b611df490610415565b90565b5f910312611e0157565b61016c565b604090611e2f611e369496959396611e2560608401985f850190610780565b6020830190610780565b01906106c0565b565b611e41906103f9565b90565b611e4d90611e38565b90565b60209181520190565b611e629061025a565b9052565b90611e7381602093611e59565b0190565b611e81905461116b565b90565b60010190565b90611ea7611ea1611e9a846101cc565b8093611e50565b926101d0565b905f5b818110611eb75750505090565b909192611ed7611ed1600192611ecc87611e77565b611e66565b94611e84565b9101919091611eaa565b90611eeb91611e8a565b90565b90611f0e611f0792611efe610162565b93848092611ee1565b0383610f3e565b565b611f1990611eee565b90565b611f28611f2d9161106e565b610317565b90565b611f3a9054611f1c565b90565b5f7f41646170746572206e6f742077686974656c6973746564000000000000000000910152565b611f716017602092610731565b611f7a81611f3d565b0190565b611f939060208101905f818303910152611f64565b90565b15611f9d57565b611fa5610162565b62461bcd60e51b815280611fbb60048201611f7e565b0390fd5b611fc890610415565b90565b611fd48161035c565b03611fdb57565b5f80fd5b90505190611fec82611fcb565b565b9060208282031261200757612004915f01611fdf565b90565b61016c565b91602061202d92949361202660408201965f830190610780565b01906106c0565b565b9060208282031261204857612045915f01611c9d565b90565b61016c565b60209181520190565b61207561207e6020936120839361206c81611a8e565b9384809361204d565b9586910161073a565b610745565b0190565b90926120ba906120b06120c796946120a660808601975f870190610780565b6020850190610780565b60408301906106c0565b6060818403910152612056565b90565b906120dc6120d783611b9f565b610f67565b918252565b606090565b3d5f14612101576120f63d6120ca565b903d5f602084013e5b565b6121096120e1565b906120ff565b90565b6121279160208201915f81840391015261074f565b90565b5f7f53776170206661696c6564000000000000000000000000000000000000000000910152565b61215e600b602092610731565b6121678161212a565b0190565b6121809060208101905f818303910152612151565b90565b60207f6400000000000000000000000000000000000000000000000000000000000000917f53706f74526f757465723a20536c69707061676520636865636b206661696c655f8201520152565b6121dd6021604092610731565b6121e681612183565b0190565b6121ff9060208101905f8183039101526121d0565b90565b1561220957565b612211610162565b62461bcd60e51b815280612227600482016121ea565b0390fd5b6122606122679461225660609498979561224c608086019a5f8701906106c0565b60208501906106c0565b60408301906106c0565b01906106c0565b565b92906122866122958261227a610162565b92839160208301611a72565b60208201810382520382610f3e565b6122a76122a182611a8e565b91611a88565b20906122b560608201611a92565b806122c86122c25f610f0e565b91610174565b14612a43576122e16122dc60a08401611a92565b613fe0565b6123d26123ba6122f25f8501611a9f565b966123b461230260c08701611a92565b9761230e8a8a9061409e565b6123ae612319610970565b6123968c916123878d8c8c61233060208301611a9f565b9261233d60408401611a9f565b9161234a60808501611a92565b9061235760a08601611a92565b929361237261010061236b60e08901611a9f565b9701611a92565b9661237b610162565b9b8c9a60208c01611b05565b60208201810382520382610f3e565b6123a86123a282611a8e565b91611a88565b206140f5565b92611c03565b90614112565b6123cc6123c68861060f565b9161060f565b14611c6a565b6123df6101008301611a92565b916123eb828490611645565b9060406124177f0000000000000000000000000000000000000000000000000000000000000000610421565b63a02945169061245f8a9261246a61243160208801611a9f565b9761243d878901611a9f565b9061244a60e08a01611a9f565b91612453610162565b9a8b9889978897611c97565b875260048701611ce8565b03915afa8015612a3e575f80939091612a0b575b5091906124b261248f868590611d45565b6124ac866124a561249f84610174565b91610174565b1015611dc2565b85611645565b6124be60208301611a9f565b926124e87f0000000000000000000000000000000000000000000000000000000000000000611deb565b63262709e68b86928992813b15612a06575f61251791612522829661250b610162565b98899788968795611c97565b855260048501611e06565b03925af18015612a01576129d5575b5061253d848790614140565b8661255061254a5f610f0e565b91610174565b116129bc575b846125696125635f610f0e565b91610174565b116129a1575b5061257c60e08301611a9f565b61259661259061258b5f610ea3565b61060f565b9161060f565b14155f14612945576125e06125ad60e08401611a9f565b6125db6125d66125d16125ca6125c560068690610c50565b61117f565b6005610301565b611f30565b611f96565b611240565b6125f16125ec85611e44565b611fbf565b602063095ea7b3916126028461051c565b906126205f879561262b612614610162565b97889687958694611c97565b84526004840161200c565b03925af18015612940576020928c9261264992612915575b5061051c565b6126a05f6343a0a7f26126ab61267e8a9661268c61266960408d01611a9f565b9a91612673610162565b9384918c83016108c5565b8b8201810382520383610f3e565b612694610162565b998a9889978896611c97565b865260048601612087565b03925af180915f926128e5575b50155f146128d6575060016128535760406126fd915b5b6126f78b6126f06126ea6126e560808601611a92565b610174565b91610174565b1015612202565b01611a9f565b916127277f0000000000000000000000000000000000000000000000000000000000000000611deb565b637de182c58985928c92813b1561284e575f61275691612761829661274a610162565b98899788968795611c97565b855260048501611e06565b03925af180156128495761281d575b50879192936127c98a92966127b76127b16127ab7f0874b2d545cb271cdbda4e093020c452328b24af12382ed62c4d00f5c26709db9761065c565b9761065c565b9761065c565b976127c0610162565b9485948561222b565b0390a49190916128176128056127ff7f0c5cfa22cf12b6b83ccd06c70503190e489eac3cf94ef17aab2fbf7685bbd08f936102f5565b9361065c565b9361280e610162565b918291826106cd565b0390a390565b61283c905f3d8111612842575b6128348183610f3e565b810190611df7565b5f612770565b503d61282a565b611d35565b611c93565b87866128686128606120e6565b91929161210f565b916128b161289f6128997fc1b0f3e18bbd9cf79f692b5598ab8e07d61ae456c23db80aa646ec6dcb100424936102f5565b9361065c565b936128a8610162565b91829182612112565b0390a36128bc610162565b62461bcd60e51b8152806128d26004820161216b565b0390fd5b6126fd919950604090996126ce565b61290791925060203d811161290e575b6128ff8183610f3e565b81019061202f565b905f6126b8565b503d6128f5565b61293490853d8111612939575b61292c8183610f3e565b810190611fee565b612643565b503d612922565b611d35565b81995061299b6129816126fd938b604094612995612965878a9501611a9f565b9192612990600791612975610162565b978891602083016108c5565b60208201810382520387610f3e565b611f10565b92614555565b996126cf565b6129b6906129ae85611e44565b9086916142ec565b5f61256f565b6129d06129c885611e44565b3389916142ec565b612556565b6129f4905f3d81116129fa575b6129ec8183610f3e565b810190611df7565b5f612531565b503d6129e2565b611d35565b611c93565b9050612a2f91925060403d8111612a37575b612a278183610f3e565b810190611cbb565b91905f61247e565b503d612a1d565b611d35565b509350612a5592505f91509201611a9f565b612a88612a827fc1b0f3e18bbd9cf79f692b5598ab8e07d61ae456c23db80aa646ec6dcb100424936102f5565b9161065c565b91612a91610162565b80612a9b81611aed565b0390a3612aa75f610f0e565b90565b90612abd9291612ab8610ed5565b611936565b90565b90612ad897969594939291612ad3613f01565b612c5c565b90612ae1613f3a565b565b5090565b60207f7200000000000000000000000000000000000000000000000000000000000000917f4d7573742073706563696679206174206c65617374206f6e65206164617074655f8201520152565b612b416021604092610731565b612b4a81612ae7565b0190565b612b639060208101905f818303910152612b34565b90565b15612b6d57565b612b75610162565b62461bcd60e51b815280612b8b60048201612b4e565b0390fd5b67ffffffffffffffff8111612ba75760208091020190565b610f2a565b90929192612bc1612bbc82612b8f565b610f67565b9381855260208086019202830192818411612bfe57915b838310612be55750505050565b60208091612bf384866102c8565b815201920191612bd8565b610a27565b612c0e913691612bac565b90565b612c1a90610f0e565b9052565b612c53612c5a94612c49606094989795612c3f608086019a5f8701906106c0565b60208501906106c0565b60408301906106c0565b0190612c11565b565b95909294919395508582612c6f91612ae3565b5f612c7990610f0e565b90612c8390610174565b11612c8d90612b66565b33967f0000000000000000000000000000000000000000000000000000000000000000612cb990610421565b9663a02945169789988690889a8a5f612cd190610ea3565b90612cda610162565b9d8e95612ce78796611c97565b86526004860194612cf795611ce8565b03815a93604094fa8015612fa5575f80999091612f72575b5097612d1c888a90611645565b90612d467f0000000000000000000000000000000000000000000000000000000000000000611deb565b9563262709e68c89988c92813b15612f6d575f612d7691612d818296612d6a610162565b9e8f9788968795611c97565b855260048501611e06565b03925af1918215612f6857612ddc97612dd693612f3c575b50612da5898c90614140565b8b612db8612db25f610f0e565b91610174565b11612f21575b50612dd088968a949592909692612c03565b94611c03565b93614555565b94612e19612de984611e44565b612e127f0000000000000000000000000000000000000000000000000000000000000000611deb565b88916142ec565b612e427f0000000000000000000000000000000000000000000000000000000000000000611deb565b637de182c58285928992813b15612f1c575f612e7191612e7c8296612e65610162565b98899788968795611c97565b855260048501611e06565b03925af18015612f1757612eeb575b5090919293859094612ee55f612ed3612ecd612ec77f0874b2d545cb271cdbda4e093020c452328b24af12382ed62c4d00f5c26709db9761065c565b9761065c565b9761065c565b97612edc610162565b94859485612c1e565b0390a490565b612f0a905f3d8111612f10575b612f028183610f3e565b810190611df7565b5f612e8b565b503d612ef8565b611d35565b611c93565b612f3690612f2e8a611e44565b908d916142ec565b5f612dbe565b612f5b905f3d8111612f61575b612f538183610f3e565b810190611df7565b5f612d99565b503d612f49565b611d35565b611c93565b9050612f9691985060403d8111612f9e575b612f8e8183610f3e565b810190611cbb565b97905f612d0f565b503d612f84565b611d35565b90612fc1969594939291612fbc610ed5565b612ac0565b90565b612fd590612fd0613d82565b612fd7565b565b80612ff2612fec612fe75f610ea3565b61060f565b9161060f565b146130025761300090613df3565b565b61302561300e5f610ea3565b5f918291631e4fbdf760e01b8352600483016108c5565b0390fd5b61303290612fc4565b565b906130479291613042613f01565b613414565b61304f613f3a565b565b9061010061313361313b9361307461306b5f830183611955565b5f860190611967565b61308e6130846020830183611955565b6020860190611967565b6130a861309e6040830183611955565b6040860190611967565b6130c26130b86060830183611955565b6060860190611967565b6130dc6130d26080830183611974565b60808601906107a0565b6130f66130ec60a0830183611974565b60a08601906107a0565b61311061310660c0830183611974565b60c08601906107a0565b61312a61312060e0830183611974565b60e08601906107a0565b82810190611974565b9101906107a0565b565b9190613151905f6101208501940190613051565b565b5f7f496e76616c696420616d6f756e74000000000000000000000000000000000000910152565b613187600e602092610731565b61319081613153565b0190565b6131a99060208101905f81830391015261317a565b90565b156131b357565b6131bb610162565b62461bcd60e51b8152806131d160048201613194565b0390fd5b9160206131f69294936131ef60408201965f830190610780565b0190610780565b565b5f7f496e73756666696369656e74206c697175696469747900000000000000000000910152565b61322c6016602092610731565b613235816131f8565b0190565b61324e9060208101905f81830391015261321f565b90565b1561325857565b613260610162565b62461bcd60e51b81528061327660048201613239565b0390fd5b979593919a9998969492909a61014089019b5f8a016132989161025d565b602089016132a591610780565b604088016132b291610780565b606087016132bf91610780565b608086016132cc91610780565b60a085016132d9916106c0565b60c084016132e6916106c0565b60e083016132f3916106c0565b6101008201613301916106c0565b6101200161330e916106c0565b565b5f7f496e76616c6964207369676e6174757265000000000000000000000000000000910152565b6133446011602092610731565b61334d81613310565b0190565b6133669060208101905f818303910152613337565b90565b1561337057565b613378610162565b62461bcd60e51b81528061338e60048201613351565b0390fd5b5f7f466565206578636565647320696e707574000000000000000000000000000000910152565b6133c66011602092610731565b6133cf81613392565b0190565b6133e89060208101905f8183039101526133b9565b90565b156133f257565b6133fa610162565b62461bcd60e51b815280613410600482016133d3565b0390fd5b9161343061343f84613424610162565b9283916020830161313d565b60208201810382520382610f3e565b61345161344b82611a8e565b91611a88565b209161347a61346260808601611a92565b61347461346e5f610f0e565b91610174565b116131ac565b6134a37f0000000000000000000000000000000000000000000000000000000000000000611deb565b90602063c23f001f926134b7828801611a9f565b906134df6134c760608a01611a9f565b956134ea6134d3610162565b97889586948594611c97565b8452600484016131d5565b03915afa8015613d705761364e9361352f6136269261362c955f91613d42575b5061352861352261351d60a08c01611a92565b610174565b91610174565b1015613251565b61354361353e60e08901611a92565b613fe0565b6135636135515f8901611a9f565b61355d60c08a01611a92565b9061409e565b61362061356e610cb4565b61360861357c5f8b01611a9f565b916135f961358c60208d01611a9f565b8c61359960408201611a9f565b6135a560608301611a9f565b6135b160808401611a92565b6135bd60a08501611a92565b916135ca60c08601611a92565b936135e46101006135dd60e08901611a92565b9701611a92565b966135ed610162565b9b8c9a60208c0161327a565b60208201810382520382610f3e565b61361a61361482611a8e565b91611a88565b206140f5565b92611c03565b90614112565b61364861364261363d5f8701611a9f565b61060f565b9161060f565b14613369565b61365b6101008301611a92565b6136847f0000000000000000000000000000000000000000000000000000000000000000610421565b604063a0294516916136975f8701611a9f565b906136ea6136a6848901611a9f565b946136f56136b660608b01611a9f565b6136cc6136c560808d01611a92565b8a90611645565b6136d55f610ea3565b916136de610162565b998a9889978897611c97565b875260048701611ce8565b03915afa8015613d3d575f80929091613d0c575b5090613752613719848490611d45565b61374161372860808901611a92565b61373a61373484610174565b91610174565b10156133eb565b61374d60808801611a92565b611645565b61377b7f0000000000000000000000000000000000000000000000000000000000000000611deb565b63262709e661378b5f8901611a9f565b61379760408a01611a9f565b926137a460808b01611a92565b92813b15613d07575f6137ca916137d582966137be610162565b98899788968795611c97565b855260048501611e06565b03925af18015613d0257613cd6575b5061380e7f0000000000000000000000000000000000000000000000000000000000000000611deb565b63262709e661381f60208901611a9f565b61382b60608a01611a9f565b9261383860a08b01611a92565b92813b15613cd1575f61385e916138698296613852610162565b98899788968795611c97565b855260048501611e06565b03925af18015613ccc57613ca0575b506138a27f0000000000000000000000000000000000000000000000000000000000000000611deb565b637de182c5906138b460208901611a9f565b906138c160408a01611a9f565b9392813b15613c9b575f6138e8916138f382966138dc610162565b98899788968795611c97565b855260048501611e06565b03925af18015613c9657613c6a575b5061392c7f0000000000000000000000000000000000000000000000000000000000000000611deb565b637de182c561393c5f8801611a9f565b61394860608901611a9f565b9261395560a08a01611a92565b92813b15613c65575f61397b91613986829661396f610162565b98899788968795611c97565b855260048501611e06565b03925af18015613c6057613c34575b50826139a96139a35f610f0e565b91610174565b11613b7b575b816139c26139bc5f610f0e565b91610174565b11613ac2575b506139d45f8501611a9f565b6139e060408601611a9f565b906139ed60608701611a9f565b926139fa60808801611a92565b613a59613a0960a08a01611a92565b9296613a47613a41613a3b7f0874b2d545cb271cdbda4e093020c452328b24af12382ed62c4d00f5c26709db9761065c565b9761065c565b9761065c565b97613a50610162565b9485948561222b565b0390a490613a7460c0613a6d5f8401611a9f565b9201611a92565b91613abd613aab613aa57f0c5cfa22cf12b6b83ccd06c70503190e489eac3cf94ef17aab2fbf7685bbd08f936102f5565b9361065c565b93613ab4610162565b918291826106cd565b0390a3565b613aeb7f0000000000000000000000000000000000000000000000000000000000000000611deb565b90637de182c590613afe60408801611a9f565b928492813b15613b76575f613b2691613b318296613b1a610162565b98899788968795611c97565b855260048501611e06565b03925af18015613b7157613b45575b6139c8565b613b64905f3d8111613b6a575b613b5c8183610f3e565b810190611df7565b5f613b40565b503d613b52565b611d35565b611c93565b613ba47f0000000000000000000000000000000000000000000000000000000000000000611deb565b637de182c533613bb660408901611a9f565b928692813b15613c2f575f613bde91613be98296613bd2610162565b98899788968795611c97565b855260048501611e06565b03925af18015613c2a57613bfe575b506139af565b613c1d905f3d8111613c23575b613c158183610f3e565b810190611df7565b5f613bf8565b503d613c0b565b611d35565b611c93565b613c53905f3d8111613c59575b613c4b8183610f3e565b810190611df7565b5f613995565b503d613c41565b611d35565b611c93565b613c89905f3d8111613c8f575b613c818183610f3e565b810190611df7565b5f613902565b503d613c77565b611d35565b611c93565b613cbf905f3d8111613cc5575b613cb78183610f3e565b810190611df7565b5f613878565b503d613cad565b611d35565b611c93565b613cf5905f3d8111613cfb575b613ced8183610f3e565b810190611df7565b5f6137e4565b503d613ce3565b611d35565b611c93565b9050613d2f915060403d8111613d36575b613d278183610f3e565b810190611cbb565b905f613709565b503d613d1d565b611d35565b613d63915060203d8111613d69575b613d5b8183610f3e565b81019061202f565b5f61350a565b503d613d51565b611d35565b90613d809291613034565b565b613d8a61109f565b613da3613d9d613d9861488f565b61060f565b9161060f565b03613daa57565b613dcc613db561488f565b5f91829163118cdaa760e01b8352600483016108c5565b0390fd5b90565b90613de8613de3613def9261065c565b613dd0565b825461124c565b9055565b613dfc5f611092565b613e06825f613dd3565b90613e3a613e347f8be0079c531659141344cd1fd0a4f28419497f9722a3daafe3b4186f6b6457e09361065c565b9161065c565b91613e43610162565b80613e4d81610484565b0390a3565b90565b613e5d610ed0565b50613e927f0000000000000000000000000000000000000000000000000000000000000000613e8c6001613e52565b906149df565b90565b613e9d610ed0565b50613ed27f0000000000000000000000000000000000000000000000000000000000000000613ecc6002613e52565b906149df565b90565b90565b613eec613ee7613ef192613ed5565b6103f6565b610174565b90565b613efe6002613ed8565b90565b613f09614a2d565b613f2b613f14613ef4565b5f613f25613f20614aa2565b614ab6565b0161133c565b565b613f376001611615565b90565b613f5c613f45613f2d565b5f613f56613f51614aa2565b614ab6565b0161133c565b565b5f7f496e74656e7456657269666965723a2045787069726564000000000000000000910152565b613f926017602092610731565b613f9b81613f5e565b0190565b613fb49060208101905f818303910152613f85565b90565b15613fbe57565b613fc6610162565b62461bcd60e51b815280613fdc60048201613f9f565b0390fd5b613ffe90613ff7613ff14292610174565b91610174565b1115613fb7565b565b5f7f496e74656e7456657269666965723a20496e76616c6964206e6f6e6365000000910152565b614034601d602092610731565b61403d81614000565b0190565b6140569060208101905f818303910152614027565b90565b1561406057565b614068610162565b62461bcd60e51b81528061407e60048201614041565b0390fd5b61408b90610174565b5f1981146140995760010190565b611631565b6140dc906140d56140f3936140cf6140c96140c36140be60038790610668565b611605565b92610174565b91610174565b14614059565b6003610668565b6140ed6140e882611605565b614082565b9061133c565b565b61410f90614101610edd565b5061410a614ab9565b614b73565b90565b6141319161412891614122610ed9565b50614bf7565b90929192614cdf565b90565b61413d90610415565b90565b9061416a7f0000000000000000000000000000000000000000000000000000000000000000611deb565b9063da3e33978361417a30614134565b938392813b156142e7575f6141a2916141ad8296614196610162565b998a9788968795611c97565b855260048501611e06565b03925af19182156142e257614205926142b6575b506141cb83611e44565b906141f57f0000000000000000000000000000000000000000000000000000000000000000611deb565b6141fe30614134565b9192614db0565b61422e7f0000000000000000000000000000000000000000000000000000000000000000611deb565b90633faec0849061423e30614134565b92803b156142b1576142635f809461426e614257610162565b97889687958694611c97565b8452600484016131d5565b03925af180156142ac57614280575b50565b61429f905f3d81116142a5575b6142978183610f3e565b810190611df7565b5f61427d565b503d61428d565b611d35565b611c93565b6142d5905f3d81116142db575b6142cd8183610f3e565b810190611df7565b5f6141c1565b503d6142c3565b611d35565b611c93565b91614305916142ff918491600192614dfb565b1561035c565b61430c5750565b61431861432f91611fbf565b5f918291635274afe760e01b8352600483016108c5565b0390fd5b600161433f9101610174565b90565b5190565b9061435082614342565b811015614361576020809102010190565b6101b8565b614370905161025a565b90565b5f7f4e6f2076616c69642071756f746520666f756e64000000000000000000000000910152565b6143a76014602092610731565b6143b081614373565b0190565b6143c99060208101905f81830391015261439a565b90565b156143d357565b6143db610162565b62461bcd60e51b8152806143f1600482016143b4565b0390fd5b60209181520190565b60200190565b60200190565b9061442761442161441a84614342565b80936143f5565b926143fe565b905f5b8181106144375750505090565b90919261445061444a6001928651611e66565b94614404565b910191909161442a565b60207f6f74650000000000000000000000000000000000000000000000000000000000917f5377617020657865637574696f6e206661696c656420746f206d6565742071755f8201520152565b6144b46023604092610731565b6144bd8161445a565b0190565b92936144f6614511956144ec614503956144e260a08901965f8a0190610780565b6020880190610780565b60408601906106c0565b838203606085015261440a565b9060808183039101526144a7565b90565b6145299060208101905f8183039101526144a7565b90565b1561453357565b61453b610162565b62461bcd60e51b81528061455160048201614514565b0390fd5b92949190614561610ed5565b5061456b5f610f0e565b92614574611743565b9561457e5f610f0e565b5b8061459a61459461458f8c614342565b610174565b91610174565b10156146c6576145b36145ae8a8390614346565b614366565b6145d06145ca6145c560058490610301565b611f30565b1561035c565b6146bc576145e26145e79160046104bc565b6110dc565b6145f08161051c565b602063b6466384918a906146185f8a956146238d61460c610162565b98899788968795611c97565b855260048501611e06565b03925af180915f9261468c575b50155f1461465657505061464c906001614651575b5b5b614333565b61457f565b614645565b806146696146638a610174565b91610174565b1161467a575b505061464c90614646565b90965061464c9198509597905f61466f565b6146ae91925060203d81116146b5575b6146a68183610f3e565b81019061202f565b905f614630565b503d61469c565b5061464c90614647565b50949596929190966146fb6146da8261051c565b6146f46146ee6146e95f610ea3565b61060f565b9161060f565b14156143cc565b61470c61470788611e44565b611fbf565b90602063095ea7b39261471e8361051c565b9061473c5f8896614747614730610162565b98899687958694611c97565b84526004840161200c565b03925af190811561488a576020926147649261485f575b5061051c565b6343a0a7f29061478a5f8a93614795879b8961477e610162565b9d8e9889978896611c97565b865260048601612087565b03925af1801561485a576147e3955f9161482c575b5095866147bf6147b987610174565b91610174565b106147e6575b505050506147dc6147d68492610174565b91610174565b101561452c565b90565b614820909192937f2e870ab1201a8d1f158463f2825c320723ce6b1dae728beb3e97e1834e50177d94614817610162565b948594856144c1565b0390a15f8080806147c5565b61484d915060203d8111614853575b6148458183610f3e565b81019061202f565b5f6147aa565b503d61483b565b611d35565b61487e90843d8111614883575b6148768183610f3e565b810190611fee565b61475e565b503d61486c565b611d35565b614897610ed9565b503390565b90565b6148b36148ae6148b89261489c565b610582565b61025a565b90565b6148c560ff61489f565b90565b634e487b7160e01b5f52602260045260245ffd5b90600160028304921680156148fc575b60208310146148f757565b6148c8565b91607f16916148ec565b60209181520190565b5f5260205f2090565b905f929180549061493261492b836148dc565b8094614906565b916001811690815f14614989575060011461494d575b505050565b61495a919293945061490f565b915f925b81841061497157505001905f8080614948565b6001816020929593955484860152019101929061495e565b92949550505060ff19168252151560200201905f8080614948565b906149ae91614918565b90565b906149d16149ca926149c1610162565b938480926149a4565b0383610f3e565b565b6149dc906149b1565b90565b906149e8610ed0565b506149f2826102f5565b614a0b614a05614a006148bb565b61025a565b9161025a565b14155f14614a205750614a1d90614eea565b90565b614a2a91506149d3565b90565b614a35614f1a565b614a3b57565b5f633ee5aeb560e01b815280614a5360048201610484565b0390fd5b90565b614a6e614a69614a7392614a57565b610582565b61025a565b90565b614a9f7f9b779b17422d0df92223018b32b4d1fa46e071723d6817e2486d003becc55f00614a5a565b90565b614aaa610edd565b50614ab3614a76565b90565b90565b614ac1610edd565b50614acb30610ee6565b614afd614af77f000000000000000000000000000000000000000000000000000000000000000061060f565b9161060f565b1480614b39575b5f14614b2e577f000000000000000000000000000000000000000000000000000000000000000090565b614b36614fcb565b90565b5046614b6d614b677f0000000000000000000000000000000000000000000000000000000000000000610174565b91610174565b14614b04565b604291614b7e610edd565b50604051917f19010000000000000000000000000000000000000000000000000000000000008352600283015260228201522090565b5f90565b90565b614bcf614bca614bd492614bb8565b6103f6565b610174565b90565b614beb614be6614bf092610174565b610582565b61025a565b90565b5f90565b919091614c02610ed9565b50614c0b614bb4565b50614c14610edd565b50614c1e83611a8e565b614c31614c2b6041614bbb565b91610174565b145f14614c7857614c719192614c45610edd565b50614c4e610edd565b50614c57614bf3565b506020810151606060408301519201515f1a9091926150d9565b9192909190565b50614c825f610ea3565b90614c96614c91600294611a8e565b614bd7565b91929190565b634e487b7160e01b5f52602160045260245ffd5b60041115614cba57565b614c9c565b90614cc982614cb0565b565b614cd7614cdc9161106e565b61131d565b90565b80614cf2614cec5f614cbf565b91614cbf565b145f14614cfd575050565b80614d11614d0b6001614cbf565b91614cbf565b145f14614d34575f63f645eedf60e01b815280614d3060048201610484565b0390fd5b80614d48614d426002614cbf565b91614cbf565b145f14614d7657614d72614d5b83614ccb565b5f91829163fce698f760e01b8352600483016106cd565b0390fd5b614d89614d836003614cbf565b91614cbf565b14614d915750565b614dac905f9182916335e2f38360e21b83526004830161026a565b0390fd5b9290614dcd92614dc79285929190916001936151d5565b1561035c565b614dd45750565b614de0614df791611fbf565b5f918291635274afe760e01b8352600483016108c5565b0390fd5b9091939293614e086117a2565b5063a9059cbb60e01b92604051935f525f1960601c1660045260245260205f60448180855af19360015f5114851615614e43575b5050604052565b8492941516614e5c575f903b113d151616915f80614e3c565b833d5f823e3d90fd5b90565b614e7c614e77614e8192614e65565b6103f6565b610174565b90565b67ffffffffffffffff8111614ea257614e9e602091610745565b0190565b610f2a565b90614eb9614eb483614e84565b610f67565b918252565b369037565b90614ee8614ed083614ea7565b92602080614ede8693614e84565b9201910390614ebe565b565b614ef2610ed0565b50614efc81615289565b90614f0f614f0a6020614e68565b614ec3565b918252602082015290565b614f226117a2565b50614f3d5f614f37614f32614aa2565b614ab6565b01611605565b614f56614f50614f4b613ef4565b610174565b91610174565b1490565b7f8b73c3c69bb8fe3d512ecc4cf759cc79239f7b179b0ffacaa9a75d522b39400f90565b90959492614fc994614fb8614fc292614fae608096614fa460a088019c5f89019061025d565b602087019061025d565b604085019061025d565b60608301906106c0565b0190610780565b565b614fd3610edd565b50614fdc614f5a565b6150537f0000000000000000000000000000000000000000000000000000000000000000916150447f00000000000000000000000000000000000000000000000000000000000000004661502f30610ee6565b91615038610162565b96879560208701614f7e565b60208201810382520382610f3e565b61506561505f82611a8e565b91611a88565b2090565b90565b61508061507b61508592615069565b6103f6565b610174565b90565b60ff1690565b61509790615088565b9052565b6150d06150d7946150c66060949897956150bc608086019a5f87019061025d565b602085019061508e565b604083019061025d565b019061025d565b565b9392936150e4610ed9565b506150ed614bb4565b506150f6610edd565b5061510085614ccb565b61513261512c7f7fffffffffffffffffffffffffffffff5d576e7357a4501ddfe92f46681b20a061506c565b91610174565b116151bf5790615155602094955f9493929361514c610162565b9485948561509b565b838052039060015afa156151ba5761516d5f51610582565b8061518861518261517d5f610ea3565b61060f565b9161060f565b1461519e575f916151985f610ef2565b91929190565b506151a85f610ea3565b6001916151b45f610ef2565b91929190565b611d35565b5050506151cb5f610ea3565b9060039291929190565b919493949290926151e46117a2565b506323b872dd60e01b93604051945f525f1960601c166004525f1960601c1660245260445260205f60648180855af19360015f511485161561522c575b50506040525f606052565b8492941516615245575f903b113d151616915f80615221565b833d5f823e3d90fd5b61526261525d6152679261489c565b6103f6565b610174565b90565b90565b61528161527c6152869261526a565b6103f6565b610174565b90565b61529e6152a391615298610ed5565b506102f5565b614ccb565b6152ad60ff61524e565b16806152c26152bc601f61526d565b91610174565b116152ca5790565b5f632cd44ac360e21b8152806152e260048201610484565b0390fdfea26469706673582212200a3dd5704afa85aaacb1a3828df35278bd23218e775b39d79b73cc3882b4ba4064736f6c63430008210033","linkReferences":{}},"methodIdentifiers":{"CANCEL_TYPEHASH()":"73fca6ea","MATCHED_TRADE_TYPEHASH()":"e8331ecb","SWAP_INTENT_TYPEHASH()":"b0825578","adapterAddressToId(address)":"dd5dc842","adapterIdToIndex(bytes32)":"d8809bba","adapters(bytes32)":"72c6838f","addAdapter(bytes32,address)":"a9212b5b","allAdapters(uint256)":"11962e85","eip712Domain()":"84b0196e","executeSwap((address,address,address,uint256,uint256,uint256,uint256,address,uint256),bytes)":"baf8bc24","feeController()":"6999b377","nonces(address)":"7ecebe00","owner()":"8da5cb5b","removeAdapter(bytes32)":"b59b1176","renounceOwnership()":"715018a6","settleTrade((address,address,address,address,uint256,uint256,uint256,uint256,uint256),bytes)":"fdc5a499","swap(address,address,uint256,bytes32[],bytes)":"d9097dd2","transferOwnership(address)":"f2fde38b","vault()":"fbfa77cf","whitelistedAdapters(bytes32)":"2c4e9939"},"id":2}