{"abi":[{"type":"constructor","inputs":[{"name":"_vault","type":"address","internalType":"address payable"},{"name":"_feeController","type":"address","internalType":"address"},{"name":"_name","type":"string","internalType":"string"},{"name":"_version","type":"string","internalType":"string"}],"stateMutability":"nonpayable"},{"type":"function","name":"CANCEL_TYPEHASH","inputs":[],"outputs":[{"name":"","type":"bytes32","internalType":"bytes32"}],"stateMutability":"view"},{"type":"function","name":"SWAP_INTENT_TYPEHASH","inputs":[],"outputs":[{"name":"","type":"bytes32","internalType":"bytes32"}],"stateMutability":"view"},{"type":"function","name":"adapterAddressToId","inputs":[{"name":"","type":"address","internalType":"address"}],"outputs":[{"name":"","type":"bytes32","internalType":"bytes32"}],"stateMutability":"view"},{"type":"function","name":"adapterIdToIndex","inputs":[{"name":"","type":"bytes32","internalType":"bytes32"}],"outputs":[{"name":"","type":"uint256","internalType":"uint256"}],"stateMutability":"view"},{"type":"function","name":"adapters","inputs":[{"name":"","type":"bytes32","internalType":"bytes32"}],"outputs":[{"name":"","type":"address","internalType":"contract IAdapter"}],"stateMutability":"view"},{"type":"function","name":"addAdapter","inputs":[{"name":"id","type":"bytes32","internalType":"bytes32"},{"name":"adapter","type":"address","internalType":"address"}],"outputs":[],"stateMutability":"nonpayable"},{"type":"function","name":"allAdapters","inputs":[{"name":"","type":"uint256","internalType":"uint256"}],"outputs":[{"name":"","type":"bytes32","internalType":"bytes32"}],"stateMutability":"view"},{"type":"function","name":"eip712Domain","inputs":[],"outputs":[{"name":"fields","type":"bytes1","internalType":"bytes1"},{"name":"name","type":"string","internalType":"string"},{"name":"version","type":"string","internalType":"string"},{"name":"chainId","type":"uint256","internalType":"uint256"},{"name":"verifyingContract","type":"address","internalType":"address"},{"name":"salt","type":"bytes32","internalType":"bytes32"},{"name":"extensions","type":"uint256[]","internalType":"uint256[]"}],"stateMutability":"view"},{"type":"function","name":"executeSwap","inputs":[{"name":"intent","type":"tuple","internalType":"struct ISpotRouter.SwapIntent","components":[{"name":"user","type":"address","internalType":"address"},{"name":"tokenIn","type":"address","internalType":"address"},{"name":"tokenOut","type":"address","internalType":"address"},{"name":"amountIn","type":"uint256","internalType":"uint256"},{"name":"minAmountOut","type":"uint256","internalType":"uint256"},{"name":"deadline","type":"uint256","internalType":"uint256"},{"name":"nonce","type":"uint256","internalType":"uint256"},{"name":"adapter","type":"address","internalType":"address"},{"name":"relayerFee","type":"uint256","internalType":"uint256"}]},{"name":"signature","type":"bytes","internalType":"bytes"}],"outputs":[{"name":"amountOut","type":"uint256","internalType":"uint256"}],"stateMutability":"nonpayable"},{"type":"function","name":"feeController","inputs":[],"outputs":[{"name":"","type":"address","internalType":"contract IFeeController"}],"stateMutability":"view"},{"type":"function","name":"nonces","inputs":[{"name":"","type":"address","internalType":"address"}],"outputs":[{"name":"","type":"uint256","internalType":"uint256"}],"stateMutability":"view"},{"type":"function","name":"owner","inputs":[],"outputs":[{"name":"","type":"address","internalType":"address"}],"stateMutability":"view"},{"type":"function","name":"removeAdapter","inputs":[{"name":"id","type":"bytes32","internalType":"bytes32"}],"outputs":[],"stateMutability":"nonpayable"},{"type":"function","name":"renounceOwnership","inputs":[],"outputs":[],"stateMutability":"nonpayable"},{"type":"function","name":"swap","inputs":[{"name":"tokenIn","type":"address","internalType":"address"},{"name":"tokenOut","type":"address","internalType":"address"},{"name":"amountIn","type":"uint256","internalType":"uint256"},{"name":"adapterIds","type":"bytes32[]","internalType":"bytes32[]"},{"name":"data","type":"bytes","internalType":"bytes"}],"outputs":[{"name":"amountOut","type":"uint256","internalType":"uint256"}],"stateMutability":"nonpayable"},{"type":"function","name":"transferOwnership","inputs":[{"name":"newOwner","type":"address","internalType":"address"}],"outputs":[],"stateMutability":"nonpayable"},{"type":"function","name":"vault","inputs":[],"outputs":[{"name":"","type":"address","internalType":"contract VaultSpot"}],"stateMutability":"view"},{"type":"function","name":"whitelistedAdapters","inputs":[{"name":"","type":"bytes32","internalType":"bytes32"}],"outputs":[{"name":"","type":"bool","internalType":"bool"}],"stateMutability":"view"},{"type":"event","name":"AdapterAdded","inputs":[{"name":"id","type":"bytes32","indexed":true,"internalType":"bytes32"},{"name":"adapter","type":"address","indexed":true,"internalType":"address"}],"anonymous":false},{"type":"event","name":"AdapterRemoved","inputs":[{"name":"id","type":"bytes32","indexed":true,"internalType":"bytes32"}],"anonymous":false},{"type":"event","name":"EIP712DomainChanged","inputs":[],"anonymous":false},{"type":"event","name":"IntentFailed","inputs":[{"name":"intentHash","type":"bytes32","indexed":true,"internalType":"bytes32"},{"name":"user","type":"address","indexed":true,"internalType":"address"},{"name":"reason","type":"string","indexed":false,"internalType":"string"}],"anonymous":false},{"type":"event","name":"IntentFilled","inputs":[{"name":"intentHash","type":"bytes32","indexed":true,"internalType":"bytes32"},{"name":"user","type":"address","indexed":true,"internalType":"address"},{"name":"nonce","type":"uint256","indexed":false,"internalType":"uint256"}],"anonymous":false},{"type":"event","name":"OwnershipTransferred","inputs":[{"name":"previousOwner","type":"address","indexed":true,"internalType":"address"},{"name":"newOwner","type":"address","indexed":true,"internalType":"address"}],"anonymous":false},{"type":"event","name":"Swap","inputs":[{"name":"user","type":"address","indexed":true,"internalType":"address"},{"name":"tokenIn","type":"address","indexed":true,"internalType":"address"},{"name":"tokenOut","type":"address","indexed":true,"internalType":"address"},{"name":"amountIn","type":"uint256","indexed":false,"internalType":"uint256"},{"name":"amountOut","type":"uint256","indexed":false,"internalType":"uint256"},{"name":"protocolFee","type":"uint256","indexed":false,"internalType":"uint256"},{"name":"relayerFee","type":"uint256","indexed":false,"internalType":"uint256"}],"anonymous":false},{"type":"event","name":"SwapFailed","inputs":[{"name":"tokenIn","type":"address","indexed":false,"internalType":"address"},{"name":"tokenOut","type":"address","indexed":false,"internalType":"address"},{"name":"amountIn","type":"uint256","indexed":false,"internalType":"uint256"},{"name":"adapterIds","type":"bytes32[]","indexed":false,"internalType":"bytes32[]"},{"name":"reason","type":"string","indexed":false,"internalType":"string"}],"anonymous":false},{"type":"error","name":"ECDSAInvalidSignature","inputs":[]},{"type":"error","name":"ECDSAInvalidSignatureLength","inputs":[{"name":"length","type":"uint256","internalType":"uint256"}]},{"type":"error","name":"ECDSAInvalidSignatureS","inputs":[{"name":"s","type":"bytes32","internalType":"bytes32"}]},{"type":"error","name":"InvalidShortString","inputs":[]},{"type":"error","name":"OwnableInvalidOwner","inputs":[{"name":"owner","type":"address","internalType":"address"}]},{"type":"error","name":"OwnableUnauthorizedAccount","inputs":[{"name":"account","type":"address","internalType":"address"}]},{"type":"error","name":"ReentrancyGuardReentrantCall","inputs":[]},{"type":"error","name":"SafeERC20FailedOperation","inputs":[{"name":"token","type":"address","internalType":"address"}]},{"type":"error","name":"StringTooLong","inputs":[{"name":"str","type":"string","internalType":"string"}]}],"bytecode":{"object":"0x6101a0604052346100d05761001e6100156102aa565b9291909161031d565b6100266100d5565b6144dd610c3c823960805181613ccd015260a05181613d04015260c05181613c94015260e051816141a2015261010051816141c70152610120518161300101526101405181613041015261016051818181610cc9015281816123b0015281816125ef01528181612c0e01528181612cda01528181612d0a015281816133070152818161339201526133cb0152610180518181816103a9015281816122df0152612b7d01526144dd90f35b6100db565b60405190565b5f80fd5b601f801991011690565b634e487b7160e01b5f52604160045260245ffd5b90610107906100df565b810190811060018060401b0382111761011f57604052565b6100e9565b906101376101306100d5565b92836100fd565b565b5f80fd5b5f80fd5b60018060a01b031690565b61015590610141565b90565b6101618161014c565b0361016857565b5f80fd5b9050519061017982610158565b565b61018490610141565b90565b6101908161017b565b0361019757565b5f80fd5b905051906101a882610187565b565b5f80fd5b5f80fd5b60018060401b0381116101ce576101ca6020916100df565b0190565b6100e9565b90825f9392825e0152565b909291926101f36101ee826101b2565b610124565b9381855260208501908284011161020f5761020d926101d3565b565b6101ae565b9080601f830112156102325781602061022f935191016101de565b90565b6101aa565b906080828203126102a55761024e815f840161016c565b9261025c826020850161019b565b92604081015160018060401b0381116102a0578361027b918301610214565b92606082015160018060401b03811161029b576102989201610214565b90565b61013d565b61013d565b610139565b6102c8615119803803806102bd81610124565b928339810190610237565b90919293565b90565b6102e56102e06102ea92610141565b6102ce565b610141565b90565b6102f6906102d1565b90565b610302906102ed565b90565b61030e906102d1565b90565b61031a90610305565b90565b61033161033f946103369394903391610345565b6102f9565b61016052610311565b61018052565b90610350929161037a565b565b90565b90565b60200190565b5190565b61036b906102d1565b90565b61037790610362565b90565b6103bf9061038a6103da9461040e565b61039e816103986001610352565b90610815565b610120526103b6836103b06002610352565b90610815565b61014052610355565b6103d16103cb8261035e565b91610358565b2060e052610355565b6103ec6103e68261035e565b91610358565b20610100524660a0526103fd61091a565b6080526104093061036e565b60c052565b61041790610419565b565b610422906104ad565b565b90565b90565b61043e61043961044392610424565b6102ce565b610427565b90565b610450600161042a565b90565b5f1b90565b906104645f1991610453565b9181191691161790565b61048261047d61048792610427565b6102ce565b610427565b90565b90565b906104a261049d6104a99261046e565b61048a565b8254610458565b9055565b6104b690610527565b6104d86104c1610446565b5f6104d26104cd6109d6565b6109ea565b0161048d565b565b90565b6104f16104ec6104f6926104da565b6102ce565b610141565b90565b610502906104dd565b90565b61050e9061017b565b9052565b9190610525905f60208501940190610505565b565b8061054261053c6105375f6104f9565b61017b565b9161017b565b146105525761055090610a6d565b565b61057561055e5f6104f9565b5f918291631e4fbdf760e01b835260048301610512565b0390fd5b5f90565b90565b61059461058f6105999261057d565b6102ce565b610427565b90565b5190565b634e487b7160e01b5f52602260045260245ffd5b90600160028304921680156105d4575b60208310146105cf57565b6105a0565b91607f16916105c4565b5f5260205f2090565b601f602091010490565b1b90565b9190600861061091029161060a5f19846105f1565b926105f1565b9181191691161790565b919061063061062b6106389361046e565b61048a565b9083546105f5565b9055565b5f90565b6106529161064c61063c565b9161061a565b565b5f5b82811061066257505050565b806106715f6001938501610640565b01610656565b9190601f8111610687575b505050565b818111610694575b610682565b6106a96106a36106c7946105de565b916105e7565b9160206106b5826105e7565b91106106cf575b809101910390610654565b5f808061068f565b505f6106bc565b1c90565b906106ea905f19906008026106d6565b191690565b816106f9916106da565b906002021790565b9061070b8161059c565b9060018060401b0382116107c95761072d8261072785546105b4565b85610677565b602090601f831160011461076157918091610750935f92610755575b50506106ef565b90555b565b90915001515f80610749565b601f19831691610770856105de565b925f5b8181106107b157509160029391856001969410610797575b50505002019055610753565b6107a7910151601f8416906106da565b90555f808061078b565b91936020600181928787015181550195019201610773565b6100e9565b906107d891610701565b565b90565b90565b6107f46107ef6107f9926107da565b610453565b6107dd565b90565b61080660ff6107e0565b90565b610812906107dd565b90565b9061081e610579565b5061083061082b83610355565b61035e565b61084361083d6020610580565b91610427565b105f14610857575061085490610bb1565b90565b5f61086561086b9392610acc565b016107ce565b61087b6108766107fc565b610809565b90565b5f90565b7f8b73c3c69bb8fe3d512ecc4cf759cc79239f7b179b0ffacaa9a75d522b39400f90565b6108b090516107dd565b90565b6108bc906107dd565b9052565b6108c990610427565b9052565b9095949261091894610907610911926108fd6080966108f360a088019c5f8901906108b3565b60208701906108b3565b60408501906108b3565b60608301906108c0565b0190610505565b565b61092261087e565b5061092b610882565b61097561093860e06108a6565b916109666109476101006108a6565b466109513061036e565b9161095a6100d5565b968795602087016108cd565b602082018103825203826100fd565b6109876109818261035e565b91610358565b2090565b90565b6109a261099d6109a79261098b565b610453565b6107dd565b90565b6109d37f9b779b17422d0df92223018b32b4d1fa46e071723d6817e2486d003becc55f0061098e565b90565b6109de61087e565b506109e76109aa565b90565b90565b5f1c90565b60018060a01b031690565b610a09610a0e916109ed565b6109f2565b90565b610a1b90546109fd565b90565b90610a2f60018060a01b0391610453565b9181191691161790565b610a4290610362565b90565b90565b90610a5d610a58610a6492610a39565b610a45565b8254610a1e565b9055565b5f0190565b610a765f610a11565b610a80825f610a48565b90610ab4610aae7f8be0079c531659141344cd1fd0a4f28419497f9722a3daafe3b4186f6b6457e093610a39565b91610a39565b91610abd6100d5565b80610ac781610a68565b0390a3565b90565b90565b610ae6610ae1610aeb92610acf565b6102ce565b610427565b90565b60209181520190565b610b16610b1f602093610b2493610b0d8161059c565b93848093610aee565b958691016101d3565b6100df565b0190565b610b3d9160208201915f818403910152610af7565b90565b610b5a610b55610b4f8361035e565b92610358565b6108a6565b9060208110610b68575b5090565b610b7a905f19906020036008026105f1565b165f610b64565b610b8d610b92916109ed565b61046e565b90565b610ba9610ba4610bae92610427565b610453565b6107dd565b90565b610bb9610579565b50610bc381610355565b90610bcd8261035e565b610be0610bda601f610ad2565b91610427565b11610c155750610c0d81610c07610c01610bfc610c1295610b40565b610b81565b9161035e565b17610b95565b610809565b90565b610c3790610c216100d5565b91829163305a27a960e01b835260048301610b28565b0390fdfe60806040526004361015610013575b610d5a565b61001d5f3561013c565b806311962e85146101375780632c4e9939146101325780636999b3771461012d578063715018a61461012857806372c6838f1461012357806373fca6ea1461011e5780637ecebe001461011957806384b0196e146101145780638da5cb5b1461010f578063a9212b5b1461010a578063b082557814610105578063b59b117614610100578063baf8bc24146100fb578063d8809bba146100f6578063d9097dd2146100f1578063dd5dc842146100ec578063f2fde38b146100e75763fbfa77cf0361000e57610d25565b610c94565b610c5f565b610bf4565b610af7565b610a92565b6109b4565b61097f565b61091c565b6108ba565b610869565b6106c2565b6105ba565b61052a565b610469565b61042f565b610363565b61025f565b60e01c90565b60405190565b5f80fd5b5f80fd5b5f80fd5b90565b61016081610154565b0361016757565b5f80fd5b9050359061017882610157565b565b9060208282031261019357610190915f0161016b565b90565b61014c565b634e487b7160e01b5f52603260045260245ffd5b5490565b5f5260205f2090565b6101c2816101ac565b8210156101dc576101d46001916101b0565b910201905f90565b610198565b1c90565b90565b6101f89060086101fd93026101e1565b6101e5565b90565b9061020b91546101e8565b90565b6007610219816101ac565b821015610236576102339161022d916101b9565b90610200565b90565b5f80fd5b90565b6102469061023a565b9052565b919061025d905f6020850194019061023d565b565b3461028f5761028b61027a61027536600461017a565b61020e565b610282610142565b9182918261024a565b0390f35b610148565b61029d8161023a565b036102a457565b5f80fd5b905035906102b582610294565b565b906020828203126102d0576102cd915f016102a8565b90565b61014c565b6102de9061023a565b90565b906102eb906102d5565b5f5260205260405f2090565b60ff1690565b61030d90600861031293026101e1565b6102f7565b90565b9061032091546102fd565b90565b610339906103346005915f926102e1565b610315565b90565b151590565b61034a9061033c565b9052565b9190610361905f60208501940190610341565b565b346103935761038f61037e6103793660046102b7565b610323565b610386610142565b9182918261034e565b0390f35b610148565b5f9103126103a257565b61014c565b7f000000000000000000000000000000000000000000000000000000000000000090565b60018060a01b031690565b90565b6103ed6103e86103f2926103cb565b6103d6565b6103cb565b90565b6103fe906103d9565b90565b61040a906103f5565b90565b61041690610401565b9052565b919061042d905f6020850194019061040d565b565b3461045f5761043f366004610398565b61045b61044a6103a7565b610452610142565b9182918261041a565b0390f35b610148565b5f0190565b3461049757610479366004610398565b610481610dae565b610489610142565b8061049381610464565b0390f35b610148565b906104a6906102d5565b5f5260205260405f2090565b60018060a01b031690565b6104cd9060086104d293026101e1565b6104b2565b90565b906104e091546104bd565b90565b6104f9906104f46004915f9261049c565b6104d5565b90565b610505906103f5565b90565b610511906104fc565b9052565b9190610528905f60208501940190610508565b565b3461055a576105566105456105403660046102b7565b6104e3565b61054d610142565b91829182610515565b0390f35b610148565b90565b5f1b90565b61057b6105766105809261055f565b610562565b61023a565b90565b6105ac7f546c14101d23693e4f35838d1729863830a3ec576353388a755b40d43dfa2842610567565b90565b6105b7610583565b90565b346105ea576105ca366004610398565b6105e66105d56105af565b6105dd610142565b9182918261024a565b0390f35b610148565b6105f8906103cb565b90565b610604816105ef565b0361060b57565b5f80fd5b9050359061061c826105fb565b565b9060208282031261063757610634915f0161060f565b90565b61014c565b610645906103f5565b90565b906106529061063c565b5f5260205260405f2090565b90565b61067190600861067693026101e1565b61065e565b90565b906106849154610661565b90565b61069d906106986003915f92610648565b610679565b90565b6106a990610154565b9052565b91906106c0905f602085019401906106a0565b565b346106f2576106ee6106dd6106d836600461061e565b610687565b6106e5610142565b918291826106ad565b0390f35b610148565b60ff60f81b1690565b610709906106f7565b9052565b5190565b60209181520190565b90825f9392825e0152565b601f801991011690565b61074e61075760209361075c936107458161070d565b93848093610711565b9586910161071a565b610725565b0190565b610769906105ef565b9052565b5190565b60209181520190565b60200190565b61078990610154565b9052565b9061079a81602093610780565b0190565b60200190565b906107c16107bb6107b48461076d565b8093610771565b9261077a565b905f5b8181106107d15750505090565b9091926107ea6107e4600192865161078d565b9461079e565b91019190916107c4565b9395919461084561083a6108599561082c61084f956108669c9a61081f60e08c01925f8d0190610700565b8a820360208c015261072f565b9088820360408a015261072f565b9760608701906106a0565b6080850190610760565b60a083019061023d565b60c08184039101526107a4565b90565b346108a057610879366004610398565b61089c610884610ed0565b93610893979597939193610142565b978897886107f4565b0390f35b610148565b91906108b8905f60208501940190610760565b565b346108ea576108ca366004610398565b6108e66108d5610f8b565b6108dd610142565b918291826108a5565b0390f35b610148565b9190604083820312610917578061090b610914925f86016102a8565b9360200161060f565b90565b61014c565b3461094b5761093561092f3660046108ef565b9061143c565b61093d610142565b8061094781610464565b0390f35b610148565b7fe598a4ac7dee0fa05d1947b6131b11a79681e19f385eb08037a4859d57b01a9f90565b61097c610950565b90565b346109af5761098f366004610398565b6109ab61099a610974565b6109a2610142565b9182918261024a565b0390f35b610148565b346109e2576109cc6109c73660046102b7565b611817565b6109d4610142565b806109de81610464565b0390f35b610148565b5f80fd5b90816101209103126109fa5790565b6109e7565b5f80fd5b5f80fd5b5f80fd5b909182601f83011215610a455781359167ffffffffffffffff8311610a40576020019260018302840111610a3b57565b610a07565b610a03565b6109ff565b91909161014081840312610a8d57610a64835f83016109eb565b9261012082013567ffffffffffffffff8111610a8857610a849201610a0b565b9091565b610150565b61014c565b34610ac357610abf610aae610aa8366004610a4a565b91612996565b610ab6610142565b918291826106ad565b0390f35b610148565b90610ad2906102d5565b5f5260205260405f2090565b610af490610aef6008915f92610ac8565b610679565b90565b34610b2757610b23610b12610b0d3660046102b7565b610ade565b610b1a610142565b918291826106ad565b0390f35b610148565b909182601f83011215610b665781359167ffffffffffffffff8311610b61576020019260208302840111610b5c57565b610a07565b610a03565b6109ff565b909160a082840312610bef57610b83835f840161060f565b92610b91816020850161060f565b92610b9f826040830161016b565b92606082013567ffffffffffffffff8111610bea5783610bc0918401610b2c565b929093608082013567ffffffffffffffff8111610be557610be19201610a0b565b9091565b610150565b610150565b61014c565b34610c2b57610c27610c16610c0a366004610b6b565b95949094939193612e96565b610c1e610142565b918291826106ad565b0390f35b610148565b90610c3a9061063c565b5f5260205260405f2090565b610c5c90610c576006915f92610c30565b610200565b90565b34610c8f57610c8b610c7a610c7536600461061e565b610c46565b610c82610142565b9182918261024a565b0390f35b610148565b34610cc257610cac610ca736600461061e565b612f15565b610cb4610142565b80610cbe81610464565b0390f35b610148565b7f000000000000000000000000000000000000000000000000000000000000000090565b610cf4906103d9565b90565b610d0090610ceb565b90565b610d0c90610cf7565b9052565b9190610d23905f60208501940190610d03565b565b34610d5557610d35366004610398565b610d51610d40610cc7565b610d48610142565b91829182610d10565b0390f35b610148565b5f80fd5b610d66612f20565b610d6e610d9b565b565b90565b610d87610d82610d8c92610d70565b6103d6565b6103cb565b90565b610d9890610d73565b90565b610dac610da75f610d8f565b612f91565b565b610db6610d5e565b565b5f90565b606090565b5f90565b5f90565b5f90565b606090565b610ddb906103f5565b90565b610df2610ded610df792610d70565b610562565b61023a565b90565b610e0e610e09610e1392610d70565b6103d6565b610154565b90565b634e487b7160e01b5f52604160045260245ffd5b90610e3490610725565b810190811067ffffffffffffffff821117610e4e57604052565b610e16565b90610e66610e5f610142565b9283610e2a565b565b67ffffffffffffffff8111610e805760208091020190565b610e16565b90610e97610e9283610e68565b610e53565b918252565b369037565b90610ec6610eae83610e85565b92602080610ebc8693610e68565b9201910390610e9c565b565b600f60f81b90565b610ed8610db8565b50610ee1610dbc565b50610eea610dbc565b50610ef3610dc1565b50610efc610dc5565b50610f05610dc9565b50610f0e610dcd565b50610f17612ff3565b90610f20613033565b904690610f2c30610dd2565b90610f365f610dde565b90610f48610f435f610dfa565b610ea1565b90610f51610ec8565b96959493929190565b5f1c90565b60018060a01b031690565b610f76610f7b91610f5a565b610f5f565b90565b610f889054610f6a565b90565b610f93610dc5565b50610f9d5f610f7e565b90565b90610fb291610fad612f20565b611300565b565b610fc0610fc591610f5a565b6104b2565b90565b610fd29054610fb4565b90565b5f7f4164617074657220616c72656164792065786973747300000000000000000000910152565b6110096016602092610711565b61101281610fd5565b0190565b61102b9060208101905f818303910152610ffc565b90565b1561103557565b61103d610142565b62461bcd60e51b81528061105360048201611016565b0390fd5b61106361106891610f5a565b6101e5565b90565b6110759054611057565b90565b60207f6564000000000000000000000000000000000000000000000000000000000000917f41646170746572206164647265737320616c72656164792072656769737465725f8201520152565b6110d26022604092610711565b6110db81611078565b0190565b6110f49060208101905f8183039101526110c5565b90565b156110fe57565b611106610142565b62461bcd60e51b81528061111c600482016110df565b0390fd5b611129906103d9565b90565b61113590611120565b90565b9061114960018060a01b0391610562565b9181191691161790565b61115c90611120565b90565b90565b9061117761117261117e92611153565b61115f565b8254611138565b9055565b9061118e5f1991610562565b9181191691161790565b6111a190610f5a565b90565b906111b96111b46111c0926102d5565b611198565b8254611182565b9055565b906111d060ff91610562565b9181191691161790565b6111e39061033c565b90565b90565b906111fe6111f9611205926111da565b6111e6565b82546111c4565b9055565b61121d61121861122292610154565b6103d6565b610154565b90565b90565b9061123d61123861124492611209565b611225565b8254611182565b9055565b90565b5f5260205f2090565b5490565b61126181611254565b82101561127b5761127360019161124b565b910201905f90565b610198565b1b90565b9190600861129f9102916112995f1984611280565b92611280565b9181191691161790565b91906112bf6112ba6112c7936102d5565b611198565b908354611284565b9055565b90815491680100000000000000008310156112fb57826112f39160016112f995018155611258565b906112a9565b565b610e16565b61133f61131f61131a6113156004859061049c565b610fc8565b6104fc565b61133961133361132e5f610d8f565b6105ef565b916105ef565b1461102e565b61137661135661135160068590610c30565b61106b565b61137061136a6113655f610dde565b61023a565b9161023a565b146110f7565b6113936113828361112c565b61138e6004849061049c565b611162565b6113a8816113a360068590610c30565b6111a4565b6113be60016113b9600584906102e1565b6111e9565b6113dc6113cb60076101ac565b6113d760088490610ac8565b611228565b6113f06113e96007611248565b82906112cb565b9061142461141e7fffb25df5d2d30d127965307d95064a9c230c5bb55a674df324bf55bf2aa7ef8d936102d5565b9161063c565b9161142d610142565b8061143781610464565b0390a3565b9061144691610fa0565b565b61145990611454612f20565b6116a6565b565b5f7f4164617074657220646f6573206e6f7420657869737400000000000000000000910152565b61148f6016602092610711565b6114988161145b565b0190565b6114b19060208101905f818303910152611482565b90565b156114bb57565b6114c3610142565b62461bcd60e51b8152806114d96004820161149c565b0390fd5b6114e96114ee91610f5a565b61065e565b90565b6114fb90546114dd565b90565b90565b61151561151061151a926114fe565b6103d6565b610154565b90565b634e487b7160e01b5f52601160045260245ffd5b61154061154691939293610154565b92610154565b820391821161155157565b61151d565b634e487b7160e01b5f52603160045260245ffd5b61157c91611576610dc9565b916112a9565b565b61158781611254565b80156115a85760019003906115a561159f8383611258565b9061156a565b55565b611556565b91906115c36115be6115cb93611209565b611225565b908354611284565b9055565b6115e1916115db610dc1565b916115ad565b565b919060086116039102916115fd60018060a01b0384611280565b92611280565b9181191691161790565b919061162361161e61162b93611153565b61115f565b9083546115e3565b9055565b5f90565b6116459161163f61162f565b9161160d565b565b9190600861166291029161165c60ff84611280565b92611280565b9181191691161790565b919061168261167d61168a936111da565b6111e6565b908354611647565b9055565b5f90565b6116a49161169e61168e565b9161166c565b565b6116e66116c56116c06116bb6004859061049c565b610fc8565b6104fc565b6116df6116d96116d45f610d8f565b6105ef565b916105ef565b14156114b4565b6117ab5f6117a66117096117046116ff6004879061049c565b610fc8565b6104fc565b61177861172061171b60088890610ac8565b6114f1565b61177361175461174e600761174861173860076101ac565b6117426001611501565b90611531565b906101b9565b90610200565b9161176b83611765600784906101b9565b906112a9565b916008610ac8565b611228565b61178a6117856007611248565b61157e565b61179f8361179a60088890610ac8565b6115cf565b6006610c30565b61156a565b6117c05f6117bb6004849061049c565b611633565b6117d55f6117d0600584906102e1565b611692565b6117ff7f93ecc5e9aa51bb2adb2cf429a5108116cf98c4f717f0912d1be98e137ba6ef60916102d5565b90611808610142565b8061181281610464565b0390a2565b61182090611448565b565b9061183693929161183161309f565b612155565b9061183f6130d8565b565b5061185090602081019061060f565b90565b61185c906105ef565b9052565b5061186f90602081019061016b565b90565b9061010061195461195c9361189561188c5f830183611841565b5f860190611853565b6118af6118a56020830183611841565b6020860190611853565b6118c96118bf6040830183611841565b6040860190611853565b6118e36118d96060830183611860565b6060860190610780565b6118fd6118f36080830183611860565b6080860190610780565b61191761190d60a0830183611860565b60a0860190610780565b61193161192760c0830183611860565b60c0860190610780565b61194b61194160e0830183611841565b60e0860190611853565b82810190611860565b910190610780565b565b9190611972905f6101208501940190611872565b565b60200190565b5190565b3561198881610157565b90565b35611995816105fb565b90565b5f7f496e70757420616d6f756e742063616e6e6f74206265207a65726f0000000000910152565b6119cc601b602092610711565b6119d581611998565b0190565b6119ee9060208101905f8183039101526119bf565b90565b979593919a9998969492909a61014089019b5f8a01611a0f9161023d565b60208901611a1c91610760565b60408801611a2991610760565b60608701611a3691610760565b60808601611a43916106a0565b60a08501611a50916106a0565b60c08401611a5d916106a0565b60e08301611a6a916106a0565b6101008201611a7891610760565b61012001611a85916106a0565b565b5f80fd5b67ffffffffffffffff8111611aa957611aa5602091610725565b0190565b610e16565b90825f939282370152565b90929192611ace611ac982611a8b565b610e53565b93818552602085019082840111611aea57611ae892611aae565b565b611a87565b611afa913691611ab9565b90565b5f7f53706f74526f757465723a20496e76616c6964207369676e6174757265000000910152565b611b31601d602092610711565b611b3a81611afd565b0190565b611b539060208101905f818303910152611b24565b90565b15611b5d57565b611b65610142565b62461bcd60e51b815280611b7b60048201611b3e565b0390fd5b5f80fd5b60e01b90565b90505190611b9682610157565b565b90505190611ba5826105fb565b565b9190604083820312611bcf5780611bc3611bcc925f8601611b89565b93602001611b98565b90565b61014c565b90959492611c1f94611c0e611c1892611c04608096611bfa60a088019c5f890190610760565b6020870190610760565b6040850190610760565b60608301906106a0565b0190610760565b565b611c29610142565b3d5f823e3d90fd5b611c40611c4691939293610154565b92610154565b8201809211611c5157565b61151d565b5f7f416d6f756e7420696e206973206c657373207468616e20746f74616c20666565910152565b611c8960208092610711565b611c9281611c56565b0190565b611cab9060208101905f818303910152611c7d565b90565b15611cb557565b611cbd610142565b62461bcd60e51b815280611cd360048201611c96565b0390fd5b611ce0906103f5565b90565b5f910312611ced57565b61014c565b604090611d1b611d229496959396611d1160608401985f850190610760565b6020830190610760565b01906106a0565b565b611d2d906103d9565b90565b611d3990611d24565b90565b60209181520190565b611d4e9061023a565b9052565b90611d5f81602093611d45565b0190565b611d6d9054611057565b90565b60010190565b90611d93611d8d611d86846101ac565b8093611d3c565b926101b0565b905f5b818110611da35750505090565b909192611dc3611dbd600192611db887611d63565b611d52565b94611d70565b9101919091611d96565b90611dd791611d76565b90565b90611dfa611df392611dea610142565b93848092611dcd565b0383610e2a565b565b611e0590611dda565b90565b611e14611e1991610f5a565b6102f7565b90565b611e269054611e08565b90565b5f7f41646170746572206e6f742077686974656c6973746564000000000000000000910152565b611e5d6017602092610711565b611e6681611e29565b0190565b611e7f9060208101905f818303910152611e50565b90565b15611e8957565b611e91610142565b62461bcd60e51b815280611ea760048201611e6a565b0390fd5b611eb4906103f5565b90565b611ec08161033c565b03611ec757565b5f80fd5b90505190611ed882611eb7565b565b90602082820312611ef357611ef0915f01611ecb565b90565b61014c565b916020611f19929493611f1260408201965f830190610760565b01906106a0565b565b90602082820312611f3457611f31915f01611b89565b90565b61014c565b60209181520190565b611f61611f6a602093611f6f93611f588161197a565b93848093611f39565b9586910161071a565b610725565b0190565b9092611fa690611f9c611fb39694611f9260808601975f870190610760565b6020850190610760565b60408301906106a0565b6060818403910152611f42565b90565b90611fc8611fc383611a8b565b610e53565b918252565b606090565b3d5f14611fed57611fe23d611fb6565b903d5f602084013e5b565b611ff5611fcd565b90611feb565b90565b6120139160208201915f81840391015261072f565b90565b5f7f53776170206661696c6564000000000000000000000000000000000000000000910152565b61204a600b602092610711565b61205381612016565b0190565b61206c9060208101905f81830391015261203d565b90565b60207f6400000000000000000000000000000000000000000000000000000000000000917f53706f74526f757465723a20536c69707061676520636865636b206661696c655f8201520152565b6120c96021604092610711565b6120d28161206f565b0190565b6120eb9060208101905f8183039101526120bc565b90565b156120f557565b6120fd610142565b62461bcd60e51b815280612113600482016120d6565b0390fd5b61214c61215394612142606094989795612138608086019a5f8701906106a0565b60208501906106a0565b60408301906106a0565b01906106a0565b565b929061217261218182612166610142565b9283916020830161195e565b60208201810382520382610e2a565b61219361218d8261197a565b91611974565b20906121a16060820161197e565b806121b46121ae5f610dfa565b91610154565b1461292f576121cd6121c860a0840161197e565b61317e565b6122be6122a66121de5f850161198b565b966122a06121ee60c0870161197e565b976121fa8a8a9061323c565b61229a612205610950565b6122828c916122738d8c8c61221c6020830161198b565b926122296040840161198b565b916122366080850161197e565b9061224360a0860161197e565b929361225e61010061225760e0890161198b565b970161197e565b96612267610142565b9b8c9a60208c016119f1565b60208201810382520382610e2a565b61229461228e8261197a565b91611974565b20613293565b92611aef565b906132b0565b6122b86122b2886105ef565b916105ef565b14611b56565b6122cb610100830161197e565b916122d7828490611531565b9060406123037f0000000000000000000000000000000000000000000000000000000000000000610401565b63a02945169061234b8a9261235661231d6020880161198b565b9761232987890161198b565b9061233660e08a0161198b565b9161233f610142565b9a8b9889978897611b83565b875260048701611bd4565b03915afa801561292a575f809390916128f7575b50919061239e61237b868590611c31565b6123988661239161238b84610154565b91610154565b1015611cae565b85611531565b6123aa6020830161198b565b926123d47f0000000000000000000000000000000000000000000000000000000000000000611cd7565b63262709e68b86928992813b156128f2575f6124039161240e82966123f7610142565b98899788968795611b83565b855260048501611cf2565b03925af180156128ed576128c1575b50612429848790613301565b8661243c6124365f610dfa565b91610154565b116128a8575b8461245561244f5f610dfa565b91610154565b1161288d575b5061246860e0830161198b565b61248261247c6124775f610d8f565b6105ef565b916105ef565b14155f14612831576124cc61249960e0840161198b565b6124c76124c26124bd6124b66124b160068690610c30565b61106b565b60056102e1565b611e1c565b611e82565b61112c565b6124dd6124d885611d30565b611eab565b602063095ea7b3916124ee846104fc565b9061250c5f8795612517612500610142565b97889687958694611b83565b845260048401611ef8565b03925af1801561282c576020928c9261253592612801575b506104fc565b61258c5f6343a0a7f261259761256a8a9661257861255560408d0161198b565b9a9161255f610142565b9384918c83016108a5565b8b8201810382520383610e2a565b612580610142565b998a9889978896611b83565b865260048601611f73565b03925af180915f926127d1575b50155f146127c25750600161273f5760406125e9915b5b6125e38b6125dc6125d66125d16080860161197e565b610154565b91610154565b10156120ee565b0161198b565b916126137f0000000000000000000000000000000000000000000000000000000000000000611cd7565b637de182c58985928c92813b1561273a575f6126429161264d8296612636610142565b98899788968795611b83565b855260048501611cf2565b03925af1801561273557612709575b50879192936126b58a92966126a361269d6126977f0874b2d545cb271cdbda4e093020c452328b24af12382ed62c4d00f5c26709db9761063c565b9761063c565b9761063c565b976126ac610142565b94859485612117565b0390a49190916127036126f16126eb7f0c5cfa22cf12b6b83ccd06c70503190e489eac3cf94ef17aab2fbf7685bbd08f936102d5565b9361063c565b936126fa610142565b918291826106ad565b0390a390565b612728905f3d811161272e575b6127208183610e2a565b810190611ce3565b5f61265c565b503d612716565b611c21565b611b7f565b878661275461274c611fd2565b919291611ffb565b9161279d61278b6127857fc1b0f3e18bbd9cf79f692b5598ab8e07d61ae456c23db80aa646ec6dcb100424936102d5565b9361063c565b93612794610142565b91829182611ffe565b0390a36127a8610142565b62461bcd60e51b8152806127be60048201612057565b0390fd5b6125e9919950604090996125ba565b6127f391925060203d81116127fa575b6127eb8183610e2a565b810190611f1b565b905f6125a4565b503d6127e1565b61282090853d8111612825575b6128188183610e2a565b810190611eda565b61252f565b503d61280e565b611c21565b81995061288761286d6125e9938b604094612881612851878a950161198b565b919261287c600791612861610142565b978891602083016108a5565b60208201810382520387610e2a565b611dfc565b92613716565b996125bb565b6128a29061289a85611d30565b9086916134ad565b5f61245b565b6128bc6128b485611d30565b3389916134ad565b612442565b6128e0905f3d81116128e6575b6128d88183610e2a565b810190611ce3565b5f61241d565b503d6128ce565b611c21565b611b7f565b905061291b91925060403d8111612923575b6129138183610e2a565b810190611ba7565b91905f61236a565b503d612909565b611c21565b50935061294192505f9150920161198b565b61297461296e7fc1b0f3e18bbd9cf79f692b5598ab8e07d61ae456c23db80aa646ec6dcb100424936102d5565b9161063c565b9161297d610142565b80612987816119d9565b0390a36129935f610dfa565b90565b906129a992916129a4610dc1565b611822565b90565b906129c4979695949392916129bf61309f565b612b48565b906129cd6130d8565b565b5090565b60207f7200000000000000000000000000000000000000000000000000000000000000917f4d7573742073706563696679206174206c65617374206f6e65206164617074655f8201520152565b612a2d6021604092610711565b612a36816129d3565b0190565b612a4f9060208101905f818303910152612a20565b90565b15612a5957565b612a61610142565b62461bcd60e51b815280612a7760048201612a3a565b0390fd5b67ffffffffffffffff8111612a935760208091020190565b610e16565b90929192612aad612aa882612a7b565b610e53565b9381855260208086019202830192818411612aea57915b838310612ad15750505050565b60208091612adf84866102a8565b815201920191612ac4565b610a07565b612afa913691612a98565b90565b612b0690610dfa565b9052565b612b3f612b4694612b35606094989795612b2b608086019a5f8701906106a0565b60208501906106a0565b60408301906106a0565b0190612afd565b565b95909294919395508582612b5b916129cf565b5f612b6590610dfa565b90612b6f90610154565b11612b7990612a52565b33967f0000000000000000000000000000000000000000000000000000000000000000612ba590610401565b9663a02945169789988690889a8a5f612bbd90610d8f565b90612bc6610142565b9d8e95612bd38796611b83565b86526004860194612be395611bd4565b03815a93604094fa8015612e91575f80999091612e5e575b5097612c08888a90611531565b90612c327f0000000000000000000000000000000000000000000000000000000000000000611cd7565b9563262709e68c89988c92813b15612e59575f612c6291612c6d8296612c56610142565b9e8f9788968795611b83565b855260048501611cf2565b03925af1918215612e5457612cc897612cc293612e28575b50612c91898c90613301565b8b612ca4612c9e5f610dfa565b91610154565b11612e0d575b50612cbc88968a949592909692612aef565b94611aef565b93613716565b94612d05612cd584611d30565b612cfe7f0000000000000000000000000000000000000000000000000000000000000000611cd7565b88916134ad565b612d2e7f0000000000000000000000000000000000000000000000000000000000000000611cd7565b637de182c58285928992813b15612e08575f612d5d91612d688296612d51610142565b98899788968795611b83565b855260048501611cf2565b03925af18015612e0357612dd7575b5090919293859094612dd15f612dbf612db9612db37f0874b2d545cb271cdbda4e093020c452328b24af12382ed62c4d00f5c26709db9761063c565b9761063c565b9761063c565b97612dc8610142565b94859485612b0a565b0390a490565b612df6905f3d8111612dfc575b612dee8183610e2a565b810190611ce3565b5f612d77565b503d612de4565b611c21565b611b7f565b612e2290612e1a8a611d30565b908d916134ad565b5f612caa565b612e47905f3d8111612e4d575b612e3f8183610e2a565b810190611ce3565b5f612c85565b503d612e35565b611c21565b611b7f565b9050612e8291985060403d8111612e8a575b612e7a8183610e2a565b810190611ba7565b97905f612bfb565b503d612e70565b611c21565b90612ead969594939291612ea8610dc1565b6129ac565b90565b612ec190612ebc612f20565b612ec3565b565b80612ede612ed8612ed35f610d8f565b6105ef565b916105ef565b14612eee57612eec90612f91565b565b612f11612efa5f610d8f565b5f918291631e4fbdf760e01b8352600483016108a5565b0390fd5b612f1e90612eb0565b565b612f28610f8b565b612f41612f3b612f36613a50565b6105ef565b916105ef565b03612f4857565b612f6a612f53613a50565b5f91829163118cdaa760e01b8352600483016108a5565b0390fd5b90565b90612f86612f81612f8d9261063c565b612f6e565b8254611138565b9055565b612f9a5f610f7e565b612fa4825f612f71565b90612fd8612fd27f8be0079c531659141344cd1fd0a4f28419497f9722a3daafe3b4186f6b6457e09361063c565b9161063c565b91612fe1610142565b80612feb81610464565b0390a3565b90565b612ffb610dbc565b506130307f000000000000000000000000000000000000000000000000000000000000000061302a6001612ff0565b90613ba0565b90565b61303b610dbc565b506130707f000000000000000000000000000000000000000000000000000000000000000061306a6002612ff0565b90613ba0565b90565b90565b61308a61308561308f92613073565b6103d6565b610154565b90565b61309c6002613076565b90565b6130a7613bee565b6130c96130b2613092565b5f6130c36130be613c63565b613c77565b01611228565b565b6130d56001611501565b90565b6130fa6130e36130cb565b5f6130f46130ef613c63565b613c77565b01611228565b565b5f7f496e74656e7456657269666965723a2045787069726564000000000000000000910152565b6131306017602092610711565b613139816130fc565b0190565b6131529060208101905f818303910152613123565b90565b1561315c57565b613164610142565b62461bcd60e51b81528061317a6004820161313d565b0390fd5b61319c9061319561318f4292610154565b91610154565b1115613155565b565b5f7f496e74656e7456657269666965723a20496e76616c6964206e6f6e6365000000910152565b6131d2601d602092610711565b6131db8161319e565b0190565b6131f49060208101905f8183039101526131c5565b90565b156131fe57565b613206610142565b62461bcd60e51b81528061321c600482016131df565b0390fd5b61322990610154565b5f1981146132375760010190565b61151d565b61327a906132736132919361326d61326761326161325c60038790610648565b6114f1565b92610154565b91610154565b146131f7565b6003610648565b61328b613286826114f1565b613220565b90611228565b565b6132ad9061329f610dc9565b506132a8613c7a565b613d34565b90565b6132cf916132c6916132c0610dc5565b50613db8565b90929192613ea0565b90565b6132db906103f5565b90565b9160206132ff9294936132f860408201965f830190610760565b0190610760565b565b9061332b7f0000000000000000000000000000000000000000000000000000000000000000611cd7565b9063da3e33978361333b306132d2565b938392813b156134a8575f6133639161336e8296613357610142565b998a9788968795611b83565b855260048501611cf2565b03925af19182156134a3576133c692613477575b5061338c83611d30565b906133b67f0000000000000000000000000000000000000000000000000000000000000000611cd7565b6133bf306132d2565b9192613f71565b6133ef7f0000000000000000000000000000000000000000000000000000000000000000611cd7565b90633faec084906133ff306132d2565b92803b15613472576134245f809461342f613418610142565b97889687958694611b83565b8452600484016132de565b03925af1801561346d57613441575b50565b613460905f3d8111613466575b6134588183610e2a565b810190611ce3565b5f61343e565b503d61344e565b611c21565b611b7f565b613496905f3d811161349c575b61348e8183610e2a565b810190611ce3565b5f613382565b503d613484565b611c21565b611b7f565b916134c6916134c0918491600192613fbc565b1561033c565b6134cd5750565b6134d96134f091611eab565b5f918291635274afe760e01b8352600483016108a5565b0390fd5b60016135009101610154565b90565b5190565b9061351182613503565b811015613522576020809102010190565b610198565b613531905161023a565b90565b5f7f4e6f2076616c69642071756f746520666f756e64000000000000000000000000910152565b6135686014602092610711565b61357181613534565b0190565b61358a9060208101905f81830391015261355b565b90565b1561359457565b61359c610142565b62461bcd60e51b8152806135b260048201613575565b0390fd5b60209181520190565b60200190565b60200190565b906135e86135e26135db84613503565b80936135b6565b926135bf565b905f5b8181106135f85750505090565b90919261361161360b6001928651611d52565b946135c5565b91019190916135eb565b60207f6f74650000000000000000000000000000000000000000000000000000000000917f5377617020657865637574696f6e206661696c656420746f206d6565742071755f8201520152565b6136756023604092610711565b61367e8161361b565b0190565b92936136b76136d2956136ad6136c4956136a360a08901965f8a0190610760565b6020880190610760565b60408601906106a0565b83820360608501526135cb565b906080818303910152613668565b90565b6136ea9060208101905f818303910152613668565b90565b156136f457565b6136fc610142565b62461bcd60e51b815280613712600482016136d5565b0390fd5b92949190613722610dc1565b5061372c5f610dfa565b9261373561162f565b9561373f5f610dfa565b5b8061375b6137556137508c613503565b610154565b91610154565b10156138875761377461376f8a8390613507565b613527565b61379161378b613786600584906102e1565b611e1c565b1561033c565b61387d576137a36137a891600461049c565b610fc8565b6137b1816104fc565b602063b6466384918a906137d95f8a956137e48d6137cd610142565b98899788968795611b83565b855260048501611cf2565b03925af180915f9261384d575b50155f1461381757505061380d906001613812575b5b5b6134f4565b613740565b613806565b8061382a6138248a610154565b91610154565b1161383b575b505061380d90613807565b90965061380d9198509597905f613830565b61386f91925060203d8111613876575b6138678183610e2a565b810190611f1b565b905f6137f1565b503d61385d565b5061380d90613808565b50949596929190966138bc61389b826104fc565b6138b56138af6138aa5f610d8f565b6105ef565b916105ef565b141561358d565b6138cd6138c888611d30565b611eab565b90602063095ea7b3926138df836104fc565b906138fd5f88966139086138f1610142565b98899687958694611b83565b845260048401611ef8565b03925af1908115613a4b5760209261392592613a20575b506104fc565b6343a0a7f29061394b5f8a93613956879b8961393f610142565b9d8e9889978896611b83565b865260048601611f73565b03925af18015613a1b576139a4955f916139ed575b50958661398061397a87610154565b91610154565b106139a7575b5050505061399d6139978492610154565b91610154565b10156136ed565b90565b6139e1909192937f2e870ab1201a8d1f158463f2825c320723ce6b1dae728beb3e97e1834e50177d946139d8610142565b94859485613682565b0390a15f808080613986565b613a0e915060203d8111613a14575b613a068183610e2a565b810190611f1b565b5f61396b565b503d6139fc565b611c21565b613a3f90843d8111613a44575b613a378183610e2a565b810190611eda565b61391f565b503d613a2d565b611c21565b613a58610dc5565b503390565b90565b613a74613a6f613a7992613a5d565b610562565b61023a565b90565b613a8660ff613a60565b90565b634e487b7160e01b5f52602260045260245ffd5b9060016002830492168015613abd575b6020831014613ab857565b613a89565b91607f1691613aad565b60209181520190565b5f5260205f2090565b905f9291805490613af3613aec83613a9d565b8094613ac7565b916001811690815f14613b4a5750600114613b0e575b505050565b613b1b9192939450613ad0565b915f925b818410613b3257505001905f8080613b09565b60018160209295939554848601520191019290613b1f565b92949550505060ff19168252151560200201905f8080613b09565b90613b6f91613ad9565b90565b90613b92613b8b92613b82610142565b93848092613b65565b0383610e2a565b565b613b9d90613b72565b90565b90613ba9610dbc565b50613bb3826102d5565b613bcc613bc6613bc1613a7c565b61023a565b9161023a565b14155f14613be15750613bde906140ab565b90565b613beb9150613b94565b90565b613bf66140db565b613bfc57565b5f633ee5aeb560e01b815280613c1460048201610464565b0390fd5b90565b613c2f613c2a613c3492613c18565b610562565b61023a565b90565b613c607f9b779b17422d0df92223018b32b4d1fa46e071723d6817e2486d003becc55f00613c1b565b90565b613c6b610dc9565b50613c74613c37565b90565b90565b613c82610dc9565b50613c8c30610dd2565b613cbe613cb87f00000000000000000000000000000000000000000000000000000000000000006105ef565b916105ef565b1480613cfa575b5f14613cef577f000000000000000000000000000000000000000000000000000000000000000090565b613cf761418c565b90565b5046613d2e613d287f0000000000000000000000000000000000000000000000000000000000000000610154565b91610154565b14613cc5565b604291613d3f610dc9565b50604051917f19010000000000000000000000000000000000000000000000000000000000008352600283015260228201522090565b5f90565b90565b613d90613d8b613d9592613d79565b6103d6565b610154565b90565b613dac613da7613db192610154565b610562565b61023a565b90565b5f90565b919091613dc3610dc5565b50613dcc613d75565b50613dd5610dc9565b50613ddf8361197a565b613df2613dec6041613d7c565b91610154565b145f14613e3957613e329192613e06610dc9565b50613e0f610dc9565b50613e18613db4565b506020810151606060408301519201515f1a90919261429a565b9192909190565b50613e435f610d8f565b90613e57613e5260029461197a565b613d98565b91929190565b634e487b7160e01b5f52602160045260245ffd5b60041115613e7b57565b613e5d565b90613e8a82613e71565b565b613e98613e9d91610f5a565b611209565b90565b80613eb3613ead5f613e80565b91613e80565b145f14613ebe575050565b80613ed2613ecc6001613e80565b91613e80565b145f14613ef5575f63f645eedf60e01b815280613ef160048201610464565b0390fd5b80613f09613f036002613e80565b91613e80565b145f14613f3757613f33613f1c83613e8c565b5f91829163fce698f760e01b8352600483016106ad565b0390fd5b613f4a613f446003613e80565b91613e80565b14613f525750565b613f6d905f9182916335e2f38360e21b83526004830161024a565b0390fd5b9290613f8e92613f88928592919091600193614396565b1561033c565b613f955750565b613fa1613fb891611eab565b5f918291635274afe760e01b8352600483016108a5565b0390fd5b9091939293613fc961168e565b5063a9059cbb60e01b92604051935f525f1960601c1660045260245260205f60448180855af19360015f5114851615614004575b5050604052565b849294151661401d575f903b113d151616915f80613ffd565b833d5f823e3d90fd5b90565b61403d61403861404292614026565b6103d6565b610154565b90565b67ffffffffffffffff81116140635761405f602091610725565b0190565b610e16565b9061407a61407583614045565b610e53565b918252565b369037565b906140a961409183614068565b9260208061409f8693614045565b920191039061407f565b565b6140b3610dbc565b506140bd8161444a565b906140d06140cb6020614029565b614084565b918252602082015290565b6140e361168e565b506140fe5f6140f86140f3613c63565b613c77565b016114f1565b61411761411161410c613092565b610154565b91610154565b1490565b7f8b73c3c69bb8fe3d512ecc4cf759cc79239f7b179b0ffacaa9a75d522b39400f90565b9095949261418a946141796141839261416f60809661416560a088019c5f89019061023d565b602087019061023d565b604085019061023d565b60608301906106a0565b0190610760565b565b614194610dc9565b5061419d61411b565b6142147f0000000000000000000000000000000000000000000000000000000000000000916142057f0000000000000000000000000000000000000000000000000000000000000000466141f030610dd2565b916141f9610142565b9687956020870161413f565b60208201810382520382610e2a565b6142266142208261197a565b91611974565b2090565b90565b61424161423c6142469261422a565b6103d6565b610154565b90565b60ff1690565b61425890614249565b9052565b6142916142989461428760609498979561427d608086019a5f87019061023d565b602085019061424f565b604083019061023d565b019061023d565b565b9392936142a5610dc5565b506142ae613d75565b506142b7610dc9565b506142c185613e8c565b6142f36142ed7f7fffffffffffffffffffffffffffffff5d576e7357a4501ddfe92f46681b20a061422d565b91610154565b116143805790614316602094955f9493929361430d610142565b9485948561425c565b838052039060015afa1561437b5761432e5f51610562565b8061434961434361433e5f610d8f565b6105ef565b916105ef565b1461435f575f916143595f610dde565b91929190565b506143695f610d8f565b6001916143755f610dde565b91929190565b611c21565b50505061438c5f610d8f565b9060039291929190565b919493949290926143a561168e565b506323b872dd60e01b93604051945f525f1960601c166004525f1960601c1660245260445260205f60648180855af19360015f51148516156143ed575b50506040525f606052565b8492941516614406575f903b113d151616915f806143e2565b833d5f823e3d90fd5b61442361441e61442892613a5d565b6103d6565b610154565b90565b90565b61444261443d6144479261442b565b6103d6565b610154565b90565b61445f61446491614459610dc1565b506102d5565b613e8c565b61446e60ff61440f565b168061448361447d601f61442e565b91610154565b1161448b5790565b5f632cd44ac360e21b8152806144a360048201610464565b0390fdfea26469706673582212200bcc498d899a8c5f0bb703ef52bec8e003cd37445570c554b5d38b93fda9cf8464736f6c63430008210033","linkReferences":{}},"methodIdentifiers":{"CANCEL_TYPEHASH()":"73fca6ea","SWAP_INTENT_TYPEHASH()":"b0825578","adapterAddressToId(address)":"dd5dc842","adapterIdToIndex(bytes32)":"d8809bba","adapters(bytes32)":"72c6838f","addAdapter(bytes32,address)":"a9212b5b","allAdapters(uint256)":"11962e85","eip712Domain()":"84b0196e","executeSwap((address,address,address,uint256,uint256,uint256,uint256,address,uint256),bytes)":"baf8bc24","feeController()":"6999b377","nonces(address)":"7ecebe00","owner()":"8da5cb5b","removeAdapter(bytes32)":"b59b1176","renounceOwnership()":"715018a6","swap(address,address,uint256,bytes32[],bytes)":"d9097dd2","transferOwnership(address)":"f2fde38b","vault()":"fbfa77cf","whitelistedAdapters(bytes32)":"2c4e9939"},"id":2}