{"abi":[{"type":"constructor","inputs":[{"name":"_vault","type":"address","internalType":"address"},{"name":"_feeController","type":"address","internalType":"address"},{"name":"_name","type":"string","internalType":"string"},{"name":"_version","type":"string","internalType":"string"}],"stateMutability":"nonpayable"},{"type":"function","name":"CANCEL_TYPEHASH","inputs":[],"outputs":[{"name":"","type":"bytes32","internalType":"bytes32"}],"stateMutability":"view"},{"type":"function","name":"SWAP_INTENT_TYPEHASH","inputs":[],"outputs":[{"name":"","type":"bytes32","internalType":"bytes32"}],"stateMutability":"view"},{"type":"function","name":"adapterAddressToId","inputs":[{"name":"","type":"address","internalType":"address"}],"outputs":[{"name":"","type":"bytes32","internalType":"bytes32"}],"stateMutability":"view"},{"type":"function","name":"adapters","inputs":[{"name":"","type":"bytes32","internalType":"bytes32"}],"outputs":[{"name":"","type":"address","internalType":"contract IAdapter"}],"stateMutability":"view"},{"type":"function","name":"addAdapter","inputs":[{"name":"id","type":"bytes32","internalType":"bytes32"},{"name":"adapter","type":"address","internalType":"address"}],"outputs":[],"stateMutability":"nonpayable"},{"type":"function","name":"eip712Domain","inputs":[],"outputs":[{"name":"fields","type":"bytes1","internalType":"bytes1"},{"name":"name","type":"string","internalType":"string"},{"name":"version","type":"string","internalType":"string"},{"name":"chainId","type":"uint256","internalType":"uint256"},{"name":"verifyingContract","type":"address","internalType":"address"},{"name":"salt","type":"bytes32","internalType":"bytes32"},{"name":"extensions","type":"uint256[]","internalType":"uint256[]"}],"stateMutability":"view"},{"type":"function","name":"executeSwap","inputs":[{"name":"intent","type":"tuple","internalType":"struct ISpotRouter.SwapIntent","components":[{"name":"user","type":"address","internalType":"address"},{"name":"tokenIn","type":"address","internalType":"address"},{"name":"tokenOut","type":"address","internalType":"address"},{"name":"amountIn","type":"uint256","internalType":"uint256"},{"name":"minAmountOut","type":"uint256","internalType":"uint256"},{"name":"deadline","type":"uint256","internalType":"uint256"},{"name":"nonce","type":"uint256","internalType":"uint256"},{"name":"adapter","type":"address","internalType":"address"}]},{"name":"signature","type":"bytes","internalType":"bytes"}],"outputs":[{"name":"amountOut","type":"uint256","internalType":"uint256"}],"stateMutability":"nonpayable"},{"type":"function","name":"feeController","inputs":[],"outputs":[{"name":"","type":"address","internalType":"contract IFeeController"}],"stateMutability":"view"},{"type":"function","name":"nonces","inputs":[{"name":"","type":"address","internalType":"address"}],"outputs":[{"name":"","type":"uint256","internalType":"uint256"}],"stateMutability":"view"},{"type":"function","name":"owner","inputs":[],"outputs":[{"name":"","type":"address","internalType":"address"}],"stateMutability":"view"},{"type":"function","name":"removeAdapter","inputs":[{"name":"id","type":"bytes32","internalType":"bytes32"}],"outputs":[],"stateMutability":"nonpayable"},{"type":"function","name":"renounceOwnership","inputs":[],"outputs":[],"stateMutability":"nonpayable"},{"type":"function","name":"swap","inputs":[{"name":"tokenIn","type":"address","internalType":"address"},{"name":"tokenOut","type":"address","internalType":"address"},{"name":"amountIn","type":"uint256","internalType":"uint256"},{"name":"adapterIds","type":"bytes32[]","internalType":"bytes32[]"},{"name":"data","type":"bytes","internalType":"bytes"}],"outputs":[{"name":"amountOut","type":"uint256","internalType":"uint256"}],"stateMutability":"nonpayable"},{"type":"function","name":"transferOwnership","inputs":[{"name":"newOwner","type":"address","internalType":"address"}],"outputs":[],"stateMutability":"nonpayable"},{"type":"function","name":"vault","inputs":[],"outputs":[{"name":"","type":"address","internalType":"contract VaultSpot"}],"stateMutability":"view"},{"type":"function","name":"whitelistedAdapters","inputs":[{"name":"","type":"bytes32","internalType":"bytes32"}],"outputs":[{"name":"","type":"bool","internalType":"bool"}],"stateMutability":"view"},{"type":"event","name":"AdapterAdded","inputs":[{"name":"id","type":"bytes32","indexed":true,"internalType":"bytes32"},{"name":"adapter","type":"address","indexed":true,"internalType":"address"}],"anonymous":false},{"type":"event","name":"AdapterRemoved","inputs":[{"name":"id","type":"bytes32","indexed":true,"internalType":"bytes32"}],"anonymous":false},{"type":"event","name":"EIP712DomainChanged","inputs":[],"anonymous":false},{"type":"event","name":"OwnershipTransferred","inputs":[{"name":"previousOwner","type":"address","indexed":true,"internalType":"address"},{"name":"newOwner","type":"address","indexed":true,"internalType":"address"}],"anonymous":false},{"type":"event","name":"Swap","inputs":[{"name":"user","type":"address","indexed":true,"internalType":"address"},{"name":"tokenIn","type":"address","indexed":true,"internalType":"address"},{"name":"tokenOut","type":"address","indexed":true,"internalType":"address"},{"name":"amountIn","type":"uint256","indexed":false,"internalType":"uint256"},{"name":"amountOut","type":"uint256","indexed":false,"internalType":"uint256"},{"name":"protocolFee","type":"uint256","indexed":false,"internalType":"uint256"},{"name":"relayerFee","type":"uint256","indexed":false,"internalType":"uint256"}],"anonymous":false},{"type":"error","name":"ECDSAInvalidSignature","inputs":[]},{"type":"error","name":"ECDSAInvalidSignatureLength","inputs":[{"name":"length","type":"uint256","internalType":"uint256"}]},{"type":"error","name":"ECDSAInvalidSignatureS","inputs":[{"name":"s","type":"bytes32","internalType":"bytes32"}]},{"type":"error","name":"InvalidShortString","inputs":[]},{"type":"error","name":"OwnableInvalidOwner","inputs":[{"name":"owner","type":"address","internalType":"address"}]},{"type":"error","name":"OwnableUnauthorizedAccount","inputs":[{"name":"account","type":"address","internalType":"address"}]},{"type":"error","name":"ReentrancyGuardReentrantCall","inputs":[]},{"type":"error","name":"SafeERC20FailedOperation","inputs":[{"name":"token","type":"address","internalType":"address"}]},{"type":"error","name":"StringTooLong","inputs":[{"name":"str","type":"string","internalType":"string"}]}],"bytecode":{"object":"0x6101a0604052346100d05761001e61001561027b565b929190916102ee565b6100266100d5565b613afd610c0d82396080518161314f015260a05181613186015260c05181613116015260e0518161370d0152610100518161373201526101205181612b4301526101405181612b83015261016051818181610b7d015281816114a1015281816116ab01528181612257015281816123100152818161234001528181612875015281816129000152612939015261018051818181610356015281816113e101526121c50152613afd90f35b6100db565b60405190565b5f80fd5b601f801991011690565b634e487b7160e01b5f52604160045260245ffd5b90610107906100df565b810190811060018060401b0382111761011f57604052565b6100e9565b906101376101306100d5565b92836100fd565b565b5f80fd5b5f80fd5b60018060a01b031690565b61015590610141565b90565b6101618161014c565b0361016857565b5f80fd5b9050519061017982610158565b565b5f80fd5b5f80fd5b60018060401b03811161019f5761019b6020916100df565b0190565b6100e9565b90825f9392825e0152565b909291926101c46101bf82610183565b610124565b938185526020850190828401116101e0576101de926101a4565b565b61017f565b9080601f8301121561020357816020610200935191016101af565b90565b61017b565b906080828203126102765761021f815f840161016c565b9261022d826020850161016c565b92604081015160018060401b038111610271578361024c9183016101e5565b92606082015160018060401b03811161026c5761026992016101e5565b90565b61013d565b61013d565b610139565b61029961470a8038038061028e81610124565b928339810190610208565b90919293565b90565b6102b66102b16102bb92610141565b61029f565b610141565b90565b6102c7906102a2565b90565b6102d3906102be565b90565b6102df906102a2565b90565b6102eb906102d6565b90565b610302610310946103079394903391610316565b6102ca565b610160526102e2565b61018052565b90610321929161034b565b565b90565b90565b60200190565b5190565b61033c906102a2565b90565b61034890610333565b90565b6103909061035b6103ab946103df565b61036f816103696001610323565b906107e6565b61012052610387836103816002610323565b906107e6565b61014052610326565b6103a261039c8261032f565b91610329565b2060e052610326565b6103bd6103b78261032f565b91610329565b20610100524660a0526103ce6108eb565b6080526103da3061033f565b60c052565b6103e8906103ea565b565b6103f39061047e565b565b90565b90565b61040f61040a610414926103f5565b61029f565b6103f8565b90565b61042160016103fb565b90565b5f1b90565b906104355f1991610424565b9181191691161790565b61045361044e610458926103f8565b61029f565b6103f8565b90565b90565b9061047361046e61047a9261043f565b61045b565b8254610429565b9055565b610487906104f8565b6104a9610492610417565b5f6104a361049e6109a7565b6109bb565b0161045e565b565b90565b6104c26104bd6104c7926104ab565b61029f565b610141565b90565b6104d3906104ae565b90565b6104df9061014c565b9052565b91906104f6905f602085019401906104d6565b565b8061051361050d6105085f6104ca565b61014c565b9161014c565b146105235761052190610a3e565b565b61054661052f5f6104ca565b5f918291631e4fbdf760e01b8352600483016104e3565b0390fd5b5f90565b90565b61056561056061056a9261054e565b61029f565b6103f8565b90565b5190565b634e487b7160e01b5f52602260045260245ffd5b90600160028304921680156105a5575b60208310146105a057565b610571565b91607f1691610595565b5f5260205f2090565b601f602091010490565b1b90565b919060086105e19102916105db5f19846105c2565b926105c2565b9181191691161790565b91906106016105fc6106099361043f565b61045b565b9083546105c6565b9055565b5f90565b6106239161061d61060d565b916105eb565b565b5f5b82811061063357505050565b806106425f6001938501610611565b01610627565b9190601f8111610658575b505050565b818111610665575b610653565b61067a610674610698946105af565b916105b8565b916020610686826105b8565b91106106a0575b809101910390610625565b5f8080610660565b505f61068d565b1c90565b906106bb905f19906008026106a7565b191690565b816106ca916106ab565b906002021790565b906106dc8161056d565b9060018060401b03821161079a576106fe826106f88554610585565b85610648565b602090601f831160011461073257918091610721935f92610726575b50506106c0565b90555b565b90915001515f8061071a565b601f19831691610741856105af565b925f5b81811061078257509160029391856001969410610768575b50505002019055610724565b610778910151601f8416906106ab565b90555f808061075c565b91936020600181928787015181550195019201610744565b6100e9565b906107a9916106d2565b565b90565b90565b6107c56107c06107ca926107ab565b610424565b6107ae565b90565b6107d760ff6107b1565b90565b6107e3906107ae565b90565b906107ef61054a565b506108016107fc83610326565b61032f565b61081461080e6020610551565b916103f8565b105f14610828575061082590610b82565b90565b5f61083661083c9392610a9d565b0161079f565b61084c6108476107cd565b6107da565b90565b5f90565b7f8b73c3c69bb8fe3d512ecc4cf759cc79239f7b179b0ffacaa9a75d522b39400f90565b61088190516107ae565b90565b61088d906107ae565b9052565b61089a906103f8565b9052565b909594926108e9946108d86108e2926108ce6080966108c460a088019c5f890190610884565b6020870190610884565b6040850190610884565b6060830190610891565b01906104d6565b565b6108f361084f565b506108fc610853565b61094661090960e0610877565b91610937610918610100610877565b466109223061033f565b9161092b6100d5565b9687956020870161089e565b602082018103825203826100fd565b6109586109528261032f565b91610329565b2090565b90565b61097361096e6109789261095c565b610424565b6107ae565b90565b6109a47f9b779b17422d0df92223018b32b4d1fa46e071723d6817e2486d003becc55f0061095f565b90565b6109af61084f565b506109b861097b565b90565b90565b5f1c90565b60018060a01b031690565b6109da6109df916109be565b6109c3565b90565b6109ec90546109ce565b90565b90610a0060018060a01b0391610424565b9181191691161790565b610a1390610333565b90565b90565b90610a2e610a29610a3592610a0a565b610a16565b82546109ef565b9055565b5f0190565b610a475f6109e2565b610a51825f610a19565b90610a85610a7f7f8be0079c531659141344cd1fd0a4f28419497f9722a3daafe3b4186f6b6457e093610a0a565b91610a0a565b91610a8e6100d5565b80610a9881610a39565b0390a3565b90565b90565b610ab7610ab2610abc92610aa0565b61029f565b6103f8565b90565b60209181520190565b610ae7610af0602093610af593610ade8161056d565b93848093610abf565b958691016101a4565b6100df565b0190565b610b0e9160208201915f818403910152610ac8565b90565b610b2b610b26610b208361032f565b92610329565b610877565b9060208110610b39575b5090565b610b4b905f19906020036008026105c2565b165f610b35565b610b5e610b63916109be565b61043f565b90565b610b7a610b75610b7f926103f8565b610424565b6107ae565b90565b610b8a61054a565b50610b9481610326565b90610b9e8261032f565b610bb1610bab601f610aa3565b916103f8565b11610be65750610bde81610bd8610bd2610bcd610be395610b11565b610b52565b9161032f565b17610b66565b6107da565b90565b610c0890610bf26100d5565b91829163305a27a960e01b835260048301610af9565b0390fdfe60806040526004361015610013575b610c02565b61001d5f3561011c565b80632c4e993914610117578063400dcba6146101125780636999b3771461010d578063715018a61461010857806372c6838f1461010357806373fca6ea146100fe5780637ecebe00146100f957806384b0196e146100f45780638da5cb5b146100ef578063a9212b5b146100ea578063b0825578146100e5578063b59b1176146100e0578063d9097dd2146100db578063dd5dc842146100d6578063f2fde38b146100d15763fbfa77cf0361000e57610bcd565b610b48565b610b13565b610a7f565b610961565b61092c565b6108c9565b610867565b610816565b61066f565b610589565b6104d7565b610416565b6103dc565b61030f565b61020a565b60e01c90565b60405190565b5f80fd5b5f80fd5b5f80fd5b90565b61014081610134565b0361014757565b5f80fd5b9050359061015882610137565b565b9060208282031261017357610170915f0161014b565b90565b61012c565b61018190610134565b90565b9061018e90610178565b5f5260205260405f2090565b1c90565b60ff1690565b6101b49060086101b9930261019a565b61019e565b90565b906101c791546101a4565b90565b6101e0906101db6005915f92610184565b6101bc565b90565b151590565b6101f1906101e3565b9052565b9190610208905f602085019401906101e8565b565b3461023a5761023661022561022036600461015a565b6101ca565b61022d610122565b918291826101f5565b0390f35b610128565b5f80fd5b90816101009103126102525790565b61023f565b5f80fd5b5f80fd5b5f80fd5b909182601f8301121561029d5781359167ffffffffffffffff831161029857602001926001830284011161029357565b61025f565b61025b565b610257565b919091610120818403126102e5576102bc835f8301610243565b9261010082013567ffffffffffffffff81116102e0576102dc9201610263565b9091565b610130565b61012c565b90565b6102f6906102ea565b9052565b919061030d905f602085019401906102ed565b565b346103405761033c61032b6103253660046102a2565b916118f4565b610333610122565b918291826102fa565b0390f35b610128565b5f91031261034f57565b61012c565b7f000000000000000000000000000000000000000000000000000000000000000090565b60018060a01b031690565b90565b61039a61039561039f92610378565b610383565b610378565b90565b6103ab90610386565b90565b6103b7906103a2565b90565b6103c3906103ae565b9052565b91906103da905f602085019401906103ba565b565b3461040c576103ec366004610345565b6104086103f7610354565b6103ff610122565b918291826103c7565b0390f35b610128565b5f0190565b3461044457610426366004610345565b61042e611957565b610436610122565b8061044081610411565b0390f35b610128565b9061045390610178565b5f5260205260405f2090565b60018060a01b031690565b61047a90600861047f930261019a565b61045f565b90565b9061048d915461046a565b90565b6104a6906104a16004915f92610449565b610482565b90565b6104b2906103a2565b90565b6104be906104a9565b9052565b91906104d5905f602085019401906104b5565b565b34610507576105036104f26104ed36600461015a565b610490565b6104fa610122565b918291826104c2565b0390f35b610128565b90565b5f1b90565b61052861052361052d9261050c565b61050f565b610134565b90565b6105597f546c14101d23693e4f35838d1729863830a3ec576353388a755b40d43dfa2842610514565b90565b610564610530565b90565b61057090610134565b9052565b9190610587905f60208501940190610567565b565b346105b957610599366004610345565b6105b56105a461055c565b6105ac610122565b91829182610574565b0390f35b610128565b6105c790610378565b90565b6105d3816105be565b036105da57565b5f80fd5b905035906105eb826105ca565b565b9060208282031261060657610603915f016105de565b90565b61012c565b610614906103a2565b90565b906106219061060b565b5f5260205260405f2090565b90565b610640906008610645930261019a565b61062d565b90565b906106539154610630565b90565b61066c906106676003915f92610617565b610648565b90565b3461069f5761069b61068a6106853660046105ed565b610656565b610692610122565b918291826102fa565b0390f35b610128565b60ff60f81b1690565b6106b6906106a4565b9052565b5190565b60209181520190565b90825f9392825e0152565b601f801991011690565b6106fb610704602093610709936106f2816106ba565b938480936106be565b958691016106c7565b6106d2565b0190565b610716906105be565b9052565b5190565b60209181520190565b60200190565b610736906102ea565b9052565b906107478160209361072d565b0190565b60200190565b9061076e6107686107618461071a565b809361071e565b92610727565b905f5b81811061077e5750505090565b909192610797610791600192865161073a565b9461074b565b9101919091610771565b939591946107f26107e7610806956107d96107fc956108139c9a6107cc60e08c01925f8d01906106ad565b8a820360208c01526106dc565b9088820360408a01526106dc565b9760608701906102ed565b608085019061070d565b60a0830190610567565b60c0818403910152610751565b90565b3461084d57610826366004610345565b610849610831611a07565b93610840979597939193610122565b978897886107a1565b0390f35b610128565b9190610865905f6020850194019061070d565b565b3461089757610877366004610345565b610893610882611abd565b61088a610122565b91829182610852565b0390f35b610128565b91906040838203126108c457806108b86108c1925f860161014b565b936020016105de565b90565b61012c565b346108f8576108e26108dc36600461089c565b90611e18565b6108ea610122565b806108f481610411565b0390f35b610128565b7f872d5141ccfa7201d5f4c3cf311d44cd1c55fd19e66eb0c6369cf6416ce365bb90565b6109296108fd565b90565b3461095c5761093c366004610345565b610958610947610921565b61094f610122565b91829182610574565b0390f35b610128565b3461098f5761097961097436600461015a565b6120b6565b610981610122565b8061098b81610411565b0390f35b610128565b61099d816102ea565b036109a457565b5f80fd5b905035906109b582610994565b565b909182601f830112156109f15781359167ffffffffffffffff83116109ec5760200192602083028401116109e757565b61025f565b61025b565b610257565b909160a082840312610a7a57610a0e835f84016105de565b92610a1c81602085016105de565b92610a2a82604083016109a8565b92606082013567ffffffffffffffff8111610a755783610a4b9184016109b7565b929093608082013567ffffffffffffffff8111610a7057610a6c9201610263565b9091565b610130565b610130565b61012c565b34610ab657610ab2610aa1610a953660046109f6565b959490949391936124d8565b610aa9610122565b918291826102fa565b0390f35b610128565b90610ac59061060b565b5f5260205260405f2090565b90565b610ae4906008610ae9930261019a565b610ad1565b90565b90610af79154610ad4565b90565b610b1090610b0b6006915f92610abb565b610aec565b90565b34610b4357610b3f610b2e610b293660046105ed565b610afa565b610b36610122565b91829182610574565b0390f35b610128565b34610b7657610b60610b5b3660046105ed565b612557565b610b68610122565b80610b7281610411565b0390f35b610128565b7f000000000000000000000000000000000000000000000000000000000000000090565b610ba8906103a2565b90565b610bb490610b9f565b9052565b9190610bcb905f60208501940190610bab565b565b34610bfd57610bdd366004610345565b610bf9610be8610b7b565b610bf0610122565b91829182610bb8565b0390f35b610128565b5f80fd5b5f90565b90610c1e939291610c196125cd565b61125f565b90610c27612625565b565b35610c3381610994565b90565b90565b610c4d610c48610c5292610c36565b610383565b6102ea565b90565b35610c5f816105ca565b90565b9694929099989795939161012088019a5f8901610c7e91610567565b60208801610c8b9161070d565b60408701610c989161070d565b60608601610ca59161070d565b60808501610cb2916102ed565b60a08401610cbf916102ed565b60c08301610ccc916102ed565b60e08201610cd9916102ed565b61010001610ce69161070d565b565b634e487b7160e01b5f52604160045260245ffd5b90610d06906106d2565b810190811067ffffffffffffffff821117610d2057604052565b610ce8565b60200190565b5190565b5f80fd5b90610d46610d3f610122565b9283610cfc565b565b67ffffffffffffffff8111610d6657610d626020916106d2565b0190565b610ce8565b90825f939282370152565b90929192610d8b610d8682610d48565b610d33565b93818552602085019082840111610da757610da592610d6b565b565b610d2f565b610db7913691610d76565b90565b5f7f53706f74526f757465723a20496e76616c6964207369676e6174757265000000910152565b610dee601d6020926106be565b610df781610dba565b0190565b610e109060208101905f818303910152610de1565b90565b15610e1a57565b610e22610122565b62461bcd60e51b815280610e3860048201610dfb565b0390fd5b5f1c90565b610e4d610e5291610e3c565b610ad1565b90565b610e5f9054610e41565b90565b610e6e610e7391610e3c565b61019e565b90565b610e809054610e62565b90565b5f7f41646170746572206e6f742077686974656c6973746564000000000000000000910152565b610eb760176020926106be565b610ec081610e83565b0190565b610ed99060208101905f818303910152610eaa565b90565b15610ee357565b610eeb610122565b62461bcd60e51b815280610f0160048201610ec4565b0390fd5b5f80fd5b60e01b90565b90505190610f1c82610994565b565b90505190610f2b826105ca565b565b9190604083820312610f555780610f49610f52925f8601610f0f565b93602001610f1e565b90565b61012c565b90959492610fa594610f94610f9e92610f8a608096610f8060a088019c5f89019061070d565b602087019061070d565b604085019061070d565b60608301906102ed565b019061070d565b565b610faf610122565b3d5f823e3d90fd5b634e487b7160e01b5f52601160045260245ffd5b610fda610fe0919392936102ea565b926102ea565b8203918211610feb57565b610fb7565b5f910312610ffa57565b61012c565b60409061102861102f949695939661101e60608401985f85019061070d565b602083019061070d565b01906102ed565b565b61103a90610386565b90565b61104690611031565b90565b61105290610386565b90565b61105e90611049565b90565b61106a906103a2565b90565b611076816101e3565b0361107d57565b5f80fd5b9050519061108e8261106d565b565b906020828203126110a9576110a6915f01611081565b90565b61012c565b9160206110cf9294936110c860408201965f83019061070d565b01906102ed565b565b906020828203126110ea576110e7915f01610f0f565b90565b61012c565b60209181520190565b6111176111206020936111259361110e81610d2b565b938480936110ef565b958691016106c7565b6106d2565b0190565b909261115c90611152611169969461114860808601975f87019061070d565b602085019061070d565b60408301906102ed565b60608184039101526110f8565b90565b60207f6400000000000000000000000000000000000000000000000000000000000000917f53706f74526f757465723a20536c69707061676520636865636b206661696c655f8201520152565b6111c660216040926106be565b6111cf8161116c565b0190565b6111e89060208101905f8183039101526111b9565b90565b156111f257565b6111fa610122565b62461bcd60e51b815280611210600482016111d3565b0390fd5b61121d90610c39565b9052565b61125661125d9461124c606094989795611242608086019a5f8701906102ed565b60208501906102ed565b60408301906102ed565b0190611214565b565b9290925061126f60608401610c29565b61128161127b5f610c39565b916102ea565b146118e5576113a39161137b611381926112a56112a060a08801610c29565b6126cb565b6112c56112b35f8801610c55565b6112bf60c08901610c29565b906127aa565b6113756112d06108fd565b61135d6112de5f8a01610c55565b9161134e6112ee60208c01610c55565b8b6112fb60408201610c55565b61130760608301610c29565b61131360808401610c29565b9061132060a08501610c29565b9261133960e061133260c08801610c29565b9601610c55565b95611342610122565b9a8b9960208b01610c62565b60208201810382520382610cfc565b61136f61136982610d2b565b91610d25565b20612801565b92610dac565b9061281e565b61139d6113976113925f8601610c55565b6105be565b916105be565b14610e13565b6113dc6113d76113d26113cb6113c660066113c060e08801610c55565b90610abb565b610e55565b6005610184565b610e76565b610edc565b6114057f00000000000000000000000000000000000000000000000000000000000000006103ae565b604063a0294516916114185f8501610c55565b9061146461142860208701610c55565b9461146f611437868901610c55565b61144360608a01610c29565b61144f60e08b01610c55565b91611458610122565b998a9889978897610f09565b875260048701610f5a565b03915afa80156118e0575f809290916118af575b509061149b61149460608501610c29565b8390610fcb565b906114c57f0000000000000000000000000000000000000000000000000000000000000000610b9f565b63262709e66114d55f8701610c55565b6114e160208801610c55565b926114ee60608901610c29565b92813b156118aa575f6115149161151f8296611508610122565b98899788968795610f09565b855260048501610fff565b03925af180156118a557611879575b5061155061153e60208601610c55565b61154a60608701610c29565b9061286f565b8261156361155d5f610c39565b916102ea565b11611853575b5061157e61157960e08501610c55565b611055565b61159a61159561159060208701610c55565b61103d565b611061565b90602063095ea7b3926115ac836104a9565b906115ca5f87966115d56115be610122565b98899687958694610f09565b8452600484016110ae565b03925af190811561184e576020926115f292611823575b506104a9565b6343a0a7f29061165f5f611607858901610c55565b9361166a61163d8a61164b61162a8661162260408501610c55565b9c9301610c55565b611632610122565b9384918c8301610852565b8b8201810382520383610cfc565b611653610122565b998a9889978896610f09565b865260048601611129565b03925af190811561181e575f916117f0575b50916116a68361169f61169961169460808601610c29565b6102ea565b916102ea565b10156111eb565b6116cf7f0000000000000000000000000000000000000000000000000000000000000000610b9f565b637de182c56116df5f8401610c55565b6116eb60408501610c55565b928692813b156117eb575f6117139161171e8296611707610122565b98899788968795610f09565b855260048501610fff565b03925af180156117e6576117ba575b506117395f8201610c55565b61174560208301610c55565b9061175e606061175760408601610c55565b9401610c29565b938590946117b45f6117a261179c6117967f0874b2d545cb271cdbda4e093020c452328b24af12382ed62c4d00f5c26709db9761060b565b9761060b565b9761060b565b976117ab610122565b94859485611221565b0390a490565b6117d9905f3d81116117df575b6117d18183610cfc565b810190610ff0565b5f61172d565b503d6117c7565b610fa7565b610f05565b611811915060203d8111611817575b6118098183610cfc565b8101906110d1565b5f61167c565b503d6117ff565b610fa7565b61184290843d8111611847575b61183a8183610cfc565b810190611090565b6115ec565b503d611830565b610fa7565b6118739061186b61186660208701610c55565b61103d565b908491612a1b565b5f611569565b611898905f3d811161189e575b6118908183610cfc565b810190610ff0565b5f61152e565b503d611886565b610fa7565b610f05565b90506118d2915060403d81116118d9575b6118ca8183610cfc565b810190610f2d565b905f611483565b503d6118c0565b610fa7565b5050506118f15f610c39565b90565b906119079291611902610c06565b610c0a565b90565b611912612a62565b61191a611944565b565b61193061192b61193592610c36565b610383565b610378565b90565b6119419061191c565b90565b6119556119505f611938565b612ad3565b565b61195f61190a565b565b5f90565b606090565b5f90565b5f90565b606090565b611980906103a2565b90565b61199761199261199c92610c36565b61050f565b610134565b90565b67ffffffffffffffff81116119b75760208091020190565b610ce8565b906119ce6119c98361199f565b610d33565b918252565b369037565b906119fd6119e5836119bc565b926020806119f3869361199f565b92019103906119d3565b565b600f60f81b90565b611a0f611961565b50611a18611965565b50611a21611965565b50611a2a610c06565b50611a3361196a565b50611a3c61196e565b50611a45611972565b50611a4e612b35565b90611a57612b75565b904690611a6330611977565b90611a6d5f611983565b90611a7f611a7a5f610c39565b6119d8565b90611a886119ff565b96959493929190565b60018060a01b031690565b611aa8611aad91610e3c565b611a91565b90565b611aba9054611a9c565b90565b611ac561196a565b50611acf5f611ab0565b90565b90611ae491611adf612a62565b611d0e565b565b611af2611af791610e3c565b61045f565b90565b611b049054611ae6565b90565b611b10906105be565b90565b5f7f4164617074657220616c72656164792065786973747300000000000000000000910152565b611b4760166020926106be565b611b5081611b13565b0190565b611b699060208101905f818303910152611b3a565b90565b15611b7357565b611b7b610122565b62461bcd60e51b815280611b9160048201611b54565b0390fd5b60207f6564000000000000000000000000000000000000000000000000000000000000917f41646170746572206164647265737320616c72656164792072656769737465725f8201520152565b611bef60226040926106be565b611bf881611b95565b0190565b611c119060208101905f818303910152611be2565b90565b15611c1b57565b611c23610122565b62461bcd60e51b815280611c3960048201611bfc565b0390fd5b90611c4e60018060a01b039161050f565b9181191691161790565b611c6190611049565b90565b90565b90611c7c611c77611c8392611c58565b611c64565b8254611c3d565b9055565b90611c935f199161050f565b9181191691161790565b611ca690610e3c565b90565b90611cbe611cb9611cc592610178565b611c9d565b8254611c87565b9055565b90611cd560ff9161050f565b9181191691161790565b611ce8906101e3565b90565b90565b90611d03611cfe611d0a92611cdf565b611ceb565b8254611cc9565b9055565b611d4d611d25611d2060048490610449565b611afa565b611d47611d41611d3c611d375f611938565b611055565b611b07565b91611b07565b14611b6c565b611d84611d64611d5f60068590610abb565b610e55565b611d7e611d78611d735f611983565b610134565b91610134565b14611c14565b611da1611d9083611055565b611d9c60048490610449565b611c67565b611db681611db160068590610abb565b611ca9565b611dcc6001611dc760058490610184565b611cee565b90611e00611dfa7fffb25df5d2d30d127965307d95064a9c230c5bb55a674df324bf55bf2aa7ef8d93610178565b9161060b565b91611e09610122565b80611e1381610411565b0390a3565b90611e2291611ad2565b565b611e3590611e30612a62565b611fdb565b565b5f7f4164617074657220646f6573206e6f7420657869737400000000000000000000910152565b611e6b60166020926106be565b611e7481611e37565b0190565b611e8d9060208101905f818303910152611e5e565b90565b15611e9757565b611e9f610122565b62461bcd60e51b815280611eb560048201611e78565b0390fd5b1b90565b91906008611ed8910291611ed25f1984611eb9565b92611eb9565b9181191691161790565b9190611ef8611ef3611f0093610178565b611c9d565b908354611ebd565b9055565b611f1691611f1061196e565b91611ee2565b565b91906008611f38910291611f3260018060a01b0384611eb9565b92611eb9565b9181191691161790565b9190611f58611f53611f6093611c58565b611c64565b908354611f18565b9055565b5f90565b611f7a91611f74611f64565b91611f42565b565b91906008611f97910291611f9160ff84611eb9565b92611eb9565b9181191691161790565b9190611fb7611fb2611fbf93611cdf565b611ceb565b908354611f7c565b9055565b5f90565b611fd991611fd3611fc3565b91611fa1565b565b61201b611ff2611fed60048490610449565b611afa565b61201461200e6120096120045f611938565b611055565b611b07565b91611b07565b1415611e90565b61204a5f61204561203e61203961203460048790610449565b611afa565b6104a9565b6006610abb565b611f04565b61205f5f61205a60048490610449565b611f68565b6120745f61206f60058490610184565b611fc7565b61209e7f93ecc5e9aa51bb2adb2cf429a5108116cf98c4f717f0912d1be98e137ba6ef6091610178565b906120a7610122565b806120b181610411565b0390a2565b6120bf90611e24565b565b906120d9979695949392916120d46125cd565b612190565b906120e2612625565b565b5090565b60207f7200000000000000000000000000000000000000000000000000000000000000917f4d7573742073706563696679206174206c65617374206f6e65206164617074655f8201520152565b61214260216040926106be565b61214b816120e8565b0190565b6121649060208101905f818303910152612135565b90565b1561216e57565b612176610122565b62461bcd60e51b81528061218c6004820161214f565b0390fd5b9690969492949391935081836121a5916120e4565b5f6121af90610c39565b906121b9906102ea565b116121c390612167565b7f00000000000000000000000000000000000000000000000000000000000000006121ed906103ae565b9563a029451696339789908799895f61220590611938565b9061220e610122565b9c8d9561221b8796610f09565b8652600486019461222b95610f5a565b03815a93604094fa80156124d3575f809890916124a0575b509693612251878990610fcb565b9361227b7f0000000000000000000000000000000000000000000000000000000000000000610b9f565b9563262709e6338c988b92813b1561249b575f6122ab916122b6829661229f610122565b9e8f9788968795610f09565b855260048501610fff565b03925af1968715612496576122fe9761246a575b506122d68b879061286f565b896122e96122e35f610c39565b916102ea565b11612444575b50899487909192939495612d8b565b9361233b61230b8361103d565b6123347f0000000000000000000000000000000000000000000000000000000000000000610b9f565b8791612a1b565b6123647f0000000000000000000000000000000000000000000000000000000000000000610b9f565b637de182c53384928892813b1561243f575f6123939161239e8296612387610122565b98899788968795610f09565b855260048501610fff565b03925af1801561243a5761240e575b5033909192938590946124085f6123f66123f06123ea7f0874b2d545cb271cdbda4e093020c452328b24af12382ed62c4d00f5c26709db9761060b565b9761060b565b9761060b565b976123ff610122565b94859485611221565b0390a490565b61242d905f3d8111612433575b6124258183610cfc565b810190610ff0565b5f6123ad565b503d61241b565b610fa7565b610f05565b612464906124538c8c9061286f565b61245c8c61103d565b908b91612a1b565b5f6122ef565b612489905f3d811161248f575b6124818183610cfc565b810190610ff0565b5f6122ca565b503d612477565b610fa7565b610f05565b90506124c491975060403d81116124cc575b6124bc8183610cfc565b810190610f2d565b96905f612243565b503d6124b2565b610fa7565b906124ef9695949392916124ea610c06565b6120c1565b90565b612503906124fe612a62565b612505565b565b8061252061251a6125155f611938565b6105be565b916105be565b146125305761252e90612ad3565b565b61255361253c5f611938565b5f918291631e4fbdf760e01b835260048301610852565b0390fd5b612560906124f2565b565b90565b61257961257461257e92612562565b610383565b6102ea565b90565b61258b6002612565565b90565b6125a261259d6125a7926102ea565b610383565b6102ea565b90565b90565b906125c26125bd6125c99261258e565b6125aa565b8254611c87565b9055565b6125d5613070565b6125f76125e0612581565b5f6125f16125ec6130e5565b6130f9565b016125ad565b565b90565b61261061260b612615926125f9565b610383565b6102ea565b90565b61262260016125fc565b90565b612647612630612618565b5f61264161263c6130e5565b6130f9565b016125ad565b565b5f7f496e74656e7456657269666965723a2045787069726564000000000000000000910152565b61267d60176020926106be565b61268681612649565b0190565b61269f9060208101905f818303910152612670565b90565b156126a957565b6126b1610122565b62461bcd60e51b8152806126c76004820161268a565b0390fd5b6126e9906126e26126dc42926102ea565b916102ea565b11156126a2565b565b6126f76126fc91610e3c565b61062d565b90565b61270990546126eb565b90565b5f7f496e74656e7456657269666965723a20496e76616c6964206e6f6e6365000000910152565b612740601d6020926106be565b6127498161270c565b0190565b6127629060208101905f818303910152612733565b90565b1561276c57565b612774610122565b62461bcd60e51b81528061278a6004820161274d565b0390fd5b612797906102ea565b5f1981146127a55760010190565b610fb7565b6127e8906127e16127ff936127db6127d56127cf6127ca60038790610617565b6126ff565b926102ea565b916102ea565b14612765565b6003610617565b6127f96127f4826126ff565b61278e565b906125ad565b565b61281b9061280d61196e565b506128166130fc565b6131b6565b90565b61283d916128349161282e61196a565b5061323a565b90929192613322565b90565b612849906103a2565b90565b91602061286d92949361286660408201965f83019061070d565b019061070d565b565b906128997f0000000000000000000000000000000000000000000000000000000000000000610b9f565b9063da3e3397836128a930612840565b938392813b15612a16575f6128d1916128dc82966128c5610122565b998a9788968795610f09565b855260048501610fff565b03925af1918215612a1157612934926129e5575b506128fa8361103d565b906129247f0000000000000000000000000000000000000000000000000000000000000000610b9f565b61292d30612840565b91926133f3565b61295d7f0000000000000000000000000000000000000000000000000000000000000000610b9f565b90633faec0849061296d30612840565b92803b156129e0576129925f809461299d612986610122565b97889687958694610f09565b84526004840161284c565b03925af180156129db576129af575b50565b6129ce905f3d81116129d4575b6129c68183610cfc565b810190610ff0565b5f6129ac565b503d6129bc565b610fa7565b610f05565b612a04905f3d8111612a0a575b6129fc8183610cfc565b810190610ff0565b5f6128f0565b503d6129f2565b610fa7565b610f05565b91612a3491612a2e91849160019261343e565b156101e3565b612a3b5750565b612a47612a5e91611061565b5f918291635274afe760e01b835260048301610852565b0390fd5b612a6a611abd565b612a83612a7d612a786134a8565b6105be565b916105be565b03612a8a57565b612aac612a956134a8565b5f91829163118cdaa760e01b835260048301610852565b0390fd5b90565b90612ac8612ac3612acf9261060b565b612ab0565b8254611c3d565b9055565b612adc5f611ab0565b612ae6825f612ab3565b90612b1a612b147f8be0079c531659141344cd1fd0a4f28419497f9722a3daafe3b4186f6b6457e09361060b565b9161060b565b91612b23610122565b80612b2d81610411565b0390a3565b90565b612b3d611965565b50612b727f0000000000000000000000000000000000000000000000000000000000000000612b6c6001612b32565b906135f8565b90565b612b7d611965565b50612bb27f0000000000000000000000000000000000000000000000000000000000000000612bac6002612b32565b906135f8565b90565b6001612bc191016102ea565b90565b634e487b7160e01b5f52603260045260245ffd5b9190811015612be8576020020190565b612bc4565b35612bf781610137565b90565b5f7f4e6f2076616c69642071756f746520666f756e64000000000000000000000000910152565b612c2e60146020926106be565b612c3781612bfa565b0190565b612c509060208101905f818303910152612c21565b90565b15612c5a57565b612c62610122565b62461bcd60e51b815280612c7860048201612c3b565b0390fd5b9190612c9681612c8f81612c9b956110ef565b8095610d6b565b6106d2565b0190565b909391612ce09593612cc9612cd392612cbf60808601985f87019061070d565b602085019061070d565b60408301906102ed565b6060818503910152612c7c565b90565b60207f6f74650000000000000000000000000000000000000000000000000000000000917f5377617020657865637574696f6e206661696c656420746f206d6565742071755f8201520152565b612d3d60236040926106be565b612d4681612ce3565b0190565b612d5f9060208101905f818303910152612d30565b90565b15612d6957565b612d71610122565b62461bcd60e51b815280612d8760048201612d4a565b0390fd5b919290949396612d99610c06565b50612da35f610c39565b94612dac61196e565b97612db65f610c39565b5b8a612dd4612dce612dc98493896120e4565b6102ea565b916102ea565b1015612f0157612dee612de9868d8491612bd8565b612bed565b612e0b612e05612e0060058490610184565b610e76565b156101e3565b612ef7578760208b612e2f612e2a612e2560048790610449565b611afa565b6104a9565b612e535f8c612e5e63b6466384919597612e47610122565b98899788968795610f09565b855260048501610fff565b03925af180915f92612ec7575b50155f14612e91575050612e87906001612e8c575b5b5b612bb5565b612db7565b612e80565b80612ea4612e9e8c6102ea565b916102ea565b11612eb5575b5050612e8790612e81565b909850612e87919a509799905f612eaa565b612ee991925060203d8111612ef0575b612ee18183610cfc565b8101906110d1565b905f612e6b565b503d612ed7565b50612e8790612e82565b509392509496612f3c919850612f3790969496612f3089612f2a612f245f610c39565b916102ea565b11612c53565b6004610449565b611afa565b612f4d612f488361103d565b611061565b91602063095ea7b393612f5f846104a9565b90612f7d5f8b97612f88612f71610122565b998a9687958694610f09565b8452600484016110ae565b03925af192831561306b57602096612fae5f94612fd993612fce97613040575b506104a9565b956343a0a7f2939799919091612fc2610122565b9a8b998a988997610f09565b875260048701612c9f565b03925af1801561303b5761300a915f9161300d575b5091613003612ffd84926102ea565b916102ea565b1015612d62565b90565b61302e915060203d8111613034575b6130268183610cfc565b8101906110d1565b5f612fee565b503d61301c565b610fa7565b61305f908b3d8111613064575b6130578183610cfc565b810190611090565b612fa8565b503d61304d565b610fa7565b613078613646565b61307e57565b5f633ee5aeb560e01b81528061309660048201610411565b0390fd5b90565b6130b16130ac6130b69261309a565b61050f565b610134565b90565b6130e27f9b779b17422d0df92223018b32b4d1fa46e071723d6817e2486d003becc55f0061309d565b90565b6130ed61196e565b506130f66130b9565b90565b90565b61310461196e565b5061310e30611977565b61314061313a7f00000000000000000000000000000000000000000000000000000000000000006105be565b916105be565b148061317c575b5f14613171577f000000000000000000000000000000000000000000000000000000000000000090565b6131796136f7565b90565b50466131b06131aa7f00000000000000000000000000000000000000000000000000000000000000006102ea565b916102ea565b14613147565b6042916131c161196e565b50604051917f19010000000000000000000000000000000000000000000000000000000000008352600283015260228201522090565b5f90565b90565b61321261320d613217926131fb565b610383565b6102ea565b90565b61322e613229613233926102ea565b61050f565b610134565b90565b5f90565b91909161324561196a565b5061324e6131f7565b5061325761196e565b5061326183610d2b565b61327461326e60416131fe565b916102ea565b145f146132bb576132b4919261328861196e565b5061329161196e565b5061329a613236565b506020810151606060408301519201515f1a909192613805565b9192909190565b506132c55f611938565b906132d96132d4600294610d2b565b61321a565b91929190565b634e487b7160e01b5f52602160045260245ffd5b600411156132fd57565b6132df565b9061330c826132f3565b565b61331a61331f91610e3c565b61258e565b90565b8061333561332f5f613302565b91613302565b145f14613340575050565b8061335461334e6001613302565b91613302565b145f14613377575f63f645eedf60e01b81528061337360048201610411565b0390fd5b8061338b6133856002613302565b91613302565b145f146133b9576133b561339e8361330e565b5f91829163fce698f760e01b8352600483016102fa565b0390fd5b6133cc6133c66003613302565b91613302565b146133d45750565b6133ef905f9182916335e2f38360e21b835260048301610574565b0390fd5b92906134109261340a928592919091600193613901565b156101e3565b6134175750565b61342361343a91611061565b5f918291635274afe760e01b835260048301610852565b0390fd5b909193929361344b611fc3565b5063a9059cbb60e01b92604051935f525f1960601c1660045260245260205f60448180855af19360015f5114851615613486575b5050604052565b849294151661349f575f903b113d151616915f8061347f565b833d5f823e3d90fd5b6134b061196a565b503390565b90565b6134cc6134c76134d1926134b5565b61050f565b610134565b90565b6134de60ff6134b8565b90565b634e487b7160e01b5f52602260045260245ffd5b9060016002830492168015613515575b602083101461351057565b6134e1565b91607f1691613505565b60209181520190565b5f5260205f2090565b905f929180549061354b613544836134f5565b809461351f565b916001811690815f146135a25750600114613566575b505050565b6135739192939450613528565b915f925b81841061358a57505001905f8080613561565b60018160209295939554848601520191019290613577565b92949550505060ff19168252151560200201905f8080613561565b906135c791613531565b90565b906135ea6135e3926135da610122565b938480926135bd565b0383610cfc565b565b6135f5906135ca565b90565b90613601611965565b5061360b82610178565b61362461361e6136196134d4565b610134565b91610134565b14155f146136395750613636906139ff565b90565b61364391506135ec565b90565b61364e611fc3565b506136695f61366361365e6130e5565b6130f9565b016126ff565b61368261367c613677612581565b6102ea565b916102ea565b1490565b7f8b73c3c69bb8fe3d512ecc4cf759cc79239f7b179b0ffacaa9a75d522b39400f90565b909594926136f5946136e46136ee926136da6080966136d060a088019c5f890190610567565b6020870190610567565b6040850190610567565b60608301906102ed565b019061070d565b565b6136ff61196e565b50613708613686565b61377f7f0000000000000000000000000000000000000000000000000000000000000000916137707f00000000000000000000000000000000000000000000000000000000000000004661375b30611977565b91613764610122565b968795602087016136aa565b60208201810382520382610cfc565b61379161378b82610d2b565b91610d25565b2090565b90565b6137ac6137a76137b192613795565b610383565b6102ea565b90565b60ff1690565b6137c3906137b4565b9052565b6137fc613803946137f26060949897956137e8608086019a5f870190610567565b60208501906137ba565b6040830190610567565b0190610567565b565b93929361381061196a565b506138196131f7565b5061382261196e565b5061382c8561330e565b61385e6138587f7fffffffffffffffffffffffffffffff5d576e7357a4501ddfe92f46681b20a0613798565b916102ea565b116138eb5790613881602094955f94939293613878610122565b948594856137c7565b838052039060015afa156138e6576138995f5161050f565b806138b46138ae6138a95f611938565b6105be565b916105be565b146138ca575f916138c45f611983565b91929190565b506138d45f611938565b6001916138e05f611983565b91929190565b610fa7565b5050506138f75f611938565b9060039291929190565b91949394929092613910611fc3565b506323b872dd60e01b93604051945f525f1960601c166004525f1960601c1660245260445260205f60648180855af19360015f5114851615613958575b50506040525f606052565b8492941516613971575f903b113d151616915f8061394d565b833d5f823e3d90fd5b90565b61399161398c6139969261397a565b610383565b6102ea565b90565b67ffffffffffffffff81116139b7576139b36020916106d2565b0190565b610ce8565b906139ce6139c983613999565b610d33565b918252565b369037565b906139fd6139e5836139bc565b926020806139f38693613999565b92019103906139d3565b565b613a07611965565b50613a1181613a6a565b90613a24613a1f602061397d565b6139d8565b918252602082015290565b613a43613a3e613a48926134b5565b610383565b6102ea565b90565b90565b613a62613a5d613a6792613a4b565b610383565b6102ea565b90565b613a7f613a8491613a79610c06565b50610178565b61330e565b613a8e60ff613a2f565b1680613aa3613a9d601f613a4e565b916102ea565b11613aab5790565b5f632cd44ac360e21b815280613ac360048201610411565b0390fdfea2646970667358221220d39ae816a067d3942c832e3bd924750db0129bb1905da1969751cdaaa61a688664736f6c63430008210033","linkReferences":{}},"methodIdentifiers":{"CANCEL_TYPEHASH()":"73fca6ea","SWAP_INTENT_TYPEHASH()":"b0825578","adapterAddressToId(address)":"dd5dc842","adapters(bytes32)":"72c6838f","addAdapter(bytes32,address)":"a9212b5b","eip712Domain()":"84b0196e","executeSwap((address,address,address,uint256,uint256,uint256,uint256,address),bytes)":"400dcba6","feeController()":"6999b377","nonces(address)":"7ecebe00","owner()":"8da5cb5b","removeAdapter(bytes32)":"b59b1176","renounceOwnership()":"715018a6","swap(address,address,uint256,bytes32[],bytes)":"d9097dd2","transferOwnership(address)":"f2fde38b","vault()":"fbfa77cf","whitelistedAdapters(bytes32)":"2c4e9939"},"id":2}