{"abi":[{"type":"constructor","inputs":[{"name":"_vault","type":"address","internalType":"address payable"},{"name":"_feeController","type":"address","internalType":"address"},{"name":"_name","type":"string","internalType":"string"},{"name":"_version","type":"string","internalType":"string"}],"stateMutability":"nonpayable"},{"type":"function","name":"CANCEL_TYPEHASH","inputs":[],"outputs":[{"name":"","type":"bytes32","internalType":"bytes32"}],"stateMutability":"view"},{"type":"function","name":"SWAP_INTENT_TYPEHASH","inputs":[],"outputs":[{"name":"","type":"bytes32","internalType":"bytes32"}],"stateMutability":"view"},{"type":"function","name":"adapterAddressToId","inputs":[{"name":"","type":"address","internalType":"address"}],"outputs":[{"name":"","type":"bytes32","internalType":"bytes32"}],"stateMutability":"view"},{"type":"function","name":"adapterIdToIndex","inputs":[{"name":"","type":"bytes32","internalType":"bytes32"}],"outputs":[{"name":"","type":"uint256","internalType":"uint256"}],"stateMutability":"view"},{"type":"function","name":"adapters","inputs":[{"name":"","type":"bytes32","internalType":"bytes32"}],"outputs":[{"name":"","type":"address","internalType":"contract IAdapter"}],"stateMutability":"view"},{"type":"function","name":"addAdapter","inputs":[{"name":"id","type":"bytes32","internalType":"bytes32"},{"name":"adapter","type":"address","internalType":"address"}],"outputs":[],"stateMutability":"nonpayable"},{"type":"function","name":"allAdapters","inputs":[{"name":"","type":"uint256","internalType":"uint256"}],"outputs":[{"name":"","type":"bytes32","internalType":"bytes32"}],"stateMutability":"view"},{"type":"function","name":"eip712Domain","inputs":[],"outputs":[{"name":"fields","type":"bytes1","internalType":"bytes1"},{"name":"name","type":"string","internalType":"string"},{"name":"version","type":"string","internalType":"string"},{"name":"chainId","type":"uint256","internalType":"uint256"},{"name":"verifyingContract","type":"address","internalType":"address"},{"name":"salt","type":"bytes32","internalType":"bytes32"},{"name":"extensions","type":"uint256[]","internalType":"uint256[]"}],"stateMutability":"view"},{"type":"function","name":"executeSwap","inputs":[{"name":"intent","type":"tuple","internalType":"struct ISpotRouter.SwapIntent","components":[{"name":"user","type":"address","internalType":"address"},{"name":"tokenIn","type":"address","internalType":"address"},{"name":"tokenOut","type":"address","internalType":"address"},{"name":"amountIn","type":"uint256","internalType":"uint256"},{"name":"minAmountOut","type":"uint256","internalType":"uint256"},{"name":"deadline","type":"uint256","internalType":"uint256"},{"name":"nonce","type":"uint256","internalType":"uint256"},{"name":"adapter","type":"address","internalType":"address"},{"name":"relayerFee","type":"uint256","internalType":"uint256"}]},{"name":"signature","type":"bytes","internalType":"bytes"}],"outputs":[{"name":"amountOut","type":"uint256","internalType":"uint256"}],"stateMutability":"nonpayable"},{"type":"function","name":"feeController","inputs":[],"outputs":[{"name":"","type":"address","internalType":"contract IFeeController"}],"stateMutability":"view"},{"type":"function","name":"nonces","inputs":[{"name":"","type":"address","internalType":"address"}],"outputs":[{"name":"","type":"uint256","internalType":"uint256"}],"stateMutability":"view"},{"type":"function","name":"owner","inputs":[],"outputs":[{"name":"","type":"address","internalType":"address"}],"stateMutability":"view"},{"type":"function","name":"removeAdapter","inputs":[{"name":"id","type":"bytes32","internalType":"bytes32"}],"outputs":[],"stateMutability":"nonpayable"},{"type":"function","name":"renounceOwnership","inputs":[],"outputs":[],"stateMutability":"nonpayable"},{"type":"function","name":"settleTrade","inputs":[{"name":"intent","type":"tuple","internalType":"struct ISpotRouter.SwapIntent","components":[{"name":"user","type":"address","internalType":"address"},{"name":"tokenIn","type":"address","internalType":"address"},{"name":"tokenOut","type":"address","internalType":"address"},{"name":"amountIn","type":"uint256","internalType":"uint256"},{"name":"minAmountOut","type":"uint256","internalType":"uint256"},{"name":"deadline","type":"uint256","internalType":"uint256"},{"name":"nonce","type":"uint256","internalType":"uint256"},{"name":"adapter","type":"address","internalType":"address"},{"name":"relayerFee","type":"uint256","internalType":"uint256"}]},{"name":"signature","type":"bytes","internalType":"bytes"},{"name":"counterparty","type":"address","internalType":"address"},{"name":"amountOut","type":"uint256","internalType":"uint256"}],"outputs":[],"stateMutability":"nonpayable"},{"type":"function","name":"swap","inputs":[{"name":"tokenIn","type":"address","internalType":"address"},{"name":"tokenOut","type":"address","internalType":"address"},{"name":"amountIn","type":"uint256","internalType":"uint256"},{"name":"adapterIds","type":"bytes32[]","internalType":"bytes32[]"},{"name":"data","type":"bytes","internalType":"bytes"}],"outputs":[{"name":"amountOut","type":"uint256","internalType":"uint256"}],"stateMutability":"nonpayable"},{"type":"function","name":"transferOwnership","inputs":[{"name":"newOwner","type":"address","internalType":"address"}],"outputs":[],"stateMutability":"nonpayable"},{"type":"function","name":"vault","inputs":[],"outputs":[{"name":"","type":"address","internalType":"contract VaultSpot"}],"stateMutability":"view"},{"type":"function","name":"whitelistedAdapters","inputs":[{"name":"","type":"bytes32","internalType":"bytes32"}],"outputs":[{"name":"","type":"bool","internalType":"bool"}],"stateMutability":"view"},{"type":"event","name":"AdapterAdded","inputs":[{"name":"id","type":"bytes32","indexed":true,"internalType":"bytes32"},{"name":"adapter","type":"address","indexed":true,"internalType":"address"}],"anonymous":false},{"type":"event","name":"AdapterRemoved","inputs":[{"name":"id","type":"bytes32","indexed":true,"internalType":"bytes32"}],"anonymous":false},{"type":"event","name":"EIP712DomainChanged","inputs":[],"anonymous":false},{"type":"event","name":"IntentFailed","inputs":[{"name":"intentHash","type":"bytes32","indexed":true,"internalType":"bytes32"},{"name":"user","type":"address","indexed":true,"internalType":"address"},{"name":"reason","type":"string","indexed":false,"internalType":"string"}],"anonymous":false},{"type":"event","name":"IntentFilled","inputs":[{"name":"intentHash","type":"bytes32","indexed":true,"internalType":"bytes32"},{"name":"user","type":"address","indexed":true,"internalType":"address"},{"name":"nonce","type":"uint256","indexed":false,"internalType":"uint256"}],"anonymous":false},{"type":"event","name":"OwnershipTransferred","inputs":[{"name":"previousOwner","type":"address","indexed":true,"internalType":"address"},{"name":"newOwner","type":"address","indexed":true,"internalType":"address"}],"anonymous":false},{"type":"event","name":"Swap","inputs":[{"name":"user","type":"address","indexed":true,"internalType":"address"},{"name":"tokenIn","type":"address","indexed":true,"internalType":"address"},{"name":"tokenOut","type":"address","indexed":true,"internalType":"address"},{"name":"amountIn","type":"uint256","indexed":false,"internalType":"uint256"},{"name":"amountOut","type":"uint256","indexed":false,"internalType":"uint256"},{"name":"protocolFee","type":"uint256","indexed":false,"internalType":"uint256"},{"name":"relayerFee","type":"uint256","indexed":false,"internalType":"uint256"}],"anonymous":false},{"type":"event","name":"SwapFailed","inputs":[{"name":"tokenIn","type":"address","indexed":false,"internalType":"address"},{"name":"tokenOut","type":"address","indexed":false,"internalType":"address"},{"name":"amountIn","type":"uint256","indexed":false,"internalType":"uint256"},{"name":"adapterIds","type":"bytes32[]","indexed":false,"internalType":"bytes32[]"},{"name":"reason","type":"string","indexed":false,"internalType":"string"}],"anonymous":false},{"type":"error","name":"ECDSAInvalidSignature","inputs":[]},{"type":"error","name":"ECDSAInvalidSignatureLength","inputs":[{"name":"length","type":"uint256","internalType":"uint256"}]},{"type":"error","name":"ECDSAInvalidSignatureS","inputs":[{"name":"s","type":"bytes32","internalType":"bytes32"}]},{"type":"error","name":"InvalidShortString","inputs":[]},{"type":"error","name":"OwnableInvalidOwner","inputs":[{"name":"owner","type":"address","internalType":"address"}]},{"type":"error","name":"OwnableUnauthorizedAccount","inputs":[{"name":"account","type":"address","internalType":"address"}]},{"type":"error","name":"ReentrancyGuardReentrantCall","inputs":[]},{"type":"error","name":"SafeERC20FailedOperation","inputs":[{"name":"token","type":"address","internalType":"address"}]},{"type":"error","name":"StringTooLong","inputs":[{"name":"str","type":"string","internalType":"string"}]}],"bytecode":{"object":"0x6101a0604052346101085761001e6100156102e2565b92919091610355565b61002661010d565b615130610c74823960805181614920015260a05181614957015260c051816148e7015260e05181614df501526101005181614e1a01526101205181613c7701526101405181613cb7015261016051818181610d7601528181611d9f01528181611f3c01528181611fcf0152818161204d015281816120cb015281816122740152818161232d015281816130260152818161326501528181613884015281816139500152818161398001528181613f5a01528181613fe5015261401e0152610180518181816103b901528181611e4101528181612f5501526137f3015261513090f35b610113565b60405190565b5f80fd5b601f801991011690565b634e487b7160e01b5f52604160045260245ffd5b9061013f90610117565b810190811060018060401b0382111761015757604052565b610121565b9061016f61016861010d565b9283610135565b565b5f80fd5b5f80fd5b60018060a01b031690565b61018d90610179565b90565b61019981610184565b036101a057565b5f80fd5b905051906101b182610190565b565b6101bc90610179565b90565b6101c8816101b3565b036101cf57565b5f80fd5b905051906101e0826101bf565b565b5f80fd5b5f80fd5b60018060401b03811161020657610202602091610117565b0190565b610121565b90825f9392825e0152565b9092919261022b610226826101ea565b61015c565b93818552602085019082840111610247576102459261020b565b565b6101e6565b9080601f8301121561026a5781602061026793519101610216565b90565b6101e2565b906080828203126102dd57610286815f84016101a4565b9261029482602085016101d3565b92604081015160018060401b0381116102d857836102b391830161024c565b92606082015160018060401b0381116102d3576102d0920161024c565b90565b610175565b610175565b610171565b610300615da4803803806102f58161015c565b92833981019061026f565b90919293565b90565b61031d61031861032292610179565b610306565b610179565b90565b61032e90610309565b90565b61033a90610325565b90565b61034690610309565b90565b6103529061033d565b90565b6103696103779461036e939490339161037d565b610331565b61016052610349565b61018052565b9061038892916103b2565b565b90565b90565b60200190565b5190565b6103a390610309565b90565b6103af9061039a565b90565b6103f7906103c261041294610446565b6103d6816103d0600161038a565b9061084d565b610120526103ee836103e8600261038a565b9061084d565b6101405261038d565b61040961040382610396565b91610390565b2060e05261038d565b61042461041e82610396565b91610390565b20610100524660a052610435610952565b608052610441306103a6565b60c052565b61044f90610451565b565b61045a906104e5565b565b90565b90565b61047661047161047b9261045c565b610306565b61045f565b90565b6104886001610462565b90565b5f1b90565b9061049c5f199161048b565b9181191691161790565b6104ba6104b56104bf9261045f565b610306565b61045f565b90565b90565b906104da6104d56104e1926104a6565b6104c2565b8254610490565b9055565b6104ee9061055f565b6105106104f961047e565b5f61050a610505610a0e565b610a22565b016104c5565b565b90565b61052961052461052e92610512565b610306565b610179565b90565b61053a90610515565b90565b610546906101b3565b9052565b919061055d905f6020850194019061053d565b565b8061057a61057461056f5f610531565b6101b3565b916101b3565b1461058a5761058890610aa5565b565b6105ad6105965f610531565b5f918291631e4fbdf760e01b83526004830161054a565b0390fd5b5f90565b90565b6105cc6105c76105d1926105b5565b610306565b61045f565b90565b5190565b634e487b7160e01b5f52602260045260245ffd5b906001600283049216801561060c575b602083101461060757565b6105d8565b91607f16916105fc565b5f5260205f2090565b601f602091010490565b1b90565b919060086106489102916106425f1984610629565b92610629565b9181191691161790565b9190610668610663610670936104a6565b6104c2565b90835461062d565b9055565b5f90565b61068a91610684610674565b91610652565b565b5f5b82811061069a57505050565b806106a95f6001938501610678565b0161068e565b9190601f81116106bf575b505050565b8181116106cc575b6106ba565b6106e16106db6106ff94610616565b9161061f565b9160206106ed8261061f565b9110610707575b80910191039061068c565b5f80806106c7565b505f6106f4565b1c90565b90610722905f199060080261070e565b191690565b8161073191610712565b906002021790565b90610743816105d4565b9060018060401b038211610801576107658261075f85546105ec565b856106af565b602090601f831160011461079957918091610788935f9261078d575b5050610727565b90555b565b90915001515f80610781565b601f198316916107a885610616565b925f5b8181106107e9575091600293918560019694106107cf575b5050500201905561078b565b6107df910151601f841690610712565b90555f80806107c3565b919360206001819287870151815501950192016107ab565b610121565b9061081091610739565b565b90565b90565b61082c61082761083192610812565b61048b565b610815565b90565b61083e60ff610818565b90565b61084a90610815565b90565b906108566105b1565b506108686108638361038d565b610396565b61087b61087560206105b8565b9161045f565b105f1461088f575061088c90610be9565b90565b5f61089d6108a39392610b04565b01610806565b6108b36108ae610834565b610841565b90565b5f90565b7f8b73c3c69bb8fe3d512ecc4cf759cc79239f7b179b0ffacaa9a75d522b39400f90565b6108e89051610815565b90565b6108f490610815565b9052565b6109019061045f565b9052565b909594926109509461093f6109499261093560809661092b60a088019c5f8901906108eb565b60208701906108eb565b60408501906108eb565b60608301906108f8565b019061053d565b565b61095a6108b6565b506109636108ba565b6109ad61097060e06108de565b9161099e61097f6101006108de565b46610989306103a6565b9161099261010d565b96879560208701610905565b60208201810382520382610135565b6109bf6109b982610396565b91610390565b2090565b90565b6109da6109d56109df926109c3565b61048b565b610815565b90565b610a0b7f9b779b17422d0df92223018b32b4d1fa46e071723d6817e2486d003becc55f006109c6565b90565b610a166108b6565b50610a1f6109e2565b90565b90565b5f1c90565b60018060a01b031690565b610a41610a4691610a25565b610a2a565b90565b610a539054610a35565b90565b90610a6760018060a01b039161048b565b9181191691161790565b610a7a9061039a565b90565b90565b90610a95610a90610a9c92610a71565b610a7d565b8254610a56565b9055565b5f0190565b610aae5f610a49565b610ab8825f610a80565b90610aec610ae67f8be0079c531659141344cd1fd0a4f28419497f9722a3daafe3b4186f6b6457e093610a71565b91610a71565b91610af561010d565b80610aff81610aa0565b0390a3565b90565b90565b610b1e610b19610b2392610b07565b610306565b61045f565b90565b60209181520190565b610b4e610b57602093610b5c93610b45816105d4565b93848093610b26565b9586910161020b565b610117565b0190565b610b759160208201915f818403910152610b2f565b90565b610b92610b8d610b8783610396565b92610390565b6108de565b9060208110610ba0575b5090565b610bb2905f1990602003600802610629565b165f610b9c565b610bc5610bca91610a25565b6104a6565b90565b610be1610bdc610be69261045f565b61048b565b610815565b90565b610bf16105b1565b50610bfb8161038d565b90610c0582610396565b610c18610c12601f610b0a565b9161045f565b11610c4d5750610c4581610c3f610c39610c34610c4a95610b78565b610bb9565b91610396565b17610bcd565b610841565b90565b610c6f90610c5961010d565b91829163305a27a960e01b835260048301610b60565b0390fdfe60806040526004361015610013575b610e07565b61001d5f3561014c565b806311962e85146101475780632c4e9939146101425780636999b3771461013d578063715018a61461013857806372c6838f1461013357806373fca6ea1461012e5780637ecebe001461012957806384b0196e146101245780638da5cb5b1461011f578063a9212b5b1461011a578063abf8b3d414610115578063b082557814610110578063b59b11761461010b578063baf8bc2414610106578063d8809bba14610101578063d9097dd2146100fc578063dd5dc842146100f7578063f2fde38b146100f25763fbfa77cf0361000e57610dd2565b610d41565b610d0c565b610ca1565b610ba4565b610b3f565b610ac4565b610a8f565b610a29565b61092c565b6108ca565b610879565b6106d2565b6105ca565b61053a565b610479565b61043f565b610373565b61026f565b60e01c90565b60405190565b5f80fd5b5f80fd5b5f80fd5b90565b61017081610164565b0361017757565b5f80fd5b9050359061018882610167565b565b906020828203126101a3576101a0915f0161017b565b90565b61015c565b634e487b7160e01b5f52603260045260245ffd5b5490565b5f5260205f2090565b6101d2816101bc565b8210156101ec576101e46001916101c0565b910201905f90565b6101a8565b1c90565b90565b61020890600861020d93026101f1565b6101f5565b90565b9061021b91546101f8565b90565b6007610229816101bc565b821015610246576102439161023d916101c9565b90610210565b90565b5f80fd5b90565b6102569061024a565b9052565b919061026d905f6020850194019061024d565b565b3461029f5761029b61028a61028536600461018a565b61021e565b610292610152565b9182918261025a565b0390f35b610158565b6102ad8161024a565b036102b457565b5f80fd5b905035906102c5826102a4565b565b906020828203126102e0576102dd915f016102b8565b90565b61015c565b6102ee9061024a565b90565b906102fb906102e5565b5f5260205260405f2090565b60ff1690565b61031d90600861032293026101f1565b610307565b90565b90610330915461030d565b90565b610349906103446005915f926102f1565b610325565b90565b151590565b61035a9061034c565b9052565b9190610371905f60208501940190610351565b565b346103a35761039f61038e6103893660046102c7565b610333565b610396610152565b9182918261035e565b0390f35b610158565b5f9103126103b257565b61015c565b7f000000000000000000000000000000000000000000000000000000000000000090565b60018060a01b031690565b90565b6103fd6103f8610402926103db565b6103e6565b6103db565b90565b61040e906103e9565b90565b61041a90610405565b90565b61042690610411565b9052565b919061043d905f6020850194019061041d565b565b3461046f5761044f3660046103a8565b61046b61045a6103b7565b610462610152565b9182918261042a565b0390f35b610158565b5f0190565b346104a7576104893660046103a8565b610491610e5b565b610499610152565b806104a381610474565b0390f35b610158565b906104b6906102e5565b5f5260205260405f2090565b60018060a01b031690565b6104dd9060086104e293026101f1565b6104c2565b90565b906104f091546104cd565b90565b610509906105046004915f926104ac565b6104e5565b90565b61051590610405565b90565b6105219061050c565b9052565b9190610538905f60208501940190610518565b565b3461056a576105666105556105503660046102c7565b6104f3565b61055d610152565b91829182610525565b0390f35b610158565b90565b5f1b90565b61058b6105866105909261056f565b610572565b61024a565b90565b6105bc7f546c14101d23693e4f35838d1729863830a3ec576353388a755b40d43dfa2842610577565b90565b6105c7610593565b90565b346105fa576105da3660046103a8565b6105f66105e56105bf565b6105ed610152565b9182918261025a565b0390f35b610158565b610608906103db565b90565b610614816105ff565b0361061b57565b5f80fd5b9050359061062c8261060b565b565b9060208282031261064757610644915f0161061f565b90565b61015c565b61065590610405565b90565b906106629061064c565b5f5260205260405f2090565b90565b61068190600861068693026101f1565b61066e565b90565b906106949154610671565b90565b6106ad906106a86003915f92610658565b610689565b90565b6106b990610164565b9052565b91906106d0905f602085019401906106b0565b565b34610702576106fe6106ed6106e836600461062e565b610697565b6106f5610152565b918291826106bd565b0390f35b610158565b60ff60f81b1690565b61071990610707565b9052565b5190565b60209181520190565b90825f9392825e0152565b601f801991011690565b61075e61076760209361076c936107558161071d565b93848093610721565b9586910161072a565b610735565b0190565b610779906105ff565b9052565b5190565b60209181520190565b60200190565b61079990610164565b9052565b906107aa81602093610790565b0190565b60200190565b906107d16107cb6107c48461077d565b8093610781565b9261078a565b905f5b8181106107e15750505090565b9091926107fa6107f4600192865161079d565b946107ae565b91019190916107d4565b9395919461085561084a6108699561083c61085f956108769c9a61082f60e08c01925f8d0190610710565b8a820360208c015261073f565b9088820360408a015261073f565b9760608701906106b0565b6080850190610770565b60a083019061024d565b60c08184039101526107b4565b90565b346108b0576108893660046103a8565b6108ac610894610f7d565b936108a3979597939193610152565b97889788610804565b0390f35b610158565b91906108c8905f60208501940190610770565b565b346108fa576108da3660046103a8565b6108f66108e5611038565b6108ed610152565b918291826108b5565b0390f35b610158565b9190604083820312610927578061091b610924925f86016102b8565b9360200161061f565b90565b61015c565b3461095b5761094561093f3660046108ff565b906114e9565b61094d610152565b8061095781610474565b0390f35b610158565b5f80fd5b90816101209103126109735790565b610960565b5f80fd5b5f80fd5b5f80fd5b909182601f830112156109be5781359167ffffffffffffffff83116109b95760200192600183028401116109b457565b610980565b61097c565b610978565b9161018083830312610a24576109db825f8501610964565b926101208101359167ffffffffffffffff8311610a1f57610a0184610a1c948401610984565b939094610a1281610140860161061f565b936101600161017b565b90565b610160565b61015c565b34610a5b57610a45610a3c3660046109c3565b93929092612524565b610a4d610152565b80610a5781610474565b0390f35b610158565b7fe598a4ac7dee0fa05d1947b6131b11a79681e19f385eb08037a4859d57b01a9f90565b610a8c610a60565b90565b34610abf57610a9f3660046103a8565b610abb610aaa610a84565b610ab2610152565b9182918261025a565b0390f35b610158565b34610af257610adc610ad73660046102c7565b6128c9565b610ae4610152565b80610aee81610474565b0390f35b610158565b91909161014081840312610b3a57610b11835f8301610964565b9261012082013567ffffffffffffffff8111610b3557610b319201610984565b9091565b610160565b61015c565b34610b7057610b6c610b5b610b55366004610af7565b9161360c565b610b63610152565b918291826106bd565b0390f35b610158565b90610b7f906102e5565b5f5260205260405f2090565b610ba190610b9c6008915f92610b75565b610689565b90565b34610bd457610bd0610bbf610bba3660046102c7565b610b8b565b610bc7610152565b918291826106bd565b0390f35b610158565b909182601f83011215610c135781359167ffffffffffffffff8311610c0e576020019260208302840111610c0957565b610980565b61097c565b610978565b909160a082840312610c9c57610c30835f840161061f565b92610c3e816020850161061f565b92610c4c826040830161017b565b92606082013567ffffffffffffffff8111610c975783610c6d918401610bd9565b929093608082013567ffffffffffffffff8111610c9257610c8e9201610984565b9091565b610160565b610160565b61015c565b34610cd857610cd4610cc3610cb7366004610c18565b95949094939193613b0c565b610ccb610152565b918291826106bd565b0390f35b610158565b90610ce79061064c565b5f5260205260405f2090565b610d0990610d046006915f92610cdd565b610210565b90565b34610d3c57610d38610d27610d2236600461062e565b610cf3565b610d2f610152565b9182918261025a565b0390f35b610158565b34610d6f57610d59610d5436600461062e565b613b8b565b610d61610152565b80610d6b81610474565b0390f35b610158565b7f000000000000000000000000000000000000000000000000000000000000000090565b610da1906103e9565b90565b610dad90610d98565b90565b610db990610da4565b9052565b9190610dd0905f60208501940190610db0565b565b34610e0257610de23660046103a8565b610dfe610ded610d74565b610df5610152565b91829182610dbd565b0390f35b610158565b5f80fd5b610e13613b96565b610e1b610e48565b565b90565b610e34610e2f610e3992610e1d565b6103e6565b6103db565b90565b610e4590610e20565b90565b610e59610e545f610e3c565b613c07565b565b610e63610e0b565b565b5f90565b606090565b5f90565b5f90565b5f90565b606090565b610e8890610405565b90565b610e9f610e9a610ea492610e1d565b610572565b61024a565b90565b610ebb610eb6610ec092610e1d565b6103e6565b610164565b90565b634e487b7160e01b5f52604160045260245ffd5b90610ee190610735565b810190811067ffffffffffffffff821117610efb57604052565b610ec3565b90610f13610f0c610152565b9283610ed7565b565b67ffffffffffffffff8111610f2d5760208091020190565b610ec3565b90610f44610f3f83610f15565b610f00565b918252565b369037565b90610f73610f5b83610f32565b92602080610f698693610f15565b9201910390610f49565b565b600f60f81b90565b610f85610e65565b50610f8e610e69565b50610f97610e69565b50610fa0610e6e565b50610fa9610e72565b50610fb2610e76565b50610fbb610e7a565b50610fc4613c69565b90610fcd613ca9565b904690610fd930610e7f565b90610fe35f610e8b565b90610ff5610ff05f610ea7565b610f4e565b90610ffe610f75565b96959493929190565b5f1c90565b60018060a01b031690565b61102361102891611007565b61100c565b90565b6110359054611017565b90565b611040610e72565b5061104a5f61102b565b90565b9061105f9161105a613b96565b6113ad565b565b61106d61107291611007565b6104c2565b90565b61107f9054611061565b90565b5f7f4164617074657220616c72656164792065786973747300000000000000000000910152565b6110b66016602092610721565b6110bf81611082565b0190565b6110d89060208101905f8183039101526110a9565b90565b156110e257565b6110ea610152565b62461bcd60e51b815280611100600482016110c3565b0390fd5b61111061111591611007565b6101f5565b90565b6111229054611104565b90565b60207f6564000000000000000000000000000000000000000000000000000000000000917f41646170746572206164647265737320616c72656164792072656769737465725f8201520152565b61117f6022604092610721565b61118881611125565b0190565b6111a19060208101905f818303910152611172565b90565b156111ab57565b6111b3610152565b62461bcd60e51b8152806111c96004820161118c565b0390fd5b6111d6906103e9565b90565b6111e2906111cd565b90565b906111f660018060a01b0391610572565b9181191691161790565b611209906111cd565b90565b90565b9061122461121f61122b92611200565b61120c565b82546111e5565b9055565b9061123b5f1991610572565b9181191691161790565b61124e90611007565b90565b9061126661126161126d926102e5565b611245565b825461122f565b9055565b9061127d60ff91610572565b9181191691161790565b6112909061034c565b90565b90565b906112ab6112a66112b292611287565b611293565b8254611271565b9055565b6112ca6112c56112cf92610164565b6103e6565b610164565b90565b90565b906112ea6112e56112f1926112b6565b6112d2565b825461122f565b9055565b90565b5f5260205f2090565b5490565b61130e81611301565b821015611328576113206001916112f8565b910201905f90565b6101a8565b1b90565b9190600861134c9102916113465f198461132d565b9261132d565b9181191691161790565b919061136c611367611374936102e5565b611245565b908354611331565b9055565b90815491680100000000000000008310156113a857826113a09160016113a695018155611305565b90611356565b565b610ec3565b6113ec6113cc6113c76113c2600485906104ac565b611075565b61050c565b6113e66113e06113db5f610e3c565b6105ff565b916105ff565b146110db565b6114236114036113fe60068590610cdd565b611118565b61141d6114176114125f610e8b565b61024a565b9161024a565b146111a4565b61144061142f836111d9565b61143b600484906104ac565b61120f565b6114558161145060068590610cdd565b611251565b61146b6001611466600584906102f1565b611296565b61148961147860076101bc565b61148460088490610b75565b6112d5565b61149d61149660076112f5565b8290611378565b906114d16114cb7fffb25df5d2d30d127965307d95064a9c230c5bb55a674df324bf55bf2aa7ef8d936102e5565b9161064c565b916114da610152565b806114e481610474565b0390a3565b906114f39161104d565b565b9061150a94939291611505613d15565b611bdd565b611512613d4e565b565b5061152390602081019061061f565b90565b61152f906105ff565b9052565b5061154290602081019061017b565b90565b9061010061162761162f9361156861155f5f830183611514565b5f860190611526565b6115826115786020830183611514565b6020860190611526565b61159c6115926040830183611514565b6040860190611526565b6115b66115ac6060830183611533565b6060860190610790565b6115d06115c66080830183611533565b6080860190610790565b6115ea6115e060a0830183611533565b60a0860190610790565b6116046115fa60c0830183611533565b60c0860190610790565b61161e61161460e0830183611514565b60e0860190611526565b82810190611533565b910190610790565b565b9190611645905f6101208501940190611545565b565b60200190565b5190565b3561165b81610167565b90565b5f7f496e70757420616d6f756e742063616e6e6f74206265207a65726f0000000000910152565b611692601b602092610721565b61169b8161165e565b0190565b6116b49060208101905f818303910152611685565b90565b156116be57565b6116c6610152565b62461bcd60e51b8152806116dc6004820161169f565b0390fd5b5f7f536c69707061676520636865636b206661696c65640000000000000000000000910152565b6117146015602092610721565b61171d816116e0565b0190565b6117369060208101905f818303910152611707565b90565b1561174057565b611748610152565b62461bcd60e51b81528061175e60048201611721565b0390fd5b3561176c8161060b565b90565b979593919a9998969492909a61014089019b5f8a0161178d9161024d565b6020890161179a91610770565b604088016117a791610770565b606087016117b491610770565b608086016117c1916106b0565b60a085016117ce916106b0565b60c084016117db916106b0565b60e083016117e8916106b0565b61010082016117f691610770565b61012001611803916106b0565b565b5f80fd5b67ffffffffffffffff811161182757611823602091610735565b0190565b610ec3565b90825f939282370152565b9092919261184c61184782611809565b610f00565b93818552602085019082840111611868576118669261182c565b565b611805565b611878913691611837565b90565b5f7f496e76616c6964207369676e6174757265000000000000000000000000000000910152565b6118af6011602092610721565b6118b88161187b565b0190565b6118d19060208101905f8183039101526118a2565b90565b156118db57565b6118e3610152565b62461bcd60e51b8152806118f9600482016118bc565b0390fd5b61190690610405565b90565b5f80fd5b60e01b90565b9050519061192082610167565b565b9060208282031261193b57611938915f01611913565b90565b61015c565b91602061196192949361195a60408201965f830190610770565b0190610770565b565b61196b610152565b3d5f823e3d90fd5b5f7f496e73756666696369656e74206c697175696469747900000000000000000000910152565b6119a76016602092610721565b6119b081611973565b0190565b6119c99060208101905f81830391015261199a565b90565b156119d357565b6119db610152565b62461bcd60e51b8152806119f1600482016119b4565b0390fd5b634e487b7160e01b5f52601160045260245ffd5b611a18611a1e91939293610164565b92610164565b8203918211611a2957565b6119f5565b90505190611a3b8261060b565b565b9190604083820312611a655780611a59611a62925f8601611913565b93602001611a2e565b90565b61015c565b90959492611ab594611aa4611aae92611a9a608096611a9060a088019c5f890190610770565b6020870190610770565b6040850190610770565b60608301906106b0565b0190610770565b565b611ac6611acc91939293610164565b92610164565b8201809211611ad757565b6119f5565b5f7f466565206578636565647320696e70757420616d6f756e740000000000000000910152565b611b106018602092610721565b611b1981611adc565b0190565b611b329060208101905f818303910152611b03565b90565b15611b3c57565b611b44610152565b62461bcd60e51b815280611b5a60048201611b1d565b0390fd5b5f910312611b6857565b61015c565b604090611b96611b9d9496959396611b8c60608401985f850190610770565b6020830190610770565b01906106b0565b565b611bd4611bdb94611bca606094989795611bc0608086019a5f8701906106b0565b60208501906106b0565b60408301906106b0565b01906106b0565b565b9390611d78611d9a91949394611d72611c07611c1689611bfb610152565b92839160208301611631565b60208201810382520382610ed7565b611c28611c228261164d565b91611647565b2096611c51611c3960608b01611651565b611c4b611c455f610ea7565b91610164565b116116b7565b611c7a89611c73611c6d611c6860808b9401611651565b610164565b91610164565b1015611739565b611c8e611c8960a08b01611651565b613df4565b611cae611c9c5f8b01611762565b611ca860c08c01611651565b90613eb2565b611d6c611cb9610a60565b611d54611cc75f8d01611762565b91611d458d611cd860208201611762565b90611ce560408201611762565b611cf160608301611651565b611cfd60808401611651565b611d0960a08501611651565b91611d1660c08601611651565b93611d30610100611d2960e08901611762565b9701611651565b96611d39610152565b9b8c9a60208c0161176f565b60208201810382520382610ed7565b611d66611d608261164d565b91611647565b20613f09565b9261186d565b90613f26565b611d94611d8e611d895f8901611762565b6105ff565b916105ff565b146118d4565b611dc37f00000000000000000000000000000000000000000000000000000000000000006118fd565b602063c23f001f918490611df4611ddc60408a01611762565b94611dff611de8610152565b9687958694859461190d565b845260048401611940565b03915afa801561251f57611e2e915f916124f1575b50611e27611e2184610164565b91610164565b10156119cc565b611e3b6101008501611651565b91611e657f0000000000000000000000000000000000000000000000000000000000000000610411565b90604063a029451692611e795f8901611762565b90611ecd611e8960208b01611762565b95611ed88b611eaf611ea86060611ea18a8501611762565b9301611651565b8c90611a09565b611eb85f610e3c565b91611ec1610152565b9a8b988997889761190d565b875260048701611a6a565b03915afa80156124ec575f809390916124b9575b509190611f36611efd868590611ab7565b611f25611f0c60608b01611651565b611f1e611f1884610164565b91610164565b1015611b35565b611f3160608a01611651565b611a09565b90611f607f00000000000000000000000000000000000000000000000000000000000000006118fd565b63262709e6611f705f8b01611762565b611f7c60208c01611762565b92611f8960608d01611651565b92813b156124b4575f611faf91611fba8296611fa3610152565b9889978896879561190d565b855260048501611b6d565b03925af180156124af57612483575b50611ff37f00000000000000000000000000000000000000000000000000000000000000006118fd565b63262709e68261200560408c01611762565b928892813b1561247e575f61202d916120388296612021610152565b9889978896879561190d565b855260048501611b6d565b03925af180156124795761244d575b506120717f00000000000000000000000000000000000000000000000000000000000000006118fd565b637de182c5919061208460208b01611762565b9392813b15612448575f6120ab916120b6829661209f610152565b9889978896879561190d565b855260048501611b6d565b03925af1801561244357612417575b506120ef7f00000000000000000000000000000000000000000000000000000000000000006118fd565b637de182c56120ff5f8901611762565b61210b60408a01611762565b928692813b15612412575f6121339161213e8296612127610152565b9889978896879561190d565b855260048501611b6d565b03925af1801561240d576123e1575b508361216161215b5f610ea7565b91610164565b11612328575b8161217a6121745f610ea7565b91610164565b1161226f575b5061218c5f8601611762565b61219860208701611762565b916121a560408801611762565b936122066121b560608a01611651565b9192966121f46121ee6121e87f0874b2d545cb271cdbda4e093020c452328b24af12382ed62c4d00f5c26709db9761064c565b9761064c565b9761064c565b976121fd610152565b94859485611b9f565b0390a49061222160c061221a5f8401611762565b9201611651565b9161226a6122586122527f0c5cfa22cf12b6b83ccd06c70503190e489eac3cf94ef17aab2fbf7685bbd08f936102e5565b9361064c565b93612261610152565b918291826106bd565b0390a3565b6122987f00000000000000000000000000000000000000000000000000000000000000006118fd565b90637de182c5906122ab60208901611762565b928492813b15612323575f6122d3916122de82966122c7610152565b9889978896879561190d565b855260048501611b6d565b03925af1801561231e576122f2575b612180565b612311905f3d8111612317575b6123098183610ed7565b810190611b5e565b5f6122ed565b503d6122ff565b611963565b611909565b6123517f00000000000000000000000000000000000000000000000000000000000000006118fd565b637de182c53361236360208a01611762565b928792813b156123dc575f61238b91612396829661237f610152565b9889978896879561190d565b855260048501611b6d565b03925af180156123d7576123ab575b50612167565b6123ca905f3d81116123d0575b6123c28183610ed7565b810190611b5e565b5f6123a5565b503d6123b8565b611963565b611909565b612400905f3d8111612406575b6123f88183610ed7565b810190611b5e565b5f61214d565b503d6123ee565b611963565b611909565b612436905f3d811161243c575b61242e8183610ed7565b810190611b5e565b5f6120c5565b503d612424565b611963565b611909565b61246c905f3d8111612472575b6124648183610ed7565b810190611b5e565b5f612047565b503d61245a565b611963565b611909565b6124a2905f3d81116124a8575b61249a8183610ed7565b810190611b5e565b5f611fc9565b503d612490565b611963565b611909565b90506124dd91925060403d81116124e5575b6124d58183610ed7565b810190611a3d565b91905f611eec565b503d6124cb565b611963565b612512915060203d8111612518575b61250a8183610ed7565b810190611922565b5f611e14565b503d612500565b611963565b90612531949392916114f5565b565b6125449061253f613b96565b612758565b565b5f7f4164617074657220646f6573206e6f7420657869737400000000000000000000910152565b61257a6016602092610721565b61258381612546565b0190565b61259c9060208101905f81830391015261256d565b90565b156125a657565b6125ae610152565b62461bcd60e51b8152806125c460048201612587565b0390fd5b6125d46125d991611007565b61066e565b90565b6125e690546125c8565b90565b90565b6126006125fb612605926125e9565b6103e6565b610164565b90565b634e487b7160e01b5f52603160045260245ffd5b61262e91612628610e76565b91611356565b565b61263981611301565b801561265a5760019003906126576126518383611305565b9061261c565b55565b612608565b919061267561267061267d936112b6565b6112d2565b908354611331565b9055565b6126939161268d610e6e565b9161265f565b565b919060086126b59102916126af60018060a01b038461132d565b9261132d565b9181191691161790565b91906126d56126d06126dd93611200565b61120c565b908354612695565b9055565b5f90565b6126f7916126f16126e1565b916126bf565b565b9190600861271491029161270e60ff8461132d565b9261132d565b9181191691161790565b919061273461272f61273c93611287565b611293565b9083546126f9565b9055565b5f90565b61275691612750612740565b9161271e565b565b61279861277761277261276d600485906104ac565b611075565b61050c565b61279161278b6127865f610e3c565b6105ff565b916105ff565b141561259f565b61285d5f6128586127bb6127b66127b1600487906104ac565b611075565b61050c565b61282a6127d26127cd60088890610b75565b6125dc565b61282561280661280060076127fa6127ea60076101bc565b6127f460016125ec565b90611a09565b906101c9565b90610210565b9161281d83612817600784906101c9565b90611356565b916008610b75565b6112d5565b61283c61283760076112f5565b612630565b6128518361284c60088890610b75565b612681565b6006610cdd565b61261c565b6128725f61286d600484906104ac565b6126e5565b6128875f612882600584906102f1565b612744565b6128b17f93ecc5e9aa51bb2adb2cf429a5108116cf98c4f717f0912d1be98e137ba6ef60916102e5565b906128ba610152565b806128c481610474565b0390a2565b6128d290612533565b565b906128e89392916128e3613d15565b612dcb565b906128f1613d4e565b565b5f7f53706f74526f757465723a20496e76616c6964207369676e6174757265000000910152565b612927601d602092610721565b612930816128f3565b0190565b6129499060208101905f81830391015261291a565b90565b1561295357565b61295b610152565b62461bcd60e51b81528061297160048201612934565b0390fd5b5f7f416d6f756e7420696e206973206c657373207468616e20746f74616c20666565910152565b6129a860208092610721565b6129b181612975565b0190565b6129ca9060208101905f81830391015261299c565b90565b156129d457565b6129dc610152565b62461bcd60e51b8152806129f2600482016129b5565b0390fd5b6129ff906103e9565b90565b612a0b906129f6565b90565b60209181520190565b612a209061024a565b9052565b90612a3181602093612a17565b0190565b612a3f9054611104565b90565b60010190565b90612a65612a5f612a58846101bc565b8093612a0e565b926101c0565b905f5b818110612a755750505090565b909192612a95612a8f600192612a8a87612a35565b612a24565b94612a42565b9101919091612a68565b90612aa991612a48565b90565b90612acc612ac592612abc610152565b93848092612a9f565b0383610ed7565b565b612ad790612aac565b90565b612ae6612aeb91611007565b610307565b90565b612af89054612ada565b90565b5f7f41646170746572206e6f742077686974656c6973746564000000000000000000910152565b612b2f6017602092610721565b612b3881612afb565b0190565b612b519060208101905f818303910152612b22565b90565b15612b5b57565b612b63610152565b62461bcd60e51b815280612b7960048201612b3c565b0390fd5b612b8690610405565b90565b612b928161034c565b03612b9957565b5f80fd5b90505190612baa82612b89565b565b90602082820312612bc557612bc2915f01612b9d565b90565b61015c565b916020612beb929493612be460408201965f830190610770565b01906106b0565b565b60209181520190565b612c15612c1e602093612c2393612c0c8161164d565b93848093612bed565b9586910161072a565b610735565b0190565b9092612c5a90612c50612c679694612c4660808601975f870190610770565b6020850190610770565b60408301906106b0565b6060818403910152612bf6565b90565b90612c7c612c7783611809565b610f00565b918252565b606090565b3d5f14612ca157612c963d612c6a565b903d5f602084013e5b565b612ca9612c81565b90612c9f565b90565b612cc79160208201915f81840391015261073f565b90565b5f7f53776170206661696c6564000000000000000000000000000000000000000000910152565b612cfe600b602092610721565b612d0781612cca565b0190565b612d209060208101905f818303910152612cf1565b90565b60207f6400000000000000000000000000000000000000000000000000000000000000917f53706f74526f757465723a20536c69707061676520636865636b206661696c655f8201520152565b612d7d6021604092610721565b612d8681612d23565b0190565b612d9f9060208101905f818303910152612d70565b90565b15612da957565b612db1610152565b62461bcd60e51b815280612dc760048201612d8a565b0390fd5b9290612de8612df782612ddc610152565b92839160208301611631565b60208201810382520382610ed7565b612e09612e038261164d565b91611647565b2090612e1760608201611651565b80612e2a612e245f610ea7565b91610164565b146135a557612e43612e3e60a08401611651565b613df4565b612f34612f1c612e545f8501611762565b96612f16612e6460c08701611651565b97612e708a8a90613eb2565b612f10612e7b610a60565b612ef88c91612ee98d8c8c612e9260208301611762565b92612e9f60408401611762565b91612eac60808501611651565b90612eb960a08601611651565b9293612ed4610100612ecd60e08901611762565b9701611651565b96612edd610152565b9b8c9a60208c0161176f565b60208201810382520382610ed7565b612f0a612f048261164d565b91611647565b20613f09565b9261186d565b90613f26565b612f2e612f28886105ff565b916105ff565b1461294c565b612f416101008301611651565b91612f4d828490611a09565b906040612f797f0000000000000000000000000000000000000000000000000000000000000000610411565b63a029451690612fc18a92612fcc612f9360208801611762565b97612f9f878901611762565b90612fac60e08a01611762565b91612fb5610152565b9a8b988997889761190d565b875260048701611a6a565b03915afa80156135a0575f8093909161356d575b509190613014612ff1868590611ab7565b61300e8661300761300184610164565b91610164565b10156129cd565b85611a09565b61302060208301611762565b9261304a7f00000000000000000000000000000000000000000000000000000000000000006118fd565b63262709e68b86928992813b15613568575f61307991613084829661306d610152565b9889978896879561190d565b855260048501611b6d565b03925af1801561356357613537575b5061309f848790613f54565b866130b26130ac5f610ea7565b91610164565b1161351e575b846130cb6130c55f610ea7565b91610164565b11613503575b506130de60e08301611762565b6130f86130f26130ed5f610e3c565b6105ff565b916105ff565b14155f146134a75761314261310f60e08401611762565b61313d61313861313361312c61312760068690610cdd565b611118565b60056102f1565b612aee565b612b54565b6111d9565b61315361314e85612a02565b612b7d565b602063095ea7b3916131648461050c565b906131825f879561318d613176610152565b9788968795869461190d565b845260048401612bca565b03925af180156134a2576020928c926131ab92613477575b5061050c565b6132025f6343a0a7f261320d6131e08a966131ee6131cb60408d01611762565b9a916131d5610152565b9384918c83016108b5565b8b8201810382520383610ed7565b6131f6610152565b998a988997889661190d565b865260048601612c27565b03925af180915f92613447575b50155f14613438575060016133b557604061325f915b5b6132598b61325261324c61324760808601611651565b610164565b91610164565b1015612da2565b01611762565b916132897f00000000000000000000000000000000000000000000000000000000000000006118fd565b637de182c58985928c92813b156133b0575f6132b8916132c382966132ac610152565b9889978896879561190d565b855260048501611b6d565b03925af180156133ab5761337f575b508791929361332b8a929661331961331361330d7f0874b2d545cb271cdbda4e093020c452328b24af12382ed62c4d00f5c26709db9761064c565b9761064c565b9761064c565b97613322610152565b94859485611b9f565b0390a49190916133796133676133617f0c5cfa22cf12b6b83ccd06c70503190e489eac3cf94ef17aab2fbf7685bbd08f936102e5565b9361064c565b93613370610152565b918291826106bd565b0390a390565b61339e905f3d81116133a4575b6133968183610ed7565b810190611b5e565b5f6132d2565b503d61338c565b611963565b611909565b87866133ca6133c2612c86565b919291612caf565b916134136134016133fb7fc1b0f3e18bbd9cf79f692b5598ab8e07d61ae456c23db80aa646ec6dcb100424936102e5565b9361064c565b9361340a610152565b91829182612cb2565b0390a361341e610152565b62461bcd60e51b81528061343460048201612d0b565b0390fd5b61325f91995060409099613230565b61346991925060203d8111613470575b6134618183610ed7565b810190611922565b905f61321a565b503d613457565b61349690853d811161349b575b61348e8183610ed7565b810190612bac565b6131a5565b503d613484565b611963565b8199506134fd6134e361325f938b6040946134f76134c7878a9501611762565b91926134f26007916134d7610152565b978891602083016108b5565b60208201810382520387610ed7565b612ace565b92614369565b99613231565b6135189061351085612a02565b908691614100565b5f6130d1565b61353261352a85612a02565b338991614100565b6130b8565b613556905f3d811161355c575b61354e8183610ed7565b810190611b5e565b5f613093565b503d613544565b611963565b611909565b905061359191925060403d8111613599575b6135898183610ed7565b810190611a3d565b91905f612fe0565b503d61357f565b611963565b5093506135b792505f91509201611762565b6135ea6135e47fc1b0f3e18bbd9cf79f692b5598ab8e07d61ae456c23db80aa646ec6dcb100424936102e5565b9161064c565b916135f3610152565b806135fd8161169f565b0390a36136095f610ea7565b90565b9061361f929161361a610e6e565b6128d4565b90565b9061363a97969594939291613635613d15565b6137be565b90613643613d4e565b565b5090565b60207f7200000000000000000000000000000000000000000000000000000000000000917f4d7573742073706563696679206174206c65617374206f6e65206164617074655f8201520152565b6136a36021604092610721565b6136ac81613649565b0190565b6136c59060208101905f818303910152613696565b90565b156136cf57565b6136d7610152565b62461bcd60e51b8152806136ed600482016136b0565b0390fd5b67ffffffffffffffff81116137095760208091020190565b610ec3565b9092919261372361371e826136f1565b610f00565b938185526020808601920283019281841161376057915b8383106137475750505050565b6020809161375584866102b8565b81520192019161373a565b610980565b61377091369161370e565b90565b61377c90610ea7565b9052565b6137b56137bc946137ab6060949897956137a1608086019a5f8701906106b0565b60208501906106b0565b60408301906106b0565b0190613773565b565b959092949193955085826137d191613645565b5f6137db90610ea7565b906137e590610164565b116137ef906136c8565b33967f000000000000000000000000000000000000000000000000000000000000000061381b90610411565b9663a02945169789988690889a8a5f61383390610e3c565b9061383c610152565b9d8e95613849879661190d565b8652600486019461385995611a6a565b03815a93604094fa8015613b07575f80999091613ad4575b509761387e888a90611a09565b906138a87f00000000000000000000000000000000000000000000000000000000000000006118fd565b9563262709e68c89988c92813b15613acf575f6138d8916138e382966138cc610152565b9e8f978896879561190d565b855260048501611b6d565b03925af1918215613aca5761393e9761393893613a9e575b50613907898c90613f54565b8b61391a6139145f610ea7565b91610164565b11613a83575b5061393288968a949592909692613765565b9461186d565b93614369565b9461397b61394b84612a02565b6139747f00000000000000000000000000000000000000000000000000000000000000006118fd565b8891614100565b6139a47f00000000000000000000000000000000000000000000000000000000000000006118fd565b637de182c58285928992813b15613a7e575f6139d3916139de82966139c7610152565b9889978896879561190d565b855260048501611b6d565b03925af18015613a7957613a4d575b5090919293859094613a475f613a35613a2f613a297f0874b2d545cb271cdbda4e093020c452328b24af12382ed62c4d00f5c26709db9761064c565b9761064c565b9761064c565b97613a3e610152565b94859485613780565b0390a490565b613a6c905f3d8111613a72575b613a648183610ed7565b810190611b5e565b5f6139ed565b503d613a5a565b611963565b611909565b613a9890613a908a612a02565b908d91614100565b5f613920565b613abd905f3d8111613ac3575b613ab58183610ed7565b810190611b5e565b5f6138fb565b503d613aab565b611963565b611909565b9050613af891985060403d8111613b00575b613af08183610ed7565b810190611a3d565b97905f613871565b503d613ae6565b611963565b90613b23969594939291613b1e610e6e565b613622565b90565b613b3790613b32613b96565b613b39565b565b80613b54613b4e613b495f610e3c565b6105ff565b916105ff565b14613b6457613b6290613c07565b565b613b87613b705f610e3c565b5f918291631e4fbdf760e01b8352600483016108b5565b0390fd5b613b9490613b26565b565b613b9e611038565b613bb7613bb1613bac6146a3565b6105ff565b916105ff565b03613bbe57565b613be0613bc96146a3565b5f91829163118cdaa760e01b8352600483016108b5565b0390fd5b90565b90613bfc613bf7613c039261064c565b613be4565b82546111e5565b9055565b613c105f61102b565b613c1a825f613be7565b90613c4e613c487f8be0079c531659141344cd1fd0a4f28419497f9722a3daafe3b4186f6b6457e09361064c565b9161064c565b91613c57610152565b80613c6181610474565b0390a3565b90565b613c71610e69565b50613ca67f0000000000000000000000000000000000000000000000000000000000000000613ca06001613c66565b906147f3565b90565b613cb1610e69565b50613ce67f0000000000000000000000000000000000000000000000000000000000000000613ce06002613c66565b906147f3565b90565b90565b613d00613cfb613d0592613ce9565b6103e6565b610164565b90565b613d126002613cec565b90565b613d1d614841565b613d3f613d28613d08565b5f613d39613d346148b6565b6148ca565b016112d5565b565b613d4b60016125ec565b90565b613d70613d59613d41565b5f613d6a613d656148b6565b6148ca565b016112d5565b565b5f7f496e74656e7456657269666965723a2045787069726564000000000000000000910152565b613da66017602092610721565b613daf81613d72565b0190565b613dc89060208101905f818303910152613d99565b90565b15613dd257565b613dda610152565b62461bcd60e51b815280613df060048201613db3565b0390fd5b613e1290613e0b613e054292610164565b91610164565b1115613dcb565b565b5f7f496e74656e7456657269666965723a20496e76616c6964206e6f6e6365000000910152565b613e48601d602092610721565b613e5181613e14565b0190565b613e6a9060208101905f818303910152613e3b565b90565b15613e7457565b613e7c610152565b62461bcd60e51b815280613e9260048201613e55565b0390fd5b613e9f90610164565b5f198114613ead5760010190565b6119f5565b613ef090613ee9613f0793613ee3613edd613ed7613ed260038790610658565b6125dc565b92610164565b91610164565b14613e6d565b6003610658565b613f01613efc826125dc565b613e96565b906112d5565b565b613f2390613f15610e76565b50613f1e6148cd565b614987565b90565b613f4591613f3c91613f36610e72565b50614a0b565b90929192614af3565b90565b613f5190610405565b90565b90613f7e7f00000000000000000000000000000000000000000000000000000000000000006118fd565b9063da3e339783613f8e30613f48565b938392813b156140fb575f613fb691613fc18296613faa610152565b998a978896879561190d565b855260048501611b6d565b03925af19182156140f657614019926140ca575b50613fdf83612a02565b906140097f00000000000000000000000000000000000000000000000000000000000000006118fd565b61401230613f48565b9192614bc4565b6140427f00000000000000000000000000000000000000000000000000000000000000006118fd565b90633faec0849061405230613f48565b92803b156140c5576140775f809461408261406b610152565b9788968795869461190d565b845260048401611940565b03925af180156140c057614094575b50565b6140b3905f3d81116140b9575b6140ab8183610ed7565b810190611b5e565b5f614091565b503d6140a1565b611963565b611909565b6140e9905f3d81116140ef575b6140e18183610ed7565b810190611b5e565b5f613fd5565b503d6140d7565b611963565b611909565b9161411991614113918491600192614c0f565b1561034c565b6141205750565b61412c61414391612b7d565b5f918291635274afe760e01b8352600483016108b5565b0390fd5b60016141539101610164565b90565b5190565b9061416482614156565b811015614175576020809102010190565b6101a8565b614184905161024a565b90565b5f7f4e6f2076616c69642071756f746520666f756e64000000000000000000000000910152565b6141bb6014602092610721565b6141c481614187565b0190565b6141dd9060208101905f8183039101526141ae565b90565b156141e757565b6141ef610152565b62461bcd60e51b815280614205600482016141c8565b0390fd5b60209181520190565b60200190565b60200190565b9061423b61423561422e84614156565b8093614209565b92614212565b905f5b81811061424b5750505090565b90919261426461425e6001928651612a24565b94614218565b910191909161423e565b60207f6f74650000000000000000000000000000000000000000000000000000000000917f5377617020657865637574696f6e206661696c656420746f206d6565742071755f8201520152565b6142c86023604092610721565b6142d18161426e565b0190565b929361430a61432595614300614317956142f660a08901965f8a0190610770565b6020880190610770565b60408601906106b0565b838203606085015261421e565b9060808183039101526142bb565b90565b61433d9060208101905f8183039101526142bb565b90565b1561434757565b61434f610152565b62461bcd60e51b81528061436560048201614328565b0390fd5b92949190614375610e6e565b5061437f5f610ea7565b926143886126e1565b956143925f610ea7565b5b806143ae6143a86143a38c614156565b610164565b91610164565b10156144da576143c76143c28a839061415a565b61417a565b6143e46143de6143d9600584906102f1565b612aee565b1561034c565b6144d0576143f66143fb9160046104ac565b611075565b6144048161050c565b602063b6466384918a9061442c5f8a956144378d614420610152565b9889978896879561190d565b855260048501611b6d565b03925af180915f926144a0575b50155f1461446a575050614460906001614465575b5b5b614147565b614393565b614459565b8061447d6144778a610164565b91610164565b1161448e575b50506144609061445a565b9096506144609198509597905f614483565b6144c291925060203d81116144c9575b6144ba8183610ed7565b810190611922565b905f614444565b503d6144b0565b506144609061445b565b509495969291909661450f6144ee8261050c565b6145086145026144fd5f610e3c565b6105ff565b916105ff565b14156141e0565b61452061451b88612a02565b612b7d565b90602063095ea7b3926145328361050c565b906145505f889661455b614544610152565b9889968795869461190d565b845260048401612bca565b03925af190811561469e5760209261457892614673575b5061050c565b6343a0a7f29061459e5f8a936145a9879b89614592610152565b9d8e988997889661190d565b865260048601612c27565b03925af1801561466e576145f7955f91614640575b5095866145d36145cd87610164565b91610164565b106145fa575b505050506145f06145ea8492610164565b91610164565b1015614340565b90565b614634909192937f2e870ab1201a8d1f158463f2825c320723ce6b1dae728beb3e97e1834e50177d9461462b610152565b948594856142d5565b0390a15f8080806145d9565b614661915060203d8111614667575b6146598183610ed7565b810190611922565b5f6145be565b503d61464f565b611963565b61469290843d8111614697575b61468a8183610ed7565b810190612bac565b614572565b503d614680565b611963565b6146ab610e72565b503390565b90565b6146c76146c26146cc926146b0565b610572565b61024a565b90565b6146d960ff6146b3565b90565b634e487b7160e01b5f52602260045260245ffd5b9060016002830492168015614710575b602083101461470b57565b6146dc565b91607f1691614700565b60209181520190565b5f5260205f2090565b905f929180549061474661473f836146f0565b809461471a565b916001811690815f1461479d5750600114614761575b505050565b61476e9192939450614723565b915f925b81841061478557505001905f808061475c565b60018160209295939554848601520191019290614772565b92949550505060ff19168252151560200201905f808061475c565b906147c29161472c565b90565b906147e56147de926147d5610152565b938480926147b8565b0383610ed7565b565b6147f0906147c5565b90565b906147fc610e69565b50614806826102e5565b61481f6148196148146146cf565b61024a565b9161024a565b14155f14614834575061483190614cfe565b90565b61483e91506147e7565b90565b614849614d2e565b61484f57565b5f633ee5aeb560e01b81528061486760048201610474565b0390fd5b90565b61488261487d6148879261486b565b610572565b61024a565b90565b6148b37f9b779b17422d0df92223018b32b4d1fa46e071723d6817e2486d003becc55f0061486e565b90565b6148be610e76565b506148c761488a565b90565b90565b6148d5610e76565b506148df30610e7f565b61491161490b7f00000000000000000000000000000000000000000000000000000000000000006105ff565b916105ff565b148061494d575b5f14614942577f000000000000000000000000000000000000000000000000000000000000000090565b61494a614ddf565b90565b504661498161497b7f0000000000000000000000000000000000000000000000000000000000000000610164565b91610164565b14614918565b604291614992610e76565b50604051917f19010000000000000000000000000000000000000000000000000000000000008352600283015260228201522090565b5f90565b90565b6149e36149de6149e8926149cc565b6103e6565b610164565b90565b6149ff6149fa614a0492610164565b610572565b61024a565b90565b5f90565b919091614a16610e72565b50614a1f6149c8565b50614a28610e76565b50614a328361164d565b614a45614a3f60416149cf565b91610164565b145f14614a8c57614a859192614a59610e76565b50614a62610e76565b50614a6b614a07565b506020810151606060408301519201515f1a909192614eed565b9192909190565b50614a965f610e3c565b90614aaa614aa560029461164d565b6149eb565b91929190565b634e487b7160e01b5f52602160045260245ffd5b60041115614ace57565b614ab0565b90614add82614ac4565b565b614aeb614af091611007565b6112b6565b90565b80614b06614b005f614ad3565b91614ad3565b145f14614b11575050565b80614b25614b1f6001614ad3565b91614ad3565b145f14614b48575f63f645eedf60e01b815280614b4460048201610474565b0390fd5b80614b5c614b566002614ad3565b91614ad3565b145f14614b8a57614b86614b6f83614adf565b5f91829163fce698f760e01b8352600483016106bd565b0390fd5b614b9d614b976003614ad3565b91614ad3565b14614ba55750565b614bc0905f9182916335e2f38360e21b83526004830161025a565b0390fd5b9290614be192614bdb928592919091600193614fe9565b1561034c565b614be85750565b614bf4614c0b91612b7d565b5f918291635274afe760e01b8352600483016108b5565b0390fd5b9091939293614c1c612740565b5063a9059cbb60e01b92604051935f525f1960601c1660045260245260205f60448180855af19360015f5114851615614c57575b5050604052565b8492941516614c70575f903b113d151616915f80614c50565b833d5f823e3d90fd5b90565b614c90614c8b614c9592614c79565b6103e6565b610164565b90565b67ffffffffffffffff8111614cb657614cb2602091610735565b0190565b610ec3565b90614ccd614cc883614c98565b610f00565b918252565b369037565b90614cfc614ce483614cbb565b92602080614cf28693614c98565b9201910390614cd2565b565b614d06610e69565b50614d108161509d565b90614d23614d1e6020614c7c565b614cd7565b918252602082015290565b614d36612740565b50614d515f614d4b614d466148b6565b6148ca565b016125dc565b614d6a614d64614d5f613d08565b610164565b91610164565b1490565b7f8b73c3c69bb8fe3d512ecc4cf759cc79239f7b179b0ffacaa9a75d522b39400f90565b90959492614ddd94614dcc614dd692614dc2608096614db860a088019c5f89019061024d565b602087019061024d565b604085019061024d565b60608301906106b0565b0190610770565b565b614de7610e76565b50614df0614d6e565b614e677f000000000000000000000000000000000000000000000000000000000000000091614e587f000000000000000000000000000000000000000000000000000000000000000046614e4330610e7f565b91614e4c610152565b96879560208701614d92565b60208201810382520382610ed7565b614e79614e738261164d565b91611647565b2090565b90565b614e94614e8f614e9992614e7d565b6103e6565b610164565b90565b60ff1690565b614eab90614e9c565b9052565b614ee4614eeb94614eda606094989795614ed0608086019a5f87019061024d565b6020850190614ea2565b604083019061024d565b019061024d565b565b939293614ef8610e72565b50614f016149c8565b50614f0a610e76565b50614f1485614adf565b614f46614f407f7fffffffffffffffffffffffffffffff5d576e7357a4501ddfe92f46681b20a0614e80565b91610164565b11614fd35790614f69602094955f94939293614f60610152565b94859485614eaf565b838052039060015afa15614fce57614f815f51610572565b80614f9c614f96614f915f610e3c565b6105ff565b916105ff565b14614fb2575f91614fac5f610e8b565b91929190565b50614fbc5f610e3c565b600191614fc85f610e8b565b91929190565b611963565b505050614fdf5f610e3c565b9060039291929190565b91949394929092614ff8612740565b506323b872dd60e01b93604051945f525f1960601c166004525f1960601c1660245260445260205f60648180855af19360015f5114851615615040575b50506040525f606052565b8492941516615059575f903b113d151616915f80615035565b833d5f823e3d90fd5b61507661507161507b926146b0565b6103e6565b610164565b90565b90565b61509561509061509a9261507e565b6103e6565b610164565b90565b6150b26150b7916150ac610e6e565b506102e5565b614adf565b6150c160ff615062565b16806150d66150d0601f615081565b91610164565b116150de5790565b5f632cd44ac360e21b8152806150f660048201610474565b0390fdfea2646970667358221220075ccf6f5032816cf232db59825e6a99df1037caa9724ce04babf498e74e7b4e64736f6c63430008210033","linkReferences":{}},"methodIdentifiers":{"CANCEL_TYPEHASH()":"73fca6ea","SWAP_INTENT_TYPEHASH()":"b0825578","adapterAddressToId(address)":"dd5dc842","adapterIdToIndex(bytes32)":"d8809bba","adapters(bytes32)":"72c6838f","addAdapter(bytes32,address)":"a9212b5b","allAdapters(uint256)":"11962e85","eip712Domain()":"84b0196e","executeSwap((address,address,address,uint256,uint256,uint256,uint256,address,uint256),bytes)":"baf8bc24","feeController()":"6999b377","nonces(address)":"7ecebe00","owner()":"8da5cb5b","removeAdapter(bytes32)":"b59b1176","renounceOwnership()":"715018a6","settleTrade((address,address,address,uint256,uint256,uint256,uint256,address,uint256),bytes,address,uint256)":"abf8b3d4","swap(address,address,uint256,bytes32[],bytes)":"d9097dd2","transferOwnership(address)":"f2fde38b","vault()":"fbfa77cf","whitelistedAdapters(bytes32)":"2c4e9939"},"id":2}