{"abi":[{"type":"constructor","inputs":[{"name":"_vault","type":"address","internalType":"address"},{"name":"_feeController","type":"address","internalType":"address"},{"name":"_name","type":"string","internalType":"string"},{"name":"_version","type":"string","internalType":"string"}],"stateMutability":"nonpayable"},{"type":"function","name":"CANCEL_TYPEHASH","inputs":[],"outputs":[{"name":"","type":"bytes32","internalType":"bytes32"}],"stateMutability":"view"},{"type":"function","name":"SWAP_INTENT_TYPEHASH","inputs":[],"outputs":[{"name":"","type":"bytes32","internalType":"bytes32"}],"stateMutability":"view"},{"type":"function","name":"adapterAddressToId","inputs":[{"name":"","type":"address","internalType":"address"}],"outputs":[{"name":"","type":"bytes32","internalType":"bytes32"}],"stateMutability":"view"},{"type":"function","name":"adapters","inputs":[{"name":"","type":"bytes32","internalType":"bytes32"}],"outputs":[{"name":"","type":"address","internalType":"contract IAdapter"}],"stateMutability":"view"},{"type":"function","name":"addAdapter","inputs":[{"name":"id","type":"bytes32","internalType":"bytes32"},{"name":"adapter","type":"address","internalType":"address"}],"outputs":[],"stateMutability":"nonpayable"},{"type":"function","name":"eip712Domain","inputs":[],"outputs":[{"name":"fields","type":"bytes1","internalType":"bytes1"},{"name":"name","type":"string","internalType":"string"},{"name":"version","type":"string","internalType":"string"},{"name":"chainId","type":"uint256","internalType":"uint256"},{"name":"verifyingContract","type":"address","internalType":"address"},{"name":"salt","type":"bytes32","internalType":"bytes32"},{"name":"extensions","type":"uint256[]","internalType":"uint256[]"}],"stateMutability":"view"},{"type":"function","name":"executeSwap","inputs":[{"name":"intent","type":"tuple","internalType":"struct ISpotRouter.SwapIntent","components":[{"name":"user","type":"address","internalType":"address"},{"name":"tokenIn","type":"address","internalType":"address"},{"name":"tokenOut","type":"address","internalType":"address"},{"name":"amountIn","type":"uint256","internalType":"uint256"},{"name":"minAmountOut","type":"uint256","internalType":"uint256"},{"name":"deadline","type":"uint256","internalType":"uint256"},{"name":"nonce","type":"uint256","internalType":"uint256"},{"name":"adapter","type":"address","internalType":"address"}]},{"name":"signature","type":"bytes","internalType":"bytes"}],"outputs":[{"name":"amountOut","type":"uint256","internalType":"uint256"}],"stateMutability":"nonpayable"},{"type":"function","name":"feeController","inputs":[],"outputs":[{"name":"","type":"address","internalType":"contract IFeeController"}],"stateMutability":"view"},{"type":"function","name":"nonces","inputs":[{"name":"","type":"address","internalType":"address"}],"outputs":[{"name":"","type":"uint256","internalType":"uint256"}],"stateMutability":"view"},{"type":"function","name":"owner","inputs":[],"outputs":[{"name":"","type":"address","internalType":"address"}],"stateMutability":"view"},{"type":"function","name":"removeAdapter","inputs":[{"name":"id","type":"bytes32","internalType":"bytes32"}],"outputs":[],"stateMutability":"nonpayable"},{"type":"function","name":"renounceOwnership","inputs":[],"outputs":[],"stateMutability":"nonpayable"},{"type":"function","name":"swap","inputs":[{"name":"tokenIn","type":"address","internalType":"address"},{"name":"tokenOut","type":"address","internalType":"address"},{"name":"amountIn","type":"uint256","internalType":"uint256"},{"name":"adapterIds","type":"bytes32[]","internalType":"bytes32[]"},{"name":"data","type":"bytes","internalType":"bytes"}],"outputs":[{"name":"amountOut","type":"uint256","internalType":"uint256"}],"stateMutability":"nonpayable"},{"type":"function","name":"transferOwnership","inputs":[{"name":"newOwner","type":"address","internalType":"address"}],"outputs":[],"stateMutability":"nonpayable"},{"type":"function","name":"vault","inputs":[],"outputs":[{"name":"","type":"address","internalType":"contract VaultSpot"}],"stateMutability":"view"},{"type":"function","name":"whitelistedAdapters","inputs":[{"name":"","type":"bytes32","internalType":"bytes32"}],"outputs":[{"name":"","type":"bool","internalType":"bool"}],"stateMutability":"view"},{"type":"event","name":"AdapterAdded","inputs":[{"name":"id","type":"bytes32","indexed":true,"internalType":"bytes32"},{"name":"adapter","type":"address","indexed":true,"internalType":"address"}],"anonymous":false},{"type":"event","name":"AdapterRemoved","inputs":[{"name":"id","type":"bytes32","indexed":true,"internalType":"bytes32"}],"anonymous":false},{"type":"event","name":"EIP712DomainChanged","inputs":[],"anonymous":false},{"type":"event","name":"OwnershipTransferred","inputs":[{"name":"previousOwner","type":"address","indexed":true,"internalType":"address"},{"name":"newOwner","type":"address","indexed":true,"internalType":"address"}],"anonymous":false},{"type":"event","name":"Swap","inputs":[{"name":"user","type":"address","indexed":true,"internalType":"address"},{"name":"tokenIn","type":"address","indexed":true,"internalType":"address"},{"name":"tokenOut","type":"address","indexed":true,"internalType":"address"},{"name":"amountIn","type":"uint256","indexed":false,"internalType":"uint256"},{"name":"amountOut","type":"uint256","indexed":false,"internalType":"uint256"},{"name":"protocolFee","type":"uint256","indexed":false,"internalType":"uint256"},{"name":"relayerFee","type":"uint256","indexed":false,"internalType":"uint256"}],"anonymous":false},{"type":"error","name":"ECDSAInvalidSignature","inputs":[]},{"type":"error","name":"ECDSAInvalidSignatureLength","inputs":[{"name":"length","type":"uint256","internalType":"uint256"}]},{"type":"error","name":"ECDSAInvalidSignatureS","inputs":[{"name":"s","type":"bytes32","internalType":"bytes32"}]},{"type":"error","name":"InvalidShortString","inputs":[]},{"type":"error","name":"OwnableInvalidOwner","inputs":[{"name":"owner","type":"address","internalType":"address"}]},{"type":"error","name":"OwnableUnauthorizedAccount","inputs":[{"name":"account","type":"address","internalType":"address"}]},{"type":"error","name":"ReentrancyGuardReentrantCall","inputs":[]},{"type":"error","name":"SafeERC20FailedOperation","inputs":[{"name":"token","type":"address","internalType":"address"}]},{"type":"error","name":"StringTooLong","inputs":[{"name":"str","type":"string","internalType":"string"}]}],"bytecode":{"object":"0x6101a0604052346100d05761001e61001561027b565b929190916102ee565b6100266100d5565b613b08610c0182396080518161315a015260a05181613191015260c05181613121015260e051816137180152610100518161373d01526101205181612b4e01526101405181612b8e015261016051818181610b7d015281816114a1015281816116a0015281816122620152818161231b0152818161234b015281816128800152818161290b0152612944015261018051818181610356015281816113e101526121d00152613b0890f35b6100db565b60405190565b5f80fd5b601f801991011690565b634e487b7160e01b5f52604160045260245ffd5b90610107906100df565b810190811060018060401b0382111761011f57604052565b6100e9565b906101376101306100d5565b92836100fd565b565b5f80fd5b5f80fd5b60018060a01b031690565b61015590610141565b90565b6101618161014c565b0361016857565b5f80fd5b9050519061017982610158565b565b5f80fd5b5f80fd5b60018060401b03811161019f5761019b6020916100df565b0190565b6100e9565b90825f9392825e0152565b909291926101c46101bf82610183565b610124565b938185526020850190828401116101e0576101de926101a4565b565b61017f565b9080601f8301121561020357816020610200935191016101af565b90565b61017b565b906080828203126102765761021f815f840161016c565b9261022d826020850161016c565b92604081015160018060401b038111610271578361024c9183016101e5565b92606082015160018060401b03811161026c5761026992016101e5565b90565b61013d565b61013d565b610139565b6102996147098038038061028e81610124565b928339810190610208565b90919293565b90565b6102b66102b16102bb92610141565b61029f565b610141565b90565b6102c7906102a2565b90565b6102d3906102be565b90565b6102df906102a2565b90565b6102eb906102d6565b90565b610302610310946103079394903391610316565b6102ca565b610160526102e2565b61018052565b90610321929161034b565b565b90565b90565b60200190565b5190565b61033c906102a2565b90565b61034890610333565b90565b6103909061035b6103ab946103df565b61036f816103696001610323565b906107da565b61012052610387836103816002610323565b906107da565b61014052610326565b6103a261039c8261032f565b91610329565b2060e052610326565b6103bd6103b78261032f565b91610329565b20610100524660a0526103ce6108df565b6080526103da3061033f565b60c052565b6103e8906103ea565b565b6103f39061047e565b565b90565b90565b61040f61040a610414926103f5565b61029f565b6103f8565b90565b61042160016103fb565b90565b5f1b90565b906104355f1991610424565b9181191691161790565b61045361044e610458926103f8565b61029f565b6103f8565b90565b90565b9061047361046e61047a9261043f565b61045b565b8254610429565b9055565b610487906104f8565b6104a9610492610417565b5f6104a361049e61099b565b6109af565b0161045e565b565b90565b6104c26104bd6104c7926104ab565b61029f565b610141565b90565b6104d3906104ae565b90565b6104df9061014c565b9052565b91906104f6905f602085019401906104d6565b565b8061051361050d6105085f6104ca565b61014c565b9161014c565b146105235761052190610a32565b565b61054661052f5f6104ca565b5f918291631e4fbdf760e01b8352600483016104e3565b0390fd5b5f90565b90565b61056561056061056a9261054e565b61029f565b6103f8565b90565b5190565b634e487b7160e01b5f52602260045260245ffd5b90600160028304921680156105a5575b60208310146105a057565b610571565b91607f1691610595565b5f5260205f2090565b601f602091010490565b1b90565b919060086105e19102916105db5f19846105c2565b926105c2565b9181191691161790565b91906106016105fc6106099361043f565b61045b565b9083546105c6565b9055565b5f90565b6106239161061d61060d565b916105eb565b565b5b818110610631575050565b8061063e5f600193610611565b01610626565b9190601f8111610654575b505050565b610660610685936105af565b90602061066c846105b8565b8301931061068d575b61067e906105b8565b0190610625565b5f808061064f565b915061067e81929050610675565b1c90565b906106af905f199060080261069b565b191690565b816106be9161069f565b906002021790565b906106d08161056d565b9060018060401b03821161078e576106f2826106ec8554610585565b85610644565b602090601f831160011461072657918091610715935f9261071a575b50506106b4565b90555b565b90915001515f8061070e565b601f19831691610735856105af565b925f5b8181106107765750916002939185600196941061075c575b50505002019055610718565b61076c910151601f84169061069f565b90555f8080610750565b91936020600181928787015181550195019201610738565b6100e9565b9061079d916106c6565b565b90565b90565b6107b96107b46107be9261079f565b610424565b6107a2565b90565b6107cb60ff6107a5565b90565b6107d7906107a2565b90565b906107e361054a565b506107f56107f083610326565b61032f565b6108086108026020610551565b916103f8565b105f1461081c575061081990610b76565b90565b5f61082a6108309392610a91565b01610793565b61084061083b6107c1565b6107ce565b90565b5f90565b7f8b73c3c69bb8fe3d512ecc4cf759cc79239f7b179b0ffacaa9a75d522b39400f90565b61087590516107a2565b90565b610881906107a2565b9052565b61088e906103f8565b9052565b909594926108dd946108cc6108d6926108c26080966108b860a088019c5f890190610878565b6020870190610878565b6040850190610878565b6060830190610885565b01906104d6565b565b6108e7610843565b506108f0610847565b61093a6108fd60e061086b565b9161092b61090c61010061086b565b466109163061033f565b9161091f6100d5565b96879560208701610892565b602082018103825203826100fd565b61094c6109468261032f565b91610329565b2090565b90565b61096761096261096c92610950565b610424565b6107a2565b90565b6109987f9b779b17422d0df92223018b32b4d1fa46e071723d6817e2486d003becc55f00610953565b90565b6109a3610843565b506109ac61096f565b90565b90565b5f1c90565b60018060a01b031690565b6109ce6109d3916109b2565b6109b7565b90565b6109e090546109c2565b90565b906109f460018060a01b0391610424565b9181191691161790565b610a0790610333565b90565b90565b90610a22610a1d610a29926109fe565b610a0a565b82546109e3565b9055565b5f0190565b610a3b5f6109d6565b610a45825f610a0d565b90610a79610a737f8be0079c531659141344cd1fd0a4f28419497f9722a3daafe3b4186f6b6457e0936109fe565b916109fe565b91610a826100d5565b80610a8c81610a2d565b0390a3565b90565b90565b610aab610aa6610ab092610a94565b61029f565b6103f8565b90565b60209181520190565b610adb610ae4602093610ae993610ad28161056d565b93848093610ab3565b958691016101a4565b6100df565b0190565b610b029160208201915f818403910152610abc565b90565b610b1f610b1a610b148361032f565b92610329565b61086b565b9060208110610b2d575b5090565b610b3f905f19906020036008026105c2565b165f610b29565b610b52610b57916109b2565b61043f565b90565b610b6e610b69610b73926103f8565b610424565b6107a2565b90565b610b7e61054a565b50610b8881610326565b90610b928261032f565b610ba5610b9f601f610a97565b916103f8565b11610bda5750610bd281610bcc610bc6610bc1610bd795610b05565b610b46565b9161032f565b17610b5a565b6107ce565b90565b610bfc90610be66100d5565b91829163305a27a960e01b835260048301610aed565b0390fdfe60806040526004361015610013575b610c02565b61001d5f3561011c565b80632c4e993914610117578063400dcba6146101125780636999b3771461010d578063715018a61461010857806372c6838f1461010357806373fca6ea146100fe5780637ecebe00146100f957806384b0196e146100f45780638da5cb5b146100ef578063a9212b5b146100ea578063b0825578146100e5578063b59b1176146100e0578063d9097dd2146100db578063dd5dc842146100d6578063f2fde38b146100d15763fbfa77cf0361000e57610bcd565b610b48565b610b13565b610a7f565b610961565b61092c565b6108c9565b610867565b610816565b61066f565b610589565b6104d7565b610416565b6103dc565b61030f565b61020a565b60e01c90565b60405190565b5f80fd5b5f80fd5b5f80fd5b90565b61014081610134565b0361014757565b5f80fd5b9050359061015882610137565b565b9060208282031261017357610170915f0161014b565b90565b61012c565b61018190610134565b90565b9061018e90610178565b5f5260205260405f2090565b1c90565b60ff1690565b6101b49060086101b9930261019a565b61019e565b90565b906101c791546101a4565b90565b6101e0906101db6005915f92610184565b6101bc565b90565b151590565b6101f1906101e3565b9052565b9190610208905f602085019401906101e8565b565b3461023a5761023661022561022036600461015a565b6101ca565b61022d610122565b918291826101f5565b0390f35b610128565b5f80fd5b90816101009103126102525790565b61023f565b5f80fd5b5f80fd5b5f80fd5b909182601f8301121561029d5781359167ffffffffffffffff831161029857602001926001830284011161029357565b61025f565b61025b565b610257565b919091610120818403126102e5576102bc835f8301610243565b9261010082013567ffffffffffffffff81116102e0576102dc9201610263565b9091565b610130565b61012c565b90565b6102f6906102ea565b9052565b919061030d905f602085019401906102ed565b565b346103405761033c61032b6103253660046102a2565b916118ff565b610333610122565b918291826102fa565b0390f35b610128565b5f91031261034f57565b61012c565b7f000000000000000000000000000000000000000000000000000000000000000090565b60018060a01b031690565b90565b61039a61039561039f92610378565b610383565b610378565b90565b6103ab90610386565b90565b6103b7906103a2565b90565b6103c3906103ae565b9052565b91906103da905f602085019401906103ba565b565b3461040c576103ec366004610345565b6104086103f7610354565b6103ff610122565b918291826103c7565b0390f35b610128565b5f0190565b3461044457610426366004610345565b61042e611962565b610436610122565b8061044081610411565b0390f35b610128565b9061045390610178565b5f5260205260405f2090565b60018060a01b031690565b61047a90600861047f930261019a565b61045f565b90565b9061048d915461046a565b90565b6104a6906104a16004915f92610449565b610482565b90565b6104b2906103a2565b90565b6104be906104a9565b9052565b91906104d5905f602085019401906104b5565b565b34610507576105036104f26104ed36600461015a565b610490565b6104fa610122565b918291826104c2565b0390f35b610128565b90565b5f1b90565b61052861052361052d9261050c565b61050f565b610134565b90565b6105597f546c14101d23693e4f35838d1729863830a3ec576353388a755b40d43dfa2842610514565b90565b610564610530565b90565b61057090610134565b9052565b9190610587905f60208501940190610567565b565b346105b957610599366004610345565b6105b56105a461055c565b6105ac610122565b91829182610574565b0390f35b610128565b6105c790610378565b90565b6105d3816105be565b036105da57565b5f80fd5b905035906105eb826105ca565b565b9060208282031261060657610603915f016105de565b90565b61012c565b610614906103a2565b90565b906106219061060b565b5f5260205260405f2090565b90565b610640906008610645930261019a565b61062d565b90565b906106539154610630565b90565b61066c906106676003915f92610617565b610648565b90565b3461069f5761069b61068a6106853660046105ed565b610656565b610692610122565b918291826102fa565b0390f35b610128565b60ff60f81b1690565b6106b6906106a4565b9052565b5190565b60209181520190565b90825f9392825e0152565b601f801991011690565b6106fb610704602093610709936106f2816106ba565b938480936106be565b958691016106c7565b6106d2565b0190565b610716906105be565b9052565b5190565b60209181520190565b60200190565b610736906102ea565b9052565b906107478160209361072d565b0190565b60200190565b9061076e6107686107618461071a565b809361071e565b92610727565b905f5b81811061077e5750505090565b909192610797610791600192865161073a565b9461074b565b9101919091610771565b939591946107f26107e7610806956107d96107fc956108139c9a6107cc60e08c01925f8d01906106ad565b8a820360208c01526106dc565b9088820360408a01526106dc565b9760608701906102ed565b608085019061070d565b60a0830190610567565b60c0818403910152610751565b90565b3461084d57610826366004610345565b610849610831611a12565b93610840979597939193610122565b978897886107a1565b0390f35b610128565b9190610865905f6020850194019061070d565b565b3461089757610877366004610345565b610893610882611ac8565b61088a610122565b91829182610852565b0390f35b610128565b91906040838203126108c457806108b86108c1925f860161014b565b936020016105de565b90565b61012c565b346108f8576108e26108dc36600461089c565b90611e23565b6108ea610122565b806108f481610411565b0390f35b610128565b7f872d5141ccfa7201d5f4c3cf311d44cd1c55fd19e66eb0c6369cf6416ce365bb90565b6109296108fd565b90565b3461095c5761093c366004610345565b610958610947610921565b61094f610122565b91829182610574565b0390f35b610128565b3461098f5761097961097436600461015a565b6120c1565b610981610122565b8061098b81610411565b0390f35b610128565b61099d816102ea565b036109a457565b5f80fd5b905035906109b582610994565b565b909182601f830112156109f15781359167ffffffffffffffff83116109ec5760200192602083028401116109e757565b61025f565b61025b565b610257565b909160a082840312610a7a57610a0e835f84016105de565b92610a1c81602085016105de565b92610a2a82604083016109a8565b92606082013567ffffffffffffffff8111610a755783610a4b9184016109b7565b929093608082013567ffffffffffffffff8111610a7057610a6c9201610263565b9091565b610130565b610130565b61012c565b34610ab657610ab2610aa1610a953660046109f6565b959490949391936124e3565b610aa9610122565b918291826102fa565b0390f35b610128565b90610ac59061060b565b5f5260205260405f2090565b90565b610ae4906008610ae9930261019a565b610ad1565b90565b90610af79154610ad4565b90565b610b1090610b0b6006915f92610abb565b610aec565b90565b34610b4357610b3f610b2e610b293660046105ed565b610afa565b610b36610122565b91829182610574565b0390f35b610128565b34610b7657610b60610b5b3660046105ed565b612562565b610b68610122565b80610b7281610411565b0390f35b610128565b7f000000000000000000000000000000000000000000000000000000000000000090565b610ba8906103a2565b90565b610bb490610b9f565b9052565b9190610bcb905f60208501940190610bab565b565b34610bfd57610bdd366004610345565b610bf9610be8610b7b565b610bf0610122565b91829182610bb8565b0390f35b610128565b5f80fd5b5f90565b90610c1e939291610c196125d8565b61125f565b90610c27612630565b565b35610c3381610994565b90565b90565b610c4d610c48610c5292610c36565b610383565b6102ea565b90565b35610c5f816105ca565b90565b9694929099989795939161012088019a5f8901610c7e91610567565b60208801610c8b9161070d565b60408701610c989161070d565b60608601610ca59161070d565b60808501610cb2916102ed565b60a08401610cbf916102ed565b60c08301610ccc916102ed565b60e08201610cd9916102ed565b61010001610ce69161070d565b565b634e487b7160e01b5f52604160045260245ffd5b90610d06906106d2565b810190811067ffffffffffffffff821117610d2057604052565b610ce8565b60200190565b5190565b5f80fd5b90610d46610d3f610122565b9283610cfc565b565b67ffffffffffffffff8111610d6657610d626020916106d2565b0190565b610ce8565b90825f939282370152565b90929192610d8b610d8682610d48565b610d33565b93818552602085019082840111610da757610da592610d6b565b565b610d2f565b610db7913691610d76565b90565b5f7f53706f74526f757465723a20496e76616c6964207369676e6174757265000000910152565b610dee601d6020926106be565b610df781610dba565b0190565b610e109060208101905f818303910152610de1565b90565b15610e1a57565b610e22610122565b62461bcd60e51b815280610e3860048201610dfb565b0390fd5b5f1c90565b610e4d610e5291610e3c565b610ad1565b90565b610e5f9054610e41565b90565b610e6e610e7391610e3c565b61019e565b90565b610e809054610e62565b90565b5f7f41646170746572206e6f742077686974656c6973746564000000000000000000910152565b610eb760176020926106be565b610ec081610e83565b0190565b610ed99060208101905f818303910152610eaa565b90565b15610ee357565b610eeb610122565b62461bcd60e51b815280610f0160048201610ec4565b0390fd5b5f80fd5b60e01b90565b90505190610f1c82610994565b565b90505190610f2b826105ca565b565b9190604083820312610f555780610f49610f52925f8601610f0f565b93602001610f1e565b90565b61012c565b90959492610fa594610f94610f9e92610f8a608096610f8060a088019c5f89019061070d565b602087019061070d565b604085019061070d565b60608301906102ed565b019061070d565b565b610faf610122565b3d5f823e3d90fd5b634e487b7160e01b5f52601160045260245ffd5b610fda610fe0919392936102ea565b926102ea565b8203918211610feb57565b610fb7565b5f910312610ffa57565b61012c565b60409061102861102f949695939661101e60608401985f85019061070d565b602083019061070d565b01906102ed565b565b61103a90610386565b90565b61104690611031565b90565b61105290610386565b90565b61105e90611049565b90565b61106a906103a2565b90565b611076816101e3565b0361107d57565b5f80fd5b9050519061108e8261106d565b565b906020828203126110a9576110a6915f01611081565b90565b61012c565b9160206110cf9294936110c860408201965f83019061070d565b01906102ed565b565b906020828203126110ea576110e7915f01610f0f565b90565b61012c565b60209181520190565b6111176111206020936111259361110e81610d2b565b938480936110ef565b958691016106c7565b6106d2565b0190565b909261115c90611152611169969461114860808601975f87019061070d565b602085019061070d565b60408301906102ed565b60608184039101526110f8565b90565b60207f6400000000000000000000000000000000000000000000000000000000000000917f53706f74526f757465723a20536c69707061676520636865636b206661696c655f8201520152565b6111c660216040926106be565b6111cf8161116c565b0190565b6111e89060208101905f8183039101526111b9565b90565b156111f257565b6111fa610122565b62461bcd60e51b815280611210600482016111d3565b0390fd5b61121d90610c39565b9052565b61125661125d9461124c606094989795611242608086019a5f8701906102ed565b60208501906102ed565b60408301906102ed565b0190611214565b565b9290925061126f60608401610c29565b61128161127b5f610c39565b916102ea565b146118f0576113a39161137b611381926112a56112a060a08801610c29565b6126d6565b6112c56112b35f8801610c55565b6112bf60c08901610c29565b906127b5565b6113756112d06108fd565b61135d6112de5f8a01610c55565b9161134e6112ee60208c01610c55565b8b6112fb60408201610c55565b61130760608301610c29565b61131360808401610c29565b9061132060a08501610c29565b9261133960e061133260c08801610c29565b9601610c55565b95611342610122565b9a8b9960208b01610c62565b60208201810382520382610cfc565b61136f61136982610d2b565b91610d25565b2061280c565b92610dac565b90612829565b61139d6113976113925f8601610c55565b6105be565b916105be565b14610e13565b6113dc6113d76113d26113cb6113c660066113c060e08801610c55565b90610abb565b610e55565b6005610184565b610e76565b610edc565b6114057f00000000000000000000000000000000000000000000000000000000000000006103ae565b604063a0294516916114185f8501610c55565b9061146461142860208701610c55565b9461146f611437868901610c55565b61144360608a01610c29565b61144f60e08b01610c55565b91611458610122565b998a9889978897610f09565b875260048701610f5a565b03915afa80156118eb575f809290916118ba575b509061149b61149460608501610c29565b8390610fcb565b906114c57f0000000000000000000000000000000000000000000000000000000000000000610b9f565b63262709e66114d55f8701610c55565b6114e160208801610c55565b926114ee60608901610c29565b92813b156118b5575f6115149161151f8296611508610122565b98899788968795610f09565b855260048501610fff565b03925af180156118b057611884575b508261154261153c5f610c39565b916102ea565b11611848575b5061155f61155860208501610c55565b829061287a565b61157361156e60e08501610c55565b611055565b61158f61158a61158560208701610c55565b61103d565b611061565b90602063095ea7b3926115a1836104a9565b906115bf5f87966115ca6115b3610122565b98899687958694610f09565b8452600484016110ae565b03925af1908115611843576020926115e792611818575b506104a9565b6343a0a7f2906116545f6115fc858901610c55565b9361165f6116328a61164061161f8661161760408501610c55565b9c9301610c55565b611627610122565b9384918c8301610852565b8b8201810382520383610cfc565b611648610122565b998a9889978896610f09565b865260048601611129565b03925af1908115611813575f916117e5575b509161169b8361169461168e61168960808601610c29565b6102ea565b916102ea565b10156111eb565b6116c47f0000000000000000000000000000000000000000000000000000000000000000610b9f565b637de182c56116d45f8401610c55565b6116e060408501610c55565b928692813b156117e0575f6117089161171382966116fc610122565b98899788968795610f09565b855260048501610fff565b03925af180156117db576117af575b5061172e5f8201610c55565b61173a60208301610c55565b90611753606061174c60408601610c55565b9401610c29565b938590946117a95f61179761179161178b7f0874b2d545cb271cdbda4e093020c452328b24af12382ed62c4d00f5c26709db9761060b565b9761060b565b9761060b565b976117a0610122565b94859485611221565b0390a490565b6117ce905f3d81116117d4575b6117c68183610cfc565b810190610ff0565b5f611722565b503d6117bc565b610fa7565b610f05565b611806915060203d811161180c575b6117fe8183610cfc565b8101906110d1565b5f611671565b503d6117f4565b610fa7565b61183790843d811161183c575b61182f8183610cfc565b810190611090565b6115e1565b503d611825565b610fa7565b61187e9061186261185b60208701610c55565b859061287a565b61187661187160208701610c55565b61103d565b908491612a26565b5f611548565b6118a3905f3d81116118a9575b61189b8183610cfc565b810190610ff0565b5f61152e565b503d611891565b610fa7565b610f05565b90506118dd915060403d81116118e4575b6118d58183610cfc565b810190610f2d565b905f611483565b503d6118cb565b610fa7565b5050506118fc5f610c39565b90565b90611912929161190d610c06565b610c0a565b90565b61191d612a6d565b61192561194f565b565b61193b61193661194092610c36565b610383565b610378565b90565b61194c90611927565b90565b61196061195b5f611943565b612ade565b565b61196a611915565b565b5f90565b606090565b5f90565b5f90565b606090565b61198b906103a2565b90565b6119a261199d6119a792610c36565b61050f565b610134565b90565b67ffffffffffffffff81116119c25760208091020190565b610ce8565b906119d96119d4836119aa565b610d33565b918252565b369037565b90611a086119f0836119c7565b926020806119fe86936119aa565b92019103906119de565b565b600f60f81b90565b611a1a61196c565b50611a23611970565b50611a2c611970565b50611a35610c06565b50611a3e611975565b50611a47611979565b50611a5061197d565b50611a59612b40565b90611a62612b80565b904690611a6e30611982565b90611a785f61198e565b90611a8a611a855f610c39565b6119e3565b90611a93611a0a565b96959493929190565b60018060a01b031690565b611ab3611ab891610e3c565b611a9c565b90565b611ac59054611aa7565b90565b611ad0611975565b50611ada5f611abb565b90565b90611aef91611aea612a6d565b611d19565b565b611afd611b0291610e3c565b61045f565b90565b611b0f9054611af1565b90565b611b1b906105be565b90565b5f7f4164617074657220616c72656164792065786973747300000000000000000000910152565b611b5260166020926106be565b611b5b81611b1e565b0190565b611b749060208101905f818303910152611b45565b90565b15611b7e57565b611b86610122565b62461bcd60e51b815280611b9c60048201611b5f565b0390fd5b60207f6564000000000000000000000000000000000000000000000000000000000000917f41646170746572206164647265737320616c72656164792072656769737465725f8201520152565b611bfa60226040926106be565b611c0381611ba0565b0190565b611c1c9060208101905f818303910152611bed565b90565b15611c2657565b611c2e610122565b62461bcd60e51b815280611c4460048201611c07565b0390fd5b90611c5960018060a01b039161050f565b9181191691161790565b611c6c90611049565b90565b90565b90611c87611c82611c8e92611c63565b611c6f565b8254611c48565b9055565b90611c9e5f199161050f565b9181191691161790565b611cb190610e3c565b90565b90611cc9611cc4611cd092610178565b611ca8565b8254611c92565b9055565b90611ce060ff9161050f565b9181191691161790565b611cf3906101e3565b90565b90565b90611d0e611d09611d1592611cea565b611cf6565b8254611cd4565b9055565b611d58611d30611d2b60048490610449565b611b05565b611d52611d4c611d47611d425f611943565b611055565b611b12565b91611b12565b14611b77565b611d8f611d6f611d6a60068590610abb565b610e55565b611d89611d83611d7e5f61198e565b610134565b91610134565b14611c1f565b611dac611d9b83611055565b611da760048490610449565b611c72565b611dc181611dbc60068590610abb565b611cb4565b611dd76001611dd260058490610184565b611cf9565b90611e0b611e057fffb25df5d2d30d127965307d95064a9c230c5bb55a674df324bf55bf2aa7ef8d93610178565b9161060b565b91611e14610122565b80611e1e81610411565b0390a3565b90611e2d91611add565b565b611e4090611e3b612a6d565b611fe6565b565b5f7f4164617074657220646f6573206e6f7420657869737400000000000000000000910152565b611e7660166020926106be565b611e7f81611e42565b0190565b611e989060208101905f818303910152611e69565b90565b15611ea257565b611eaa610122565b62461bcd60e51b815280611ec060048201611e83565b0390fd5b1b90565b91906008611ee3910291611edd5f1984611ec4565b92611ec4565b9181191691161790565b9190611f03611efe611f0b93610178565b611ca8565b908354611ec8565b9055565b611f2191611f1b611979565b91611eed565b565b91906008611f43910291611f3d60018060a01b0384611ec4565b92611ec4565b9181191691161790565b9190611f63611f5e611f6b93611c63565b611c6f565b908354611f23565b9055565b5f90565b611f8591611f7f611f6f565b91611f4d565b565b91906008611fa2910291611f9c60ff84611ec4565b92611ec4565b9181191691161790565b9190611fc2611fbd611fca93611cea565b611cf6565b908354611f87565b9055565b5f90565b611fe491611fde611fce565b91611fac565b565b612026611ffd611ff860048490610449565b611b05565b61201f61201961201461200f5f611943565b611055565b611b12565b91611b12565b1415611e9b565b6120555f61205061204961204461203f60048790610449565b611b05565b6104a9565b6006610abb565b611f0f565b61206a5f61206560048490610449565b611f73565b61207f5f61207a60058490610184565b611fd2565b6120a97f93ecc5e9aa51bb2adb2cf429a5108116cf98c4f717f0912d1be98e137ba6ef6091610178565b906120b2610122565b806120bc81610411565b0390a2565b6120ca90611e2f565b565b906120e4979695949392916120df6125d8565b61219b565b906120ed612630565b565b5090565b60207f7200000000000000000000000000000000000000000000000000000000000000917f4d7573742073706563696679206174206c65617374206f6e65206164617074655f8201520152565b61214d60216040926106be565b612156816120f3565b0190565b61216f9060208101905f818303910152612140565b90565b1561217957565b612181610122565b62461bcd60e51b8152806121976004820161215a565b0390fd5b9690969492949391935081836121b0916120ef565b5f6121ba90610c39565b906121c4906102ea565b116121ce90612172565b7f00000000000000000000000000000000000000000000000000000000000000006121f8906103ae565b9563a029451696339789908799895f61221090611943565b90612219610122565b9c8d956122268796610f09565b8652600486019461223695610f5a565b03815a93604094fa80156124de575f809890916124ab575b50969361225c878990610fcb565b936122867f0000000000000000000000000000000000000000000000000000000000000000610b9f565b9563262709e6338c988b92813b156124a6575f6122b6916122c182966122aa610122565b9e8f9788968795610f09565b855260048501610fff565b03925af19687156124a15761230997612475575b506122e18b879061287a565b896122f46122ee5f610c39565b916102ea565b1161244f575b50899487909192939495612d96565b936123466123168361103d565b61233f7f0000000000000000000000000000000000000000000000000000000000000000610b9f565b8791612a26565b61236f7f0000000000000000000000000000000000000000000000000000000000000000610b9f565b637de182c53384928892813b1561244a575f61239e916123a98296612392610122565b98899788968795610f09565b855260048501610fff565b03925af1801561244557612419575b5033909192938590946124135f6124016123fb6123f57f0874b2d545cb271cdbda4e093020c452328b24af12382ed62c4d00f5c26709db9761060b565b9761060b565b9761060b565b9761240a610122565b94859485611221565b0390a490565b612438905f3d811161243e575b6124308183610cfc565b810190610ff0565b5f6123b8565b503d612426565b610fa7565b610f05565b61246f9061245e8c8c9061287a565b6124678c61103d565b908b91612a26565b5f6122fa565b612494905f3d811161249a575b61248c8183610cfc565b810190610ff0565b5f6122d5565b503d612482565b610fa7565b610f05565b90506124cf91975060403d81116124d7575b6124c78183610cfc565b810190610f2d565b96905f61224e565b503d6124bd565b610fa7565b906124fa9695949392916124f5610c06565b6120cc565b90565b61250e90612509612a6d565b612510565b565b8061252b6125256125205f611943565b6105be565b916105be565b1461253b5761253990612ade565b565b61255e6125475f611943565b5f918291631e4fbdf760e01b835260048301610852565b0390fd5b61256b906124fd565b565b90565b61258461257f6125899261256d565b610383565b6102ea565b90565b6125966002612570565b90565b6125ad6125a86125b2926102ea565b610383565b6102ea565b90565b90565b906125cd6125c86125d492612599565b6125b5565b8254611c92565b9055565b6125e061307b565b6126026125eb61258c565b5f6125fc6125f76130f0565b613104565b016125b8565b565b90565b61261b61261661262092612604565b610383565b6102ea565b90565b61262d6001612607565b90565b61265261263b612623565b5f61264c6126476130f0565b613104565b016125b8565b565b5f7f496e74656e7456657269666965723a2045787069726564000000000000000000910152565b61268860176020926106be565b61269181612654565b0190565b6126aa9060208101905f81830391015261267b565b90565b156126b457565b6126bc610122565b62461bcd60e51b8152806126d260048201612695565b0390fd5b6126f4906126ed6126e742926102ea565b916102ea565b11156126ad565b565b61270261270791610e3c565b61062d565b90565b61271490546126f6565b90565b5f7f496e74656e7456657269666965723a20496e76616c6964206e6f6e6365000000910152565b61274b601d6020926106be565b61275481612717565b0190565b61276d9060208101905f81830391015261273e565b90565b1561277757565b61277f610122565b62461bcd60e51b81528061279560048201612758565b0390fd5b6127a2906102ea565b5f1981146127b05760010190565b610fb7565b6127f3906127ec61280a936127e66127e06127da6127d560038790610617565b61270a565b926102ea565b916102ea565b14612770565b6003610617565b6128046127ff8261270a565b612799565b906125b8565b565b61282690612818611979565b50612821613107565b6131c1565b90565b6128489161283f91612839611975565b50613245565b9092919261332d565b90565b612854906103a2565b90565b91602061287892949361287160408201965f83019061070d565b019061070d565b565b906128a47f0000000000000000000000000000000000000000000000000000000000000000610b9f565b9063da3e3397836128b43061284b565b938392813b15612a21575f6128dc916128e782966128d0610122565b998a9788968795610f09565b855260048501610fff565b03925af1918215612a1c5761293f926129f0575b506129058361103d565b9061292f7f0000000000000000000000000000000000000000000000000000000000000000610b9f565b6129383061284b565b91926133fe565b6129687f0000000000000000000000000000000000000000000000000000000000000000610b9f565b90633faec084906129783061284b565b92803b156129eb5761299d5f80946129a8612991610122565b97889687958694610f09565b845260048401612857565b03925af180156129e6576129ba575b50565b6129d9905f3d81116129df575b6129d18183610cfc565b810190610ff0565b5f6129b7565b503d6129c7565b610fa7565b610f05565b612a0f905f3d8111612a15575b612a078183610cfc565b810190610ff0565b5f6128fb565b503d6129fd565b610fa7565b610f05565b91612a3f91612a39918491600192613449565b156101e3565b612a465750565b612a52612a6991611061565b5f918291635274afe760e01b835260048301610852565b0390fd5b612a75611ac8565b612a8e612a88612a836134b3565b6105be565b916105be565b03612a9557565b612ab7612aa06134b3565b5f91829163118cdaa760e01b835260048301610852565b0390fd5b90565b90612ad3612ace612ada9261060b565b612abb565b8254611c48565b9055565b612ae75f611abb565b612af1825f612abe565b90612b25612b1f7f8be0079c531659141344cd1fd0a4f28419497f9722a3daafe3b4186f6b6457e09361060b565b9161060b565b91612b2e610122565b80612b3881610411565b0390a3565b90565b612b48611970565b50612b7d7f0000000000000000000000000000000000000000000000000000000000000000612b776001612b3d565b90613603565b90565b612b88611970565b50612bbd7f0000000000000000000000000000000000000000000000000000000000000000612bb76002612b3d565b90613603565b90565b6001612bcc91016102ea565b90565b634e487b7160e01b5f52603260045260245ffd5b9190811015612bf3576020020190565b612bcf565b35612c0281610137565b90565b5f7f4e6f2076616c69642071756f746520666f756e64000000000000000000000000910152565b612c3960146020926106be565b612c4281612c05565b0190565b612c5b9060208101905f818303910152612c2c565b90565b15612c6557565b612c6d610122565b62461bcd60e51b815280612c8360048201612c46565b0390fd5b9190612ca181612c9a81612ca6956110ef565b8095610d6b565b6106d2565b0190565b909391612ceb9593612cd4612cde92612cca60808601985f87019061070d565b602085019061070d565b60408301906102ed565b6060818503910152612c87565b90565b60207f6f74650000000000000000000000000000000000000000000000000000000000917f5377617020657865637574696f6e206661696c656420746f206d6565742071755f8201520152565b612d4860236040926106be565b612d5181612cee565b0190565b612d6a9060208101905f818303910152612d3b565b90565b15612d7457565b612d7c610122565b62461bcd60e51b815280612d9260048201612d55565b0390fd5b919290949396612da4610c06565b50612dae5f610c39565b94612db7611979565b97612dc15f610c39565b5b8a612ddf612dd9612dd48493896120ef565b6102ea565b916102ea565b1015612f0c57612df9612df4868d8491612be3565b612bf8565b612e16612e10612e0b60058490610184565b610e76565b156101e3565b612f02578760208b612e3a612e35612e3060048790610449565b611b05565b6104a9565b612e5e5f8c612e6963b6466384919597612e52610122565b98899788968795610f09565b855260048501610fff565b03925af180915f92612ed2575b50155f14612e9c575050612e92906001612e97575b5b5b612bc0565b612dc2565b612e8b565b80612eaf612ea98c6102ea565b916102ea565b11612ec0575b5050612e9290612e8c565b909850612e92919a509799905f612eb5565b612ef491925060203d8111612efb575b612eec8183610cfc565b8101906110d1565b905f612e76565b503d612ee2565b50612e9290612e8d565b509392509496612f47919850612f4290969496612f3b89612f35612f2f5f610c39565b916102ea565b11612c5e565b6004610449565b611b05565b612f58612f538361103d565b611061565b91602063095ea7b393612f6a846104a9565b90612f885f8b97612f93612f7c610122565b998a9687958694610f09565b8452600484016110ae565b03925af192831561307657602096612fb95f94612fe493612fd99761304b575b506104a9565b956343a0a7f2939799919091612fcd610122565b9a8b998a988997610f09565b875260048701612caa565b03925af1801561304657613015915f91613018575b509161300e61300884926102ea565b916102ea565b1015612d6d565b90565b613039915060203d811161303f575b6130318183610cfc565b8101906110d1565b5f612ff9565b503d613027565b610fa7565b61306a908b3d811161306f575b6130628183610cfc565b810190611090565b612fb3565b503d613058565b610fa7565b613083613651565b61308957565b5f633ee5aeb560e01b8152806130a160048201610411565b0390fd5b90565b6130bc6130b76130c1926130a5565b61050f565b610134565b90565b6130ed7f9b779b17422d0df92223018b32b4d1fa46e071723d6817e2486d003becc55f006130a8565b90565b6130f8611979565b506131016130c4565b90565b90565b61310f611979565b5061311930611982565b61314b6131457f00000000000000000000000000000000000000000000000000000000000000006105be565b916105be565b1480613187575b5f1461317c577f000000000000000000000000000000000000000000000000000000000000000090565b613184613702565b90565b50466131bb6131b57f00000000000000000000000000000000000000000000000000000000000000006102ea565b916102ea565b14613152565b6042916131cc611979565b50604051917f19010000000000000000000000000000000000000000000000000000000000008352600283015260228201522090565b5f90565b90565b61321d61321861322292613206565b610383565b6102ea565b90565b61323961323461323e926102ea565b61050f565b610134565b90565b5f90565b919091613250611975565b50613259613202565b50613262611979565b5061326c83610d2b565b61327f6132796041613209565b916102ea565b145f146132c6576132bf9192613293611979565b5061329c611979565b506132a5613241565b506020810151606060408301519201515f1a909192613810565b9192909190565b506132d05f611943565b906132e46132df600294610d2b565b613225565b91929190565b634e487b7160e01b5f52602160045260245ffd5b6004111561330857565b6132ea565b90613317826132fe565b565b61332561332a91610e3c565b612599565b90565b8061334061333a5f61330d565b9161330d565b145f1461334b575050565b8061335f613359600161330d565b9161330d565b145f14613382575f63f645eedf60e01b81528061337e60048201610411565b0390fd5b80613396613390600261330d565b9161330d565b145f146133c4576133c06133a983613319565b5f91829163fce698f760e01b8352600483016102fa565b0390fd5b6133d76133d1600361330d565b9161330d565b146133df5750565b6133fa905f9182916335e2f38360e21b835260048301610574565b0390fd5b929061341b9261341592859291909160019361390c565b156101e3565b6134225750565b61342e61344591611061565b5f918291635274afe760e01b835260048301610852565b0390fd5b9091939293613456611fce565b5063a9059cbb60e01b92604051935f525f1960601c1660045260245260205f60448180855af19360015f5114851615613491575b5050604052565b84929415166134aa575f903b113d151616915f8061348a565b833d5f823e3d90fd5b6134bb611975565b503390565b90565b6134d76134d26134dc926134c0565b61050f565b610134565b90565b6134e960ff6134c3565b90565b634e487b7160e01b5f52602260045260245ffd5b9060016002830492168015613520575b602083101461351b57565b6134ec565b91607f1691613510565b60209181520190565b5f5260205f2090565b905f929180549061355661354f83613500565b809461352a565b916001811690815f146135ad5750600114613571575b505050565b61357e9192939450613533565b915f925b81841061359557505001905f808061356c565b60018160209295939554848601520191019290613582565b92949550505060ff19168252151560200201905f808061356c565b906135d29161353c565b90565b906135f56135ee926135e5610122565b938480926135c8565b0383610cfc565b565b613600906135d5565b90565b9061360c611970565b5061361682610178565b61362f6136296136246134df565b610134565b91610134565b14155f14613644575061364190613a0a565b90565b61364e91506135f7565b90565b613659611fce565b506136745f61366e6136696130f0565b613104565b0161270a565b61368d61368761368261258c565b6102ea565b916102ea565b1490565b7f8b73c3c69bb8fe3d512ecc4cf759cc79239f7b179b0ffacaa9a75d522b39400f90565b90959492613700946136ef6136f9926136e56080966136db60a088019c5f890190610567565b6020870190610567565b6040850190610567565b60608301906102ed565b019061070d565b565b61370a611979565b50613713613691565b61378a7f00000000000000000000000000000000000000000000000000000000000000009161377b7f00000000000000000000000000000000000000000000000000000000000000004661376630611982565b9161376f610122565b968795602087016136b5565b60208201810382520382610cfc565b61379c61379682610d2b565b91610d25565b2090565b90565b6137b76137b26137bc926137a0565b610383565b6102ea565b90565b60ff1690565b6137ce906137bf565b9052565b61380761380e946137fd6060949897956137f3608086019a5f870190610567565b60208501906137c5565b6040830190610567565b0190610567565b565b93929361381b611975565b50613824613202565b5061382d611979565b5061383785613319565b6138696138637f7fffffffffffffffffffffffffffffff5d576e7357a4501ddfe92f46681b20a06137a3565b916102ea565b116138f6579061388c602094955f94939293613883610122565b948594856137d2565b838052039060015afa156138f1576138a45f5161050f565b806138bf6138b96138b45f611943565b6105be565b916105be565b146138d5575f916138cf5f61198e565b91929190565b506138df5f611943565b6001916138eb5f61198e565b91929190565b610fa7565b5050506139025f611943565b9060039291929190565b9194939492909261391b611fce565b506323b872dd60e01b93604051945f525f1960601c166004525f1960601c1660245260445260205f60648180855af19360015f5114851615613963575b50506040525f606052565b849294151661397c575f903b113d151616915f80613958565b833d5f823e3d90fd5b90565b61399c6139976139a192613985565b610383565b6102ea565b90565b67ffffffffffffffff81116139c2576139be6020916106d2565b0190565b610ce8565b906139d96139d4836139a4565b610d33565b918252565b369037565b90613a086139f0836139c7565b926020806139fe86936139a4565b92019103906139de565b565b613a12611970565b50613a1c81613a75565b90613a2f613a2a6020613988565b6139e3565b918252602082015290565b613a4e613a49613a53926134c0565b610383565b6102ea565b90565b90565b613a6d613a68613a7292613a56565b610383565b6102ea565b90565b613a8a613a8f91613a84610c06565b50610178565b613319565b613a9960ff613a3a565b1680613aae613aa8601f613a59565b916102ea565b11613ab65790565b5f632cd44ac360e21b815280613ace60048201610411565b0390fdfea264697066735822122067b0cb4f6ee88233dc66863e9bb5bc33a743262923d9c2a0b11b0a69526a0a6b64736f6c634300081e0033","linkReferences":{}},"methodIdentifiers":{"CANCEL_TYPEHASH()":"73fca6ea","SWAP_INTENT_TYPEHASH()":"b0825578","adapterAddressToId(address)":"dd5dc842","adapters(bytes32)":"72c6838f","addAdapter(bytes32,address)":"a9212b5b","eip712Domain()":"84b0196e","executeSwap((address,address,address,uint256,uint256,uint256,uint256,address),bytes)":"400dcba6","feeController()":"6999b377","nonces(address)":"7ecebe00","owner()":"8da5cb5b","removeAdapter(bytes32)":"b59b1176","renounceOwnership()":"715018a6","swap(address,address,uint256,bytes32[],bytes)":"d9097dd2","transferOwnership(address)":"f2fde38b","vault()":"fbfa77cf","whitelistedAdapters(bytes32)":"2c4e9939"},"id":2}