{"abi":[{"type":"receive","stateMutability":"payable"},{"type":"function","name":"DOMAIN_SEPARATOR","inputs":[],"outputs":[{"name":"","type":"bytes32","internalType":"bytes32"}],"stateMutability":"view"},{"type":"function","name":"allowance","inputs":[{"name":"","type":"address","internalType":"address"},{"name":"","type":"address","internalType":"address"}],"outputs":[{"name":"","type":"uint256","internalType":"uint256"}],"stateMutability":"view"},{"type":"function","name":"approve","inputs":[{"name":"spender","type":"address","internalType":"address"},{"name":"amount","type":"uint256","internalType":"uint256"}],"outputs":[{"name":"","type":"bool","internalType":"bool"}],"stateMutability":"nonpayable"},{"type":"function","name":"balanceOf","inputs":[{"name":"","type":"address","internalType":"address"}],"outputs":[{"name":"","type":"uint256","internalType":"uint256"}],"stateMutability":"view"},{"type":"function","name":"decimals","inputs":[],"outputs":[{"name":"","type":"uint8","internalType":"uint8"}],"stateMutability":"view"},{"type":"function","name":"deposit","inputs":[],"outputs":[],"stateMutability":"payable"},{"type":"function","name":"name","inputs":[],"outputs":[{"name":"","type":"string","internalType":"string"}],"stateMutability":"view"},{"type":"function","name":"nonces","inputs":[{"name":"","type":"address","internalType":"address"}],"outputs":[{"name":"","type":"uint256","internalType":"uint256"}],"stateMutability":"view"},{"type":"function","name":"permit","inputs":[{"name":"owner","type":"address","internalType":"address"},{"name":"spender","type":"address","internalType":"address"},{"name":"value","type":"uint256","internalType":"uint256"},{"name":"deadline","type":"uint256","internalType":"uint256"},{"name":"v","type":"uint8","internalType":"uint8"},{"name":"r","type":"bytes32","internalType":"bytes32"},{"name":"s","type":"bytes32","internalType":"bytes32"}],"outputs":[],"stateMutability":"nonpayable"},{"type":"function","name":"symbol","inputs":[],"outputs":[{"name":"","type":"string","internalType":"string"}],"stateMutability":"view"},{"type":"function","name":"totalSupply","inputs":[],"outputs":[{"name":"","type":"uint256","internalType":"uint256"}],"stateMutability":"view"},{"type":"function","name":"transfer","inputs":[{"name":"to","type":"address","internalType":"address"},{"name":"amount","type":"uint256","internalType":"uint256"}],"outputs":[{"name":"","type":"bool","internalType":"bool"}],"stateMutability":"nonpayable"},{"type":"function","name":"transferFrom","inputs":[{"name":"from","type":"address","internalType":"address"},{"name":"to","type":"address","internalType":"address"},{"name":"amount","type":"uint256","internalType":"uint256"}],"outputs":[{"name":"","type":"bool","internalType":"bool"}],"stateMutability":"nonpayable"},{"type":"function","name":"withdraw","inputs":[{"name":"amount","type":"uint256","internalType":"uint256"}],"outputs":[],"stateMutability":"nonpayable"},{"type":"event","name":"Approval","inputs":[{"name":"owner","type":"address","indexed":true,"internalType":"address"},{"name":"spender","type":"address","indexed":true,"internalType":"address"},{"name":"amount","type":"uint256","indexed":false,"internalType":"uint256"}],"anonymous":false},{"type":"event","name":"Deposit","inputs":[{"name":"from","type":"address","indexed":true,"internalType":"address"},{"name":"amount","type":"uint256","indexed":false,"internalType":"uint256"}],"anonymous":false},{"type":"event","name":"Transfer","inputs":[{"name":"from","type":"address","indexed":true,"internalType":"address"},{"name":"to","type":"address","indexed":true,"internalType":"address"},{"name":"amount","type":"uint256","indexed":false,"internalType":"uint256"}],"anonymous":false},{"type":"event","name":"Withdrawal","inputs":[{"name":"to","type":"address","indexed":true,"internalType":"address"},{"name":"amount","type":"uint256","indexed":false,"internalType":"uint256"}],"anonymous":false}],"bytecode":{"object":"0x60e060405234610042576100116101a1565b610019610047565b61165a6106aa82396080518161058f015260a05181610c71015260c05181610ca4015261165a90f35b61004d565b60405190565b5f80fd5b601f801991011690565b634e487b7160e01b5f52604160045260245ffd5b9061007990610051565b810190811060018060401b0382111761009157604052565b61005b565b906100a96100a2610047565b928361006f565b565b60018060401b0381116100c7576100c3602091610051565b0190565b61005b565b906100de6100d9836100ab565b610096565b918252565b5f7f5772617070656420457468657200000000000000000000000000000000000000910152565b610114600d6100cc565b90610121602083016100e3565b565b61012b61010a565b90565b5f7f5745544800000000000000000000000000000000000000000000000000000000910152565b61015f60046100cc565b9061016c6020830161012e565b565b610176610155565b90565b90565b60ff1690565b90565b61019961019461019e92610179565b610182565b61017c565b90565b6101c46101ac610123565b6101b461016e565b6101be6012610185565b9161041a565b565b5190565b634e487b7160e01b5f52602260045260245ffd5b90600160028304921680156101fe575b60208310146101f957565b6101ca565b91607f16916101ee565b5f5260205f2090565b601f602091010490565b1b90565b9190600861023a9102916102345f198461021b565b9261021b565b9181191691161790565b90565b61025b61025661026092610244565b610182565b610244565b90565b90565b919061027c61027761028493610247565b610263565b90835461021f565b9055565b5f90565b61029e91610298610288565b91610266565b565b5b8181106102ac575050565b806102b95f60019361028c565b016102a1565b9190601f81116102cf575b505050565b6102db61030093610208565b9060206102e784610211565b83019310610308575b6102f990610211565b01906102a0565b5f80806102ca565b91506102f9819290506102f0565b1c90565b9061032a905f1990600802610316565b191690565b816103399161031a565b906002021790565b9061034b816101c6565b9060018060401b0382116104095761036d8261036785546101de565b856102bf565b602090601f83116001146103a157918091610390935f92610395575b505061032f565b90555b565b90915001515f80610389565b601f198316916103b085610208565b925f5b8181106103f1575091600293918560019694106103d7575b50505002019055610393565b6103e7910151601f84169061031a565b90555f80806103cb565b919360206001819287870151815501950192016103b3565b61005b565b9061041891610341565b565b9061042861042f925f61040e565b600161040e565b6080524660a05261043e6105ef565b60c052565b5f90565b90565b60209181520190565b5f5260205f2090565b905f929180549061047661046f836101de565b809461044a565b916001811690815f146104cd5750600114610491575b505050565b61049e9192939450610453565b915f925b8184106104b557505001905f808061048c565b600181602092959395548486015201910192906104a2565b92949550505060ff19168252151560200201905f808061048c565b906104f29161045c565b90565b9061051561050e92610505610047565b938480926104e8565b038361006f565b565b610520906104f5565b90565b60200190565b5190565b60018060a01b031690565b61054c6105476105519261052d565b610182565b61052d565b90565b61055d90610538565b90565b61056990610554565b90565b90565b6105789061056c565b9052565b61058590610244565b9052565b6105929061052d565b90565b61059e90610589565b9052565b909594926105ed946105dc6105e6926105d26080966105c860a088019c5f89019061056f565b602087019061056f565b604085019061056f565b606083019061057c565b0190610595565b565b6105f7610443565b507f8b73c3c69bb8fe3d512ecc4cf759cc79239f7b179b0ffacaa9a75d522b39400f61069361062d6106285f610447565b610517565b61063f61063982610529565b91610523565b20916106847fc89efdaa54c0f20c7adf612882df0950f5a951637e0307cdcb4c672f298b8bc64661066f30610560565b91610678610047565b968795602087016105a2565b6020820181038252038261006f565b6106a561069f82610529565b91610523565b209056fe6080604052600436101561001d575b3661099c5761001b61121e565b005b6100275f35610106565b806306fdde0314610101578063095ea7b3146100fc57806318160ddd146100f757806323b872dd146100f25780632e1a7d4d146100ed578063313ce567146100e85780633644e515146100e357806370a08231146100de5780637ecebe00146100d957806395d89b41146100d4578063a9059cbb146100cf578063d0e30db0146100ca578063d505accf146100c55763dd62ed3e0361000e57610966565b6108c8565b6107e9565b6107b3565b61077e565b61073a565b6106ec565b610633565b6105d9565b61055a565b610501565b610492565b6103fe565b610315565b60e01c90565b60405190565b5f80fd5b5f80fd5b5f91031261012457565b610116565b634e487b7160e01b5f525f60045260245ffd5b634e487b7160e01b5f52602260045260245ffd5b9060016002830492168015610170575b602083101461016b57565b61013c565b91607f1691610160565b60209181520190565b5f5260205f2090565b905f92918054906101a661019f83610150565b809461017a565b916001811690815f146101fd57506001146101c1575b505050565b6101ce9192939450610183565b915f925b8184106101e557505001905f80806101bc565b600181602092959395548486015201910192906101d2565b92949550505060ff19168252151560200201905f80806101bc565b906102229161018c565b90565b601f801991011690565b634e487b7160e01b5f52604160045260245ffd5b9061024d90610225565b810190811067ffffffffffffffff82111761026757604052565b61022f565b9061028c6102859261027c61010c565b93848092610218565b0383610243565b565b905f106102a15761029e9061026c565b90565b610129565b6102b15f5f9061028e565b90565b5190565b60209181520190565b90825f9392825e0152565b6102eb6102f46020936102f9936102e2816102b4565b938480936102b8565b958691016102c1565b610225565b0190565b6103129160208201915f8184039101526102cc565b90565b346103455761032536600461011a565b6103416103306102a6565b61033861010c565b918291826102fd565b0390f35b610112565b60018060a01b031690565b61035e9061034a565b90565b61036a81610355565b0361037157565b5f80fd5b9050359061038282610361565b565b90565b61039081610384565b0361039757565b5f80fd5b905035906103a882610387565b565b91906040838203126103d257806103c66103cf925f8601610375565b9360200161039b565b90565b610116565b151590565b6103e5906103d7565b9052565b91906103fc905f602085019401906103dc565b565b3461042f5761042b61041a6104143660046103aa565b906109fe565b61042261010c565b918291826103e9565b0390f35b610112565b1c90565b90565b61044b9060086104509302610434565b610438565b90565b9061045e915461043b565b90565b61046d60025f90610453565b90565b61047990610384565b9052565b9190610490905f60208501940190610470565b565b346104c2576104a236600461011a565b6104be6104ad610461565b6104b561010c565b9182918261047d565b0390f35b610112565b90916060828403126104fc576104f96104e2845f8501610375565b936104f08160208601610375565b9360400161039b565b90565b610116565b346105325761052e61051d6105173660046104c7565b91610ae8565b61052561010c565b918291826103e9565b0390f35b610112565b906020828203126105505761054d915f0161039b565b90565b610116565b5f0190565b346105885761057261056d366004610537565b610bff565b61057a61010c565b8061058481610555565b0390f35b610112565b7f000000000000000000000000000000000000000000000000000000000000000090565b60ff1690565b6105c0906105b1565b9052565b91906105d7905f602085019401906105b7565b565b34610609576105e936600461011a565b6106056105f461058d565b6105fc61010c565b918291826105c4565b0390f35b610112565b90565b61061a9061060e565b9052565b9190610631905f60208501940190610611565b565b346106635761064336600461011a565b61065f61064e610c5f565b61065661010c565b9182918261061e565b0390f35b610112565b906020828203126106815761067e915f01610375565b90565b610116565b90565b61069d6106986106a29261034a565b610686565b61034a565b90565b6106ae90610689565b90565b6106ba906106a5565b90565b906106c7906106b1565b5f5260205260405f2090565b6106e9906106e46003915f926106bd565b610453565b90565b3461071c57610718610707610702366004610668565b6106d3565b61070f61010c565b9182918261047d565b0390f35b610112565b610737906107326005915f926106bd565b610453565b90565b3461076a57610766610755610750366004610668565b610721565b61075d61010c565b9182918261047d565b0390f35b610112565b61077b60015f9061028e565b90565b346107ae5761078e36600461011a565b6107aa61079961076f565b6107a161010c565b918291826102fd565b0390f35b610112565b346107e4576107e06107cf6107c93660046103aa565b90610cd4565b6107d761010c565b918291826103e9565b0390f35b610112565b6107f436600461011a565b6107fc610d82565b61080461010c565b8061080e81610555565b0390f35b61081b816105b1565b0361082257565b5f80fd5b9050359061083382610812565b565b61083e8161060e565b0361084557565b5f80fd5b9050359061085682610835565b565b60e0818303126108c35761086e825f8301610375565b9261087c8360208401610375565b9261088a816040850161039b565b92610898826060830161039b565b926108c06108a98460808501610826565b936108b78160a08601610849565b9360c001610849565b90565b610116565b346108fd576108e76108db366004610858565b9594909493919361103b565b6108ef61010c565b806108f981610555565b0390f35b610112565b919060408382031261092a578061091e610927925f8601610375565b93602001610375565b90565b610116565b90610939906106b1565b5f5260205260405f2090565b61095e610963926109596004935f9461092f565b6106bd565b610453565b90565b346109975761099361098261097c366004610902565b90610945565b61098a61010c565b9182918261047d565b0390f35b610112565b5f80fd5b5f90565b5f1b90565b906109b55f19916109a4565b9181191691161790565b6109d36109ce6109d892610384565b610686565b610384565b90565b90565b906109f36109ee6109fa926109bf565b6109db565b82546109a9565b9055565b90610a076109a0565b50610a2781610a22610a1b6004339061092f565b85906106bd565b6109de565b33919091610a73610a61610a5b7f8c5be1e5ebec7d5bd14f71427d1e84f3dd0314c0f7b2291e5b200ac8c7c3b925936106b1565b936106b1565b93610a6a61010c565b9182918261047d565b0390a3600190565b5f1c90565b610a8c610a9191610a7b565b610438565b90565b610a9e9054610a80565b90565b634e487b7160e01b5f52601160045260245ffd5b610ac4610aca91939293610384565b92610384565b8203918211610ad557565b610aa1565b90610ae59101610384565b90565b919091610af36109a0565b50610b12610b0d610b066004849061092f565b33906106bd565b610a94565b80610b26610b205f19610384565b91610384565b03610bd0575b50610b5582610b4f610b40600385906106bd565b91610b4a83610a94565b610ab5565b906109de565b610b7d82610b77610b68600387906106bd565b91610b7283610a94565b610ada565b906109de565b919091610bc8610bb6610bb07fddf252ad1be2c89b69c2b068fc378daa952ba7f163c4a11628f55a4df523b3ef936106b1565b936106b1565b93610bbf61010c565b9182918261047d565b0390a3600190565b610bde610bf9918490610ab5565b610bf4610bed6004859061092f565b33906106bd565b6109de565b5f610b2c565b610c5990610c0e338290611236565b338190610c50610c3e7f7fcf532c15f0a6db0bd6d0e038bea71d30d808c7d98cb3bf7268a95bf5081b65926106b1565b92610c4761010c565b9182918261047d565b0390a233611356565b565b5f90565b610c67610c5b565b5046610c9b610c957f0000000000000000000000000000000000000000000000000000000000000000610384565b91610384565b145f14610cc7577f00000000000000000000000000000000000000000000000000000000000000005b90565b610ccf6114a6565b610cc4565b90610cdd6109a0565b50610d0681610d00610cf1600333906106bd565b91610cfb83610a94565b610ab5565b906109de565b610d2e81610d28610d19600386906106bd565b91610d2383610a94565b610ada565b906109de565b33919091610d7a610d68610d627fddf252ad1be2c89b69c2b068fc378daa952ba7f163c4a11628f55a4df523b3ef936106b1565b936106b1565b93610d7161010c565b9182918261047d565b0390a3600190565b610d8d333490611585565b333490610dcf610dbd7fe1fffcc4923d04b559f4d29a8bfc6cda04eb5b0d3c460751c2402c5c5cc9109c926106b1565b92610dc661010c565b9182918261047d565b0390a2565b5f7f5045524d49545f444541444c494e455f45585049524544000000000000000000910152565b610e0860176020926102b8565b610e1181610dd4565b0190565b610e2a9060208101905f818303910152610dfb565b90565b15610e3457565b610e3c61010c565b62461bcd60e51b815280610e5260048201610e15565b0390fd5b6001610e629101610384565b90565b610e6e90610355565b9052565b9194610eba610ec492989795610eb060a096610ea6610ecb9a610e9c60c08a019e5f8b0190610611565b6020890190610e65565b6040870190610e65565b6060850190610470565b6080830190610470565b0190610470565b565b60200190565b5190565b905090565b5f61190160f01b910152565b610ef460028092610ed7565b610efd81610edc565b0190565b90565b610f10610f159161060e565b610f01565b9052565b6020809392610f34610f2d610f3c94610ee8565b8092610f04565b018092610f04565b0190565b610f75610f7c94610f6b606094989795610f61608086019a5f870190610611565b60208501906105b7565b6040830190610611565b0190610611565b565b610f8661010c565b3d5f823e3d90fd5b90565b610fa5610fa0610faa92610f8e565b610686565b61034a565b90565b610fb690610f91565b90565b5f7f494e56414c49445f5349474e4552000000000000000000000000000000000000910152565b610fed600e6020926102b8565b610ff681610fb9565b0190565b61100f9060208101905f818303910152610fe0565b90565b1561101957565b61102161010c565b62461bcd60e51b81528061103760048201610ffa565b0390fd5b936111485f939692976020956110648161105d61105742610384565b91610384565b1015610e2d565b6111228a6110ea8a6110dc8d611078610c5f565b967f6e71edae12b1b97f4d1f60370fef10105fa2faae0126114a169c64845d6126c9936110a98197939160056106bd565b6110c56110b582610a94565b916110bf83610e56565b906109de565b91926110cf61010c565b9760209689978801610e72565b8b8201810382520382610243565b6110fc6110f682610ed3565b91610ecd565b209161111461110961010c565b9384928b8401610f19565b898201810382520382610243565b61113461112e82610ed3565b91610ecd565b20929361113f61010c565b94859485610f40565b838052039060015afa15611219576111aa6111635f516109a4565b8061117e6111786111735f610fad565b610355565b91610355565b1415806111fa575b61118f90611012565b6111a561119e8592600461092f565b86906106bd565b6109de565b9190916111f56111e36111dd7f8c5be1e5ebec7d5bd14f71427d1e84f3dd0314c0f7b2291e5b200ac8c7c3b925936106b1565b936106b1565b936111ec61010c565b9182918261047d565b0390a3565b5061118f8161121161120b86610355565b91610355565b149050611186565b610f7e565b611226610d82565b565b906112339103610384565b90565b61125e82611258611249600385906106bd565b9161125383610a94565b610ab5565b906109de565b61127b6112748361126f6002610a94565b611228565b60026109de565b906112855f610fad565b90916112cf6112bd6112b77fddf252ad1be2c89b69c2b068fc378daa952ba7f163c4a11628f55a4df523b3ef936106b1565b936106b1565b936112c661010c565b9182918261047d565b0390a3565b5f7f4554485f5452414e534645525f4641494c454400000000000000000000000000910152565b61130860136020926102b8565b611311816112d4565b0190565b61132a9060208101905f8183039101526112fb565b90565b1561133457565b61133c61010c565b62461bcd60e51b81528061135260048201611315565b0390fd5b5f808061136f9481946113676109a0565b505af161132d565b565b90565b60209181520190565b5f5260205f2090565b905f92918054906113a061139983610150565b8094611374565b916001811690815f146113f757506001146113bb575b505050565b6113c8919293945061137d565b915f925b8184106113df57505001905f80806113b6565b600181602092959395548486015201910192906113cc565b92949550505060ff19168252151560200201905f80806113b6565b9061141c91611386565b90565b9061143f6114389261142f61010c565b93848092611412565b0383610243565b565b61144a9061141f565b90565b611456906106a5565b90565b909594926114a49461149361149d9261148960809661147f60a088019c5f890190610611565b6020870190610611565b6040850190610611565b6060830190610470565b0190610e65565b565b6114ae610c5b565b507f8b73c3c69bb8fe3d512ecc4cf759cc79239f7b179b0ffacaa9a75d522b39400f61154a6114e46114df5f611371565b611441565b6114f66114f082610ed3565b91610ecd565b209161153b7fc89efdaa54c0f20c7adf612882df0950f5a951637e0307cdcb4c672f298b8bc6466115263061144d565b9161152f61010c565b96879560208701611459565b60208201810382520382610243565b61155c61155682610ed3565b91610ecd565b2090565b61156f61157591939293610384565b92610384565b820180921161158057565b610aa1565b906115a361159c826115976002610a94565b611560565b60026109de565b6115cb816115c56115b6600386906106bd565b916115c083610a94565b610ada565b906109de565b6115d45f610fad565b91909161161f61160d6116077fddf252ad1be2c89b69c2b068fc378daa952ba7f163c4a11628f55a4df523b3ef936106b1565b936106b1565b9361161661010c565b9182918261047d565b0390a356fea264697066735822122051472fda3a50b62e949203bacc1b967827c2d33b95858a64c9d53d4b67a8248f64736f6c634300081e0033","linkReferences":{}},"methodIdentifiers":{"DOMAIN_SEPARATOR()":"3644e515","allowance(address,address)":"dd62ed3e","approve(address,uint256)":"095ea7b3","balanceOf(address)":"70a08231","decimals()":"313ce567","deposit()":"d0e30db0","name()":"06fdde03","nonces(address)":"7ecebe00","permit(address,address,uint256,uint256,uint8,bytes32,bytes32)":"d505accf","symbol()":"95d89b41","totalSupply()":"18160ddd","transfer(address,uint256)":"a9059cbb","transferFrom(address,address,uint256)":"23b872dd","withdraw(uint256)":"2e1a7d4d"},"id":69}