{"abi":[{"type":"receive","stateMutability":"payable"},{"type":"function","name":"DOMAIN_SEPARATOR","inputs":[],"outputs":[{"name":"","type":"bytes32","internalType":"bytes32"}],"stateMutability":"view"},{"type":"function","name":"allowance","inputs":[{"name":"","type":"address","internalType":"address"},{"name":"","type":"address","internalType":"address"}],"outputs":[{"name":"","type":"uint256","internalType":"uint256"}],"stateMutability":"view"},{"type":"function","name":"approve","inputs":[{"name":"spender","type":"address","internalType":"address"},{"name":"amount","type":"uint256","internalType":"uint256"}],"outputs":[{"name":"","type":"bool","internalType":"bool"}],"stateMutability":"nonpayable"},{"type":"function","name":"balanceOf","inputs":[{"name":"","type":"address","internalType":"address"}],"outputs":[{"name":"","type":"uint256","internalType":"uint256"}],"stateMutability":"view"},{"type":"function","name":"decimals","inputs":[],"outputs":[{"name":"","type":"uint8","internalType":"uint8"}],"stateMutability":"view"},{"type":"function","name":"deposit","inputs":[],"outputs":[],"stateMutability":"payable"},{"type":"function","name":"name","inputs":[],"outputs":[{"name":"","type":"string","internalType":"string"}],"stateMutability":"view"},{"type":"function","name":"nonces","inputs":[{"name":"","type":"address","internalType":"address"}],"outputs":[{"name":"","type":"uint256","internalType":"uint256"}],"stateMutability":"view"},{"type":"function","name":"permit","inputs":[{"name":"owner","type":"address","internalType":"address"},{"name":"spender","type":"address","internalType":"address"},{"name":"value","type":"uint256","internalType":"uint256"},{"name":"deadline","type":"uint256","internalType":"uint256"},{"name":"v","type":"uint8","internalType":"uint8"},{"name":"r","type":"bytes32","internalType":"bytes32"},{"name":"s","type":"bytes32","internalType":"bytes32"}],"outputs":[],"stateMutability":"nonpayable"},{"type":"function","name":"symbol","inputs":[],"outputs":[{"name":"","type":"string","internalType":"string"}],"stateMutability":"view"},{"type":"function","name":"totalSupply","inputs":[],"outputs":[{"name":"","type":"uint256","internalType":"uint256"}],"stateMutability":"view"},{"type":"function","name":"transfer","inputs":[{"name":"to","type":"address","internalType":"address"},{"name":"amount","type":"uint256","internalType":"uint256"}],"outputs":[{"name":"","type":"bool","internalType":"bool"}],"stateMutability":"nonpayable"},{"type":"function","name":"transferFrom","inputs":[{"name":"from","type":"address","internalType":"address"},{"name":"to","type":"address","internalType":"address"},{"name":"amount","type":"uint256","internalType":"uint256"}],"outputs":[{"name":"","type":"bool","internalType":"bool"}],"stateMutability":"nonpayable"},{"type":"function","name":"withdraw","inputs":[{"name":"amount","type":"uint256","internalType":"uint256"}],"outputs":[],"stateMutability":"nonpayable"},{"type":"event","name":"Approval","inputs":[{"name":"owner","type":"address","indexed":true,"internalType":"address"},{"name":"spender","type":"address","indexed":true,"internalType":"address"},{"name":"amount","type":"uint256","indexed":false,"internalType":"uint256"}],"anonymous":false},{"type":"event","name":"Deposit","inputs":[{"name":"from","type":"address","indexed":true,"internalType":"address"},{"name":"amount","type":"uint256","indexed":false,"internalType":"uint256"}],"anonymous":false},{"type":"event","name":"Transfer","inputs":[{"name":"from","type":"address","indexed":true,"internalType":"address"},{"name":"to","type":"address","indexed":true,"internalType":"address"},{"name":"amount","type":"uint256","indexed":false,"internalType":"uint256"}],"anonymous":false},{"type":"event","name":"Withdrawal","inputs":[{"name":"to","type":"address","indexed":true,"internalType":"address"},{"name":"amount","type":"uint256","indexed":false,"internalType":"uint256"}],"anonymous":false}],"bytecode":{"object":"0x60e060405234801562000010575f80fd5b506040518060400160405280600d81526020017f57726170706564204574686572000000000000000000000000000000000000008152506040518060400160405280600481526020017f57455448000000000000000000000000000000000000000000000000000000008152506012825f90816200008f9190620003ca565b508160019081620000a19190620003ca565b508060ff1660808160ff16815250504660a08181525050620000c8620000d860201b60201c565b60c0818152505050505062000637565b5f7f8b73c3c69bb8fe3d512ecc4cf759cc79239f7b179b0ffacaa9a75d522b39400f5f6040516200010a919062000556565b60405180910390207fc89efdaa54c0f20c7adf612882df0950f5a951637e0307cdcb4c672f298b8bc646306040516020016200014b959493929190620005dc565b60405160208183030381529060405280519060200120905090565b5f81519050919050565b7f4e487b71000000000000000000000000000000000000000000000000000000005f52604160045260245ffd5b7f4e487b71000000000000000000000000000000000000000000000000000000005f52602260045260245ffd5b5f6002820490506001821680620001e257607f821691505b602082108103620001f857620001f76200019d565b5b50919050565b5f819050815f5260205f209050919050565b5f6020601f8301049050919050565b5f82821b905092915050565b5f600883026200025c7fffffffffffffffffffffffffffffffffffffffffffffffffffffffffffffffff826200021f565b6200026886836200021f565b95508019841693508086168417925050509392505050565b5f819050919050565b5f819050919050565b5f620002b2620002ac620002a68462000280565b62000289565b62000280565b9050919050565b5f819050919050565b620002cd8362000292565b620002e5620002dc82620002b9565b8484546200022b565b825550505050565b5f90565b620002fb620002ed565b62000308818484620002c2565b505050565b5b818110156200032f57620003235f82620002f1565b6001810190506200030e565b5050565b601f8211156200037e576200034881620001fe565b620003538462000210565b8101602085101562000363578190505b6200037b620003728562000210565b8301826200030d565b50505b505050565b5f82821c905092915050565b5f620003a05f198460080262000383565b1980831691505092915050565b5f620003ba83836200038f565b9150826002028217905092915050565b620003d58262000166565b67ffffffffffffffff811115620003f157620003f062000170565b5b620003fd8254620001ca565b6200040a82828562000333565b5f60209050601f83116001811462000440575f84156200042b578287015190505b620004378582620003ad565b865550620004a6565b601f1984166200045086620001fe565b5f5b82811015620004795784890151825560018201915060208501945060208101905062000452565b8683101562000499578489015162000495601f8916826200038f565b8355505b6001600288020188555050505b505050505050565b5f81905092915050565b5f819050815f5260205f209050919050565b5f8154620004d881620001ca565b620004e48186620004ae565b9450600182165f811462000501576001811462000517576200054d565b60ff19831686528115158202860193506200054d565b6200052285620004b8565b5f5b83811015620005455781548189015260018201915060208101905062000524565b838801955050505b50505092915050565b5f620005638284620004ca565b915081905092915050565b5f819050919050565b62000582816200056e565b82525050565b620005938162000280565b82525050565b5f73ffffffffffffffffffffffffffffffffffffffff82169050919050565b5f620005c48262000599565b9050919050565b620005d681620005b8565b82525050565b5f60a082019050620005f15f83018862000577565b62000600602083018762000577565b6200060f604083018662000577565b6200061e606083018562000588565b6200062d6080830184620005cb565b9695505050505050565b60805160a05160c0516118a8620006625f395f61087901525f61084501525f61082001526118a85ff3fe6080604052600436106100e0575f3560e01c806370a082311161007e578063a9059cbb11610058578063a9059cbb146102dd578063d0e30db014610319578063d505accf14610323578063dd62ed3e1461034b576100ef565b806370a082311461023b5780637ecebe001461027757806395d89b41146102b3576100ef565b806323b872dd116100ba57806323b872dd146101835780632e1a7d4d146101bf578063313ce567146101e75780633644e51514610211576100ef565b806306fdde03146100f3578063095ea7b31461011d57806318160ddd14610159576100ef565b366100ef576100ed610387565b005b5f80fd5b3480156100fe575f80fd5b506101076103e1565b6040516101149190611068565b60405180910390f35b348015610128575f80fd5b50610143600480360381019061013e9190611119565b61046c565b6040516101509190611171565b60405180910390f35b348015610164575f80fd5b5061016d610559565b60405161017a9190611199565b60405180910390f35b34801561018e575f80fd5b506101a960048036038101906101a491906111b2565b61055f565b6040516101b69190611171565b60405180910390f35b3480156101ca575f80fd5b506101e560048036038101906101e09190611202565b61079a565b005b3480156101f2575f80fd5b506101fb61081e565b6040516102089190611248565b60405180910390f35b34801561021c575f80fd5b50610225610842565b6040516102329190611279565b60405180910390f35b348015610246575f80fd5b50610261600480360381019061025c9190611292565b61089e565b60405161026e9190611199565b60405180910390f35b348015610282575f80fd5b5061029d60048036038101906102989190611292565b6108b3565b6040516102aa9190611199565b60405180910390f35b3480156102be575f80fd5b506102c76108c8565b6040516102d49190611068565b60405180910390f35b3480156102e8575f80fd5b5061030360048036038101906102fe9190611119565b610954565b6040516103109190611171565b60405180910390f35b610321610387565b005b34801561032e575f80fd5b5061034960048036038101906103449190611311565b610a61565b005b348015610356575f80fd5b50610371600480360381019061036c91906113ae565b610d4e565b60405161037e9190611199565b60405180910390f35b6103913334610d6e565b3373ffffffffffffffffffffffffffffffffffffffff167fe1fffcc4923d04b559f4d29a8bfc6cda04eb5b0d3c460751c2402c5c5cc9109c346040516103d79190611199565b60405180910390a2565b5f80546103ed90611419565b80601f016020809104026020016040519081016040528092919081815260200182805461041990611419565b80156104645780601f1061043b57610100808354040283529160200191610464565b820191905f5260205f20905b81548152906001019060200180831161044757829003601f168201915b505050505081565b5f8160045f3373ffffffffffffffffffffffffffffffffffffffff1673ffffffffffffffffffffffffffffffffffffffff1681526020019081526020015f205f8573ffffffffffffffffffffffffffffffffffffffff1673ffffffffffffffffffffffffffffffffffffffff1681526020019081526020015f20819055508273ffffffffffffffffffffffffffffffffffffffff163373ffffffffffffffffffffffffffffffffffffffff167f8c5be1e5ebec7d5bd14f71427d1e84f3dd0314c0f7b2291e5b200ac8c7c3b925846040516105479190611199565b60405180910390a36001905092915050565b60025481565b5f8060045f8673ffffffffffffffffffffffffffffffffffffffff1673ffffffffffffffffffffffffffffffffffffffff1681526020019081526020015f205f3373ffffffffffffffffffffffffffffffffffffffff1673ffffffffffffffffffffffffffffffffffffffff1681526020019081526020015f205490507fffffffffffffffffffffffffffffffffffffffffffffffffffffffffffffffff811461068c57828161060f9190611476565b60045f8773ffffffffffffffffffffffffffffffffffffffff1673ffffffffffffffffffffffffffffffffffffffff1681526020019081526020015f205f3373ffffffffffffffffffffffffffffffffffffffff1673ffffffffffffffffffffffffffffffffffffffff1681526020019081526020015f20819055505b8260035f8773ffffffffffffffffffffffffffffffffffffffff1673ffffffffffffffffffffffffffffffffffffffff1681526020019081526020015f205f8282546106d89190611476565b925050819055508260035f8673ffffffffffffffffffffffffffffffffffffffff1673ffffffffffffffffffffffffffffffffffffffff1681526020019081526020015f205f82825401925050819055508373ffffffffffffffffffffffffffffffffffffffff168573ffffffffffffffffffffffffffffffffffffffff167fddf252ad1be2c89b69c2b068fc378daa952ba7f163c4a11628f55a4df523b3ef856040516107869190611199565b60405180910390a360019150509392505050565b6107a43382610e39565b3373ffffffffffffffffffffffffffffffffffffffff167f7fcf532c15f0a6db0bd6d0e038bea71d30d808c7d98cb3bf7268a95bf5081b65826040516107ea9190611199565b60405180910390a261081b813373ffffffffffffffffffffffffffffffffffffffff16610f0490919063ffffffff16565b50565b7f000000000000000000000000000000000000000000000000000000000000000081565b5f7f0000000000000000000000000000000000000000000000000000000000000000461461087757610872610f54565b610899565b7f00000000000000000000000000000000000000000000000000000000000000005b905090565b6003602052805f5260405f205f915090505481565b6005602052805f5260405f205f915090505481565b600180546108d590611419565b80601f016020809104026020016040519081016040528092919081815260200182805461090190611419565b801561094c5780601f106109235761010080835404028352916020019161094c565b820191905f5260205f20905b81548152906001019060200180831161092f57829003601f168201915b505050505081565b5f8160035f3373ffffffffffffffffffffffffffffffffffffffff1673ffffffffffffffffffffffffffffffffffffffff1681526020019081526020015f205f8282546109a19190611476565b925050819055508160035f8573ffffffffffffffffffffffffffffffffffffffff1673ffffffffffffffffffffffffffffffffffffffff1681526020019081526020015f205f82825401925050819055508273ffffffffffffffffffffffffffffffffffffffff163373ffffffffffffffffffffffffffffffffffffffff167fddf252ad1be2c89b69c2b068fc378daa952ba7f163c4a11628f55a4df523b3ef84604051610a4f9190611199565b60405180910390a36001905092915050565b42841015610aa4576040517f08c379a0000000000000000000000000000000000000000000000000000000008152600401610a9b906114f3565b60405180910390fd5b5f6001610aaf610842565b7f6e71edae12b1b97f4d1f60370fef10105fa2faae0126114a169c64845d6126c98a8a8a60055f8f73ffffffffffffffffffffffffffffffffffffffff1673ffffffffffffffffffffffffffffffffffffffff1681526020019081526020015f205f815480929190600101919050558b604051602001610b3496959493929190611520565b60405160208183030381529060405280519060200120604051602001610b5b9291906115f3565b604051602081830303815290604052805190602001208585856040515f8152602001604052604051610b909493929190611629565b6020604051602081039080840390855afa158015610bb0573d5f803e3d5ffd5b5050506020604051035190505f73ffffffffffffffffffffffffffffffffffffffff168173ffffffffffffffffffffffffffffffffffffffff1614158015610c2357508773ffffffffffffffffffffffffffffffffffffffff168173ffffffffffffffffffffffffffffffffffffffff16145b610c62576040517f08c379a0000000000000000000000000000000000000000000000000000000008152600401610c59906116b6565b60405180910390fd5b8560045f8373ffffffffffffffffffffffffffffffffffffffff1673ffffffffffffffffffffffffffffffffffffffff1681526020019081526020015f205f8973ffffffffffffffffffffffffffffffffffffffff1673ffffffffffffffffffffffffffffffffffffffff1681526020019081526020015f2081905550508573ffffffffffffffffffffffffffffffffffffffff168773ffffffffffffffffffffffffffffffffffffffff167f8c5be1e5ebec7d5bd14f71427d1e84f3dd0314c0f7b2291e5b200ac8c7c3b92587604051610d3d9190611199565b60405180910390a350505050505050565b6004602052815f5260405f20602052805f5260405f205f91509150505481565b8060025f828254610d7f91906116d4565b925050819055508060035f8473ffffffffffffffffffffffffffffffffffffffff1673ffffffffffffffffffffffffffffffffffffffff1681526020019081526020015f205f82825401925050819055508173ffffffffffffffffffffffffffffffffffffffff165f73ffffffffffffffffffffffffffffffffffffffff167fddf252ad1be2c89b69c2b068fc378daa952ba7f163c4a11628f55a4df523b3ef83604051610e2d9190611199565b60405180910390a35050565b8060035f8473ffffffffffffffffffffffffffffffffffffffff1673ffffffffffffffffffffffffffffffffffffffff1681526020019081526020015f205f828254610e859190611476565b925050819055508060025f82825403925050819055505f73ffffffffffffffffffffffffffffffffffffffff168273ffffffffffffffffffffffffffffffffffffffff167fddf252ad1be2c89b69c2b068fc378daa952ba7f163c4a11628f55a4df523b3ef83604051610ef89190611199565b60405180910390a35050565b5f805f805f85875af1905080610f4f576040517f08c379a0000000000000000000000000000000000000000000000000000000008152600401610f4690611751565b60405180910390fd5b505050565b5f7f8b73c3c69bb8fe3d512ecc4cf759cc79239f7b179b0ffacaa9a75d522b39400f5f604051610f84919061180b565b60405180910390207fc89efdaa54c0f20c7adf612882df0950f5a951637e0307cdcb4c672f298b8bc64630604051602001610fc3959493929190611821565b60405160208183030381529060405280519060200120905090565b5f81519050919050565b5f82825260208201905092915050565b5f5b83811015611015578082015181840152602081019050610ffa565b5f8484015250505050565b5f601f19601f8301169050919050565b5f61103a82610fde565b6110448185610fe8565b9350611054818560208601610ff8565b61105d81611020565b840191505092915050565b5f6020820190508181035f8301526110808184611030565b905092915050565b5f80fd5b5f73ffffffffffffffffffffffffffffffffffffffff82169050919050565b5f6110b58261108c565b9050919050565b6110c5816110ab565b81146110cf575f80fd5b50565b5f813590506110e0816110bc565b92915050565b5f819050919050565b6110f8816110e6565b8114611102575f80fd5b50565b5f81359050611113816110ef565b92915050565b5f806040838503121561112f5761112e611088565b5b5f61113c858286016110d2565b925050602061114d85828601611105565b9150509250929050565b5f8115159050919050565b61116b81611157565b82525050565b5f6020820190506111845f830184611162565b92915050565b611193816110e6565b82525050565b5f6020820190506111ac5f83018461118a565b92915050565b5f805f606084860312156111c9576111c8611088565b5b5f6111d6868287016110d2565b93505060206111e7868287016110d2565b92505060406111f886828701611105565b9150509250925092565b5f6020828403121561121757611216611088565b5b5f61122484828501611105565b91505092915050565b5f60ff82169050919050565b6112428161122d565b82525050565b5f60208201905061125b5f830184611239565b92915050565b5f819050919050565b61127381611261565b82525050565b5f60208201905061128c5f83018461126a565b92915050565b5f602082840312156112a7576112a6611088565b5b5f6112b4848285016110d2565b91505092915050565b6112c68161122d565b81146112d0575f80fd5b50565b5f813590506112e1816112bd565b92915050565b6112f081611261565b81146112fa575f80fd5b50565b5f8135905061130b816112e7565b92915050565b5f805f805f805f60e0888a03121561132c5761132b611088565b5b5f6113398a828b016110d2565b975050602061134a8a828b016110d2565b965050604061135b8a828b01611105565b955050606061136c8a828b01611105565b945050608061137d8a828b016112d3565b93505060a061138e8a828b016112fd565b92505060c061139f8a828b016112fd565b91505092959891949750929550565b5f80604083850312156113c4576113c3611088565b5b5f6113d1858286016110d2565b92505060206113e2858286016110d2565b9150509250929050565b7f4e487b71000000000000000000000000000000000000000000000000000000005f52602260045260245ffd5b5f600282049050600182168061143057607f821691505b602082108103611443576114426113ec565b5b50919050565b7f4e487b71000000000000000000000000000000000000000000000000000000005f52601160045260245ffd5b5f611480826110e6565b915061148b836110e6565b92508282039050818111156114a3576114a2611449565b5b92915050565b7f5045524d49545f444541444c494e455f455850495245440000000000000000005f82015250565b5f6114dd601783610fe8565b91506114e8826114a9565b602082019050919050565b5f6020820190508181035f83015261150a816114d1565b9050919050565b61151a816110ab565b82525050565b5f60c0820190506115335f83018961126a565b6115406020830188611511565b61154d6040830187611511565b61155a606083018661118a565b611567608083018561118a565b61157460a083018461118a565b979650505050505050565b5f81905092915050565b7f19010000000000000000000000000000000000000000000000000000000000005f82015250565b5f6115bd60028361157f565b91506115c882611589565b600282019050919050565b5f819050919050565b6115ed6115e882611261565b6115d3565b82525050565b5f6115fd826115b1565b915061160982856115dc565b60208201915061161982846115dc565b6020820191508190509392505050565b5f60808201905061163c5f83018761126a565b6116496020830186611239565b611656604083018561126a565b611663606083018461126a565b95945050505050565b7f494e56414c49445f5349474e45520000000000000000000000000000000000005f82015250565b5f6116a0600e83610fe8565b91506116ab8261166c565b602082019050919050565b5f6020820190508181035f8301526116cd81611694565b9050919050565b5f6116de826110e6565b91506116e9836110e6565b925082820190508082111561170157611700611449565b5b92915050565b7f4554485f5452414e534645525f4641494c4544000000000000000000000000005f82015250565b5f61173b601383610fe8565b915061174682611707565b602082019050919050565b5f6020820190508181035f8301526117688161172f565b9050919050565b5f81905092915050565b5f819050815f5260205f209050919050565b5f815461179781611419565b6117a1818661176f565b9450600182165f81146117bb57600181146117d057611802565b60ff1983168652811515820286019350611802565b6117d985611779565b5f5b838110156117fa578154818901526001820191506020810190506117db565b838801955050505b50505092915050565b5f611816828461178b565b915081905092915050565b5f60a0820190506118345f83018861126a565b611841602083018761126a565b61184e604083018661126a565b61185b606083018561118a565b6118686080830184611511565b969550505050505056fea26469706673582212202b1613de60259d58ed8737912904bea1f950eb568c4ae27c8f198af2801fea6c64736f6c63430008140033","linkReferences":{}},"methodIdentifiers":{"DOMAIN_SEPARATOR()":"3644e515","allowance(address,address)":"dd62ed3e","approve(address,uint256)":"095ea7b3","balanceOf(address)":"70a08231","decimals()":"313ce567","deposit()":"d0e30db0","name()":"06fdde03","nonces(address)":"7ecebe00","permit(address,address,uint256,uint256,uint8,bytes32,bytes32)":"d505accf","symbol()":"95d89b41","totalSupply()":"18160ddd","transfer(address,uint256)":"a9059cbb","transferFrom(address,address,uint256)":"23b872dd","withdraw(uint256)":"2e1a7d4d"},"id":54}