{"abi":[{"type":"constructor","inputs":[{"name":"_router","type":"address","internalType":"address"}],"stateMutability":"nonpayable"},{"type":"function","name":"quote","inputs":[{"name":"tokenIn","type":"address","internalType":"address"},{"name":"tokenOut","type":"address","internalType":"address"},{"name":"amountIn","type":"uint256","internalType":"uint256"}],"outputs":[{"name":"amountOut","type":"uint256","internalType":"uint256"}],"stateMutability":"view"},{"type":"function","name":"router","inputs":[],"outputs":[{"name":"","type":"address","internalType":"contract IUniswapV2Router02"}],"stateMutability":"view"},{"type":"function","name":"swap","inputs":[{"name":"tokenIn","type":"address","internalType":"address"},{"name":"tokenOut","type":"address","internalType":"address"},{"name":"amountIn","type":"uint256","internalType":"uint256"},{"name":"minAmountOut","type":"uint256","internalType":"uint256"},{"name":"","type":"bytes","internalType":"bytes"}],"outputs":[{"name":"amountOut","type":"uint256","internalType":"uint256"}],"stateMutability":"nonpayable"},{"type":"error","name":"SafeERC20FailedDecreaseAllowance","inputs":[{"name":"spender","type":"address","internalType":"address"},{"name":"currentAllowance","type":"uint256","internalType":"uint256"},{"name":"requestedDecrease","type":"uint256","internalType":"uint256"}]},{"type":"error","name":"SafeERC20FailedOperation","inputs":[{"name":"token","type":"address","internalType":"address"}]}],"bytecode":{"object":"0x60a060405234801561000f575f5ffd5b50604051611062380380611062833981810160405281019061003191906100c9565b8073ffffffffffffffffffffffffffffffffffffffff1660808173ffffffffffffffffffffffffffffffffffffffff1681525050506100f4565b5f5ffd5b5f73ffffffffffffffffffffffffffffffffffffffff82169050919050565b5f6100988261006f565b9050919050565b6100a88161008e565b81146100b2575f5ffd5b50565b5f815190506100c38161009f565b92915050565b5f602082840312156100de576100dd61006b565b5b5f6100eb848285016100b5565b91505092915050565b608051610f3b6101275f395f818160f401528181610227015281816102d00152818161042d01526104fa0152610f3b5ff3fe608060405234801561000f575f5ffd5b506004361061003f575f3560e01c80632506c01814610043578063b646638414610073578063f887ea40146100a3575b5f5ffd5b61005d60048036038101906100589190610967565b6100c1565b60405161006a9190610a0c565b60405180910390f35b61008d60048036038101906100889190610a25565b610340565b60405161009a9190610a0c565b60405180910390f35b6100ab6104f8565b6040516100b89190610ad0565b60405180910390f35b5f6100ef3330878a73ffffffffffffffffffffffffffffffffffffffff1661051c909392919063ffffffff16565b61013a7f0000000000000000000000000000000000000000000000000000000000000000868973ffffffffffffffffffffffffffffffffffffffff166105719092919063ffffffff16565b5f600267ffffffffffffffff81111561015657610155610ae9565b5b6040519080825280602002602001820160405280156101845781602001602082028036833780820191505090505b50905087815f8151811061019b5761019a610b16565b5b602002602001019073ffffffffffffffffffffffffffffffffffffffff16908173ffffffffffffffffffffffffffffffffffffffff168152505086816001815181106101ea576101e9610b16565b5b602002602001019073ffffffffffffffffffffffffffffffffffffffff16908173ffffffffffffffffffffffffffffffffffffffff16815250505f7f000000000000000000000000000000000000000000000000000000000000000073ffffffffffffffffffffffffffffffffffffffff166338ed173988888533426040518663ffffffff1660e01b8152600401610286959493929190610c09565b5f604051808303815f875af11580156102a1573d5f5f3e3d5ffd5b505050506040513d5f823e3d601f19601f820116820180604052508101906102c99190610d90565b90506103167f0000000000000000000000000000000000000000000000000000000000000000888b73ffffffffffffffffffffffffffffffffffffffff1661060a9092919063ffffffff16565b8060018151811061032a57610329610b16565b5b6020026020010151925050509695505050505050565b5f5f600267ffffffffffffffff81111561035d5761035c610ae9565b5b60405190808252806020026020018201604052801561038b5781602001602082028036833780820191505090505b50905084815f815181106103a2576103a1610b16565b5b602002602001019073ffffffffffffffffffffffffffffffffffffffff16908173ffffffffffffffffffffffffffffffffffffffff168152505083816001815181106103f1576103f0610b16565b5b602002602001019073ffffffffffffffffffffffffffffffffffffffff16908173ffffffffffffffffffffffffffffffffffffffff16815250507f000000000000000000000000000000000000000000000000000000000000000073ffffffffffffffffffffffffffffffffffffffff1663d06ca61f84836040518363ffffffff1660e01b8152600401610486929190610dd7565b5f60405180830381865afa9250505080156104c357506040513d5f823e3d601f19601f820116820180604052508101906104c09190610d90565b60015b6104d0575f9150506104f1565b806001815181106104e4576104e3610b16565b5b6020026020010151925050505b9392505050565b7f000000000000000000000000000000000000000000000000000000000000000081565b61052a8484848460016106e3565b61056b57836040517f5274afe70000000000000000000000000000000000000000000000000000000081526004016105629190610e05565b60405180910390fd5b50505050565b5f8373ffffffffffffffffffffffffffffffffffffffff1663dd62ed3e30856040518363ffffffff1660e01b81526004016105ad929190610e1e565b602060405180830381865afa1580156105c8573d5f5f3e3d5ffd5b505050506040513d601f19601f820116820180604052508101906105ec9190610e45565b9050610604848484846105ff9190610e9d565b610754565b50505050565b5f8373ffffffffffffffffffffffffffffffffffffffff1663dd62ed3e30856040518363ffffffff1660e01b8152600401610646929190610e1e565b602060405180830381865afa158015610661573d5f5f3e3d5ffd5b505050506040513d601f19601f820116820180604052508101906106859190610e45565b9050818110156106d0578281836040517fe570110f0000000000000000000000000000000000000000000000000000000081526004016106c793929190610ed0565b60405180910390fd5b6106dd8484848403610754565b50505050565b5f5f6323b872dd60e01b9050604051815f525f1960601c87166004525f1960601c86166024528460445260205f60645f5f8c5af1925060015f51148316610741578383151615610735573d5f823e3d81fd5b5f883b113d1516831692505b806040525f606052505095945050505050565b6107608383835f610806565b6108015761077183835f6001610806565b6107b257826040517f5274afe70000000000000000000000000000000000000000000000000000000081526004016107a99190610e05565b60405180910390fd5b6107bf8383836001610806565b61080057826040517f5274afe70000000000000000000000000000000000000000000000000000000081526004016107f79190610e05565b60405180910390fd5b5b505050565b5f5f63095ea7b360e01b9050604051815f525f1960601c86166004528460245260205f60445f5f8b5af1925060015f5114831661085a57838315161561084e573d5f823e3d81fd5b5f873b113d1516831692505b806040525050949350505050565b5f604051905090565b5f5ffd5b5f5ffd5b5f73ffffffffffffffffffffffffffffffffffffffff82169050919050565b5f6108a282610879565b9050919050565b6108b281610898565b81146108bc575f5ffd5b50565b5f813590506108cd816108a9565b92915050565b5f819050919050565b6108e5816108d3565b81146108ef575f5ffd5b50565b5f81359050610900816108dc565b92915050565b5f5ffd5b5f5ffd5b5f5ffd5b5f5f83601f84011261092757610926610906565b5b8235905067ffffffffffffffff8111156109445761094361090a565b5b6020830191508360018202830111156109605761095f61090e565b5b9250929050565b5f5f5f5f5f5f60a0878903121561098157610980610871565b5b5f61098e89828a016108bf565b965050602061099f89828a016108bf565b95505060406109b089828a016108f2565b94505060606109c189828a016108f2565b935050608087013567ffffffffffffffff8111156109e2576109e1610875565b5b6109ee89828a01610912565b92509250509295509295509295565b610a06816108d3565b82525050565b5f602082019050610a1f5f8301846109fd565b92915050565b5f5f5f60608486031215610a3c57610a3b610871565b5b5f610a49868287016108bf565b9350506020610a5a868287016108bf565b9250506040610a6b868287016108f2565b9150509250925092565b5f819050919050565b5f610a98610a93610a8e84610879565b610a75565b610879565b9050919050565b5f610aa982610a7e565b9050919050565b5f610aba82610a9f565b9050919050565b610aca81610ab0565b82525050565b5f602082019050610ae35f830184610ac1565b92915050565b7f4e487b71000000000000000000000000000000000000000000000000000000005f52604160045260245ffd5b7f4e487b71000000000000000000000000000000000000000000000000000000005f52603260045260245ffd5b5f81519050919050565b5f82825260208201905092915050565b5f819050602082019050919050565b610b7581610898565b82525050565b5f610b868383610b6c565b60208301905092915050565b5f602082019050919050565b5f610ba882610b43565b610bb28185610b4d565b9350610bbd83610b5d565b805f5b83811015610bed578151610bd48882610b7b565b9750610bdf83610b92565b925050600181019050610bc0565b5085935050505092915050565b610c0381610898565b82525050565b5f60a082019050610c1c5f8301886109fd565b610c2960208301876109fd565b8181036040830152610c3b8186610b9e565b9050610c4a6060830185610bfa565b610c5760808301846109fd565b9695505050505050565b5f601f19601f8301169050919050565b610c7a82610c61565b810181811067ffffffffffffffff82111715610c9957610c98610ae9565b5b80604052505050565b5f610cab610868565b9050610cb78282610c71565b919050565b5f67ffffffffffffffff821115610cd657610cd5610ae9565b5b602082029050602081019050919050565b5f81519050610cf5816108dc565b92915050565b5f610d0d610d0884610cbc565b610ca2565b90508083825260208201905060208402830185811115610d3057610d2f61090e565b5b835b81811015610d595780610d458882610ce7565b845260208401935050602081019050610d32565b5050509392505050565b5f82601f830112610d7757610d76610906565b5b8151610d87848260208601610cfb565b91505092915050565b5f60208284031215610da557610da4610871565b5b5f82015167ffffffffffffffff811115610dc257610dc1610875565b5b610dce84828501610d63565b91505092915050565b5f604082019050610dea5f8301856109fd565b8181036020830152610dfc8184610b9e565b90509392505050565b5f602082019050610e185f830184610bfa565b92915050565b5f604082019050610e315f830185610bfa565b610e3e6020830184610bfa565b9392505050565b5f60208284031215610e5a57610e59610871565b5b5f610e6784828501610ce7565b91505092915050565b7f4e487b71000000000000000000000000000000000000000000000000000000005f52601160045260245ffd5b5f610ea7826108d3565b9150610eb2836108d3565b9250828201905080821115610eca57610ec9610e70565b5b92915050565b5f606082019050610ee35f830186610bfa565b610ef060208301856109fd565b610efd60408301846109fd565b94935050505056fea2646970667358221220ba962a58b4086f3120d947cbc3981367b5ef709acf687cd4a227b5d21880987464736f6c634300081e0033","linkReferences":{}},"methodIdentifiers":{"quote(address,address,uint256)":"b6466384","router()":"f887ea40","swap(address,address,uint256,uint256,bytes)":"2506c018"},"id":5}