{"abi":[{"type":"function","name":"getRouter","inputs":[],"outputs":[{"name":"","type":"address","internalType":"address"}],"stateMutability":"pure"},{"type":"function","name":"quote","inputs":[{"name":"tokenIn","type":"address","internalType":"address"},{"name":"tokenOut","type":"address","internalType":"address"},{"name":"amountIn","type":"uint256","internalType":"uint256"}],"outputs":[{"name":"amountOut","type":"uint256","internalType":"uint256"}],"stateMutability":"view"},{"type":"function","name":"router","inputs":[],"outputs":[{"name":"","type":"address","internalType":"contract IUniswapV2Router02"}],"stateMutability":"view"},{"type":"function","name":"swap","inputs":[{"name":"tokenIn","type":"address","internalType":"address"},{"name":"tokenOut","type":"address","internalType":"address"},{"name":"amountIn","type":"uint256","internalType":"uint256"},{"name":"","type":"bytes","internalType":"bytes"}],"outputs":[{"name":"amountOut","type":"uint256","internalType":"uint256"}],"stateMutability":"nonpayable"},{"type":"error","name":"SafeERC20FailedOperation","inputs":[{"name":"token","type":"address","internalType":"address"}]}],"bytecode":{"object":"0x6080604052737a250d5630b4cf539739df2c5dacb4c659f2488d5f806101000a81548173ffffffffffffffffffffffffffffffffffffffff021916908373ffffffffffffffffffffffffffffffffffffffff160217905550348015610062575f80fd5b50610d7f806100705f395ff3fe608060405234801561000f575f80fd5b506004361061004a575f3560e01c806343a0a7f21461004e578063b0f479a11461007e578063b64663841461009c578063f887ea40146100cc575b5f80fd5b610068600480360381019061006391906107bd565b6100ea565b6040516100759190610850565b60405180910390f35b610086610408565b6040516100939190610878565b60405180910390f35b6100b660048036038101906100b19190610891565b610423565b6040516100c39190610850565b60405180910390f35b6100d46105d5565b6040516100e1919061093c565b60405180910390f35b5f6101183330868973ffffffffffffffffffffffffffffffffffffffff166105f8909392919063ffffffff16565b8573ffffffffffffffffffffffffffffffffffffffff1663095ea7b35f8054906101000a900473ffffffffffffffffffffffffffffffffffffffff165f6040518363ffffffff1660e01b815260040161017292919061098e565b6020604051808303815f875af115801561018e573d5f803e3d5ffd5b505050506040513d601f19601f820116820180604052508101906101b291906109ea565b508573ffffffffffffffffffffffffffffffffffffffff1663095ea7b35f8054906101000a900473ffffffffffffffffffffffffffffffffffffffff16866040518363ffffffff1660e01b815260040161020d929190610a15565b6020604051808303815f875af1158015610229573d5f803e3d5ffd5b505050506040513d601f19601f8201168201806040525081019061024d91906109ea565b505f600267ffffffffffffffff81111561026a57610269610a3c565b5b6040519080825280602002602001820160405280156102985781602001602082028036833780820191505090505b50905086815f815181106102af576102ae610a69565b5b602002602001019073ffffffffffffffffffffffffffffffffffffffff16908173ffffffffffffffffffffffffffffffffffffffff168152505085816001815181106102fe576102fd610a69565b5b602002602001019073ffffffffffffffffffffffffffffffffffffffff16908173ffffffffffffffffffffffffffffffffffffffff16815250505f805f9054906101000a900473ffffffffffffffffffffffffffffffffffffffff1673ffffffffffffffffffffffffffffffffffffffff166338ed1739875f8533426040518663ffffffff1660e01b815260040161039a959493929190610b4d565b5f604051808303815f875af11580156103b5573d5f803e3d5ffd5b505050506040513d5f823e3d601f19601f820116820180604052508101906103dd9190610cd4565b9050806001815181106103f3576103f2610a69565b5b60200260200101519250505095945050505050565b5f737a250d5630b4cf539739df2c5dacb4c659f2488d905090565b5f80600267ffffffffffffffff8111156104405761043f610a3c565b5b60405190808252806020026020018201604052801561046e5781602001602082028036833780820191505090505b50905084815f8151811061048557610484610a69565b5b602002602001019073ffffffffffffffffffffffffffffffffffffffff16908173ffffffffffffffffffffffffffffffffffffffff168152505083816001815181106104d4576104d3610a69565b5b602002602001019073ffffffffffffffffffffffffffffffffffffffff16908173ffffffffffffffffffffffffffffffffffffffff16815250505f805f9054906101000a900473ffffffffffffffffffffffffffffffffffffffff1673ffffffffffffffffffffffffffffffffffffffff1663d06ca61f85846040518363ffffffff1660e01b815260040161056a929190610d1b565b5f60405180830381865afa158015610584573d5f803e3d5ffd5b505050506040513d5f823e3d601f19601f820116820180604052508101906105ac9190610cd4565b9050806001815181106105c2576105c1610a69565b5b6020026020010151925050509392505050565b5f8054906101000a900473ffffffffffffffffffffffffffffffffffffffff1681565b61060684848484600161064d565b61064757836040517f5274afe700000000000000000000000000000000000000000000000000000000815260040161063e9190610878565b60405180910390fd5b50505050565b5f806323b872dd60e01b9050604051815f525f1960601c87166004525f1960601c86166024528460445260205f60645f808c5af1925060015f511483166106ab57838315161561069f573d5f823e3d81fd5b5f883b113d1516831692505b806040525f606052505095945050505050565b5f604051905090565b5f80fd5b5f80fd5b5f73ffffffffffffffffffffffffffffffffffffffff82169050919050565b5f6106f8826106cf565b9050919050565b610708816106ee565b8114610712575f80fd5b50565b5f81359050610723816106ff565b92915050565b5f819050919050565b61073b81610729565b8114610745575f80fd5b50565b5f8135905061075681610732565b92915050565b5f80fd5b5f80fd5b5f80fd5b5f8083601f84011261077d5761077c61075c565b5b8235905067ffffffffffffffff81111561079a57610799610760565b5b6020830191508360018202830111156107b6576107b5610764565b5b9250929050565b5f805f805f608086880312156107d6576107d56106c7565b5b5f6107e388828901610715565b95505060206107f488828901610715565b945050604061080588828901610748565b935050606086013567ffffffffffffffff811115610826576108256106cb565b5b61083288828901610768565b92509250509295509295909350565b61084a81610729565b82525050565b5f6020820190506108635f830184610841565b92915050565b610872816106ee565b82525050565b5f60208201905061088b5f830184610869565b92915050565b5f805f606084860312156108a8576108a76106c7565b5b5f6108b586828701610715565b93505060206108c686828701610715565b92505060406108d786828701610748565b9150509250925092565b5f819050919050565b5f6109046108ff6108fa846106cf565b6108e1565b6106cf565b9050919050565b5f610915826108ea565b9050919050565b5f6109268261090b565b9050919050565b6109368161091c565b82525050565b5f60208201905061094f5f83018461092d565b92915050565b5f819050919050565b5f61097861097361096e84610955565b6108e1565b610729565b9050919050565b6109888161095e565b82525050565b5f6040820190506109a15f830185610869565b6109ae602083018461097f565b9392505050565b5f8115159050919050565b6109c9816109b5565b81146109d3575f80fd5b50565b5f815190506109e4816109c0565b92915050565b5f602082840312156109ff576109fe6106c7565b5b5f610a0c848285016109d6565b91505092915050565b5f604082019050610a285f830185610869565b610a356020830184610841565b9392505050565b7f4e487b71000000000000000000000000000000000000000000000000000000005f52604160045260245ffd5b7f4e487b71000000000000000000000000000000000000000000000000000000005f52603260045260245ffd5b5f81519050919050565b5f82825260208201905092915050565b5f819050602082019050919050565b610ac8816106ee565b82525050565b5f610ad98383610abf565b60208301905092915050565b5f602082019050919050565b5f610afb82610a96565b610b058185610aa0565b9350610b1083610ab0565b805f5b83811015610b40578151610b278882610ace565b9750610b3283610ae5565b925050600181019050610b13565b5085935050505092915050565b5f60a082019050610b605f830188610841565b610b6d602083018761097f565b8181036040830152610b7f8186610af1565b9050610b8e6060830185610869565b610b9b6080830184610841565b9695505050505050565b5f601f19601f8301169050919050565b610bbe82610ba5565b810181811067ffffffffffffffff82111715610bdd57610bdc610a3c565b5b80604052505050565b5f610bef6106be565b9050610bfb8282610bb5565b919050565b5f67ffffffffffffffff821115610c1a57610c19610a3c565b5b602082029050602081019050919050565b5f81519050610c3981610732565b92915050565b5f610c51610c4c84610c00565b610be6565b90508083825260208201905060208402830185811115610c7457610c73610764565b5b835b81811015610c9d5780610c898882610c2b565b845260208401935050602081019050610c76565b5050509392505050565b5f82601f830112610cbb57610cba61075c565b5b8151610ccb848260208601610c3f565b91505092915050565b5f60208284031215610ce957610ce86106c7565b5b5f82015167ffffffffffffffff811115610d0657610d056106cb565b5b610d1284828501610ca7565b91505092915050565b5f604082019050610d2e5f830185610841565b8181036020830152610d408184610af1565b9050939250505056fea2646970667358221220088afb6769a8dd15bdaa761c61d44df9587d4590a233fe6247d668fb829588ac64736f6c63430008140033","linkReferences":{}},"methodIdentifiers":{"getRouter()":"b0f479a1","quote(address,address,uint256)":"b6466384","router()":"f887ea40","swap(address,address,uint256,bytes)":"43a0a7f2"},"id":6}