{"abi":[{"type":"constructor","inputs":[{"name":"initialOwner","type":"address","internalType":"address"}],"stateMutability":"nonpayable"},{"type":"function","name":"adapterAddresses","inputs":[{"name":"","type":"bytes32","internalType":"bytes32"}],"outputs":[{"name":"","type":"address","internalType":"address"}],"stateMutability":"view"},{"type":"function","name":"adapters","inputs":[{"name":"","type":"uint256","internalType":"uint256"}],"outputs":[{"name":"adapterAddress","type":"address","internalType":"address"},{"name":"adapterId","type":"string","internalType":"string"}],"stateMutability":"view"},{"type":"function","name":"addAdapter","inputs":[{"name":"_adapterId","type":"string","internalType":"string"},{"name":"_adapterAddress","type":"address","internalType":"address"}],"outputs":[],"stateMutability":"nonpayable"},{"type":"function","name":"getBestQuote","inputs":[{"name":"tokenIn","type":"address","internalType":"address"},{"name":"tokenOut","type":"address","internalType":"address"},{"name":"amountIn","type":"uint256","internalType":"uint256"}],"outputs":[{"name":"bestOut","type":"uint256","internalType":"uint256"},{"name":"bestAdapterId","type":"string","internalType":"string"}],"stateMutability":"nonpayable"},{"type":"function","name":"owner","inputs":[],"outputs":[{"name":"","type":"address","internalType":"address"}],"stateMutability":"view"},{"type":"function","name":"removeAdapter","inputs":[{"name":"_adapterId","type":"string","internalType":"string"}],"outputs":[],"stateMutability":"nonpayable"},{"type":"function","name":"renounceOwnership","inputs":[],"outputs":[],"stateMutability":"nonpayable"},{"type":"function","name":"swapBest","inputs":[{"name":"tokenIn","type":"address","internalType":"address"},{"name":"tokenOut","type":"address","internalType":"address"},{"name":"amountIn","type":"uint256","internalType":"uint256"},{"name":"minAmountOut","type":"uint256","internalType":"uint256"},{"name":"data","type":"bytes","internalType":"bytes"}],"outputs":[{"name":"amountOut","type":"uint256","internalType":"uint256"}],"stateMutability":"nonpayable"},{"type":"function","name":"transferOwnership","inputs":[{"name":"newOwner","type":"address","internalType":"address"}],"outputs":[],"stateMutability":"nonpayable"},{"type":"event","name":"AdapterAdded","inputs":[{"name":"adapterId","type":"bytes32","indexed":true,"internalType":"bytes32"},{"name":"adapterAddress","type":"address","indexed":true,"internalType":"address"}],"anonymous":false},{"type":"event","name":"AdapterRemoved","inputs":[{"name":"adapterId","type":"bytes32","indexed":true,"internalType":"bytes32"}],"anonymous":false},{"type":"event","name":"OwnershipTransferred","inputs":[{"name":"previousOwner","type":"address","indexed":true,"internalType":"address"},{"name":"newOwner","type":"address","indexed":true,"internalType":"address"}],"anonymous":false},{"type":"event","name":"Swapped","inputs":[{"name":"user","type":"address","indexed":true,"internalType":"address"},{"name":"tokenIn","type":"address","indexed":true,"internalType":"address"},{"name":"tokenOut","type":"address","indexed":true,"internalType":"address"},{"name":"amountIn","type":"uint256","indexed":false,"internalType":"uint256"},{"name":"amountOut","type":"uint256","indexed":false,"internalType":"uint256"},{"name":"adapterId","type":"string","indexed":false,"internalType":"string"}],"anonymous":false},{"type":"error","name":"OwnableInvalidOwner","inputs":[{"name":"owner","type":"address","internalType":"address"}]},{"type":"error","name":"OwnableUnauthorizedAccount","inputs":[{"name":"account","type":"address","internalType":"address"}]},{"type":"error","name":"SafeERC20FailedOperation","inputs":[{"name":"token","type":"address","internalType":"address"}]}],"bytecode":{"object":"0x60806040523461002f576100196100146100f4565b610115565b610021610034565b6121e16102cf82396121e190f35b61003a565b60405190565b5f80fd5b601f801991011690565b634e487b7160e01b5f52604160045260245ffd5b906100669061003e565b810190811060018060401b0382111761007e57604052565b610048565b9061009661008f610034565b928361005c565b565b5f80fd5b60018060a01b031690565b6100b09061009c565b90565b6100bc816100a7565b036100c357565b5f80fd5b905051906100d4826100b3565b565b906020828203126100ef576100ec915f016100c7565b90565b610098565b6101126124b08038038061010781610083565b9283398101906100d6565b90565b61011e90610170565b565b90565b90565b61013a61013561013f92610120565b610123565b61009c565b90565b61014b90610126565b90565b610157906100a7565b9052565b919061016e905f6020850194019061014e565b565b8061018b6101856101805f610142565b6100a7565b916100a7565b1461019b576101999061026f565b565b6101be6101a75f610142565b5f918291631e4fbdf760e01b83526004830161015b565b0390fd5b5f1c90565b60018060a01b031690565b6101de6101e3916101c2565b6101c7565b90565b6101f090546101d2565b90565b5f1b90565b9061020960018060a01b03916101f3565b9181191691161790565b61022761022261022c9261009c565b610123565b61009c565b90565b61023890610213565b90565b6102449061022f565b90565b90565b9061025f61025a6102669261023b565b610247565b82546101f8565b9055565b5f0190565b6102785f6101e6565b610282825f61024a565b906102b66102b07f8be0079c531659141344cd1fd0a4f28419497f9722a3daafe3b4186f6b6457e09361023b565b9161023b565b916102bf610034565b806102c98161026a565b0390a356fe60806040526004361015610013575b61088e565b61001d5f356100ac565b8063228c04b8146100a75780633b4644ec146100a25780633ef11fd71461009d5780634ef501ac14610098578063715018a61461009357806375d2abe41461008e5780638da5cb5b14610089578063b2948543146100845763f2fde38b0361000e5761085b565b610809565b61078f565b61075a565b610669565b610624565b6103a1565b6102eb565b6101e4565b60e01c90565b60405190565b5f80fd5b5f80fd5b5f80fd5b60018060a01b031690565b6100d8906100c4565b90565b6100e4816100cf565b036100eb57565b5f80fd5b905035906100fc826100db565b565b90565b61010a816100fe565b0361011157565b5f80fd5b9050359061012282610101565b565b90916060828403126101595761015661013f845f85016100ef565b9361014d81602086016100ef565b93604001610115565b90565b6100bc565b610167906100fe565b9052565b5190565b60209181520190565b90825f9392825e0152565b601f801991011690565b6101ac6101b56020936101ba936101a38161016b565b9384809361016f565b95869101610178565b610183565b0190565b916101e1926101d460408201935f83019061015e565b602081840391015261018d565b90565b34610216576101fd6101f7366004610124565b91610a1b565b906102126102096100b2565b928392836101be565b0390f35b6100b8565b5f80fd5b5f80fd5b5f80fd5b909182601f830112156102615781359167ffffffffffffffff831161025c57602001926001830284011161025757565b610223565b61021f565b61021b565b91909160a0818403126102d15761027f835f83016100ef565b9261028d81602084016100ef565b9261029b8260408501610115565b926102a98360608301610115565b92608082013567ffffffffffffffff81116102cc576102c89201610227565b9091565b6100c0565b6100bc565b91906102e9905f6020850194019061015e565b565b346103225761031e61030d610301366004610266565b94939093929192610e56565b6103156100b2565b918291826102d6565b0390f35b6100b8565b909182601f830112156103615781359167ffffffffffffffff831161035c57602001926001830284011161035757565b610223565b61021f565b61021b565b90602082820312610397575f82013567ffffffffffffffff81116103925761038e9201610327565b9091565b6100c0565b6100bc565b5f0190565b346103d0576103ba6103b4366004610366565b90611af6565b6103c26100b2565b806103cc8161039c565b0390f35b6100b8565b906020828203126103ee576103eb915f01610115565b90565b6100bc565b634e487b7160e01b5f52603260045260245ffd5b5490565b5f5260205f2090565b61041d81610407565b8210156104375761042f60029161040b565b910201905f90565b6103f3565b5f1c90565b60018060a01b031690565b61045861045d9161043c565b610441565b90565b61046a905461044c565b90565b634e487b7160e01b5f52602260045260245ffd5b90600160028304921680156104a1575b602083101461049c57565b61046d565b91607f1691610491565b60209181520190565b5f5260205f2090565b905f92918054906104d76104d083610481565b80946104ab565b916001811690815f1461052e57506001146104f2575b505050565b6104ff91929394506104b4565b915f925b81841061051657505001905f80806104ed565b60018160209295939554848601520191019290610503565b92949550505060ff19168252151560200201905f80806104ed565b90610553916104bd565b90565b634e487b7160e01b5f52604160045260245ffd5b9061057490610183565b810190811067ffffffffffffffff82111761058e57604052565b610556565b906105b36105ac926105a36100b2565b93848092610549565b038361056a565b565b6001906105c182610407565b8110156105ed576105d191610414565b50906105ea60016105e35f8501610460565b9301610593565b90565b5f80fd5b6105fa906100cf565b9052565b916106219261061460408201935f8301906105f1565b602081840391015261018d565b90565b346106555761063c6106373660046103d5565b6105b5565b906106516106486100b2565b928392836105fe565b0390f35b6100b8565b5f91031261066457565b6100bc565b346106975761067936600461065a565b610681611b27565b6106896100b2565b806106938161039c565b0390f35b6100b8565b90565b6106a88161069c565b036106af57565b5f80fd5b905035906106c08261069f565b565b906020828203126106db576106d8915f016106b3565b90565b6100bc565b6106e99061069c565b90565b906106f6906106e0565b5f5260205260405f2090565b1c90565b61071690600861071b9302610702565b610441565b90565b906107299154610706565b90565b6107429061073d6002915f926106ec565b61071e565b90565b9190610758905f602085019401906105f1565b565b3461078a576107866107756107703660046106c2565b61072c565b61077d6100b2565b91829182610745565b0390f35b6100b8565b346107bf5761079f36600461065a565b6107bb6107aa611b31565b6107b26100b2565b91829182610745565b0390f35b6100b8565b91604083830312610804575f83013567ffffffffffffffff81116107ff576107f1836107fc928601610327565b9390946020016100ef565b90565b6100c0565b6100bc565b346108385761082261081c3660046107c4565b91611efb565b61082a6100b2565b806108348161039c565b0390f35b6100b8565b9060208282031261085657610853915f016100ef565b90565b6100bc565b346108895761087361086e36600461083d565b611f6d565b61087b6100b2565b806108858161039c565b0390f35b6100b8565b5f80fd5b5f90565b606090565b90565b90565b6108b56108b06108ba9261089b565b61089e565b6100fe565b90565b5f7f4e6f20616461707465727320636f6e6669677572656400000000000000000000910152565b6108f1601660209261016f565b6108fa816108bd565b0190565b6109139060208101905f8183039101526108e4565b90565b1561091d57565b6109256100b2565b62461bcd60e51b81528061093b600482016108fe565b0390fd5b600161094b91016100fe565b90565b61096261095d610967926100c4565b61089e565b6100c4565b90565b6109739061094e565b90565b61097f9061096a565b90565b61098b9061094e565b90565b61099790610982565b90565b60e01b90565b905051906109ad82610101565b565b906020828203126109c8576109c5915f016109a0565b90565b6100bc565b6040906109f66109fd94969593966109ec60608401985f8501906105f1565b60208301906105f1565b019061015e565b565b610a076100b2565b3d5f823e3d90fd5b610a1890610593565b90565b909291610a26610892565b91610a2f610896565b610a54610a3c6001610407565b610a4e610a485f6108a1565b916100fe565b11610916565b610a5d5f6108a1565b5b80610a7a610a74610a6f6001610407565b6100fe565b916100fe565b1015610b8457610aa7610aa2610a9d5f610a9660018690610414565b5001610460565b610976565b61098e565b602063b6466384918590610acf5f8c95610ada8b610ac36100b2565b9889978896879561099a565b8552600485016109cd565b03925af180915f92610b54575b50155f14610b0b5750610b01906001610b06575b5b61093f565b610a5e565b610afb565b80610b1e610b18886100fe565b916100fe565b11610b2e575b50610b0190610afc565b9150935092610b01610b4d6001610b46818590610414565b5001610a0f565b9190610b24565b610b7691925060203d8111610b7d575b610b6e818361056a565b8101906109af565b905f610ae7565b503d610b64565b50939294505050565b5f7f4e6f2071756f746520617661696c61626c650000000000000000000000000000910152565b610bc1601260209261016f565b610bca81610b8d565b0190565b610be39060208101905f818303910152610bb4565b90565b15610bed57565b610bf56100b2565b62461bcd60e51b815280610c0b60048201610bce565b0390fd5b905090565b610c39610c3092602092610c278161016b565b94858093610c0f565b93849101610178565b0190565b610c4691610c14565b90565b60200190565b5190565b610c5c9061094e565b90565b610c6890610c53565b90565b610c7490610982565b90565b90505190610c84826100db565b565b90602082820312610c9f57610c9c915f01610c77565b90565b6100bc565b610cad90610982565b90565b151590565b610cbe81610cb0565b03610cc557565b5f80fd5b90505190610cd682610cb5565b565b90602082820312610cf157610cee915f01610cc9565b90565b6100bc565b916020610d17929493610d1060408201965f8301906105f1565b019061015e565b565b60209181520190565b90825f939282370152565b9190610d4781610d4081610d4c95610d19565b8095610d22565b610183565b0190565b909391610d919593610d7a610d8492610d7060808601985f8701906105f1565b60208501906105f1565b604083019061015e565b6060818503910152610d2d565b90565b5f7f536c6970706167652070726f74656374696f6e206661696c6564000000000000910152565b610dc8601a60209261016f565b610dd181610d94565b0190565b610dea9060208101905f818303910152610dbb565b90565b15610df457565b610dfc6100b2565b62461bcd60e51b815280610e1260048201610dd5565b0390fd5b610e1f90610982565b90565b610e46610e53949293610e3c60608401955f85019061015e565b602083019061015e565b604081840391015261018d565b90565b9091929594610e8e94610e67610892565b50610e7483858791610a1b565b9690610e88610e825f6108a1565b916100fe565b11610be6565b610ede610ed96002610eb1610ec08a610ea56100b2565b92839160208301610c3d565b6020820181038252038261056a565b610ed2610ecc82610c4f565b91610c49565b20906106ec565b610460565b90610efd610eeb85610c5f565b33610ef530610c6b565b908992611f78565b610f296020610f13610f0e85610976565b61098e565b63b0f479a190610f216100b2565b93849261099a565b82528180610f396004820161039c565b03915afa9081156111de575f916111b0575b506020610f5f610f5a87610c5f565b610ca4565b63095ea7b39290610f835f8b95610f8e610f776100b2565b9788968795869461099a565b845260048401610cf6565b03925af180156111ab57602093610fb392610fae92611180575b50610976565b61098e565b610fdb5f6343a0a7f2610fe688958a988c919091610fcf6100b2565b9a8b998a98899761099a565b875260048701610d50565b03925af1801561117b57611017915f9161114d575b509661101061100a89926100fe565b916100fe565b1015610ded565b61102b61102383610c5f565b338891611fc3565b611073602061104161103c84610c5f565b610ca4565b6370a082319061106861105330610c6b565b9261105c6100b2565b9586948593849361099a565b835260048301610745565b03915afa908115611148575f9161111a575b50806110996110935f6108a1565b916100fe565b116110fe575b5033909192938690946110f96110e76110e16110db7f943c2d4f6b04a3117772c5b4ca92f76893bd11287acd75d884f6c05fb6cd1b5596610e16565b96610e16565b96610e16565b966110f06100b2565b93849384610e22565b0390a4565b6111149061110b83610c5f565b90339091611fc3565b5f61109f565b61113b915060203d8111611141575b611133818361056a565b8101906109af565b5f611085565b503d611129565b6109ff565b61116e915060203d8111611174575b611166818361056a565b8101906109af565b5f610ffb565b503d61115c565b6109ff565b61119f90863d81116111a4575b611197818361056a565b810190610cd8565b610fa8565b503d61118d565b6109ff565b6111d1915060203d81116111d7575b6111c9818361056a565b810190610c86565b5f610f4b565b503d6111bf565b6109ff565b906111f5916111f061200a565b611937565b565b9091826112078161120e93610c0f565b8093610d22565b0190565b909161121d926111f7565b90565b61123461122f6112399261089b565b61089e565b6100c4565b90565b61124590611220565b90565b5f7f41646170746572206e6f7420666f756e64000000000000000000000000000000910152565b61127c601160209261016f565b61128581611248565b0190565b61129e9060208101905f81830391015261126f565b90565b156112a857565b6112b06100b2565b62461bcd60e51b8152806112c660048201611289565b0390fd5b905f92918054906112e46112dd83610481565b8094610c0f565b916001811690815f1461133657506001146112ff575b505050565b61130c91929394506104b4565b5f905b83821061132257505001905f80806112fa565b60018160209254848601520191019061130f565b92949550505060ff191682528015150201905f80806112fa565b611359916112ca565b90565b90565b61137361136e6113789261135c565b61089e565b6100fe565b90565b634e487b7160e01b5f52601160045260245ffd5b61139e6113a4919392936100fe565b926100fe565b82039182116113af57565b61137b565b634e487b7160e01b5f525f60045260245ffd5b5f1b90565b906113dd60018060a01b03916113c7565b9181191691161790565b90565b906113ff6113fa61140692610e16565b6113e7565b82546113cc565b9055565b6114149054610481565b90565b601f602091010490565b1b90565b9190600861144091029161143a5f1984611421565b92611421565b9181191691161790565b61145e611459611463926100fe565b61089e565b6100fe565b90565b90565b919061147f61147a6114879361144a565b611466565b908354611425565b9055565b61149d91611497610892565b91611469565b565b5b8181106114ab575050565b806114b85f60019361148b565b016114a0565b9190601f81116114ce575b505050565b6114da6114ff936104b4565b9060206114e684611417565b83019310611507575b6114f890611417565b019061149f565b5f80806114c9565b91506114f8819290506114ef565b90611525905f1990600802610702565b191690565b8161153491611515565b906002021790565b9080821461161b5761154d8161140a565b9067ffffffffffffffff8211611616576115718261156b8554610481565b856114be565b5f90601f83116001146115a457918091611593935f92611598575b505061152a565b90555b565b90915001545f8061158c565b906115b3601f198416926104b4565b906115bd856104b4565b925f5b8181106115fe575091600293918560019694106115e4575b50505002019055611596565b6115f4910154601f841690611515565b90555f80806115d8565b919360018060209287870154815501950192016115c0565b610556565b5050565b906116299161153c565b565b90808203611638575b5050565b600180836116565f61165f96016116505f8701610460565b906113ea565b0191019061161f565b5f80611634565b9190611677576116759161162b565b565b6113b4565b90565b634e487b7160e01b5f52603160045260245ffd5b5490565b5f5260205f2090565b6116a981611693565b8210156116c3576116bb600291611697565b910201905f90565b6103f3565b906116db905f1990602003600802610702565b8154169055565b905f916116f96116f1826104b4565b92835461152a565b905555565b919290602082105f1461175757601f84116001146117275761172192935061152a565b90555b5b565b509061174d61175293600161174461173e856104b4565b92611417565b8201910161149f565b6116e2565b611724565b5061178e82936117686001946104b4565b61178761177485611417565b820192601f861680611799575b50611417565b019061149f565b600202179055611725565b6117a5908886036116c8565b5f611781565b92909168010000000000000000821161180b576020115f146117fc57602081105f146117e0576117da9161152a565b90555b5b565b60019160ff19166117f0846104b4565b556002020190556117dd565b600191506002020190556117de565b610556565b90815461181c81610481565b90818311611845575b818310611833575b50505050565b61183c936116fe565b5f80808061182d565b611851838383876117ab565b611825565b5f61186091611810565b565b905f036118745761187290611856565b565b6113b4565b5f600161188b92828082015501611862565b565b905f0361189f5761189d90611879565b565b6113b4565b6118ad81611693565b80156118ce5760019003906118cb6118c583836116a0565b9061188d565b55565b61167f565b919060086118f39102916118ed60018060a01b0384611421565b92611421565b9181191691161790565b919061191361190e61191b93610e16565b6113e7565b9083546118d3565b9055565b5f90565b6119359161192f61191f565b916118fd565b565b611961906119526119466100b2565b93849260208401611212565b6020820181038252038261056a565b61197361196d82610c4f565b91610c49565b206119ac61198b611986600284906106ec565b610460565b6119a561199f61199a5f61123c565b6100cf565b916100cf565b14156112a1565b6119b55f6108a1565b5b806119d26119cc6119c76001610407565b6100fe565b916100fe565b1015611af057611a01611a1060016119eb818590610414565b50016119f56100b2565b92839160208301611350565b6020820181038252038261056a565b611a22611a1c82610c4f565b91610c49565b20611a35611a2f8461069c565b9161069c565b14611a4857611a439061093f565b6119b6565b611a8690611a80611a776001611a71611a616001610407565b611a6b600161135f565b9061138f565b90610414565b50916001610414565b90611666565b611a98611a93600161167c565b6118a4565b5b611aae5f611aa9600284906106ec565b611923565b611ad87f93ecc5e9aa51bb2adb2cf429a5108116cf98c4f717f0912d1be98e137ba6ef60916106e0565b90611ae16100b2565b80611aeb8161039c565b0390a2565b50611a99565b90611b00916111e3565b565b611b0a61200a565b611b12611b14565b565b611b25611b205f61123c565b612058565b565b611b2f611b02565b565b611b3961191f565b50611b435f610460565b90565b90611b599291611b5461200a565b611de5565b565b5f7f4164617074657220616c72656164792065786973747300000000000000000000910152565b611b8f601660209261016f565b611b9881611b5b565b0190565b611bb19060208101905f818303910152611b82565b90565b15611bbb57565b611bc36100b2565b62461bcd60e51b815280611bd960048201611b9c565b0390fd5b90611bf0611be96100b2565b928361056a565b565b611bfc6040611bdd565b90565b90611c09906100cf565b9052565b5f80fd5b67ffffffffffffffff8111611c2f57611c2b602091610183565b0190565b610556565b90929192611c49611c4482611c11565b611bdd565b93818552602085019082840111611c6557611c6392610d22565b565b611c0d565b611c75913691611c34565b90565b52565b611c8590516100cf565b90565b5190565b90611c968161016b565b9067ffffffffffffffff8211611d5657611cba82611cb48554610481565b856114be565b602090601f8311600114611cee57918091611cdd935f92611ce2575b505061152a565b90555b565b90915001515f80611cd6565b601f19831691611cfd856104b4565b925f5b818110611d3e57509160029391856001969410611d24575b50505002019055611ce0565b611d34910151601f841690611515565b90555f8080611d18565b91936020600181928787015181550195019201611d00565b610556565b90611d6591611c8c565b565b90611d9260206001611d9894611d8a5f8201611d845f8801611c7b565b906113ea565b019201611c88565b90611d5b565b565b9190611dab57611da991611d67565b565b6113b4565b9081549168010000000000000000831015611de05782611dd8916001611dde950181556116a0565b90611d9a565b565b610556565b611e9a9080611e158491611e06611dfa6100b2565b93849260208401611212565b6020820181038252038261056a565b611e27611e2182610c4f565b91610c49565b2092611e60611e40611e3b600287906106ec565b610460565b611e5a611e54611e4f5f61123c565b6100cf565b916100cf565b14611bb4565b611e95611e8c611e70600161167c565b928794611e87611e7e611bf2565b965f8801611bff565b611c6a565b60208401611c78565b611db0565b611eaf82611eaa600284906106ec565b6113ea565b90611ee3611edd7fffb25df5d2d30d127965307d95064a9c230c5bb55a674df324bf55bf2aa7ef8d936106e0565b91610e16565b91611eec6100b2565b80611ef68161039c565b0390a3565b90611f069291611b46565b565b611f1990611f1461200a565b611f1b565b565b80611f36611f30611f2b5f61123c565b6100cf565b916100cf565b14611f4657611f4490612058565b565b611f69611f525f61123c565b5f918291631e4fbdf760e01b835260048301610745565b0390fd5b611f7690611f08565b565b9290611f9592611f8f9285929190916001936120bb565b15610cb0565b611f9c5750565b611fa8611fbf91610ca4565b5f918291635274afe760e01b835260048301610745565b0390fd5b91611fdc91611fd6918491600192612134565b15610cb0565b611fe35750565b611fef61200691610ca4565b5f918291635274afe760e01b835260048301610745565b0390fd5b612012611b31565b61202b61202561202061219e565b6100cf565b916100cf565b0361203257565b61205461203d61219e565b5f91829163118cdaa760e01b835260048301610745565b0390fd5b6120615f610460565b61206b825f6113ea565b9061209f6120997f8be0079c531659141344cd1fd0a4f28419497f9722a3daafe3b4186f6b6457e093610e16565b91610e16565b916120a86100b2565b806120b28161039c565b0390a3565b5f90565b919493949290926120ca6120b7565b506323b872dd60e01b93604051945f525f1960601c166004525f1960601c1660245260445260205f60648180855af19360015f5114851615612112575b50506040525f606052565b849294151661212b575f903b113d151616915f80612107565b833d5f823e3d90fd5b90919392936121416120b7565b5063a9059cbb60e01b92604051935f525f1960601c1660045260245260205f60448180855af19360015f511485161561217c575b5050604052565b8492941516612195575f903b113d151616915f80612175565b833d5f823e3d90fd5b6121a661191f565b50339056fea2646970667358221220dd6bb5aebf681c3fa0758f4b9a5a367686bb8551c284f5b72a7c4b59e05104bb64736f6c634300081e0033","linkReferences":{}},"methodIdentifiers":{"adapterAddresses(bytes32)":"75d2abe4","adapters(uint256)":"4ef501ac","addAdapter(string,address)":"b2948543","getBestQuote(address,address,uint256)":"228c04b8","owner()":"8da5cb5b","removeAdapter(string)":"3ef11fd7","renounceOwnership()":"715018a6","swapBest(address,address,uint256,uint256,bytes)":"3b4644ec","transferOwnership(address)":"f2fde38b"},"id":1}