{"abi":[{"type":"constructor","inputs":[{"name":"initialOwner","type":"address","internalType":"address"}],"stateMutability":"nonpayable"},{"type":"function","name":"adapterList","inputs":[{"name":"","type":"uint256","internalType":"uint256"}],"outputs":[{"name":"","type":"string","internalType":"string"}],"stateMutability":"view"},{"type":"function","name":"adapters","inputs":[{"name":"","type":"string","internalType":"string"}],"outputs":[{"name":"","type":"address","internalType":"address"}],"stateMutability":"view"},{"type":"function","name":"bestQuote","inputs":[{"name":"tokenIn","type":"address","internalType":"address"},{"name":"tokenOut","type":"address","internalType":"address"},{"name":"amountIn","type":"uint256","internalType":"uint256"}],"outputs":[{"name":"bestOut","type":"uint256","internalType":"uint256"},{"name":"bestAdapterId","type":"string","internalType":"string"}],"stateMutability":"nonpayable"},{"type":"function","name":"getAdapters","inputs":[],"outputs":[{"name":"","type":"string[]","internalType":"string[]"}],"stateMutability":"view"},{"type":"function","name":"owner","inputs":[],"outputs":[{"name":"","type":"address","internalType":"address"}],"stateMutability":"view"},{"type":"function","name":"registerAdapter","inputs":[{"name":"id","type":"string","internalType":"string"},{"name":"adapter","type":"address","internalType":"address"}],"outputs":[],"stateMutability":"nonpayable"},{"type":"function","name":"renounceOwnership","inputs":[],"outputs":[],"stateMutability":"nonpayable"},{"type":"function","name":"swapBest","inputs":[{"name":"tokenIn","type":"address","internalType":"address"},{"name":"tokenOut","type":"address","internalType":"address"},{"name":"amountIn","type":"uint256","internalType":"uint256"},{"name":"minAmountOut","type":"uint256","internalType":"uint256"},{"name":"data","type":"bytes","internalType":"bytes"}],"outputs":[{"name":"amountOut","type":"uint256","internalType":"uint256"},{"name":"usedAdapter","type":"string","internalType":"string"}],"stateMutability":"nonpayable"},{"type":"function","name":"swapViaAdapter","inputs":[{"name":"adapterId","type":"string","internalType":"string"},{"name":"tokenIn","type":"address","internalType":"address"},{"name":"tokenOut","type":"address","internalType":"address"},{"name":"amountIn","type":"uint256","internalType":"uint256"},{"name":"minAmountOut","type":"uint256","internalType":"uint256"},{"name":"data","type":"bytes","internalType":"bytes"}],"outputs":[{"name":"amountOut","type":"uint256","internalType":"uint256"}],"stateMutability":"nonpayable"},{"type":"function","name":"transferOwnership","inputs":[{"name":"newOwner","type":"address","internalType":"address"}],"outputs":[],"stateMutability":"nonpayable"},{"type":"function","name":"unregisterAdapter","inputs":[{"name":"id","type":"string","internalType":"string"}],"outputs":[],"stateMutability":"nonpayable"},{"type":"event","name":"AdapterRegistered","inputs":[{"name":"id","type":"string","indexed":false,"internalType":"string"},{"name":"adapter","type":"address","indexed":false,"internalType":"address"}],"anonymous":false},{"type":"event","name":"AdapterUnregistered","inputs":[{"name":"id","type":"string","indexed":false,"internalType":"string"}],"anonymous":false},{"type":"event","name":"BestQuote","inputs":[{"name":"tokenIn","type":"address","indexed":true,"internalType":"address"},{"name":"tokenOut","type":"address","indexed":true,"internalType":"address"},{"name":"amountIn","type":"uint256","indexed":false,"internalType":"uint256"},{"name":"bestOut","type":"uint256","indexed":false,"internalType":"uint256"},{"name":"adapterId","type":"string","indexed":false,"internalType":"string"}],"anonymous":false},{"type":"event","name":"OwnershipTransferred","inputs":[{"name":"previousOwner","type":"address","indexed":true,"internalType":"address"},{"name":"newOwner","type":"address","indexed":true,"internalType":"address"}],"anonymous":false},{"type":"error","name":"OwnableInvalidOwner","inputs":[{"name":"owner","type":"address","internalType":"address"}]},{"type":"error","name":"OwnableUnauthorizedAccount","inputs":[{"name":"account","type":"address","internalType":"address"}]}],"bytecode":{"object":"0x608060405234801561000f575f5ffd5b506040516121e43803806121e4833981810160405281019061003191906101d7565b805f73ffffffffffffffffffffffffffffffffffffffff168173ffffffffffffffffffffffffffffffffffffffff16036100a2575f6040517f1e4fbdf70000000000000000000000000000000000000000000000000000000081526004016100999190610211565b60405180910390fd5b6100b1816100b860201b60201c565b505061022a565b5f5f5f9054906101000a900473ffffffffffffffffffffffffffffffffffffffff169050815f5f6101000a81548173ffffffffffffffffffffffffffffffffffffffff021916908373ffffffffffffffffffffffffffffffffffffffff1602179055508173ffffffffffffffffffffffffffffffffffffffff168173ffffffffffffffffffffffffffffffffffffffff167f8be0079c531659141344cd1fd0a4f28419497f9722a3daafe3b4186f6b6457e060405160405180910390a35050565b5f5ffd5b5f73ffffffffffffffffffffffffffffffffffffffff82169050919050565b5f6101a68261017d565b9050919050565b6101b68161019c565b81146101c0575f5ffd5b50565b5f815190506101d1816101ad565b92915050565b5f602082840312156101ec576101eb610179565b5b5f6101f9848285016101c3565b91505092915050565b61020b8161019c565b82525050565b5f6020820190506102245f830184610202565b92915050565b611fad806102375f395ff3fe608060405234801561000f575f5ffd5b50600436106100a7575f3560e01c80638a61c48e1161006f5780638a61c48e1461014e5780638da5cb5b1461017f578063b82e16e31461019d578063b84f5d1e146101bb578063cf2024ed146101eb578063f2fde38b1461021b576100a7565b806315c3b9f9146100ab5780633b4644ec146100c757806357644fda146100f8578063715018a61461012857806379be938d14610132575b5f5ffd5b6100c560048036038101906100c091906110d5565b610237565b005b6100e160048036038101906100dc9190611206565b61049b565b6040516100ef92919061130b565b60405180910390f35b610112600480360381019061010d9190611339565b61062d565b60405161011f91906113ff565b60405180910390f35b61013061076e565b005b61014c60048036038101906101479190611418565b610781565b005b61016860048036038101906101639190611472565b61096d565b60405161017692919061130b565b60405180910390f35b610187610b74565b60405161019491906114d1565b60405180910390f35b6101a5610b9b565b6040516101b291906115ed565b60405180910390f35b6101d560048036038101906101d091906110d5565b610c6f565b6040516101e291906114d1565b60405180910390f35b6102056004803603810190610200919061160d565b610cb7565b6040516102129190611638565b60405180910390f35b61023560048036038101906102309190611658565b610d5d565b005b61023f610de1565b5f60018260405161025091906116bd565b90815260200160405180910390205f9054906101000a900473ffffffffffffffffffffffffffffffffffffffff1690505f73ffffffffffffffffffffffffffffffffffffffff168173ffffffffffffffffffffffffffffffffffffffff16036102ee576040517f08c379a00000000000000000000000000000000000000000000000000000000081526004016102e59061171d565b60405180910390fd5b5f6001836040516102ff91906116bd565b90815260200160405180910390205f6101000a81548173ffffffffffffffffffffffffffffffffffffffff021916908373ffffffffffffffffffffffffffffffffffffffff1602179055505f5f90505b60028054905081101561045f578260405160200161036d91906116bd565b60405160208183030381529060405280519060200120600282815481106103975761039661173b565b5b905f5260205f20016040516020016103af9190611857565b604051602081830303815290604052805190602001200361045257600260016002805490506103de919061189a565b815481106103ef576103ee61173b565b5b905f5260205f20016002828154811061040b5761040a61173b565b5b905f5260205f2001908161041f9190611a82565b50600280548061043257610431611b67565b5b600190038181905f5260205f20015f61044b9190610f30565b905561045f565b808060010191505061034f565b507f62e09358a45e2415a98ad107a5cfce205b7bb377d2361de812c7f20aaebb02d68260405161048f9190611638565b60405180910390a15050565b5f60605f5f6104ab8a8a8a61096d565b915091505f8151116104f2576040517f08c379a00000000000000000000000000000000000000000000000000000000081526004016104e990611bde565b60405180910390fd5b8873ffffffffffffffffffffffffffffffffffffffff168a73ffffffffffffffffffffffffffffffffffffffff167f85b36df82cee3b43f6d57e29f81e7498590f55d0ea5cc921aca7117055e84d318a858560405161055393929190611bfc565b60405180910390a380925060018160405161056e91906116bd565b90815260200160405180910390205f9054906101000a900473ffffffffffffffffffffffffffffffffffffffff1673ffffffffffffffffffffffffffffffffffffffff16632506c0188b8b8b8b8b8b6040518763ffffffff1660e01b81526004016105de96959493929190611c74565b6020604051808303815f875af11580156105fa573d5f5f3e3d5ffd5b505050506040513d601f19601f8201168201806040525081019061061e9190611ce2565b93505050965096945050505050565b5f5f60018960405161063f91906116bd565b90815260200160405180910390205f9054906101000a900473ffffffffffffffffffffffffffffffffffffffff1690505f73ffffffffffffffffffffffffffffffffffffffff168173ffffffffffffffffffffffffffffffffffffffff16036106dd576040517f08c379a00000000000000000000000000000000000000000000000000000000081526004016106d490611d57565b60405180910390fd5b8073ffffffffffffffffffffffffffffffffffffffff16632506c0188989898989896040518763ffffffff1660e01b815260040161072096959493929190611c74565b6020604051808303815f875af115801561073c573d5f5f3e3d5ffd5b505050506040513d601f19601f820116820180604052508101906107609190611ce2565b915050979650505050505050565b610776610de1565b61077f5f610e68565b565b610789610de1565b5f73ffffffffffffffffffffffffffffffffffffffff168173ffffffffffffffffffffffffffffffffffffffff16036107f7576040517f08c379a00000000000000000000000000000000000000000000000000000000081526004016107ee90611dbf565b60405180910390fd5b5f73ffffffffffffffffffffffffffffffffffffffff1660018360405161081e91906116bd565b90815260200160405180910390205f9054906101000a900473ffffffffffffffffffffffffffffffffffffffff1673ffffffffffffffffffffffffffffffffffffffff16146108a2576040517f08c379a000000000000000000000000000000000000000000000000000000000815260040161089990611e27565b60405180910390fd5b806001836040516108b391906116bd565b90815260200160405180910390205f6101000a81548173ffffffffffffffffffffffffffffffffffffffff021916908373ffffffffffffffffffffffffffffffffffffffff160217905550600282908060018154018082558091505060019003905f5260205f20015f90919091909150908161092f9190611e45565b507fb40573981f6088c2c6d55252227055ccde57ef96fdc623d5665bee381adf6c098282604051610961929190611f14565b60405180910390a15050565b5f60605f5f90505f60405180602001604052805f81525090505f5f90505b600280549050811015610b63575f600282815481106109ad576109ac61173b565b5b905f5260205f200180546109c090611795565b80601f01602080910402602001604051908101604052809291908181526020018280546109ec90611795565b8015610a375780601f10610a0e57610100808354040283529160200191610a37565b820191905f5260205f20905b815481529060010190602001808311610a1a57829003601f168201915b505050505090505f600182604051610a4f91906116bd565b90815260200160405180910390205f9054906101000a900473ffffffffffffffffffffffffffffffffffffffff1690505f73ffffffffffffffffffffffffffffffffffffffff168173ffffffffffffffffffffffffffffffffffffffff1603610ab9575050610b56565b5f8173ffffffffffffffffffffffffffffffffffffffff1663b64663848c8c8c6040518463ffffffff1660e01b8152600401610af793929190611f42565b6020604051808303815f875af1925050508015610b3257506040513d601f19601f82011682018060405250810190610b2f9190611ce2565b60015b610b3e575f9050610b43565b809150505b85811115610b52578095508294505b5050505b808060010191505061098b565b508181935093505050935093915050565b5f5f5f9054906101000a900473ffffffffffffffffffffffffffffffffffffffff16905090565b60606002805480602002602001604051908101604052809291908181526020015f905b82821015610c66578382905f5260205f20018054610bdb90611795565b80601f0160208091040260200160405190810160405280929190818152602001828054610c0790611795565b8015610c525780601f10610c2957610100808354040283529160200191610c52565b820191905f5260205f20905b815481529060010190602001808311610c3557829003601f168201915b505050505081526020019060010190610bbe565b50505050905090565b6001818051602081018201805184825260208301602085012081835280955050505050505f915054906101000a900473ffffffffffffffffffffffffffffffffffffffff1681565b60028181548110610cc6575f80fd5b905f5260205f20015f915090508054610cde90611795565b80601f0160208091040260200160405190810160405280929190818152602001828054610d0a90611795565b8015610d555780601f10610d2c57610100808354040283529160200191610d55565b820191905f5260205f20905b815481529060010190602001808311610d3857829003601f168201915b505050505081565b610d65610de1565b5f73ffffffffffffffffffffffffffffffffffffffff168173ffffffffffffffffffffffffffffffffffffffff1603610dd5575f6040517f1e4fbdf7000000000000000000000000000000000000000000000000000000008152600401610dcc91906114d1565b60405180910390fd5b610dde81610e68565b50565b610de9610f29565b73ffffffffffffffffffffffffffffffffffffffff16610e07610b74565b73ffffffffffffffffffffffffffffffffffffffff1614610e6657610e2a610f29565b6040517f118cdaa7000000000000000000000000000000000000000000000000000000008152600401610e5d91906114d1565b60405180910390fd5b565b5f5f5f9054906101000a900473ffffffffffffffffffffffffffffffffffffffff169050815f5f6101000a81548173ffffffffffffffffffffffffffffffffffffffff021916908373ffffffffffffffffffffffffffffffffffffffff1602179055508173ffffffffffffffffffffffffffffffffffffffff168173ffffffffffffffffffffffffffffffffffffffff167f8be0079c531659141344cd1fd0a4f28419497f9722a3daafe3b4186f6b6457e060405160405180910390a35050565b5f33905090565b508054610f3c90611795565b5f825580601f10610f4d5750610f6a565b601f0160209004905f5260205f2090810190610f699190610f6d565b5b50565b5b80821115610f84575f815f905550600101610f6e565b5090565b5f604051905090565b5f5ffd5b5f5ffd5b5f5ffd5b5f5ffd5b5f601f19601f8301169050919050565b7f4e487b71000000000000000000000000000000000000000000000000000000005f52604160045260245ffd5b610fe782610fa1565b810181811067ffffffffffffffff8211171561100657611005610fb1565b5b80604052505050565b5f611018610f88565b90506110248282610fde565b919050565b5f67ffffffffffffffff82111561104357611042610fb1565b5b61104c82610fa1565b9050602081019050919050565b828183375f83830152505050565b5f61107961107484611029565b61100f565b90508281526020810184848401111561109557611094610f9d565b5b6110a0848285611059565b509392505050565b5f82601f8301126110bc576110bb610f99565b5b81356110cc848260208601611067565b91505092915050565b5f602082840312156110ea576110e9610f91565b5b5f82013567ffffffffffffffff81111561110757611106610f95565b5b611113848285016110a8565b91505092915050565b5f73ffffffffffffffffffffffffffffffffffffffff82169050919050565b5f6111458261111c565b9050919050565b6111558161113b565b811461115f575f5ffd5b50565b5f813590506111708161114c565b92915050565b5f819050919050565b61118881611176565b8114611192575f5ffd5b50565b5f813590506111a38161117f565b92915050565b5f5ffd5b5f5ffd5b5f5f83601f8401126111c6576111c5610f99565b5b8235905067ffffffffffffffff8111156111e3576111e26111a9565b5b6020830191508360018202830111156111ff576111fe6111ad565b5b9250929050565b5f5f5f5f5f5f60a087890312156112205761121f610f91565b5b5f61122d89828a01611162565b965050602061123e89828a01611162565b955050604061124f89828a01611195565b945050606061126089828a01611195565b935050608087013567ffffffffffffffff81111561128157611280610f95565b5b61128d89828a016111b1565b92509250509295509295509295565b6112a581611176565b82525050565b5f81519050919050565b5f82825260208201905092915050565b8281835e5f83830152505050565b5f6112dd826112ab565b6112e781856112b5565b93506112f78185602086016112c5565b61130081610fa1565b840191505092915050565b5f60408201905061131e5f83018561129c565b818103602083015261133081846112d3565b90509392505050565b5f5f5f5f5f5f5f60c0888a03121561135457611353610f91565b5b5f88013567ffffffffffffffff81111561137157611370610f95565b5b61137d8a828b016110a8565b975050602061138e8a828b01611162565b965050604061139f8a828b01611162565b95505060606113b08a828b01611195565b94505060806113c18a828b01611195565b93505060a088013567ffffffffffffffff8111156113e2576113e1610f95565b5b6113ee8a828b016111b1565b925092505092959891949750929550565b5f6020820190506114125f83018461129c565b92915050565b5f5f6040838503121561142e5761142d610f91565b5b5f83013567ffffffffffffffff81111561144b5761144a610f95565b5b611457858286016110a8565b925050602061146885828601611162565b9150509250929050565b5f5f5f6060848603121561148957611488610f91565b5b5f61149686828701611162565b93505060206114a786828701611162565b92505060406114b886828701611195565b9150509250925092565b6114cb8161113b565b82525050565b5f6020820190506114e45f8301846114c2565b92915050565b5f81519050919050565b5f82825260208201905092915050565b5f819050602082019050919050565b5f82825260208201905092915050565b5f61152d826112ab565b6115378185611513565b93506115478185602086016112c5565b61155081610fa1565b840191505092915050565b5f6115668383611523565b905092915050565b5f602082019050919050565b5f611584826114ea565b61158e81856114f4565b9350836020820285016115a085611504565b805f5b858110156115db57848403895281516115bc858261155b565b94506115c78361156e565b925060208a019950506001810190506115a3565b50829750879550505050505092915050565b5f6020820190508181035f830152611605818461157a565b905092915050565b5f6020828403121561162257611621610f91565b5b5f61162f84828501611195565b91505092915050565b5f6020820190508181035f83015261165081846112d3565b905092915050565b5f6020828403121561166d5761166c610f91565b5b5f61167a84828501611162565b91505092915050565b5f81905092915050565b5f611697826112ab565b6116a18185611683565b93506116b18185602086016112c5565b80840191505092915050565b5f6116c8828461168d565b915081905092915050565b7f414d4d4167673a206e6f742065786973740000000000000000000000000000005f82015250565b5f6117076011836112b5565b9150611712826116d3565b602082019050919050565b5f6020820190508181035f830152611734816116fb565b9050919050565b7f4e487b71000000000000000000000000000000000000000000000000000000005f52603260045260245ffd5b7f4e487b71000000000000000000000000000000000000000000000000000000005f52602260045260245ffd5b5f60028204905060018216806117ac57607f821691505b6020821081036117bf576117be611768565b5b50919050565b5f819050815f5260205f209050919050565b5f81546117e381611795565b6117ed8186611683565b9450600182165f8114611807576001811461181c5761184e565b60ff198316865281151582028601935061184e565b611825856117c5565b5f5b8381101561184657815481890152600182019150602081019050611827565b838801955050505b50505092915050565b5f61186282846117d7565b915081905092915050565b7f4e487b71000000000000000000000000000000000000000000000000000000005f52601160045260245ffd5b5f6118a482611176565b91506118af83611176565b92508282039050818111156118c7576118c661186d565b5b92915050565b5f815490506118db81611795565b9050919050565b5f819050815f5260205f209050919050565b5f6020601f8301049050919050565b5f82821b905092915050565b5f6008830261193e7fffffffffffffffffffffffffffffffffffffffffffffffffffffffffffffffff82611903565b6119488683611903565b95508019841693508086168417925050509392505050565b5f819050919050565b5f61198361197e61197984611176565b611960565b611176565b9050919050565b5f819050919050565b61199c83611969565b6119b06119a88261198a565b84845461190f565b825550505050565b5f5f905090565b6119c76119b8565b6119d2818484611993565b505050565b5b818110156119f5576119ea5f826119bf565b6001810190506119d8565b5050565b601f821115611a3a57611a0b816117c5565b611a14846118f4565b81016020851015611a23578190505b611a37611a2f856118f4565b8301826119d7565b50505b505050565b5f82821c905092915050565b5f611a5a5f1984600802611a3f565b1980831691505092915050565b5f611a728383611a4b565b9150826002028217905092915050565b818103611a90575050611b65565b611a99826118cd565b67ffffffffffffffff811115611ab257611ab1610fb1565b5b611abc8254611795565b611ac78282856119f9565b5f601f831160018114611af4575f8415611ae2578287015490505b611aec8582611a67565b865550611b5e565b601f198416611b02876118e2565b9650611b0d866117c5565b5f5b82811015611b3457848901548255600182019150600185019450602081019050611b0f565b86831015611b515784890154611b4d601f891682611a4b565b8355505b6001600288020188555050505b5050505050505b565b7f4e487b71000000000000000000000000000000000000000000000000000000005f52603160045260245ffd5b7f414d4d4167673a206e6f20726f757465000000000000000000000000000000005f82015250565b5f611bc86010836112b5565b9150611bd382611b94565b602082019050919050565b5f6020820190508181035f830152611bf581611bbc565b9050919050565b5f606082019050611c0f5f83018661129c565b611c1c602083018561129c565b8181036040830152611c2e81846112d3565b9050949350505050565b5f82825260208201905092915050565b5f611c538385611c38565b9350611c60838584611059565b611c6983610fa1565b840190509392505050565b5f60a082019050611c875f8301896114c2565b611c9460208301886114c2565b611ca1604083018761129c565b611cae606083018661129c565b8181036080830152611cc1818486611c48565b9050979650505050505050565b5f81519050611cdc8161117f565b92915050565b5f60208284031215611cf757611cf6610f91565b5b5f611d0484828501611cce565b91505092915050565b7f414d4d4167673a2061646170746572206e6f7420666f756e64000000000000005f82015250565b5f611d416019836112b5565b9150611d4c82611d0d565b602082019050919050565b5f6020820190508181035f830152611d6e81611d35565b9050919050565b7f414d4d4167673a207a65726f20616461707465720000000000000000000000005f82015250565b5f611da96014836112b5565b9150611db482611d75565b602082019050919050565b5f6020820190508181035f830152611dd681611d9d565b9050919050565b7f414d4d4167673a206964206578697374730000000000000000000000000000005f82015250565b5f611e116011836112b5565b9150611e1c82611ddd565b602082019050919050565b5f6020820190508181035f830152611e3e81611e05565b9050919050565b611e4e826112ab565b67ffffffffffffffff811115611e6757611e66610fb1565b5b611e718254611795565b611e7c8282856119f9565b5f60209050601f831160018114611ead575f8415611e9b578287015190505b611ea58582611a67565b865550611f0c565b601f198416611ebb866117c5565b5f5b82811015611ee257848901518255600182019150602085019450602081019050611ebd565b86831015611eff5784890151611efb601f891682611a4b565b8355505b6001600288020188555050505b505050505050565b5f6040820190508181035f830152611f2c81856112d3565b9050611f3b60208301846114c2565b9392505050565b5f606082019050611f555f8301866114c2565b611f6260208301856114c2565b611f6f604083018461129c565b94935050505056fea264697066735822122019d5bff3f393dbe4131c883608ed74d3dd05a0d0d1008ea6872a1a02ed633ba464736f6c634300081e0033","linkReferences":{}},"methodIdentifiers":{"adapterList(uint256)":"cf2024ed","adapters(string)":"b84f5d1e","bestQuote(address,address,uint256)":"8a61c48e","getAdapters()":"b82e16e3","owner()":"8da5cb5b","registerAdapter(string,address)":"79be938d","renounceOwnership()":"715018a6","swapBest(address,address,uint256,uint256,bytes)":"3b4644ec","swapViaAdapter(string,address,address,uint256,uint256,bytes)":"57644fda","transferOwnership(address)":"f2fde38b","unregisterAdapter(string)":"15c3b9f9"},"id":0}