{"abi":[{"type":"constructor","inputs":[{"name":"initialOwner","type":"address","internalType":"address"}],"stateMutability":"nonpayable"},{"type":"function","name":"adapterList","inputs":[{"name":"","type":"uint256","internalType":"uint256"}],"outputs":[{"name":"","type":"bytes32","internalType":"bytes32"}],"stateMutability":"view"},{"type":"function","name":"adapters","inputs":[{"name":"","type":"bytes32","internalType":"bytes32"}],"outputs":[{"name":"","type":"address","internalType":"address"}],"stateMutability":"view"},{"type":"function","name":"bestQuote","inputs":[{"name":"tokenIn","type":"address","internalType":"address"},{"name":"tokenOut","type":"address","internalType":"address"},{"name":"amountIn","type":"uint256","internalType":"uint256"}],"outputs":[{"name":"bestOut","type":"uint256","internalType":"uint256"},{"name":"bestAdapterId","type":"bytes32","internalType":"bytes32"}],"stateMutability":"nonpayable"},{"type":"function","name":"getAdapters","inputs":[],"outputs":[{"name":"","type":"bytes32[]","internalType":"bytes32[]"}],"stateMutability":"view"},{"type":"function","name":"owner","inputs":[],"outputs":[{"name":"","type":"address","internalType":"address"}],"stateMutability":"view"},{"type":"function","name":"registerAdapter","inputs":[{"name":"id","type":"bytes32","internalType":"bytes32"},{"name":"adapter","type":"address","internalType":"address"}],"outputs":[],"stateMutability":"nonpayable"},{"type":"function","name":"renounceOwnership","inputs":[],"outputs":[],"stateMutability":"nonpayable"},{"type":"function","name":"swapBest","inputs":[{"name":"tokenIn","type":"address","internalType":"address"},{"name":"tokenOut","type":"address","internalType":"address"},{"name":"amountIn","type":"uint256","internalType":"uint256"},{"name":"minAmountOut","type":"uint256","internalType":"uint256"},{"name":"data","type":"bytes","internalType":"bytes"}],"outputs":[{"name":"amountOut","type":"uint256","internalType":"uint256"},{"name":"usedAdapter","type":"bytes32","internalType":"bytes32"}],"stateMutability":"nonpayable"},{"type":"function","name":"swapViaAdapter","inputs":[{"name":"adapterId","type":"bytes32","internalType":"bytes32"},{"name":"tokenIn","type":"address","internalType":"address"},{"name":"tokenOut","type":"address","internalType":"address"},{"name":"amountIn","type":"uint256","internalType":"uint256"},{"name":"minAmountOut","type":"uint256","internalType":"uint256"},{"name":"data","type":"bytes","internalType":"bytes"}],"outputs":[{"name":"amountOut","type":"uint256","internalType":"uint256"}],"stateMutability":"nonpayable"},{"type":"function","name":"transferOwnership","inputs":[{"name":"newOwner","type":"address","internalType":"address"}],"outputs":[],"stateMutability":"nonpayable"},{"type":"function","name":"unregisterAdapter","inputs":[{"name":"id","type":"bytes32","internalType":"bytes32"}],"outputs":[],"stateMutability":"nonpayable"},{"type":"event","name":"AdapterRegistered","inputs":[{"name":"id","type":"bytes32","indexed":true,"internalType":"bytes32"},{"name":"adapter","type":"address","indexed":false,"internalType":"address"}],"anonymous":false},{"type":"event","name":"AdapterUnregistered","inputs":[{"name":"id","type":"bytes32","indexed":true,"internalType":"bytes32"}],"anonymous":false},{"type":"event","name":"BestQuote","inputs":[{"name":"tokenIn","type":"address","indexed":true,"internalType":"address"},{"name":"tokenOut","type":"address","indexed":true,"internalType":"address"},{"name":"amountIn","type":"uint256","indexed":false,"internalType":"uint256"},{"name":"bestOut","type":"uint256","indexed":false,"internalType":"uint256"},{"name":"adapterId","type":"bytes32","indexed":false,"internalType":"bytes32"}],"anonymous":false},{"type":"event","name":"OwnershipTransferred","inputs":[{"name":"previousOwner","type":"address","indexed":true,"internalType":"address"},{"name":"newOwner","type":"address","indexed":true,"internalType":"address"}],"anonymous":false},{"type":"error","name":"OwnableInvalidOwner","inputs":[{"name":"owner","type":"address","internalType":"address"}]},{"type":"error","name":"OwnableUnauthorizedAccount","inputs":[{"name":"account","type":"address","internalType":"address"}]}],"bytecode":{"object":"0x608060405234801561000f575f5ffd5b5060405161183e38038061183e833981810160405281019061003191906101d7565b805f73ffffffffffffffffffffffffffffffffffffffff168173ffffffffffffffffffffffffffffffffffffffff16036100a2575f6040517f1e4fbdf70000000000000000000000000000000000000000000000000000000081526004016100999190610211565b60405180910390fd5b6100b1816100b860201b60201c565b505061022a565b5f5f5f9054906101000a900473ffffffffffffffffffffffffffffffffffffffff169050815f5f6101000a81548173ffffffffffffffffffffffffffffffffffffffff021916908373ffffffffffffffffffffffffffffffffffffffff1602179055508173ffffffffffffffffffffffffffffffffffffffff168173ffffffffffffffffffffffffffffffffffffffff167f8be0079c531659141344cd1fd0a4f28419497f9722a3daafe3b4186f6b6457e060405160405180910390a35050565b5f5ffd5b5f73ffffffffffffffffffffffffffffffffffffffff82169050919050565b5f6101a68261017d565b9050919050565b6101b68161019c565b81146101c0575f5ffd5b50565b5f815190506101d1816101ad565b92915050565b5f602082840312156101ec576101eb610179565b5b5f6101f9848285016101c3565b91505092915050565b61020b8161019c565b82525050565b5f6020820190506102245f830184610202565b92915050565b611607806102375f395ff3fe608060405234801561000f575f5ffd5b50600436106100a7575f3560e01c806372c6838f1161006f57806372c6838f1461014e5780638a61c48e1461017e5780638da5cb5b146101af578063b82e16e3146101cd578063cf2024ed146101eb578063f2fde38b1461021b576100a7565b80631a72472b146100ab5780633b4644ec146100c75780634b8de48b146100f85780636ddf4db914610114578063715018a614610144575b5f5ffd5b6100c560048036038101906100c09190610d49565b610237565b005b6100e160048036038101906100dc9190610e1b565b6103fc565b6040516100ef929190610ecf565b60405180910390f35b610112600480360381019061010d9190610ef6565b610581565b005b61012e60048036038101906101299190610f21565b610766565b60405161013b9190610fcb565b60405180910390f35b61014c61089a565b005b61016860048036038101906101639190610ef6565b6108ad565b6040516101759190610ff3565b60405180910390f35b6101986004803603810190610193919061100c565b6108dd565b6040516101a6929190610ecf565b60405180910390f35b6101b7610a44565b6040516101c49190610ff3565b60405180910390f35b6101d5610a6b565b6040516101e29190611113565b60405180910390f35b61020560048036038101906102009190611133565b610ac1565b604051610212919061115e565b60405180910390f35b61023560048036038101906102309190611177565b610ae1565b005b61023f610b65565b5f73ffffffffffffffffffffffffffffffffffffffff168173ffffffffffffffffffffffffffffffffffffffff16036102ad576040517f08c379a00000000000000000000000000000000000000000000000000000000081526004016102a4906111fc565b60405180910390fd5b5f73ffffffffffffffffffffffffffffffffffffffff1660015f8481526020019081526020015f205f9054906101000a900473ffffffffffffffffffffffffffffffffffffffff1673ffffffffffffffffffffffffffffffffffffffff161461034b576040517f08c379a000000000000000000000000000000000000000000000000000000000815260040161034290611264565b60405180910390fd5b8060015f8481526020019081526020015f205f6101000a81548173ffffffffffffffffffffffffffffffffffffffff021916908373ffffffffffffffffffffffffffffffffffffffff160217905550600282908060018154018082558091505060019003905f5260205f20015f9091909190915055817f6780c0a9be41a3a8e3ef785cba017988097ba119978b00108aabdae86928fc34826040516103f09190610ff3565b60405180910390a25050565b5f5f5f5f61040b8a8a8a6108dd565b915091505f5f1b8103610453576040517f08c379a000000000000000000000000000000000000000000000000000000000815260040161044a906112cc565b60405180910390fd5b8873ffffffffffffffffffffffffffffffffffffffff168a73ffffffffffffffffffffffffffffffffffffffff167fa5805ae5f14760cff4c2ffe7e4d94b94513bb5ec8a039f9f0fb741f7e1fe70408a85856040516104b4939291906112ea565b60405180910390a380925060015f8281526020019081526020015f205f9054906101000a900473ffffffffffffffffffffffffffffffffffffffff1673ffffffffffffffffffffffffffffffffffffffff16632506c0188b8b8b8b8b8b6040518763ffffffff1660e01b815260040161053296959493929190611379565b6020604051808303815f875af115801561054e573d5f5f3e3d5ffd5b505050506040513d601f19601f8201168201806040525081019061057291906113e7565b93505050965096945050505050565b610589610b65565b5f60015f8381526020019081526020015f205f9054906101000a900473ffffffffffffffffffffffffffffffffffffffff1690505f73ffffffffffffffffffffffffffffffffffffffff168173ffffffffffffffffffffffffffffffffffffffff160361062b576040517f08c379a00000000000000000000000000000000000000000000000000000000081526004016106229061145c565b60405180910390fd5b5f60015f8481526020019081526020015f205f6101000a81548173ffffffffffffffffffffffffffffffffffffffff021916908373ffffffffffffffffffffffffffffffffffffffff1602179055505f5f90505b6002805490508110156107345782600282815481106106a1576106a061147a565b5b905f5260205f2001540361072757600260016002805490506106c391906114d4565b815481106106d4576106d361147a565b5b905f5260205f200154600282815481106106f1576106f061147a565b5b905f5260205f200181905550600280548061070f5761070e611507565b5b600190038181905f5260205f20015f90559055610734565b808060010191505061067f565b50817f4d35f38482fe9395c474f8163653abeade923f1eacc9fd820126f2d77dbf13da60405160405180910390a25050565b5f5f60015f8a81526020019081526020015f205f9054906101000a900473ffffffffffffffffffffffffffffffffffffffff1690505f73ffffffffffffffffffffffffffffffffffffffff168173ffffffffffffffffffffffffffffffffffffffff1603610809576040517f08c379a00000000000000000000000000000000000000000000000000000000081526004016108009061157e565b60405180910390fd5b8073ffffffffffffffffffffffffffffffffffffffff16632506c0188989898989896040518763ffffffff1660e01b815260040161084c96959493929190611379565b6020604051808303815f875af1158015610868573d5f5f3e3d5ffd5b505050506040513d601f19601f8201168201806040525081019061088c91906113e7565b915050979650505050505050565b6108a2610b65565b6108ab5f610bec565b565b6001602052805f5260405f205f915054906101000a900473ffffffffffffffffffffffffffffffffffffffff1681565b5f5f5f5f90505f5f5f1b90505f5f90505b600280549050811015610a33575f600282815481106109105761090f61147a565b5b905f5260205f20015490505f60015f8381526020019081526020015f205f9054906101000a900473ffffffffffffffffffffffffffffffffffffffff1690505f73ffffffffffffffffffffffffffffffffffffffff168173ffffffffffffffffffffffffffffffffffffffff1603610989575050610a26565b5f8173ffffffffffffffffffffffffffffffffffffffff1663b64663848c8c8c6040518463ffffffff1660e01b81526004016109c79392919061159c565b6020604051808303815f875af1925050508015610a0257506040513d601f19601f820116820180604052508101906109ff91906113e7565b60015b610a0e575f9050610a13565b809150505b85811115610a22578095508294505b5050505b80806001019150506108ee565b508181935093505050935093915050565b5f5f5f9054906101000a900473ffffffffffffffffffffffffffffffffffffffff16905090565b60606002805480602002602001604051908101604052809291908181526020018280548015610ab757602002820191905f5260205f20905b815481526020019060010190808311610aa3575b5050505050905090565b60028181548110610ad0575f80fd5b905f5260205f20015f915090505481565b610ae9610b65565b5f73ffffffffffffffffffffffffffffffffffffffff168173ffffffffffffffffffffffffffffffffffffffff1603610b59575f6040517f1e4fbdf7000000000000000000000000000000000000000000000000000000008152600401610b509190610ff3565b60405180910390fd5b610b6281610bec565b50565b610b6d610cad565b73ffffffffffffffffffffffffffffffffffffffff16610b8b610a44565b73ffffffffffffffffffffffffffffffffffffffff1614610bea57610bae610cad565b6040517f118cdaa7000000000000000000000000000000000000000000000000000000008152600401610be19190610ff3565b60405180910390fd5b565b5f5f5f9054906101000a900473ffffffffffffffffffffffffffffffffffffffff169050815f5f6101000a81548173ffffffffffffffffffffffffffffffffffffffff021916908373ffffffffffffffffffffffffffffffffffffffff1602179055508173ffffffffffffffffffffffffffffffffffffffff168173ffffffffffffffffffffffffffffffffffffffff167f8be0079c531659141344cd1fd0a4f28419497f9722a3daafe3b4186f6b6457e060405160405180910390a35050565b5f33905090565b5f5ffd5b5f5ffd5b5f819050919050565b610cce81610cbc565b8114610cd8575f5ffd5b50565b5f81359050610ce981610cc5565b92915050565b5f73ffffffffffffffffffffffffffffffffffffffff82169050919050565b5f610d1882610cef565b9050919050565b610d2881610d0e565b8114610d32575f5ffd5b50565b5f81359050610d4381610d1f565b92915050565b5f5f60408385031215610d5f57610d5e610cb4565b5b5f610d6c85828601610cdb565b9250506020610d7d85828601610d35565b9150509250929050565b5f819050919050565b610d9981610d87565b8114610da3575f5ffd5b50565b5f81359050610db481610d90565b92915050565b5f5ffd5b5f5ffd5b5f5ffd5b5f5f83601f840112610ddb57610dda610dba565b5b8235905067ffffffffffffffff811115610df857610df7610dbe565b5b602083019150836001820283011115610e1457610e13610dc2565b5b9250929050565b5f5f5f5f5f5f60a08789031215610e3557610e34610cb4565b5b5f610e4289828a01610d35565b9650506020610e5389828a01610d35565b9550506040610e6489828a01610da6565b9450506060610e7589828a01610da6565b935050608087013567ffffffffffffffff811115610e9657610e95610cb8565b5b610ea289828a01610dc6565b92509250509295509295509295565b610eba81610d87565b82525050565b610ec981610cbc565b82525050565b5f604082019050610ee25f830185610eb1565b610eef6020830184610ec0565b9392505050565b5f60208284031215610f0b57610f0a610cb4565b5b5f610f1884828501610cdb565b91505092915050565b5f5f5f5f5f5f5f60c0888a031215610f3c57610f3b610cb4565b5b5f610f498a828b01610cdb565b9750506020610f5a8a828b01610d35565b9650506040610f6b8a828b01610d35565b9550506060610f7c8a828b01610da6565b9450506080610f8d8a828b01610da6565b93505060a088013567ffffffffffffffff811115610fae57610fad610cb8565b5b610fba8a828b01610dc6565b925092505092959891949750929550565b5f602082019050610fde5f830184610eb1565b92915050565b610fed81610d0e565b82525050565b5f6020820190506110065f830184610fe4565b92915050565b5f5f5f6060848603121561102357611022610cb4565b5b5f61103086828701610d35565b935050602061104186828701610d35565b925050604061105286828701610da6565b9150509250925092565b5f81519050919050565b5f82825260208201905092915050565b5f819050602082019050919050565b61108e81610cbc565b82525050565b5f61109f8383611085565b60208301905092915050565b5f602082019050919050565b5f6110c18261105c565b6110cb8185611066565b93506110d683611076565b805f5b838110156111065781516110ed8882611094565b97506110f8836110ab565b9250506001810190506110d9565b5085935050505092915050565b5f6020820190508181035f83015261112b81846110b7565b905092915050565b5f6020828403121561114857611147610cb4565b5b5f61115584828501610da6565b91505092915050565b5f6020820190506111715f830184610ec0565b92915050565b5f6020828403121561118c5761118b610cb4565b5b5f61119984828501610d35565b91505092915050565b5f82825260208201905092915050565b7f414d4d4167673a207a65726f20616461707465720000000000000000000000005f82015250565b5f6111e66014836111a2565b91506111f1826111b2565b602082019050919050565b5f6020820190508181035f830152611213816111da565b9050919050565b7f414d4d4167673a206964206578697374730000000000000000000000000000005f82015250565b5f61124e6011836111a2565b91506112598261121a565b602082019050919050565b5f6020820190508181035f83015261127b81611242565b9050919050565b7f414d4d4167673a206e6f20726f757465000000000000000000000000000000005f82015250565b5f6112b66010836111a2565b91506112c182611282565b602082019050919050565b5f6020820190508181035f8301526112e3816112aa565b9050919050565b5f6060820190506112fd5f830186610eb1565b61130a6020830185610eb1565b6113176040830184610ec0565b949350505050565b5f82825260208201905092915050565b828183375f83830152505050565b5f601f19601f8301169050919050565b5f611358838561131f565b935061136583858461132f565b61136e8361133d565b840190509392505050565b5f60a08201905061138c5f830189610fe4565b6113996020830188610fe4565b6113a66040830187610eb1565b6113b36060830186610eb1565b81810360808301526113c681848661134d565b9050979650505050505050565b5f815190506113e181610d90565b92915050565b5f602082840312156113fc576113fb610cb4565b5b5f611409848285016113d3565b91505092915050565b7f414d4d4167673a206e6f742065786973740000000000000000000000000000005f82015250565b5f6114466011836111a2565b915061145182611412565b602082019050919050565b5f6020820190508181035f8301526114738161143a565b9050919050565b7f4e487b71000000000000000000000000000000000000000000000000000000005f52603260045260245ffd5b7f4e487b71000000000000000000000000000000000000000000000000000000005f52601160045260245ffd5b5f6114de82610d87565b91506114e983610d87565b9250828203905081811115611501576115006114a7565b5b92915050565b7f4e487b71000000000000000000000000000000000000000000000000000000005f52603160045260245ffd5b7f414d4d4167673a2061646170746572206e6f7420666f756e64000000000000005f82015250565b5f6115686019836111a2565b915061157382611534565b602082019050919050565b5f6020820190508181035f8301526115958161155c565b9050919050565b5f6060820190506115af5f830186610fe4565b6115bc6020830185610fe4565b6115c96040830184610eb1565b94935050505056fea26469706673582212209db56e6249f37a3710381e57af7cb669c7e147c62a11aa42702cf67c9dbb0fee64736f6c634300081e0033","linkReferences":{}},"methodIdentifiers":{"adapterList(uint256)":"cf2024ed","adapters(bytes32)":"72c6838f","bestQuote(address,address,uint256)":"8a61c48e","getAdapters()":"b82e16e3","owner()":"8da5cb5b","registerAdapter(bytes32,address)":"1a72472b","renounceOwnership()":"715018a6","swapBest(address,address,uint256,uint256,bytes)":"3b4644ec","swapViaAdapter(bytes32,address,address,uint256,uint256,bytes)":"6ddf4db9","transferOwnership(address)":"f2fde38b","unregisterAdapter(bytes32)":"4b8de48b"},"id":0}