{"abi":[{"type":"constructor","inputs":[{"name":"initialOwner","type":"address","internalType":"address"}],"stateMutability":"nonpayable"},{"type":"function","name":"adapterAddresses","inputs":[{"name":"","type":"bytes32","internalType":"bytes32"}],"outputs":[{"name":"","type":"address","internalType":"address"}],"stateMutability":"view"},{"type":"function","name":"adapters","inputs":[{"name":"","type":"uint256","internalType":"uint256"}],"outputs":[{"name":"adapterAddress","type":"address","internalType":"address"},{"name":"adapterId","type":"string","internalType":"string"}],"stateMutability":"view"},{"type":"function","name":"addAdapter","inputs":[{"name":"_adapterId","type":"string","internalType":"string"},{"name":"_adapterAddress","type":"address","internalType":"address"}],"outputs":[],"stateMutability":"nonpayable"},{"type":"function","name":"getBestQuote","inputs":[{"name":"tokenIn","type":"address","internalType":"address"},{"name":"tokenOut","type":"address","internalType":"address"},{"name":"amountIn","type":"uint256","internalType":"uint256"}],"outputs":[{"name":"bestOut","type":"uint256","internalType":"uint256"},{"name":"bestAdapterId","type":"string","internalType":"string"}],"stateMutability":"nonpayable"},{"type":"function","name":"owner","inputs":[],"outputs":[{"name":"","type":"address","internalType":"address"}],"stateMutability":"view"},{"type":"function","name":"removeAdapter","inputs":[{"name":"_adapterId","type":"string","internalType":"string"}],"outputs":[],"stateMutability":"nonpayable"},{"type":"function","name":"renounceOwnership","inputs":[],"outputs":[],"stateMutability":"nonpayable"},{"type":"function","name":"swapBest","inputs":[{"name":"tokenIn","type":"address","internalType":"address"},{"name":"tokenOut","type":"address","internalType":"address"},{"name":"amountIn","type":"uint256","internalType":"uint256"},{"name":"minAmountOut","type":"uint256","internalType":"uint256"},{"name":"data","type":"bytes","internalType":"bytes"}],"outputs":[{"name":"amountOut","type":"uint256","internalType":"uint256"}],"stateMutability":"nonpayable"},{"type":"function","name":"transferOwnership","inputs":[{"name":"newOwner","type":"address","internalType":"address"}],"outputs":[],"stateMutability":"nonpayable"},{"type":"event","name":"AdapterAdded","inputs":[{"name":"adapterId","type":"bytes32","indexed":true,"internalType":"bytes32"},{"name":"adapterAddress","type":"address","indexed":true,"internalType":"address"}],"anonymous":false},{"type":"event","name":"AdapterRemoved","inputs":[{"name":"adapterId","type":"bytes32","indexed":true,"internalType":"bytes32"}],"anonymous":false},{"type":"event","name":"OwnershipTransferred","inputs":[{"name":"previousOwner","type":"address","indexed":true,"internalType":"address"},{"name":"newOwner","type":"address","indexed":true,"internalType":"address"}],"anonymous":false},{"type":"event","name":"Swapped","inputs":[{"name":"user","type":"address","indexed":true,"internalType":"address"},{"name":"tokenIn","type":"address","indexed":true,"internalType":"address"},{"name":"tokenOut","type":"address","indexed":true,"internalType":"address"},{"name":"amountIn","type":"uint256","indexed":false,"internalType":"uint256"},{"name":"amountOut","type":"uint256","indexed":false,"internalType":"uint256"},{"name":"adapterId","type":"string","indexed":false,"internalType":"string"}],"anonymous":false},{"type":"error","name":"OwnableInvalidOwner","inputs":[{"name":"owner","type":"address","internalType":"address"}]},{"type":"error","name":"OwnableUnauthorizedAccount","inputs":[{"name":"account","type":"address","internalType":"address"}]},{"type":"error","name":"SafeERC20FailedOperation","inputs":[{"name":"token","type":"address","internalType":"address"}]}],"bytecode":{"object":"0x608060405234801562000010575f80fd5b506040516200233f3803806200233f8339818101604052810190620000369190620001e9565b805f73ffffffffffffffffffffffffffffffffffffffff168173ffffffffffffffffffffffffffffffffffffffff1603620000aa575f6040517f1e4fbdf7000000000000000000000000000000000000000000000000000000008152600401620000a191906200022a565b60405180910390fd5b620000bb81620000c360201b60201c565b505062000245565b5f805f9054906101000a900473ffffffffffffffffffffffffffffffffffffffff169050815f806101000a81548173ffffffffffffffffffffffffffffffffffffffff021916908373ffffffffffffffffffffffffffffffffffffffff1602179055508173ffffffffffffffffffffffffffffffffffffffff168173ffffffffffffffffffffffffffffffffffffffff167f8be0079c531659141344cd1fd0a4f28419497f9722a3daafe3b4186f6b6457e060405160405180910390a35050565b5f80fd5b5f73ffffffffffffffffffffffffffffffffffffffff82169050919050565b5f620001b38262000188565b9050919050565b620001c581620001a7565b8114620001d0575f80fd5b50565b5f81519050620001e381620001ba565b92915050565b5f6020828403121562000201576200020062000184565b5b5f6200021084828501620001d3565b91505092915050565b6200022481620001a7565b82525050565b5f6020820190506200023f5f83018462000219565b92915050565b6120ec80620002535f395ff3fe608060405234801561000f575f80fd5b5060043610610091575f3560e01c8063715018a611610064578063715018a61461014357806375d2abe41461014d5780638da5cb5b1461017d578063b29485431461019b578063f2fde38b146101b757610091565b8063228c04b8146100955780633b4644ec146100c65780633ef11fd7146100f65780634ef501ac14610112575b5f80fd5b6100af60048036038101906100aa9190611261565b6101d3565b6040516100bd92919061134a565b60405180910390f35b6100e060048036038101906100db91906113d9565b6103c0565b6040516100ed919061146f565b60405180910390f35b610110600480360381019061010b91906114dd565b6107b6565b005b61012c60048036038101906101279190611528565b610a8b565b60405161013a929190611562565b60405180910390f35b61014b610b5f565b005b610167600480360381019061016291906115c3565b610b72565b60405161017491906115ee565b60405180910390f35b610185610ba2565b60405161019291906115ee565b60405180910390f35b6101b560048036038101906101b09190611607565b610bc9565b005b6101d160048036038101906101cc9190611664565b610e26565b005b5f60605f6001805490501161021d576040517f08c379a0000000000000000000000000000000000000000000000000000000008152600401610214906116d9565b60405180910390fd5b5f5b6001805490508110156103b757600181815481106102405761023f6116f7565b5b905f5260205f2090600202015f015f9054906101000a900473ffffffffffffffffffffffffffffffffffffffff1673ffffffffffffffffffffffffffffffffffffffff1663b64663848787876040518463ffffffff1660e01b81526004016102aa93929190611724565b6020604051808303815f875af19250505080156102e557506040513d601f19601f820116820180604052508101906102e2919061176d565b60015b156103a457838111156103a25780935060018281548110610309576103086116f7565b5b905f5260205f2090600202016001018054610323906117c5565b80601f016020809104026020016040519081016040528092919081815260200182805461034f906117c5565b801561039a5780601f106103715761010080835404028352916020019161039a565b820191905f5260205f20905b81548152906001019060200180831161037d57829003601f168201915b505050505092505b505b80806103af90611822565b91505061021f565b50935093915050565b5f805f6103ce8989896101d3565b915091505f8211610414576040517f08c379a000000000000000000000000000000000000000000000000000000000815260040161040b906118b3565b60405180910390fd5b5f60025f83604051602001610429919061190b565b6040516020818303038152906040528051906020012081526020019081526020015f205f9054906101000a900473ffffffffffffffffffffffffffffffffffffffff16905061049b33308a8d73ffffffffffffffffffffffffffffffffffffffff16610eaa909392919063ffffffff16565b5f8173ffffffffffffffffffffffffffffffffffffffff1663b0f479a16040518163ffffffff1660e01b8152600401602060405180830381865afa1580156104e5573d5f803e3d5ffd5b505050506040513d601f19601f820116820180604052508101906105099190611935565b90508a73ffffffffffffffffffffffffffffffffffffffff1663095ea7b3828b6040518363ffffffff1660e01b8152600401610546929190611960565b6020604051808303815f875af1158015610562573d5f803e3d5ffd5b505050506040513d601f19601f8201168201806040525081019061058691906119bc565b508173ffffffffffffffffffffffffffffffffffffffff166343a0a7f28c8c8c8b8b6040518663ffffffff1660e01b81526004016105c8959493929190611a31565b6020604051808303815f875af11580156105e4573d5f803e3d5ffd5b505050506040513d601f19601f82011682018060405250810190610608919061176d565b94508785101561064d576040517f08c379a000000000000000000000000000000000000000000000000000000000815260040161064490611ac7565b60405180910390fd5b61067833868c73ffffffffffffffffffffffffffffffffffffffff16610eff9092919063ffffffff16565b5f8b73ffffffffffffffffffffffffffffffffffffffff166370a08231306040518263ffffffff1660e01b81526004016106b291906115ee565b602060405180830381865afa1580156106cd573d5f803e3d5ffd5b505050506040513d601f19601f820116820180604052508101906106f1919061176d565b90505f8111156107275761072633828e73ffffffffffffffffffffffffffffffffffffffff16610eff9092919063ffffffff16565b5b8a73ffffffffffffffffffffffffffffffffffffffff168c73ffffffffffffffffffffffffffffffffffffffff163373ffffffffffffffffffffffffffffffffffffffff167f943c2d4f6b04a3117772c5b4ca92f76893bd11287acd75d884f6c05fb6cd1b558d8a8960405161079f93929190611ae5565b60405180910390a450505050509695505050505050565b6107be610f52565b5f82826040516020016107d2929190611b45565b6040516020818303038152906040528051906020012090505f73ffffffffffffffffffffffffffffffffffffffff1660025f8381526020019081526020015f205f9054906101000a900473ffffffffffffffffffffffffffffffffffffffff1673ffffffffffffffffffffffffffffffffffffffff1603610888576040517f08c379a000000000000000000000000000000000000000000000000000000000815260040161087f90611ba7565b60405180910390fd5b5f5b600180549050811015610a255781600182815481106108ac576108ab6116f7565b5b905f5260205f2090600202016001016040516020016108cb9190611c57565b6040516020818303038152906040528051906020012003610a125760018080805490506108f89190611c6d565b81548110610909576109086116f7565b5b905f5260205f20906002020160018281548110610929576109286116f7565b5b905f5260205f2090600202015f82015f9054906101000a900473ffffffffffffffffffffffffffffffffffffffff16815f015f6101000a81548173ffffffffffffffffffffffffffffffffffffffff021916908373ffffffffffffffffffffffffffffffffffffffff160217905550600182018160010190816109ac9190611e6d565b5090505060018054806109c2576109c1611f52565b5b600190038181905f5260205f2090600202015f8082015f6101000a81549073ffffffffffffffffffffffffffffffffffffffff0219169055600182015f610a099190611174565b50509055610a25565b8080610a1d90611822565b91505061088a565b5060025f8281526020019081526020015f205f6101000a81549073ffffffffffffffffffffffffffffffffffffffff0219169055807f93ecc5e9aa51bb2adb2cf429a5108116cf98c4f717f0912d1be98e137ba6ef6060405160405180910390a2505050565b60018181548110610a9a575f80fd5b905f5260205f2090600202015f91509050805f015f9054906101000a900473ffffffffffffffffffffffffffffffffffffffff1690806001018054610ade906117c5565b80601f0160208091040260200160405190810160405280929190818152602001828054610b0a906117c5565b8015610b555780601f10610b2c57610100808354040283529160200191610b55565b820191905f5260205f20905b815481529060010190602001808311610b3857829003601f168201915b5050505050905082565b610b67610f52565b610b705f610fd9565b565b6002602052805f5260405f205f915054906101000a900473ffffffffffffffffffffffffffffffffffffffff1681565b5f805f9054906101000a900473ffffffffffffffffffffffffffffffffffffffff16905090565b610bd1610f52565b5f8383604051602001610be5929190611b45565b6040516020818303038152906040528051906020012090505f73ffffffffffffffffffffffffffffffffffffffff1660025f8381526020019081526020015f205f9054906101000a900473ffffffffffffffffffffffffffffffffffffffff1673ffffffffffffffffffffffffffffffffffffffff1614610c9b576040517f08c379a0000000000000000000000000000000000000000000000000000000008152600401610c9290611fc9565b60405180910390fd5b600160405180604001604052808473ffffffffffffffffffffffffffffffffffffffff16815260200186868080601f0160208091040260200160405190810160405280939291908181526020018383808284375f81840152601f19601f82011690508083019250505050505050815250908060018154018082558091505060019003905f5260205f2090600202015f909190919091505f820151815f015f6101000a81548173ffffffffffffffffffffffffffffffffffffffff021916908373ffffffffffffffffffffffffffffffffffffffff1602179055506020820151816001019081610d8a9190611fe7565b5050508160025f8381526020019081526020015f205f6101000a81548173ffffffffffffffffffffffffffffffffffffffff021916908373ffffffffffffffffffffffffffffffffffffffff1602179055508173ffffffffffffffffffffffffffffffffffffffff16817fffb25df5d2d30d127965307d95064a9c230c5bb55a674df324bf55bf2aa7ef8d60405160405180910390a350505050565b610e2e610f52565b5f73ffffffffffffffffffffffffffffffffffffffff168173ffffffffffffffffffffffffffffffffffffffff1603610e9e575f6040517f1e4fbdf7000000000000000000000000000000000000000000000000000000008152600401610e9591906115ee565b60405180910390fd5b610ea781610fd9565b50565b610eb884848484600161109a565b610ef957836040517f5274afe7000000000000000000000000000000000000000000000000000000008152600401610ef091906115ee565b60405180910390fd5b50505050565b610f0c838383600161110b565b610f4d57826040517f5274afe7000000000000000000000000000000000000000000000000000000008152600401610f4491906115ee565b60405180910390fd5b505050565b610f5a61116d565b73ffffffffffffffffffffffffffffffffffffffff16610f78610ba2565b73ffffffffffffffffffffffffffffffffffffffff1614610fd757610f9b61116d565b6040517f118cdaa7000000000000000000000000000000000000000000000000000000008152600401610fce91906115ee565b60405180910390fd5b565b5f805f9054906101000a900473ffffffffffffffffffffffffffffffffffffffff169050815f806101000a81548173ffffffffffffffffffffffffffffffffffffffff021916908373ffffffffffffffffffffffffffffffffffffffff1602179055508173ffffffffffffffffffffffffffffffffffffffff168173ffffffffffffffffffffffffffffffffffffffff167f8be0079c531659141344cd1fd0a4f28419497f9722a3daafe3b4186f6b6457e060405160405180910390a35050565b5f806323b872dd60e01b9050604051815f525f1960601c87166004525f1960601c86166024528460445260205f60645f808c5af1925060015f511483166110f85783831516156110ec573d5f823e3d81fd5b5f883b113d1516831692505b806040525f606052505095945050505050565b5f8063a9059cbb60e01b9050604051815f525f1960601c86166004528460245260205f60445f808b5af1925060015f5114831661115f578383151615611153573d5f823e3d81fd5b5f873b113d1516831692505b806040525050949350505050565b5f33905090565b508054611180906117c5565b5f825580601f1061119157506111ae565b601f0160209004905f5260205f20908101906111ad91906111b1565b5b50565b5b808211156111c8575f815f9055506001016111b2565b5090565b5f80fd5b5f80fd5b5f73ffffffffffffffffffffffffffffffffffffffff82169050919050565b5f6111fd826111d4565b9050919050565b61120d816111f3565b8114611217575f80fd5b50565b5f8135905061122881611204565b92915050565b5f819050919050565b6112408161122e565b811461124a575f80fd5b50565b5f8135905061125b81611237565b92915050565b5f805f60608486031215611278576112776111cc565b5b5f6112858682870161121a565b93505060206112968682870161121a565b92505060406112a78682870161124d565b9150509250925092565b6112ba8161122e565b82525050565b5f81519050919050565b5f82825260208201905092915050565b5f5b838110156112f75780820151818401526020810190506112dc565b5f8484015250505050565b5f601f19601f8301169050919050565b5f61131c826112c0565b61132681856112ca565b93506113368185602086016112da565b61133f81611302565b840191505092915050565b5f60408201905061135d5f8301856112b1565b818103602083015261136f8184611312565b90509392505050565b5f80fd5b5f80fd5b5f80fd5b5f8083601f84011261139957611398611378565b5b8235905067ffffffffffffffff8111156113b6576113b561137c565b5b6020830191508360018202830111156113d2576113d1611380565b5b9250929050565b5f805f805f8060a087890312156113f3576113f26111cc565b5b5f61140089828a0161121a565b965050602061141189828a0161121a565b955050604061142289828a0161124d565b945050606061143389828a0161124d565b935050608087013567ffffffffffffffff811115611454576114536111d0565b5b61146089828a01611384565b92509250509295509295509295565b5f6020820190506114825f8301846112b1565b92915050565b5f8083601f84011261149d5761149c611378565b5b8235905067ffffffffffffffff8111156114ba576114b961137c565b5b6020830191508360018202830111156114d6576114d5611380565b5b9250929050565b5f80602083850312156114f3576114f26111cc565b5b5f83013567ffffffffffffffff8111156115105761150f6111d0565b5b61151c85828601611488565b92509250509250929050565b5f6020828403121561153d5761153c6111cc565b5b5f61154a8482850161124d565b91505092915050565b61155c816111f3565b82525050565b5f6040820190506115755f830185611553565b81810360208301526115878184611312565b90509392505050565b5f819050919050565b6115a281611590565b81146115ac575f80fd5b50565b5f813590506115bd81611599565b92915050565b5f602082840312156115d8576115d76111cc565b5b5f6115e5848285016115af565b91505092915050565b5f6020820190506116015f830184611553565b92915050565b5f805f6040848603121561161e5761161d6111cc565b5b5f84013567ffffffffffffffff81111561163b5761163a6111d0565b5b61164786828701611488565b9350935050602061165a8682870161121a565b9150509250925092565b5f60208284031215611679576116786111cc565b5b5f6116868482850161121a565b91505092915050565b7f4e6f20616461707465727320636f6e66696775726564000000000000000000005f82015250565b5f6116c36016836112ca565b91506116ce8261168f565b602082019050919050565b5f6020820190508181035f8301526116f0816116b7565b9050919050565b7f4e487b71000000000000000000000000000000000000000000000000000000005f52603260045260245ffd5b5f6060820190506117375f830186611553565b6117446020830185611553565b61175160408301846112b1565b949350505050565b5f8151905061176781611237565b92915050565b5f60208284031215611782576117816111cc565b5b5f61178f84828501611759565b91505092915050565b7f4e487b71000000000000000000000000000000000000000000000000000000005f52602260045260245ffd5b5f60028204905060018216806117dc57607f821691505b6020821081036117ef576117ee611798565b5b50919050565b7f4e487b71000000000000000000000000000000000000000000000000000000005f52601160045260245ffd5b5f61182c8261122e565b91507fffffffffffffffffffffffffffffffffffffffffffffffffffffffffffffffff820361185e5761185d6117f5565b5b600182019050919050565b7f4e6f2071756f746520617661696c61626c6500000000000000000000000000005f82015250565b5f61189d6012836112ca565b91506118a882611869565b602082019050919050565b5f6020820190508181035f8301526118ca81611891565b9050919050565b5f81905092915050565b5f6118e5826112c0565b6118ef81856118d1565b93506118ff8185602086016112da565b80840191505092915050565b5f61191682846118db565b915081905092915050565b5f8151905061192f81611204565b92915050565b5f6020828403121561194a576119496111cc565b5b5f61195784828501611921565b91505092915050565b5f6040820190506119735f830185611553565b61198060208301846112b1565b9392505050565b5f8115159050919050565b61199b81611987565b81146119a5575f80fd5b50565b5f815190506119b681611992565b92915050565b5f602082840312156119d1576119d06111cc565b5b5f6119de848285016119a8565b91505092915050565b5f82825260208201905092915050565b828183375f83830152505050565b5f611a1083856119e7565b9350611a1d8385846119f7565b611a2683611302565b840190509392505050565b5f608082019050611a445f830188611553565b611a516020830187611553565b611a5e60408301866112b1565b8181036060830152611a71818486611a05565b90509695505050505050565b7f536c6970706167652070726f74656374696f6e206661696c65640000000000005f82015250565b5f611ab1601a836112ca565b9150611abc82611a7d565b602082019050919050565b5f6020820190508181035f830152611ade81611aa5565b9050919050565b5f606082019050611af85f8301866112b1565b611b0560208301856112b1565b8181036040830152611b178184611312565b9050949350505050565b5f611b2c83856118d1565b9350611b398385846119f7565b82840190509392505050565b5f611b51828486611b21565b91508190509392505050565b7f41646170746572206e6f7420666f756e640000000000000000000000000000005f82015250565b5f611b916011836112ca565b9150611b9c82611b5d565b602082019050919050565b5f6020820190508181035f830152611bbe81611b85565b9050919050565b5f819050815f5260205f209050919050565b5f8154611be3816117c5565b611bed81866118d1565b9450600182165f8114611c075760018114611c1c57611c4e565b60ff1983168652811515820286019350611c4e565b611c2585611bc5565b5f5b83811015611c4657815481890152600182019150602081019050611c27565b838801955050505b50505092915050565b5f611c628284611bd7565b915081905092915050565b5f611c778261122e565b9150611c828361122e565b9250828203905081811115611c9a57611c996117f5565b5b92915050565b5f81549050611cae816117c5565b9050919050565b7f4e487b71000000000000000000000000000000000000000000000000000000005f52604160045260245ffd5b5f6020601f8301049050919050565b5f82821b905092915050565b5f60088302611d2c7fffffffffffffffffffffffffffffffffffffffffffffffffffffffffffffffff82611cf1565b611d368683611cf1565b95508019841693508086168417925050509392505050565b5f819050919050565b5f611d71611d6c611d678461122e565b611d4e565b61122e565b9050919050565b5f819050919050565b611d8a83611d57565b611d9e611d9682611d78565b848454611cfd565b825550505050565b5f90565b611db2611da6565b611dbd818484611d81565b505050565b5b81811015611de057611dd55f82611daa565b600181019050611dc3565b5050565b601f821115611e2557611df681611bc5565b611dff84611ce2565b81016020851015611e0e578190505b611e22611e1a85611ce2565b830182611dc2565b50505b505050565b5f82821c905092915050565b5f611e455f1984600802611e2a565b1980831691505092915050565b5f611e5d8383611e36565b9150826002028217905092915050565b818103611e7b575050611f50565b611e8482611ca0565b67ffffffffffffffff811115611e9d57611e9c611cb5565b5b611ea782546117c5565b611eb2828285611de4565b5f601f831160018114611edf575f8415611ecd578287015490505b611ed78582611e52565b865550611f49565b601f198416611eed87611bc5565b9650611ef886611bc5565b5f5b82811015611f1f57848901548255600182019150600185019450602081019050611efa565b86831015611f3c5784890154611f38601f891682611e36565b8355505b6001600288020188555050505b5050505050505b565b7f4e487b71000000000000000000000000000000000000000000000000000000005f52603160045260245ffd5b7f4164617074657220616c726561647920657869737473000000000000000000005f82015250565b5f611fb36016836112ca565b9150611fbe82611f7f565b602082019050919050565b5f6020820190508181035f830152611fe081611fa7565b9050919050565b611ff0826112c0565b67ffffffffffffffff81111561200957612008611cb5565b5b61201382546117c5565b61201e828285611de4565b5f60209050601f83116001811461204f575f841561203d578287015190505b6120478582611e52565b8655506120ae565b601f19841661205d86611bc5565b5f5b828110156120845784890151825560018201915060208501945060208101905061205f565b868310156120a1578489015161209d601f891682611e36565b8355505b6001600288020188555050505b50505050505056fea264697066735822122097e69f4680c140764781c48baeb1be88b65b932b7ac1f600e3747686709c12f964736f6c63430008140033","linkReferences":{}},"methodIdentifiers":{"adapterAddresses(bytes32)":"75d2abe4","adapters(uint256)":"4ef501ac","addAdapter(string,address)":"b2948543","getBestQuote(address,address,uint256)":"228c04b8","owner()":"8da5cb5b","removeAdapter(string)":"3ef11fd7","renounceOwnership()":"715018a6","swapBest(address,address,uint256,uint256,bytes)":"3b4644ec","transferOwnership(address)":"f2fde38b"},"id":0}