{"abi":[{"type":"constructor","inputs":[{"name":"initialOwner","type":"address","internalType":"address"}],"stateMutability":"nonpayable"},{"type":"function","name":"adapterIds","inputs":[{"name":"","type":"uint256","internalType":"uint256"}],"outputs":[{"name":"","type":"string","internalType":"string"}],"stateMutability":"view"},{"type":"function","name":"adapters","inputs":[{"name":"","type":"string","internalType":"string"}],"outputs":[{"name":"","type":"address","internalType":"contract IAdapter"}],"stateMutability":"view"},{"type":"function","name":"addAdapter","inputs":[{"name":"adapterId","type":"string","internalType":"string"},{"name":"adapterAddress","type":"address","internalType":"address"}],"outputs":[],"stateMutability":"nonpayable"},{"type":"function","name":"bestQuote","inputs":[{"name":"tokenIn","type":"address","internalType":"address"},{"name":"tokenOut","type":"address","internalType":"address"},{"name":"amountIn","type":"uint256","internalType":"uint256"}],"outputs":[{"name":"bestOut","type":"uint256","internalType":"uint256"},{"name":"bestAdapterId","type":"string","internalType":"string"}],"stateMutability":"nonpayable"},{"type":"function","name":"owner","inputs":[],"outputs":[{"name":"","type":"address","internalType":"address"}],"stateMutability":"view"},{"type":"function","name":"removeAdapter","inputs":[{"name":"adapterId","type":"string","internalType":"string"}],"outputs":[],"stateMutability":"nonpayable"},{"type":"function","name":"renounceOwnership","inputs":[],"outputs":[],"stateMutability":"nonpayable"},{"type":"function","name":"swapBest","inputs":[{"name":"tokenIn","type":"address","internalType":"address"},{"name":"tokenOut","type":"address","internalType":"address"},{"name":"amountIn","type":"uint256","internalType":"uint256"},{"name":"minAmountOut","type":"uint256","internalType":"uint256"},{"name":"data","type":"bytes","internalType":"bytes"}],"outputs":[{"name":"amountOut","type":"uint256","internalType":"uint256"},{"name":"usedAdapter","type":"string","internalType":"string"}],"stateMutability":"nonpayable"},{"type":"function","name":"transferOwnership","inputs":[{"name":"newOwner","type":"address","internalType":"address"}],"outputs":[],"stateMutability":"nonpayable"},{"type":"event","name":"AdapterAdded","inputs":[{"name":"adapterId","type":"string","indexed":true,"internalType":"string"},{"name":"adapterAddress","type":"address","indexed":true,"internalType":"address"}],"anonymous":false},{"type":"event","name":"AdapterRemoved","inputs":[{"name":"adapterId","type":"string","indexed":true,"internalType":"string"}],"anonymous":false},{"type":"event","name":"BestQuote","inputs":[{"name":"tokenIn","type":"address","indexed":true,"internalType":"address"},{"name":"tokenOut","type":"address","indexed":true,"internalType":"address"},{"name":"amountIn","type":"uint256","indexed":false,"internalType":"uint256"},{"name":"bestOut","type":"uint256","indexed":false,"internalType":"uint256"},{"name":"adapterId","type":"string","indexed":false,"internalType":"string"}],"anonymous":false},{"type":"event","name":"OwnershipTransferred","inputs":[{"name":"previousOwner","type":"address","indexed":true,"internalType":"address"},{"name":"newOwner","type":"address","indexed":true,"internalType":"address"}],"anonymous":false},{"type":"error","name":"OwnableInvalidOwner","inputs":[{"name":"owner","type":"address","internalType":"address"}]},{"type":"error","name":"OwnableUnauthorizedAccount","inputs":[{"name":"account","type":"address","internalType":"address"}]}],"bytecode":{"object":"0x608060405234801561000f575f5ffd5b50604051611cdc380380611cdc833981810160405281019061003191906101d7565b805f73ffffffffffffffffffffffffffffffffffffffff168173ffffffffffffffffffffffffffffffffffffffff16036100a2575f6040517f1e4fbdf70000000000000000000000000000000000000000000000000000000081526004016100999190610211565b60405180910390fd5b6100b1816100b860201b60201c565b505061022a565b5f5f5f9054906101000a900473ffffffffffffffffffffffffffffffffffffffff169050815f5f6101000a81548173ffffffffffffffffffffffffffffffffffffffff021916908373ffffffffffffffffffffffffffffffffffffffff1602179055508173ffffffffffffffffffffffffffffffffffffffff168173ffffffffffffffffffffffffffffffffffffffff167f8be0079c531659141344cd1fd0a4f28419497f9722a3daafe3b4186f6b6457e060405160405180910390a35050565b5f5ffd5b5f73ffffffffffffffffffffffffffffffffffffffff82169050919050565b5f6101a68261017d565b9050919050565b6101b68161019c565b81146101c0575f5ffd5b50565b5f815190506101d1816101ad565b92915050565b5f602082840312156101ec576101eb610179565b5b5f6101f9848285016101c3565b91505092915050565b61020b8161019c565b82525050565b5f6020820190506102245f830184610202565b92915050565b611aa5806102375f395ff3fe608060405234801561000f575f5ffd5b5060043610610091575f3560e01c80638da5cb5b116100645780638da5cb5b1461011d578063b29485431461013b578063b84f5d1e14610157578063ef060de614610187578063f2fde38b146101b757610091565b80633b4644ec146100955780633ef11fd7146100c6578063715018a6146100e25780638a61c48e146100ec575b5f5ffd5b6100af60048036038101906100aa9190610d2d565b6101d3565b6040516100bd929190610e42565b60405180910390f35b6100e060048036038101906100db9190610ec5565b6102f9565b005b6100ea610550565b005b61010660048036038101906101019190610f10565b610563565b604051610114929190610e42565b60405180910390f35b61012561077f565b6040516101329190610f6f565b60405180910390f35b61015560048036038101906101509190610f88565b6107a6565b005b610171600480360381019061016c919061110d565b610915565b60405161017e91906111af565b60405180910390f35b6101a1600480360381019061019c91906111c8565b61095d565b6040516101ae91906111f3565b60405180910390f35b6101d160048036038101906101cc9190611213565b610a03565b005b5f60605f6101e2898989610563565b9150505f815111610228576040517f08c379a000000000000000000000000000000000000000000000000000000000815260040161021f90611288565b60405180910390fd5b80915060018160405161023b91906112e0565b90815260200160405180910390205f9054906101000a900473ffffffffffffffffffffffffffffffffffffffff1673ffffffffffffffffffffffffffffffffffffffff16632506c0188a8a8a8a8a8a6040518763ffffffff1660e01b81526004016102ab96959493929190611332565b6020604051808303815f875af11580156102c7573d5f5f3e3d5ffd5b505050506040513d601f19601f820116820180604052508101906102eb91906113a0565b925050965096945050505050565b610301610a87565b5f73ffffffffffffffffffffffffffffffffffffffff166001838360405161032a9291906113ef565b90815260200160405180910390205f9054906101000a900473ffffffffffffffffffffffffffffffffffffffff1673ffffffffffffffffffffffffffffffffffffffff16036103ae576040517f08c379a00000000000000000000000000000000000000000000000000000000081526004016103a590611451565b60405180910390fd5b600182826040516103c09291906113ef565b90815260200160405180910390205f6101000a81549073ffffffffffffffffffffffffffffffffffffffff02191690555f5f90505b6002805490508110156105075782826040516020016104159291906113ef565b604051602081830303815290604052805190602001206002828154811061043f5761043e61146f565b5b905f5260205f2001604051602001610457919061158b565b60405160208183030381529060405280519060200120036104fa576002600160028054905061048691906115ce565b815481106104975761049661146f565b5b905f5260205f2001600282815481106104b3576104b261146f565b5b905f5260205f200190816104c791906117ad565b5060028054806104da576104d9611892565b5b600190038181905f5260205f20015f6104f39190610bd6565b9055610507565b80806001019150506103f5565b5081816040516105189291906113ef565b60405180910390207fb00061f7cc154fc23eb34671ab724fc7eb7b806abae871abae8f1eafce97213560405160405180910390a25050565b610558610a87565b6105615f610b0e565b565b5f60605f5f90505b60028054905081101561070d5760016002828154811061058e5761058d61146f565b5b905f5260205f20016040516105a3919061158b565b90815260200160405180910390205f9054906101000a900473ffffffffffffffffffffffffffffffffffffffff1673ffffffffffffffffffffffffffffffffffffffff1663b64663848787876040518463ffffffff1660e01b815260040161060d939291906118bf565b6020604051808303815f875af192505050801561064857506040513d601f19601f8201168201806040525081019061064591906113a0565b60015b1561070057838111156106fe578093506002828154811061066c5761066b61146f565b5b905f5260205f2001805461067f906114c9565b80601f01602080910402602001604051908101604052809291908181526020018280546106ab906114c9565b80156106f65780601f106106cd576101008083540402835291602001916106f6565b820191905f5260205f20905b8154815290600101906020018083116106d957829003601f168201915b505050505092505b505b808060010191505061056b565b508373ffffffffffffffffffffffffffffffffffffffff168573ffffffffffffffffffffffffffffffffffffffff167f85b36df82cee3b43f6d57e29f81e7498590f55d0ea5cc921aca7117055e84d3185858560405161076f939291906118f4565b60405180910390a3935093915050565b5f5f5f9054906101000a900473ffffffffffffffffffffffffffffffffffffffff16905090565b6107ae610a87565b5f73ffffffffffffffffffffffffffffffffffffffff168173ffffffffffffffffffffffffffffffffffffffff160361081c576040517f08c379a00000000000000000000000000000000000000000000000000000000081526004016108139061197a565b60405180910390fd5b806001848460405161082f9291906113ef565b90815260200160405180910390205f6101000a81548173ffffffffffffffffffffffffffffffffffffffff021916908373ffffffffffffffffffffffffffffffffffffffff1602179055506002838390918060018154018082558091505060019003905f5260205f20015f9091929091929091929091925091826108b49291906119a2565b508073ffffffffffffffffffffffffffffffffffffffff1683836040516108dc9291906113ef565b60405180910390207fc88ba04f374e880f6af9630eb9e81cb463e6d72b6ba0a3c5bbd50646c0e4416960405160405180910390a3505050565b6001818051602081018201805184825260208301602085012081835280955050505050505f915054906101000a900473ffffffffffffffffffffffffffffffffffffffff1681565b6002818154811061096c575f80fd5b905f5260205f20015f915090508054610984906114c9565b80601f01602080910402602001604051908101604052809291908181526020018280546109b0906114c9565b80156109fb5780601f106109d2576101008083540402835291602001916109fb565b820191905f5260205f20905b8154815290600101906020018083116109de57829003601f168201915b505050505081565b610a0b610a87565b5f73ffffffffffffffffffffffffffffffffffffffff168173ffffffffffffffffffffffffffffffffffffffff1603610a7b575f6040517f1e4fbdf7000000000000000000000000000000000000000000000000000000008152600401610a729190610f6f565b60405180910390fd5b610a8481610b0e565b50565b610a8f610bcf565b73ffffffffffffffffffffffffffffffffffffffff16610aad61077f565b73ffffffffffffffffffffffffffffffffffffffff1614610b0c57610ad0610bcf565b6040517f118cdaa7000000000000000000000000000000000000000000000000000000008152600401610b039190610f6f565b60405180910390fd5b565b5f5f5f9054906101000a900473ffffffffffffffffffffffffffffffffffffffff169050815f5f6101000a81548173ffffffffffffffffffffffffffffffffffffffff021916908373ffffffffffffffffffffffffffffffffffffffff1602179055508173ffffffffffffffffffffffffffffffffffffffff168173ffffffffffffffffffffffffffffffffffffffff167f8be0079c531659141344cd1fd0a4f28419497f9722a3daafe3b4186f6b6457e060405160405180910390a35050565b5f33905090565b508054610be2906114c9565b5f825580601f10610bf35750610c10565b601f0160209004905f5260205f2090810190610c0f9190610c13565b5b50565b5b80821115610c2a575f815f905550600101610c14565b5090565b5f604051905090565b5f5ffd5b5f5ffd5b5f73ffffffffffffffffffffffffffffffffffffffff82169050919050565b5f610c6882610c3f565b9050919050565b610c7881610c5e565b8114610c82575f5ffd5b50565b5f81359050610c9381610c6f565b92915050565b5f819050919050565b610cab81610c99565b8114610cb5575f5ffd5b50565b5f81359050610cc681610ca2565b92915050565b5f5ffd5b5f5ffd5b5f5ffd5b5f5f83601f840112610ced57610cec610ccc565b5b8235905067ffffffffffffffff811115610d0a57610d09610cd0565b5b602083019150836001820283011115610d2657610d25610cd4565b5b9250929050565b5f5f5f5f5f5f60a08789031215610d4757610d46610c37565b5b5f610d5489828a01610c85565b9650506020610d6589828a01610c85565b9550506040610d7689828a01610cb8565b9450506060610d8789828a01610cb8565b935050608087013567ffffffffffffffff811115610da857610da7610c3b565b5b610db489828a01610cd8565b92509250509295509295509295565b610dcc81610c99565b82525050565b5f81519050919050565b5f82825260208201905092915050565b8281835e5f83830152505050565b5f601f19601f8301169050919050565b5f610e1482610dd2565b610e1e8185610ddc565b9350610e2e818560208601610dec565b610e3781610dfa565b840191505092915050565b5f604082019050610e555f830185610dc3565b8181036020830152610e678184610e0a565b90509392505050565b5f5f83601f840112610e8557610e84610ccc565b5b8235905067ffffffffffffffff811115610ea257610ea1610cd0565b5b602083019150836001820283011115610ebe57610ebd610cd4565b5b9250929050565b5f5f60208385031215610edb57610eda610c37565b5b5f83013567ffffffffffffffff811115610ef857610ef7610c3b565b5b610f0485828601610e70565b92509250509250929050565b5f5f5f60608486031215610f2757610f26610c37565b5b5f610f3486828701610c85565b9350506020610f4586828701610c85565b9250506040610f5686828701610cb8565b9150509250925092565b610f6981610c5e565b82525050565b5f602082019050610f825f830184610f60565b92915050565b5f5f5f60408486031215610f9f57610f9e610c37565b5b5f84013567ffffffffffffffff811115610fbc57610fbb610c3b565b5b610fc886828701610e70565b93509350506020610fdb86828701610c85565b9150509250925092565b5f5ffd5b7f4e487b71000000000000000000000000000000000000000000000000000000005f52604160045260245ffd5b61101f82610dfa565b810181811067ffffffffffffffff8211171561103e5761103d610fe9565b5b80604052505050565b5f611050610c2e565b905061105c8282611016565b919050565b5f67ffffffffffffffff82111561107b5761107a610fe9565b5b61108482610dfa565b9050602081019050919050565b828183375f83830152505050565b5f6110b16110ac84611061565b611047565b9050828152602081018484840111156110cd576110cc610fe5565b5b6110d8848285611091565b509392505050565b5f82601f8301126110f4576110f3610ccc565b5b813561110484826020860161109f565b91505092915050565b5f6020828403121561112257611121610c37565b5b5f82013567ffffffffffffffff81111561113f5761113e610c3b565b5b61114b848285016110e0565b91505092915050565b5f819050919050565b5f61117761117261116d84610c3f565b611154565b610c3f565b9050919050565b5f6111888261115d565b9050919050565b5f6111998261117e565b9050919050565b6111a98161118f565b82525050565b5f6020820190506111c25f8301846111a0565b92915050565b5f602082840312156111dd576111dc610c37565b5b5f6111ea84828501610cb8565b91505092915050565b5f6020820190508181035f83015261120b8184610e0a565b905092915050565b5f6020828403121561122857611227610c37565b5b5f61123584828501610c85565b91505092915050565b7f414d4d4167673a206e6f20726f757465000000000000000000000000000000005f82015250565b5f611272601083610ddc565b915061127d8261123e565b602082019050919050565b5f6020820190508181035f83015261129f81611266565b9050919050565b5f81905092915050565b5f6112ba82610dd2565b6112c481856112a6565b93506112d4818560208601610dec565b80840191505092915050565b5f6112eb82846112b0565b915081905092915050565b5f82825260208201905092915050565b5f61131183856112f6565b935061131e838584611091565b61132783610dfa565b840190509392505050565b5f60a0820190506113455f830189610f60565b6113526020830188610f60565b61135f6040830187610dc3565b61136c6060830186610dc3565b818103608083015261137f818486611306565b9050979650505050505050565b5f8151905061139a81610ca2565b92915050565b5f602082840312156113b5576113b4610c37565b5b5f6113c28482850161138c565b91505092915050565b5f6113d683856112a6565b93506113e3838584611091565b82840190509392505050565b5f6113fb8284866113cb565b91508190509392505050565b7f41646170746572206e6f7420666f756e640000000000000000000000000000005f82015250565b5f61143b601183610ddc565b915061144682611407565b602082019050919050565b5f6020820190508181035f8301526114688161142f565b9050919050565b7f4e487b71000000000000000000000000000000000000000000000000000000005f52603260045260245ffd5b7f4e487b71000000000000000000000000000000000000000000000000000000005f52602260045260245ffd5b5f60028204905060018216806114e057607f821691505b6020821081036114f3576114f261149c565b5b50919050565b5f819050815f5260205f209050919050565b5f8154611517816114c9565b61152181866112a6565b9450600182165f811461153b576001811461155057611582565b60ff1983168652811515820286019350611582565b611559856114f9565b5f5b8381101561157a5781548189015260018201915060208101905061155b565b838801955050505b50505092915050565b5f611596828461150b565b915081905092915050565b7f4e487b71000000000000000000000000000000000000000000000000000000005f52601160045260245ffd5b5f6115d882610c99565b91506115e383610c99565b92508282039050818111156115fb576115fa6115a1565b5b92915050565b5f8154905061160f816114c9565b9050919050565b5f819050815f5260205f209050919050565b5f6020601f8301049050919050565b5f82821b905092915050565b5f600883026116727fffffffffffffffffffffffffffffffffffffffffffffffffffffffffffffffff82611637565b61167c8683611637565b95508019841693508086168417925050509392505050565b5f6116ae6116a96116a484610c99565b611154565b610c99565b9050919050565b5f819050919050565b6116c783611694565b6116db6116d3826116b5565b848454611643565b825550505050565b5f5f905090565b6116f26116e3565b6116fd8184846116be565b505050565b5b81811015611720576117155f826116ea565b600181019050611703565b5050565b601f82111561176557611736816114f9565b61173f84611628565b8101602085101561174e578190505b61176261175a85611628565b830182611702565b50505b505050565b5f82821c905092915050565b5f6117855f198460080261176a565b1980831691505092915050565b5f61179d8383611776565b9150826002028217905092915050565b8181036117bb575050611890565b6117c482611601565b67ffffffffffffffff8111156117dd576117dc610fe9565b5b6117e782546114c9565b6117f2828285611724565b5f601f83116001811461181f575f841561180d578287015490505b6118178582611792565b865550611889565b601f19841661182d87611616565b9650611838866114f9565b5f5b8281101561185f5784890154825560018201915060018501945060208101905061183a565b8683101561187c5784890154611878601f891682611776565b8355505b6001600288020188555050505b5050505050505b565b7f4e487b71000000000000000000000000000000000000000000000000000000005f52603160045260245ffd5b5f6060820190506118d25f830186610f60565b6118df6020830185610f60565b6118ec6040830184610dc3565b949350505050565b5f6060820190506119075f830186610dc3565b6119146020830185610dc3565b81810360408301526119268184610e0a565b9050949350505050565b7f496e76616c6964206164647265737300000000000000000000000000000000005f82015250565b5f611964600f83610ddc565b915061196f82611930565b602082019050919050565b5f6020820190508181035f83015261199181611958565b9050919050565b5f82905092915050565b6119ac8383611998565b67ffffffffffffffff8111156119c5576119c4610fe9565b5b6119cf82546114c9565b6119da828285611724565b5f601f831160018114611a07575f84156119f5578287013590505b6119ff8582611792565b865550611a66565b601f198416611a15866114f9565b5f5b82811015611a3c57848901358255600182019150602085019450602081019050611a17565b86831015611a595784890135611a55601f891682611776565b8355505b6001600288020188555050505b5050505050505056fea26469706673582212200b063abc2c8f9d4aab59e62e86da5a1966a45cb3330924aa834e455f1e69802764736f6c634300081e0033","linkReferences":{}},"methodIdentifiers":{"adapterIds(uint256)":"ef060de6","adapters(string)":"b84f5d1e","addAdapter(string,address)":"b2948543","bestQuote(address,address,uint256)":"8a61c48e","owner()":"8da5cb5b","removeAdapter(string)":"3ef11fd7","renounceOwnership()":"715018a6","swapBest(address,address,uint256,uint256,bytes)":"3b4644ec","transferOwnership(address)":"f2fde38b"},"id":0}