{"abi":[{"type":"constructor","inputs":[],"stateMutability":"nonpayable"},{"type":"function","name":"approveToken","inputs":[{"name":"token","type":"address","internalType":"address"},{"name":"spender","type":"address","internalType":"address"},{"name":"amount","type":"uint256","internalType":"uint256"}],"outputs":[],"stateMutability":"nonpayable"},{"type":"function","name":"balances","inputs":[{"name":"","type":"address","internalType":"address"},{"name":"","type":"address","internalType":"address"}],"outputs":[{"name":"","type":"uint256","internalType":"uint256"}],"stateMutability":"view"},{"type":"function","name":"collectFee","inputs":[{"name":"token","type":"address","internalType":"address"},{"name":"amount","type":"uint256","internalType":"uint256"}],"outputs":[],"stateMutability":"nonpayable"},{"type":"function","name":"credit","inputs":[{"name":"user","type":"address","internalType":"address"},{"name":"token","type":"address","internalType":"address"},{"name":"amount","type":"uint256","internalType":"uint256"}],"outputs":[],"stateMutability":"nonpayable"},{"type":"function","name":"debit","inputs":[{"name":"user","type":"address","internalType":"address"},{"name":"token","type":"address","internalType":"address"},{"name":"amount","type":"uint256","internalType":"uint256"}],"outputs":[],"stateMutability":"nonpayable"},{"type":"function","name":"deposit","inputs":[{"name":"token","type":"address","internalType":"address"},{"name":"amount","type":"uint256","internalType":"uint256"}],"outputs":[],"stateMutability":"nonpayable"},{"type":"function","name":"emergencyMode","inputs":[],"outputs":[{"name":"","type":"bool","internalType":"bool"}],"stateMutability":"view"},{"type":"function","name":"emergencyWithdraw","inputs":[{"name":"token","type":"address","internalType":"address"}],"outputs":[],"stateMutability":"nonpayable"},{"type":"function","name":"owner","inputs":[],"outputs":[{"name":"","type":"address","internalType":"address"}],"stateMutability":"view"},{"type":"function","name":"renounceOwnership","inputs":[],"outputs":[],"stateMutability":"nonpayable"},{"type":"function","name":"resetTokenApproval","inputs":[{"name":"token","type":"address","internalType":"address"},{"name":"spender","type":"address","internalType":"address"}],"outputs":[],"stateMutability":"nonpayable"},{"type":"function","name":"setEmergencyMode","inputs":[{"name":"_isEmergency","type":"bool","internalType":"bool"}],"outputs":[],"stateMutability":"nonpayable"},{"type":"function","name":"setRouter","inputs":[{"name":"_router","type":"address","internalType":"address"}],"outputs":[],"stateMutability":"nonpayable"},{"type":"function","name":"spotRouter","inputs":[],"outputs":[{"name":"","type":"address","internalType":"address"}],"stateMutability":"view"},{"type":"function","name":"transferOwnership","inputs":[{"name":"newOwner","type":"address","internalType":"address"}],"outputs":[],"stateMutability":"nonpayable"},{"type":"function","name":"withdraw","inputs":[{"name":"token","type":"address","internalType":"address"},{"name":"amount","type":"uint256","internalType":"uint256"}],"outputs":[],"stateMutability":"nonpayable"},{"type":"event","name":"Credit","inputs":[{"name":"user","type":"address","indexed":true,"internalType":"address"},{"name":"token","type":"address","indexed":true,"internalType":"address"},{"name":"amount","type":"uint256","indexed":false,"internalType":"uint256"}],"anonymous":false},{"type":"event","name":"Debit","inputs":[{"name":"user","type":"address","indexed":true,"internalType":"address"},{"name":"token","type":"address","indexed":true,"internalType":"address"},{"name":"amount","type":"uint256","indexed":false,"internalType":"uint256"}],"anonymous":false},{"type":"event","name":"Deposit","inputs":[{"name":"user","type":"address","indexed":true,"internalType":"address"},{"name":"token","type":"address","indexed":true,"internalType":"address"},{"name":"amount","type":"uint256","indexed":false,"internalType":"uint256"}],"anonymous":false},{"type":"event","name":"EmergencyModeChanged","inputs":[{"name":"isEmergency","type":"bool","indexed":false,"internalType":"bool"}],"anonymous":false},{"type":"event","name":"EmergencyWithdraw","inputs":[{"name":"user","type":"address","indexed":true,"internalType":"address"},{"name":"token","type":"address","indexed":true,"internalType":"address"},{"name":"amount","type":"uint256","indexed":false,"internalType":"uint256"}],"anonymous":false},{"type":"event","name":"FeeCollected","inputs":[{"name":"token","type":"address","indexed":true,"internalType":"address"},{"name":"amount","type":"uint256","indexed":false,"internalType":"uint256"}],"anonymous":false},{"type":"event","name":"OwnershipTransferred","inputs":[{"name":"previousOwner","type":"address","indexed":true,"internalType":"address"},{"name":"newOwner","type":"address","indexed":true,"internalType":"address"}],"anonymous":false},{"type":"event","name":"RouterChanged","inputs":[{"name":"newRouter","type":"address","indexed":true,"internalType":"address"}],"anonymous":false},{"type":"event","name":"Withdraw","inputs":[{"name":"user","type":"address","indexed":true,"internalType":"address"},{"name":"token","type":"address","indexed":true,"internalType":"address"},{"name":"amount","type":"uint256","indexed":false,"internalType":"uint256"}],"anonymous":false},{"type":"error","name":"OwnableInvalidOwner","inputs":[{"name":"owner","type":"address","internalType":"address"}]},{"type":"error","name":"OwnableUnauthorizedAccount","inputs":[{"name":"account","type":"address","internalType":"address"}]},{"type":"error","name":"ReentrancyGuardReentrantCall","inputs":[]},{"type":"error","name":"SafeERC20FailedDecreaseAllowance","inputs":[{"name":"spender","type":"address","internalType":"address"},{"name":"currentAllowance","type":"uint256","internalType":"uint256"},{"name":"requestedDecrease","type":"uint256","internalType":"uint256"}]},{"type":"error","name":"SafeERC20FailedOperation","inputs":[{"name":"token","type":"address","internalType":"address"}]}],"bytecode":{"object":"0x60806040523461002757610011610036565b61001961002c565b612251610321823961225190f35b610032565b60405190565b5f80fd5b61003f336100cd565b565b90565b90565b90565b61005e61005961006392610041565b610047565b610044565b90565b610070600161004a565b90565b5f1b90565b906100845f1991610073565b9181191691161790565b6100a261009d6100a792610044565b610047565b610044565b90565b90565b906100c26100bd6100c99261008e565b6100aa565b8254610078565b9055565b6100d69061015e565b6100f86100e1610066565b5f6100f26100ed610202565b610216565b016100ad565b565b90565b60018060a01b031690565b61011c610117610121926100fa565b610047565b6100fd565b90565b61012d90610108565b90565b610139906100fd565b90565b61014590610130565b9052565b919061015c905f6020850194019061013c565b565b8061017961017361016e5f610124565b610130565b91610130565b1461018957610187906102c1565b565b6101ac6101955f610124565b5f918291631e4fbdf760e01b835260048301610149565b0390fd5b5f90565b90565b90565b6101ce6101c96101d3926101b4565b610073565b6101b7565b90565b6101ff7f9b779b17422d0df92223018b32b4d1fa46e071723d6817e2486d003becc55f006101ba565b90565b61020a6101b0565b506102136101d6565b90565b90565b5f1c90565b60018060a01b031690565b61023561023a91610219565b61021e565b90565b6102479054610229565b90565b9061025b60018060a01b0391610073565b9181191691161790565b61027961027461027e926100fd565b610047565b6100fd565b90565b61028a90610265565b90565b61029690610281565b90565b90565b906102b16102ac6102b89261028d565b610299565b825461024a565b9055565b5f0190565b6102ca5f61023d565b6102d4825f61029c565b906103086103027f8be0079c531659141344cd1fd0a4f28419497f9722a3daafe3b4186f6b6457e09361028d565b9161028d565b9161031161002c565b8061031b816102bc565b0390a356fe60806040526004361015610013575b61076f565b61001d5f3561011c565b80630905f56014610117578063262709e6146101125780632ec0ff6c1461010d5780633603e910146101085780633faec0841461010357806347e7ef24146100fe5780636ff1c9bc146100f9578063715018a6146100f45780637de182c5146100ef5780638da5cb5b146100ea578063be32b3f8146100e5578063c0d78655146100e0578063c23f001f146100db578063da3e3397146100d6578063f2fde38b146100d15763f3fef3a30361000e5761073b565b610708565b6106d4565b61069e565b61059c565b610569565b6104f3565b6104bf565b61048c565b610459565b610407565b6103d3565b610371565b6102db565b61027a565b6101a6565b60e01c90565b60405190565b5f80fd5b5f80fd5b5f91031261013a57565b61012c565b1c90565b60ff1690565b61015990600861015e930261013f565b610143565b90565b9061016c9154610149565b90565b61017c6001601490610161565b90565b151590565b61018d9061017f565b9052565b91906101a4905f60208501940190610184565b565b346101d6576101b6366004610130565b6101d26101c161016f565b6101c9610122565b91829182610191565b0390f35b610128565b60018060a01b031690565b6101ef906101db565b90565b6101fb816101e6565b0361020257565b5f80fd5b90503590610213826101f2565b565b90565b61022181610215565b0361022857565b5f80fd5b9050359061023982610218565b565b90916060828403126102705761026d610256845f8501610206565b936102648160208601610206565b9360400161022c565b90565b61012c565b5f0190565b346102a95761029361028d36600461023b565b91610c0f565b61029b610122565b806102a581610275565b0390f35b610128565b91906040838203126102d657806102ca6102d3925f8601610206565b9360200161022c565b90565b61012c565b3461030a576102f46102ee3660046102ae565b90610dd2565b6102fc610122565b8061030681610275565b0390f35b610128565b60018060a01b031690565b61032a90600861032f930261013f565b61030f565b90565b9061033d915461031a565b90565b61034c60015f90610332565b90565b610358906101e6565b9052565b919061036f905f6020850194019061034f565b565b346103a157610381366004610130565b61039d61038c610340565b610394610122565b9182918261035c565b0390f35b610128565b91906040838203126103ce57806103c26103cb925f8601610206565b93602001610206565b90565b61012c565b34610402576103ec6103e63660046103a6565b90610fb7565b6103f4610122565b806103fe81610275565b0390f35b610128565b346104365761042061041a3660046102ae565b906111cd565b610428610122565b8061043281610275565b0390f35b610128565b9060208282031261045457610451915f01610206565b90565b61012c565b346104875761047161046c36600461043b565b611401565b610479610122565b8061048381610275565b0390f35b610128565b346104ba5761049c366004610130565b6104a4611459565b6104ac610122565b806104b681610275565b0390f35b610128565b346104ee576104d86104d236600461023b565b916115c0565b6104e0610122565b806104ea81610275565b0390f35b610128565b3461052357610503366004610130565b61051f61050e6115d1565b610516610122565b9182918261035c565b0390f35b610128565b6105318161017f565b0361053857565b5f80fd5b9050359061054982610528565b565b9060208282031261056457610561915f0161053c565b90565b61012c565b346105975761058161057c36600461054b565b61168d565b610589610122565b8061059381610275565b0390f35b610128565b346105ca576105b46105af36600461043b565b611803565b6105bc610122565b806105c681610275565b0390f35b610128565b90565b6105e66105e16105eb926101db565b6105cf565b6101db565b90565b6105f7906105d2565b90565b610603906105ee565b90565b90610610906105fa565b5f5260205260405f2090565b90610626906105fa565b5f5260205260405f2090565b90565b61064590600861064a930261013f565b610632565b90565b906106589154610635565b90565b6106746106799261066f6002935f94610606565b61061c565b61064d565b90565b61068590610215565b9052565b919061069c905f6020850194019061067c565b565b346106cf576106cb6106ba6106b43660046103a6565b9061065b565b6106c2610122565b91829182610689565b0390f35b610128565b34610703576106ed6106e736600461023b565b91611857565b6106f5610122565b806106ff81610275565b0390f35b610128565b346107365761072061071b36600461043b565b6118c9565b610728610122565b8061073281610275565b0390f35b610128565b3461076a5761075461074e3660046102ae565b90611b73565b61075c610122565b8061076681610275565b0390f35b610128565b5f80fd5b5f1c90565b61078461078991610773565b61030f565b90565b6107969054610778565b90565b60209181520190565b60207f7465720000000000000000000000000000000000000000000000000000000000917f5661756c743a2043616c6c6572206973206e6f74207468652053706f74526f755f8201520152565b6107fc6023604092610799565b610805816107a2565b0190565b61081e9060208101905f8183039101526107ef565b90565b1561082857565b610830610122565b62461bcd60e51b81528061084660048201610809565b0390fd5b9061087a92916108753361086f610869610864600161078c565b6101e6565b916101e6565b14610821565b61087c565b565b9061088f929161088a611bab565b610968565b610897611c03565b565b60a01c90565b6108ab6108b091610899565b610143565b90565b6108bd905461089f565b90565b60207f6e6379206d6f6465000000000000000000000000000000000000000000000000917f5661756c743a20416374696f6e2064697361626c656420696e20656d657267655f8201520152565b61091a6028604092610799565b610923816108c0565b0190565b61093c9060208101905f81830391015261090d565b90565b1561094657565b61094e610122565b62461bcd60e51b81528061096460048201610927565b0390fd5b9061098e929161098961098461097e60016108b3565b1561017f565b61093f565b610b0c565b565b61099c6109a191610773565b610632565b90565b6109ae9054610990565b90565b60207f6465626974000000000000000000000000000000000000000000000000000000917f5661756c743a20496e73756666696369656e742062616c616e636520666f72205f8201520152565b610a0b6025604092610799565b610a14816109b1565b0190565b610a2d9060208101905f8183039101526109fe565b90565b15610a3757565b610a3f610122565b62461bcd60e51b815280610a5560048201610a18565b0390fd5b634e487b7160e01b5f52601160045260245ffd5b610a7c610a8291939293610215565b92610215565b8203918211610a8d57565b610a59565b5f1b90565b90610aa35f1991610a92565b9181191691161790565b610ac1610abc610ac692610215565b6105cf565b610215565b90565b90565b90610ae1610adc610ae892610aad565b610ac9565b8254610a97565b9055565b634e487b7160e01b5f52600160045260245ffd5b15610b0757565b610aec565b919091610bbf610b30610b2b610b2460028590610606565b869061061c565b6109a4565b610b4d81610b46610b4087610215565b91610215565b1015610a30565b610b7f84610b79610b6a610b6360028890610606565b899061061c565b91610b74836109a4565b610a6d565b90610acc565b610bb9610bb3610bae610ba6610ba1610b9a60028990610606565b8a9061061c565b6109a4565b938790610a6d565b610215565b91610215565b14610b00565b919091610c0a610bf8610bf27fdc95cccefa07472883633e3b800a6f123825f8f8f5d4029e93b1306e8c5fa839936105fa565b936105fa565b93610c01610122565b91829182610689565b0390a3565b90610c1a929161084a565b565b90610c4b91610c4633610c40610c3a610c35600161078c565b6101e6565b916101e6565b14610821565b610d39565b565b90565b610c64610c5f610c6992610c4d565b6105cf565b610215565b90565b60207f7665000000000000000000000000000000000000000000000000000000000000917f5661756c743a2046656520616d6f756e74206d75737420626520706f736974695f8201520152565b610cc66022604092610799565b610ccf81610c6c565b0190565b610ce89060208101905f818303910152610cb9565b90565b15610cf257565b610cfa610122565b62461bcd60e51b815280610d1060048201610cd3565b0390fd5b610d23610d2991939293610215565b92610215565b8201809211610d3457565b610a59565b610d5582610d4f610d495f610c50565b91610215565b11610ceb565b610d8e82610d88610d79610d726002610d6c6115d1565b90610606565b859061061c565b91610d83836109a4565b610d14565b90610acc565b610dcd610dbb7f06c5efeff5c320943d265dc4e5f1af95ad523555ce0c1957e367dda5514572df926105fa565b92610dc4610122565b91829182610689565b0390a2565b90610ddc91610c1c565b565b90610e0d91610e0833610e02610dfc610df7600161078c565b6101e6565b916101e6565b14610821565b610eec565b565b610e18906105d2565b90565b610e2490610e0f565b90565b610e30906105ee565b90565b610e3c906105ee565b90565b601f801991011690565b634e487b7160e01b5f52604160045260245ffd5b90610e6790610e3f565b810190811067ffffffffffffffff821117610e8157604052565b610e49565b60e01b90565b90505190610e9982610218565b565b90602082820312610eb457610eb1915f01610e8c565b90565b61012c565b916020610eda929493610ed360408201965f83019061034f565b019061034f565b565b610ee4610122565b3d5f823e3d90fd5b90610efe610ef983610e1b565b610e27565b602063dd62ed3e91610f0f30610e33565b90610f2c8594610f37610f20610122565b96879586948594610e86565b845260048401610eb9565b03915afa908115610fb2575f91610f84575b5080610f5d610f575f610c50565b91610215565b11610f68575b505050565b610f74610f7c93610e1b565b919091611c73565b5f8080610f63565b610fa5915060203d8111610fab575b610f9d8183610e5d565b810190610e9b565b5f610f49565b503d610f93565b610edc565b90610fc191610dde565b565b90610fd591610fd0611bab565b610fdf565b610fdd611c03565b565b9061100491610fff610ffa610ff460016108b3565b1561017f565b61093f565b6110ae565b565b60207f7369746976650000000000000000000000000000000000000000000000000000917f5661756c743a204465706f73697420616d6f756e74206d75737420626520706f5f8201520152565b6110606026604092610799565b61106981611006565b0190565b6110829060208101905f818303910152611053565b90565b1561108c57565b611094610122565b62461bcd60e51b8152806110aa6004820161106d565b0390fd5b906110cb816110c56110bf5f610c50565b91610215565b11611085565b61117c6110ec6110e76110e060023390610606565b859061061c565b6109a4565b61110a6110f885610e1b565b3361110230610e33565b908692611d52565b61113c8361113661112761112060023390610606565b889061061c565b91611131836109a4565b610d14565b90610acc565b61117661117061116b61116361115e61115760023390610606565b899061061c565b6109a4565b938690610d14565b610215565b91610215565b14610b00565b339190916111c86111b66111b07f5548c837ab068cf56a2c2479df0882a4922fd203edb7517321831d95078c5f62936105fa565b936105fa565b936111bf610122565b91829182610689565b0390a3565b906111d791610fc3565b565b6111ea906111e5611bab565b61129c565b6111f2611c03565b565b60207f657267656e6379206d6f64650000000000000000000000000000000000000000917f5661756c743a20416374696f6e206f6e6c7920656e61626c656420696e20656d5f8201520152565b61124e602c604092610799565b611257816111f4565b0190565b6112709060208101905f818303910152611241565b90565b1561127a57565b611282610122565b62461bcd60e51b8152806112986004820161125b565b0390fd5b6112b7906112b26112ad60016108b3565b611273565b61133b565b565b5f7f5661756c743a204e6f2062616c616e636520746f207769746864726177000000910152565b6112ed601d602092610799565b6112f6816112b9565b0190565b61130f9060208101905f8183039101526112e0565b90565b1561131957565b611321610122565b62461bcd60e51b815280611337600482016112fa565b0390fd5b61135961135461134d60023390610606565b839061061c565b6109a4565b6113758161136f6113695f610c50565b91610215565b11611312565b61139c6113815f610c50565b61139761139060023390610606565b859061061c565b610acc565b6113b06113a883610e1b565b338391611d9d565b339190916113fc6113ea6113e47ff24ef89f38eadc1bde50701ad6e4d6d11a2dc24f7cf834a486991f3883328504936105fa565b936105fa565b936113f3610122565b91829182610689565b0390a3565b61140a906111d9565b565b611414611de4565b61141c611446565b565b61143261142d61143792610c4d565b6105cf565b6101db565b90565b6114439061141e565b90565b6114576114525f61143a565b611e32565b565b61146161140c565b565b90611493929161148e3361148861148261147d600161078c565b6101e6565b916101e6565b14610821565b611495565b565b906114a892916114a3611bab565b6114b2565b6114b0611c03565b565b906114d892916114d36114ce6114c860016108b3565b1561017f565b61093f565b6114da565b565b9190916115706114fe6114f96114f260028590610606565b869061061c565b6109a4565b6115308461152a61151b61151460028890610606565b899061061c565b91611525836109a4565b610d14565b90610acc565b61156a61156461155f61155761155261154b60028990610606565b8a9061061c565b6109a4565b938790610d14565b610215565b91610215565b14610b00565b9190916115bb6115a96115a37f14ab110831c9d210715b0adedbc67b2f0b80c10ad2853488332d1e4fbd85f81d936105fa565b936105fa565b936115b2610122565b91829182610689565b0390a3565b906115cb9291611463565b565b5f90565b6115d96115cd565b506115e35f61078c565b90565b6115f7906115f2611de4565b611647565b565b60a01b90565b9061160e60ff60a01b916115f9565b9181191691161790565b6116219061017f565b90565b90565b9061163c61163761164392611618565b611624565b82546115ff565b9055565b611652816001611627565b6116887f2809db8224f8e2a04e05130d24142b86b9e35ab1830bf5e353d1ef2ae4bf03379161167f610122565b91829182610191565b0390a1565b611696906115e6565b565b6116a9906116a4611de4565b611791565b565b60207f2061646472657373000000000000000000000000000000000000000000000000917f5661756c743a2043616e6e6f742073657420726f7574657220746f207a65726f5f8201520152565b6117056028604092610799565b61170e816116ab565b0190565b6117279060208101905f8183039101526116f8565b90565b1561173157565b611739610122565b62461bcd60e51b81528061174f60048201611712565b0390fd5b9061176460018060a01b0391610a92565b9181191691161790565b90565b9061178661178161178d926105fa565b61176e565b8254611753565b9055565b6117b6816117af6117a96117a45f61143a565b6101e6565b916101e6565b141561172a565b6117c1816001611771565b6117eb7f1085cec9a5108943412475d298086ae4d0abf09cfad47b05436b89fe887a820c916105fa565b906117f4610122565b806117fe81610275565b0390a2565b61180c90611698565b565b9061183e92916118393361183361182d611828600161078c565b6101e6565b916101e6565b14610821565b611840565b565b9161184d61185593610e1b565b919091611e91565b565b90611862929161180e565b565b61187590611870611de4565b611877565b565b8061189261188c6118875f61143a565b6101e6565b916101e6565b146118a2576118a090611e32565b565b6118c56118ae5f61143a565b5f918291631e4fbdf760e01b83526004830161035c565b0390fd5b6118d290611864565b565b906118e6916118e1611bab565b6118f0565b6118ee611c03565b565b906119159161191061190b61190560016108b3565b1561017f565b61093f565b611a41565b565b60207f6f73697469766500000000000000000000000000000000000000000000000000917f5661756c743a20576974686472617720616d6f756e74206d75737420626520705f8201520152565b6119716027604092610799565b61197a81611917565b0190565b6119939060208101905f818303910152611964565b90565b1561199d57565b6119a5610122565b62461bcd60e51b8152806119bb6004820161197e565b0390fd5b5f7f5661756c743a20496e73756666696369656e742062616c616e63650000000000910152565b6119f3601b602092610799565b6119fc816119bf565b0190565b611a159060208101905f8183039101526119e6565b90565b15611a1f57565b611a27610122565b62461bcd60e51b815280611a3d60048201611a00565b0390fd5b90611a5e81611a58611a525f610c50565b91610215565b11611996565b611b22611a7f611a7a611a7360023390610606565b859061061c565b6109a4565b611a9c81611a95611a8f86610215565b91610215565b1015611a18565b611ace83611ac8611ab9611ab260023390610606565b889061061c565b91611ac3836109a4565b610a6d565b90610acc565b611ae2611ada85610e1b565b338591611d9d565b611b1c611b16611b11611b09611b04611afd60023390610606565b899061061c565b6109a4565b938690610a6d565b610215565b91610215565b14610b00565b33919091611b6e611b5c611b567f9b1bfa7fa9ee420a16e124f794c35ac9f90472acc99140eb2f6447c714cad8eb936105fa565b936105fa565b93611b65610122565b91829182610689565b0390a3565b90611b7d916118d4565b565b90565b611b96611b91611b9b92611b7f565b6105cf565b610215565b90565b611ba86002611b82565b90565b611bb3611f31565b611bd5611bbe611b9e565b5f611bcf611bca611fad565b611fc1565b01610acc565b565b90565b611bee611be9611bf392611bd7565b6105cf565b610215565b90565b611c006001611bda565b90565b611c25611c0e611bf6565b5f611c1f611c1a611fad565b611fc1565b01610acc565b565b611c30906105ee565b90565b604090611c5c611c639496959396611c5260608401985f85019061034f565b602083019061067c565b019061067c565b565b90611c709103610215565b90565b929192611c7f81610e27565b602063dd62ed3e91611c9030611c27565b90611cad8694611cb8611ca1610122565b96879586948594610e86565b845260048401610eb9565b03915afa908115611d4d575f91611d1f575b509081611cdf611cd987610215565b91610215565b10611cfc57611cfa9394611cf4919392611c65565b91611fc4565b565b50611d1b849291925f93849363e570110f60e01b855260048501611c33565b0390fd5b611d40915060203d8111611d46575b611d388183610e5d565b810190610e9b565b5f611cca565b503d611d2e565b610edc565b9290611d6f92611d69928592919091600193612081565b1561017f565b611d765750565b611d82611d9991610e27565b5f918291635274afe760e01b83526004830161035c565b0390fd5b91611db691611db09184916001926120fa565b1561017f565b611dbd5750565b611dc9611de091610e27565b5f918291635274afe760e01b83526004830161035c565b0390fd5b611dec6115d1565b611e05611dff611dfa612164565b6101e6565b916101e6565b03611e0c57565b611e2e611e17612164565b5f91829163118cdaa760e01b83526004830161035c565b0390fd5b611e3b5f61078c565b611e45825f611771565b90611e79611e737f8be0079c531659141344cd1fd0a4f28419497f9722a3daafe3b4186f6b6457e0936105fa565b916105fa565b91611e82610122565b80611e8c81610275565b0390a3565b611e9a81610e27565b602063dd62ed3e91611eab30611c27565b90611ec88694611ed3611ebc610122565b96879586948594610e86565b845260048401610eb9565b03915afa938415611f2c57611efc94611ef6925f91611efe575b50929392610d14565b91611fc4565b565b611f1f915060203d8111611f25575b611f178183610e5d565b810190610e9b565b5f611eed565b503d611f0d565b610edc565b611f39612171565b611f3f57565b5f633ee5aeb560e01b815280611f5760048201610275565b0390fd5b5f90565b90565b90565b611f79611f74611f7e92611f5f565b610a92565b611f62565b90565b611faa7f9b779b17422d0df92223018b32b4d1fa46e071723d6817e2486d003becc55f00611f65565b90565b611fb5611f5b565b50611fbe611f81565b90565b90565b91611fdc611fd6848484905f926121b1565b1561017f565b611fe6575b505050565b6120086120028484905f91611ffc600193610c50565b916121b1565b1561017f565b612056576120249161201e9184916001926121b1565b1561017f565b61202f578080611fe1565b61203b61205291610e27565b5f918291635274afe760e01b83526004830161035c565b0390fd5b61207961206284610e27565b5f918291635274afe760e01b83526004830161035c565b0390fd5b5f90565b9194939492909261209061207d565b506323b872dd60e01b93604051945f525f1960601c166004525f1960601c1660245260445260205f60648180855af19360015f51148516156120d8575b50506040525f606052565b84929415166120f1575f903b113d151616915f806120cd565b833d5f823e3d90fd5b909193929361210761207d565b5063a9059cbb60e01b92604051935f525f1960601c1660045260245260205f60448180855af19360015f5114851615612142575b5050604052565b849294151661215b575f903b113d151616915f8061213b565b833d5f823e3d90fd5b61216c6115cd565b503390565b61217961207d565b506121945f61218e612189611fad565b611fc1565b016109a4565b6121ad6121a76121a2611b9e565b610215565b91610215565b1490565b90919392936121be61207d565b5063095ea7b360e01b92604051935f525f1960601c1660045260245260205f60448180855af19360015f51148516156121f9575b5050604052565b8492941516612212575f903b113d151616915f806121f2565b833d5f823e3d90fdfea26469706673582212201add13d4db9e6947e75c402d7a865ac71f2df43cbffb4a24694a0893684363cb64736f6c634300081e0033","linkReferences":{}},"methodIdentifiers":{"approveToken(address,address,uint256)":"da3e3397","balances(address,address)":"c23f001f","collectFee(address,uint256)":"2ec0ff6c","credit(address,address,uint256)":"7de182c5","debit(address,address,uint256)":"262709e6","deposit(address,uint256)":"47e7ef24","emergencyMode()":"0905f560","emergencyWithdraw(address)":"6ff1c9bc","owner()":"8da5cb5b","renounceOwnership()":"715018a6","resetTokenApproval(address,address)":"3faec084","setEmergencyMode(bool)":"be32b3f8","setRouter(address)":"c0d78655","spotRouter()":"3603e910","transferOwnership(address)":"f2fde38b","withdraw(address,uint256)":"f3fef3a3"},"id":4}