{"abi":[{"type":"constructor","inputs":[],"stateMutability":"nonpayable"},{"type":"function","name":"approveToken","inputs":[{"name":"token","type":"address","internalType":"address"},{"name":"spender","type":"address","internalType":"address"},{"name":"amount","type":"uint256","internalType":"uint256"}],"outputs":[],"stateMutability":"nonpayable"},{"type":"function","name":"balances","inputs":[{"name":"","type":"address","internalType":"address"},{"name":"","type":"address","internalType":"address"}],"outputs":[{"name":"","type":"uint256","internalType":"uint256"}],"stateMutability":"view"},{"type":"function","name":"collectFee","inputs":[{"name":"token","type":"address","internalType":"address"},{"name":"amount","type":"uint256","internalType":"uint256"}],"outputs":[],"stateMutability":"nonpayable"},{"type":"function","name":"credit","inputs":[{"name":"user","type":"address","internalType":"address"},{"name":"token","type":"address","internalType":"address"},{"name":"amount","type":"uint256","internalType":"uint256"}],"outputs":[],"stateMutability":"nonpayable"},{"type":"function","name":"debit","inputs":[{"name":"user","type":"address","internalType":"address"},{"name":"token","type":"address","internalType":"address"},{"name":"amount","type":"uint256","internalType":"uint256"}],"outputs":[],"stateMutability":"nonpayable"},{"type":"function","name":"deposit","inputs":[{"name":"token","type":"address","internalType":"address"},{"name":"amount","type":"uint256","internalType":"uint256"}],"outputs":[],"stateMutability":"nonpayable"},{"type":"function","name":"emergencyMode","inputs":[],"outputs":[{"name":"","type":"bool","internalType":"bool"}],"stateMutability":"view"},{"type":"function","name":"emergencyWithdraw","inputs":[{"name":"token","type":"address","internalType":"address"}],"outputs":[],"stateMutability":"nonpayable"},{"type":"function","name":"owner","inputs":[],"outputs":[{"name":"","type":"address","internalType":"address"}],"stateMutability":"view"},{"type":"function","name":"renounceOwnership","inputs":[],"outputs":[],"stateMutability":"nonpayable"},{"type":"function","name":"resetTokenApproval","inputs":[{"name":"token","type":"address","internalType":"address"},{"name":"spender","type":"address","internalType":"address"}],"outputs":[],"stateMutability":"nonpayable"},{"type":"function","name":"setEmergencyMode","inputs":[{"name":"_isEmergency","type":"bool","internalType":"bool"}],"outputs":[],"stateMutability":"nonpayable"},{"type":"function","name":"setRouter","inputs":[{"name":"_router","type":"address","internalType":"address"}],"outputs":[],"stateMutability":"nonpayable"},{"type":"function","name":"spotRouter","inputs":[],"outputs":[{"name":"","type":"address","internalType":"address"}],"stateMutability":"view"},{"type":"function","name":"transferOwnership","inputs":[{"name":"newOwner","type":"address","internalType":"address"}],"outputs":[],"stateMutability":"nonpayable"},{"type":"function","name":"withdraw","inputs":[{"name":"token","type":"address","internalType":"address"},{"name":"amount","type":"uint256","internalType":"uint256"}],"outputs":[],"stateMutability":"nonpayable"},{"type":"event","name":"Credit","inputs":[{"name":"user","type":"address","indexed":true,"internalType":"address"},{"name":"token","type":"address","indexed":true,"internalType":"address"},{"name":"amount","type":"uint256","indexed":false,"internalType":"uint256"}],"anonymous":false},{"type":"event","name":"Debit","inputs":[{"name":"user","type":"address","indexed":true,"internalType":"address"},{"name":"token","type":"address","indexed":true,"internalType":"address"},{"name":"amount","type":"uint256","indexed":false,"internalType":"uint256"}],"anonymous":false},{"type":"event","name":"Deposit","inputs":[{"name":"user","type":"address","indexed":true,"internalType":"address"},{"name":"token","type":"address","indexed":true,"internalType":"address"},{"name":"amount","type":"uint256","indexed":false,"internalType":"uint256"}],"anonymous":false},{"type":"event","name":"EmergencyModeChanged","inputs":[{"name":"isEmergency","type":"bool","indexed":false,"internalType":"bool"}],"anonymous":false},{"type":"event","name":"EmergencyWithdraw","inputs":[{"name":"user","type":"address","indexed":true,"internalType":"address"},{"name":"token","type":"address","indexed":true,"internalType":"address"},{"name":"amount","type":"uint256","indexed":false,"internalType":"uint256"}],"anonymous":false},{"type":"event","name":"FeeCollected","inputs":[{"name":"token","type":"address","indexed":true,"internalType":"address"},{"name":"amount","type":"uint256","indexed":false,"internalType":"uint256"}],"anonymous":false},{"type":"event","name":"OwnershipTransferred","inputs":[{"name":"previousOwner","type":"address","indexed":true,"internalType":"address"},{"name":"newOwner","type":"address","indexed":true,"internalType":"address"}],"anonymous":false},{"type":"event","name":"RouterChanged","inputs":[{"name":"newRouter","type":"address","indexed":true,"internalType":"address"}],"anonymous":false},{"type":"event","name":"Withdraw","inputs":[{"name":"user","type":"address","indexed":true,"internalType":"address"},{"name":"token","type":"address","indexed":true,"internalType":"address"},{"name":"amount","type":"uint256","indexed":false,"internalType":"uint256"}],"anonymous":false},{"type":"error","name":"OwnableInvalidOwner","inputs":[{"name":"owner","type":"address","internalType":"address"}]},{"type":"error","name":"OwnableUnauthorizedAccount","inputs":[{"name":"account","type":"address","internalType":"address"}]},{"type":"error","name":"ReentrancyGuardReentrantCall","inputs":[]},{"type":"error","name":"SafeERC20FailedDecreaseAllowance","inputs":[{"name":"spender","type":"address","internalType":"address"},{"name":"currentAllowance","type":"uint256","internalType":"uint256"},{"name":"requestedDecrease","type":"uint256","internalType":"uint256"}]},{"type":"error","name":"SafeERC20FailedOperation","inputs":[{"name":"token","type":"address","internalType":"address"}]}],"bytecode":{"object":"0x608060405234801562000010575f80fd5b50335f73ffffffffffffffffffffffffffffffffffffffff168173ffffffffffffffffffffffffffffffffffffffff160362000085575f6040517f1e4fbdf70000000000000000000000000000000000000000000000000000000081526004016200007c9190620001fb565b60405180910390fd5b6200009681620000c560201b60201c565b506001620000b9620000ad6200018660201b60201c565b620001af60201b60201c565b5f018190555062000216565b5f805f9054906101000a900473ffffffffffffffffffffffffffffffffffffffff169050815f806101000a81548173ffffffffffffffffffffffffffffffffffffffff021916908373ffffffffffffffffffffffffffffffffffffffff1602179055508173ffffffffffffffffffffffffffffffffffffffff168173ffffffffffffffffffffffffffffffffffffffff167f8be0079c531659141344cd1fd0a4f28419497f9722a3daafe3b4186f6b6457e060405160405180910390a35050565b5f7f9b779b17422d0df92223018b32b4d1fa46e071723d6817e2486d003becc55f005f1b905090565b5f819050919050565b5f73ffffffffffffffffffffffffffffffffffffffff82169050919050565b5f620001e382620001b8565b9050919050565b620001f581620001d7565b82525050565b5f602082019050620002105f830184620001ea565b92915050565b61269c80620002245f395ff3fe608060405234801561000f575f80fd5b50600436106100fe575f3560e01c80637de182c511610095578063c23f001f11610064578063c23f001f14610246578063da3e339714610276578063f2fde38b14610292578063f3fef3a3146102ae576100fe565b80637de182c5146101d45780638da5cb5b146101f0578063be32b3f81461020e578063c0d786551461022a576100fe565b80633faec084116100d15780633faec0841461017657806347e7ef24146101925780636ff1c9bc146101ae578063715018a6146101ca576100fe565b80630905f56014610102578063262709e6146101205780632ec0ff6c1461013c5780633603e91014610158575b5f80fd5b61010a6102ca565b6040516101179190611d75565b60405180910390f35b61013a60048036038101906101359190611e1f565b6102dd565b005b61015660048036038101906101519190611e6f565b610617565b005b6101606107cf565b60405161016d9190611ebc565b60405180910390f35b610190600480360381019061018b9190611ed5565b6107f4565b005b6101ac60048036038101906101a79190611e6f565b610939565b005b6101c860048036038101906101c39190611f13565b610c0f565b005b6101d2610e3d565b005b6101ee60048036038101906101e99190611e1f565b610e50565b005b6101f8611147565b6040516102059190611ebc565b60405180910390f35b61022860048036038101906102239190611f68565b61116e565b005b610244600480360381019061023f9190611f13565b6111ca565b005b610260600480360381019061025b9190611ed5565b6112c6565b60405161026d9190611fa2565b60405180910390f35b610290600480360381019061028b9190611e1f565b6112e6565b005b6102ac60048036038101906102a79190611f13565b6113a5565b005b6102c860048036038101906102c39190611e6f565b611429565b005b600160149054906101000a900460ff1681565b60015f9054906101000a900473ffffffffffffffffffffffffffffffffffffffff1673ffffffffffffffffffffffffffffffffffffffff163373ffffffffffffffffffffffffffffffffffffffff161461036c576040517f08c379a00000000000000000000000000000000000000000000000000000000081526004016103639061203b565b60405180910390fd5b610374611740565b600160149054906101000a900460ff16156103c4576040517f08c379a00000000000000000000000000000000000000000000000000000000081526004016103bb906120c9565b60405180910390fd5b5f60025f8573ffffffffffffffffffffffffffffffffffffffff1673ffffffffffffffffffffffffffffffffffffffff1681526020019081526020015f205f8473ffffffffffffffffffffffffffffffffffffffff1673ffffffffffffffffffffffffffffffffffffffff1681526020019081526020015f2054905081811015610483576040517f08c379a000000000000000000000000000000000000000000000000000000000815260040161047a90612157565b60405180910390fd5b8160025f8673ffffffffffffffffffffffffffffffffffffffff1673ffffffffffffffffffffffffffffffffffffffff1681526020019081526020015f205f8573ffffffffffffffffffffffffffffffffffffffff1673ffffffffffffffffffffffffffffffffffffffff1681526020019081526020015f205f82825461050a91906121a2565b92505081905550818161051d91906121a2565b60025f8673ffffffffffffffffffffffffffffffffffffffff1673ffffffffffffffffffffffffffffffffffffffff1681526020019081526020015f205f8573ffffffffffffffffffffffffffffffffffffffff1673ffffffffffffffffffffffffffffffffffffffff1681526020019081526020015f2054146105a4576105a36121d5565b5b8273ffffffffffffffffffffffffffffffffffffffff168473ffffffffffffffffffffffffffffffffffffffff167fdc95cccefa07472883633e3b800a6f123825f8f8f5d4029e93b1306e8c5fa839846040516106019190611fa2565b60405180910390a350610612611762565b505050565b60015f9054906101000a900473ffffffffffffffffffffffffffffffffffffffff1673ffffffffffffffffffffffffffffffffffffffff163373ffffffffffffffffffffffffffffffffffffffff16146106a6576040517f08c379a000000000000000000000000000000000000000000000000000000000815260040161069d9061203b565b60405180910390fd5b5f81116106e8576040517f08c379a00000000000000000000000000000000000000000000000000000000081526004016106df90612272565b60405180910390fd5b8060025f6106f4611147565b73ffffffffffffffffffffffffffffffffffffffff1673ffffffffffffffffffffffffffffffffffffffff1681526020019081526020015f205f8473ffffffffffffffffffffffffffffffffffffffff1673ffffffffffffffffffffffffffffffffffffffff1681526020019081526020015f205f8282546107769190612290565b925050819055508173ffffffffffffffffffffffffffffffffffffffff167f06c5efeff5c320943d265dc4e5f1af95ad523555ce0c1957e367dda5514572df826040516107c39190611fa2565b60405180910390a25050565b60015f9054906101000a900473ffffffffffffffffffffffffffffffffffffffff1681565b60015f9054906101000a900473ffffffffffffffffffffffffffffffffffffffff1673ffffffffffffffffffffffffffffffffffffffff163373ffffffffffffffffffffffffffffffffffffffff1614610883576040517f08c379a000000000000000000000000000000000000000000000000000000000815260040161087a9061203b565b60405180910390fd5b5f8273ffffffffffffffffffffffffffffffffffffffff1663dd62ed3e30846040518363ffffffff1660e01b81526004016108bf9291906122c3565b602060405180830381865afa1580156108da573d5f803e3d5ffd5b505050506040513d601f19601f820116820180604052508101906108fe91906122fe565b90505f8111156109345761093382828573ffffffffffffffffffffffffffffffffffffffff1661177c9092919063ffffffff16565b5b505050565b610941611740565b600160149054906101000a900460ff1615610991576040517f08c379a0000000000000000000000000000000000000000000000000000000008152600401610988906120c9565b60405180910390fd5b5f81116109d3576040517f08c379a00000000000000000000000000000000000000000000000000000000081526004016109ca90612399565b60405180910390fd5b5f60025f3373ffffffffffffffffffffffffffffffffffffffff1673ffffffffffffffffffffffffffffffffffffffff1681526020019081526020015f205f8473ffffffffffffffffffffffffffffffffffffffff1673ffffffffffffffffffffffffffffffffffffffff1681526020019081526020015f20549050610a7c3330848673ffffffffffffffffffffffffffffffffffffffff16611855909392919063ffffffff16565b8160025f3373ffffffffffffffffffffffffffffffffffffffff1673ffffffffffffffffffffffffffffffffffffffff1681526020019081526020015f205f8573ffffffffffffffffffffffffffffffffffffffff1673ffffffffffffffffffffffffffffffffffffffff1681526020019081526020015f205f828254610b039190612290565b925050819055508181610b169190612290565b60025f3373ffffffffffffffffffffffffffffffffffffffff1673ffffffffffffffffffffffffffffffffffffffff1681526020019081526020015f205f8573ffffffffffffffffffffffffffffffffffffffff1673ffffffffffffffffffffffffffffffffffffffff1681526020019081526020015f205414610b9d57610b9c6121d5565b5b8273ffffffffffffffffffffffffffffffffffffffff163373ffffffffffffffffffffffffffffffffffffffff167f5548c837ab068cf56a2c2479df0882a4922fd203edb7517321831d95078c5f6284604051610bfa9190611fa2565b60405180910390a350610c0b611762565b5050565b610c17611740565b600160149054906101000a900460ff16610c66576040517f08c379a0000000000000000000000000000000000000000000000000000000008152600401610c5d90612427565b60405180910390fd5b5f60025f3373ffffffffffffffffffffffffffffffffffffffff1673ffffffffffffffffffffffffffffffffffffffff1681526020019081526020015f205f8373ffffffffffffffffffffffffffffffffffffffff1673ffffffffffffffffffffffffffffffffffffffff1681526020019081526020015f205490505f8111610d24576040517f08c379a0000000000000000000000000000000000000000000000000000000008152600401610d1b9061248f565b60405180910390fd5b5f60025f3373ffffffffffffffffffffffffffffffffffffffff1673ffffffffffffffffffffffffffffffffffffffff1681526020019081526020015f205f8473ffffffffffffffffffffffffffffffffffffffff1673ffffffffffffffffffffffffffffffffffffffff1681526020019081526020015f2081905550610dcc33828473ffffffffffffffffffffffffffffffffffffffff166118aa9092919063ffffffff16565b8173ffffffffffffffffffffffffffffffffffffffff163373ffffffffffffffffffffffffffffffffffffffff167ff24ef89f38eadc1bde50701ad6e4d6d11a2dc24f7cf834a486991f388332850483604051610e299190611fa2565b60405180910390a350610e3a611762565b50565b610e456118fd565b610e4e5f611984565b565b60015f9054906101000a900473ffffffffffffffffffffffffffffffffffffffff1673ffffffffffffffffffffffffffffffffffffffff163373ffffffffffffffffffffffffffffffffffffffff1614610edf576040517f08c379a0000000000000000000000000000000000000000000000000000000008152600401610ed69061203b565b60405180910390fd5b610ee7611740565b600160149054906101000a900460ff1615610f37576040517f08c379a0000000000000000000000000000000000000000000000000000000008152600401610f2e906120c9565b60405180910390fd5b5f60025f8573ffffffffffffffffffffffffffffffffffffffff1673ffffffffffffffffffffffffffffffffffffffff1681526020019081526020015f205f8473ffffffffffffffffffffffffffffffffffffffff1673ffffffffffffffffffffffffffffffffffffffff1681526020019081526020015f205490508160025f8673ffffffffffffffffffffffffffffffffffffffff1673ffffffffffffffffffffffffffffffffffffffff1681526020019081526020015f205f8573ffffffffffffffffffffffffffffffffffffffff1673ffffffffffffffffffffffffffffffffffffffff1681526020019081526020015f205f82825461103a9190612290565b92505081905550818161104d9190612290565b60025f8673ffffffffffffffffffffffffffffffffffffffff1673ffffffffffffffffffffffffffffffffffffffff1681526020019081526020015f205f8573ffffffffffffffffffffffffffffffffffffffff1673ffffffffffffffffffffffffffffffffffffffff1681526020019081526020015f2054146110d4576110d36121d5565b5b8273ffffffffffffffffffffffffffffffffffffffff168473ffffffffffffffffffffffffffffffffffffffff167f14ab110831c9d210715b0adedbc67b2f0b80c10ad2853488332d1e4fbd85f81d846040516111319190611fa2565b60405180910390a350611142611762565b505050565b5f805f9054906101000a900473ffffffffffffffffffffffffffffffffffffffff16905090565b6111766118fd565b80600160146101000a81548160ff0219169083151502179055507f2809db8224f8e2a04e05130d24142b86b9e35ab1830bf5e353d1ef2ae4bf0337816040516111bf9190611d75565b60405180910390a150565b6111d26118fd565b5f73ffffffffffffffffffffffffffffffffffffffff168173ffffffffffffffffffffffffffffffffffffffff1603611240576040517f08c379a00000000000000000000000000000000000000000000000000000000081526004016112379061251d565b60405180910390fd5b8060015f6101000a81548173ffffffffffffffffffffffffffffffffffffffff021916908373ffffffffffffffffffffffffffffffffffffffff1602179055508073ffffffffffffffffffffffffffffffffffffffff167f1085cec9a5108943412475d298086ae4d0abf09cfad47b05436b89fe887a820c60405160405180910390a250565b6002602052815f5260405f20602052805f5260405f205f91509150505481565b60015f9054906101000a900473ffffffffffffffffffffffffffffffffffffffff1673ffffffffffffffffffffffffffffffffffffffff163373ffffffffffffffffffffffffffffffffffffffff1614611375576040517f08c379a000000000000000000000000000000000000000000000000000000000815260040161136c9061203b565b60405180910390fd5b6113a082828573ffffffffffffffffffffffffffffffffffffffff16611a459092919063ffffffff16565b505050565b6113ad6118fd565b5f73ffffffffffffffffffffffffffffffffffffffff168173ffffffffffffffffffffffffffffffffffffffff160361141d575f6040517f1e4fbdf70000000000000000000000000000000000000000000000000000000081526004016114149190611ebc565b60405180910390fd5b61142681611984565b50565b611431611740565b600160149054906101000a900460ff1615611481576040517f08c379a0000000000000000000000000000000000000000000000000000000008152600401611478906120c9565b60405180910390fd5b5f81116114c3576040517f08c379a00000000000000000000000000000000000000000000000000000000081526004016114ba906125ab565b60405180910390fd5b5f60025f3373ffffffffffffffffffffffffffffffffffffffff1673ffffffffffffffffffffffffffffffffffffffff1681526020019081526020015f205f8473ffffffffffffffffffffffffffffffffffffffff1673ffffffffffffffffffffffffffffffffffffffff1681526020019081526020015f2054905081811015611582576040517f08c379a000000000000000000000000000000000000000000000000000000000815260040161157990612613565b60405180910390fd5b8160025f3373ffffffffffffffffffffffffffffffffffffffff1673ffffffffffffffffffffffffffffffffffffffff1681526020019081526020015f205f8573ffffffffffffffffffffffffffffffffffffffff1673ffffffffffffffffffffffffffffffffffffffff1681526020019081526020015f205f82825461160991906121a2565b9250508190555061163b33838573ffffffffffffffffffffffffffffffffffffffff166118aa9092919063ffffffff16565b818161164791906121a2565b60025f3373ffffffffffffffffffffffffffffffffffffffff1673ffffffffffffffffffffffffffffffffffffffff1681526020019081526020015f205f8573ffffffffffffffffffffffffffffffffffffffff1673ffffffffffffffffffffffffffffffffffffffff1681526020019081526020015f2054146116ce576116cd6121d5565b5b8273ffffffffffffffffffffffffffffffffffffffff163373ffffffffffffffffffffffffffffffffffffffff167f9b1bfa7fa9ee420a16e124f794c35ac9f90472acc99140eb2f6447c714cad8eb8460405161172b9190611fa2565b60405180910390a35061173c611762565b5050565b611748611ade565b600261175a611755611b1f565b611b48565b5f0181905550565b600161177461176f611b1f565b611b48565b5f0181905550565b5f8373ffffffffffffffffffffffffffffffffffffffff1663dd62ed3e30856040518363ffffffff1660e01b81526004016117b89291906122c3565b602060405180830381865afa1580156117d3573d5f803e3d5ffd5b505050506040513d601f19601f820116820180604052508101906117f791906122fe565b905081811015611842578281836040517fe570110f00000000000000000000000000000000000000000000000000000000815260040161183993929190612631565b60405180910390fd5b61184f8484848403611b51565b50505050565b611863848484846001611c03565b6118a457836040517f5274afe700000000000000000000000000000000000000000000000000000000815260040161189b9190611ebc565b60405180910390fd5b50505050565b6118b78383836001611c74565b6118f857826040517f5274afe70000000000000000000000000000000000000000000000000000000081526004016118ef9190611ebc565b60405180910390fd5b505050565b611905611cd6565b73ffffffffffffffffffffffffffffffffffffffff16611923611147565b73ffffffffffffffffffffffffffffffffffffffff161461198257611946611cd6565b6040517f118cdaa70000000000000000000000000000000000000000000000000000000081526004016119799190611ebc565b60405180910390fd5b565b5f805f9054906101000a900473ffffffffffffffffffffffffffffffffffffffff169050815f806101000a81548173ffffffffffffffffffffffffffffffffffffffff021916908373ffffffffffffffffffffffffffffffffffffffff1602179055508173ffffffffffffffffffffffffffffffffffffffff168173ffffffffffffffffffffffffffffffffffffffff167f8be0079c531659141344cd1fd0a4f28419497f9722a3daafe3b4186f6b6457e060405160405180910390a35050565b5f8373ffffffffffffffffffffffffffffffffffffffff1663dd62ed3e30856040518363ffffffff1660e01b8152600401611a819291906122c3565b602060405180830381865afa158015611a9c573d5f803e3d5ffd5b505050506040513d601f19601f82011682018060405250810190611ac091906122fe565b9050611ad884848484611ad39190612290565b611b51565b50505050565b611ae6611cdd565b15611b1d576040517f3ee5aeb500000000000000000000000000000000000000000000000000000000815260040160405180910390fd5b565b5f7f9b779b17422d0df92223018b32b4d1fa46e071723d6817e2486d003becc55f005f1b905090565b5f819050919050565b611b5d8383835f611cf9565b611bfe57611b6e83835f6001611cf9565b611baf57826040517f5274afe7000000000000000000000000000000000000000000000000000000008152600401611ba69190611ebc565b60405180910390fd5b611bbc8383836001611cf9565b611bfd57826040517f5274afe7000000000000000000000000000000000000000000000000000000008152600401611bf49190611ebc565b60405180910390fd5b5b505050565b5f806323b872dd60e01b9050604051815f525f1960601c87166004525f1960601c86166024528460445260205f60645f808c5af1925060015f51148316611c61578383151615611c55573d5f823e3d81fd5b5f883b113d1516831692505b806040525f606052505095945050505050565b5f8063a9059cbb60e01b9050604051815f525f1960601c86166004528460245260205f60445f808b5af1925060015f51148316611cc8578383151615611cbc573d5f823e3d81fd5b5f873b113d1516831692505b806040525050949350505050565b5f33905090565b5f6002611cf0611ceb611b1f565b611b48565b5f015414905090565b5f8063095ea7b360e01b9050604051815f525f1960601c86166004528460245260205f60445f808b5af1925060015f51148316611d4d578383151615611d41573d5f823e3d81fd5b5f873b113d1516831692505b806040525050949350505050565b5f8115159050919050565b611d6f81611d5b565b82525050565b5f602082019050611d885f830184611d66565b92915050565b5f80fd5b5f73ffffffffffffffffffffffffffffffffffffffff82169050919050565b5f611dbb82611d92565b9050919050565b611dcb81611db1565b8114611dd5575f80fd5b50565b5f81359050611de681611dc2565b92915050565b5f819050919050565b611dfe81611dec565b8114611e08575f80fd5b50565b5f81359050611e1981611df5565b92915050565b5f805f60608486031215611e3657611e35611d8e565b5b5f611e4386828701611dd8565b9350506020611e5486828701611dd8565b9250506040611e6586828701611e0b565b9150509250925092565b5f8060408385031215611e8557611e84611d8e565b5b5f611e9285828601611dd8565b9250506020611ea385828601611e0b565b9150509250929050565b611eb681611db1565b82525050565b5f602082019050611ecf5f830184611ead565b92915050565b5f8060408385031215611eeb57611eea611d8e565b5b5f611ef885828601611dd8565b9250506020611f0985828601611dd8565b9150509250929050565b5f60208284031215611f2857611f27611d8e565b5b5f611f3584828501611dd8565b91505092915050565b611f4781611d5b565b8114611f51575f80fd5b50565b5f81359050611f6281611f3e565b92915050565b5f60208284031215611f7d57611f7c611d8e565b5b5f611f8a84828501611f54565b91505092915050565b611f9c81611dec565b82525050565b5f602082019050611fb55f830184611f93565b92915050565b5f82825260208201905092915050565b7f5661756c743a2043616c6c6572206973206e6f74207468652053706f74526f755f8201527f7465720000000000000000000000000000000000000000000000000000000000602082015250565b5f612025602383611fbb565b915061203082611fcb565b604082019050919050565b5f6020820190508181035f83015261205281612019565b9050919050565b7f5661756c743a20416374696f6e2064697361626c656420696e20656d657267655f8201527f6e6379206d6f6465000000000000000000000000000000000000000000000000602082015250565b5f6120b3602883611fbb565b91506120be82612059565b604082019050919050565b5f6020820190508181035f8301526120e0816120a7565b9050919050565b7f5661756c743a20496e73756666696369656e742062616c616e636520666f72205f8201527f6465626974000000000000000000000000000000000000000000000000000000602082015250565b5f612141602583611fbb565b915061214c826120e7565b604082019050919050565b5f6020820190508181035f83015261216e81612135565b9050919050565b7f4e487b71000000000000000000000000000000000000000000000000000000005f52601160045260245ffd5b5f6121ac82611dec565b91506121b783611dec565b92508282039050818111156121cf576121ce612175565b5b92915050565b7f4e487b71000000000000000000000000000000000000000000000000000000005f52600160045260245ffd5b7f5661756c743a2046656520616d6f756e74206d75737420626520706f736974695f8201527f7665000000000000000000000000000000000000000000000000000000000000602082015250565b5f61225c602283611fbb565b915061226782612202565b604082019050919050565b5f6020820190508181035f83015261228981612250565b9050919050565b5f61229a82611dec565b91506122a583611dec565b92508282019050808211156122bd576122bc612175565b5b92915050565b5f6040820190506122d65f830185611ead565b6122e36020830184611ead565b9392505050565b5f815190506122f881611df5565b92915050565b5f6020828403121561231357612312611d8e565b5b5f612320848285016122ea565b91505092915050565b7f5661756c743a204465706f73697420616d6f756e74206d75737420626520706f5f8201527f7369746976650000000000000000000000000000000000000000000000000000602082015250565b5f612383602683611fbb565b915061238e82612329565b604082019050919050565b5f6020820190508181035f8301526123b081612377565b9050919050565b7f5661756c743a20416374696f6e206f6e6c7920656e61626c656420696e20656d5f8201527f657267656e6379206d6f64650000000000000000000000000000000000000000602082015250565b5f612411602c83611fbb565b915061241c826123b7565b604082019050919050565b5f6020820190508181035f83015261243e81612405565b9050919050565b7f5661756c743a204e6f2062616c616e636520746f2077697468647261770000005f82015250565b5f612479601d83611fbb565b915061248482612445565b602082019050919050565b5f6020820190508181035f8301526124a68161246d565b9050919050565b7f5661756c743a2043616e6e6f742073657420726f7574657220746f207a65726f5f8201527f2061646472657373000000000000000000000000000000000000000000000000602082015250565b5f612507602883611fbb565b9150612512826124ad565b604082019050919050565b5f6020820190508181035f830152612534816124fb565b9050919050565b7f5661756c743a20576974686472617720616d6f756e74206d75737420626520705f8201527f6f73697469766500000000000000000000000000000000000000000000000000602082015250565b5f612595602783611fbb565b91506125a08261253b565b604082019050919050565b5f6020820190508181035f8301526125c281612589565b9050919050565b7f5661756c743a20496e73756666696369656e742062616c616e636500000000005f82015250565b5f6125fd601b83611fbb565b9150612608826125c9565b602082019050919050565b5f6020820190508181035f83015261262a816125f1565b9050919050565b5f6060820190506126445f830186611ead565b6126516020830185611f93565b61265e6040830184611f93565b94935050505056fea26469706673582212206641a098793437ddadad760d39cf26137dfa37154a22afedb22c3414769a88cd64736f6c63430008140033","linkReferences":{}},"methodIdentifiers":{"approveToken(address,address,uint256)":"da3e3397","balances(address,address)":"c23f001f","collectFee(address,uint256)":"2ec0ff6c","credit(address,address,uint256)":"7de182c5","debit(address,address,uint256)":"262709e6","deposit(address,uint256)":"47e7ef24","emergencyMode()":"0905f560","emergencyWithdraw(address)":"6ff1c9bc","owner()":"8da5cb5b","renounceOwnership()":"715018a6","resetTokenApproval(address,address)":"3faec084","setEmergencyMode(bool)":"be32b3f8","setRouter(address)":"c0d78655","spotRouter()":"3603e910","transferOwnership(address)":"f2fde38b","withdraw(address,uint256)":"f3fef3a3"},"id":3}