{"abi":[{"type":"constructor","inputs":[{"name":"initialOwner","type":"address","internalType":"address"},{"name":"_treasury","type":"address","internalType":"address"}],"stateMutability":"nonpayable"},{"type":"function","name":"balanceOf","inputs":[{"name":"user","type":"address","internalType":"address"},{"name":"token","type":"address","internalType":"address"}],"outputs":[{"name":"","type":"uint256","internalType":"uint256"}],"stateMutability":"view"},{"type":"function","name":"credit","inputs":[{"name":"user","type":"address","internalType":"address"},{"name":"token","type":"address","internalType":"address"},{"name":"amount","type":"uint256","internalType":"uint256"}],"outputs":[],"stateMutability":"nonpayable"},{"type":"function","name":"debit","inputs":[{"name":"user","type":"address","internalType":"address"},{"name":"token","type":"address","internalType":"address"},{"name":"amount","type":"uint256","internalType":"uint256"}],"outputs":[],"stateMutability":"nonpayable"},{"type":"function","name":"deposit","inputs":[{"name":"token","type":"address","internalType":"address"},{"name":"amount","type":"uint256","internalType":"uint256"}],"outputs":[],"stateMutability":"nonpayable"},{"type":"function","name":"owner","inputs":[],"outputs":[{"name":"","type":"address","internalType":"address"}],"stateMutability":"view"},{"type":"function","name":"pause","inputs":[],"outputs":[],"stateMutability":"nonpayable"},{"type":"function","name":"paused","inputs":[],"outputs":[{"name":"","type":"bool","internalType":"bool"}],"stateMutability":"view"},{"type":"function","name":"renounceOwnership","inputs":[],"outputs":[],"stateMutability":"nonpayable"},{"type":"function","name":"routerAllowed","inputs":[{"name":"","type":"address","internalType":"address"}],"outputs":[{"name":"","type":"bool","internalType":"bool"}],"stateMutability":"view"},{"type":"function","name":"setRouterAllowed","inputs":[{"name":"router","type":"address","internalType":"address"},{"name":"allowed","type":"bool","internalType":"bool"}],"outputs":[],"stateMutability":"nonpayable"},{"type":"function","name":"setTreasury","inputs":[{"name":"_treasury","type":"address","internalType":"address"}],"outputs":[],"stateMutability":"nonpayable"},{"type":"function","name":"transferFeeToTreasury","inputs":[{"name":"token","type":"address","internalType":"address"},{"name":"amount","type":"uint256","internalType":"uint256"}],"outputs":[],"stateMutability":"nonpayable"},{"type":"function","name":"transferOwnership","inputs":[{"name":"newOwner","type":"address","internalType":"address"}],"outputs":[],"stateMutability":"nonpayable"},{"type":"function","name":"treasury","inputs":[],"outputs":[{"name":"","type":"address","internalType":"address"}],"stateMutability":"view"},{"type":"function","name":"unpause","inputs":[],"outputs":[],"stateMutability":"nonpayable"},{"type":"function","name":"withdraw","inputs":[{"name":"token","type":"address","internalType":"address"},{"name":"amount","type":"uint256","internalType":"uint256"}],"outputs":[],"stateMutability":"nonpayable"},{"type":"event","name":"Credit","inputs":[{"name":"router","type":"address","indexed":true,"internalType":"address"},{"name":"user","type":"address","indexed":true,"internalType":"address"},{"name":"token","type":"address","indexed":true,"internalType":"address"},{"name":"amount","type":"uint256","indexed":false,"internalType":"uint256"}],"anonymous":false},{"type":"event","name":"Debit","inputs":[{"name":"router","type":"address","indexed":true,"internalType":"address"},{"name":"user","type":"address","indexed":true,"internalType":"address"},{"name":"token","type":"address","indexed":true,"internalType":"address"},{"name":"amount","type":"uint256","indexed":false,"internalType":"uint256"}],"anonymous":false},{"type":"event","name":"Deposit","inputs":[{"name":"user","type":"address","indexed":true,"internalType":"address"},{"name":"token","type":"address","indexed":true,"internalType":"address"},{"name":"amount","type":"uint256","indexed":false,"internalType":"uint256"}],"anonymous":false},{"type":"event","name":"OwnershipTransferred","inputs":[{"name":"previousOwner","type":"address","indexed":true,"internalType":"address"},{"name":"newOwner","type":"address","indexed":true,"internalType":"address"}],"anonymous":false},{"type":"event","name":"Paused","inputs":[{"name":"account","type":"address","indexed":false,"internalType":"address"}],"anonymous":false},{"type":"event","name":"RouterAllowedSet","inputs":[{"name":"router","type":"address","indexed":true,"internalType":"address"},{"name":"allowed","type":"bool","indexed":false,"internalType":"bool"}],"anonymous":false},{"type":"event","name":"TreasurySet","inputs":[{"name":"treasury","type":"address","indexed":true,"internalType":"address"}],"anonymous":false},{"type":"event","name":"Unpaused","inputs":[{"name":"account","type":"address","indexed":false,"internalType":"address"}],"anonymous":false},{"type":"event","name":"Withdraw","inputs":[{"name":"user","type":"address","indexed":true,"internalType":"address"},{"name":"token","type":"address","indexed":true,"internalType":"address"},{"name":"amount","type":"uint256","indexed":false,"internalType":"uint256"}],"anonymous":false},{"type":"error","name":"EnforcedPause","inputs":[]},{"type":"error","name":"ExpectedPause","inputs":[]},{"type":"error","name":"OwnableInvalidOwner","inputs":[{"name":"owner","type":"address","internalType":"address"}]},{"type":"error","name":"OwnableUnauthorizedAccount","inputs":[{"name":"account","type":"address","internalType":"address"}]},{"type":"error","name":"ReentrancyGuardReentrantCall","inputs":[]},{"type":"error","name":"SafeERC20FailedOperation","inputs":[{"name":"token","type":"address","internalType":"address"}]}],"bytecode":{"object":"0x608060405234801561000f575f5ffd5b50604051611e20380380611e208339818101604052810190610031919061026e565b815f73ffffffffffffffffffffffffffffffffffffffff168173ffffffffffffffffffffffffffffffffffffffff16036100a2575f6040517f1e4fbdf700000000000000000000000000000000000000000000000000000000815260040161009991906102bb565b60405180910390fd5b6100b18161011d60201b60201c565b5060016100d06100c56101de60201b60201c565b61020760201b60201c565b5f01819055508060035f6101000a81548173ffffffffffffffffffffffffffffffffffffffff021916908373ffffffffffffffffffffffffffffffffffffffff16021790555050506102d4565b5f5f5f9054906101000a900473ffffffffffffffffffffffffffffffffffffffff169050815f5f6101000a81548173ffffffffffffffffffffffffffffffffffffffff021916908373ffffffffffffffffffffffffffffffffffffffff1602179055508173ffffffffffffffffffffffffffffffffffffffff168173ffffffffffffffffffffffffffffffffffffffff167f8be0079c531659141344cd1fd0a4f28419497f9722a3daafe3b4186f6b6457e060405160405180910390a35050565b5f7f9b779b17422d0df92223018b32b4d1fa46e071723d6817e2486d003becc55f005f1b905090565b5f819050919050565b5f5ffd5b5f73ffffffffffffffffffffffffffffffffffffffff82169050919050565b5f61023d82610214565b9050919050565b61024d81610233565b8114610257575f5ffd5b50565b5f8151905061026881610244565b92915050565b5f5f6040838503121561028457610283610210565b5b5f6102918582860161025a565b92505060206102a28582860161025a565b9150509250929050565b6102b581610233565b82525050565b5f6020820190506102ce5f8301846102ac565b92915050565b611b3f806102e15f395ff3fe608060405234801561000f575f5ffd5b50600436106100fe575f3560e01c8063715018a611610095578063f0f4426011610064578063f0f4426014610236578063f2fde38b14610252578063f3fef3a31461026e578063f7888aec1461028a576100fe565b8063715018a6146101e85780637de182c5146101f25780638456cb591461020e5780638da5cb5b14610218576100fe565b80635c975abb116100d15780635c975abb1461017457806361d027b3146101925780636c07eaa1146101b05780636cc88edb146101cc576100fe565b8063262709e61461010257806338e351021461011e5780633f4ba83a1461014e57806347e7ef2414610158575b5f5ffd5b61011c600480360381019061011791906115ac565b6102ba565b005b610138600480360381019061013391906115fc565b6105e7565b6040516101459190611641565b60405180910390f35b610156610604565b005b610172600480360381019061016d919061165a565b610616565b005b61017c610794565b6040516101899190611641565b60405180910390f35b61019a6107a9565b6040516101a791906116a7565b60405180910390f35b6101ca60048036038101906101c5919061165a565b6107ce565b005b6101e660048036038101906101e191906116ea565b610936565b005b6101f06109e4565b005b61020c600480360381019061020791906115ac565b6109f7565b005b610216610c3f565b005b610220610c51565b60405161022d91906116a7565b60405180910390f35b610250600480360381019061024b91906115fc565b610c78565b005b61026c600480360381019061026791906115fc565b610d06565b005b6102886004803603810190610283919061165a565b610d8a565b005b6102a4600480360381019061029f9190611728565b610fc0565b6040516102b19190611775565b60405180910390f35b60025f3373ffffffffffffffffffffffffffffffffffffffff1673ffffffffffffffffffffffffffffffffffffffff1681526020019081526020015f205f9054906101000a900460ff16610343576040517f08c379a000000000000000000000000000000000000000000000000000000000815260040161033a906117e8565b60405180910390fd5b5f73ffffffffffffffffffffffffffffffffffffffff168373ffffffffffffffffffffffffffffffffffffffff16036103b1576040517f08c379a00000000000000000000000000000000000000000000000000000000081526004016103a890611850565b60405180910390fd5b5f81116103f3576040517f08c379a00000000000000000000000000000000000000000000000000000000081526004016103ea906118b8565b60405180910390fd5b5f60015f8573ffffffffffffffffffffffffffffffffffffffff1673ffffffffffffffffffffffffffffffffffffffff1681526020019081526020015f205f8473ffffffffffffffffffffffffffffffffffffffff1673ffffffffffffffffffffffffffffffffffffffff1681526020019081526020015f20549050818110156104b2576040517f08c379a00000000000000000000000000000000000000000000000000000000081526004016104a990611920565b60405180910390fd5b81816104be919061196b565b60015f8673ffffffffffffffffffffffffffffffffffffffff1673ffffffffffffffffffffffffffffffffffffffff1681526020019081526020015f205f8573ffffffffffffffffffffffffffffffffffffffff1673ffffffffffffffffffffffffffffffffffffffff1681526020019081526020015f208190555061056533838573ffffffffffffffffffffffffffffffffffffffff166110429092919063ffffffff16565b8273ffffffffffffffffffffffffffffffffffffffff168473ffffffffffffffffffffffffffffffffffffffff163373ffffffffffffffffffffffffffffffffffffffff167f448ae9bff4aaa5fb489d2812e8c122a36682e661254785220fbdf4198c792042856040516105d99190611775565b60405180910390a450505050565b6002602052805f5260405f205f915054906101000a900460ff1681565b61060c611095565b61061461111c565b565b61061e61117d565b61062661119f565b5f8111610668576040517f08c379a000000000000000000000000000000000000000000000000000000000815260040161065f906119e8565b60405180910390fd5b6106953330838573ffffffffffffffffffffffffffffffffffffffff166111e0909392919063ffffffff16565b8060015f3373ffffffffffffffffffffffffffffffffffffffff1673ffffffffffffffffffffffffffffffffffffffff1681526020019081526020015f205f8473ffffffffffffffffffffffffffffffffffffffff1673ffffffffffffffffffffffffffffffffffffffff1681526020019081526020015f205f82825461071c9190611a06565b925050819055508173ffffffffffffffffffffffffffffffffffffffff163373ffffffffffffffffffffffffffffffffffffffff167f5548c837ab068cf56a2c2479df0882a4922fd203edb7517321831d95078c5f62836040516107809190611775565b60405180910390a3610790611235565b5050565b5f5f60149054906101000a900460ff16905090565b60035f9054906101000a900473ffffffffffffffffffffffffffffffffffffffff1681565b60025f3373ffffffffffffffffffffffffffffffffffffffff1673ffffffffffffffffffffffffffffffffffffffff1681526020019081526020015f205f9054906101000a900460ff16610857576040517f08c379a000000000000000000000000000000000000000000000000000000000815260040161084e906117e8565b60405180910390fd5b5f73ffffffffffffffffffffffffffffffffffffffff1660035f9054906101000a900473ffffffffffffffffffffffffffffffffffffffff1673ffffffffffffffffffffffffffffffffffffffff16036108e6576040517f08c379a00000000000000000000000000000000000000000000000000000000081526004016108dd90611a83565b60405180910390fd5b61093260035f9054906101000a900473ffffffffffffffffffffffffffffffffffffffff16828473ffffffffffffffffffffffffffffffffffffffff166110429092919063ffffffff16565b5050565b61093e611095565b8060025f8473ffffffffffffffffffffffffffffffffffffffff1673ffffffffffffffffffffffffffffffffffffffff1681526020019081526020015f205f6101000a81548160ff0219169083151502179055508173ffffffffffffffffffffffffffffffffffffffff167f8a9b5b941985e11b8fd156077be089c92321ab7958eaa3f322bb89d522cc4c54826040516109d89190611641565b60405180910390a25050565b6109ec611095565b6109f55f61124f565b565b60025f3373ffffffffffffffffffffffffffffffffffffffff1673ffffffffffffffffffffffffffffffffffffffff1681526020019081526020015f205f9054906101000a900460ff16610a80576040517f08c379a0000000000000000000000000000000000000000000000000000000008152600401610a77906117e8565b60405180910390fd5b5f73ffffffffffffffffffffffffffffffffffffffff168373ffffffffffffffffffffffffffffffffffffffff1603610aee576040517f08c379a0000000000000000000000000000000000000000000000000000000008152600401610ae590611850565b60405180910390fd5b5f8111610b30576040517f08c379a0000000000000000000000000000000000000000000000000000000008152600401610b27906118b8565b60405180910390fd5b8060015f8573ffffffffffffffffffffffffffffffffffffffff1673ffffffffffffffffffffffffffffffffffffffff1681526020019081526020015f205f8473ffffffffffffffffffffffffffffffffffffffff1673ffffffffffffffffffffffffffffffffffffffff1681526020019081526020015f205f828254610bb79190611a06565b925050819055508173ffffffffffffffffffffffffffffffffffffffff168373ffffffffffffffffffffffffffffffffffffffff163373ffffffffffffffffffffffffffffffffffffffff167f560a1f1037d01c2ce644ad5c85b0a5fbae7d316d3289ade4eb803bcc5cf0cdd784604051610c329190611775565b60405180910390a4505050565b610c47611095565b610c4f611310565b565b5f5f5f9054906101000a900473ffffffffffffffffffffffffffffffffffffffff16905090565b610c80611095565b8060035f6101000a81548173ffffffffffffffffffffffffffffffffffffffff021916908373ffffffffffffffffffffffffffffffffffffffff1602179055508073ffffffffffffffffffffffffffffffffffffffff167f3c864541ef71378c6229510ed90f376565ee42d9c5e0904a984a9e863e6db44f60405160405180910390a250565b610d0e611095565b5f73ffffffffffffffffffffffffffffffffffffffff168173ffffffffffffffffffffffffffffffffffffffff1603610d7e575f6040517f1e4fbdf7000000000000000000000000000000000000000000000000000000008152600401610d7591906116a7565b60405180910390fd5b610d878161124f565b50565b610d9261117d565b610d9a61119f565b5f8111610ddc576040517f08c379a0000000000000000000000000000000000000000000000000000000008152600401610dd3906119e8565b60405180910390fd5b5f60015f3373ffffffffffffffffffffffffffffffffffffffff1673ffffffffffffffffffffffffffffffffffffffff1681526020019081526020015f205f8473ffffffffffffffffffffffffffffffffffffffff1673ffffffffffffffffffffffffffffffffffffffff1681526020019081526020015f2054905081811015610e9b576040517f08c379a0000000000000000000000000000000000000000000000000000000008152600401610e9290611aeb565b60405180910390fd5b8181610ea7919061196b565b60015f3373ffffffffffffffffffffffffffffffffffffffff1673ffffffffffffffffffffffffffffffffffffffff1681526020019081526020015f205f8573ffffffffffffffffffffffffffffffffffffffff1673ffffffffffffffffffffffffffffffffffffffff1681526020019081526020015f2081905550610f4e33838573ffffffffffffffffffffffffffffffffffffffff166110429092919063ffffffff16565b8273ffffffffffffffffffffffffffffffffffffffff163373ffffffffffffffffffffffffffffffffffffffff167f9b1bfa7fa9ee420a16e124f794c35ac9f90472acc99140eb2f6447c714cad8eb84604051610fab9190611775565b60405180910390a350610fbc611235565b5050565b5f60015f8473ffffffffffffffffffffffffffffffffffffffff1673ffffffffffffffffffffffffffffffffffffffff1681526020019081526020015f205f8373ffffffffffffffffffffffffffffffffffffffff1673ffffffffffffffffffffffffffffffffffffffff1681526020019081526020015f2054905092915050565b61104f8383836001611372565b61109057826040517f5274afe700000000000000000000000000000000000000000000000000000000815260040161108791906116a7565b60405180910390fd5b505050565b61109d6113d4565b73ffffffffffffffffffffffffffffffffffffffff166110bb610c51565b73ffffffffffffffffffffffffffffffffffffffff161461111a576110de6113d4565b6040517f118cdaa700000000000000000000000000000000000000000000000000000000815260040161111191906116a7565b60405180910390fd5b565b6111246113db565b5f5f60146101000a81548160ff0219169083151502179055507f5db9ee0a495bf2e6ff9c91a7834c1ba4fdd244a5e8aa4e537bd38aeae4b073aa6111666113d4565b60405161117391906116a7565b60405180910390a1565b61118561141b565b600261119761119261145c565b611485565b5f0181905550565b6111a7610794565b156111de576040517fd93c066500000000000000000000000000000000000000000000000000000000815260040160405180910390fd5b565b6111ee84848484600161148e565b61122f57836040517f5274afe700000000000000000000000000000000000000000000000000000000815260040161122691906116a7565b60405180910390fd5b50505050565b600161124761124261145c565b611485565b5f0181905550565b5f5f5f9054906101000a900473ffffffffffffffffffffffffffffffffffffffff169050815f5f6101000a81548173ffffffffffffffffffffffffffffffffffffffff021916908373ffffffffffffffffffffffffffffffffffffffff1602179055508173ffffffffffffffffffffffffffffffffffffffff168173ffffffffffffffffffffffffffffffffffffffff167f8be0079c531659141344cd1fd0a4f28419497f9722a3daafe3b4186f6b6457e060405160405180910390a35050565b61131861119f565b60015f60146101000a81548160ff0219169083151502179055507f62e78cea01bee320cd4e420270b5ea74000d11b0c9f74754ebdbfc544b05a25861135b6113d4565b60405161136891906116a7565b60405180910390a1565b5f5f63a9059cbb60e01b9050604051815f525f1960601c86166004528460245260205f60445f5f8b5af1925060015f511483166113c65783831516156113ba573d5f823e3d81fd5b5f873b113d1516831692505b806040525050949350505050565b5f33905090565b6113e3610794565b611419576040517f8dfc202b00000000000000000000000000000000000000000000000000000000815260040160405180910390fd5b565b6114236114ff565b1561145a576040517f3ee5aeb500000000000000000000000000000000000000000000000000000000815260040160405180910390fd5b565b5f7f9b779b17422d0df92223018b32b4d1fa46e071723d6817e2486d003becc55f005f1b905090565b5f819050919050565b5f5f6323b872dd60e01b9050604051815f525f1960601c87166004525f1960601c86166024528460445260205f60645f5f8c5af1925060015f511483166114ec5783831516156114e0573d5f823e3d81fd5b5f883b113d1516831692505b806040525f606052505095945050505050565b5f600261151261150d61145c565b611485565b5f015414905090565b5f5ffd5b5f73ffffffffffffffffffffffffffffffffffffffff82169050919050565b5f6115488261151f565b9050919050565b6115588161153e565b8114611562575f5ffd5b50565b5f813590506115738161154f565b92915050565b5f819050919050565b61158b81611579565b8114611595575f5ffd5b50565b5f813590506115a681611582565b92915050565b5f5f5f606084860312156115c3576115c261151b565b5b5f6115d086828701611565565b93505060206115e186828701611565565b92505060406115f286828701611598565b9150509250925092565b5f602082840312156116115761161061151b565b5b5f61161e84828501611565565b91505092915050565b5f8115159050919050565b61163b81611627565b82525050565b5f6020820190506116545f830184611632565b92915050565b5f5f604083850312156116705761166f61151b565b5b5f61167d85828601611565565b925050602061168e85828601611598565b9150509250929050565b6116a18161153e565b82525050565b5f6020820190506116ba5f830184611698565b92915050565b6116c981611627565b81146116d3575f5ffd5b50565b5f813590506116e4816116c0565b92915050565b5f5f60408385031215611700576116ff61151b565b5b5f61170d85828601611565565b925050602061171e858286016116d6565b9150509250929050565b5f5f6040838503121561173e5761173d61151b565b5b5f61174b85828601611565565b925050602061175c85828601611565565b9150509250929050565b61176f81611579565b82525050565b5f6020820190506117885f830184611766565b92915050565b5f82825260208201905092915050565b7f5661756c743a206e6f7420726f757465720000000000000000000000000000005f82015250565b5f6117d260118361178e565b91506117dd8261179e565b602082019050919050565b5f6020820190508181035f8301526117ff816117c6565b9050919050565b7f5661756c743a207a65726f2075736572000000000000000000000000000000005f82015250565b5f61183a60108361178e565b915061184582611806565b602082019050919050565b5f6020820190508181035f8301526118678161182e565b9050919050565b7f5661756c743a207a65726f20616d6f756e7400000000000000000000000000005f82015250565b5f6118a260128361178e565b91506118ad8261186e565b602082019050919050565b5f6020820190508181035f8301526118cf81611896565b9050919050565b7f5661756c743a20696e7375662062616c616e63650000000000000000000000005f82015250565b5f61190a60148361178e565b9150611915826118d6565b602082019050919050565b5f6020820190508181035f830152611937816118fe565b9050919050565b7f4e487b71000000000000000000000000000000000000000000000000000000005f52601160045260245ffd5b5f61197582611579565b915061198083611579565b92508282039050818111156119985761199761193e565b5b92915050565b7f5661756c743a207a65726f0000000000000000000000000000000000000000005f82015250565b5f6119d2600b8361178e565b91506119dd8261199e565b602082019050919050565b5f6020820190508181035f8301526119ff816119c6565b9050919050565b5f611a1082611579565b9150611a1b83611579565b9250828201905080821115611a3357611a3261193e565b5b92915050565b7f5661756c743a206e6f20747265617375727900000000000000000000000000005f82015250565b5f611a6d60128361178e565b9150611a7882611a39565b602082019050919050565b5f6020820190508181035f830152611a9a81611a61565b9050919050565b7f5661756c743a20696e73756666696369656e74000000000000000000000000005f82015250565b5f611ad560138361178e565b9150611ae082611aa1565b602082019050919050565b5f6020820190508181035f830152611b0281611ac9565b905091905056fea2646970667358221220796ccc44aec7c5702014c9e4b05c667fc9a6d617a57c00cbee2387eb3b590e0d64736f6c634300081e0033","linkReferences":{}},"methodIdentifiers":{"balanceOf(address,address)":"f7888aec","credit(address,address,uint256)":"7de182c5","debit(address,address,uint256)":"262709e6","deposit(address,uint256)":"47e7ef24","owner()":"8da5cb5b","pause()":"8456cb59","paused()":"5c975abb","renounceOwnership()":"715018a6","routerAllowed(address)":"38e35102","setRouterAllowed(address,bool)":"6cc88edb","setTreasury(address)":"f0f44260","transferFeeToTreasury(address,uint256)":"6c07eaa1","transferOwnership(address)":"f2fde38b","treasury()":"61d027b3","unpause()":"3f4ba83a","withdraw(address,uint256)":"f3fef3a3"},"id":3}