{"abi":[{"type":"constructor","inputs":[],"stateMutability":"nonpayable"},{"type":"function","name":"BPS_DENOMINATOR","inputs":[],"outputs":[{"name":"","type":"uint256","internalType":"uint256"}],"stateMutability":"view"},{"type":"function","name":"WITHDRAW_FEE_BPS","inputs":[],"outputs":[{"name":"","type":"uint256","internalType":"uint256"}],"stateMutability":"view"},{"type":"function","name":"approveToken","inputs":[{"name":"token","type":"address","internalType":"address"},{"name":"spender","type":"address","internalType":"address"},{"name":"amount","type":"uint256","internalType":"uint256"}],"outputs":[],"stateMutability":"nonpayable"},{"type":"function","name":"balances","inputs":[{"name":"","type":"address","internalType":"address"},{"name":"","type":"address","internalType":"address"}],"outputs":[{"name":"","type":"uint256","internalType":"uint256"}],"stateMutability":"view"},{"type":"function","name":"collectFee","inputs":[{"name":"token","type":"address","internalType":"address"},{"name":"amount","type":"uint256","internalType":"uint256"}],"outputs":[],"stateMutability":"nonpayable"},{"type":"function","name":"credit","inputs":[{"name":"user","type":"address","internalType":"address"},{"name":"token","type":"address","internalType":"address"},{"name":"amount","type":"uint256","internalType":"uint256"}],"outputs":[],"stateMutability":"nonpayable"},{"type":"function","name":"debit","inputs":[{"name":"user","type":"address","internalType":"address"},{"name":"token","type":"address","internalType":"address"},{"name":"amount","type":"uint256","internalType":"uint256"}],"outputs":[],"stateMutability":"nonpayable"},{"type":"function","name":"deposit","inputs":[{"name":"token","type":"address","internalType":"address"},{"name":"amount","type":"uint256","internalType":"uint256"}],"outputs":[],"stateMutability":"nonpayable"},{"type":"function","name":"depositETH","inputs":[],"outputs":[],"stateMutability":"payable"},{"type":"function","name":"emergencyMode","inputs":[],"outputs":[{"name":"","type":"bool","internalType":"bool"}],"stateMutability":"view"},{"type":"function","name":"emergencyWithdraw","inputs":[{"name":"token","type":"address","internalType":"address"}],"outputs":[],"stateMutability":"nonpayable"},{"type":"function","name":"internalTransfer","inputs":[{"name":"recipient","type":"address","internalType":"address"},{"name":"token","type":"address","internalType":"address"},{"name":"amount","type":"uint256","internalType":"uint256"}],"outputs":[],"stateMutability":"nonpayable"},{"type":"function","name":"owner","inputs":[],"outputs":[{"name":"","type":"address","internalType":"address"}],"stateMutability":"view"},{"type":"function","name":"renounceOwnership","inputs":[],"outputs":[],"stateMutability":"nonpayable"},{"type":"function","name":"resetTokenApproval","inputs":[{"name":"token","type":"address","internalType":"address"},{"name":"spender","type":"address","internalType":"address"}],"outputs":[],"stateMutability":"nonpayable"},{"type":"function","name":"setEmergencyMode","inputs":[{"name":"_isEmergency","type":"bool","internalType":"bool"}],"outputs":[],"stateMutability":"nonpayable"},{"type":"function","name":"setRouter","inputs":[{"name":"_router","type":"address","internalType":"address"}],"outputs":[],"stateMutability":"nonpayable"},{"type":"function","name":"setWETH","inputs":[{"name":"_weth","type":"address","internalType":"address"}],"outputs":[],"stateMutability":"nonpayable"},{"type":"function","name":"spotRouter","inputs":[],"outputs":[{"name":"","type":"address","internalType":"address"}],"stateMutability":"view"},{"type":"function","name":"transferOwnership","inputs":[{"name":"newOwner","type":"address","internalType":"address"}],"outputs":[],"stateMutability":"nonpayable"},{"type":"function","name":"weth","inputs":[],"outputs":[{"name":"","type":"address","internalType":"contract IWETH"}],"stateMutability":"view"},{"type":"function","name":"withdraw","inputs":[{"name":"token","type":"address","internalType":"address"},{"name":"amount","type":"uint256","internalType":"uint256"}],"outputs":[],"stateMutability":"nonpayable"},{"type":"function","name":"withdrawETH","inputs":[{"name":"amount","type":"uint256","internalType":"uint256"}],"outputs":[],"stateMutability":"nonpayable"},{"type":"event","name":"Credit","inputs":[{"name":"user","type":"address","indexed":true,"internalType":"address"},{"name":"token","type":"address","indexed":true,"internalType":"address"},{"name":"amount","type":"uint256","indexed":false,"internalType":"uint256"}],"anonymous":false},{"type":"event","name":"Debit","inputs":[{"name":"user","type":"address","indexed":true,"internalType":"address"},{"name":"token","type":"address","indexed":true,"internalType":"address"},{"name":"amount","type":"uint256","indexed":false,"internalType":"uint256"}],"anonymous":false},{"type":"event","name":"Deposit","inputs":[{"name":"user","type":"address","indexed":true,"internalType":"address"},{"name":"token","type":"address","indexed":true,"internalType":"address"},{"name":"amount","type":"uint256","indexed":false,"internalType":"uint256"}],"anonymous":false},{"type":"event","name":"EmergencyModeChanged","inputs":[{"name":"isEmergency","type":"bool","indexed":false,"internalType":"bool"}],"anonymous":false},{"type":"event","name":"EmergencyWithdraw","inputs":[{"name":"user","type":"address","indexed":true,"internalType":"address"},{"name":"token","type":"address","indexed":true,"internalType":"address"},{"name":"amount","type":"uint256","indexed":false,"internalType":"uint256"},{"name":"fee","type":"uint256","indexed":false,"internalType":"uint256"}],"anonymous":false},{"type":"event","name":"FeeCollected","inputs":[{"name":"token","type":"address","indexed":true,"internalType":"address"},{"name":"amount","type":"uint256","indexed":false,"internalType":"uint256"}],"anonymous":false},{"type":"event","name":"InternalTransfer","inputs":[{"name":"from","type":"address","indexed":true,"internalType":"address"},{"name":"to","type":"address","indexed":true,"internalType":"address"},{"name":"token","type":"address","indexed":true,"internalType":"address"},{"name":"amount","type":"uint256","indexed":false,"internalType":"uint256"}],"anonymous":false},{"type":"event","name":"OwnershipTransferred","inputs":[{"name":"previousOwner","type":"address","indexed":true,"internalType":"address"},{"name":"newOwner","type":"address","indexed":true,"internalType":"address"}],"anonymous":false},{"type":"event","name":"RouterChanged","inputs":[{"name":"newRouter","type":"address","indexed":true,"internalType":"address"}],"anonymous":false},{"type":"event","name":"WethSet","inputs":[{"name":"weth","type":"address","indexed":true,"internalType":"address"}],"anonymous":false},{"type":"event","name":"Withdraw","inputs":[{"name":"user","type":"address","indexed":true,"internalType":"address"},{"name":"token","type":"address","indexed":true,"internalType":"address"},{"name":"amount","type":"uint256","indexed":false,"internalType":"uint256"},{"name":"fee","type":"uint256","indexed":false,"internalType":"uint256"}],"anonymous":false},{"type":"error","name":"OwnableInvalidOwner","inputs":[{"name":"owner","type":"address","internalType":"address"}]},{"type":"error","name":"OwnableUnauthorizedAccount","inputs":[{"name":"account","type":"address","internalType":"address"}]},{"type":"error","name":"ReentrancyGuardReentrantCall","inputs":[]},{"type":"error","name":"SafeERC20FailedDecreaseAllowance","inputs":[{"name":"spender","type":"address","internalType":"address"},{"name":"currentAllowance","type":"uint256","internalType":"uint256"},{"name":"requestedDecrease","type":"uint256","internalType":"uint256"}]},{"type":"error","name":"SafeERC20FailedOperation","inputs":[{"name":"token","type":"address","internalType":"address"}]}],"bytecode":{"object":"0x60806040523461002757610011610036565b61001961002c565b613758610321823961375890f35b610032565b60405190565b5f80fd5b61003f336100cd565b565b90565b90565b90565b61005e61005961006392610041565b610047565b610044565b90565b610070600161004a565b90565b5f1b90565b906100845f1991610073565b9181191691161790565b6100a261009d6100a792610044565b610047565b610044565b90565b90565b906100c26100bd6100c99261008e565b6100aa565b8254610078565b9055565b6100d69061015e565b6100f86100e1610066565b5f6100f26100ed610202565b610216565b016100ad565b565b90565b60018060a01b031690565b61011c610117610121926100fa565b610047565b6100fd565b90565b61012d90610108565b90565b610139906100fd565b90565b61014590610130565b9052565b919061015c905f6020850194019061013c565b565b8061017961017361016e5f610124565b610130565b91610130565b1461018957610187906102c1565b565b6101ac6101955f610124565b5f918291631e4fbdf760e01b835260048301610149565b0390fd5b5f90565b90565b90565b6101ce6101c96101d3926101b4565b610073565b6101b7565b90565b6101ff7f9b779b17422d0df92223018b32b4d1fa46e071723d6817e2486d003becc55f006101ba565b90565b61020a6101b0565b506102136101d6565b90565b90565b5f1c90565b60018060a01b031690565b61023561023a91610219565b61021e565b90565b6102479054610229565b90565b9061025b60018060a01b0391610073565b9181191691161790565b61027961027461027e926100fd565b610047565b6100fd565b90565b61028a90610265565b90565b61029690610281565b90565b90565b906102b16102ac6102b89261028d565b610299565b825461024a565b9055565b5f0190565b6102ca5f61023d565b6102d4825f61029c565b906103086103027f8be0079c531659141344cd1fd0a4f28419497f9722a3daafe3b4186f6b6457e09361028d565b9161028d565b9161031161002c565b8061031b816102bc565b0390a356fe60806040526004361015610013575b610a3c565b61001d5f3561018c565b80630905f56014610187578063262709e6146101825780632ec0ff6c1461017d5780633603e910146101785780633faec084146101735780633fc8cef31461016e5780634082fa9b1461016957806347e7ef241461016457806359e026f71461015f5780635b769f3c1461015a5780636ff1c9bc14610155578063715018a6146101505780637de182c51461014b5780638da5cb5b14610146578063be32b3f814610141578063c0d786551461013c578063c23f001f14610137578063da3e339714610132578063e1a452181461012d578063f14210a614610128578063f2fde38b14610123578063f3fef3a31461011e5763f6326fb30361000e57610a13565b6109df565b6109ac565b610979565b610926565b6108ba565b610884565b6107cf565b61079c565b610726565b6106f2565b6106bf565b61068c565b610659565b610607565b6105d3565b61059e565b610510565b610443565b6103e1565b61034b565b6102ea565b610216565b60e01c90565b60405190565b5f80fd5b5f80fd5b5f9103126101aa57565b61019c565b1c90565b60ff1690565b6101c99060086101ce93026101af565b6101b3565b90565b906101dc91546101b9565b90565b6101ec60016014906101d1565b90565b151590565b6101fd906101ef565b9052565b9190610214905f602085019401906101f4565b565b34610246576102263660046101a0565b6102426102316101df565b610239610192565b91829182610201565b0390f35b610198565b60018060a01b031690565b61025f9061024b565b90565b61026b81610256565b0361027257565b5f80fd5b9050359061028382610262565b565b90565b61029181610285565b0361029857565b5f80fd5b905035906102a982610288565b565b90916060828403126102e0576102dd6102c6845f8501610276565b936102d48160208601610276565b9360400161029c565b90565b61019c565b5f0190565b34610319576103036102fd3660046102ab565b91610edc565b61030b610192565b80610315816102e5565b0390f35b610198565b9190604083820312610346578061033a610343925f8601610276565b9360200161029c565b90565b61019c565b3461037a5761036461035e36600461031e565b9061109f565b61036c610192565b80610376816102e5565b0390f35b610198565b60018060a01b031690565b61039a90600861039f93026101af565b61037f565b90565b906103ad915461038a565b90565b6103bc60015f906103a2565b90565b6103c890610256565b9052565b91906103df905f602085019401906103bf565b565b34610411576103f13660046101a0565b61040d6103fc6103b0565b610404610192565b918291826103cc565b0390f35b610198565b919060408382031261043e578061043261043b925f8601610276565b93602001610276565b90565b61019c565b346104725761045c610456366004610416565b90611288565b610464610192565b8061046e816102e5565b0390f35b610198565b60018060a01b031690565b61049290600861049793026101af565b610477565b90565b906104a59154610482565b90565b6104b460025f9061049a565b90565b90565b6104ce6104c96104d39261024b565b6104b7565b61024b565b90565b6104df906104ba565b90565b6104eb906104d6565b90565b6104f7906104e2565b9052565b919061050e905f602085019401906104ee565b565b34610540576105203660046101a0565b61053c61052b6104a8565b610533610192565b918291826104fb565b0390f35b610198565b90565b61055c61055761056192610545565b6104b7565b610285565b90565b61056e600a610548565b90565b610579610564565b90565b61058590610285565b9052565b919061059c905f6020850194019061057c565b565b346105ce576105ae3660046101a0565b6105ca6105b9610571565b6105c1610192565b91829182610589565b0390f35b610198565b34610602576105ec6105e636600461031e565b90611595565b6105f4610192565b806105fe816102e5565b0390f35b610198565b346106365761062061061a3660046102ab565b916119bb565b610628610192565b80610632816102e5565b0390f35b610198565b9060208282031261065457610651915f01610276565b90565b61019c565b346106875761067161066c36600461063b565b611b5f565b610679610192565b80610683816102e5565b0390f35b610198565b346106ba576106a461069f36600461063b565b612138565b6106ac610192565b806106b6816102e5565b0390f35b610198565b346106ed576106cf3660046101a0565b6106d7612168565b6106df610192565b806106e9816102e5565b0390f35b610198565b346107215761070b6107053660046102ab565b916122cf565b610713610192565b8061071d816102e5565b0390f35b610198565b34610756576107363660046101a0565b6107526107416122e0565b610749610192565b918291826103cc565b0390f35b610198565b610764816101ef565b0361076b57565b5f80fd5b9050359061077c8261075b565b565b9060208282031261079757610794915f0161076f565b90565b61019c565b346107ca576107b46107af36600461077e565b61239c565b6107bc610192565b806107c6816102e5565b0390f35b610198565b346107fd576107e76107e236600461063b565b6124f7565b6107ef610192565b806107f9816102e5565b0390f35b610198565b61080b906104d6565b90565b9061081890610802565b5f5260205260405f2090565b9061082e90610802565b5f5260205260405f2090565b90565b61084d90600861085293026101af565b61083a565b90565b90610860915461083d565b90565b61087c610881926108776003935f9461080e565b610824565b610855565b90565b346108b5576108b16108a061089a366004610416565b90610863565b6108a8610192565b91829182610589565b0390f35b610198565b346108e9576108d36108cd3660046102ab565b9161254b565b6108db610192565b806108e5816102e5565b0390f35b610198565b90565b61090561090061090a926108ee565b6104b7565b610285565b90565b6109186127106108f1565b90565b61092361090d565b90565b34610956576109363660046101a0565b61095261094161091b565b610949610192565b91829182610589565b0390f35b610198565b9060208282031261097457610971915f0161029c565b90565b61019c565b346109a75761099161098c36600461095b565b612a98565b610999610192565b806109a3816102e5565b0390f35b610198565b346109da576109c46109bf36600461063b565b612b08565b6109cc610192565b806109d6816102e5565b0390f35b610198565b34610a0e576109f86109f236600461031e565b90612d88565b610a00610192565b80610a0a816102e5565b0390f35b610198565b610a1e3660046101a0565b610a26612fde565b610a2e610192565b80610a38816102e5565b0390f35b5f80fd5b5f1c90565b610a51610a5691610a40565b61037f565b90565b610a639054610a45565b90565b60209181520190565b60207f7465720000000000000000000000000000000000000000000000000000000000917f5661756c743a2043616c6c6572206973206e6f74207468652053706f74526f755f8201520152565b610ac96023604092610a66565b610ad281610a6f565b0190565b610aeb9060208101905f818303910152610abc565b90565b15610af557565b610afd610192565b62461bcd60e51b815280610b1360048201610ad6565b0390fd5b90610b479291610b4233610b3c610b36610b316001610a59565b610256565b91610256565b14610aee565b610b49565b565b90610b5c9291610b57613014565b610c35565b610b6461306c565b565b60a01c90565b610b78610b7d91610b66565b6101b3565b90565b610b8a9054610b6c565b90565b60207f6e6379206d6f6465000000000000000000000000000000000000000000000000917f5661756c743a20416374696f6e2064697361626c656420696e20656d657267655f8201520152565b610be76028604092610a66565b610bf081610b8d565b0190565b610c099060208101905f818303910152610bda565b90565b15610c1357565b610c1b610192565b62461bcd60e51b815280610c3160048201610bf4565b0390fd5b90610c5b9291610c56610c51610c4b6001610b80565b156101ef565b610c0c565b610dd9565b565b610c69610c6e91610a40565b61083a565b90565b610c7b9054610c5d565b90565b60207f6465626974000000000000000000000000000000000000000000000000000000917f5661756c743a20496e73756666696369656e742062616c616e636520666f72205f8201520152565b610cd86025604092610a66565b610ce181610c7e565b0190565b610cfa9060208101905f818303910152610ccb565b90565b15610d0457565b610d0c610192565b62461bcd60e51b815280610d2260048201610ce5565b0390fd5b634e487b7160e01b5f52601160045260245ffd5b610d49610d4f91939293610285565b92610285565b8203918211610d5a57565b610d26565b5f1b90565b90610d705f1991610d5f565b9181191691161790565b610d8e610d89610d9392610285565b6104b7565b610285565b90565b90565b90610dae610da9610db592610d7a565b610d96565b8254610d64565b9055565b634e487b7160e01b5f52600160045260245ffd5b15610dd457565b610db9565b919091610e8c610dfd610df8610df16003859061080e565b8690610824565b610c71565b610e1a81610e13610e0d87610285565b91610285565b1015610cfd565b610e4c84610e46610e37610e306003889061080e565b8990610824565b91610e4183610c71565b610d3a565b90610d99565b610e86610e80610e7b610e73610e6e610e676003899061080e565b8a90610824565b610c71565b938790610d3a565b610285565b91610285565b14610dcd565b919091610ed7610ec5610ebf7fdc95cccefa07472883633e3b800a6f123825f8f8f5d4029e93b1306e8c5fa83993610802565b93610802565b93610ece610192565b91829182610589565b0390a3565b90610ee79291610b17565b565b90610f1891610f1333610f0d610f07610f026001610a59565b610256565b91610256565b14610aee565b611006565b565b90565b610f31610f2c610f3692610f1a565b6104b7565b610285565b90565b60207f7665000000000000000000000000000000000000000000000000000000000000917f5661756c743a2046656520616d6f756e74206d75737420626520706f736974695f8201520152565b610f936022604092610a66565b610f9c81610f39565b0190565b610fb59060208101905f818303910152610f86565b90565b15610fbf57565b610fc7610192565b62461bcd60e51b815280610fdd60048201610fa0565b0390fd5b610ff0610ff691939293610285565b92610285565b820180921161100157565b610d26565b6110228261101c6110165f610f1d565b91610285565b11610fb8565b61105b8261105561104661103f60036110396122e0565b9061080e565b8590610824565b9161105083610c71565b610fe1565b90610d99565b61109a6110887f06c5efeff5c320943d265dc4e5f1af95ad523555ce0c1957e367dda5514572df92610802565b92611091610192565b91829182610589565b0390a2565b906110a991610ee9565b565b906110da916110d5336110cf6110c96110c46001610a59565b610256565b91610256565b14610aee565b6111bd565b565b6110e5906104ba565b90565b6110f1906110dc565b90565b6110fd906104d6565b90565b611109906104d6565b90565b5f80fd5b601f801991011690565b634e487b7160e01b5f52604160045260245ffd5b9061113890611110565b810190811067ffffffffffffffff82111761115257604052565b61111a565b60e01b90565b9050519061116a82610288565b565b9060208282031261118557611182915f0161115d565b90565b61019c565b9160206111ab9294936111a460408201965f8301906103bf565b01906103bf565b565b6111b5610192565b3d5f823e3d90fd5b906111cf6111ca836110e8565b6110f4565b602063dd62ed3e916111e030611100565b906111fd85946112086111f1610192565b96879586948594611157565b84526004840161118a565b03915afa908115611283575f91611255575b508061122e6112285f610f1d565b91610285565b11611239575b505050565b61124561124d936110e8565b9190916130dc565b5f8080611234565b611276915060203d811161127c575b61126e818361112e565b81019061116c565b5f61121a565b503d611264565b6111ad565b90611292916110ab565b565b906112a6916112a1613014565b6112b0565b6112ae61306c565b565b906112d5916112d06112cb6112c56001610b80565b156101ef565b610c0c565b611448565b565b60207f7369746976650000000000000000000000000000000000000000000000000000917f5661756c743a204465706f73697420616d6f756e74206d75737420626520706f5f8201520152565b6113316026604092610a66565b61133a816112d7565b0190565b6113539060208101905f818303910152611324565b90565b1561135d57565b611365610192565b62461bcd60e51b81528061137b6004820161133e565b0390fd5b61138b61139091610a40565b610477565b90565b61139d905461137f565b90565b60207f2045544800000000000000000000000000000000000000000000000000000000917f5661756c743a20557365206465706f73697445544820666f72206e61746976655f8201520152565b6113fa6024604092610a66565b611403816113a0565b0190565b61141c9060208101905f8183039101526113ed565b90565b1561142657565b61142e610192565b62461bcd60e51b81528061144460048201611407565b0390fd5b906114658161145f6114595f610f1d565b91610285565b11611356565b6114938261148c61148661148161147c6002611393565b6104e2565b610256565b91610256565b141561141f565b6115446114b46114af6114a86003339061080e565b8590610824565b610c71565b6114d26114c0856110e8565b336114ca30611100565b9086926131bb565b611504836114fe6114ef6114e86003339061080e565b8890610824565b916114f983610c71565b610fe1565b90610d99565b61153e61153861153361152b61152661151f6003339061080e565b8990610824565b610c71565b938690610fe1565b610285565b91610285565b14610dcd565b3391909161159061157e6115787f5548c837ab068cf56a2c2479df0882a4922fd203edb7517321831d95078c5f6293610802565b93610802565b93611587610192565b91829182610589565b0390a3565b9061159f91611294565b565b906115b492916115af613014565b6115be565b6115bc61306c565b565b906115e492916115df6115da6115d46001610b80565b156101ef565b610c0c565b611862565b565b60207f6f73697469766500000000000000000000000000000000000000000000000000917f5661756c743a205472616e7366657220616d6f756e74206d75737420626520705f8201520152565b6116406027604092610a66565b611649816115e6565b0190565b6116629060208101905f818303910152611633565b90565b1561166c57565b611674610192565b62461bcd60e51b81528061168a6004820161164d565b0390fd5b6116a261169d6116a792610f1a565b6104b7565b61024b565b90565b6116b39061168e565b90565b5f7f5661756c743a20496e76616c696420726563697069656e740000000000000000910152565b6116ea6018602092610a66565b6116f3816116b6565b0190565b61170c9060208101905f8183039101526116dd565b90565b1561171657565b61171e610192565b62461bcd60e51b815280611734600482016116f7565b0390fd5b60207f7200000000000000000000000000000000000000000000000000000000000000917f5661756c743a20526563697069656e742063616e6e6f742062652073656e64655f8201520152565b6117926021604092610a66565b61179b81611738565b0190565b6117b49060208101905f818303910152611785565b90565b156117be57565b6117c6610192565b62461bcd60e51b8152806117dc6004820161179f565b0390fd5b5f7f5661756c743a20496e73756666696369656e742062616c616e63650000000000910152565b611814601b602092610a66565b61181d816117e0565b0190565b6118369060208101905f818303910152611807565b90565b1561184057565b611848610192565b62461bcd60e51b81528061185e60048201611821565b0390fd5b91906118808261187a6118745f610f1d565b91610285565b11611665565b6118a58361189e6118986118935f6116aa565b610256565b91610256565b141561170f565b6118c2836118bb6118b533610256565b91610256565b14156117b7565b6118fc6118e36118de6118d76003339061080e565b8490610824565b610c71565b6118f56118ef85610285565b91610285565b1015611839565b61192e826119286119196119126003339061080e565b8590610824565b9161192383610c71565b610d3a565b90610d99565b6119608261195a61194b6119446003889061080e565b8590610824565b9161195583610c71565b610fe1565b90610d99565b33929091926119b66119a461199e6119987f77178bcf8f3c991d39734824771477a42787fe19b60d5a29c0ec72de167699b394610802565b94610802565b94610802565b946119ad610192565b91829182610589565b0390a4565b906119c692916115a1565b565b6119d9906119d4613206565b611ae5565b565b60207f6464726573730000000000000000000000000000000000000000000000000000917f5661756c743a2043616e6e6f7420736574205745544820746f207a65726f20615f8201520152565b611a356026604092610a66565b611a3e816119db565b0190565b611a579060208101905f818303910152611a28565b90565b15611a6157565b611a69610192565b62461bcd60e51b815280611a7f60048201611a42565b0390fd5b611a8c906104ba565b90565b611a9890611a83565b90565b90611aac60018060a01b0391610d5f565b9181191691161790565b611abf90611a83565b90565b90565b90611ada611ad5611ae192611ab6565b611ac2565b8254611a9b565b9055565b611b0a81611b03611afd611af85f6116aa565b610256565b91610256565b1415611a5a565b611b1d611b1682611a8f565b6002611ac5565b611b477f13a533084dcbb1cfe0dbea708ea977223c27c44d94f2fa3867a167c9cd340bf991610802565b90611b50610192565b80611b5a816102e5565b0390a2565b611b68906119c8565b565b611b7b90611b76613014565b611c2d565b611b8361306c565b565b60207f657267656e6379206d6f64650000000000000000000000000000000000000000917f5661756c743a20416374696f6e206f6e6c7920656e61626c656420696e20656d5f8201520152565b611bdf602c604092610a66565b611be881611b85565b0190565b611c019060208101905f818303910152611bd2565b90565b15611c0b57565b611c13610192565b62461bcd60e51b815280611c2960048201611bec565b0390fd5b611c4890611c43611c3e6001610b80565b611c04565b611ec3565b565b5f7f5661756c743a204e6f2062616c616e636520746f207769746864726177000000910152565b611c7e601d602092610a66565b611c8781611c4a565b0190565b611ca09060208101905f818303910152611c71565b90565b15611caa57565b611cb2610192565b62461bcd60e51b815280611cc860048201611c8b565b0390fd5b5f910312611cd657565b61019c565b611ce4906104ba565b90565b611cf090611cdb565b90565b611cfc906104d6565b90565b905090565b611d0f5f8092611cff565b0190565b611d1c90611d04565b90565b90611d32611d2b610192565b928361112e565b565b67ffffffffffffffff8111611d5257611d4e602091611110565b0190565b61111a565b90611d69611d6483611d34565b611d1f565b918252565b606090565b3d5f14611d8e57611d833d611d57565b903d5f602084013e5b565b611d96611d6e565b90611d8c565b5f7f5661756c743a20666565207472616e73666572206661696c6564000000000000910152565b611dd0601a602092610a66565b611dd981611d9c565b0190565b611df29060208101905f818303910152611dc3565b90565b15611dfc57565b611e04610192565b62461bcd60e51b815280611e1a60048201611ddd565b0390fd5b5f7f5661756c743a20455448207472616e73666572206661696c6564000000000000910152565b611e52601a602092610a66565b611e5b81611e1e565b0190565b611e749060208101905f818303910152611e45565b90565b15611e7e57565b611e86610192565b62461bcd60e51b815280611e9c60048201611e5f565b0390fd5b916020611ec1929493611eba60408201965f83019061057c565b019061057c565b565b611ee1611edc611ed56003339061080e565b8390610824565b610c71565b611efd81611ef7611ef15f610f1d565b91610285565b11611ca3565b611f06816132c3565b91611f12828490610d3a565b611f39611f1e5f610f1d565b611f34611f2d6003339061080e565b8590610824565b610d99565b81611f5d611f57611f52611f4d6002611393565b6104e2565b610256565b91610256565b145f146120e457611f76611f716002611393565b6104e2565b632e1a7d4d84823b156120df57611fac92611fa15f8094611f95610192565b96879586948593611157565b835260048301610589565b03925af180156120da57612014925f9283926120ae575b5086611fd7611fd184610f1d565b91610285565b11612066575b611fee611fe933611ce7565b611cf3565b90611ff7610192565b908161200281611d13565b03925af161200e611d73565b50611e77565b5b3390919261204c6120467f1401b6ff3b281e84fd77353369caed48ba7e787dd3821db05cc006437360820193610802565b93610802565b93612061612058610192565b92839283611ea0565b0390a3565b6120a9828061208361207e6120796122e0565b611ce7565b611cf3565b8a61208c610192565b908161209781611d13565b03925af16120a3611d73565b50611df5565b611fdd565b6120cd90833d81116120d3575b6120c5818361112e565b810190611ccc565b5f611fc3565b503d6120bb565b6111ad565b61110c565b61211390846120fb6120f55f610f1d565b91610285565b11612118575b61210a836110e8565b903390916132f2565b612015565b612133612124846110e8565b61212c6122e0565b87916132f2565b612101565b61214190611b6a565b565b61214b613206565b612153612155565b565b6121666121615f6116aa565b613339565b565b612170612143565b565b906121a2929161219d3361219761219161218c6001610a59565b610256565b91610256565b14610aee565b6121a4565b565b906121b792916121b2613014565b6121c1565b6121bf61306c565b565b906121e792916121e26121dd6121d76001610b80565b156101ef565b610c0c565b6121e9565b565b91909161227f61220d6122086122016003859061080e565b8690610824565b610c71565b61223f8461223961222a6122236003889061080e565b8990610824565b9161223483610c71565b610fe1565b90610d99565b61227961227361226e61226661226161225a6003899061080e565b8a90610824565b610c71565b938790610fe1565b610285565b91610285565b14610dcd565b9190916122ca6122b86122b27f14ab110831c9d210715b0adedbc67b2f0b80c10ad2853488332d1e4fbd85f81d93610802565b93610802565b936122c1610192565b91829182610589565b0390a3565b906122da9291612172565b565b5f90565b6122e86122dc565b506122f25f610a59565b90565b61230690612301613206565b612356565b565b60a01b90565b9061231d60ff60a01b91612308565b9181191691161790565b612330906101ef565b90565b90565b9061234b61234661235292612327565b612333565b825461230e565b9055565b612361816001612336565b6123977f2809db8224f8e2a04e05130d24142b86b9e35ab1830bf5e353d1ef2ae4bf03379161238e610192565b91829182610201565b0390a1565b6123a5906122f5565b565b6123b8906123b3613206565b612485565b565b60207f2061646472657373000000000000000000000000000000000000000000000000917f5661756c743a2043616e6e6f742073657420726f7574657220746f207a65726f5f8201520152565b6124146028604092610a66565b61241d816123ba565b0190565b6124369060208101905f818303910152612407565b90565b1561244057565b612448610192565b62461bcd60e51b81528061245e60048201612421565b0390fd5b90565b9061247a61247561248192610802565b612462565b8254611a9b565b9055565b6124aa816124a361249d6124985f6116aa565b610256565b91610256565b1415612439565b6124b5816001612465565b6124df7f1085cec9a5108943412475d298086ae4d0abf09cfad47b05436b89fe887a820c91610802565b906124e8610192565b806124f2816102e5565b0390a2565b612500906123a7565b565b90612532929161252d3361252761252161251c6001610a59565b610256565b91610256565b14610aee565b612534565b565b91612541612549936110e8565b919091613398565b565b906125569291612502565b565b61256990612564613014565b612573565b61257161306c565b565b6125979061259261258d6125876001610b80565b156101ef565b610c0c565b6127a1565b565b5f7f5661756c743a20616d6f756e74206d75737420626520706f7369746976650000910152565b6125cd601e602092610a66565b6125d681612599565b0190565b6125ef9060208101905f8183039101526125c0565b90565b156125f957565b612601610192565b62461bcd60e51b815280612617600482016125da565b0390fd5b5f7f5661756c743a20574554482061646472657373206e6f74207365740000000000910152565b61264f601b602092610a66565b6126588161261b565b0190565b6126719060208101905f818303910152612642565b90565b1561267b57565b612683610192565b62461bcd60e51b8152806126996004820161265c565b0390fd5b5f7f5661756c743a20696e73756666696369656e742062616c616e63650000000000910152565b6126d1601b602092610a66565b6126da8161269d565b0190565b6126f39060208101905f8183039101526126c4565b90565b156126fd57565b612705610192565b62461bcd60e51b81528061271b600482016126de565b0390fd5b5f7f5661756c743a20616d6f756e7420746f6f20736d616c6c000000000000000000910152565b6127536017602092610a66565b61275c8161271f565b0190565b6127759060208101905f818303910152612746565b90565b1561277f57565b612787610192565b62461bcd60e51b81528061279d60048201612760565b0390fd5b6127bd816127b76127b15f610f1d565b91610285565b116125f2565b6127f36127d26127cd6002611393565b6104e2565b6127ec6127e66127e15f6116aa565b610256565b91610256565b1415612674565b61282261281d6128056003339061080e565b6128176128126002611393565b6104e2565b90610824565b610c71565b906128408261283961283384610285565b91610285565b10156126f6565b612849816132c3565b916128668261286061285a86610285565b91610285565b11612778565b6128a9826128a361289461287c6003339061080e565b61288e6128896002611393565b6104e2565b90610824565b9161289e83610c71565b610d3a565b90610d99565b6128bb6128b66002611393565b6104e2565b90632e1a7d4d83833b15612a93576128f2936128e75f80946128db610192565b97889586948593611157565b835260048301610589565b03925af1918215612a8e576129b892612a62575b508361291a6129145f610f1d565b91610285565b11612a1a575b6129675f80612930868890610d3a565b61294161293c33611ce7565b611cf3565b9061294a610192565b908161295581611d13565b03925af1612961611d73565b50611e77565b6129b26129ac6129a761299f61299a6129826003339061080e565b61299461298f6002611393565b6104e2565b90610824565b610c71565b938690610d3a565b610285565b91610285565b14610dcd565b336129cb6129c66002611393565b6104e2565b9192612a006129fa7ff341246adaac6f497bc2a656f546ab9e182111d630394f0c57c710a59a2cb56793610802565b93610802565b93612a15612a0c610192565b92839283611ea0565b0390a3565b612a5d5f80612a37612a32612a2d6122e0565b611ce7565b611cf3565b87612a40610192565b9081612a4b81611d13565b03925af1612a57611d73565b50611df5565b612920565b612a81905f3d8111612a87575b612a79818361112e565b810190611ccc565b5f612906565b503d612a6f565b6111ad565b61110c565b612aa190612558565b565b612ab490612aaf613206565b612ab6565b565b80612ad1612acb612ac65f6116aa565b610256565b91610256565b14612ae157612adf90613339565b565b612b04612aed5f6116aa565b5f918291631e4fbdf760e01b8352600483016103cc565b0390fd5b612b1190612aa3565b565b90612b2591612b20613014565b612b2f565b612b2d61306c565b565b90612b5491612b4f612b4a612b446001610b80565b156101ef565b610c0c565b612bd8565b565b5f7f5661756c743a2075736520776974686472617745544800000000000000000000910152565b612b8a6016602092610a66565b612b9381612b56565b0190565b612bac9060208101905f818303910152612b7d565b90565b15612bb657565b612bbe610192565b62461bcd60e51b815280612bd460048201612b97565b0390fd5b90612bf581612bef612be95f610f1d565b91610285565b116125f2565b612c2382612c1c612c16612c11612c0c6002611393565b6104e2565b610256565b91610256565b1415612baf565b612c41612c3c612c356003339061080e565b8490610824565b610c71565b91612c5f83612c58612c5285610285565b91610285565b10156126f6565b612d17612c6b836132c3565b93612cd7612c7a858790610d3a565b612cac86612ca6612c97612c906003339061080e565b8990610824565b91612ca183610c71565b610d3a565b90610d99565b86612cbf612cb95f610f1d565b91610285565b11612d68575b612cce856110e8565b903390916132f2565b612d11612d0b612d06612cfe612cf9612cf26003339061080e565b8890610824565b610c71565b938790610d3a565b610285565b91610285565b14610dcd565b33909192612d4e612d487ff341246adaac6f497bc2a656f546ab9e182111d630394f0c57c710a59a2cb56793610802565b93610802565b93612d63612d5a610192565b92839283611ea0565b0390a3565b612d83612d74866110e8565b612d7c6122e0565b89916132f2565b612cc5565b90612d9291612b13565b565b612d9c613014565b612da4612dae565b612dac61306c565b565b612dc9612dc4612dbe6001610b80565b156101ef565b610c0c565b612dd1612dd3565b565b612def34612de9612de35f610f1d565b91610285565b11611356565b612e25612e04612dff6002611393565b6104e2565b612e1e612e18612e135f6116aa565b610256565b91610256565b1415612674565b612e54612e4f612e376003339061080e565b612e49612e446002611393565b6104e2565b90610824565b610c71565b612e66612e616002611393565b6104e2565b9063d0e30db0349290813b15612fd9575f91612e8e91612e84610192565b9586938492611157565b825281612e9d600482016102e5565b03925af1918215612fd457612f4692612fa8575b50612ef534612eef612ee0612ec86003339061080e565b612eda612ed56002611393565b6104e2565b90610824565b91612eea83610c71565b610fe1565b90610d99565b612f40612f3a612f35612f2d612f28612f106003339061080e565b612f22612f1d6002611393565b6104e2565b90610824565b610c71565b933490610fe1565b610285565b91610285565b14610dcd565b33612f59612f546002611393565b6104e2565b3491612fa3612f91612f8b7f5548c837ab068cf56a2c2479df0882a4922fd203edb7517321831d95078c5f6293610802565b93610802565b93612f9a610192565b91829182610589565b0390a3565b612fc7905f3d8111612fcd575b612fbf818361112e565b810190611ccc565b5f612eb1565b503d612fb5565b6111ad565b61110c565b612fe6612d94565b565b90565b612fff612ffa61300492612fe8565b6104b7565b610285565b90565b6130116002612feb565b90565b61301c613438565b61303e613027613007565b5f6130386130336134b4565b6134c8565b01610d99565b565b90565b61305761305261305c92613040565b6104b7565b610285565b90565b6130696001613043565b90565b61308e61307761305f565b5f6130886130836134b4565b6134c8565b01610d99565b565b613099906104d6565b90565b6040906130c56130cc94969593966130bb60608401985f8501906103bf565b602083019061057c565b019061057c565b565b906130d99103610285565b90565b9291926130e8816110f4565b602063dd62ed3e916130f930613090565b90613116869461312161310a610192565b96879586948594611157565b84526004840161118a565b03915afa9081156131b6575f91613188575b50908161314861314287610285565b91610285565b1061316557613163939461315d9193926130ce565b916134cb565b565b50613184849291925f93849363e570110f60e01b85526004850161309c565b0390fd5b6131a9915060203d81116131af575b6131a1818361112e565b81019061116c565b5f613133565b503d613197565b6111ad565b92906131d8926131d2928592919091600193613588565b156101ef565b6131df5750565b6131eb613202916110f4565b5f918291635274afe760e01b8352600483016103cc565b0390fd5b61320e6122e0565b61322761322161321c613601565b610256565b91610256565b0361322e57565b613250613239613601565b5f91829163118cdaa760e01b8352600483016103cc565b0390fd5b5f90565b61326761326d91939293610285565b92610285565b91613279838202610285565b92818404149015171561328857565b610d26565b634e487b7160e01b5f52601260045260245ffd5b6132ad6132b391610285565b91610285565b9081156132be570490565b61328d565b6132e16132ef916132d2613254565b506132db610564565b90613258565b6132e961090d565b906132a1565b90565b9161330b9161330591849160019261360e565b156101ef565b6133125750565b61331e613335916110f4565b5f918291635274afe760e01b8352600483016103cc565b0390fd5b6133425f610a59565b61334c825f612465565b9061338061337a7f8be0079c531659141344cd1fd0a4f28419497f9722a3daafe3b4186f6b6457e093610802565b91610802565b91613389610192565b80613393816102e5565b0390a3565b6133a1816110f4565b602063dd62ed3e916133b230613090565b906133cf86946133da6133c3610192565b96879586948594611157565b84526004840161118a565b03915afa93841561343357613403946133fd925f91613405575b50929392610fe1565b916134cb565b565b613426915060203d811161342c575b61341e818361112e565b81019061116c565b5f6133f4565b503d613414565b6111ad565b613440613678565b61344657565b5f633ee5aeb560e01b81528061345e600482016102e5565b0390fd5b5f90565b90565b90565b61348061347b61348592613466565b610d5f565b613469565b90565b6134b17f9b779b17422d0df92223018b32b4d1fa46e071723d6817e2486d003becc55f0061346c565b90565b6134bc613462565b506134c5613488565b90565b90565b916134e36134dd848484905f926136b8565b156101ef565b6134ed575b505050565b61350f6135098484905f91613503600193610f1d565b916136b8565b156101ef565b61355d5761352b916135259184916001926136b8565b156101ef565b6135365780806134e8565b613542613559916110f4565b5f918291635274afe760e01b8352600483016103cc565b0390fd5b613580613569846110f4565b5f918291635274afe760e01b8352600483016103cc565b0390fd5b5f90565b91949394929092613597613584565b506323b872dd60e01b93604051945f525f1960601c166004525f1960601c1660245260445260205f60648180855af19360015f51148516156135df575b50506040525f606052565b84929415166135f8575f903b113d151616915f806135d4565b833d5f823e3d90fd5b6136096122dc565b503390565b909193929361361b613584565b5063a9059cbb60e01b92604051935f525f1960601c1660045260245260205f60448180855af19360015f5114851615613656575b5050604052565b849294151661366f575f903b113d151616915f8061364f565b833d5f823e3d90fd5b613680613584565b5061369b5f6136956136906134b4565b6134c8565b01610c71565b6136b46136ae6136a9613007565b610285565b91610285565b1490565b90919392936136c5613584565b5063095ea7b360e01b92604051935f525f1960601c1660045260245260205f60448180855af19360015f5114851615613700575b5050604052565b8492941516613719575f903b113d151616915f806136f9565b833d5f823e3d90fdfea2646970667358221220ab4bd493ba0853a4a46ec7c9573f566597613ca5a313fb7b7e0a5bc03701e9b564736f6c63430008210033","linkReferences":{}},"methodIdentifiers":{"BPS_DENOMINATOR()":"e1a45218","WITHDRAW_FEE_BPS()":"4082fa9b","approveToken(address,address,uint256)":"da3e3397","balances(address,address)":"c23f001f","collectFee(address,uint256)":"2ec0ff6c","credit(address,address,uint256)":"7de182c5","debit(address,address,uint256)":"262709e6","deposit(address,uint256)":"47e7ef24","depositETH()":"f6326fb3","emergencyMode()":"0905f560","emergencyWithdraw(address)":"6ff1c9bc","internalTransfer(address,address,uint256)":"59e026f7","owner()":"8da5cb5b","renounceOwnership()":"715018a6","resetTokenApproval(address,address)":"3faec084","setEmergencyMode(bool)":"be32b3f8","setRouter(address)":"c0d78655","setWETH(address)":"5b769f3c","spotRouter()":"3603e910","transferOwnership(address)":"f2fde38b","weth()":"3fc8cef3","withdraw(address,uint256)":"f3fef3a3","withdrawETH(uint256)":"f14210a6"},"id":3}