{"abi":[{"type":"constructor","inputs":[],"stateMutability":"nonpayable"},{"type":"receive","stateMutability":"payable"},{"type":"function","name":"BPS_DENOMINATOR","inputs":[],"outputs":[{"name":"","type":"uint256","internalType":"uint256"}],"stateMutability":"view"},{"type":"function","name":"WITHDRAW_FEE_BPS","inputs":[],"outputs":[{"name":"","type":"uint256","internalType":"uint256"}],"stateMutability":"view"},{"type":"function","name":"approveToken","inputs":[{"name":"token","type":"address","internalType":"address"},{"name":"spender","type":"address","internalType":"address"},{"name":"amount","type":"uint256","internalType":"uint256"}],"outputs":[],"stateMutability":"nonpayable"},{"type":"function","name":"balances","inputs":[{"name":"","type":"address","internalType":"address"},{"name":"","type":"address","internalType":"address"}],"outputs":[{"name":"","type":"uint256","internalType":"uint256"}],"stateMutability":"view"},{"type":"function","name":"collectFee","inputs":[{"name":"token","type":"address","internalType":"address"},{"name":"amount","type":"uint256","internalType":"uint256"}],"outputs":[],"stateMutability":"nonpayable"},{"type":"function","name":"credit","inputs":[{"name":"user","type":"address","internalType":"address"},{"name":"token","type":"address","internalType":"address"},{"name":"amount","type":"uint256","internalType":"uint256"}],"outputs":[],"stateMutability":"nonpayable"},{"type":"function","name":"debit","inputs":[{"name":"user","type":"address","internalType":"address"},{"name":"token","type":"address","internalType":"address"},{"name":"amount","type":"uint256","internalType":"uint256"}],"outputs":[],"stateMutability":"nonpayable"},{"type":"function","name":"deposit","inputs":[{"name":"token","type":"address","internalType":"address"},{"name":"amount","type":"uint256","internalType":"uint256"}],"outputs":[],"stateMutability":"nonpayable"},{"type":"function","name":"depositETH","inputs":[],"outputs":[],"stateMutability":"payable"},{"type":"function","name":"emergencyMode","inputs":[],"outputs":[{"name":"","type":"bool","internalType":"bool"}],"stateMutability":"view"},{"type":"function","name":"emergencyWithdraw","inputs":[{"name":"token","type":"address","internalType":"address"}],"outputs":[],"stateMutability":"nonpayable"},{"type":"function","name":"internalTransfer","inputs":[{"name":"recipient","type":"address","internalType":"address"},{"name":"token","type":"address","internalType":"address"},{"name":"amount","type":"uint256","internalType":"uint256"}],"outputs":[],"stateMutability":"nonpayable"},{"type":"function","name":"owner","inputs":[],"outputs":[{"name":"","type":"address","internalType":"address"}],"stateMutability":"view"},{"type":"function","name":"renounceOwnership","inputs":[],"outputs":[],"stateMutability":"nonpayable"},{"type":"function","name":"resetTokenApproval","inputs":[{"name":"token","type":"address","internalType":"address"},{"name":"spender","type":"address","internalType":"address"}],"outputs":[],"stateMutability":"nonpayable"},{"type":"function","name":"setEmergencyMode","inputs":[{"name":"_isEmergency","type":"bool","internalType":"bool"}],"outputs":[],"stateMutability":"nonpayable"},{"type":"function","name":"setRouter","inputs":[{"name":"_router","type":"address","internalType":"address"}],"outputs":[],"stateMutability":"nonpayable"},{"type":"function","name":"setWETH","inputs":[{"name":"_weth","type":"address","internalType":"address"}],"outputs":[],"stateMutability":"nonpayable"},{"type":"function","name":"spotRouter","inputs":[],"outputs":[{"name":"","type":"address","internalType":"address"}],"stateMutability":"view"},{"type":"function","name":"transferOwnership","inputs":[{"name":"newOwner","type":"address","internalType":"address"}],"outputs":[],"stateMutability":"nonpayable"},{"type":"function","name":"weth","inputs":[],"outputs":[{"name":"","type":"address","internalType":"contract IWETH"}],"stateMutability":"view"},{"type":"function","name":"withdraw","inputs":[{"name":"token","type":"address","internalType":"address"},{"name":"amount","type":"uint256","internalType":"uint256"}],"outputs":[],"stateMutability":"nonpayable"},{"type":"function","name":"withdrawETH","inputs":[{"name":"amount","type":"uint256","internalType":"uint256"}],"outputs":[],"stateMutability":"nonpayable"},{"type":"event","name":"Credit","inputs":[{"name":"user","type":"address","indexed":true,"internalType":"address"},{"name":"token","type":"address","indexed":true,"internalType":"address"},{"name":"amount","type":"uint256","indexed":false,"internalType":"uint256"}],"anonymous":false},{"type":"event","name":"Debit","inputs":[{"name":"user","type":"address","indexed":true,"internalType":"address"},{"name":"token","type":"address","indexed":true,"internalType":"address"},{"name":"amount","type":"uint256","indexed":false,"internalType":"uint256"}],"anonymous":false},{"type":"event","name":"Deposit","inputs":[{"name":"user","type":"address","indexed":true,"internalType":"address"},{"name":"token","type":"address","indexed":true,"internalType":"address"},{"name":"amount","type":"uint256","indexed":false,"internalType":"uint256"}],"anonymous":false},{"type":"event","name":"EmergencyModeChanged","inputs":[{"name":"isEmergency","type":"bool","indexed":false,"internalType":"bool"}],"anonymous":false},{"type":"event","name":"EmergencyWithdraw","inputs":[{"name":"user","type":"address","indexed":true,"internalType":"address"},{"name":"token","type":"address","indexed":true,"internalType":"address"},{"name":"amount","type":"uint256","indexed":false,"internalType":"uint256"},{"name":"fee","type":"uint256","indexed":false,"internalType":"uint256"}],"anonymous":false},{"type":"event","name":"FeeCollected","inputs":[{"name":"token","type":"address","indexed":true,"internalType":"address"},{"name":"amount","type":"uint256","indexed":false,"internalType":"uint256"}],"anonymous":false},{"type":"event","name":"InternalTransfer","inputs":[{"name":"from","type":"address","indexed":true,"internalType":"address"},{"name":"to","type":"address","indexed":true,"internalType":"address"},{"name":"token","type":"address","indexed":true,"internalType":"address"},{"name":"amount","type":"uint256","indexed":false,"internalType":"uint256"}],"anonymous":false},{"type":"event","name":"OwnershipTransferred","inputs":[{"name":"previousOwner","type":"address","indexed":true,"internalType":"address"},{"name":"newOwner","type":"address","indexed":true,"internalType":"address"}],"anonymous":false},{"type":"event","name":"RouterChanged","inputs":[{"name":"newRouter","type":"address","indexed":true,"internalType":"address"}],"anonymous":false},{"type":"event","name":"WethSet","inputs":[{"name":"weth","type":"address","indexed":true,"internalType":"address"}],"anonymous":false},{"type":"event","name":"Withdraw","inputs":[{"name":"user","type":"address","indexed":true,"internalType":"address"},{"name":"token","type":"address","indexed":true,"internalType":"address"},{"name":"amount","type":"uint256","indexed":false,"internalType":"uint256"},{"name":"fee","type":"uint256","indexed":false,"internalType":"uint256"}],"anonymous":false},{"type":"error","name":"OwnableInvalidOwner","inputs":[{"name":"owner","type":"address","internalType":"address"}]},{"type":"error","name":"OwnableUnauthorizedAccount","inputs":[{"name":"account","type":"address","internalType":"address"}]},{"type":"error","name":"ReentrancyGuardReentrantCall","inputs":[]},{"type":"error","name":"SafeERC20FailedDecreaseAllowance","inputs":[{"name":"spender","type":"address","internalType":"address"},{"name":"currentAllowance","type":"uint256","internalType":"uint256"},{"name":"requestedDecrease","type":"uint256","internalType":"uint256"}]},{"type":"error","name":"SafeERC20FailedOperation","inputs":[{"name":"token","type":"address","internalType":"address"}]}],"bytecode":{"object":"0x60806040523461002757610011610036565b61001961002c565b61375a610321823961375a90f35b610032565b60405190565b5f80fd5b61003f336100cd565b565b90565b90565b90565b61005e61005961006392610041565b610047565b610044565b90565b610070600161004a565b90565b5f1b90565b906100845f1991610073565b9181191691161790565b6100a261009d6100a792610044565b610047565b610044565b90565b90565b906100c26100bd6100c99261008e565b6100aa565b8254610078565b9055565b6100d69061015e565b6100f86100e1610066565b5f6100f26100ed610202565b610216565b016100ad565b565b90565b60018060a01b031690565b61011c610117610121926100fa565b610047565b6100fd565b90565b61012d90610108565b90565b610139906100fd565b90565b61014590610130565b9052565b919061015c905f6020850194019061013c565b565b8061017961017361016e5f610124565b610130565b91610130565b1461018957610187906102c1565b565b6101ac6101955f610124565b5f918291631e4fbdf760e01b835260048301610149565b0390fd5b5f90565b90565b90565b6101ce6101c96101d3926101b4565b610073565b6101b7565b90565b6101ff7f9b779b17422d0df92223018b32b4d1fa46e071723d6817e2486d003becc55f006101ba565b90565b61020a6101b0565b506102136101d6565b90565b90565b5f1c90565b60018060a01b031690565b61023561023a91610219565b61021e565b90565b6102479054610229565b90565b9061025b60018060a01b0391610073565b9181191691161790565b61027961027461027e926100fd565b610047565b6100fd565b90565b61028a90610265565b90565b61029690610281565b90565b90565b906102b16102ac6102b89261028d565b610299565b825461024a565b9055565b5f0190565b6102ca5f61023d565b6102d4825f61029c565b906103086103027f8be0079c531659141344cd1fd0a4f28419497f9722a3daafe3b4186f6b6457e09361028d565b9161028d565b9161031161002c565b8061031b816102bc565b0390a356fe60806040526004361015610015575b36610a3e57005b61001f5f3561018e565b80630905f56014610189578063262709e6146101845780632ec0ff6c1461017f5780633603e9101461017a5780633faec084146101755780633fc8cef3146101705780634082fa9b1461016b57806347e7ef241461016657806359e026f7146101615780635b769f3c1461015c5780636ff1c9bc14610157578063715018a6146101525780637de182c51461014d5780638da5cb5b14610148578063be32b3f814610143578063c0d786551461013e578063c23f001f14610139578063da3e339714610134578063e1a452181461012f578063f14210a61461012a578063f2fde38b14610125578063f3fef3a3146101205763f6326fb30361000e57610a15565b6109e1565b6109ae565b61097b565b610928565b6108bc565b610886565b6107d1565b61079e565b610728565b6106f4565b6106c1565b61068e565b61065b565b610609565b6105d5565b6105a0565b610512565b610445565b6103e3565b61034d565b6102ec565b610218565b60e01c90565b60405190565b5f80fd5b5f80fd5b5f9103126101ac57565b61019e565b1c90565b60ff1690565b6101cb9060086101d093026101b1565b6101b5565b90565b906101de91546101bb565b90565b6101ee60016014906101d3565b90565b151590565b6101ff906101f1565b9052565b9190610216905f602085019401906101f6565b565b34610248576102283660046101a2565b6102446102336101e1565b61023b610194565b91829182610203565b0390f35b61019a565b60018060a01b031690565b6102619061024d565b90565b61026d81610258565b0361027457565b5f80fd5b9050359061028582610264565b565b90565b61029381610287565b0361029a57565b5f80fd5b905035906102ab8261028a565b565b90916060828403126102e2576102df6102c8845f8501610278565b936102d68160208601610278565b9360400161029e565b90565b61019e565b5f0190565b3461031b576103056102ff3660046102ad565b91610ede565b61030d610194565b80610317816102e7565b0390f35b61019a565b9190604083820312610348578061033c610345925f8601610278565b9360200161029e565b90565b61019e565b3461037c57610366610360366004610320565b906110a1565b61036e610194565b80610378816102e7565b0390f35b61019a565b60018060a01b031690565b61039c9060086103a193026101b1565b610381565b90565b906103af915461038c565b90565b6103be60015f906103a4565b90565b6103ca90610258565b9052565b91906103e1905f602085019401906103c1565b565b34610413576103f33660046101a2565b61040f6103fe6103b2565b610406610194565b918291826103ce565b0390f35b61019a565b9190604083820312610440578061043461043d925f8601610278565b93602001610278565b90565b61019e565b346104745761045e610458366004610418565b9061128a565b610466610194565b80610470816102e7565b0390f35b61019a565b60018060a01b031690565b61049490600861049993026101b1565b610479565b90565b906104a79154610484565b90565b6104b660025f9061049c565b90565b90565b6104d06104cb6104d59261024d565b6104b9565b61024d565b90565b6104e1906104bc565b90565b6104ed906104d8565b90565b6104f9906104e4565b9052565b9190610510905f602085019401906104f0565b565b34610542576105223660046101a2565b61053e61052d6104aa565b610535610194565b918291826104fd565b0390f35b61019a565b90565b61055e61055961056392610547565b6104b9565b610287565b90565b610570600a61054a565b90565b61057b610566565b90565b61058790610287565b9052565b919061059e905f6020850194019061057e565b565b346105d0576105b03660046101a2565b6105cc6105bb610573565b6105c3610194565b9182918261058b565b0390f35b61019a565b34610604576105ee6105e8366004610320565b90611597565b6105f6610194565b80610600816102e7565b0390f35b61019a565b346106385761062261061c3660046102ad565b916119bd565b61062a610194565b80610634816102e7565b0390f35b61019a565b9060208282031261065657610653915f01610278565b90565b61019e565b346106895761067361066e36600461063d565b611b61565b61067b610194565b80610685816102e7565b0390f35b61019a565b346106bc576106a66106a136600461063d565b61213a565b6106ae610194565b806106b8816102e7565b0390f35b61019a565b346106ef576106d13660046101a2565b6106d961216a565b6106e1610194565b806106eb816102e7565b0390f35b61019a565b346107235761070d6107073660046102ad565b916122d1565b610715610194565b8061071f816102e7565b0390f35b61019a565b34610758576107383660046101a2565b6107546107436122e2565b61074b610194565b918291826103ce565b0390f35b61019a565b610766816101f1565b0361076d57565b5f80fd5b9050359061077e8261075d565b565b9060208282031261079957610796915f01610771565b90565b61019e565b346107cc576107b66107b1366004610780565b61239e565b6107be610194565b806107c8816102e7565b0390f35b61019a565b346107ff576107e96107e436600461063d565b6124f9565b6107f1610194565b806107fb816102e7565b0390f35b61019a565b61080d906104d8565b90565b9061081a90610804565b5f5260205260405f2090565b9061083090610804565b5f5260205260405f2090565b90565b61084f90600861085493026101b1565b61083c565b90565b90610862915461083f565b90565b61087e610883926108796003935f94610810565b610826565b610857565b90565b346108b7576108b36108a261089c366004610418565b90610865565b6108aa610194565b9182918261058b565b0390f35b61019a565b346108eb576108d56108cf3660046102ad565b9161254d565b6108dd610194565b806108e7816102e7565b0390f35b61019a565b90565b61090761090261090c926108f0565b6104b9565b610287565b90565b61091a6127106108f3565b90565b61092561090f565b90565b34610958576109383660046101a2565b61095461094361091d565b61094b610194565b9182918261058b565b0390f35b61019a565b9060208282031261097657610973915f0161029e565b90565b61019e565b346109a95761099361098e36600461095d565b612a9a565b61099b610194565b806109a5816102e7565b0390f35b61019a565b346109dc576109c66109c136600461063d565b612b0a565b6109ce610194565b806109d8816102e7565b0390f35b61019a565b34610a10576109fa6109f4366004610320565b90612d8a565b610a02610194565b80610a0c816102e7565b0390f35b61019a565b610a203660046101a2565b610a28612fe0565b610a30610194565b80610a3a816102e7565b0390f35b5f80fd5b5f1c90565b610a53610a5891610a42565b610381565b90565b610a659054610a47565b90565b60209181520190565b60207f7465720000000000000000000000000000000000000000000000000000000000917f5661756c743a2043616c6c6572206973206e6f74207468652053706f74526f755f8201520152565b610acb6023604092610a68565b610ad481610a71565b0190565b610aed9060208101905f818303910152610abe565b90565b15610af757565b610aff610194565b62461bcd60e51b815280610b1560048201610ad8565b0390fd5b90610b499291610b4433610b3e610b38610b336001610a5b565b610258565b91610258565b14610af0565b610b4b565b565b90610b5e9291610b59613016565b610c37565b610b6661306e565b565b60a01c90565b610b7a610b7f91610b68565b6101b5565b90565b610b8c9054610b6e565b90565b60207f6e6379206d6f6465000000000000000000000000000000000000000000000000917f5661756c743a20416374696f6e2064697361626c656420696e20656d657267655f8201520152565b610be96028604092610a68565b610bf281610b8f565b0190565b610c0b9060208101905f818303910152610bdc565b90565b15610c1557565b610c1d610194565b62461bcd60e51b815280610c3360048201610bf6565b0390fd5b90610c5d9291610c58610c53610c4d6001610b82565b156101f1565b610c0e565b610ddb565b565b610c6b610c7091610a42565b61083c565b90565b610c7d9054610c5f565b90565b60207f6465626974000000000000000000000000000000000000000000000000000000917f5661756c743a20496e73756666696369656e742062616c616e636520666f72205f8201520152565b610cda6025604092610a68565b610ce381610c80565b0190565b610cfc9060208101905f818303910152610ccd565b90565b15610d0657565b610d0e610194565b62461bcd60e51b815280610d2460048201610ce7565b0390fd5b634e487b7160e01b5f52601160045260245ffd5b610d4b610d5191939293610287565b92610287565b8203918211610d5c57565b610d28565b5f1b90565b90610d725f1991610d61565b9181191691161790565b610d90610d8b610d9592610287565b6104b9565b610287565b90565b90565b90610db0610dab610db792610d7c565b610d98565b8254610d66565b9055565b634e487b7160e01b5f52600160045260245ffd5b15610dd657565b610dbb565b919091610e8e610dff610dfa610df360038590610810565b8690610826565b610c73565b610e1c81610e15610e0f87610287565b91610287565b1015610cff565b610e4e84610e48610e39610e3260038890610810565b8990610826565b91610e4383610c73565b610d3c565b90610d9b565b610e88610e82610e7d610e75610e70610e6960038990610810565b8a90610826565b610c73565b938790610d3c565b610287565b91610287565b14610dcf565b919091610ed9610ec7610ec17fdc95cccefa07472883633e3b800a6f123825f8f8f5d4029e93b1306e8c5fa83993610804565b93610804565b93610ed0610194565b9182918261058b565b0390a3565b90610ee99291610b19565b565b90610f1a91610f1533610f0f610f09610f046001610a5b565b610258565b91610258565b14610af0565b611008565b565b90565b610f33610f2e610f3892610f1c565b6104b9565b610287565b90565b60207f7665000000000000000000000000000000000000000000000000000000000000917f5661756c743a2046656520616d6f756e74206d75737420626520706f736974695f8201520152565b610f956022604092610a68565b610f9e81610f3b565b0190565b610fb79060208101905f818303910152610f88565b90565b15610fc157565b610fc9610194565b62461bcd60e51b815280610fdf60048201610fa2565b0390fd5b610ff2610ff891939293610287565b92610287565b820180921161100357565b610d28565b6110248261101e6110185f610f1f565b91610287565b11610fba565b61105d82611057611048611041600361103b6122e2565b90610810565b8590610826565b9161105283610c73565b610fe3565b90610d9b565b61109c61108a7f06c5efeff5c320943d265dc4e5f1af95ad523555ce0c1957e367dda5514572df92610804565b92611093610194565b9182918261058b565b0390a2565b906110ab91610eeb565b565b906110dc916110d7336110d16110cb6110c66001610a5b565b610258565b91610258565b14610af0565b6111bf565b565b6110e7906104bc565b90565b6110f3906110de565b90565b6110ff906104d8565b90565b61110b906104d8565b90565b5f80fd5b601f801991011690565b634e487b7160e01b5f52604160045260245ffd5b9061113a90611112565b810190811067ffffffffffffffff82111761115457604052565b61111c565b60e01b90565b9050519061116c8261028a565b565b9060208282031261118757611184915f0161115f565b90565b61019e565b9160206111ad9294936111a660408201965f8301906103c1565b01906103c1565b565b6111b7610194565b3d5f823e3d90fd5b906111d16111cc836110ea565b6110f6565b602063dd62ed3e916111e230611102565b906111ff859461120a6111f3610194565b96879586948594611159565b84526004840161118c565b03915afa908115611285575f91611257575b508061123061122a5f610f1f565b91610287565b1161123b575b505050565b61124761124f936110ea565b9190916130de565b5f8080611236565b611278915060203d811161127e575b6112708183611130565b81019061116e565b5f61121c565b503d611266565b6111af565b90611294916110ad565b565b906112a8916112a3613016565b6112b2565b6112b061306e565b565b906112d7916112d26112cd6112c76001610b82565b156101f1565b610c0e565b61144a565b565b60207f7369746976650000000000000000000000000000000000000000000000000000917f5661756c743a204465706f73697420616d6f756e74206d75737420626520706f5f8201520152565b6113336026604092610a68565b61133c816112d9565b0190565b6113559060208101905f818303910152611326565b90565b1561135f57565b611367610194565b62461bcd60e51b81528061137d60048201611340565b0390fd5b61138d61139291610a42565b610479565b90565b61139f9054611381565b90565b60207f2045544800000000000000000000000000000000000000000000000000000000917f5661756c743a20557365206465706f73697445544820666f72206e61746976655f8201520152565b6113fc6024604092610a68565b611405816113a2565b0190565b61141e9060208101905f8183039101526113ef565b90565b1561142857565b611430610194565b62461bcd60e51b81528061144660048201611409565b0390fd5b906114678161146161145b5f610f1f565b91610287565b11611358565b6114958261148e61148861148361147e6002611395565b6104e4565b610258565b91610258565b1415611421565b6115466114b66114b16114aa60033390610810565b8590610826565b610c73565b6114d46114c2856110ea565b336114cc30611102565b9086926131bd565b611506836115006114f16114ea60033390610810565b8890610826565b916114fb83610c73565b610fe3565b90610d9b565b61154061153a61153561152d61152861152160033390610810565b8990610826565b610c73565b938690610fe3565b610287565b91610287565b14610dcf565b3391909161159261158061157a7f5548c837ab068cf56a2c2479df0882a4922fd203edb7517321831d95078c5f6293610804565b93610804565b93611589610194565b9182918261058b565b0390a3565b906115a191611296565b565b906115b692916115b1613016565b6115c0565b6115be61306e565b565b906115e692916115e16115dc6115d66001610b82565b156101f1565b610c0e565b611864565b565b60207f6f73697469766500000000000000000000000000000000000000000000000000917f5661756c743a205472616e7366657220616d6f756e74206d75737420626520705f8201520152565b6116426027604092610a68565b61164b816115e8565b0190565b6116649060208101905f818303910152611635565b90565b1561166e57565b611676610194565b62461bcd60e51b81528061168c6004820161164f565b0390fd5b6116a461169f6116a992610f1c565b6104b9565b61024d565b90565b6116b590611690565b90565b5f7f5661756c743a20496e76616c696420726563697069656e740000000000000000910152565b6116ec6018602092610a68565b6116f5816116b8565b0190565b61170e9060208101905f8183039101526116df565b90565b1561171857565b611720610194565b62461bcd60e51b815280611736600482016116f9565b0390fd5b60207f7200000000000000000000000000000000000000000000000000000000000000917f5661756c743a20526563697069656e742063616e6e6f742062652073656e64655f8201520152565b6117946021604092610a68565b61179d8161173a565b0190565b6117b69060208101905f818303910152611787565b90565b156117c057565b6117c8610194565b62461bcd60e51b8152806117de600482016117a1565b0390fd5b5f7f5661756c743a20496e73756666696369656e742062616c616e63650000000000910152565b611816601b602092610a68565b61181f816117e2565b0190565b6118389060208101905f818303910152611809565b90565b1561184257565b61184a610194565b62461bcd60e51b81528061186060048201611823565b0390fd5b91906118828261187c6118765f610f1f565b91610287565b11611667565b6118a7836118a061189a6118955f6116ac565b610258565b91610258565b1415611711565b6118c4836118bd6118b733610258565b91610258565b14156117b9565b6118fe6118e56118e06118d960033390610810565b8490610826565b610c73565b6118f76118f185610287565b91610287565b101561183b565b6119308261192a61191b61191460033390610810565b8590610826565b9161192583610c73565b610d3c565b90610d9b565b6119628261195c61194d61194660038890610810565b8590610826565b9161195783610c73565b610fe3565b90610d9b565b33929091926119b86119a66119a061199a7f77178bcf8f3c991d39734824771477a42787fe19b60d5a29c0ec72de167699b394610804565b94610804565b94610804565b946119af610194565b9182918261058b565b0390a4565b906119c892916115a3565b565b6119db906119d6613208565b611ae7565b565b60207f6464726573730000000000000000000000000000000000000000000000000000917f5661756c743a2043616e6e6f7420736574205745544820746f207a65726f20615f8201520152565b611a376026604092610a68565b611a40816119dd565b0190565b611a599060208101905f818303910152611a2a565b90565b15611a6357565b611a6b610194565b62461bcd60e51b815280611a8160048201611a44565b0390fd5b611a8e906104bc565b90565b611a9a90611a85565b90565b90611aae60018060a01b0391610d61565b9181191691161790565b611ac190611a85565b90565b90565b90611adc611ad7611ae392611ab8565b611ac4565b8254611a9d565b9055565b611b0c81611b05611aff611afa5f6116ac565b610258565b91610258565b1415611a5c565b611b1f611b1882611a91565b6002611ac7565b611b497f13a533084dcbb1cfe0dbea708ea977223c27c44d94f2fa3867a167c9cd340bf991610804565b90611b52610194565b80611b5c816102e7565b0390a2565b611b6a906119ca565b565b611b7d90611b78613016565b611c2f565b611b8561306e565b565b60207f657267656e6379206d6f64650000000000000000000000000000000000000000917f5661756c743a20416374696f6e206f6e6c7920656e61626c656420696e20656d5f8201520152565b611be1602c604092610a68565b611bea81611b87565b0190565b611c039060208101905f818303910152611bd4565b90565b15611c0d57565b611c15610194565b62461bcd60e51b815280611c2b60048201611bee565b0390fd5b611c4a90611c45611c406001610b82565b611c06565b611ec5565b565b5f7f5661756c743a204e6f2062616c616e636520746f207769746864726177000000910152565b611c80601d602092610a68565b611c8981611c4c565b0190565b611ca29060208101905f818303910152611c73565b90565b15611cac57565b611cb4610194565b62461bcd60e51b815280611cca60048201611c8d565b0390fd5b5f910312611cd857565b61019e565b611ce6906104bc565b90565b611cf290611cdd565b90565b611cfe906104d8565b90565b905090565b611d115f8092611d01565b0190565b611d1e90611d06565b90565b90611d34611d2d610194565b9283611130565b565b67ffffffffffffffff8111611d5457611d50602091611112565b0190565b61111c565b90611d6b611d6683611d36565b611d21565b918252565b606090565b3d5f14611d9057611d853d611d59565b903d5f602084013e5b565b611d98611d70565b90611d8e565b5f7f5661756c743a20666565207472616e73666572206661696c6564000000000000910152565b611dd2601a602092610a68565b611ddb81611d9e565b0190565b611df49060208101905f818303910152611dc5565b90565b15611dfe57565b611e06610194565b62461bcd60e51b815280611e1c60048201611ddf565b0390fd5b5f7f5661756c743a20455448207472616e73666572206661696c6564000000000000910152565b611e54601a602092610a68565b611e5d81611e20565b0190565b611e769060208101905f818303910152611e47565b90565b15611e8057565b611e88610194565b62461bcd60e51b815280611e9e60048201611e61565b0390fd5b916020611ec3929493611ebc60408201965f83019061057e565b019061057e565b565b611ee3611ede611ed760033390610810565b8390610826565b610c73565b611eff81611ef9611ef35f610f1f565b91610287565b11611ca5565b611f08816132c5565b91611f14828490610d3c565b611f3b611f205f610f1f565b611f36611f2f60033390610810565b8590610826565b610d9b565b81611f5f611f59611f54611f4f6002611395565b6104e4565b610258565b91610258565b145f146120e657611f78611f736002611395565b6104e4565b632e1a7d4d84823b156120e157611fae92611fa35f8094611f97610194565b96879586948593611159565b83526004830161058b565b03925af180156120dc57612016925f9283926120b0575b5086611fd9611fd384610f1f565b91610287565b11612068575b611ff0611feb33611ce9565b611cf5565b90611ff9610194565b908161200481611d15565b03925af1612010611d75565b50611e79565b5b3390919261204e6120487f1401b6ff3b281e84fd77353369caed48ba7e787dd3821db05cc006437360820193610804565b93610804565b9361206361205a610194565b92839283611ea2565b0390a3565b6120ab828061208561208061207b6122e2565b611ce9565b611cf5565b8a61208e610194565b908161209981611d15565b03925af16120a5611d75565b50611df7565b611fdf565b6120cf90833d81116120d5575b6120c78183611130565b810190611cce565b5f611fc5565b503d6120bd565b6111af565b61110e565b61211590846120fd6120f75f610f1f565b91610287565b1161211a575b61210c836110ea565b903390916132f4565b612017565b612135612126846110ea565b61212e6122e2565b87916132f4565b612103565b61214390611b6c565b565b61214d613208565b612155612157565b565b6121686121635f6116ac565b61333b565b565b612172612145565b565b906121a4929161219f3361219961219361218e6001610a5b565b610258565b91610258565b14610af0565b6121a6565b565b906121b992916121b4613016565b6121c3565b6121c161306e565b565b906121e992916121e46121df6121d96001610b82565b156101f1565b610c0e565b6121eb565b565b91909161228161220f61220a61220360038590610810565b8690610826565b610c73565b6122418461223b61222c61222560038890610810565b8990610826565b9161223683610c73565b610fe3565b90610d9b565b61227b61227561227061226861226361225c60038990610810565b8a90610826565b610c73565b938790610fe3565b610287565b91610287565b14610dcf565b9190916122cc6122ba6122b47f14ab110831c9d210715b0adedbc67b2f0b80c10ad2853488332d1e4fbd85f81d93610804565b93610804565b936122c3610194565b9182918261058b565b0390a3565b906122dc9291612174565b565b5f90565b6122ea6122de565b506122f45f610a5b565b90565b61230890612303613208565b612358565b565b60a01b90565b9061231f60ff60a01b9161230a565b9181191691161790565b612332906101f1565b90565b90565b9061234d61234861235492612329565b612335565b8254612310565b9055565b612363816001612338565b6123997f2809db8224f8e2a04e05130d24142b86b9e35ab1830bf5e353d1ef2ae4bf033791612390610194565b91829182610203565b0390a1565b6123a7906122f7565b565b6123ba906123b5613208565b612487565b565b60207f2061646472657373000000000000000000000000000000000000000000000000917f5661756c743a2043616e6e6f742073657420726f7574657220746f207a65726f5f8201520152565b6124166028604092610a68565b61241f816123bc565b0190565b6124389060208101905f818303910152612409565b90565b1561244257565b61244a610194565b62461bcd60e51b81528061246060048201612423565b0390fd5b90565b9061247c61247761248392610804565b612464565b8254611a9d565b9055565b6124ac816124a561249f61249a5f6116ac565b610258565b91610258565b141561243b565b6124b7816001612467565b6124e17f1085cec9a5108943412475d298086ae4d0abf09cfad47b05436b89fe887a820c91610804565b906124ea610194565b806124f4816102e7565b0390a2565b612502906123a9565b565b90612534929161252f3361252961252361251e6001610a5b565b610258565b91610258565b14610af0565b612536565b565b9161254361254b936110ea565b91909161339a565b565b906125589291612504565b565b61256b90612566613016565b612575565b61257361306e565b565b6125999061259461258f6125896001610b82565b156101f1565b610c0e565b6127a3565b565b5f7f5661756c743a20616d6f756e74206d75737420626520706f7369746976650000910152565b6125cf601e602092610a68565b6125d88161259b565b0190565b6125f19060208101905f8183039101526125c2565b90565b156125fb57565b612603610194565b62461bcd60e51b815280612619600482016125dc565b0390fd5b5f7f5661756c743a20574554482061646472657373206e6f74207365740000000000910152565b612651601b602092610a68565b61265a8161261d565b0190565b6126739060208101905f818303910152612644565b90565b1561267d57565b612685610194565b62461bcd60e51b81528061269b6004820161265e565b0390fd5b5f7f5661756c743a20696e73756666696369656e742062616c616e63650000000000910152565b6126d3601b602092610a68565b6126dc8161269f565b0190565b6126f59060208101905f8183039101526126c6565b90565b156126ff57565b612707610194565b62461bcd60e51b81528061271d600482016126e0565b0390fd5b5f7f5661756c743a20616d6f756e7420746f6f20736d616c6c000000000000000000910152565b6127556017602092610a68565b61275e81612721565b0190565b6127779060208101905f818303910152612748565b90565b1561278157565b612789610194565b62461bcd60e51b81528061279f60048201612762565b0390fd5b6127bf816127b96127b35f610f1f565b91610287565b116125f4565b6127f56127d46127cf6002611395565b6104e4565b6127ee6127e86127e35f6116ac565b610258565b91610258565b1415612676565b61282461281f61280760033390610810565b6128196128146002611395565b6104e4565b90610826565b610c73565b906128428261283b61283584610287565b91610287565b10156126f8565b61284b816132c5565b916128688261286261285c86610287565b91610287565b1161277a565b6128ab826128a561289661287e60033390610810565b61289061288b6002611395565b6104e4565b90610826565b916128a083610c73565b610d3c565b90610d9b565b6128bd6128b86002611395565b6104e4565b90632e1a7d4d83833b15612a95576128f4936128e95f80946128dd610194565b97889586948593611159565b83526004830161058b565b03925af1918215612a90576129ba92612a64575b508361291c6129165f610f1f565b91610287565b11612a1c575b6129695f80612932868890610d3c565b61294361293e33611ce9565b611cf5565b9061294c610194565b908161295781611d15565b03925af1612963611d75565b50611e79565b6129b46129ae6129a96129a161299c61298460033390610810565b6129966129916002611395565b6104e4565b90610826565b610c73565b938690610d3c565b610287565b91610287565b14610dcf565b336129cd6129c86002611395565b6104e4565b9192612a026129fc7ff341246adaac6f497bc2a656f546ab9e182111d630394f0c57c710a59a2cb56793610804565b93610804565b93612a17612a0e610194565b92839283611ea2565b0390a3565b612a5f5f80612a39612a34612a2f6122e2565b611ce9565b611cf5565b87612a42610194565b9081612a4d81611d15565b03925af1612a59611d75565b50611df7565b612922565b612a83905f3d8111612a89575b612a7b8183611130565b810190611cce565b5f612908565b503d612a71565b6111af565b61110e565b612aa39061255a565b565b612ab690612ab1613208565b612ab8565b565b80612ad3612acd612ac85f6116ac565b610258565b91610258565b14612ae357612ae19061333b565b565b612b06612aef5f6116ac565b5f918291631e4fbdf760e01b8352600483016103ce565b0390fd5b612b1390612aa5565b565b90612b2791612b22613016565b612b31565b612b2f61306e565b565b90612b5691612b51612b4c612b466001610b82565b156101f1565b610c0e565b612bda565b565b5f7f5661756c743a2075736520776974686472617745544800000000000000000000910152565b612b8c6016602092610a68565b612b9581612b58565b0190565b612bae9060208101905f818303910152612b7f565b90565b15612bb857565b612bc0610194565b62461bcd60e51b815280612bd660048201612b99565b0390fd5b90612bf781612bf1612beb5f610f1f565b91610287565b116125f4565b612c2582612c1e612c18612c13612c0e6002611395565b6104e4565b610258565b91610258565b1415612bb1565b612c43612c3e612c3760033390610810565b8490610826565b610c73565b91612c6183612c5a612c5485610287565b91610287565b10156126f8565b612d19612c6d836132c5565b93612cd9612c7c858790610d3c565b612cae86612ca8612c99612c9260033390610810565b8990610826565b91612ca383610c73565b610d3c565b90610d9b565b86612cc1612cbb5f610f1f565b91610287565b11612d6a575b612cd0856110ea565b903390916132f4565b612d13612d0d612d08612d00612cfb612cf460033390610810565b8890610826565b610c73565b938790610d3c565b610287565b91610287565b14610dcf565b33909192612d50612d4a7ff341246adaac6f497bc2a656f546ab9e182111d630394f0c57c710a59a2cb56793610804565b93610804565b93612d65612d5c610194565b92839283611ea2565b0390a3565b612d85612d76866110ea565b612d7e6122e2565b89916132f4565b612cc7565b90612d9491612b15565b565b612d9e613016565b612da6612db0565b612dae61306e565b565b612dcb612dc6612dc06001610b82565b156101f1565b610c0e565b612dd3612dd5565b565b612df134612deb612de55f610f1f565b91610287565b11611358565b612e27612e06612e016002611395565b6104e4565b612e20612e1a612e155f6116ac565b610258565b91610258565b1415612676565b612e56612e51612e3960033390610810565b612e4b612e466002611395565b6104e4565b90610826565b610c73565b612e68612e636002611395565b6104e4565b9063d0e30db0349290813b15612fdb575f91612e9091612e86610194565b9586938492611159565b825281612e9f600482016102e7565b03925af1918215612fd657612f4892612faa575b50612ef734612ef1612ee2612eca60033390610810565b612edc612ed76002611395565b6104e4565b90610826565b91612eec83610c73565b610fe3565b90610d9b565b612f42612f3c612f37612f2f612f2a612f1260033390610810565b612f24612f1f6002611395565b6104e4565b90610826565b610c73565b933490610fe3565b610287565b91610287565b14610dcf565b33612f5b612f566002611395565b6104e4565b3491612fa5612f93612f8d7f5548c837ab068cf56a2c2479df0882a4922fd203edb7517321831d95078c5f6293610804565b93610804565b93612f9c610194565b9182918261058b565b0390a3565b612fc9905f3d8111612fcf575b612fc18183611130565b810190611cce565b5f612eb3565b503d612fb7565b6111af565b61110e565b612fe8612d96565b565b90565b613001612ffc61300692612fea565b6104b9565b610287565b90565b6130136002612fed565b90565b61301e61343a565b613040613029613009565b5f61303a6130356134b6565b6134ca565b01610d9b565b565b90565b61305961305461305e92613042565b6104b9565b610287565b90565b61306b6001613045565b90565b613090613079613061565b5f61308a6130856134b6565b6134ca565b01610d9b565b565b61309b906104d8565b90565b6040906130c76130ce94969593966130bd60608401985f8501906103c1565b602083019061057e565b019061057e565b565b906130db9103610287565b90565b9291926130ea816110f6565b602063dd62ed3e916130fb30613092565b90613118869461312361310c610194565b96879586948594611159565b84526004840161118c565b03915afa9081156131b8575f9161318a575b50908161314a61314487610287565b91610287565b1061316757613165939461315f9193926130d0565b916134cd565b565b50613186849291925f93849363e570110f60e01b85526004850161309e565b0390fd5b6131ab915060203d81116131b1575b6131a38183611130565b81019061116e565b5f613135565b503d613199565b6111af565b92906131da926131d492859291909160019361358a565b156101f1565b6131e15750565b6131ed613204916110f6565b5f918291635274afe760e01b8352600483016103ce565b0390fd5b6132106122e2565b61322961322361321e613603565b610258565b91610258565b0361323057565b61325261323b613603565b5f91829163118cdaa760e01b8352600483016103ce565b0390fd5b5f90565b61326961326f91939293610287565b92610287565b9161327b838202610287565b92818404149015171561328a57565b610d28565b634e487b7160e01b5f52601260045260245ffd5b6132af6132b591610287565b91610287565b9081156132c0570490565b61328f565b6132e36132f1916132d4613256565b506132dd610566565b9061325a565b6132eb61090f565b906132a3565b90565b9161330d91613307918491600192613610565b156101f1565b6133145750565b613320613337916110f6565b5f918291635274afe760e01b8352600483016103ce565b0390fd5b6133445f610a5b565b61334e825f612467565b9061338261337c7f8be0079c531659141344cd1fd0a4f28419497f9722a3daafe3b4186f6b6457e093610804565b91610804565b9161338b610194565b80613395816102e7565b0390a3565b6133a3816110f6565b602063dd62ed3e916133b430613092565b906133d186946133dc6133c5610194565b96879586948594611159565b84526004840161118c565b03915afa93841561343557613405946133ff925f91613407575b50929392610fe3565b916134cd565b565b613428915060203d811161342e575b6134208183611130565b81019061116e565b5f6133f6565b503d613416565b6111af565b61344261367a565b61344857565b5f633ee5aeb560e01b815280613460600482016102e7565b0390fd5b5f90565b90565b90565b61348261347d61348792613468565b610d61565b61346b565b90565b6134b37f9b779b17422d0df92223018b32b4d1fa46e071723d6817e2486d003becc55f0061346e565b90565b6134be613464565b506134c761348a565b90565b90565b916134e56134df848484905f926136ba565b156101f1565b6134ef575b505050565b61351161350b8484905f91613505600193610f1f565b916136ba565b156101f1565b61355f5761352d916135279184916001926136ba565b156101f1565b6135385780806134ea565b61354461355b916110f6565b5f918291635274afe760e01b8352600483016103ce565b0390fd5b61358261356b846110f6565b5f918291635274afe760e01b8352600483016103ce565b0390fd5b5f90565b91949394929092613599613586565b506323b872dd60e01b93604051945f525f1960601c166004525f1960601c1660245260445260205f60648180855af19360015f51148516156135e1575b50506040525f606052565b84929415166135fa575f903b113d151616915f806135d6565b833d5f823e3d90fd5b61360b6122de565b503390565b909193929361361d613586565b5063a9059cbb60e01b92604051935f525f1960601c1660045260245260205f60448180855af19360015f5114851615613658575b5050604052565b8492941516613671575f903b113d151616915f80613651565b833d5f823e3d90fd5b613682613586565b5061369d5f6136976136926134b6565b6134ca565b01610c73565b6136b66136b06136ab613009565b610287565b91610287565b1490565b90919392936136c7613586565b5063095ea7b360e01b92604051935f525f1960601c1660045260245260205f60448180855af19360015f5114851615613702575b5050604052565b849294151661371b575f903b113d151616915f806136fb565b833d5f823e3d90fdfea2646970667358221220b2724c164b7bbb4415d8b7a64b0caced1097f0cf854aaa28d129ec0c26c6228664736f6c63430008210033","linkReferences":{}},"methodIdentifiers":{"BPS_DENOMINATOR()":"e1a45218","WITHDRAW_FEE_BPS()":"4082fa9b","approveToken(address,address,uint256)":"da3e3397","balances(address,address)":"c23f001f","collectFee(address,uint256)":"2ec0ff6c","credit(address,address,uint256)":"7de182c5","debit(address,address,uint256)":"262709e6","deposit(address,uint256)":"47e7ef24","depositETH()":"f6326fb3","emergencyMode()":"0905f560","emergencyWithdraw(address)":"6ff1c9bc","internalTransfer(address,address,uint256)":"59e026f7","owner()":"8da5cb5b","renounceOwnership()":"715018a6","resetTokenApproval(address,address)":"3faec084","setEmergencyMode(bool)":"be32b3f8","setRouter(address)":"c0d78655","setWETH(address)":"5b769f3c","spotRouter()":"3603e910","transferOwnership(address)":"f2fde38b","weth()":"3fc8cef3","withdraw(address,uint256)":"f3fef3a3","withdrawETH(uint256)":"f14210a6"},"id":0}