{"abi":[{"type":"constructor","inputs":[{"name":"_vault","type":"address","internalType":"address"},{"name":"_feeController","type":"address","internalType":"address"}],"stateMutability":"nonpayable"},{"type":"function","name":"adapters","inputs":[{"name":"","type":"bytes32","internalType":"bytes32"}],"outputs":[{"name":"","type":"address","internalType":"address"}],"stateMutability":"view"},{"type":"function","name":"addAdapter","inputs":[{"name":"id","type":"bytes32","internalType":"bytes32"},{"name":"adapter","type":"address","internalType":"address"}],"outputs":[],"stateMutability":"nonpayable"},{"type":"function","name":"feeController","inputs":[],"outputs":[{"name":"","type":"address","internalType":"contract FeeController"}],"stateMutability":"view"},{"type":"function","name":"owner","inputs":[],"outputs":[{"name":"","type":"address","internalType":"address"}],"stateMutability":"view"},{"type":"function","name":"removeAdapter","inputs":[{"name":"id","type":"bytes32","internalType":"bytes32"}],"outputs":[],"stateMutability":"nonpayable"},{"type":"function","name":"renounceOwnership","inputs":[],"outputs":[],"stateMutability":"nonpayable"},{"type":"function","name":"swap","inputs":[{"name":"tokenIn","type":"address","internalType":"address"},{"name":"tokenOut","type":"address","internalType":"address"},{"name":"amountIn","type":"uint256","internalType":"uint256"},{"name":"adapterIds","type":"bytes32[]","internalType":"bytes32[]"},{"name":"data","type":"bytes","internalType":"bytes"}],"outputs":[],"stateMutability":"nonpayable"},{"type":"function","name":"transferOwnership","inputs":[{"name":"newOwner","type":"address","internalType":"address"}],"outputs":[],"stateMutability":"nonpayable"},{"type":"function","name":"vault","inputs":[],"outputs":[{"name":"","type":"address","internalType":"contract VaultSpot"}],"stateMutability":"view"},{"type":"event","name":"AdapterAdded","inputs":[{"name":"id","type":"bytes32","indexed":false,"internalType":"bytes32"},{"name":"adapter","type":"address","indexed":false,"internalType":"address"}],"anonymous":false},{"type":"event","name":"AdapterRemoved","inputs":[{"name":"id","type":"bytes32","indexed":false,"internalType":"bytes32"}],"anonymous":false},{"type":"event","name":"OwnershipTransferred","inputs":[{"name":"previousOwner","type":"address","indexed":true,"internalType":"address"},{"name":"newOwner","type":"address","indexed":true,"internalType":"address"}],"anonymous":false},{"type":"event","name":"Swap","inputs":[{"name":"user","type":"address","indexed":true,"internalType":"address"},{"name":"tokenIn","type":"address","indexed":true,"internalType":"address"},{"name":"tokenOut","type":"address","indexed":true,"internalType":"address"},{"name":"amountIn","type":"uint256","indexed":false,"internalType":"uint256"},{"name":"amountOut","type":"uint256","indexed":false,"internalType":"uint256"},{"name":"protocolFee","type":"uint256","indexed":false,"internalType":"uint256"},{"name":"relayerFee","type":"uint256","indexed":false,"internalType":"uint256"}],"anonymous":false},{"type":"error","name":"OwnableInvalidOwner","inputs":[{"name":"owner","type":"address","internalType":"address"}]},{"type":"error","name":"OwnableUnauthorizedAccount","inputs":[{"name":"account","type":"address","internalType":"address"}]},{"type":"error","name":"ReentrancyGuardReentrantCall","inputs":[]}],"bytecode":{"object":"0x608060405234801562000010575f80fd5b5060405162001ab538038062001ab58339818101604052810190620000369190620002c4565b335f73ffffffffffffffffffffffffffffffffffffffff168173ffffffffffffffffffffffffffffffffffffffff1603620000aa575f6040517f1e4fbdf7000000000000000000000000000000000000000000000000000000008152600401620000a191906200031a565b60405180910390fd5b620000bb816200016c60201b60201c565b506001620000de620000d26200022d60201b60201c565b6200025660201b60201c565b5f01819055508160015f6101000a81548173ffffffffffffffffffffffffffffffffffffffff021916908373ffffffffffffffffffffffffffffffffffffffff1602179055508060025f6101000a81548173ffffffffffffffffffffffffffffffffffffffff021916908373ffffffffffffffffffffffffffffffffffffffff160217905550505062000335565b5f805f9054906101000a900473ffffffffffffffffffffffffffffffffffffffff169050815f806101000a81548173ffffffffffffffffffffffffffffffffffffffff021916908373ffffffffffffffffffffffffffffffffffffffff1602179055508173ffffffffffffffffffffffffffffffffffffffff168173ffffffffffffffffffffffffffffffffffffffff167f8be0079c531659141344cd1fd0a4f28419497f9722a3daafe3b4186f6b6457e060405160405180910390a35050565b5f7f9b779b17422d0df92223018b32b4d1fa46e071723d6817e2486d003becc55f005f1b905090565b5f819050919050565b5f80fd5b5f73ffffffffffffffffffffffffffffffffffffffff82169050919050565b5f6200028e8262000263565b9050919050565b620002a08162000282565b8114620002ab575f80fd5b50565b5f81519050620002be8162000295565b92915050565b5f8060408385031215620002dd57620002dc6200025f565b5b5f620002ec85828601620002ae565b9250506020620002ff85828601620002ae565b9150509250929050565b620003148162000282565b82525050565b5f6020820190506200032f5f83018462000309565b92915050565b61177280620003435f395ff3fe608060405234801561000f575f80fd5b5060043610610091575f3560e01c8063a9212b5b11610064578063a9212b5b1461010b578063b59b117614610127578063d9097dd214610143578063f2fde38b1461015f578063fbfa77cf1461017b57610091565b80636999b37714610095578063715018a6146100b357806372c6838f146100bd5780638da5cb5b146100ed575b5f80fd5b61009d610199565b6040516100aa9190611006565b60405180910390f35b6100bb6101be565b005b6100d760048036038101906100d2919061105a565b6101d1565b6040516100e491906110a5565b60405180910390f35b6100f5610201565b60405161010291906110a5565b60405180910390f35b610125600480360381019061012091906110e8565b610228565b005b610141600480360381019061013c919061105a565b6102bc565b005b61015d6004803603810190610158919061120f565b61034d565b005b610179600480360381019061017491906112c6565b610cc9565b005b610183610d4d565b6040516101909190611311565b60405180910390f35b60025f9054906101000a900473ffffffffffffffffffffffffffffffffffffffff1681565b6101c6610d72565b6101cf5f610df9565b565b6003602052805f5260405f205f915054906101000a900473ffffffffffffffffffffffffffffffffffffffff1681565b5f805f9054906101000a900473ffffffffffffffffffffffffffffffffffffffff16905090565b610230610d72565b8060035f8481526020019081526020015f205f6101000a81548173ffffffffffffffffffffffffffffffffffffffff021916908373ffffffffffffffffffffffffffffffffffffffff1602179055507fffb25df5d2d30d127965307d95064a9c230c5bb55a674df324bf55bf2aa7ef8d82826040516102b0929190611339565b60405180910390a15050565b6102c4610d72565b5f60035f8381526020019081526020015f205f6101000a81548173ffffffffffffffffffffffffffffffffffffffff021916908373ffffffffffffffffffffffffffffffffffffffff1602179055507f93ecc5e9aa51bb2adb2cf429a5108116cf98c4f717f0912d1be98e137ba6ef60816040516103429190611360565b60405180910390a150565b610355610eba565b5f6040518060e001604052808973ffffffffffffffffffffffffffffffffffffffff1681526020018873ffffffffffffffffffffffffffffffffffffffff1681526020018781526020018686808060200260200160405190810160405280939291908181526020018383602002808284375f81840152601f19601f82011690508083019250505050505050815260200184848080601f0160208091040260200160405190810160405280939291908181526020018383808284375f81840152601f19601f8201169050808301925050505050505081526020015f81526020015f73ffffffffffffffffffffffffffffffffffffffff16815250905060015f9054906101000a900473ffffffffffffffffffffffffffffffffffffffff1673ffffffffffffffffffffffffffffffffffffffff1663262709e633835f015184604001516040518463ffffffff1660e01b81526004016104b593929190611388565b5f604051808303815f87803b1580156104cc575f80fd5b505af11580156104de573d5f803e3d5ffd5b505050505f5b81606001515181101561066f575f60035f8460600151848151811061050c5761050b6113bd565b5b602002602001015181526020019081526020015f205f9054906101000a900473ffffffffffffffffffffffffffffffffffffffff1690505f73ffffffffffffffffffffffffffffffffffffffff168173ffffffffffffffffffffffffffffffffffffffff161461065b575f8190508073ffffffffffffffffffffffffffffffffffffffff166343a0a7f2855f01518660200151876040015188608001516040518563ffffffff1660e01b81526004016105c89493929190611474565b6020604051808303815f875af192505050801561060357506040513d601f19601f8201168201806040525081019061060091906114d2565b60015b15610659578460a0015181111561065757808560a0018181525050828560c0019073ffffffffffffffffffffffffffffffffffffffff16908173ffffffffffffffffffffffffffffffffffffffff16815250505b505b505b5080806106679061152a565b9150506104e4565b505f73ffffffffffffffffffffffffffffffffffffffff168160c0015173ffffffffffffffffffffffffffffffffffffffff16036106e2576040517f08c379a00000000000000000000000000000000000000000000000000000000081526004016106d9906115cb565b60405180910390fd5b5f8160c0015173ffffffffffffffffffffffffffffffffffffffff1663b0f479a16040518163ffffffff1660e01b8152600401602060405180830381865afa158015610730573d5f803e3d5ffd5b505050506040513d601f19601f8201168201806040525081019061075491906115fd565b905060015f9054906101000a900473ffffffffffffffffffffffffffffffffffffffff1673ffffffffffffffffffffffffffffffffffffffff1663da3e3397835f01518385604001516040518463ffffffff1660e01b81526004016107bb93929190611388565b5f604051808303815f87803b1580156107d2575f80fd5b505af11580156107e4573d5f803e3d5ffd5b505050505f826020015173ffffffffffffffffffffffffffffffffffffffff166370a0823160015f9054906101000a900473ffffffffffffffffffffffffffffffffffffffff166040518263ffffffff1660e01b815260040161084791906110a5565b602060405180830381865afa158015610862573d5f803e3d5ffd5b505050506040513d601f19601f8201168201806040525081019061088691906114d2565b90508260c0015173ffffffffffffffffffffffffffffffffffffffff166343a0a7f2845f01518560200151866040015187608001516040518563ffffffff1660e01b81526004016108da9493929190611474565b6020604051808303815f875af11580156108f6573d5f803e3d5ffd5b505050506040513d601f19601f8201168201806040525081019061091a91906114d2565b505f81846020015173ffffffffffffffffffffffffffffffffffffffff166370a0823160015f9054906101000a900473ffffffffffffffffffffffffffffffffffffffff166040518263ffffffff1660e01b815260040161097b91906110a5565b602060405180830381865afa158015610996573d5f803e3d5ffd5b505050506040513d601f19601f820116820180604052508101906109ba91906114d2565b6109c49190611628565b905060015f9054906101000a900473ffffffffffffffffffffffffffffffffffffffff1673ffffffffffffffffffffffffffffffffffffffff16633faec084855f0151856040518363ffffffff1660e01b8152600401610a2592919061165b565b5f604051808303815f87803b158015610a3c575f80fd5b505af1158015610a4e573d5f803e3d5ffd5b505050505f805f60025f9054906101000a900473ffffffffffffffffffffffffffffffffffffffff1673ffffffffffffffffffffffffffffffffffffffff166373352ad3885f01518960200151876040518463ffffffff1660e01b8152600401610aba93929190611388565b606060405180830381865afa158015610ad5573d5f803e3d5ffd5b505050506040513d601f19601f82011682018060405250810190610af99190611682565b92509250925060015f9054906101000a900473ffffffffffffffffffffffffffffffffffffffff1673ffffffffffffffffffffffffffffffffffffffff16637de182c5338960200151866040518463ffffffff1660e01b8152600401610b6193929190611388565b5f604051808303815f87803b158015610b78575f80fd5b505af1158015610b8a573d5f803e3d5ffd5b505050505f821115610c245760015f9054906101000a900473ffffffffffffffffffffffffffffffffffffffff1673ffffffffffffffffffffffffffffffffffffffff16632ec0ff6c8860200151846040518363ffffffff1660e01b8152600401610bf69291906116d2565b5f604051808303815f87803b158015610c0d575f80fd5b505af1158015610c1f573d5f803e3d5ffd5b505050505b866020015173ffffffffffffffffffffffffffffffffffffffff16875f015173ffffffffffffffffffffffffffffffffffffffff163373ffffffffffffffffffffffffffffffffffffffff167f0874b2d545cb271cdbda4e093020c452328b24af12382ed62c4d00f5c26709db8a60400151888787604051610ca994939291906116f9565b60405180910390a450505050505050610cc0610edc565b50505050505050565b610cd1610d72565b5f73ffffffffffffffffffffffffffffffffffffffff168173ffffffffffffffffffffffffffffffffffffffff1603610d41575f6040517f1e4fbdf7000000000000000000000000000000000000000000000000000000008152600401610d3891906110a5565b60405180910390fd5b610d4a81610df9565b50565b60015f9054906101000a900473ffffffffffffffffffffffffffffffffffffffff1681565b610d7a610ef6565b73ffffffffffffffffffffffffffffffffffffffff16610d98610201565b73ffffffffffffffffffffffffffffffffffffffff1614610df757610dbb610ef6565b6040517f118cdaa7000000000000000000000000000000000000000000000000000000008152600401610dee91906110a5565b60405180910390fd5b565b5f805f9054906101000a900473ffffffffffffffffffffffffffffffffffffffff169050815f806101000a81548173ffffffffffffffffffffffffffffffffffffffff021916908373ffffffffffffffffffffffffffffffffffffffff1602179055508173ffffffffffffffffffffffffffffffffffffffff168173ffffffffffffffffffffffffffffffffffffffff167f8be0079c531659141344cd1fd0a4f28419497f9722a3daafe3b4186f6b6457e060405160405180910390a35050565b610ec2610efd565b6002610ed4610ecf610f3e565b610f67565b5f0181905550565b6001610eee610ee9610f3e565b610f67565b5f0181905550565b5f33905090565b610f05610f70565b15610f3c576040517f3ee5aeb500000000000000000000000000000000000000000000000000000000815260040160405180910390fd5b565b5f7f9b779b17422d0df92223018b32b4d1fa46e071723d6817e2486d003becc55f005f1b905090565b5f819050919050565b5f6002610f83610f7e610f3e565b610f67565b5f015414905090565b5f73ffffffffffffffffffffffffffffffffffffffff82169050919050565b5f819050919050565b5f610fce610fc9610fc484610f8c565b610fab565b610f8c565b9050919050565b5f610fdf82610fb4565b9050919050565b5f610ff082610fd5565b9050919050565b61100081610fe6565b82525050565b5f6020820190506110195f830184610ff7565b92915050565b5f80fd5b5f80fd5b5f819050919050565b61103981611027565b8114611043575f80fd5b50565b5f8135905061105481611030565b92915050565b5f6020828403121561106f5761106e61101f565b5b5f61107c84828501611046565b91505092915050565b5f61108f82610f8c565b9050919050565b61109f81611085565b82525050565b5f6020820190506110b85f830184611096565b92915050565b6110c781611085565b81146110d1575f80fd5b50565b5f813590506110e2816110be565b92915050565b5f80604083850312156110fe576110fd61101f565b5b5f61110b85828601611046565b925050602061111c858286016110d4565b9150509250929050565b5f819050919050565b61113881611126565b8114611142575f80fd5b50565b5f813590506111538161112f565b92915050565b5f80fd5b5f80fd5b5f80fd5b5f8083601f84011261117a57611179611159565b5b8235905067ffffffffffffffff8111156111975761119661115d565b5b6020830191508360208202830111156111b3576111b2611161565b5b9250929050565b5f8083601f8401126111cf576111ce611159565b5b8235905067ffffffffffffffff8111156111ec576111eb61115d565b5b60208301915083600182028301111561120857611207611161565b5b9250929050565b5f805f805f805f60a0888a03121561122a5761122961101f565b5b5f6112378a828b016110d4565b97505060206112488a828b016110d4565b96505060406112598a828b01611145565b955050606088013567ffffffffffffffff81111561127a57611279611023565b5b6112868a828b01611165565b9450945050608088013567ffffffffffffffff8111156112a9576112a8611023565b5b6112b58a828b016111ba565b925092505092959891949750929550565b5f602082840312156112db576112da61101f565b5b5f6112e8848285016110d4565b91505092915050565b5f6112fb82610fd5565b9050919050565b61130b816112f1565b82525050565b5f6020820190506113245f830184611302565b92915050565b61133381611027565b82525050565b5f60408201905061134c5f83018561132a565b6113596020830184611096565b9392505050565b5f6020820190506113735f83018461132a565b92915050565b61138281611126565b82525050565b5f60608201905061139b5f830186611096565b6113a86020830185611096565b6113b56040830184611379565b949350505050565b7f4e487b71000000000000000000000000000000000000000000000000000000005f52603260045260245ffd5b5f81519050919050565b5f82825260208201905092915050565b5f5b83811015611421578082015181840152602081019050611406565b5f8484015250505050565b5f601f19601f8301169050919050565b5f611446826113ea565b61145081856113f4565b9350611460818560208601611404565b6114698161142c565b840191505092915050565b5f6080820190506114875f830187611096565b6114946020830186611096565b6114a16040830185611379565b81810360608301526114b3818461143c565b905095945050505050565b5f815190506114cc8161112f565b92915050565b5f602082840312156114e7576114e661101f565b5b5f6114f4848285016114be565b91505092915050565b7f4e487b71000000000000000000000000000000000000000000000000000000005f52601160045260245ffd5b5f61153482611126565b91507fffffffffffffffffffffffffffffffffffffffffffffffffffffffffffffffff8203611566576115656114fd565b5b600182019050919050565b5f82825260208201905092915050565b7f4e4f5f56414c49445f41444150544552000000000000000000000000000000005f82015250565b5f6115b5601083611571565b91506115c082611581565b602082019050919050565b5f6020820190508181035f8301526115e2816115a9565b9050919050565b5f815190506115f7816110be565b92915050565b5f602082840312156116125761161161101f565b5b5f61161f848285016115e9565b91505092915050565b5f61163282611126565b915061163d83611126565b9250828203905081811115611655576116546114fd565b5b92915050565b5f60408201905061166e5f830185611096565b61167b6020830184611096565b9392505050565b5f805f606084860312156116995761169861101f565b5b5f6116a6868287016114be565b93505060206116b7868287016114be565b92505060406116c8868287016114be565b9150509250925092565b5f6040820190506116e55f830185611096565b6116f26020830184611379565b9392505050565b5f60808201905061170c5f830187611379565b6117196020830186611379565b6117266040830185611379565b6117336060830184611379565b9594505050505056fea26469706673582212201e9140e16e4e1490565c5e2037f93bab58dbb6fbec94bda6ddec9ce50abef2ee64736f6c63430008140033","linkReferences":{}},"methodIdentifiers":{"adapters(bytes32)":"72c6838f","addAdapter(bytes32,address)":"a9212b5b","feeController()":"6999b377","owner()":"8da5cb5b","removeAdapter(bytes32)":"b59b1176","renounceOwnership()":"715018a6","swap(address,address,uint256,bytes32[],bytes)":"d9097dd2","transferOwnership(address)":"f2fde38b","vault()":"fbfa77cf"},"id":2}