{"abi":[{"type":"constructor","inputs":[{"name":"_vault","type":"address","internalType":"address"},{"name":"_feeController","type":"address","internalType":"address"}],"stateMutability":"nonpayable"},{"type":"function","name":"adapters","inputs":[{"name":"","type":"bytes32","internalType":"bytes32"}],"outputs":[{"name":"","type":"address","internalType":"contract IAdapter"}],"stateMutability":"view"},{"type":"function","name":"addAdapter","inputs":[{"name":"id","type":"bytes32","internalType":"bytes32"},{"name":"adapter","type":"address","internalType":"address"}],"outputs":[],"stateMutability":"nonpayable"},{"type":"function","name":"feeController","inputs":[],"outputs":[{"name":"","type":"address","internalType":"contract FeeController"}],"stateMutability":"view"},{"type":"function","name":"owner","inputs":[],"outputs":[{"name":"","type":"address","internalType":"address"}],"stateMutability":"view"},{"type":"function","name":"removeAdapter","inputs":[{"name":"id","type":"bytes32","internalType":"bytes32"}],"outputs":[],"stateMutability":"nonpayable"},{"type":"function","name":"renounceOwnership","inputs":[],"outputs":[],"stateMutability":"nonpayable"},{"type":"function","name":"swap","inputs":[{"name":"tokenIn","type":"address","internalType":"address"},{"name":"tokenOut","type":"address","internalType":"address"},{"name":"amountIn","type":"uint256","internalType":"uint256"},{"name":"adapterIds","type":"bytes32[]","internalType":"bytes32[]"},{"name":"data","type":"bytes","internalType":"bytes"}],"outputs":[{"name":"amountOut","type":"uint256","internalType":"uint256"}],"stateMutability":"nonpayable"},{"type":"function","name":"transferOwnership","inputs":[{"name":"newOwner","type":"address","internalType":"address"}],"outputs":[],"stateMutability":"nonpayable"},{"type":"function","name":"vault","inputs":[],"outputs":[{"name":"","type":"address","internalType":"contract VaultSpot"}],"stateMutability":"view"},{"type":"function","name":"whitelistedAdapters","inputs":[{"name":"","type":"bytes32","internalType":"bytes32"}],"outputs":[{"name":"","type":"bool","internalType":"bool"}],"stateMutability":"view"},{"type":"event","name":"AdapterAdded","inputs":[{"name":"id","type":"bytes32","indexed":true,"internalType":"bytes32"},{"name":"adapter","type":"address","indexed":true,"internalType":"address"}],"anonymous":false},{"type":"event","name":"AdapterRemoved","inputs":[{"name":"id","type":"bytes32","indexed":true,"internalType":"bytes32"}],"anonymous":false},{"type":"event","name":"OwnershipTransferred","inputs":[{"name":"previousOwner","type":"address","indexed":true,"internalType":"address"},{"name":"newOwner","type":"address","indexed":true,"internalType":"address"}],"anonymous":false},{"type":"event","name":"Swap","inputs":[{"name":"user","type":"address","indexed":true,"internalType":"address"},{"name":"tokenIn","type":"address","indexed":true,"internalType":"address"},{"name":"tokenOut","type":"address","indexed":true,"internalType":"address"},{"name":"amountIn","type":"uint256","indexed":false,"internalType":"uint256"},{"name":"amountOut","type":"uint256","indexed":false,"internalType":"uint256"},{"name":"protocolFee","type":"uint256","indexed":false,"internalType":"uint256"},{"name":"relayerFee","type":"uint256","indexed":false,"internalType":"uint256"}],"anonymous":false},{"type":"error","name":"OwnableInvalidOwner","inputs":[{"name":"owner","type":"address","internalType":"address"}]},{"type":"error","name":"OwnableUnauthorizedAccount","inputs":[{"name":"account","type":"address","internalType":"address"}]},{"type":"error","name":"ReentrancyGuardReentrantCall","inputs":[]},{"type":"error","name":"SafeERC20FailedOperation","inputs":[{"name":"token","type":"address","internalType":"address"}]}],"bytecode":{"object":"0x60c060405234801562000010575f80fd5b5060405162001ebd38038062001ebd8339818101604052810190620000369190620002ac565b335f73ffffffffffffffffffffffffffffffffffffffff168173ffffffffffffffffffffffffffffffffffffffff1603620000aa575f6040517f1e4fbdf7000000000000000000000000000000000000000000000000000000008152600401620000a1919062000302565b60405180910390fd5b620000bb816200015460201b60201c565b506001620000de620000d26200021560201b60201c565b6200023e60201b60201c565b5f01819055508173ffffffffffffffffffffffffffffffffffffffff1660808173ffffffffffffffffffffffffffffffffffffffff16815250508073ffffffffffffffffffffffffffffffffffffffff1660a08173ffffffffffffffffffffffffffffffffffffffff168152505050506200031d565b5f805f9054906101000a900473ffffffffffffffffffffffffffffffffffffffff169050815f806101000a81548173ffffffffffffffffffffffffffffffffffffffff021916908373ffffffffffffffffffffffffffffffffffffffff1602179055508173ffffffffffffffffffffffffffffffffffffffff168173ffffffffffffffffffffffffffffffffffffffff167f8be0079c531659141344cd1fd0a4f28419497f9722a3daafe3b4186f6b6457e060405160405180910390a35050565b5f7f9b779b17422d0df92223018b32b4d1fa46e071723d6817e2486d003becc55f005f1b905090565b5f819050919050565b5f80fd5b5f73ffffffffffffffffffffffffffffffffffffffff82169050919050565b5f62000276826200024b565b9050919050565b62000288816200026a565b811462000293575f80fd5b50565b5f81519050620002a6816200027d565b92915050565b5f8060408385031215620002c557620002c462000247565b5b5f620002d48582860162000296565b9250506020620002e78582860162000296565b9150509250929050565b620002fc816200026a565b82525050565b5f602082019050620003175f830184620002f1565b92915050565b60805160a051611b46620003775f395f8181610207015261061901525f8181610572015281816106bd01528181610705015281816107970152818161093e01528181610acc01528181610b590152610ba30152611b465ff3fe608060405234801561000f575f80fd5b506004361061009c575f3560e01c8063a9212b5b11610064578063a9212b5b14610146578063b59b117614610162578063d9097dd21461017e578063f2fde38b146101ae578063fbfa77cf146101ca5761009c565b80632c4e9939146100a05780636999b377146100d0578063715018a6146100ee57806372c6838f146100f85780638da5cb5b14610128575b5f80fd5b6100ba60048036038101906100b5919061118b565b6101e8565b6040516100c791906111d0565b60405180910390f35b6100d8610205565b6040516100e59190611263565b60405180910390f35b6100f6610229565b005b610112600480360381019061010d919061118b565b61023c565b60405161011f919061129c565b60405180910390f35b61013061026c565b60405161013d91906112d5565b60405180910390f35b610160600480360381019061015b9190611318565b610293565b005b61017c6004803603810190610177919061118b565b6103f9565b005b6101986004803603810190610193919061143f565b610522565b6040516101a59190611505565b60405180910390f35b6101c860048036038101906101c3919061151e565b6108b8565b005b6101d261093c565b6040516101df9190611569565b60405180910390f35b6002602052805f5260405f205f915054906101000a900460ff1681565b7f000000000000000000000000000000000000000000000000000000000000000081565b610231610960565b61023a5f6109e7565b565b6001602052805f5260405f205f915054906101000a900473ffffffffffffffffffffffffffffffffffffffff1681565b5f805f9054906101000a900473ffffffffffffffffffffffffffffffffffffffff16905090565b61029b610960565b5f73ffffffffffffffffffffffffffffffffffffffff1660015f8481526020019081526020015f205f9054906101000a900473ffffffffffffffffffffffffffffffffffffffff1673ffffffffffffffffffffffffffffffffffffffff1614610339576040517f08c379a0000000000000000000000000000000000000000000000000000000008152600401610330906115dc565b60405180910390fd5b8060015f8481526020019081526020015f205f6101000a81548173ffffffffffffffffffffffffffffffffffffffff021916908373ffffffffffffffffffffffffffffffffffffffff160217905550600160025f8481526020019081526020015f205f6101000a81548160ff0219169083151502179055508073ffffffffffffffffffffffffffffffffffffffff16827fffb25df5d2d30d127965307d95064a9c230c5bb55a674df324bf55bf2aa7ef8d60405160405180910390a35050565b610401610960565b5f73ffffffffffffffffffffffffffffffffffffffff1660015f8381526020019081526020015f205f9054906101000a900473ffffffffffffffffffffffffffffffffffffffff1673ffffffffffffffffffffffffffffffffffffffff160361049f576040517f08c379a000000000000000000000000000000000000000000000000000000000815260040161049690611644565b60405180910390fd5b60015f8281526020019081526020015f205f6101000a81549073ffffffffffffffffffffffffffffffffffffffff021916905560025f8281526020019081526020015f205f6101000a81549060ff0219169055807f93ecc5e9aa51bb2adb2cf429a5108116cf98c4f717f0912d1be98e137ba6ef6060405160405180910390a250565b5f61052b610aa8565b5f8585905011610570576040517f08c379a0000000000000000000000000000000000000000000000000000000008152600401610567906116d2565b60405180910390fd5b7f000000000000000000000000000000000000000000000000000000000000000073ffffffffffffffffffffffffffffffffffffffff1663262709e6338a896040518463ffffffff1660e01b81526004016105cd939291906116f0565b5f604051808303815f87803b1580156105e4575f80fd5b505af11580156105f6573d5f803e3d5ffd5b505050506106048887610aca565b61061388888888888888610c2d565b90505f807f000000000000000000000000000000000000000000000000000000000000000073ffffffffffffffffffffffffffffffffffffffff166373352ad38b8b866040518463ffffffff1660e01b8152600401610674939291906116f0565b606060405180830381865afa15801561068f573d5f803e3d5ffd5b505050506040513d601f19601f820116820180604052508101906106b39190611739565b50915091506107037f0000000000000000000000000000000000000000000000000000000000000000848b73ffffffffffffffffffffffffffffffffffffffff16610f259092919063ffffffff16565b7f000000000000000000000000000000000000000000000000000000000000000073ffffffffffffffffffffffffffffffffffffffff16637de182c5338b856040518463ffffffff1660e01b8152600401610760939291906116f0565b5f604051808303815f87803b158015610777575f80fd5b505af1158015610789573d5f803e3d5ffd5b505050505f81111561081e577f000000000000000000000000000000000000000000000000000000000000000073ffffffffffffffffffffffffffffffffffffffff16632ec0ff6c8a836040518363ffffffff1660e01b81526004016107f0929190611789565b5f604051808303815f87803b158015610807575f80fd5b505af1158015610819573d5f803e3d5ffd5b505050505b8873ffffffffffffffffffffffffffffffffffffffff168a73ffffffffffffffffffffffffffffffffffffffff163373ffffffffffffffffffffffffffffffffffffffff167f0874b2d545cb271cdbda4e093020c452328b24af12382ed62c4d00f5c26709db8b87865f60405161089894939291906117e9565b60405180910390a481925050506108ad610f78565b979650505050505050565b6108c0610960565b5f73ffffffffffffffffffffffffffffffffffffffff168173ffffffffffffffffffffffffffffffffffffffff1603610930575f6040517f1e4fbdf700000000000000000000000000000000000000000000000000000000815260040161092791906112d5565b60405180910390fd5b610939816109e7565b50565b7f000000000000000000000000000000000000000000000000000000000000000081565b610968610f92565b73ffffffffffffffffffffffffffffffffffffffff1661098661026c565b73ffffffffffffffffffffffffffffffffffffffff16146109e5576109a9610f92565b6040517f118cdaa70000000000000000000000000000000000000000000000000000000081526004016109dc91906112d5565b60405180910390fd5b565b5f805f9054906101000a900473ffffffffffffffffffffffffffffffffffffffff169050815f806101000a81548173ffffffffffffffffffffffffffffffffffffffff021916908373ffffffffffffffffffffffffffffffffffffffff1602179055508173ffffffffffffffffffffffffffffffffffffffff168173ffffffffffffffffffffffffffffffffffffffff167f8be0079c531659141344cd1fd0a4f28419497f9722a3daafe3b4186f6b6457e060405160405180910390a35050565b610ab0610f99565b6002610ac2610abd610fda565b611003565b5f0181905550565b7f000000000000000000000000000000000000000000000000000000000000000073ffffffffffffffffffffffffffffffffffffffff1663da3e33978330846040518463ffffffff1660e01b8152600401610b27939291906116f0565b5f604051808303815f87803b158015610b3e575f80fd5b505af1158015610b50573d5f803e3d5ffd5b50505050610ba17f000000000000000000000000000000000000000000000000000000000000000030838573ffffffffffffffffffffffffffffffffffffffff1661100c909392919063ffffffff16565b7f000000000000000000000000000000000000000000000000000000000000000073ffffffffffffffffffffffffffffffffffffffff16633faec08483306040518363ffffffff1660e01b8152600401610bfc92919061182c565b5f604051808303815f87803b158015610c13575f80fd5b505af1158015610c25573d5f803e3d5ffd5b505050505050565b5f805f90505f805f90505b87879050811015610d59575f888883818110610c5757610c56611853565b5b90506020020135905060025f8281526020019081526020015f205f9054906101000a900460ff16610c885750610d48565b60015f8281526020019081526020015f205f9054906101000a900473ffffffffffffffffffffffffffffffffffffffff1673ffffffffffffffffffffffffffffffffffffffff1663b64663848d8d8d6040518463ffffffff1660e01b8152600401610cf5939291906116f0565b6020604051808303815f875af1925050508015610d3057506040513d601f19601f82011682018060405250810190610d2d9190611880565b60015b15610d465784811115610d44578094508193505b505b505b80610d52906118d8565b9050610c38565b505f8211610d9c576040517f08c379a0000000000000000000000000000000000000000000000000000000008152600401610d9390611969565b60405180910390fd5b5f60015f8381526020019081526020015f205f9054906101000a900473ffffffffffffffffffffffffffffffffffffffff1690508a73ffffffffffffffffffffffffffffffffffffffff1663095ea7b3828b6040518363ffffffff1660e01b8152600401610e0b929190611789565b6020604051808303815f875af1158015610e27573d5f803e3d5ffd5b505050506040513d601f19601f82011682018060405250810190610e4b91906119b1565b505f8173ffffffffffffffffffffffffffffffffffffffff166343a0a7f28d8d8d8b8b6040518663ffffffff1660e01b8152600401610e8e959493929190611a36565b6020604051808303815f875af1158015610eaa573d5f803e3d5ffd5b505050506040513d601f19601f82011682018060405250810190610ece9190611880565b905083811015610f13576040517f08c379a0000000000000000000000000000000000000000000000000000000008152600401610f0a90611af2565b60405180910390fd5b80945050505050979650505050505050565b610f328383836001611061565b610f7357826040517f5274afe7000000000000000000000000000000000000000000000000000000008152600401610f6a91906112d5565b60405180910390fd5b505050565b6001610f8a610f85610fda565b611003565b5f0181905550565b5f33905090565b610fa16110c3565b15610fd8576040517f3ee5aeb500000000000000000000000000000000000000000000000000000000815260040160405180910390fd5b565b5f7f9b779b17422d0df92223018b32b4d1fa46e071723d6817e2486d003becc55f005f1b905090565b5f819050919050565b61101a8484848460016110df565b61105b57836040517f5274afe700000000000000000000000000000000000000000000000000000000815260040161105291906112d5565b60405180910390fd5b50505050565b5f8063a9059cbb60e01b9050604051815f525f1960601c86166004528460245260205f60445f808b5af1925060015f511483166110b55783831516156110a9573d5f823e3d81fd5b5f873b113d1516831692505b806040525050949350505050565b5f60026110d66110d1610fda565b611003565b5f015414905090565b5f806323b872dd60e01b9050604051815f525f1960601c87166004525f1960601c86166024528460445260205f60645f808c5af1925060015f5114831661113d578383151615611131573d5f823e3d81fd5b5f883b113d1516831692505b806040525f606052505095945050505050565b5f80fd5b5f80fd5b5f819050919050565b61116a81611158565b8114611174575f80fd5b50565b5f8135905061118581611161565b92915050565b5f602082840312156111a05761119f611150565b5b5f6111ad84828501611177565b91505092915050565b5f8115159050919050565b6111ca816111b6565b82525050565b5f6020820190506111e35f8301846111c1565b92915050565b5f73ffffffffffffffffffffffffffffffffffffffff82169050919050565b5f819050919050565b5f61122b611226611221846111e9565b611208565b6111e9565b9050919050565b5f61123c82611211565b9050919050565b5f61124d82611232565b9050919050565b61125d81611243565b82525050565b5f6020820190506112765f830184611254565b92915050565b5f61128682611232565b9050919050565b6112968161127c565b82525050565b5f6020820190506112af5f83018461128d565b92915050565b5f6112bf826111e9565b9050919050565b6112cf816112b5565b82525050565b5f6020820190506112e85f8301846112c6565b92915050565b6112f7816112b5565b8114611301575f80fd5b50565b5f81359050611312816112ee565b92915050565b5f806040838503121561132e5761132d611150565b5b5f61133b85828601611177565b925050602061134c85828601611304565b9150509250929050565b5f819050919050565b61136881611356565b8114611372575f80fd5b50565b5f813590506113838161135f565b92915050565b5f80fd5b5f80fd5b5f80fd5b5f8083601f8401126113aa576113a9611389565b5b8235905067ffffffffffffffff8111156113c7576113c661138d565b5b6020830191508360208202830111156113e3576113e2611391565b5b9250929050565b5f8083601f8401126113ff576113fe611389565b5b8235905067ffffffffffffffff81111561141c5761141b61138d565b5b60208301915083600182028301111561143857611437611391565b5b9250929050565b5f805f805f805f60a0888a03121561145a57611459611150565b5b5f6114678a828b01611304565b97505060206114788a828b01611304565b96505060406114898a828b01611375565b955050606088013567ffffffffffffffff8111156114aa576114a9611154565b5b6114b68a828b01611395565b9450945050608088013567ffffffffffffffff8111156114d9576114d8611154565b5b6114e58a828b016113ea565b925092505092959891949750929550565b6114ff81611356565b82525050565b5f6020820190506115185f8301846114f6565b92915050565b5f6020828403121561153357611532611150565b5b5f61154084828501611304565b91505092915050565b5f61155382611232565b9050919050565b61156381611549565b82525050565b5f60208201905061157c5f83018461155a565b92915050565b5f82825260208201905092915050565b7f4164617074657220616c726561647920657869737473000000000000000000005f82015250565b5f6115c6601683611582565b91506115d182611592565b602082019050919050565b5f6020820190508181035f8301526115f3816115ba565b9050919050565b7f4164617074657220646f6573206e6f74206578697374000000000000000000005f82015250565b5f61162e601683611582565b9150611639826115fa565b602082019050919050565b5f6020820190508181035f83015261165b81611622565b9050919050565b7f4d7573742073706563696679206174206c65617374206f6e65206164617074655f8201527f7200000000000000000000000000000000000000000000000000000000000000602082015250565b5f6116bc602183611582565b91506116c782611662565b604082019050919050565b5f6020820190508181035f8301526116e9816116b0565b9050919050565b5f6060820190506117035f8301866112c6565b61171060208301856112c6565b61171d60408301846114f6565b949350505050565b5f815190506117338161135f565b92915050565b5f805f606084860312156117505761174f611150565b5b5f61175d86828701611725565b935050602061176e86828701611725565b925050604061177f86828701611725565b9150509250925092565b5f60408201905061179c5f8301856112c6565b6117a960208301846114f6565b9392505050565b5f819050919050565b5f6117d36117ce6117c9846117b0565b611208565b611356565b9050919050565b6117e3816117b9565b82525050565b5f6080820190506117fc5f8301876114f6565b61180960208301866114f6565b61181660408301856114f6565b61182360608301846117da565b95945050505050565b5f60408201905061183f5f8301856112c6565b61184c60208301846112c6565b9392505050565b7f4e487b71000000000000000000000000000000000000000000000000000000005f52603260045260245ffd5b5f6020828403121561189557611894611150565b5b5f6118a284828501611725565b91505092915050565b7f4e487b71000000000000000000000000000000000000000000000000000000005f52601160045260245ffd5b5f6118e282611356565b91507fffffffffffffffffffffffffffffffffffffffffffffffffffffffffffffffff8203611914576119136118ab565b5b600182019050919050565b7f4e6f2076616c69642071756f746520666f756e640000000000000000000000005f82015250565b5f611953601483611582565b915061195e8261191f565b602082019050919050565b5f6020820190508181035f83015261198081611947565b9050919050565b611990816111b6565b811461199a575f80fd5b50565b5f815190506119ab81611987565b92915050565b5f602082840312156119c6576119c5611150565b5b5f6119d38482850161199d565b91505092915050565b5f82825260208201905092915050565b828183375f83830152505050565b5f601f19601f8301169050919050565b5f611a1583856119dc565b9350611a228385846119ec565b611a2b836119fa565b840190509392505050565b5f608082019050611a495f8301886112c6565b611a5660208301876112c6565b611a6360408301866114f6565b8181036060830152611a76818486611a0a565b90509695505050505050565b7f5377617020657865637574696f6e206661696c656420746f206d6565742071755f8201527f6f74650000000000000000000000000000000000000000000000000000000000602082015250565b5f611adc602383611582565b9150611ae782611a82565b604082019050919050565b5f6020820190508181035f830152611b0981611ad0565b905091905056fea26469706673582212209e1eb5aaf583fff2ed4208d210ac800e010d9b29c710f6cbb64b06a53bb8527c64736f6c63430008140033","linkReferences":{}},"methodIdentifiers":{"adapters(bytes32)":"72c6838f","addAdapter(bytes32,address)":"a9212b5b","feeController()":"6999b377","owner()":"8da5cb5b","removeAdapter(bytes32)":"b59b1176","renounceOwnership()":"715018a6","swap(address,address,uint256,bytes32[],bytes)":"d9097dd2","transferOwnership(address)":"f2fde38b","vault()":"fbfa77cf","whitelistedAdapters(bytes32)":"2c4e9939"},"id":1}