{"abi":[{"type":"constructor","inputs":[{"name":"_vault","type":"address","internalType":"address"},{"name":"_feeController","type":"address","internalType":"address"}],"stateMutability":"nonpayable"},{"type":"function","name":"adapters","inputs":[{"name":"","type":"bytes32","internalType":"bytes32"}],"outputs":[{"name":"","type":"address","internalType":"contract IAdapter"}],"stateMutability":"view"},{"type":"function","name":"addAdapter","inputs":[{"name":"id","type":"bytes32","internalType":"bytes32"},{"name":"adapter","type":"address","internalType":"address"}],"outputs":[],"stateMutability":"nonpayable"},{"type":"function","name":"feeController","inputs":[],"outputs":[{"name":"","type":"address","internalType":"contract FeeController"}],"stateMutability":"view"},{"type":"function","name":"owner","inputs":[],"outputs":[{"name":"","type":"address","internalType":"address"}],"stateMutability":"view"},{"type":"function","name":"removeAdapter","inputs":[{"name":"id","type":"bytes32","internalType":"bytes32"}],"outputs":[],"stateMutability":"nonpayable"},{"type":"function","name":"renounceOwnership","inputs":[],"outputs":[],"stateMutability":"nonpayable"},{"type":"function","name":"swap","inputs":[{"name":"tokenIn","type":"address","internalType":"address"},{"name":"tokenOut","type":"address","internalType":"address"},{"name":"amountIn","type":"uint256","internalType":"uint256"},{"name":"adapterIds","type":"bytes32[]","internalType":"bytes32[]"},{"name":"data","type":"bytes","internalType":"bytes"}],"outputs":[{"name":"amountOut","type":"uint256","internalType":"uint256"}],"stateMutability":"nonpayable"},{"type":"function","name":"transferOwnership","inputs":[{"name":"newOwner","type":"address","internalType":"address"}],"outputs":[],"stateMutability":"nonpayable"},{"type":"function","name":"vault","inputs":[],"outputs":[{"name":"","type":"address","internalType":"contract VaultSpot"}],"stateMutability":"view"},{"type":"function","name":"whitelistedAdapters","inputs":[{"name":"","type":"bytes32","internalType":"bytes32"}],"outputs":[{"name":"","type":"bool","internalType":"bool"}],"stateMutability":"view"},{"type":"event","name":"AdapterAdded","inputs":[{"name":"id","type":"bytes32","indexed":true,"internalType":"bytes32"},{"name":"adapter","type":"address","indexed":true,"internalType":"address"}],"anonymous":false},{"type":"event","name":"AdapterRemoved","inputs":[{"name":"id","type":"bytes32","indexed":true,"internalType":"bytes32"}],"anonymous":false},{"type":"event","name":"OwnershipTransferred","inputs":[{"name":"previousOwner","type":"address","indexed":true,"internalType":"address"},{"name":"newOwner","type":"address","indexed":true,"internalType":"address"}],"anonymous":false},{"type":"event","name":"Swap","inputs":[{"name":"user","type":"address","indexed":true,"internalType":"address"},{"name":"tokenIn","type":"address","indexed":true,"internalType":"address"},{"name":"tokenOut","type":"address","indexed":true,"internalType":"address"},{"name":"amountIn","type":"uint256","indexed":false,"internalType":"uint256"},{"name":"amountOut","type":"uint256","indexed":false,"internalType":"uint256"},{"name":"protocolFee","type":"uint256","indexed":false,"internalType":"uint256"},{"name":"relayerFee","type":"uint256","indexed":false,"internalType":"uint256"}],"anonymous":false},{"type":"error","name":"OwnableInvalidOwner","inputs":[{"name":"owner","type":"address","internalType":"address"}]},{"type":"error","name":"OwnableUnauthorizedAccount","inputs":[{"name":"account","type":"address","internalType":"address"}]},{"type":"error","name":"ReentrancyGuardReentrantCall","inputs":[]},{"type":"error","name":"SafeERC20FailedOperation","inputs":[{"name":"token","type":"address","internalType":"address"}]}],"bytecode":{"object":"0x60c0604052346100735761001a610014610147565b906101b8565b610022610078565b611e9661048582396080518181816106aa01528181610fb80152818161107d015281816110ad015281816114c601528181611551015261158a015260a0518181816101f00152610f320152611e9690f35b61007e565b60405190565b5f80fd5b601f801991011690565b634e487b7160e01b5f52604160045260245ffd5b906100aa90610082565b810190811060018060401b038211176100c257604052565b61008c565b906100da6100d3610078565b92836100a0565b565b5f80fd5b60018060a01b031690565b6100f4906100e0565b90565b610100816100eb565b0361010757565b5f80fd5b90505190610118826100f7565b565b9190604083820312610142578061013661013f925f860161010b565b9360200161010b565b90565b6100dc565b61016561231b8038038061015a816100c7565b92833981019061011a565b9091565b90565b61018061017b610185926100e0565b610169565b6100e0565b90565b6101919061016c565b90565b61019d90610188565b90565b6101a99061016c565b90565b6101b5906101a0565b90565b906101ce6101d6926101c933610264565b610194565b6080526101ac565b60a052565b90565b90565b6101f56101f06101fa926101db565b610169565b6101de565b90565b61020760016101e1565b90565b5f1b90565b9061021b5f199161020a565b9181191691161790565b61023961023461023e926101de565b610169565b6101de565b90565b90565b9061025961025461026092610225565b610241565b825461020f565b9055565b61026d906102de565b61028f6102786101fd565b5f610289610284610382565b610396565b01610244565b565b90565b6102a86102a36102ad92610291565b610169565b6100e0565b90565b6102b990610294565b90565b6102c5906100eb565b9052565b91906102dc905f602085019401906102bc565b565b806102f96102f36102ee5f6102b0565b6100eb565b916100eb565b146103095761030790610425565b565b61032c6103155f6102b0565b5f918291631e4fbdf760e01b8352600483016102c9565b0390fd5b5f90565b90565b90565b61034e61034961035392610334565b61020a565b610337565b90565b61037f7f9b779b17422d0df92223018b32b4d1fa46e071723d6817e2486d003becc55f0061033a565b90565b61038a610330565b50610393610356565b90565b90565b5f1c90565b60018060a01b031690565b6103b56103ba91610399565b61039e565b90565b6103c790546103a9565b90565b906103db60018060a01b039161020a565b9181191691161790565b6103ee9061016c565b90565b6103fa906103e5565b90565b90565b9061041561041061041c926103f1565b6103fd565b82546103ca565b9055565b5f0190565b61042e5f6103bd565b610438825f610400565b9061046c6104667f8be0079c531659141344cd1fd0a4f28419497f9722a3daafe3b4186f6b6457e0936103f1565b916103f1565b91610475610078565b8061047f81610420565b0390a356fe60806040526004361015610013575b61072f565b61001d5f356100bc565b80632c4e9939146100b75780636999b377146100b2578063715018a6146100ad57806372c6838f146100a85780638da5cb5b146100a3578063a9212b5b1461009e578063b59b117614610099578063d9097dd214610094578063f2fde38b1461008f5763fbfa77cf0361000e576106fa565b610675565b61061b565b61048d565b610459565b6103d4565b610371565b6102b0565b610276565b6101aa565b60e01c90565b60405190565b5f80fd5b5f80fd5b5f80fd5b90565b6100e0816100d4565b036100e757565b5f80fd5b905035906100f8826100d7565b565b9060208282031261011357610110915f016100eb565b90565b6100cc565b610121906100d4565b90565b9061012e90610118565b5f5260205260405f2090565b1c90565b60ff1690565b610154906008610159930261013a565b61013e565b90565b906101679154610144565b90565b6101809061017b6002915f92610124565b61015c565b90565b151590565b61019190610183565b9052565b91906101a8905f60208501940190610188565b565b346101da576101d66101c56101c03660046100fa565b61016a565b6101cd6100c2565b91829182610195565b0390f35b6100c8565b5f9103126101e957565b6100cc565b7f000000000000000000000000000000000000000000000000000000000000000090565b60018060a01b031690565b90565b61023461022f61023992610212565b61021d565b610212565b90565b61024590610220565b90565b6102519061023c565b90565b61025d90610248565b9052565b9190610274905f60208501940190610254565b565b346102a6576102863660046101df565b6102a26102916101ee565b6102996100c2565b91829182610261565b0390f35b6100c8565b5f0190565b346102de576102c03660046101df565b6102c8610783565b6102d06100c2565b806102da816102ab565b0390f35b6100c8565b906102ed90610118565b5f5260205260405f2090565b60018060a01b031690565b610314906008610319930261013a565b6102f9565b90565b906103279154610304565b90565b6103409061033b6001915f926102e3565b61031c565b90565b61034c9061023c565b90565b61035890610343565b9052565b919061036f905f6020850194019061034f565b565b346103a15761039d61038c6103873660046100fa565b61032a565b6103946100c2565b9182918261035c565b0390f35b6100c8565b6103af90610212565b90565b6103bb906103a6565b9052565b91906103d2905f602085019401906103b2565b565b34610404576103e43660046101df565b6104006103ef6107c2565b6103f76100c2565b918291826103bf565b0390f35b6100c8565b610412816103a6565b0361041957565b5f80fd5b9050359061042a82610409565b565b91906040838203126104545780610448610451925f86016100eb565b9360200161041d565b90565b6100cc565b346104885761047261046c36600461042c565b90610a19565b61047a6100c2565b80610484816102ab565b0390f35b6100c8565b346104bb576104a56104a03660046100fa565b610c2d565b6104ad6100c2565b806104b7816102ab565b0390f35b6100c8565b90565b6104cc816104c0565b036104d357565b5f80fd5b905035906104e4826104c3565b565b5f80fd5b5f80fd5b5f80fd5b909182601f8301121561052c5781359167ffffffffffffffff831161052757602001926020830284011161052257565b6104ee565b6104ea565b6104e6565b909182601f8301121561056b5781359167ffffffffffffffff831161056657602001926001830284011161056157565b6104ee565b6104ea565b6104e6565b909160a0828403126105f457610588835f840161041d565b92610596816020850161041d565b926105a482604083016104d7565b92606082013567ffffffffffffffff81116105ef57836105c59184016104f2565b929093608082013567ffffffffffffffff81116105ea576105e69201610531565b9091565b6100d0565b6100d0565b6100cc565b610602906104c0565b9052565b9190610619905f602085019401906105f9565b565b346106525761064e61063d610631366004610570565b9594909493919361123a565b6106456100c2565b91829182610606565b0390f35b6100c8565b906020828203126106705761066d915f0161041d565b90565b6100cc565b346106a35761068d610688366004610657565b6112b9565b6106956100c2565b8061069f816102ab565b0390f35b6100c8565b7f000000000000000000000000000000000000000000000000000000000000000090565b6106d59061023c565b90565b6106e1906106cc565b9052565b91906106f8905f602085019401906106d8565b565b3461072a5761070a3660046101df565b6107266107156106a8565b61071d6100c2565b918291826106e5565b0390f35b6100c8565b5f80fd5b61073b6112c4565b610743610770565b565b90565b61075c61075761076192610745565b61021d565b610212565b90565b61076d90610748565b90565b61078161077c5f610764565b611335565b565b61078b610733565b565b5f90565b5f1c90565b60018060a01b031690565b6107ad6107b291610791565b610796565b90565b6107bf90546107a1565b90565b6107ca61078d565b506107d45f6107b5565b90565b906107e9916107e46112c4565b61095b565b565b6107f76107fc91610791565b6102f9565b90565b61080990546107eb565b90565b61081590610220565b90565b6108219061080c565b90565b61082d906103a6565b90565b60209181520190565b5f7f4164617074657220616c72656164792065786973747300000000000000000000910152565b61086d6016602092610830565b61087681610839565b0190565b61088f9060208101905f818303910152610860565b90565b1561089957565b6108a16100c2565b62461bcd60e51b8152806108b76004820161087a565b0390fd5b5f1b90565b906108d160018060a01b03916108bb565b9181191691161790565b6108e49061080c565b90565b90565b906108ff6108fa610906926108db565b6108e7565b82546108c0565b9055565b9061091660ff916108bb565b9181191691161790565b61092990610183565b90565b90565b9061094461093f61094b92610920565b61092c565b825461090a565b9055565b6109589061023c565b90565b61099a61097261096d600184906102e3565b6107ff565b61099461098e6109896109845f610764565b610818565b610824565b91610824565b14610892565b6109b76109a683610818565b6109b2600184906102e3565b6108ea565b6109cd60016109c860028490610124565b61092f565b90610a016109fb7fffb25df5d2d30d127965307d95064a9c230c5bb55a674df324bf55bf2aa7ef8d93610118565b9161094f565b91610a0a6100c2565b80610a14816102ab565b0390a3565b90610a23916107d7565b565b610a3690610a316112c4565b610b81565b565b5f7f4164617074657220646f6573206e6f7420657869737400000000000000000000910152565b610a6c6016602092610830565b610a7581610a38565b0190565b610a8e9060208101905f818303910152610a5f565b90565b15610a9857565b610aa06100c2565b62461bcd60e51b815280610ab660048201610a79565b0390fd5b1b90565b91906008610ade910291610ad860018060a01b0384610aba565b92610aba565b9181191691161790565b9190610afe610af9610b06936108db565b6108e7565b908354610abe565b9055565b5f90565b610b2091610b1a610b0a565b91610ae8565b565b91906008610b3d910291610b3760ff84610aba565b92610aba565b9181191691161790565b9190610b5d610b58610b6593610920565b61092c565b908354610b22565b9055565b5f90565b610b7f91610b79610b69565b91610b47565b565b610bc1610b98610b93600184906102e3565b6107ff565b610bba610bb4610baf610baa5f610764565b610818565b610824565b91610824565b1415610a91565b610bd65f610bd1600184906102e3565b610b0e565b610beb5f610be660028490610124565b610b6d565b610c157f93ecc5e9aa51bb2adb2cf429a5108116cf98c4f717f0912d1be98e137ba6ef6091610118565b90610c1e6100c2565b80610c28816102ab565b0390a2565b610c3690610a25565b565b5f90565b90610c5497969594939291610c4f611415565b610efd565b90610c5d61146d565b565b5090565b610c77610c72610c7c92610745565b61021d565b6104c0565b90565b60207f7200000000000000000000000000000000000000000000000000000000000000917f4d7573742073706563696679206174206c65617374206f6e65206164617074655f8201520152565b610cd96021604092610830565b610ce281610c7f565b0190565b610cfb9060208101905f818303910152610ccc565b90565b15610d0557565b610d0d6100c2565b62461bcd60e51b815280610d2360048201610ce6565b0390fd5b5f80fd5b601f801991011690565b634e487b7160e01b5f52604160045260245ffd5b90610d5390610d2b565b810190811067ffffffffffffffff821117610d6d57604052565b610d35565b60e01b90565b90505190610d85826104c3565b565b90505190610d9482610409565b565b9190604083820312610dbe5780610db2610dbb925f8601610d78565b93602001610d87565b90565b6100cc565b90959492610e0e94610dfd610e0792610df3608096610de960a088019c5f8901906103b2565b60208701906103b2565b60408501906103b2565b60608301906105f9565b01906103b2565b565b610e186100c2565b3d5f823e3d90fd5b5f910312610e2a57565b6100cc565b604090610e58610e5f9496959396610e4e60608401985f8501906103b2565b60208301906103b2565b01906105f9565b565b610e6a90610220565b90565b610e7690610e61565b90565b634e487b7160e01b5f52601160045260245ffd5b610e9c610ea2919392936104c0565b926104c0565b8203918211610ead57565b610e79565b610ebb90610c63565b9052565b610ef4610efb94610eea606094989795610ee0608086019a5f8701906105f9565b60208501906105f9565b60408301906105f9565b0190610eb2565b565b969096949294939193508183610f1291610c5f565b5f610f1c90610c63565b90610f26906104c0565b11610f3090610cfe565b7f0000000000000000000000000000000000000000000000000000000000000000610f5a90610248565b9563a029451696339789908799895f610f7290610764565b90610f7b6100c2565b9c8d95610f888796610d72565b86526004860194610f9895610dc3565b03815a93604094fa8015611235575f80989091611202575b509693610fdc7f00000000000000000000000000000000000000000000000000000000000000006106cc565b9463262709e6338b978a92813b156111fd575f61100c9161101782966110006100c2565b9d8e9788968795610d72565b855260048501610e2f565b03925af19586156111f85761106b966111cc575b506110378a89906114c0565b8861104a6110445f610c63565b916104c0565b116111b1575b5061105c878990610e8d565b93899487909192939495611950565b936110a861107883610e6d565b6110a17f00000000000000000000000000000000000000000000000000000000000000006106cc565b8791611678565b6110d17f00000000000000000000000000000000000000000000000000000000000000006106cc565b637de182c53384928892813b156111ac575f6111009161110b82966110f46100c2565b98899788968795610d72565b855260048501610e2f565b03925af180156111a75761117b575b5033909192938590946111755f61116361115d6111577f0874b2d545cb271cdbda4e093020c452328b24af12382ed62c4d00f5c26709db9761094f565b9761094f565b9761094f565b9761116c6100c2565b94859485610ebf565b0390a490565b61119a905f3d81116111a0575b6111928183610d49565b810190610e20565b5f61111a565b503d611188565b610e10565b610d27565b6111c6906111be8b610e6d565b908a91611678565b5f611050565b6111eb905f3d81116111f1575b6111e38183610d49565b810190610e20565b5f61102b565b503d6111d9565b610e10565b610d27565b905061122691975060403d811161122e575b61121e8183610d49565b810190610d96565b96905f610fb0565b503d611214565b610e10565b9061125196959493929161124c610c38565b610c3c565b90565b611265906112606112c4565b611267565b565b8061128261127c6112775f610764565b6103a6565b916103a6565b146112925761129090611335565b565b6112b561129e5f610764565b5f918291631e4fbdf760e01b8352600483016103bf565b0390fd5b6112c290611254565b565b6112cc6107c2565b6112e56112df6112da611c35565b6103a6565b916103a6565b036112ec57565b61130e6112f7611c35565b5f91829163118cdaa760e01b8352600483016103bf565b0390fd5b90565b9061132a6113256113319261094f565b611312565b82546108c0565b9055565b61133e5f6107b5565b611348825f611315565b9061137c6113767f8be0079c531659141344cd1fd0a4f28419497f9722a3daafe3b4186f6b6457e09361094f565b9161094f565b916113856100c2565b8061138f816102ab565b0390a3565b90565b6113ab6113a66113b092611394565b61021d565b6104c0565b90565b6113bd6002611397565b90565b906113cc5f19916108bb565b9181191691161790565b6113ea6113e56113ef926104c0565b61021d565b6104c0565b90565b90565b9061140a611405611411926113d6565b6113f2565b82546113c0565b9055565b61141d611c42565b61143f6114286113b3565b5f611439611434611cb7565b611ccb565b016113f5565b565b90565b61145861145361145d92611441565b61021d565b6104c0565b90565b61146a6001611444565b90565b61148f611478611460565b5f611489611484611cb7565b611ccb565b016113f5565b565b61149a9061023c565b90565b9160206114be9294936114b760408201965f8301906103b2565b01906103b2565b565b906114ea7f00000000000000000000000000000000000000000000000000000000000000006106cc565b9063da3e3397836114fa30611491565b938392813b15611667575f6115229161152d82966115166100c2565b998a9788968795610d72565b855260048501610e2f565b03925af19182156116625761158592611636575b5061154b83610e6d565b906115757f00000000000000000000000000000000000000000000000000000000000000006106cc565b61157e30611491565b9192611cce565b6115ae7f00000000000000000000000000000000000000000000000000000000000000006106cc565b90633faec084906115be30611491565b92803b15611631576115e35f80946115ee6115d76100c2565b97889687958694610d72565b84526004840161149d565b03925af1801561162c57611600575b50565b61161f905f3d8111611625575b6116178183610d49565b810190610e20565b5f6115fd565b503d61160d565b610e10565b610d27565b611655905f3d811161165b575b61164d8183610d49565b810190610e20565b5f611541565b503d611643565b610e10565b610d27565b6116759061023c565b90565b916116919161168b918491600192611d19565b15610183565b6116985750565b6116a46116bb9161166c565b5f918291635274afe760e01b8352600483016103bf565b0390fd5b5f90565b60016116cf91016104c0565b90565b634e487b7160e01b5f52603260045260245ffd5b91908110156116f6576020020190565b6116d2565b35611705816100d7565b90565b61171461171991610791565b61013e565b90565b6117269054611708565b90565b906020828203126117425761173f915f01610d78565b90565b6100cc565b5f7f4e6f2076616c69642071756f746520666f756e64000000000000000000000000910152565b61177b6014602092610830565b61178481611747565b0190565b61179d9060208101905f81830391015261176e565b90565b156117a757565b6117af6100c2565b62461bcd60e51b8152806117c560048201611788565b0390fd5b6117d281610183565b036117d957565b5f80fd5b905051906117ea826117c9565b565b9060208282031261180557611802915f016117dd565b90565b6100cc565b91602061182b92949361182460408201965f8301906103b2565b01906105f9565b565b60209181520190565b90825f939282370152565b919061185b81611854816118609561182d565b8095611836565b610d2b565b0190565b9093916118a5959361188e6118989261188460808601985f8701906103b2565b60208501906103b2565b60408301906105f9565b6060818503910152611841565b90565b60207f6f74650000000000000000000000000000000000000000000000000000000000917f5377617020657865637574696f6e206661696c656420746f206d6565742071755f8201520152565b6119026023604092610830565b61190b816118a8565b0190565b6119249060208101905f8183039101526118f5565b90565b1561192e57565b6119366100c2565b62461bcd60e51b81528061194c6004820161190f565b0390fd5b91929094939661195e610c38565b506119685f610c63565b946119716116bf565b9761197b5f610c63565b5b8a61199961199361198e849389610c5f565b6104c0565b916104c0565b1015611ac6576119b36119ae868d84916116e6565b6116fb565b6119d06119ca6119c560028490610124565b61171c565b15610183565b611abc578760208b6119f46119ef6119ea600187906102e3565b6107ff565b610343565b611a185f8c611a2363b6466384919597611a0c6100c2565b98899788968795610d72565b855260048501610e2f565b03925af180915f92611a8c575b50155f14611a56575050611a4c906001611a51575b5b5b6116c3565b61197c565b611a45565b80611a69611a638c6104c0565b916104c0565b11611a7a575b5050611a4c90611a46565b909850611a4c919a509799905f611a6f565b611aae91925060203d8111611ab5575b611aa68183610d49565b810190611729565b905f611a30565b503d611a9c565b50611a4c90611a47565b509392509496611b01919850611afc90969496611af589611aef611ae95f610c63565b916104c0565b116117a0565b60016102e3565b6107ff565b611b12611b0d83610e6d565b61166c565b91602063095ea7b393611b2484610343565b90611b425f8b97611b4d611b366100c2565b998a9687958694610d72565b84526004840161180a565b03925af1928315611c3057602096611b735f94611b9e93611b9397611c05575b50610343565b956343a0a7f2939799919091611b876100c2565b9a8b998a988997610d72565b875260048701611864565b03925af18015611c0057611bcf915f91611bd2575b5091611bc8611bc284926104c0565b916104c0565b1015611927565b90565b611bf3915060203d8111611bf9575b611beb8183610d49565b810190611729565b5f611bb3565b503d611be1565b610e10565b611c24908b3d8111611c29575b611c1c8183610d49565b8101906117ec565b611b6d565b503d611c12565b610e10565b611c3d61078d565b503390565b611c4a611da7565b611c5057565b5f633ee5aeb560e01b815280611c68600482016102ab565b0390fd5b90565b611c83611c7e611c8892611c6c565b6108bb565b6100d4565b90565b611cb47f9b779b17422d0df92223018b32b4d1fa46e071723d6817e2486d003becc55f00611c6f565b90565b611cbf6116bf565b50611cc8611c8b565b90565b90565b9290611ceb92611ce5928592919091600193611de7565b15610183565b611cf25750565b611cfe611d159161166c565b5f918291635274afe760e01b8352600483016103bf565b0390fd5b9091939293611d26610b69565b5063a9059cbb60e01b92604051935f525f1960601c1660045260245260205f60448180855af19360015f5114851615611d61575b5050604052565b8492941516611d7a575f903b113d151616915f80611d5a565b833d5f823e3d90fd5b90565b611d92611d9791610791565b611d83565b90565b611da49054611d86565b90565b611daf610b69565b50611dca5f611dc4611dbf611cb7565b611ccb565b01611d9a565b611de3611ddd611dd86113b3565b6104c0565b916104c0565b1490565b91949394929092611df6610b69565b506323b872dd60e01b93604051945f525f1960601c166004525f1960601c1660245260445260205f60648180855af19360015f5114851615611e3e575b50506040525f606052565b8492941516611e57575f903b113d151616915f80611e33565b833d5f823e3d90fdfea264697066735822122053793542023a7b7c45dfa5ae3717d6f66f84398ff217ef33ada393cd7a9d7b8c64736f6c63430008210033","linkReferences":{}},"methodIdentifiers":{"adapters(bytes32)":"72c6838f","addAdapter(bytes32,address)":"a9212b5b","feeController()":"6999b377","owner()":"8da5cb5b","removeAdapter(bytes32)":"b59b1176","renounceOwnership()":"715018a6","swap(address,address,uint256,bytes32[],bytes)":"d9097dd2","transferOwnership(address)":"f2fde38b","vault()":"fbfa77cf","whitelistedAdapters(bytes32)":"2c4e9939"},"id":3}