{"abi":[{"type":"constructor","inputs":[{"name":"_multisig","type":"address","internalType":"address"},{"name":"_vault","type":"address","internalType":"address"},{"name":"_feeController","type":"address","internalType":"address"},{"name":"_aggregator","type":"address","internalType":"address"}],"stateMutability":"nonpayable"},{"type":"receive","stateMutability":"payable"},{"type":"function","name":"aggregator","inputs":[],"outputs":[{"name":"","type":"address","internalType":"contract AMMAggregator"}],"stateMutability":"view"},{"type":"function","name":"feeController","inputs":[],"outputs":[{"name":"","type":"address","internalType":"contract FeeController"}],"stateMutability":"view"},{"type":"function","name":"owner","inputs":[],"outputs":[{"name":"","type":"address","internalType":"address"}],"stateMutability":"view"},{"type":"function","name":"renounceOwnership","inputs":[],"outputs":[],"stateMutability":"nonpayable"},{"type":"function","name":"swap","inputs":[{"name":"tokenIn","type":"address","internalType":"address"},{"name":"tokenOut","type":"address","internalType":"address"},{"name":"amountIn","type":"uint256","internalType":"uint256"},{"name":"minAmountOut","type":"uint256","internalType":"uint256"},{"name":"data","type":"bytes","internalType":"bytes"}],"outputs":[],"stateMutability":"nonpayable"},{"type":"function","name":"sweepERC20","inputs":[{"name":"_token","type":"address","internalType":"address"}],"outputs":[],"stateMutability":"nonpayable"},{"type":"function","name":"transferOwnership","inputs":[{"name":"newOwner","type":"address","internalType":"address"}],"outputs":[],"stateMutability":"nonpayable"},{"type":"function","name":"vault","inputs":[],"outputs":[{"name":"","type":"address","internalType":"contract VaultSpot"}],"stateMutability":"view"},{"type":"event","name":"OwnershipTransferred","inputs":[{"name":"previousOwner","type":"address","indexed":true,"internalType":"address"},{"name":"newOwner","type":"address","indexed":true,"internalType":"address"}],"anonymous":false},{"type":"event","name":"Swap","inputs":[{"name":"user","type":"address","indexed":true,"internalType":"address"},{"name":"tokenIn","type":"address","indexed":true,"internalType":"address"},{"name":"tokenOut","type":"address","indexed":true,"internalType":"address"},{"name":"amountIn","type":"uint256","indexed":false,"internalType":"uint256"},{"name":"amountOut","type":"uint256","indexed":false,"internalType":"uint256"},{"name":"usedAdapter","type":"string","indexed":false,"internalType":"string"}],"anonymous":false},{"type":"error","name":"OwnableInvalidOwner","inputs":[{"name":"owner","type":"address","internalType":"address"}]},{"type":"error","name":"OwnableUnauthorizedAccount","inputs":[{"name":"account","type":"address","internalType":"address"}]},{"type":"error","name":"ReentrancyGuardReentrantCall","inputs":[]},{"type":"error","name":"SafeERC20FailedDecreaseAllowance","inputs":[{"name":"spender","type":"address","internalType":"address"},{"name":"currentAllowance","type":"uint256","internalType":"uint256"},{"name":"requestedDecrease","type":"uint256","internalType":"uint256"}]},{"type":"error","name":"SafeERC20FailedOperation","inputs":[{"name":"token","type":"address","internalType":"address"}]}],"bytecode":{"object":"0x608060405234801561000f575f5ffd5b506040516119dd3803806119dd833981810160405281019061003191906102f0565b835f73ffffffffffffffffffffffffffffffffffffffff168173ffffffffffffffffffffffffffffffffffffffff16036100a2575f6040517f1e4fbdf70000000000000000000000000000000000000000000000000000000081526004016100999190610363565b60405180910390fd5b6100b18161019f60201b60201c565b5060016100d06100c561026060201b60201c565b61028960201b60201c565b5f01819055508260015f6101000a81548173ffffffffffffffffffffffffffffffffffffffff021916908373ffffffffffffffffffffffffffffffffffffffff1602179055508160025f6101000a81548173ffffffffffffffffffffffffffffffffffffffff021916908373ffffffffffffffffffffffffffffffffffffffff1602179055508060035f6101000a81548173ffffffffffffffffffffffffffffffffffffffff021916908373ffffffffffffffffffffffffffffffffffffffff1602179055505050505061037c565b5f5f5f9054906101000a900473ffffffffffffffffffffffffffffffffffffffff169050815f5f6101000a81548173ffffffffffffffffffffffffffffffffffffffff021916908373ffffffffffffffffffffffffffffffffffffffff1602179055508173ffffffffffffffffffffffffffffffffffffffff168173ffffffffffffffffffffffffffffffffffffffff167f8be0079c531659141344cd1fd0a4f28419497f9722a3daafe3b4186f6b6457e060405160405180910390a35050565b5f7f9b779b17422d0df92223018b32b4d1fa46e071723d6817e2486d003becc55f005f1b905090565b5f819050919050565b5f5ffd5b5f73ffffffffffffffffffffffffffffffffffffffff82169050919050565b5f6102bf82610296565b9050919050565b6102cf816102b5565b81146102d9575f5ffd5b50565b5f815190506102ea816102c6565b92915050565b5f5f5f5f6080858703121561030857610307610292565b5b5f610315878288016102dc565b9450506020610326878288016102dc565b9350506040610337878288016102dc565b9250506060610348878288016102dc565b91505092959194509250565b61035d816102b5565b82525050565b5f6020820190506103765f830184610354565b92915050565b611654806103895f395ff3fe60806040526004361061007e575f3560e01c80638da5cb5b1161004d5780638da5cb5b1461011b578063e00af4a714610145578063f2fde38b1461016d578063fbfa77cf1461019557610085565b8063245a7bfc146100895780632506c018146100b35780636999b377146100db578063715018a61461010557610085565b3661008557005b5f5ffd5b348015610094575f5ffd5b5061009d6101bf565b6040516100aa9190610f50565b60405180910390f35b3480156100be575f5ffd5b506100d960048036038101906100d49190611049565b6101e4565b005b3480156100e6575f5ffd5b506100ef610741565b6040516100fc91906110ff565b60405180910390f35b348015610110575f5ffd5b50610119610766565b005b348015610126575f5ffd5b5061012f610779565b60405161013c9190611127565b60405180910390f35b348015610150575f5ffd5b5061016b60048036038101906101669190611140565b6107a0565b005b348015610178575f5ffd5b50610193600480360381019061018e9190611140565b6108d8565b005b3480156101a0575f5ffd5b506101a961095c565b6040516101b6919061118b565b60405180910390f35b60035f9054906101000a900473ffffffffffffffffffffffffffffffffffffffff1681565b6101ec610981565b60015f9054906101000a900473ffffffffffffffffffffffffffffffffffffffff1673ffffffffffffffffffffffffffffffffffffffff1663262709e63388876040518463ffffffff1660e01b815260040161024a939291906111b3565b5f604051808303815f87803b158015610261575f5ffd5b505af1158015610273573d5f5f3e3d5ffd5b505050505f5f60025f9054906101000a900473ffffffffffffffffffffffffffffffffffffffff1673ffffffffffffffffffffffffffffffffffffffff166373352ad38989896040518463ffffffff1660e01b81526004016102d7939291906111b3565b606060405180830381865afa1580156102f2573d5f5f3e3d5ffd5b505050506040513d601f19601f8201168201806040525081019061031691906111fc565b50915091505f8111156104455761036f60015f9054906101000a900473ffffffffffffffffffffffffffffffffffffffff16828a73ffffffffffffffffffffffffffffffffffffffff166109a39092919063ffffffff16565b60015f9054906101000a900473ffffffffffffffffffffffffffffffffffffffff1673ffffffffffffffffffffffffffffffffffffffff16636c07eaa189836040518363ffffffff1660e01b81526004016103cb92919061124c565b5f604051808303815f87803b1580156103e2575f5ffd5b505af11580156103f4573d5f5f3e3d5ffd5b5050505061044460015f9054906101000a900473ffffffffffffffffffffffffffffffffffffffff16828a73ffffffffffffffffffffffffffffffffffffffff16610a3c9092919063ffffffff16565b5b61049160035f9054906101000a900473ffffffffffffffffffffffffffffffffffffffff16838a73ffffffffffffffffffffffffffffffffffffffff166109a39092919063ffffffff16565b5f5f60035f9054906101000a900473ffffffffffffffffffffffffffffffffffffffff1673ffffffffffffffffffffffffffffffffffffffff16633b4644ec8b8b878b8b8b6040518763ffffffff1660e01b81526004016104f7969594939291906112cd565b5f604051808303815f875af1158015610512573d5f5f3e3d5ffd5b505050506040513d5f823e3d601f19601f8201168201806040525081019061053a919061144f565b9150915061058a60035f9054906101000a900473ffffffffffffffffffffffffffffffffffffffff16858c73ffffffffffffffffffffffffffffffffffffffff16610a3c9092919063ffffffff16565b6105d660015f9054906101000a900473ffffffffffffffffffffffffffffffffffffffff16838b73ffffffffffffffffffffffffffffffffffffffff166109a39092919063ffffffff16565b60015f9054906101000a900473ffffffffffffffffffffffffffffffffffffffff1673ffffffffffffffffffffffffffffffffffffffff16637de182c5338b856040518463ffffffff1660e01b8152600401610634939291906111b3565b5f604051808303815f87803b15801561064b575f5ffd5b505af115801561065d573d5f5f3e3d5ffd5b505050506106ad60015f9054906101000a900473ffffffffffffffffffffffffffffffffffffffff16838b73ffffffffffffffffffffffffffffffffffffffff16610a3c9092919063ffffffff16565b8873ffffffffffffffffffffffffffffffffffffffff168a73ffffffffffffffffffffffffffffffffffffffff163373ffffffffffffffffffffffffffffffffffffffff167fd9bd27f1713684374acce8b2128048b81bbe853994f63604a996707795881a918b8686604051610725939291906114fb565b60405180910390a450505050610739610b15565b505050505050565b60025f9054906101000a900473ffffffffffffffffffffffffffffffffffffffff1681565b61076e610b2f565b6107775f610bb6565b565b5f5f5f9054906101000a900473ffffffffffffffffffffffffffffffffffffffff16905090565b6107a8610b2f565b5f73ffffffffffffffffffffffffffffffffffffffff168173ffffffffffffffffffffffffffffffffffffffff160361082b576107e3610779565b73ffffffffffffffffffffffffffffffffffffffff166108fc4790811502906040515f60405180830381858888f19350505050158015610825573d5f5f3e3d5ffd5b506108d5565b6108d4610836610779565b8273ffffffffffffffffffffffffffffffffffffffff166370a08231306040518263ffffffff1660e01b815260040161086f9190611127565b602060405180830381865afa15801561088a573d5f5f3e3d5ffd5b505050506040513d601f19601f820116820180604052508101906108ae9190611537565b8373ffffffffffffffffffffffffffffffffffffffff16610c779092919063ffffffff16565b5b50565b6108e0610b2f565b5f73ffffffffffffffffffffffffffffffffffffffff168173ffffffffffffffffffffffffffffffffffffffff1603610950575f6040517f1e4fbdf70000000000000000000000000000000000000000000000000000000081526004016109479190611127565b60405180910390fd5b61095981610bb6565b50565b60015f9054906101000a900473ffffffffffffffffffffffffffffffffffffffff1681565b610989610cca565b600261099b610996610d0b565b610d34565b5f0181905550565b5f8373ffffffffffffffffffffffffffffffffffffffff1663dd62ed3e30856040518363ffffffff1660e01b81526004016109df929190611562565b602060405180830381865afa1580156109fa573d5f5f3e3d5ffd5b505050506040513d601f19601f82011682018060405250810190610a1e9190611537565b9050610a3684848484610a3191906115b6565b610d3d565b50505050565b5f8373ffffffffffffffffffffffffffffffffffffffff1663dd62ed3e30856040518363ffffffff1660e01b8152600401610a78929190611562565b602060405180830381865afa158015610a93573d5f5f3e3d5ffd5b505050506040513d601f19601f82011682018060405250810190610ab79190611537565b905081811015610b02578281836040517fe570110f000000000000000000000000000000000000000000000000000000008152600401610af9939291906115e9565b60405180910390fd5b610b0f8484848403610d3d565b50505050565b6001610b27610b22610d0b565b610d34565b5f0181905550565b610b37610def565b73ffffffffffffffffffffffffffffffffffffffff16610b55610779565b73ffffffffffffffffffffffffffffffffffffffff1614610bb457610b78610def565b6040517f118cdaa7000000000000000000000000000000000000000000000000000000008152600401610bab9190611127565b60405180910390fd5b565b5f5f5f9054906101000a900473ffffffffffffffffffffffffffffffffffffffff169050815f5f6101000a81548173ffffffffffffffffffffffffffffffffffffffff021916908373ffffffffffffffffffffffffffffffffffffffff1602179055508173ffffffffffffffffffffffffffffffffffffffff168173ffffffffffffffffffffffffffffffffffffffff167f8be0079c531659141344cd1fd0a4f28419497f9722a3daafe3b4186f6b6457e060405160405180910390a35050565b610c848383836001610df6565b610cc557826040517f5274afe7000000000000000000000000000000000000000000000000000000008152600401610cbc9190611127565b60405180910390fd5b505050565b610cd2610e58565b15610d09576040517f3ee5aeb500000000000000000000000000000000000000000000000000000000815260040160405180910390fd5b565b5f7f9b779b17422d0df92223018b32b4d1fa46e071723d6817e2486d003becc55f005f1b905090565b5f819050919050565b610d498383835f610e74565b610dea57610d5a83835f6001610e74565b610d9b57826040517f5274afe7000000000000000000000000000000000000000000000000000000008152600401610d929190611127565b60405180910390fd5b610da88383836001610e74565b610de957826040517f5274afe7000000000000000000000000000000000000000000000000000000008152600401610de09190611127565b60405180910390fd5b5b505050565b5f33905090565b5f5f63a9059cbb60e01b9050604051815f525f1960601c86166004528460245260205f60445f5f8b5af1925060015f51148316610e4a578383151615610e3e573d5f823e3d81fd5b5f873b113d1516831692505b806040525050949350505050565b5f6002610e6b610e66610d0b565b610d34565b5f015414905090565b5f5f63095ea7b360e01b9050604051815f525f1960601c86166004528460245260205f60445f5f8b5af1925060015f51148316610ec8578383151615610ebc573d5f823e3d81fd5b5f873b113d1516831692505b806040525050949350505050565b5f73ffffffffffffffffffffffffffffffffffffffff82169050919050565b5f819050919050565b5f610f18610f13610f0e84610ed6565b610ef5565b610ed6565b9050919050565b5f610f2982610efe565b9050919050565b5f610f3a82610f1f565b9050919050565b610f4a81610f30565b82525050565b5f602082019050610f635f830184610f41565b92915050565b5f604051905090565b5f5ffd5b5f5ffd5b5f610f8482610ed6565b9050919050565b610f9481610f7a565b8114610f9e575f5ffd5b50565b5f81359050610faf81610f8b565b92915050565b5f819050919050565b610fc781610fb5565b8114610fd1575f5ffd5b50565b5f81359050610fe281610fbe565b92915050565b5f5ffd5b5f5ffd5b5f5ffd5b5f5f83601f84011261100957611008610fe8565b5b8235905067ffffffffffffffff81111561102657611025610fec565b5b60208301915083600182028301111561104257611041610ff0565b5b9250929050565b5f5f5f5f5f5f60a0878903121561106357611062610f72565b5b5f61107089828a01610fa1565b965050602061108189828a01610fa1565b955050604061109289828a01610fd4565b94505060606110a389828a01610fd4565b935050608087013567ffffffffffffffff8111156110c4576110c3610f76565b5b6110d089828a01610ff4565b92509250509295509295509295565b5f6110e982610f1f565b9050919050565b6110f9816110df565b82525050565b5f6020820190506111125f8301846110f0565b92915050565b61112181610f7a565b82525050565b5f60208201905061113a5f830184611118565b92915050565b5f6020828403121561115557611154610f72565b5b5f61116284828501610fa1565b91505092915050565b5f61117582610f1f565b9050919050565b6111858161116b565b82525050565b5f60208201905061119e5f83018461117c565b92915050565b6111ad81610fb5565b82525050565b5f6060820190506111c65f830186611118565b6111d36020830185611118565b6111e060408301846111a4565b949350505050565b5f815190506111f681610fbe565b92915050565b5f5f5f6060848603121561121357611212610f72565b5b5f611220868287016111e8565b9350506020611231868287016111e8565b9250506040611242868287016111e8565b9150509250925092565b5f60408201905061125f5f830185611118565b61126c60208301846111a4565b9392505050565b5f82825260208201905092915050565b828183375f83830152505050565b5f601f19601f8301169050919050565b5f6112ac8385611273565b93506112b9838584611283565b6112c283611291565b840190509392505050565b5f60a0820190506112e05f830189611118565b6112ed6020830188611118565b6112fa60408301876111a4565b61130760608301866111a4565b818103608083015261131a8184866112a1565b9050979650505050505050565b5f5ffd5b7f4e487b71000000000000000000000000000000000000000000000000000000005f52604160045260245ffd5b61136182611291565b810181811067ffffffffffffffff821117156113805761137f61132b565b5b80604052505050565b5f611392610f69565b905061139e8282611358565b919050565b5f67ffffffffffffffff8211156113bd576113bc61132b565b5b6113c682611291565b9050602081019050919050565b8281835e5f83830152505050565b5f6113f36113ee846113a3565b611389565b90508281526020810184848401111561140f5761140e611327565b5b61141a8482856113d3565b509392505050565b5f82601f83011261143657611435610fe8565b5b81516114468482602086016113e1565b91505092915050565b5f5f6040838503121561146557611464610f72565b5b5f611472858286016111e8565b925050602083015167ffffffffffffffff81111561149357611492610f76565b5b61149f85828601611422565b9150509250929050565b5f81519050919050565b5f82825260208201905092915050565b5f6114cd826114a9565b6114d781856114b3565b93506114e78185602086016113d3565b6114f081611291565b840191505092915050565b5f60608201905061150e5f8301866111a4565b61151b60208301856111a4565b818103604083015261152d81846114c3565b9050949350505050565b5f6020828403121561154c5761154b610f72565b5b5f611559848285016111e8565b91505092915050565b5f6040820190506115755f830185611118565b6115826020830184611118565b9392505050565b7f4e487b71000000000000000000000000000000000000000000000000000000005f52601160045260245ffd5b5f6115c082610fb5565b91506115cb83610fb5565b92508282019050808211156115e3576115e2611589565b5b92915050565b5f6060820190506115fc5f830186611118565b61160960208301856111a4565b61161660408301846111a4565b94935050505056fea2646970667358221220201b62c5bc84eb83231341a7e32acd2d3cb7fdf208311694f07adfcf8afa5bca64736f6c634300081e0033","linkReferences":{}},"methodIdentifiers":{"aggregator()":"245a7bfc","feeController()":"6999b377","owner()":"8da5cb5b","renounceOwnership()":"715018a6","swap(address,address,uint256,uint256,bytes)":"2506c018","sweepERC20(address)":"e00af4a7","transferOwnership(address)":"f2fde38b","vault()":"fbfa77cf"},"id":2}